:020000040800F2
:10000000009000206D310008BD310008AD1B0008D4
:1000100000000000000000000000000000000000E0
:10002000000000000000000000000000BD310008DA
:100030000000000000000000BD310008091C00089D
:10004000BD310008BD310008BD310008BD310008D8
:10005000191C0008BD310008BD310008611F0008EF
:10006000BD31000869200008BD310008BD3100081D
:10007000CD1F0008351C0008A51C0008511D0008F4
:10008000BD310008B11F0008BD310008BD310008B6
:10009000BD310008BD310008D91D0008BD31000880
:1000A000BD310008BD310008BD310008BD31000878
:0C00B000D5200008BD310008BD3100085B
:1000BC0010B5064C2378002B07D1054B002B02D032
:1000CC00044800E000BF0123237010BD7000002025
:1000DC0000000000D4560008044B10B5002B03D0D0
:1000EC000349044800E000BF10BDC04600000000FA
:1000FC0074000020D4560008F0B50124C0238440BD
:10010C000B4D5B00EC500700830803203840FF27A1
:10011C00AC46C026C0008740890181409B006344E7
:10012C00B6009A59BA430A439A512C60F0BDC046A6
:10013C0000E100E0F0B5C64600B582B0070008A8A3
:10014C000088002484461848804605002E78BE425C
:10015C0007D001340C350A2CF8D102B080BCB8465B
:10016C00F0BD654660000419A4004444A0680093E7
:10017C000195130065680A003900A8476388012BB4
:10018C0004D0002BE9D0013B6380E6E7782143469D
:10019C005B5C013BDAB243465A5453009B189B00FC
:1001AC00434407CB07C4D8E78C00002070B50F4E32
:1001BC00002334002578854213D001330C340A2BEC
:1001CC00F8D17824335D0A2B0AD05D1C35555C00C0
:1001DC00E418A400331930550548996058605A80CA
:1001EC0070BD5800C3189B00F318F5E78C00002075
:1001FC0031100008F0B501224F46D64646460B6832
:10020C0000249146C0B5002B1AD14BE01700574380
:10021C007B00DB19DB43C568AC4666460D691E40A6
:10022C007D433543C5604D68022D2DD07D4302685A
:10023C0013402B4303600B681A000134E24031D0A9
:10024C004D461A00A5402A402B42F5D04B68013B85
:10025C00012BDBD81700574383688D6898467B00C9
:10026C009C467D43BC44AA4646466546AE43350093
:10027C00564663462E438660CE6845685643954382
:10028C003543DB434560C6E7FF2A10D83D007D436C
:10029C00026A2E01761BB2434E6975432A430262F1
:1002AC004D68C3E7E0BCBA46B146A846F0BD120A99
:1002BC0052435243456A1601B61AB5434E6972430E
:1002CC002A4342624D68B1E710B511240200084878
:1002DC000B00016AA14301628020064980008862FC
:1002EC00DA38FF3888610449044803F0DBFEFEE786
:1002FC00002C014000040050E45B0008205F000863
:10030C00FA2170B5124C05008900206802F09CFCA3
:10031C00802301385B04984201D3012070BDC021B9
:10032C000C4A090650600C48036A1B021B0A0B435B
:10033C0003620721002393601160032DEDD8026A3C
:10034C00A9071202120A0A43026218006560E5E767
:10035C000000002010E000E000ED00E010B50A0005
:10036C0002490348103103F09DFE10BDE45B000808
:10037C002C5F000810B50A0002490348203103F035
:10038C0091FE10BDE45B00082C5F000870B50C00FA
:10039C005026050082B01D4803F084FEF42366430A
:1003AC00EC54002E14D12B000122F43300920021C6
:1003BC0003320720FFF7BEFE610832340C19E4B299
:1003CC002100134803F06EFEE435AC7102B070BD31
:1003DC003100104803F066FE0F4B104ACC331E80E0
:1003EC00331C964200D9131C0D4A9BB2934200D287
:1003FC0013000A4AD21A0B4B534380221201944623
:10040C00094A63441B0B5361CDE7C046345F0008B7
:10041C006C5F0008545F00088C000020D32700009C
:10042C00B2040000490700000074004010B5C188F8
:10043C00354A0139D1620189030001391163002168
:10044C0006205162116981431161197B002941D049
:10045C000020012900D010BD5989043002318905D2
:10046C00090E9163D1680143D160012026494A6984
:10047C0002434A611A795B79110019430A1E234B16
:10048C003AD04021D2439961D3B2024237D1204AAB
:10049C00906202221E491A422CD08A6104221C4905
:1004AC001A4225D08A611B071ED52022184B9A614F
:1004BC000023154C174A6363A3639433D058262149
:1004CC000023002204F056F8012223680120134374
:1004DC002360C0E75989043802318905090E51633C
:1004EC00D1680143D160C0E72022094B9A62DFE753
:1004FC008A62D8E78A62D1E740229A62FF230121FF
:10050C00034A9161C5E7C046002C01400008005029
:10051C00000400508C0000204B1E9941012310B5A3
:10052C0049429943002200230E3104F023F810BDF8
:10053C0070B5060014001D0082B080360092019345
:10054C0032687368A41A9D41002D04D1074B9C425C
:10055C0001D802B070BD08236A46142104F00AF8D1
:10056C00009B019C33607460F3E7C046BFE1E4007C
:10057C00F0B54189030085B00020002901D105B0F8
:10058C00F0BD1C7B18689E881A79002C35D16C46FE
:10059C00817B1D7A5200491B01392181012119737C
:1005AC0041688D18895C21716D7865719A7992001A
:1005BC0062814389C820E3808000824200D9608137
:1005CC000D422FD105220A4051424A4122731F4A43
:1005DC0094461F4A63449BB2934209D86389052B06
:1005EC0006D92389002B03D02000FFF71FFFC6E795
:1005FC00184803F057FD0020C1E701320489D5B239
:10060C00AC420DD06A006C461D7A0135EDB21D72FC
:10061C002581877B013FBD420CD000211973BFE7B8
:10062C000022F0E740210C4A0C4803F04BFD2179E5
:10063C00E388C7E700250136B6B21D729E80078994
:10064C00B742EAD101399D805981E6E778ECFFFF8A
:10065C009CE00000C05F0008905F0008AC5F0008E1
:10066C00032310B5104C114A23616361104BA26136
:10067C00E36180239B0123620023A3626362E36234
:10068C0022660C4A0C49603262661022E01DA2669A
:10069C002367E366636704F069FC2000074904F0F4
:1006AC0065FC2023A37110BDB0210020D05F000891
:1006BC00B00100200C010020DC5F0008E05F0008A6
:1006CC00F8B54746CE4680B58368C56899465B1B2E
:1006DC009846436804000E0017005819904507D936
:1006EC00ED1904F009FBE560C0BCB946B046F8BD95
:1006FC00424604F001FB4B463100ED19ED1A2A007D
:10070C006068414404F0F8FAE560EDE7F0B557464F
:10071C004E464546DE46E0B5354B83B09A461B78CF
:10072C00060015000191002B56D07700BB19DB0099
:10073C0053441A6F9046DA6E9146904525D81300B3
:10074C0042462C009B1A9D4209D8002C09D120004E
:10075C0003B0F0BCBB46B246A946A046F0BD1C1E79
:10076C00F5D0A146BB19DB005344596E220041441D
:10077C000198A04404F0C0FA4C46002CE7D0434644
:10078C00BF19FF0057443B67E1E742469B6E2C00C4
:10079C009B1A9D4227D8BB19DB0053449B46596ECC
:1007AC0022004144019804F0A7FA5B469B6EA044DA
:1007BC002D1B434519D04B4642469B1A99464D4535
:1007CC000DD8002DD9D0019BA1469C46A44463466C
:1007DC002C000193A944C5E7FFF742FFA5E74D465E
:1007EC00002DCAD0EFE71C00D5E700239846E6E7BA
:1007FC00B0210020F8B557464E46DE4645468946A0
:10080C00411CE0B517004A0052180300D200924672
:10081C00344A5E0093461000F618F6005E44F36A04
:10082C0050449846012B0CD0022B27D0002B17D00C
:10083C00002398464046F0BCBB46B246A946A046AB
:10084C00F8BDB36A726A934247D9013B9B1AB8460A
:10085C009F4200D9984642464946FFF731FFE9E7E7
:10086C00B36A726A934233D9013B9B1A9F42E1D817
:10087C003A004946FFF724FFB846DBE70023746AC9
:10088C0098461DE0013B356A1B1BBB4200D93B005F
:10089C002D1B9D4200D91D005B46534458682A000D
:1008AC004946001904F028FA336A6419E31A5A1EEF
:1008BC0093415B421C40A844A9447F1B7462B9D08D
:1008CC00B36AA342DED8356A5B19013B1B1BDCE71C
:1008DC00316A5B18013B9B1AC8E7316A5B18013B14
:1008EC009B1AB4E7B0210020F0B5C64600B5856868
:1008FC0043686A1C04009A4207D8036859551500CE
:10090C00C36882600133C36043689D4202D080BCDF
:10091C00B846F0BD2368276998460E4B1B78002B10
:10092C0015D0EFF31086012181F310882A0041467F
:10093C003800FFF75FFF86F31088A368834203D06B
:10094C0001235B42E360E2E70023A360DFE7FFF7EC
:10095C0087FEE6E7B0210020F0B54E4645465746E7
:10096C00DE46E0B583B09A460C9B80460E0015001F
:10097C009946914200D27DE008000127290002F03F
:10098C0063F901378542F9D9574500D257460123FF
:10099C000D9A1A4001920D9A13424ED14B46002BE0
:1009AC004BD0130020249B075ED44F4545D2012326
:1009BC005B429C4621004046E144FFF795FF4346CD
:1009CC00DB68002B32DB4B46002BEED15346012467
:1009DC00012B07D901235B429C46E24453466C43EE
:1009EC00012BF7D82100300002F02EF98542F5D901
:1009FC00214B9B4630239A4606E02900200002F04A
:100A0C0023F9AC420FD304003000210002F0A2F90C
:100A1C00534658440E00C15C4046FFF765FF434601
:100A2C00DB68002BE9DA019B002B19D103B0F0BC79
:100A3C00BB46B246A946A046F0BD4346DB68002B38
:100A4C00C4DAF3E74F45F1D201235B429C462021E7
:100A5C004046E144FFF748FF4346DB68002BE5DBEB
:100A6C004B46002BEED1E1E753465C425C4124013E
:100A7C0020349AE7012787E7E45B000810B50800EB
:100A8C0003F02EFE034902004031034803F00AFB39
:100A9C00002010BDE45B0008E85F000810B50800FA
:100AAC0003F01EFE034902004C31034803F0FAFA2E
:100ABC00002010BDE45B00080C60000810B50400B9
:100ACC00806F03F053FD002801D1002010BD606F32
:100ADC0003F04CFD0028F8D0200003F047FDF5E7AB
:100AEC0070B5D0267600835904009847051E1DD09A
:100AFC00A65903F0D7FD01002000B047002805D00F
:100B0C003A210B4A0B48FF3103F0DCFAD0235B008F
:100B1C00E55003F0B9FD01002000A847002805D0DE
:100B2C009E21034A0348490003F0CCFA70BDC0462D
:100B3C00306000083C60000870B5DC268359040066
:100B4C009847051E1CD0A65903F0ACFD01002000EF
:100B5C00B047002805D064210A4A0B48FF3103F046
:100B6C00B1FADC23E55003F08FFD01002000A8470B
:100B7C00002805D0B321034A0348490003F0A2FA28
:100B8C0070BDC0463060000850600008F8B5050024
:100B9C000E0072B6BFF34F8FBFF36F8F274C270039
:100BAC00C4373B78FF2B3CD022000133C432137086
:100BBC00234B0122EF183100380003F051FB0128C0
:100BCC0004D0D0211F4A204803F07CFA380003F0EF
:100BDC00C1FA002810D02500C4352B78002B19D071
:100BEC00013BDBB2C4342370002B04D1BFF34F8F15
:100BFC00BFF36F8F62B6F8BD144BEA56012A17D0BB
:100C0C002500134913485831C43503F04BFA2B789F
:100C1C00002BE5D1104A1149114803F053FA2B78F7
:100C2C00DEE7104A10490E4803F04CFA3B78BBE75C
:100C3C0080210E4A13688B431360CCE78C00002094
:100C4C00641000009C600008A8600008D514000027
:100C5C00E45B0008B8600008D4600008DA02000009
:100C6C008860000860600008D30200000044004067
:100C7C00F8B5224D0400435D5A1CD2B24255C3183C
:100C8C001F48844663441970072A08D91C4BE61880
:100C9C00082A0DD01B4BE05A0830824201D00020AC
:100CAC00F8BD0022154B3000E25403F005FCF7E7C9
:100CBC00300003F0DDFB00280BD0300003F008FC03
:100CCC008023104F0100E0539B00984210D8625DC6
:100CDC00E2E7615D0139C9B261550029DFD000231B
:100CEC0072780133DBB2327001369942F8D1D6E713
:100CFC00054803F0D7F90023E353D0E7D4140000E0
:100D0C00CC120000D6140000F460000870B584B05A
:100D1C000B00009205000022012102A803F038FB11
:100D2C0072B6BFF34F8FBFF36F8F234C2600C436C0
:100D3C003378FF2B32D022000133C43213701F4B97
:100D4C00082202A9E81803F00DFA002811D1250099
:100D5C00C4352B78002B1AD0013BDBB2C434237082
:100D6C00002B04D1BFF34F8FBFF36F8F62B604B06B
:100D7C0070BD134BEA56012A17D0250011491248B1
:100D8C005831C43503F08EF92B78002BE4D10F4A7F
:100D9C000F49104803F096F92B78DDE70E4A0F49FE
:100DAC000C4803F08FF93378C5E780210C4A13689F
:100DBC000B431360CBE7C0468C000020641000008E
:100DCC00D5140000E45B0008B8600008D46000088B
:100DDC00DA0200008860000860600008D30200009E
:100DEC0000440040F0B50600C64610001D00614BE3
:100DFC0000B5F25C82B09401A4186400A418A4009D
:100E0C00043434190B00019500900421200003F0E8
:100E1C00F7FA083572B6BFF34F8FBFF36F8FC42349
:100E2C009846554FB84443461B78FF2B3CD03A00AC
:100E3C000133C4321370514B21002A00F01803F017
:100E4C0091F9041E18D1C4239846B84443461B7824
:100E5C00002B21D03A00013BDBB2C4321370002BC3
:100E6C0004D1BFF34F8FBFF36F8F62B6A54223D06F
:100E7C0002B080BCB846F0BD414BF256012A5DD0A1
:100E8C0040494148583103F00DF9C4239846B84401
:100E9C0043461B78002BDDD13C4A3D493D4803F0CD
:100EAC0011F943461B78D5E73B4A3C49394803F0D6
:100EBC0009F943461B78BAE772B6BFF34F8FBFF3FD
:100ECC006F8F3C00C4342378FF2B4CD0390070203A
:100EDC005A1CC431D2B20A703149324C496A255A73
:100EEC0089B221528D4207D92000703041880131DE
:100EFC0089B24180002927D0002A29D0C4373B7001
:100F0C00002B04D1BFF34F8FBFF36F8F62B68321D9
:100F1C0089008C461748216F325C646F93019B18D3
:100F2C005B009B189B00F318E407490863442143BA
:100F3C001960072301321A40325499E780211A4A6A
:100F4C0013680B4313607EE7616F01316167D3E770
:100F5C000E4A0F490F4803F0B5F83B00C4331B7819
:100F6C00013BDBB2CAE70C4A0C490A4803F0AAF869
:100F7C002378ABE7D81400008C000020641000002C
:100F8C00D5140000E45B0008B8600008D4600008C9
:100F9C00DA0200008860000860600008D3020000DC
:100FAC00004801400C01002000440040B0B582B064
:100FBC0000AF05000C00FA71002A28D10121042091
:100FCC0003F028FC03006A461333DB08DB00D31A5A
:100FDC005A8821889A8000221A805A809D46A288BD
:100FEC00D98001215A811981FA1D012303A80331EB
:100FFC0003F02AFCD422030052000C33A858012120
:10100C006A469BB2FFF7EEFEBD4602B0B0BD8B88C0
:10101C00024903486C3103F045F8CFE7E45B000864
:10102C0018610008F8B5DE4657464E464546E0B511
:10103C001D00282300AFFB18914604CB06001B882B
:10104C0088462800190093469A4603F0E3FB6B464A
:10105C001330C408E4001B1B5A889D469A8000225A
:10106C001A805A804A46DA8005221A8142462900A3
:10107C005A8103A853465A4603F0E6FBD4220300D8
:10108C0052000C33B05801216A469BB2FFF7AAFEFE
:10109C00BD46F0BCBB46B246A946A046F8BDC0460C
:1010AC000FB430B597B01AA920C92800019102F0ED
:1010BC00EFFF2A0004005021019B02A803F09EFFC1
:1010CC00002808DD94220749013083B2885800219A
:1010DC0002AAFFF787FE200017B030BC08BC04B092
:1010EC001847C0460C01002070B5050082B00800FE
:1010FC000C0003F0F5FAC31FDBB20D2B03D8274904
:10110C009B00CB589F4602002549264802F0CAFF97
:10111C0002B070BD200003F0E7FA046822482100F9
:10112C0002F0C0FF022CF3D188230022EA54EFE72F
:10113C00002300221F21A86F03F01CFAE8E720000F
:10114C0003F0D2FA03001A690068043300920ECB44
:10115C0002F0A8FFDCE7200003F0C6FA0023416888
:10116C000068124A01F010FF04003C21200001F03D
:10117C00F1FD20000E003C2101F066FD3C2101F048
:10118C00E9FD0D00E1212000090101F05DFD3300B6
:10119C0001002A000648FFF783FFB9E7EC56000868
:1011AC00645C00085C6100084861000840420F0064
:1011BC003061000870B504000D0082B0002926D003
:1011CC0029681948FFF76CFFE026E423A551E55088
:1011DC0023000021E433D971AA8920005A8100220E
:1011EC0099801A721A731031FFF7D0F8A459002C99
:1011FC0013D02468200001F015FD80B2009023006C
:10120C000C2200210620FEF795FF02B070BDA5212F
:10121C00064A074802F056FFD2E7A521034A0448C4
:10122C0002F050FFE5E7C046886100086C610008D9
:10123C0078610008F0B5D6464F464646C0B5050065
:10124C008CB008000C0003F04BFA1538C0B2122811
:10125C001BD86A4A8300D3589F46E0236849EB5851
:10126C001031002B07D05B1A1B1101339BB2052BDD
:10127C0001D01B01C9182800FFF79CFF00200CB0FF
:10128C00E0BCBA46B146A846F0BD200003F028FAEF
:10129C005B49020060315B4802F004FFEEE7E0239B
:1012AC000022EA505848EAE7200003F01DFA574A9A
:1012BC0081880AAC5143890B2180438809045A4325
:1012CC00920B628000881204C3011B181B011B1AAD
:1012DC009B0AA3801B041B0C120C090C4C48FFF737
:1012EC00DFFE062303200093102223000021FEF7CB
:1012FC0021FF0020C3E7474802F0D4FEBEE72000E0
:10130C0003F0F2F901782800FFF740F80020B6E767
:10131C00200003F0E9F90600200003F0E3F927218F
:10132C006A460023D82752181370040013003100AA
:10133C000200E85903F0BAFB002836D0E8590AA994
:10134C0003F0A6FB04231022009300210A200AAB11
:10135C00FEF7F0FE92E7200003F0C6F9814620006C
:10136C0003F0C0F9264B2C4F1E00804638009A46DD
:10137C000024103601F056FC40450AD00134A4B2CA
:10138C001036052C8BD03768380001F04BFC4045EB
:10139C00F4D142463900484603F0A0FC0028EDD1B8
:1013AC00534621011033591865E727226B469B18C9
:1013BC0019781A4802F076FE708971788446307B71
:1013CC0072688046707B337A8146F078757A8246F3
:1013DC00B77800200E2C01D90E20305606905046BE
:1013EC000590484604904046039060460197029051
:1013FC0000950B4802F056FE40E7C0462457000803
:10140C00645C0008E85F0008311400084DCE000051
:10141C00A86100085C6200089C610008D0610008AB
:10142C00EC61000830B5040083B008000D0003F037
:10143C0057F9282803D8294B80001B589F462900B0
:10144C002000FFF7F7FE03B030BDE023E4220021BB
:10145C00E358A350E434E1719A89A180628100229F
:10146C00227222739A7B002A01D10020EBE71968C3
:10147C001B48FFF715FE1B48E5E71B491B486C3161
:10148C0002F010FE0122F523E25423000820009202
:10149C000021F5330332FEF74DFE0020D3E712494D
:1014AC0013486C3102F0FEFD0020CCE7E423E45835
:1014BC00002C0DD021680F48FFF7F2FD0020C2E789
:1014CC00D823E05803F0CEFA0028CED10A48BAE768
:1014DC00A5210A4A0A4802F0F5FDEBE7705700080F
:1014EC0098620008B9170008645C00087062000874
:1014FC0084620008A8620008111500086C610008DD
:10150C0078610008F0B5D64646464F46C0B5040093
:10151C0088B008000E0003F0E3F80500282803D873
:10152C00974A8300D3589F4631002000FFF782FE74
:10153C000500280008B0E0BCBA46B146A846F0BD8C
:10154C00904FE0223900904B08317833A35004328D
:10155C00A3508E4802F0A6FDF5230322E254F43B7F
:10156C0000939846230000210820F5330132FEF742
:10157C00E1FDD82304AE3100E05803F0EDFA002869
:10158C0000D0DCE00025F6230022E5540133E254C0
:10159C000025CEE7F623E35C002BF9D17C4DC8E7A0
:1015AC00D82304AD2900E05803F0D6FA0026002811
:1015BC0000D0B7E0AB7BDB0700D5A5E0F623002518
:1015CC00E654B6E76F4E80253100ED056A6A30317E
:1015DC00704802F067FD01222B6893432B60D825DD
:1015EC00605903F02FFA605904A903F051FA04234F
:1015FC00102200210A20009304ABFEF79BFD310062
:10160C006548083102F04EFD002592E7F723E35CB4
:10161C000025002B00D18CE7F52303220126E25490
:10162C0023008024F5330021013208200096FEF7B8
:10163C0081FD5A48FFF734FD5249E405626A55486A
:10164C00483102F02FFD23683343236071E7F72301
:10165C00E35C0025002B00D06BE780264949F6059A
:10166C00726A30314B4802F01DFD012233680221B1
:10167C0093433360F523E1542300009200210820AA
:10168C00F5330332FEF756FD4548FFF709FD50E7E9
:10169C00F723E35C002B1BD0F52303220125E25436
:1016AC0023008024F5330021013208200095FEF739
:1016BC0041FD3A48FFF7F4FC3249E405626A3548CB
:1016CC00483102F0EFFC23682B432360002530E700
:1016DC0080252C49ED056A6A30312E4802F0E2FC77
:1016EC0001222B68022193432B60F523E154230044
:1016FC0000210820F53300920332FEF71BFD284829
:10170C00FFF7CEFC002514E7D82303A9E05803F01B
:10171C00BFF904231022009300210A2003ABFEF72B
:10172C0009FD4BE72A001F4BD03343CA43C3126851
:10173C0001261A608023049ADB055A633AE7049B5E
:10174C0039009A4628235B4253441A001831164834
:10175C00994602F0A7FC53468022293BD2055363DD
:10176C004B464146536213680B4313600D4BD03309
:10177C0083CE83C331681960049B536303E7C0466F
:10178C0014580008E45C0008645C000870620008EF
:10179C0031140008C062000884620008D06200089E
:1017AC00E46200088C000020B862000830B5050027
:1017BC0083B008000C0002F093FF282803D8214ABC
:1017CC00800013589F4621002800FFF733FD03B01B
:1017DC0030BD1D48FBE71D491D48643102F062FC19
:1017EC00F5230322EA542B00023A08200092002130
:1017FC00F5330332FEF79EFC2800E430FEF7B8FE0A
:10180C000020E4E711491348643102F04BFC00203E
:10181C00DDE72800E430FEF7ABFE03000020002BD0
:10182C00D5D1E433EC58002C05D021680A48FFF7D9
:10183C0037FC0A48CBE7A521094A0A4802F042FCCA
:10184C00F3E7C046B858000875180008E45C0008B7
:10185C007062000884620008A86200083114000855
:10186C006C61000878610008F0B5D6464F464646D4
:10187C00C0B5050082B008000C0002F031FF28282A
:10188C0003D8504B80001B589F4621002800FFF7BF
:10189C00D1FC02B0E0BCBA46B146A846F0BD4A49FC
:1018AC004A48743102F0FEFBF5230222EA542B0065
:1018BC00013A082000920021F5330332FEF73AFC7E
:1018CC000020E6E740494248743102F0EBFB00206F
:1018DC00DFE7E423EC58002C67D021683D48FFF784
:1018EC00DFFB3D48D5E7E0233C49EB581031002B9A
:1018FC0007D05B1A1B1101339BB2052B01D01B01C6
:10190C00C9182800FFF756FC3548C2E7200002F042
:10191C00EBFE8146200002F0E5FE304B314F1E00FD
:10192C00804638009A460024103601F07BF9404579
:10193C000AD00134A4B21036052C1FD037683800F9
:10194C0001F070F94045F4D142463900484603F0A5
:10195C00C5F90028EDD15346210110335918D0E7B1
:10196C00EE23EB5A002B0ED1E433EC58002C22D092
:10197C0021681D48FFF794FB19488AE7E0230022F1
:10198C001748EA5085E7E423EC58002C07D021686F
:10199C001648FFF785FB00207BE70F4879E7A52168
:1019AC00134A144802F08EFBF1E7A521104A1148A6
:1019BC0002F088FB91E7A5210D4A0E4802F082FB4C
:1019CC00D6E7C0465C590008E45C00087062000869
:1019DC0084620008F4620008B9170008645C00080F
:1019EC00311400089C610008A86200080463000818
:1019FC006C61000878610008010030B53039CBB259
:101A0C0083B0472B03D8574A9B00D3589F460100FD
:101A1C005548FFF745FB03B030BD8B00C918902328
:101A2C00802501AA490011705049514CC8588F3B70
:101A3C00222102F09FFD6369AD002B42EBD14D4892
:101A4C0002F030FBA561E6E79023484AD058643396
:101A5C00C25C023A131C642A00DD81E019B201AAAF
:101A6C000A2912DB13702221012302F083FDD2E735
:101A7C0090233E4AD0586433C25C0232131C642A51
:101A8C0000DD642301AA092BECDC0A23EAE780229F
:101A9C003949D2034869030413404022824313435B
:101AAC008B61B8E79023314A2021D05800230022C3
:101ABC0002F060FDAFE73148FFF7F2FAABE78C2498
:101ACC002A4D002300220C21285902F053FD00233B
:101ADC0000220E21285902F04DFD9CE72849294887
:101AEC00FFF7DEFA97E79023204A1D21D0580023F8
:101AFC00002202F03FFD8EE72349244802F0D2FA7F
:101B0C00234A244993680B4004210B43936082E7DA
:101B1C008025174CAD0063692B421CD1002313495F
:101B2C0001AA13709033C85822218F3B02F022FD7A
:101B3C0071E7942300210D4AD258174BD1546AE710
:101B4C0002230A4A01938A33D0580721883B01AA01
:101B5C0002F010FD5FE7114802F0A4FAA562DDE780
:101B6C0064237BE7005A0008946300080C010020F2
:101B7C000004005060630008000800501463000863
:101B8C007863000884630008645D000874630008CF
:101B9C0000240140E8FFFF7FD91400004C630008CB
:101BAC00112110B50E4A0F48136A8B431362802221
:101BBC000D4B92009A62DA3AFF3A9A610B490C4B40
:101BCC0010315A6802F06EFA0A4C012321000A48BF
:101BDC001C31237702F066FA237F002BFCD110BD59
:101BEC00002C0140AC63000800040050645D000848
:101BFC0000ED00E08C010020BC630008024A136A6F
:101C0C00013313627047C0468C01002010B5EFF30E
:101C1C00058203490348243102F044FA10BDC04642
:101C2C00645D00082C5F0008012210B5144B196983
:101C3C000A421ED00620196891431960D968814365
:101C4C00D960196901308143196140210D4B9962AA
:101C5C000D4B18399A6101329A6102329A611C3229
:101C6C009A619423094AD0580023002202F082FC86
:101C7C0010BD07491A693031064802F013FAF7E72C
:101C8C00002C014000080050000400508C00002083
:101C9C00645D0008F4630008022210B5234BD96878
:101CAC000A4202D019690A4220D1214904221F4B51
:101CBC00D868024202D0186902420DD10B00CE3313
:101CCC001A881A4B1B6B01339A4227D0174B1949B0
:101CDC001A690A4215D110BD186990430A0018619F
:101CEC00CE32138801339BB21380E7E71969914315
:101CFC0019610F490A00CE32138801339BB213804D
:101D0C00D4E71B690C48194002F0CCF9EFF30582BB
:101D1C000A490B48243102F0C5F9DCE79423002270
:101D2C00C8580023272102F025FCCFE7002C0140E6
:101D3C008C000020E0FF0C00F4630008645D0008D8
:101D4C002C5F00088023022210B5DB0519690A42BA
:101D5C0010D019691648914319610300DD331B78C3
:101D6C00002B0FD103000022CE33D0301A80FEF7A7
:101D7C005DFB10BDEFF305820E490F48243102F0D4
:101D8C0091F9F6E702000D495B01CC3213801A1C65
:101D9C008B4200D20A1C0A4B92B29A1A094B53433B
:101DAC00802212019446084A63441B0B5361D9E705
:101DBC008C000020645D00082C5F0008B204000059
:101DCC00D327000049070000007400400222F8B538
:101DDC00354B19690A420FD101211A69114203D0FE
:101DEC001A698A431A61F8BDEFF305822F4930480E
:101DFC00243102F057F9F6E719692E4C9143196119
:101E0C008023E66FE75872B6BFF34F8FBFF36F8F27
:101E1C002500C4352B78FF2B3FD021007020264D98
:101E2C005A1CC431D2B20A70295A8C461E49496ACE
:101E3C0089B229528C450AD9280070304188013169
:101E4C0089B24180002902D1696F01316967002A8A
:101E5C0018D02200C4321370002B04D1BFF34F8F63
:101E6C00BFF36F8F62B66B6F2A6FD90752080A43A4
:101E7C005B083800B04784210B4A6158536B5B18E0
:101E8C005363B0E70D4A0E490E4802F01BF92300CC
:101E9C00C4331B78013BDBB2DBE70B4A0B49094827
:101EAC0002F010F92B78B8E700480140645D000897
:101EBC002C5F00088C0000200C010020D46000086E
:101ECC00DA0200008860000860600008D30200009D
:101EDC0070B572B6BFF34F8FBFF36F8F084C2500F0
:101EEC00C4352B78FF2B03D00133C434237070BD61
:101EFC00044A0549054802F0E5F82B78F4E7C0469A
:101F0C008C00002060600008D3020000886000088C
:101F1C0070B50C4C2500C4352B78002B0BD0013B35
:101F2C00DBB2C4342370002B04D1BFF34F8FBFF34B
:101F3C006F8F62B670BD044A0449054802F0C2F8BE
:101F4C002B78ECE78C000020D4600008DA0200004B
:101F5C0088600008102210B50E4BD9680A4211D1C6
:101F6C0019690A4207D1EFF305820B490B4824315A
:101F7C0002F098F810BD0A4800211A61883002F06E
:101F8C00BDF8F7E706480121DA60883002F0B6F8B0
:101F9C00F0E7C04600180240645D00082C5F0008A2
:101FAC008C00002010B5EFF305820349034824315F
:101FBC0002F078F810BDC046645D00082C5F000884
:101FCC00102210B51C4B19680A421AD1012219684B
:101FDC000A4211D1802219689201114222D10422A5
:101FEC0019680A4223D1082219680A420ED01A60D5
:101FFC00124802F057F803E011481A6002F052F848
:10200C0010BD1A600F4802F04DF8F9E719680E4838
:10201C0002F048F8EFF305820C490D48243102F028
:10202C0041F8EDE71A600B4802F03CF8E8E71A605B
:10203C00094802F037F8E3E7002401404464000843
:10204C00106400080064000850640008645D000817
:10205C002C5F00081C64000838640008022310B5CB
:10206C00134C2268134218D108232268134208D15A
:10207C00104922681048503102F014F804236360B0
:10208C0010BD0C49636050310C4802F00BF8012173
:10209C000B4A13680B431360F2E76360094B9421FE
:1020AC001A005858C63206237F3902F063FAE7E764
:1020BC0000000240645D00086C6400086064000865
:1020CC00080002408C00002010B50E4BDA69920615
:1020DC0012D4DB691B0607D5B4220B4B0B4998585D
:1020EC00043A9B58984710BDEFF3058208490948FC
:1020FC00243101F0D7FFF6E70348596A983001F014
:10210C00FDFFF0E7004400408C0000202844004014
:10211C00645D00082C5F000870B572B6BFF34F8F7A
:10212C00BFF36F8F224C2500C4352B78FF2B37D093
:10213C00210070205A1CC431D2B20A701D491E4DA8
:10214C00496A2E5A89B229528E4207D9280070301A
:10215C004188013189B24180002911D0002A14D064
:10216C00C4342370002B04D1BFF34F8FBFF36F8F98
:10217C0062B6696F286FCB0740081843490870BDD9
:10218C00696F01316967002AEAD10C4A0C490D4884
:10219C0001F098FF2300C4331B78013BDBB2DFE76F
:1021AC00094A0A49074801F08DFF2B78C0E7C04661
:1021BC008C000020004801400C010020D460000875
:1021CC00DA0200008860000860600008D30200009A
:1021DC00F0B5C64600B58A8888B005000C0002AF81
:1021EC000A2A00D9BDE067499300CB589F46D223F9
:1021FC005B00C258CC3BD0583900248802F048FC14
:10220C0004231022009321003B000A20FDF792FFCB
:10221C00BD4606B080BCB846F0BD26885A4C20009E
:10222C0000F000FD80B201900C2332000221280046
:10223C000094FEF7F7FEEBE7012201000320FDF707
:10224C00B5FF5249524801F02DFF524A524993684A
:10225C000B4004210B439360DAE7FFF75DFF082383
:10226C003860796022882179280001930097043B1B
:10227C00FEF7D8FECCE7494B05213B60484B3800B4
:10228C007B60484B6E46BB60474BFB60474B3B61EA
:10229C0002F058FA03000C339BB20733DB08DB0067
:1022AC00F31A9D4602AB984642465B8841469380A2
:1022BC000023138053802388A288CB8005230B81B5
:1022CC0009336B449A803900052205A802F05AFAAA
:1022DC00D422030052000C33A858012142469BB271
:1022EC00FEF780FDB54693E7D2235B00C258C43B92
:1022FC00D458002C40D02468200000F093FC80B20D
:10230C00009023000C2200210620FDF713FF7FE72D
:10231C00D22301225B00C358002100920720F43322
:10232C000332FDF707FF73E7D22301225B00C3588A
:10233C00002100920820F5330332FDF7FBFE67E71E
:10234C0026880400AD34FF34200000F06BFC80B212
:10235C0001900C233200092128000094FEF762FE44
:10236C0056E70A4912486C3101F09CFE8622210086
:10237C002800FEF71BFE4BE7A5210E4A0E4801F084
:10238C00A1FEB8E7205B000878630008645D0008D4
:10239C007463000800240140E8FFFF7F9C61000883
:1023AC007C64000884640008906400089864000849
:1023BC00AC6400086C61000878610008F8B5050091
:1023CC0008000C0002F08CF9162842D009D801281C
:1023DC0053D0022848D18549854801F063FE00207E
:1023EC00F8BD182840D1200002F07EF9027A0400D2
:1023FC00861D062A5CD013D8022A43D0032A4CD15E
:10240C00B388C1887B4A7C4801F04CFE29003079A6
:10241C000022FDF7CBFE31002800FFF7D9FEDEE7E6
:10242C00082A3AD1C188754AB388734801F03AFE3C
:10243C00B288062A45D00A2A00D19FE06B49483160
:10244C006F4801F02FFE862231002800FEF7AEFD0A
:10245C00C5E7D423654A5B00E858833B0021FF3B6A
:10246C000C32FEF7BFFCBAE7200002F039F95F49E5
:10247C000200644801F016FEB1E75C49624801F0C5
:10248C0011FEACE7C188B388604A5B4801F00AFED4
:10249C0031002800FFF79CFEA1E754495C485C31F1
:1024AC0001F000FE812231002800FEF77FFD96E747
:1024BC00B288931F9BB2042B6ED8564A9B00D358FC
:1024CC009F46B3790C2B6AD0002231002800FEF70E
:1024DC006DFD84E7B3790C2BF6D1F3791F1C172B08
:1024EC0000D9172721002C00AD34FF34BFB23A00BD
:1024FC0020000E3102F000FC0023EF19AD37FF373E
:10250C0021003B70444801F0CDFDDDE7B3790C2B85
:10251C00DAD19933FF33EF58F3790E34042B52D0C0
:10252C00052B22D01E2100230022380002F022F8B5
:10253C00CAE7B379042BC7D10200A133FF33E858A3
:10254C00A43B22210D32FF3B02F014F8BCE7B37917
:10255C00102BB9D1D2210200490068588239F37985
:10256C000E32FF3902F006F8AEE72C4905222000A6
:10257C0002F0B4FB1C210028D4D1D4E7B379092B89
:10258C0018D0082BA0D19D33FF33E858002200232C
:10259C00252101F0EFFF97E71449343150E7D221A0
:1025AC002200490068588439F3790E32FF3901F062
:1025BC00E1FF89E79C33FF33E858002200232421F4
:1025CC0001F0D8FF80E704222000154902F086FBB9
:1025DC00002808D004222000124902F07FFB0028BA
:1025EC00A0D11B219FE71D219DE7C046E45D00089B
:1025FC00E46400084C650008006500085C65000890
:10260C00AC6400080C600008CC640008F864000896
:10261C00646500084C5B0008346500082C650008F4
:10262C002465000884650008F0B5DE4657464E4622
:10263C004546E0B583B0060002AF08000C0001F07F
:10264C003BFF05002000012D4AD001F039FF8046E8
:10265C00200001F02DFF8246032D51D0200001F007
:10266C0037FF8146042D10D0280001F083FE4B4625
:10267C0001004246334801F015FDBD4601B0F0BCE7
:10268C00BB46B246A946A046F0BD200001F010FFA3
:10269C008146200001F022FF0500200001F018FF08
:1026AC004A460300002A20D1022802D12A782F2A78
:1026BC0043D01A0069460C32D208D2008A1AEB4673
:1026CC00954602AA91465C1D210048461E4A00957B
:1026DC0002F018FC002801DD844224D8DD4609E014
:1026EC0001F0F2FEFFF718FDC7E72A001821306849
:1026FC0001F040FF524641463000FEF707FBBCE7B5
:10270C004146124801F0CEFC524641463000FEF7DD
:10271C00FDFA51464B1E99410022002330681631B8
:10272C0001F028FFA9E79422094983B288584A4648
:10273C000021FEF757FBDD46DCE76878FFF75CF914
:10274C00D8E7C046B8650008AC6500088C65000881
:10275C000C01002070B5204D0400435D002B0ED100
:10276C000A2905D0C9B2FEF783FA032818D070BD28
:10277C0001220339FEF7CAFA01236355F7E7C9B200
:10278C00FEF776FA0028F2D0144BE518280001F079
:10279C00A7FE002813D029002000FFF745FFE6E72D
:1027AC000E4BE518280001F09BFE00280DD02900E7
:1027BC002000FFF739FF0122074BE254D7E7084905
:1027CC0008486C3101F06EFCD1E7054905486C31C5
:1027DC0001F068FCEFE7C046D9140000CC120000F1
:1027EC00E45D0008E8650008408902308010C0B242
:1027FC007047C0467047C04610B50B00EFF310840D
:10280C00012181F310881900FDF780FF84F31088F3
:10281C0010BDC04610B582B0EFF31084012181F3D6
:10282C0010886B460122D91D0020FDF76FFF84F341
:10283C001088012803D16B46D87902B010BD012055
:10284C004042FAE710B5FDF70BFF10BDF0B5DE46C0
:10285C004E4657464546E0B59BB00AAB0593402320
:10286C00069300230793089301330C0091469B4673
:10287C000290099005E005A8FEF736F808980028A4
:10288C0059DB2178013400295CD02529F3D12200B1
:10289C001378002602250820140021392D2B0CD08A
:1028AC002D2B0ED8232B11D02B2B00D05FE10E43F8
:1028BC000132137814002D2BF2D15B4601321E43EA
:1028CC00F7E7302B05D12E430132F2E706430132F4
:1028DC00EFE71A00303A0025092A0DD81A00AB0090
:1028EC005B1901345B009B182278303B1D001300F0
:1028FC00303B092BF3D913002E2B00D1D8E0002745
:10290C002378042101E0637801341A008A43682A91
:10291C00F9D0252B07D0583BDBB2202B07D8954A92
:10292C009B00D3589F46252105A8FDF7DDFF08988D
:10293C0001340028A5DA1BB0F0BCBB46B246A94650
:10294C00A046F0BD08980028F5DD079C002C00D0AF
:10295C00C6E00019EFE74B4649461B6805A81A1D4F
:10296C000A60196810223B0001960095FDF7F4FFF0
:10297C0001340898DDE74B4649461B6805A81A1D2B
:10298C000A6019680A223B0001960095FDF7E4FFE6
:10299C0001340898CDE74B4649461B681A1D0A605E
:1029AC001D6805E005A8FDF79FFF08980028BFDB10
:1029BC00297801350029F5D10898B9E74B464946E5
:1029CC001B6805A81A1D0A601968002301930833B7
:1029DC0010220093FDF7C0FF01340898A9E74B467D
:1029EC0049461B681A1D0A601B68DA17981803936E
:1029FC00012350409A4609280DDDAA46A0461D0029
:102A0C000A210400013500F0D5F9632CF8DC2B0009
:102A1C00444655469A46B846574575D3002D36D090
:102A2C00039B002B74DB730772D4B30701D5002F03
:102A3C002DD05B4633422AD1002D28D04346A046E8
:102A4C001C00AC4220D205A82021FDF74DFF0898B0
:102A5C00013D002800DA87E0002DF2D12300444626
:102A6C009846039B002B58DB730761D40323334038
:102A7C00022B62D005A83B000A220399019600950F
:102A8C00FDF76AFF089853E72300444698460898D8
:102A9C000028E6DA01344CE74B4649461B6805A88A
:102AAC001A1D0A601978FDF71FFF0134089840E7DA
:102ABC006378621C1900303914000027092900D9E9
:102ACC001FE71A00BB00DB1901345B009B1822784E
:102ADC00303B1F001300303B092BF3D9130010E7D8
:102AEC00254B1B78002B15D0EFF31085012181F3BA
:102AFC001088220002980AA9FDF77CFE85F3108845
:102B0C000898079C001916E7D046002DBFD087E720
:102B1C00013D8AE7FDF7A4FDE6E75B422D2105A800
:102B2C000393FDF7E1FE089800289FDA013400E7D3
:102B3C002B2105A8FDF7D8FEF5E7002F9AD10AE066
:102B4C00A8450CD205A83021FDF7CEFE0898013D12
:102B5C00002800DAECE6002DF2D100258AE708986F
:102B6C00002887DA0134E4E644460134E1E6002526
:102B7C00C5E6C046605B0008B021002010207047FD
:102B8C0040687047837807201840704703005A68E4
:102B9C0008000A601A7A0A715A7A4A7107229978DF
:102BAC000A40FA2102731A7B4A43C280DA789200F7
:102BBC0042815A8902815B7B437300238373704784
:102BCC00030010000E2908D90E229A5602700F2904
:102BDC0006D0DB7B5BB24370704700231370FAE7BF
:102BEC000023F8E7002243898A569B18C8229200DA
:102BFC0093420FDD1300012243818A56C3889B1830
:102C0C00064A934200DD1300054A934200DA130092
:102C1C00C3807047062BEEDA0623ECE724F40000A1
:102C2C00881300000023C25C0133002AFBD1581E1C
:102C3C007047000003B47146490840004900095E22
:102C4C0049008E4403BC7047002243088B4274D366
:102C5C0003098B425FD3030A8B4244D3030B8B4291
:102C6C0028D3030C8B420DD3FF22090212BA030C9A
:102C7C008B4202D31212090265D0030B8B4219D37B
:102C8C0000E0090AC30B8B4201D3CB03C01A52419B
:102C9C00830B8B4201D38B03C01A5241430B8B42E3
:102CAC0001D34B03C01A5241030B8B4201D30B03CC
:102CBC00C01A5241C30A8B4201D3CB02C01A5241F3
:102CCC00830A8B4201D38B02C01A5241430A8B42B6
:102CDC0001D34B02C01A5241030A8B4201D30B029F
:102CEC00C01A5241CDD2C3098B4201D3CB01C01AB9
:102CFC00524183098B4201D38B01C01A52414309C3
:102D0C008B4201D34B01C01A524103098B4201D3B0
:102D1C000B01C01A5241C3088B4201D3CB00C01A1D
:102D2C00524183088B4201D38B00C01A5241430895
:102D3C008B4201D34B00C01A5241411A00D20146BA
:102D4C00524110467047FFE701B5002000F006F82D
:102D5C0002BDC0460029F7D076E770477047C046E1
:102D6C0010B5002903D100F007F8203002E008006C
:102D7C0000F002F810BDC0461C2101231B04984230
:102D8C0001D3000C10391B0A984201D3000A0839F0
:102D9C001B09984201D30009043902A2105C4018A7
:102DAC007047C0460403020201010101000000004B
:102DBC000000000003460B437FD4002243088B42E3
:102DCC0074D303098B425FD3030A8B4244D3030BA6
:102DDC008B4228D3030C8B420DD3FF22090212BA6B
:102DEC00030C8B4202D31212090265D0030B8B42E7
:102DFC0019D300E0090AC30B8B4201D3CB03C01AD1
:102E0C005241830B8B4201D38B03C01A5241430BAB
:102E1C008B4201D34B03C01A5241030B8B4201D39B
:102E2C000B03C01A5241C30A8B4201D3CB02C01A06
:102E3C005241830A8B4201D38B02C01A5241430A7E
:102E4C008B4201D34B02C01A5241030A8B4201D36D
:102E5C000B02C01A5241CDD2C3098B4201D3CB0114
:102E6C00C01A524183098B4201D38B01C01A5241C3
:102E7C0043098B4201D34B01C01A524103098B42C7
:102E8C0001D30B01C01A5241C3088B4201D3CB00B2
:102E9C00C01A524183088B4201D38B00C01A524195
:102EAC0043088B4201D34B00C01A5241411A00D245
:102EBC0001465241104670475DE0CA0F00D04942AE
:102ECC00031000D34042534000229C4603098B421E
:102EDC002DD3030A8B4212D3FC22890112BA030AA6
:102EEC008B420CD3890192118B4208D38901921128
:102EFC008B4204D389013AD0921100E08909C309AD
:102F0C008B4201D3CB01C01A524183098B4201D3AE
:102F1C008B01C01A524143098B4201D34B01C01A99
:102F2C00524103098B4201D30B01C01A5241C30811
:102F3C008B4201D3CB00C01A524183088B4201D380
:102F4C008B00C01A5241D9D243088B4201D34B009B
:102F5C00C01A5241411A00D20146634652415B10DD
:102F6C00104601D34042002B00D5494270476346BE
:102F7C005B1000D3404201B50020FFF7EFFE02BD0D
:102F8C000029F8D016E77047002B11D1002A0FD179
:102F9C00002900D1002802D00021C943080007B441
:102FAC00024802A14018029003BDC046B1FDFFFFCC
:102FBC0003B4684601B5029800F006F8019B9E46E2
:102FCC0002B00CBC7047C046F0B557464E4645465D
:102FDC00DE46E0B504000D009246994683B08B4264
:102FEC0030D82DD049465046FFF7BAFE29000600CE
:102FFC002000FFF7B5FE331A9846203B9B4633D48E
:10300C005A465346934042461F00534693401E0077
:10301C00AF423AD8AF4200D178E05B46A41BBD4129
:10302C00002B00DA75E000220023009201930123AB
:10303C005A4693400193012342469340009328E063
:10304C008242CFD900220023009201930C9B002BCB
:10305C0001D01C605D600098019903B0F0BCBB46C8
:10306C00B246A946A046F0BD424620239B1A5246C2
:10307C00DA40414613004A468A40170042461F4335
:10308C00534693401E00AF42C4D900220023009245
:10309C0001934346002BD9D0FB0772081A434646CE
:1030AC007B080EE0AB4201D1A2420CD8A41A9D4180
:1030BC00012024196D410021013E24184D41002EA0
:1030CC0006D0AB42EED9013E24196D41002EF8D149
:1030DC00009801995B4600196941002B24DB2B00F9
:1030EC005A464446D3402A00E2401C005B46150079
:1030FC00002B2ADB26009E40330026004746BE40AC
:10310C003200801A9941009001919FE7A342BCD8EC
:10311C0083E74246202300219B1A00220091019252
:10312C000122DA40019286E7424620239B1A2A00AC
:10313C0046469A402300F340444613432A00E2409B
:10314C001C005B461500002BD4DA42462F002023CE
:10315C00260097409B1ADE403B003343CDE7C04628
:10316C000D488546FFF746FB0C480D490D4A0023D8
:10317C0002E0D458C4500433C4188C42F9D30A4A20
:10318C000A4C002301E013600432A242FBD301F08D
:10319C006DFD00F00FF8FEE700900020000000200D
:1031AC006C00002028680008700000208C22002091
:1031BC00FEE70000F0B5DE4657464E464546E0B504
:1031CC00B9B000F061FF9249924800F06BFF072202
:1031DC00914B00215A63A0240D3215A801F095FDE6
:1031EC000223E405189320000E3314A91493FDF761
:1031FC0001F8149A236913409A4206D1874B1B6835
:10320C0083F30888864B1B6898470323A0269A46AD
:10321C0015930023F60598463000189314A94333F0
:10322C001493FCF7E7FF2023300014A91493802497
:10323C00FCF7E0FF434601277A4D1793A4000233B5
:10324C00280015971693149414A9AC629946FCF7B0
:10325C00D1FF40237448149314A98361FCF7CAFF6F
:10326C00272328001797149314A9AB61FCF7C2FF0E
:10327C004B46159319934346C02517935346AD00FF
:10328C00169314953000B56214A9FCF7B3FF0C2308
:10329C00300014A919971493FCF7ACFF80215E4BF6
:1032AC0009065A6D0120920092080A435A655F4A3A
:1032BC00DA635F4A1A649A6B17439F635D4B1A6813
:1032CC0015431D605C4DFDF71BF82B685B4A5C4990
:1032DC0013401C432C605B4C23685800C018400002
:1032EC00FFF7B2FC80226B69D2000130134202D18D
:1032FC0005E0002803D06B6901381342F9D1802115
:10330C004D4A490013680B43136013680B42FCD001
:10331C000221414A4C4BD365D36D1942FCD0382362
:10332C0091680B40D168102B01D100F02DFC002BC3
:10333C0001D000F02DFC13684449536819408023D8
:10334C00DB010B435360136841490B401360136856
:10335C00404A9B045B0FDA4022606068FCF7D0FFA8
:10336C003D4A002832D138202B498B680340102B62
:10337C0001D100F0BBFD0B683848034080200B6086
:10338C00156A800403E0136A5B1B022B1ED80B68C2
:10339C000342F8D1CB6832481840324B0343CB6020
:1033AC00802308685B0403430B608023C8685B05BB
:1033BC000343CB608021156A1748890403E0136A24
:1033CC005B1B022B02D803680B42F8D00623194969
:1033DC000868184201D100F0B3FCE0230E49DB0170
:1033EC00886803438B608B681F4803408B600B68B5
:1033FC009B0101D400F0B6FC07208B681B4D834366
:10340C001800022303438B603820166A36E0C0464E
:10341C0078630008F8650008001002400000FF1FE8
:10342C000400FF1F0004005000080050030002308D
:10343C00010816000020024000700040FFF9FFFF59
:10344C0040420F000000002009800000FF80FFFFB9
:10345C00FFC7FFFF0024F4008C010020FFFFFFFEDC
:10346C008C80C11132301646FFF0FFFF881300002C
:10347C00136A9B1BAB4201D900F074FC8B680340B0
:10348C00102BF5D10720F4490B680340022B01D90E
:10349C0000F0D4FCF14BF2499A680A409A60382249
:1034AC009968114201D000F0B2FC1B68ED489B04F6
:1034BC005B0FD840E94BEC4A9B6801921B051B0F34
:1034CC009B00D3581F221340D84020606068FCF743
:1034DC0017FFE64AE6491368E6480B401360E64BD3
:1034EC00226819680905090D00F0DCFDE34B1A6828
:1034FC00D20307D41A68E2490A401A60DA6BE14930
:10350C000A40DA638023DD4A5B02116801250B4314
:10351C0013603F22DC4909200B6893431A000523F2
:10352C0013430B60D94BDA491A681140D94A0A4344
:10353C00D9491A6099600321D84A9346C632DA6099
:10354C005A68120C12040A435A60D54A556002227A
:10355C0019680A431A60082219680A431A601A6823
:10356C0029002A431A60FCF7C7FDCE4B9A682A4201
:10357C0007D1DA68CC490A40DA601A6992009208DD
:10358C001A618021C74B8903DA680A43DA6080220A
:10359C00920119681142FCD007211A605A698A43BA
:1035AC00110002220A4370215A615A698A431100A0
:1035BC0050220A430F215A619A6A8A439A625A69C5
:1035CC00AB490A405A619A6AF231FF318A431100C1
:1035DC0010220A4380219A625A6989000A435A616F
:1035EC009A6AB2491140C022D2000A4380219A62E1
:1035FC005A69C9010A435A619A68AD49114080223F
:10360C0052050A439A60AB492068FFF71DFB14234F
:10361C0043430793079B002B05D0079B013B079364
:10362C00079B002BF9D19F4BA3499A68114080222C
:10363C0012060A439A609A68002AFCDB8022120167
:10364C001A6020230793079B002B05D0079B013B97
:10365C000793079B002BF9D18023924D9B052A6978
:10366C00032113432B6111230C206B60FCF744FDE9
:10367C000121EB68EB68AB680B4200D176E38F4815
:10368C0000F010FD0125874B8D491A6914A8AA4337
:10369C001A611A690A401A619A6887490A402A43D2
:1036AC009A605B466422C53318A91D7000F048FF70
:1036BC00E220400001F0FEFAC82201005200103155
:1036CC00060000F03DFFD0237E4A5B00F250F8204C
:1036DC00319601F0EFFA0100C8221031060000F01B
:1036EC002FFF142001F086F9D8230022F05000237C
:1036FC00382134923593882306AA521801993296B0
:10370C004031D554704800F0CDFC5A466F4B14A98B
:10371C00D3678023D150FA2259460433D200206853
:10372C00CA506B49FFF790FA02216A4B6A4A01387A
:10373C0098625A63DA6816200A43DA605A692A4397
:10374C005A611D60FCF7D8FC644801F0B3FA644B75
:10375C0001009C46634B614496229C4605000290F6
:10376C009200604400F0D6FCFF225F4B5F49EA54A4
:10377C00329B11A89A46DC235246D1505C4B06A9C9
:10378C001A68002511929A880A860A0032219B79C0
:10379C0052181370FFF746FA1022944683B29846DB
:1037AC00544B634499464B462F01FE583000FFF7AB
:1037BC0039FA804500D116E20135052DF3D10027E9
:1037CC005246E0230025D75014339426D5525B463D
:1037DC0020689A513749FFF737FA474B474A013867
:1037EC0098629A61112201271A6273325F601A6023
:1037FC0088221202DF6029005A640D20FCF77CFC41
:10380C0029000E20FCF778FC20682A49FFF71CFAE7
:10381C0080231022DB050138986299690F200A4336
:10382C009A610222D9680A43DA605A69290017435F
:10383C005F61FCF761FC319F329B38009846AD30DC
:10384C0017222F49FF3001F099FBD22342465B002F
:10385C00FA50029A56E0C046002002400010024086
:10386C00FF8FFFFF0024F400645E0008007000402E
:10387C00FFFEFFFF0C66000800580140007400407A
:10388C00FFFF03FFFFFFF8FF0008024008000240A3
:10389C000F80FFFFA0250000402401408C00002079
:1038AC000000024000240140C73FFFFFFFF0FFFF74
:1038BC00E8FFFF6F40420F00E8FFFF7F2C66000817
:1038CC00FFFFFFDFA90A0008746300083D0500082C
:1038DC0080841E0000480140400D0300DC140000F1
:1038EC007410000064100000D5140000890A000850
:1038FC007C640008645C0008002C014068680000CF
:10390C00486600080433FA50329BBC4998468C2315
:10391C008A515C2214A8C850404694460433C850BF
:10392C00B74BB84E9946019B103663449A463168A2
:10393C00B54800F0B7FB3089736800280ED0002220
:10394C0004E0013292B20233904207D019785F78CA
:10395C000F42F6D05146484600F0A4FB0135EDB2BB
:10396C001036052DE3D14146F6230022CA52A74A50
:10397C001A3BCA5000F088FE80260100A44D404638
:10398C00FDF750FD10214046FCF700FD6B69B600B9
:10399C00334203D19F4800F085FBAE619E4914AAC7
:1039AC0008A800F0A5FB5B46883326C826C38420F4
:1039BC0010229A4B19589143195004381958114335
:1039CC001950196879381143196059680A435A60BB
:1039DC000321FCF791FBD023319E914A5B00F250FE
:1039EC0000F052FE01003000FEF7E8FCD4235B002F
:1039FC00F5588C4BEB5C7F2B00D8C8E18A4B0493B9
:103A0C008A4B059300238A4A2E60AB54894AAB52E9
:103A1C00894A8A4B516D0B4353658B238849CB6084
:103A2C000A68884B13430B60C5235B4498461B788C
:103A3C00012B00D9D0E202211C20FCF75DFB434690
:103A4C0041461B785A1C0A70764A5BB29046AB54BE
:103A5C00002B00DAA5E10BAB2A0018007A499A4634
:103A6C0000F046FB0EAB18002A00784900F040FB32
:103A7C002A00774911A800F03BFB4346EB56012B7B
:103A8C0000D1EDE1674BEA56724B1F000393724B6A
:103A9C005837180039009A4600F004FB614BEA567F
:103AAC009846012A00D108E23900504600F0FAFA93
:103ABC004346EA56012A00D1FFE13900504600F096
:103ACC00F1FAD42300215B00F258644B6448D154C2
:103ADC0064490C3100F0E6FA634B644D9946644B33
:103AEC0098468827382206AB9B18DB5D002B00D14B
:103AFC00C6E0329B29001A001800019300F07EFDED
:103B0C000028EFD1319B49461A001800019300F0B0
:103B1C0075FD0028E6D114AA4146100000F06EFD98
:103B2C000028DFD10600012111A800F0D5FA0028E9
:103B3C0000D03BE172B6BFF34F8FBFF36F8F5B4684
:103B4C00C4331B78FF2B00D1BDE15A46C432137825
:103B5C0032980133137000F009FD002800D036E1D3
:103B6C005B46C4331B78002B00D14AE15A46C43261
:103B7C001378013BDBB21370002BB2D1BFF34F8F24
:103B8C00BFF36F8F62B6ACE70D3B1940022920D012
:103B9C002949384A0B68802013400B6080230A683F
:103BAC005B001343344A0B60156AC00005E0136ACE
:103BBC005B1B022B01D9FFF709FC0B680342F6D003
:103BCC004B682E4818408023DB0103434B60FFF702
:103BDC00CAFB13682949536819408023DB010B4346
:103BEC005360FFF7BAFB4246310011A801F076F89A
:103BFC00002800D0E0E54F44E2E5C0460C0100206F
:103C0C0070660008645C00086066000831140008E7
:103C1C0000040050606300082505000800180240ED
:103C2C00C9230008D514000088660008A8600008A5
:103C3C00D4140000D81400000010024008000C003E
:103C4C0000440040010000206127000869030008BF
:103C5C0081030008E45B0008B8600008D914000078
:103C6C00D0660008E45D0008ED0A0008450B00086A
:103C7C00F5100008FFC7FFFF8C010020FF80FFFF3D
:103C8C00D025319C6D00665900F00CFD0100200020
:103C9C00B047D94BD948635100F004FAD4235B00E8
:103CAC00E458D74BE256012A04D0039950465831B8
:103CBC0000F0F8F9FF228026D14BD24DE2546B690B
:103CCC00B600329C334203D0CF4800F0EBF9AE6221
:103CDC00DC25665900F0E6FC01002000B047CB4B18
:103CEC00029A6351C64BD35C7F2B05D89821049A5A
:103CFC000598490000F0E6F9029800F0E5FFD8239A
:103D0C00329CE05800F0A6FF200000F0DDFF319857
:103D1C0000F0DAFF72B6BE4800F0C4F900F0E6F924
:103D2C001121BC4A136A8B4313628022B54B92005B
:103D3C009A62DA3AFF3A9A61B74B19329A62FEE705
:103D4C00072002230D6885432B430B60166AB34D85
:103D5C000B680340022B01D1FFF73FFB136A9B1B3F
:103D6C00AB42F5D9AE4B0193FFF7B3FBEB68AD4A11
:103D7C00EB681A40AC4B1343EB60EB689B0200D42E
:103D8C0080E4F023AA6A1B021343AB627AE40A2193
:103D9C00A64BA74A1800FF310492059300F092F944
:103DAC0030E6A44B0393A44B9A468AE62C2206AB2E
:103DBC009B181F78A14B4C3298331978002900D0EE
:103DCC0087E02F2F00D094E0773A1A70B2E6319842
:103DDC0000F0CCFB002800D1C2E614A800F0C6FB12
:103DEC00002800D1BCE68027954EBF0073693B428A
:103DFC0000D0D2E00421934A13698B43136130BF86
:103E0C00AEE6914A9149924800F05CF9AEE69968A9
:103E1C001140082900D1D4E099681140102900D133
:103E2C0083E099681140202900D1CDE09B681A40AD
:103E3C00182A00D1CCE00020FFF73CFB02230D68D0
:103E4C0085432B430B60166A744D0B680340022BA1
:103E5C0001D1FFF71FFB136A9B1BAB42F5D981E71E
:103E6C005B465246983383CA83C35B46A43383CAEA
:103E7C0083C3042377490A6813430B604346EB560C
:103E8C00012B00D0FEE55A465946B333D550724A41
:103E9C00043BCA505B4611AAB83383CA83C30823B8
:103EAC006C490A6813430B604346EA56614B039313
:103EBC00614B9A46012A00D0E6E52023654A116839
:103ECC000B431360FDE5654A6549614800F0FAF85B
:103EDC003BE60A2F40D0634800F0E4F83800FDF7C9
:103EEC008BFD0022554B98331A7023E6CB68FFF7F5
:103EFC006DFA5248514E99300378F618B1540A2F86
:103F0C0009D00133DBB20370B754142B00D011E687
:103F1C00544800F0C7F849495348783100F0C2F8CA
:103F2C000022464B99331A7004E6DA68D968D243FA
:103F3C00D8684906490F40040131450E920756D006
:103F4C004A48FEF781FE6843494BD968490F013155
:103F5C00FEF77AFEFFF7AEFA3848384F84462F202A
:103F6C00993739784B1CDBB261443B708854142B65
:103F7C0007D13C4800F096F83E493B4800F092F8D7
:103F8C003E7000272D4E2D499936337878313648BE
:103F9C00CF5400F087F83770A3E706202368364922
:103FAC005843FEF751FE3368344A013013403360F6
:103FBC0003E0002800D1D3E5013873693B42F8D106
:103FCC0018E72F48FFF776FA80200002FFF772FA05
:103FDC00FA20C001FFF76EFA2A4800F063F8FF22BE
:103FEC00074BEA54134B0393134B9A4669E5244849
:103FFC00FEF72AFE6843A7E7A90A0008F466000842
:10400C00D5140000000400504C630008890A000815
:10401C0004670008002C01400008005088130000C1
:10402C00645E00083CC2FEFF03100000A86000089C
:10403C0088660008E45B0008B86000080C010020EA
:10404C000070004000ED00E0D4600008DA020000CF
:10405C008860000800440040990B0008606000086C
:10406C00D302000008670008E46600080024F4008E
:10407C00001002408401002040420F00FFBFFFFFF0
:10408C0000127A009C66000810B5FEF7DBFB10BD31
:10409C0000B583B0019101AA01000020FEF7D6FB08
:1040AC0003B000BD0FB400B583B004AB02CB01AAC2
:1040BC00002000930193FEF7C9FB03B008BC04B0C9
:1040CC001847C046130010B50A0001000148FFF75D
:1040DC00E9FFFEE7186700080A0010B50100002090
:1040EC00FEF78AFBC343DB17184010BD7047C04670
:1040FC0000238360426001607047C04610B50368BE
:10410C000400002B04D040689847A3680133A360D7
:10411C0010BDC04601604B1E99410023494211401D
:10412C0041608360C360704700238360C360704745
:10413C0003009B68C068C01A43425841C0B2704724
:10414C000200C368581E9368C01A536800D5C01883
:10415C007047C04603008268C1685B68501A00D57E
:10416C00C0187047F0B54646D6464F460500C0B558
:10417C00EB688068013B0E0014001B1A1ED493429E
:10418C001AD31700002F05D12000E0BCBA46B14667
:10419C00A846F0BDAB6828689C463A0060443100E4
:1041AC0000F0AAFDAB689C466B686744AF609F4209
:1041BC00EAD10023AB60E7E70020E6E76A689046A7
:1041CC004344A342F8D30319994627009A42D9D8FD
:1041DC00131A9A462B6852469C46604400F08CFD9C
:1041EC0000234246AB604B4656449F1ACAE7C04672
:1041FC00F8B54746CE4680B5C66883680500884644
:10420C009C1B0BD4944207D82700002C20D13800DB
:10421C00C0BCB946B046F8BD1400F5E743689946F2
:10422C004C44944200D91400331927009945ECD81A
:10423C004B469F1B2B683A009919404600F05CFDD9
:10424C004B46F61AA419B84400263F19002CDED0B0
:10425C00296822004046891900F04EFDD7E7C04678
:10426C00F0B54F464646D646C0B50F008368C168C8
:10427C00060014005B1A1ED493421AD31500002DAD
:10428C0005D12000E0BCBA46B146A846F0BDF368A3
:10429C0031689C462A006144380000F02DFDF3681B
:1042AC009C4673686544F5609D42EAD10023F36037
:1042BC00E7E70020E6E7426890464344A342F8D380
:1042CC000B19994625009A42D9D8531A9A46036875
:1042DC0052469C463800614400F00EFD00234246D5
:1042EC00F3604B4657449D1AC9E7C04670B50100B0
:1042FC000400861D1D4D1E4823781B0258400823C0
:10430C0004E0013BDBB280B2002B09D002B24000CA
:10431C00002AF6DA013B6840DBB280B2002BF5D103
:10432C000134A642E8D14B888A781D0A1202154343
:10433C001BD008314D190D4CADB20B781B025840F7
:10434C00082304E0013BDBB280B2002B09D002B29F
:10435C004000002AF6DA013B6040DBB280B2002B51
:10436C00F5D101318BB2AB42E7D170BD2110000009
:10437C00FFFF0000052804D883001B180248C01852
:10438C0070470248FCE7C0463C67000838670008E5
:10439C0070B5040004A8007849000001084301210D
:1043AC000143072018400023D2000243638023718D
:1043BC00200000230725C9B221706270661D0822F7
:1043CC0001304B4004E0013AD2B2DBB2002A09D0F2
:1043DC0059B25B000029F6DA013A6B40D2B2DBB27B
:1043EC00002AF5D1B04201D00178E8E763712000D2
:1043FC00FFF77CFF030AE071A371200070BDC0467B
:10440C0070B5040004A840C84900058820001B01B1
:10441C000B43D20031002370627008302A0000F088
:10442C006BFC2B0AA3700023E57020000725237179
:10443C00661D02785340082204E0013AD2B2DBB286
:10444C00002A09D059B25B000029F6DA013A6B4018
:10445C00D2B2DBB2002AF5D10130B042E9D163719E
:10446C002000FFF743FF030AE071A371200070BD29
:10447C0070B5002307244679451D02785340082265
:10448C0004E0013AD2B2DBB2002A09D059B25B0087
:10449C000029F6DA013A6340D2B2DBB2002AF5D138
:1044AC000130A842E9D1F01A42425041C0B270BD6D
:1044BC0000788006800F704700780007400F704727
:1044CC0040788006400F70474378072018407047AB
:1044DC00827843881202180A1043704708307047DC
:1044EC0010B50400FFF702FFE388A1791B0A09024B
:1044FC000B43181A42425041C0B210BDB0B500AFC8
:10450C00050000F0BFF86A46C31DDB08DB00D31AB8
:10451C009D460200040069462800FFF769FE80B240
:10452C00844203D00024BD462000B0BD684600F094
:10453C00D3F804002800FFF70DFE8442F2D8F2E70E
:10454C0070B505000C001600002905D032002800BB
:10455C002100FFF7DFFD70BD3D21024A0248FFF745
:10456C00B1FDF3E75C6700086C67000810B5FFF756
:10457C00DFFD10BDF8B5DE4657464E464546E0B564
:10458C0000AF1E0080468A46914600F07BF86B46D1
:10459C00C41DE408E4001B1B9D460500801983B272
:1045AC003200514668469B4600F08AF8FDF790FCB5
:1045BC004046FFF7C5FD002483450DD9FDF7A8FC47
:1045CC005B46E01ABD4643425841C0B2F0BCBB4604
:1045DC00B246A946A046F8BD2A0069464046FFF7F8
:1045EC00C1FD4B4684B2002BE8D032004946404610
:1045FC00FFF7B8FD2418A4B2E0E7C046F8B54E4664
:10460C004546DE465746E0B500AF06008946904663
:10461C00FFF774FF0025041E07D1BD462800F0BC2F
:10462C00BB46B246A946A046F8BD6A46C31DDB0888
:10463C00DB00D31AEA469D46FDF74AFC2200694688
:10464C003000FFF70DFE0600B6B2EB46FDF760FC3E
:10465C00002E01D1D546E0E7684600F03DF88442D3
:10466C0005D159464046C8470125D546D5E72521F1
:10467C00024A0348FFF726FDF3E7C04684670008AB
:10468C006C6700080C20704710B5FDF745FD020063
:10469C000B0003480260436080235B02836010BD03
:1046AC006822002010B5FDF737FD02000B0003480F
:1046BC000260436080239B02836010BD582200205F
:1046CC0070B504000E001500FDF726FD6681206014
:1046DC0061602581200070BD00890C3080B270476C
:1046EC00807A7047008970470C30704710B5042AE7
:1046FC0024D012D8012A15D0022A1BD1052303700D
:10470C000023441CC85CE0540133D8B29042F9D366
:10471C000220002A0AD180B210BD082A0AD1072330
:10472C000370EDE7042303700B784370013AD0B2A9
:10473C000230F0E7142303700120EDE70623037029
:10474C00DEE7C046F0B5C6460E0000B5002917D00E
:10475C00FF23050000240227984601CDFEF762FADC
:10476C0080B280459B415B420233C01801343F1834
:10477C00E4B2BFB2A642F0D1380080BCB846F0BD5E
:10478C000227F9E7F8B5DE4657464E46454616234E
:10479C00E0B583460370002A38D0013AD2B29200B9
:1047AC0091460B1D0E000127994411E002220C23A7
:1047BC0092462B7068700A3B020454444146120C1A
:1047CC00E8183F19043600F097FABFB2B14512D081
:1047DC005B46DD19336818009846FEF723FA84B25D
:1047EC00FF2CE3D90D2303222B70230AAB709246C6
:1047FC0003236870E0E7781C80B25A461823D3551F
:10480C00F0BCBB46B246A946A046F8BD0220012723
:10481C00F3E7C04607280DD9030004220C3B934351
:10482C00DBB2002B09D00D389043C3B20020002B13
:10483C0006D07047013188B2FBE7023188B2F8E745
:10484C00033188B2F5E7C046F8B5050016001C0028
:10485C000D2909D80B291BD80439032916D8310086
:10486C00DAB2FFF743FFF8BD103901290ED8FF2B40
:10487C002AD8102344700370022702202200310032
:10488C002818E41900F038FAA0B2ECE70020EAE7A7
:10489C001000FEF7C7F984B2FF2C0FD90D232B7033
:1048AC00230AAB7003270323687002043100120C37
:1048BC00E818E41900F020FAA0B2D4E70C23022780
:1048CC002B7068700A3BF0E711230370230A4470C5
:1048DC00837003270320D1E7F0B5C64600B5838B60
:1048EC0004000D00012600AF002B04D0BD463000A3
:1048FC0080BCB846F0BD6A46CB1DDB08DB00D31A82
:10490C00E8469D460A0004306946FFF7A9FC85423B
:10491C0002D00026C546E9E7210068461431FEF7AF
:10492C0035F92200290068462432FEF749F9222283
:10493C000121A35C0B43A354C546D7E7F8B5454604
:10494C005746DE464E46E0B5838B0400884615007C
:10495C0000AF002B25D00600242314369A46B3460C
:10496C0082442B005A4643CA43C32221126858463C
:10497C001A600122635C934363542A816269A38B9E
:10498C009446013BA383638B514663446361FEF7FA
:10499C0029F90120BD46F0BCBB46B246A946A0464B
:1049AC00F8BD0B006A460733DB08DB00D31AE94677
:1049BC009D460A0004306946FFF752FC804502D040
:1049CC000020CD46E6E72600143631006846FEF797
:1049DC00DDF824239A46A244524641466846FEF727
:1049EC00EFF822220121A35CB3460B43A354CD461E
:1049FC00B7E7C04670B50500582000F05BF906001B
:104A0C00FEF7BCF801356C1044430134A4B220000D
:104A1C0000F050F9010030000025220002C0FFF721
:104A2C0079FB2000B58300F045F9B062010030003D
:104A3C0022002C30FFF76EFB44233000F552356515
:104A4C00756570BD70B5040004300025FFF76CFB74
:104A5C002000A5832C30FFF767FB4423E552256526
:104A6C00656570BD10B5838B0400002B01D0002050
:104A7C0010BD0430FFF75CFB0028F8D04423E35A48
:104A8C00002BF4D120002C30FFF752FBF0E7C0468E
:104A9C0070B5040004300D00FFF752FB2880200095
:104AAC002C30FFF74DFB688070BDC046F0B54F460B
:104ABC004646D646C0B5804600AF08000C0091466D
:104ACC001E00FEF75FF8012808D90123002033707F
:104ADC00BD46E0BCBA46B146A846F0BD85002D18CF
:104AEC00FEF74CF8ED000435454482462800FFF7EC
:104AFC0027FB824503D9022300203370E8E720000E
:104B0C00FEF73EF843461B6D834201D300281ED1AD
:104B1C004346186553466A460733DB08DB00D31A55
:104B2C009D4652460021684600F0EFF84A462100A7
:104B3C0000F0E2F8524669462800FFF713FB030029
:104B4C0001209A45C4D0042300203370C0E703230E
:104B5C0000203370BCE7C046F0B5D6464F464646FB
:104B6C00C0B504000D00FEF709F807000100200095
:104B7C00FFF7B2FE00285AD0200039002830FFF78A
:104B8C00ABFE804600284BD000276169E06B2723E1
:104B9C0088427F4188429241784298435242013385
:104BAC009C4693009B18DB00E3181A002900143272
:104BBC00BA468146C1CAC1C11268E1440A602222C8
:104BCC0094469C44624601206146127882430A70E6
:104BDC002881596948468C4649469A8B2431013ABA
:104BEC009A835A8B1430624420185A616118FDF76D
:104BFC00F9FF534698005044C700E41964692B68C8
:104C0C002800E41AFDF7F0FD844218DDEB889C4285
:104C1C0000DAEC804046E0BCBA46B146A846F0BD8E
:104C2C002A0039002000FFF789FE8046F2E72000B9
:104C3C002A0039002830FFF781FE8046EAE766211A
:104C4C00024A0348FFF73EFAE0E7C046A4670008B3
:104C5C00CC67000810B50400806A00F035F82068B5
:104C6C0000F032F8200000F02FF810BD70B50026CF
:104C7C000C4D0D4C641BA410A64209D1002600F06B
:104C8C0023FD0A4D0A4C641BA410A64205D170BD2D
:104C9C00B300EB5898470136EEE7B300EB58984752
:104CAC000136F2E720680008206800082068000838
:104CBC002468000810B5034B0100186800F09AF83E
:104CCC0010BDC0460800002010B5034B0100186849
:104CDC0000F024F810BDC0460800002030B50024B8
:104CEC000139A24201D1002005E0035D01340D5DC4
:104CFC00AB42F6D0581B30BD002310B59A4200D100
:104D0C0010BDCC5CC4540133F8E703008218934205
:104D1C0000D1704719700133F9E7000070B5050038
:104D2C00002910D00C1F2368002B00DAE41828008F
:104D3C0000F070F91D4A1368002B05D163601460F4
:104D4C00280000F06FF970BDA34208D921686018E3
:104D5C008342F3D118685B6841182160EEE71A00B2
:104D6C005B68002B01D0A342F9D911685018A042FE
:104D7C000BD120680918501811608342E0D11868D3
:104D8C005B68411811605360DAE7A04202D90C232A
:104D9C002B60D5E721686018834203D118685B68E3
:104DAC004118216063605460CAE7C0467822002035
:104DBC0070B50F4E0D0031680400002902D100F0CF
:104DCC008FF830602900200000F08AF8431C0AD0CC
:104DDC000323C51C9D43A84207D0291A200000F0CC
:104DEC007FF8431C01D101256D42280070BDC046DF
:104DFC007C220020F7B50322CB1C9343083306001A
:104E0C001F000C2B32D20C27B94231D8300000F0E5
:104E1C0001F9324D2B681C00002C2ED139003000CA
:104E2C00FFF7C6FF0400431C1ED12C682500002D83
:104E3C004AD123682900E3183000019300F050F8A0
:104E4C00019B834243D123680337FF1A03239F43FB
:104E5C0008370C2F00D20C2739003000FFF7A8FFC1
:104E6C00431C34D02368DF19276013E0002BCBDA06
:104E7C000C23002533602800FEBD2268D11B20D4F2
:104E8C000B2917D9E2192760A34211D12A60636854
:104E9C00116053603000250000F0C4F807220B3578
:104EAC00231D9543EA1A9D42E5D05B1BA350E2E714
:104EBC005A60ECE76268A34201D12A60EAE75A60C3
:104ECC00E8E723006468A7E72C006D68AFE70C23C4
:104EDC003000336000F0A6F8CDE7C0467822002001
:104EEC00002370B5064D040008002B6000F0DEFBBB
:104EFC00431C03D12B68002B00D0236070BDC0462F
:104F0C00802200200CB430B5174B0C001D689DB0EE
:104F1C00002908DA8B2301202B6040421DB030BCE5
:104F2C0008BC02B0184782236A469B009382002378
:104F3C0002900690994200D04B1E049307930123D4
:104F4C006A465B42D382280021AB209A02A90193C6
:104F5C0000F0D2F8431C01DA8B232B60002CDDD03F
:104F6C000023029A1370D9E70800002003000A7886
:104F7C0001311A700133002AF9D17047030030B5A2
:104F8C001D00002A06D00C78013A01332C70013137
:104F9C00002CF5D100219A18934200D130BD197024
:104FAC000133F9E730B5140005001A009BB0002C52
:104FBC0005DA8B230360012040421BB030BD8223F5
:104FCC0068469B0083810023009104919C4200D091
:104FDC00631E02930593012369465B42CB81280033
:104FEC001E9B00F089F8431C01DA8B232B60002CEC
:104FFC00E3D00023009A1370DFE7000007B500939D
:10500C0013000A00010002480068FFF7CBFF0EBD39
:10501C000800002010B5024800F0F0FA10BDC046A0
:10502C008422002010B5024800F0E9FA10BDC046F9
:10503C0084220020F0B58E6885B007000C00039226
:10504C0001939E423CD890238A89DB001A4234D0CB
:10505C000969236860695B1A029303234343DD0FDC
:10506C00ED18019B029801331B186D10AB4200D94F
:10507C001D00530532D529003800FFF7BBFE061E74
:10508C0009D10C233B6040230120A28940421343E9
:10509C00A38105B0F0BD029A2169FFF72DFEA3890B
:1050AC00144A1A4080231343A381029B2661F618ED
:1050BC0026606561019EED1AA560019B9E4200D998
:1050CC00019E32000399206800F0A5FAA368002025
:1050DC009B1BA36023689E192660DAE72A00380020
:1050EC0000F0ACFA061EE0D138002169FFF716FE7D
:1050FC00C7E7C0467FFBFFFFF0B5A1B003901D00D2
:10510C008B890F0016001B0611D50B69002B0ED1D5
:10511C004021FFF76FFE38603861002805D10C2361
:10512C00039A0138136021B0F0BD40237B6100234A
:10513C0008AC6361203363761033A3760795350092
:10514C002B78002B01D0252B47D1AB1B0593B542F7
:10515C000CD0320039000398FFF76CFF431C00D1D0
:10516C00AEE06269059B9446634463612B78002B27
:10517C0000D1A5E0012200235242626004A95432FE
:10518C0052186E1C2360E360A3601370A3650522A4
:10519C003178544800F034FA751C00281FD122686D
:1051AC00D30604D5532304A95B18202119701307C7
:1051BC0004D5532304A95B182B21197033782A2B9F
:1051CC0016D0350000210A20E3682A786E1C303A8C
:1051DC00092A4ED9002911D117E00135B0E7414B0E
:1051EC002268C01A0123834013432E002360CEE7AC
:1051FC00079B191D1B680791002B01DB0B9304E027
:10520C005B42E3600223134323602B782E2B0AD1DD
:10521C006B782A2B35D1079B02351A1D1B68079218
:10522C00002B2BDB0993304E03223000297800F041
:10523C00E7F9002806D04023801B83402268013503
:10524C00134323602978062228486E1C217600F02F
:10525C00D7F900283CD0264B002B25D10722079BE1
:10526C0007339343083307936369049A9B1863616C
:10527C0065E74343350001219B18A6E701235B42F8
:10528C00D0E700230A201A000135636029786E1CD0
:10529C003039092903D9002BC5D00992C3E7424301
:1052AC00350001235218F1E707AB00933A002100B7
:1052BC00104B039800E000BF0490049B0133D3D142
:1052CC00BB890D985B0600D42DE7012040422AE7EC
:1052DC0007AB00933A002100064B039800F07CF8D2
:1052EC00EAE7C046E3670008E9670008ED670008D5
:1052FC000000000041500008F7B5150001938A68C2
:10530C000B690C000090934200DA130022002B6012
:10531C0043321278002A01D001332B6023689B069C
:10532C0002D52B6802332B602268062317001F401E
:10533C001A4227D0230043331B785A1E934122680C
:10534C00920630D4220001990098089E4332B0474F
:10535C00431C25D0062320682A68E16800250340F9
:10536C00042B03D18D1AEB43DB171D40A368226974
:10537C00934201DD9B1AED180027BD4220D100207D
:10538C0010E00137E3682A689B1ABB42D2DD220089
:10539C00012301990098089E1932B047431CF0D1A3
:1053AC0001204042FEBD3020E1184331087021003D
:1053BC005A1C45310978A218433202331170C1E7E7
:1053CC002200012301990098089E1A32B047431C11
:1053DC00E6D00137D1E70000F0B58BB006920A0099
:1053EC0043320793059004920A7E0C00109B782A96
:1053FC0007D8622A09D8002A00D1C1E0582A00D166
:10540C008CE026004236327022E0100063381528FA
:10541C00F7D8FDF70FFC16001F00F6FFF6FFF6FF9E
:10542C00F6FF1F00F6FFF6FFF6FFF6FFA8003600AA
:10543C009A00F6FFF6FFB900F6FF3600F6FFF6FF0E
:10544C009E0026001A684236111D196013683370CD
:10545C000123A7E0086819680A1D05060BD50D681D
:10546C001A60002D03DA2D23049A6D421370614BE0
:10547C000A2703931BE00D681A604106F1D52DB283
:10548C00EFE70D681968081D18602E0601D50D6828
:10549C0003E06D06FBD50D68ADB2564B08270393A0
:1054AC006F2A00D002372300002243331A7063683E
:1054BC00A360002B03DB0422216891432160002DA3
:1054CC0002D1049E002B0CD0049E28003900FDF75D
:1054DC0041FC039B013E5B5C33702B0005009F423B
:1054EC00F3D9082F09D12368DB0706D56368226935
:1054FC00934202DC3023013E3370049B9B1B2361DF
:10550C00079B210000930598069B09AAFFF7F4FE60
:10551C00431C4CD1012040420BB0F0BD45310A7008
:10552C00344A03921A68216820CA1A60080616D5F4
:10553C00CB0702D52023194321601027002DB2D1AF
:10554C00202322689A432260ADE7202209680A438F
:10555C0022602200782145321170274AE1E7480683
:10556C00E6D5ADB2E4E71A680D68101D49691860FC
:10557C0013682E0601D5196002E06D06FBD5198063
:10558C000023049E2361BBE71A68111D196016687D
:10559C0000213000626800F033F8002801D0801B35
:1055AC006060636823610023049A1370A8E7236981
:1055BC00320006990598079DA847431CAAD023687A
:1055CC009B0715D4099BE0689842A5DA1800A3E75D
:1055DC002200012306990598079E1932B047431CF7
:1055EC0098D00135E368099A9B1AAB42F0DCE9E7E5
:1055FC000025F7E7F4670008056800087047704756
:10560C00C9B28218904201D10020704703788B42B6
:10561C00FBD00130F6E710B5884202D98B189842BE
:10562C0003D3002307E08B5C8354013AFBD210BDFB
:10563C00CC5CC45401339A42FAD1F8E7F7B50700B1
:10564C000E001400002905D11100FFF7D3FB050053
:10565C002800FEBD002A03D1FFF760FB2500F7E709
:10566C0000F01BF80190844203D835004308A34294
:10567C00EED321003800FFF7BDFB051EE8D0019BDF
:10568C0022009C4200D91A0031002800FFF734FB9D
:10569C0031003800FFF742FBDAE70B1F1B68181FBD
:1056AC00002B01DA0B58C01870470000044A0300A5
:1056BC001068002802D0C318136070470148FAE73D
:1056CC008822002090220020F8B5C046F8BC08BC07
:1056DC009E467047F8B5C046F8BC08BC9E4670475D
:1056EC0020110008121100081211000812110008F4
:1056FC00121100083C110008121100081C110008BE
:10570C0012110008121100084A11000812110008A9
:10571C001211000862110008B41200089612000859
:10572C0096120008961200089612000896120008AD
:10573C009612000896120008B01200080213000816
:10574C009612000866120008621300080A1300087B
:10575C001C130008961200089612000896120008F6
:10576C00881200084A14000886140008AA140008BD
:10577C004A1400084A1400084A1400084A14000885
:10578C004A1400084A1400084A1400084A14000875
:10579C004A1400084A1400084A1400084A14000865
:1057AC004A1400084A1400084A1400084A14000855
:1057BC004A1400084A1400084A1400084A14000845
:1057CC004A1400084A1400084A1400084A14000835
:1057DC00561400084A1400084A1400084A14000819
:1057EC00561400084A1400084A1400084A14000809
:1057FC004A140008CC140008761400084A14000857
:10580C004A140008B8140008341500084C15000898
:10581C00D01500083415000834150008341500089C
:10582C003415000834150008341500083415000828
:10583C003415000834150008341500083415000818
:10584C003415000834150008341500083415000808
:10585C0034150008341500083415000834150008F8
:10586C0034150008341500083415000834150008E8
:10587C0034150008181600085A16000834150008CC
:10588C00341500089C16000834150008341500085F
:10589C0034150008341500089C150008A8150008DC
:1058AC00AC1500089C150008A0150008D2170008BC
:1058BC00E217000810180008D2170008D2170008C9
:1058CC00D2170008D2170008D2170008D217000808
:1058DC00D2170008D2170008D2170008D2170008F8
:1058EC00D2170008D2170008D2170008D2170008E8
:1058FC00D2170008D2170008D2170008D2170008D8
:10590C00D2170008D2170008D2170008D2170008C7
:10591C00D2170008D2170008D2170008DE170008AB
:10592C00D2170008D2170008DE170008D21700089B
:10593C00D2170008D2170008D2170008D217000897
:10594C00D21700080C180008D21700081E180008FF
:10595C0096180008AA180008D01800089618000815
:10596C009618000896180008961800089618000853
:10597C009618000896180008961800089618000843
:10598C009618000896180008961800089618000833
:10599C009618000896180008961800089618000823
:1059AC009618000896180008961800089618000813
:1059BC00961800089618000896180008A6190008F2
:1059CC00961800089618000896180008DE180008AB
:1059DC00F218000818190008961800089618000804
:1059EC0096180008961800089618000896180008D3
:1059FC006C1900081C1B0008261A0008261A00083F
:105A0C00261A0008261A0008261A0008261A00086A
:105A1C00261A0008261A0008261A00081A1A000866
:105A2C001A1A00081A1A00081A1A00081A1A00087A
:105A3C00C21A00081A1A00081A1A00081A1A0008C2
:105A4C001A1A00081A1A00081A1A00081A1A00085A
:105A5C001A1A00081A1A00081A1A00081A1A00084A
:105A6C001A1A00081A1A00081A1A00081A1A00083A
:105A7C001A1A00081A1A00081A1A00081A1A00082A
:105A8C001A1A00081A1A00081A1A00081A1A00081A
:105A9C001A1A00081A1A00081A1A00081A1A00080A
:105AAC001A1A00081A1A00081A1A00081A1A0008FA
:105ABC001A1A00081A1A0008041B0008CA1A00084F
:105ACC001A1A0008541A00081A1A00081A1A0008A0
