:020000040800F2
:1000000000900020652B0008B52B0008191D000882
:1000100000000000000000000000000000000000E0
:10002000000000000000000000000000B52B0008E8
:100030000000000000000000B52B0008751D00083E
:10004000B52B0008B52B0008B52B0008B52B000810
:10005000851D0008B52B0008B52B000841200008BD
:10006000B52B000849210008B52B0008B52B000866
:10007000AD200008A11D0008111E0008CD1E0008BB
:10008000B52B000891200008B52B0008B52B0008FF
:10009000B52B0008B52B0008B52B0008B52B0008C0
:1000A000B52B0008B52B0008B52B0008B52B0008B0
:0C00B000B5210008B52B0008B52B000896
:1000BC0010B5064C2378002B07D1054B002B02D032
:1000CC00044800E000BF0123237010BD7000002025
:1000DC00000000003C4D0008044B10B5002B03D071
:1000EC000349044800E000BF10BDC04600000000FA
:1000FC00740000203C4D0008F0B50124C02384405E
:10010C000B4D5B00EC500700830803203840FF27A1
:10011C00AC46C026C0008740890181409B006344E7
:10012C00B6009A59BA430A439A512C60F0BDC046A6
:10013C0000E100E08C461049F0B507000D000024EA
:10014C0083B02E78BE4205D001340C350A2CF8D180
:10015C0003B0F0BD60000419A4000C1961880029DB
:10016C00F6D0A06800933900130065686246A84772
:10017C006388013B6380EBE78C00002070B50F4E69
:10018C00002334002578854213D001330C340A2B1C
:10019C00F8D17824335D0A2B0AD05D1C35555C00F0
:1001AC00E418A400331930550548996058605A80FA
:1001BC0070BD5800C3189B00F318F5E78C000020A5
:1001CC00F90F0008F0B501224F46D64646460B689B
:1001DC0000249146C0B5002B1AD14BE017005743B1
:1001EC007B00DB19DB43C568AC4666460D691E40D7
:1001FC007D433543C5604D68022D2DD07D4302688B
:10020C0013402B4303600B681A000134E24031D0D9
:10021C004D461A00A5402A402B42F5D04B68013BB5
:10022C00012BDBD81700574383688D6898467B00F9
:10023C009C467D43BC44AA4646466546AE433500C3
:10024C00564663462E438660CE68456856439543B2
:10025C003543DB434560C6E7FF2A10D83D007D439C
:10026C00026A2E01761BB2434E6975432A43026221
:10027C004D68C3E7E0BCBA46B146A846F0BD120AC9
:10028C0052435243456A1601B61AB5434E6972433E
:10029C002A4342624D68B1E710B5112402000848A8
:1002AC000B00016AA143016280200649800088622C
:1002BC00DA38FF3888610449044803F0FDFBFEE797
:1002CC00002C0140000400503C5100082854000848
:1002DC00FA2170B5124C05008900206802F0B0F9C3
:1002EC00802301385B04984201D3012070BDC021EA
:1002FC000C4A090650600C48036A1B021B0A0B438C
:10030C0003620721002393601160032DEDD8026A6C
:10031C00A9071202120A0A43026218006560E5E797
:10032C000000002010E000E000ED00E010B50A0035
:10033C0002490348103103F0BFFB10BD3C510008CB
:10034C003454000810B50A0002490348203103F068
:10035C00B3FB10BD3C51000834540008F8B505003F
:10036C001C480C0003F0A8FBDB2364265B00EC5458
:10037C00EA18B63BFF3B04210720FFF7DBFE164FC4
:10038C006643CC373B88B34204D03100134803F0AA
:10039C0093FB3E80124B321C9E4200D91A1C114B0F
:1003AC0092B29A4200D21A000D4B28349A1A0E4B74
:1003BC00E4B253438022120194460C4A63441B0B53
:1003CC00536121000A4803F077FBB823FF33EC5448
:1003DC00F8BDC0463C5400088C0000205C5400085A
:1003EC00D3270000B204000049070000007400404D
:1003FC00745400084B1E9941012310B5494299438E
:10040C00002200230E3103F0BBFD10BD70B50600B9
:10041C0014001D0082B0803600920193326873681C
:10042C00A41A9D41002D04D1074B9C4201D802B067
:10043C0070BD08236A46132103F0A2FD009B019CAA
:10044C0033607460F3E7C046BFE1E400F0B5D64614
:10045C004F4646460300C0B5A933FF331D89020041
:10046C000020002D04D1E0BCBA46B146A846F0BD30
:10047C00D4219C7A4900515898881A79002C00D0C4
:10048C0083E0CC7AD8795200241A0120013CE4B2E2
:10049C00987248689B7985189946865C6D788F7A36
:1004AC00C82B00D982E001235B424B449846042FB1
:1004BC0000D89FE04B46002B05D1724B724A1800B6
:1004CC00724903F009FB002C00D189E07B01DB1B96
:1004DC009801C01AFA23C000C01980019B049842ED
:1004EC0078D36B48002206216A4B013CD8621C630E
:1004FC005A621A698A431A61354200D09FE005237B
:10050C00334200D181E042460221624B35435A63AB
:10051C00DA680A43DA605A6901390A435A6140229F
:10052C00ED4301205C4B9A61EBB2054200D09FE099
:10053C005A4A022190620422082019401A400340B2
:10054C00002900D090E0022054498862002A72D120
:10055C000421524A9162002B53D020224F4B9A61B6
:10056C004F4A002311004B4CCE310B806363A363C5
:10057C009433D05824210023002203F001FD0122E2
:10058C0023680120134323606DE701320C89D6B236
:10059C00B4422DD07200DC790134E4B2DC71CE7A35
:1005AC00013EB44252D00020987272E7C72398469D
:1005BC00042F88D8334B3B4A18003B499A4603F02A
:1005CC008BFA002C0ED07B01DB1B9801C01AC000EB
:1005DC00C0198001FA21890002F032F8013881E754
:1005EC00284B9A465046314A314903F075FA6DE76B
:1005FC000022D0E7234B2B4A18002B4903F06CFA4E
:10060C0058E72022254B9A62AAE742460421214B47
:10061C0035439A63DA680A43DA605A6903390A4344
:10062C005A61002D1ED140221B4B9A621B4B3E3A45
:10063C0099619A6108230421184A91618BE7622120
:10064C001C4A1048FF3103F047FA58E700260130E6
:10065C0080B2DE7198800F898742A4D1013D9E80C3
:10066C001D81A0E7ADB25AE702200C4988616DE705
:10067C00082402213C3A19401A402340074CA0613F
:10068C005EE7C046AC540008C054000846030000A6
:10069C00FEFF0000002C0140000800500004005038
:1006AC008C0000209854000845030000DC5400081E
:1006BC0047030000F4540008032310B5104C114AF2
:1006CC0023616361104BA261E36180239B01236270
:1006DC000023A3626362E36222660C4A0C49543223
:1006EC0062661022E01DA2662367E366636703F06F
:1006FC0071FF2000074903F06DFF2023A37110BD8B
:10070C00A421002010550008A40100200C01002099
:10071C001C55000820550008F8B54746CE4680B554
:10072C008368C56899465B1B9846436804000E00B5
:10073C0017005819904507D9ED1903F011FEE56023
:10074C00C0BCB946B046F8BD424603F009FE4B4664
:10075C003100ED19ED1A2A006068414403F000FEE7
:10076C00E560EDE7F0B557464E464546DE46E0B54A
:10077C00354B83B09A461B78060015000191002B6F
:10078C0056D07700BB19DB0053441A6F9046DA6ED3
:10079C009146904525D8130042462C009B1A9D4249
:1007AC0009D8002C09D1200003B0F0BCBB46B246DE
:1007BC00A946A046F0BD1C1EF5D0A146BB19DB0016
:1007CC005344596E220041440198A04403F0C8FDE3
:1007DC004C46002CE7D04346BF19FF0057443B67FB
:1007EC00E1E742469B6E2C009B1A9D4227D8BB1911
:1007FC00DB0053449B46596E22004144019803F0A0
:10080C00AFFD5B469B6EA0442D1B434519D04B4658
:10081C0042469B1A99464D450DD8002DD9D0019BC7
:10082C00A1469C46A44463462C000193A944C5E709
:10083C00FFF742FFA5E74D46002DCAD0EFE71C009D
:10084C00D5E700239846E6E7A4210020F8B55746E3
:10085C004E46DE4645468946411CE0B517004A0027
:10086C0052180300D2009246344A5E0093461000A0
:10087C00F618F6005E44F36A50449846012B0CD0EF
:10088C00022B27D0002B17D0002398464046F0BCF3
:10089C00BB46B246A946A046F8BDB36A726A9342FB
:1008AC0047D9013B9B1AB8469F4200D9984642460D
:1008BC004946FFF731FFE9E7B36A726A934233D9CD
:1008CC00013B9B1A9F42E1D83A004946FFF724FFAF
:1008DC00B846DBE70023746A98461DE0013B356A95
:1008EC001B1BBB4200D93B002D1B9D4200D91D0098
:1008FC005B46534458682A004946001903F030FD02
:10090C00336A6419E31A5A1E93415B421C40A84493
:10091C00A9447F1B7462B9D0B36AA342DED8356A8E
:10092C005B19013B1B1BDCE7316A5B18013B9B1A13
:10093C00C8E7316A5B18013B9B1AB4E7A42100207D
:10094C00F0B5C64600B5856843686A1C04009A4237
:10095C0007D8036859551500C36882600133C3601A
:10096C0043689D4202D080BCB846F0BD236827691D
:10097C0098460E4B1B78002B15D0EFF310860121F7
:10098C0081F310882A0041463800FFF75FFF86F399
:10099C001088A368834203D001235B42E360E2E743
:1009AC000023A360DFE7FFF787FEE6E7A421002022
:1009BC00F0B54E4645465746DE46E0B583B09A46FE
:1009CC000C9B80460E0015009946914200D27DE0AA
:1009DC0008000127290001F033FE01378542F9D9BF
:1009EC00574500D2574601230D9A1A4001920D9A91
:1009FC0013424ED14B46002B4BD0130020249B07A7
:100A0C005ED44F4545D201235B429C4621004046B3
:100A1C00E144FFF795FF4346DB68002B32DB4B4686
:100A2C00002BEED153460124012B07D901235B4245
:100A3C009C46E24453466C43012BF7D8210030000E
:100A4C0001F0FEFD8542F5D9214B9B4630239A4699
:100A5C0006E02900200001F0F3FDAC420FD30400A6
:100A6C003000210001F072FE534658440E00C15C68
:100A7C004046FFF765FF4346DB68002BE9DA019B34
:100A8C00002B19D103B0F0BCBB46B246A946A04618
:100A9C00F0BD4346DB68002BC4DAF3E74F45F1D2D7
:100AAC0001235B429C4620214046E144FFF748FF6E
:100ABC004346DB68002BE5DB4B46002BEED1E1E730
:100ACC0053465C425C41240120349AE7012787E7B6
:100ADC003C51000810B5080003F008FB0349020064
:100AEC004031034802F0E8FF002010BD3C510008E3
:100AFC002855000810B5080003F0F8FA0349020065
:100B0C004C31034802F0D8FF002010BD3C510008C6
:100B1C004C55000810B50400806F03F02DFA002826
:100B2C0001D1002010BD606F03F026FA0028F8D028
:100B3C00200003F021FAF5E770B5D0267600835932
:100B4C0004009847051E1DD0A65903F0B1FA010008
:100B5C002000B047002805D08E210B4A0B484900D5
:100B6C0002F0BAFFD0235B00E55003F093FA0100CA
:100B7C002000A847002805D02021034A0348FF3154
:100B8C0002F0AAFF70BDC046705500087C550008E5
:100B9C0070B5D0267600835904009847051E1DD0E9
:100BAC00A65903F085FA01002000B047002805D0B3
:100BBC0066210B4A0B48FF3102F08EFFD0235B00FD
:100BCC00E55003F067FA01002000A847002805D083
:100BDC00B421034A0348490002F07EFF70BDC046B1
:100BEC007055000890550008F8B52A4B0500C6183A
:100BFC000122300003F03AF8012804D0D821264A0B
:100C0C00264802F069FF72B6BFF34F8FBFF36F8FA8
:100C1C00234C2700C4373B78FF2B2ED02200013306
:100C2C00C4323000137002F09BFF002810D0250056
:100C3C00C4352B78002B19D0013BDBB2C4342370A4
:100C4C00002B04D1BFF34F8FBFF36F8F62B6F8BD8B
:100C5C00144BEA56012A17D0250013491348583172
:100C6C00C43502F029FF2B78002BE5D1104A11492D
:100C7C00114802F031FF2B78DEE7104A10490E487C
:100C8C0002F02AFF3B78C9E780210E4A13688B4398
:100C9C001360CCE764100000A0550008AC550008A8
:100CAC008C000020D51400003C510008E4550008CD
:100CBC00005600089E020000AC540008BC55000809
:100CCC009702000000440040F8B5224D0400435D3B
:100CDC005A1CD2B24255C3181F488446634419703B
:100CEC00072A08D91C4BE618082A0DD01B4BE05AD2
:100CFC000830824201D00020F8BD0022154B300094
:100D0C00E25403F0DFF8F7E7300003F0B7F80028FF
:100D1C000BD0300003F0E2F88023104F0100E053B9
:100D2C009B00984210D8625DE2E7615D0139C9B25F
:100D3C0061550029DFD0002372780133DBB23270A9
:100D4C0001369942F8D1D6E7054802F0B5FE0023EA
:100D5C00E353D0E7D4140000CC120000D6140000EA
:100D6C002056000870B584B00B00009205000022DC
:100D7C00012102A803F012F872B6BFF34F8FBFF334
:100D8C006F8F234C2600C4363378FF2B32D02200D1
:100D9C000133C43213701F4B082202A9E81802F069
:100DAC00E7FE002811D12500C4352B78002B1AD072
:100DBC00013BDBB2C4342370002B04D1BFF34F8F43
:100DCC00BFF36F8F62B604B070BD134BEA56012AA5
:100DDC0017D02500114912485831C43502F06CFE69
:100DEC002B78002BE4D10F4A0F49104802F074FE07
:100DFC002B78DDE70E4A0F490C4802F06DFE337874
:100E0C00C5E780210C4A13680B431360CBE7C0463F
:100E1C008C00002064100000D51400003C51000828
:100E2C00E4550008005600089E020000AC5400086F
:100E3C00BC5500089702000000440040F0B50600C5
:100E4C00C64610001D005C4B00B5F25C82B09401EC
:100E5C00A4186400A418A400043434190B000195E0
:100E6C0000900421200002F0D1FF083572B6BFF3C8
:100E7C004F8FBFF36F8FC4239846504FB8444346EF
:100E8C001B78FF2B3CD03A000133C43213704C4B0F
:100E9C0021002A00F01802F06BFE041E18D1C423A6
:100EAC009846B84443461B78002B21D03A00013BAE
:100EBC00DBB2C4321370002B04D1BFF34F8FBFF3DE
:100ECC006F8F62B6A54223D002B080BCB846F0BD8D
:100EDC003C4BF256012A57D03B493C48583102F062
:100EEC00EBFDC4239846B84443461B78002BDDD158
:100EFC00374A3849384802F0EFFD43461B78D5E7AE
:100F0C00364A3749344802F0E7FD43461B78BAE7C6
:100F1C0072B6BFF34F8FBFF36F8F3C00C43423788E
:100F2C00FF2B42D039005A1CC431D2B20A70802136
:100F3C002C4CC905606E496A6166884202D9A16E63
:100F4C000131A166002A25D0C4373B70002B04D197
:100F5C00BFF34F8FBFF36F8F62B6832189008C462E
:100F6C001548616E325CA46E93019B185B009B1854
:100F7C009B00F318A40789086344214319600723D5
:100F8C0001321A4032549FE78021174A13680B43F1
:100F9C00136084E70E4A0F490F4802F09DFD3B0099
:100FAC00C4331B78013BDBB2CEE70C4A0C490A4830
:100FBC0002F092FD2378B5E7D81400008C000020D5
:100FCC0064100000D51400003C510008E4550008E2
:100FDC00005600089E020000AC540008BC550008E6
:100FEC00970200000C01002000440040F0B5D646EA
:100FFC004F464646C0B500AF98463B8C0600894626
:10100C001000190015009A4603F00CF96B461330CA
:10101C00C408E4001B1B5A889D469A8000221A8043
:10102C005A80DA8005321A814A4629005A8103A86F
:10103C005346424603F006F9D422030052000C3307
:10104C00B05801216A469BB2FFF7F8FEBD46E0BCE2
:10105C00BA46B146A846F0BDF0B557464546DE4601
:10106C004E46E0B58A8883B004000D0002AF092A11
:10107C0000D9BBE060499300CB589F460500AD35C5
:10108C00FF35280001F0CAFA80B200902B000C2228
:10109C0009212000FFF7AAFFBD4601B0F0BCBB46FA
:1010AC00B246A946A046F0BD544D280001F0B6FA50
:1010BC0080B200902B000C2202212000FFF796FF3B
:1010CC00EAE74F4903226C314E4802F0F5FC01224D
:1010DC0021000320FFF752F84B494C4802F0ECFC7E
:1010EC004B4A4C4993680B4004210B439360D3E764
:1010FC00D2235B009C46C358E9469A46DA235246F3
:10110C005B00D65C6A46B3000733DB08DB00D31AFE
:10111C009D4602AB9846002E0CD0002350466146EB
:10112C00415840461A0151589A0001338150DAB2A5
:10113C009642F3D83100404603F00CF803006A469F
:10114C000C339BB20733DB08DB00D31A9D4602AB92
:10115C009A4652465B882900938000231380538063
:10116C000E336B449B460622180003F0F9F8052356
:10117C005A464146937005A8320003F00BF8D4226E
:10118C00030052000C33A058012152469BB2FFF7CA
:10119C0055FECD4680E7D222B62352008158FF334C
:1011AC00CB5C8A581B019C58200001F037FA2200B6
:1011BC0083B20C210620FEF7BDFF6DE7D2235B0046
:1011CC00C258A43BB73204210720FF32FF3BFEF785
:1011DC00B1FF61E7D2235B00C258A43BB9320421B2
:1011EC000820FF32FF3BFEF7A5FF55E706490A48EA
:1011FC00103102F061FC4FE7544D000844560008D2
:10120C003C51000850560008BC51000860560008BC
:10121C0000240140E8FFFF7F64560008F8B5060083
:10122C0008000D0002F062FF040015283BD00AD81C
:10123C0001284DD0022841D170497148243102F067
:10124C003BFC0020F8BD172838D1280002F052FFD3
:10125C00027A0500871D062A50D013D8022A3DD0E9
:10126C00032A46D1BB88C188664A674802F024FC31
:10127C0031003879654AFEF781FF39003000FFF7FD
:10128C00EBFEDEE7082A34D1C188614ABB885E4890
:10129C0002F012FCBA88062A6CD058495D486C31B1
:1012AC0002F00AFCCDE7D423544A5B00F058833B90
:1012BC000021FF3B3032FFF7C1FDC2E7280002F0EE
:1012CC0015FF4E4902002431534802F0F5FBB8E7F4
:1012DC004A495248243102F0EFFBB2E7C188BB887F
:1012EC004F4A494802F0E8FB39003000FFF7B4FEE2
:1012FC00A7E74C494C4802F0DFFBA2E7C1884B4AF8
:10130C00BB88414802F0D8FBBA88082A41D012D8D1
:10131C00062A2FD0072A59D1BB79042B00D090E78D
:10132C002A00A133FF33F058A43B21210D32FF3B9F
:10133C0002F026FE85E7092A48D1BB790C2B00D098
:10134C007FE7FA79131C172A00D9231C37002900D0
:10135C00AD379CB2FF37220038000E3103F000F895
:10136C0000233019AD30FF3003703900304802F0E3
:10137C00A3FB66E7BB790C2B00D062E7D2212A00D5
:10138C00490070588539FB790E32FF3902F0F8FDAF
:10139C0057E7BB790C2B00D053E79933FF33F45844
:1013AC00FB790E35042B17D0052B06D01D210023FD
:1013BC000022200002F0E4FD43E71E49052228002C
:1013CC0002F0C0FF1B210028F0D1F0E70B491148B7
:1013DC00583102F071FB34E704222800164902F060
:1013EC00B1FF002808D004222800144902F0AAFFFB
:1013FC000028DBD11A21DAE71C21D8E7BC51000800
:10140C009C5600080C570008B8560008FFFF000057
:10141C001C570008645600084C55000884560008F8
:10142C00B05600083C52000824570008DC5600084F
:10143C00F4560008EC560008E4560008445700081F
:10144C000FB430B597B01AA920C92800019102F049
:10145C0029FB2A0004005021019B02A803F002F989
:10146C00002808DD88220749013083B28858002102
:10147C0002AAFFF7E3FC200017B030BC08BC04B094
:10148C001847C0460C01002070B5050008000C0080
:10149C0002F02CFE0E280AD00AD807282DD00C28D2
:1014AC0039D1002300221E21A86F02F069FD70BD06
:1014BC00132830D1200002F01DFE00234168006883
:1014CC00184A01F05DFA04003C21200001F03EF9BD
:1014DC0020000E003C2101F0B3F83C2101F036F95C
:1014EC000D00E1212000090101F0AAF833000100F0
:1014FC002A000D48FFF7A4FFD9E7200002F0FAFDFF
:10150C0004680A48210002F0D7FA022CCFD18823B4
:10151C000022EA54CBE7064902001031054802F0DC
:10152C00CBFAC4E740420F004C5700086457000840
:10153C003C52000878570008F8B5D226B62776003A
:10154C00835904009C46FF37C55D18482D0165443E
:10155C002968FFF775FF0A212000FEF7FFFEE35D07
:10156C00A2591B019E58300001F058F8320083B28A
:10157C000C210620FEF7DEFDB823D422FF335200E7
:10158C00E35CA550A934FF34AA89A37100232281FE
:10159C00A380EB7A002B03D00023E371A372F8BD78
:1015AC004821034A034802F097FAF5E784570008EC
:1015BC0098570008B0570008F0B5D6464F46464637
:1015CC00C0B5050082B008000C0002F08FFD0300CE
:1015DC00143BDBB2112B1AD83F4A9B00D3589F46C1
:1015EC00B622DA21FF32AB5C49000133DBB2AB54DB
:1015FC00695C994201D10023AB542800FFF79CFF92
:10160C00002002B0E0BCBA46B146A846F0BD2000AE
:10161C0002F06CFD314902002031314802F04CFAE5
:10162C00EEE7200002F066FD6B4681882D4A51439F
:10163C00890B1980438809045A436B46920B5A80D4
:10164C0000881204C3011B181B011B1A68469B0A55
:10165C0083801B041B0C120C090C2348FFF7F0FEB3
:10166C0006236A4610210320FEF764FDC8E720001C
:10167C0002F040FD8146200002F03AFDDA235B00C7
:10168C009846EB5C0700002BB7D0D2235B000024FC
:10169C009A4605E043460134EB5CE4B2A342ACD974
:1016AC005246AA5823019E58300000F0B7FFB842AA
:1016BC00F0D13A003100484602F044FE0028E9D14E
:1016CC00B623FF33EC5498E7200002F013FD0178A9
:1016DC002800FEF743FE93E77C4D00083C520008BF
:1016EC00285500084DCE0000C457000870B5040002
:1016FC0008000D0002F0FAFC262803D8284A8000C6
:10170C0013589F4629002000FFF756FF70BDB623E3
:10171C00FF33E25C113BE35812019B18B822D4262C
:10172C00FF32A25C7600A351A5199989AA710022F7
:10173C002981AA80DA7A002A2AD00022EA71AA72B8
:10174C0019681848FFF77CFE1748DFE7D4235B00C5
:10175C00E35816481968FFF773FE0020D6E71449C2
:10176C0014482C3102F0A8F90020CFE71049124898
:10177C002C3102F0A1F9DC2301225B00E254E218C7
:10178C00B83B08200421FF3BFEF7D4FC0020BDE74A
:10179C0048210A4A0A4802F09FF9A359CDE7C046EE
:1017AC00C44D000814580008D1170008245800082C
:1017BC003C52000800580008EC57000898570008E5
:1017CC00B057000870B5050008000C0002F08EFC44
:1017DC00262803D81C4A800013589F462100280055
:1017EC00FFF7EAFE70BD1948FCE72800FEF72EFE55
:1017FC0003000020002BF5D1A933FF33EB5814481C
:10180C001968FFF71DFE1348ECE7134913483831EC
:10181C0002F052F9DC2303225B00EA54EA18B83BCD
:10182C0004210820FF3BFEF785FC2800FEF70EFE86
:10183C000020D7E708490A48383102F03DF900206A
:10184C00D0E70020CEE7C046604E000871180008B3
:10185C0024580008F91600083C52000834580008B7
:10186C004058000870B5050008000C0002F03EFC62
:10187C00262803D8214A800013589F4621002800AF
:10188C00FFF79AFE70BDD4235B00EB581C48196817
:10189C00FFF7D6FD1B48F5E7D8235B00EB5A002B6E
:1018AC0021D1A933FF33EB5817481968FFF7C8FD4E
:1018BC001648E7E716491748483102F0FDF8DC23D3
:1018CC0002225B00EA54EA18B83B08200421FF3BD3
:1018DC00FEF730FC0020D5E70D490F48483102F0E7
:1018EC00EBF80020CEE7D4235B00EB580B481968CB
:1018FC00FFF7A6FD0020C5E70448C3E7FC4E00082F
:10190C004C580008D117000824580008F916000894
:10191C003C52000834580008405800085C58000835
:10192C00010030B53039CBB283B0472B03D8564ABF
:10193C009B00D3589F4601005448FFF781FD03B02C
:10194C0030BD8B00C9188423802501AA4900117071
:10195C004F49504CC858833B212102F011FB63695D
:10196C00AD002B42EBD14C4802F0A6F8A561E6E79E
:10197C008025484CAD0063692B427FD1002344493C
:10198C0001AA13708433C8582121833B02F0F8FA62
:10199C00D5E74248FFF754FDD1E74149414802F0F1
:1019AC008BF8414A414993680B4004210B439360E7
:1019BC00C5E78024364D002300220C21285902F063
:1019CC00DFFA002300220E21285902F0D9FAB6E7DB
:1019DC0084232F4AD0583333FF33C25C023A131C92
:1019EC00642A49DC19B201AA0A2913DB13702121DC
:1019FC00012302F0C5FAA2E78423254AD0583333D9
:101A0C00FF33C25C0232131C642A00DD642301AA7A
:101A1C00092BEBDC0A23E9E780222549D20348692C
:101A2C00030413404022824313438B6187E78423D2
:101A3C00174A1F21D0580023002202F0A1FA7EE79A
:101A4C000223134A01937E33D05807217C3B01AA11
:101A5C0002F096FA73E717491748FFF7F1FC6EE7A7
:101A6C00882316490A4A0F485431D45802F024F8F6
:101A7C000022134BE25462E76423B3E7114802F0EF
:101A8C001BF8A5627AE7C046984F0008D8580008A2
:101A9C000C01002000040050B45800086C580008D9
:101AAC00BC5100086056000800240140E8FFFF7F8D
:101ABC000008005044560008C85800083C52000862
:101ACC00D9140000A0580008F0B5DE4657464E4623
:101ADC004546E0B583B0060002AF08000C0002F0EA
:101AEC00F1F905002000012D4BD002F0EFF98046F2
:101AFC00200002F0E3F98246032D00D180E02000A3
:101B0C0002F0ECF98146042D10D0280002F038F9CF
:101B1C004B46010042464E4801F0CEFFBD4601B097
:101B2C00F0BCBB46B246A946A046F0BD200002F070
:101B3C00C5F98146200002F0D7F90500200002F01B
:101B4C00CDF94A460300002A44D1022802D12A7852
:101B5C002F2A79D01A0069460C32D208D2008A1A80
:101B6C00EB46954602AA91465C1D21004846394A2F
:101B7C00009502F0FBFC002801DD84425AD8DD46BA
:101B8C002DE002F0A7F972B6BFF34F8FBFF36F8F42
:101B9C00314C2500C4352B78FF2B44D021008020FC
:101BAC005A1CC431D2B20A702C49C0054D6E406A21
:101BBC004866854202D9886E01308866002A14D0A6
:101BCC00C4342370002BA9D1BFF34F8FBFF36F8F99
:101BDC0062B6A3E72A001721306802F0D1F9524609
:101BEC0041463000FFF7BEF898E71D4A1D491E48D4
:101BFC0001F072FF2300C4331B78013BDBB2DFE73B
:101C0C0041461A4801F058FF524641463000FFF752
:101C1C00A9F851464B1E994100220023306815311A
:101C2C0002F0AEF97AE7124A12490F4801F054FF5C
:101C3C002B78B3E78822094983B288584A46002199
:101C4C00FFF7FCF8DD46CAE76878FFF769FEC6E7E0
:101C5C001C590008105900088C0000200C010020B1
:101C6C00005600089E020000AC540008F058000812
:101C7C00BC5500089702000070B5204D0400435D70
:101C8C00002B0ED10A2905D0C9B2FFF71DF8032885
:101C9C0018D070BD01220339FFF764F80123635596
:101CAC00F7E7C9B2FFF710F80028F2D0144BE5188B
:101CBC00280002F01BF9002813D029002000FFF7A0
:101CCC0003FFE6E70E4BE518280002F00FF9002899
:101CDC000DD029002000FFF7F7FE0122074BE2543C
:101CEC00D7E7084908486C3101F0E6FED1E7054911
:101CFC0005486C3101F0E0FEEFE7C046D914000056
:101D0C00CC1200003C5200084C590008112110B5AF
:101D1C000E4A0F48136A8B43136280220D4B9200BC
:101D2C009A62DA3AFF3A9A610B4B0C495A6801F005
:101D3C00C3FE0B4C012321000A481031237401F01F
:101D4C00BBFE237C002BFCD110BDC046002C0140F7
:101D5C005C5900080004005000ED00E0BC52000883
:101D6C008C0100206C590008024A536901335361FD
:101D7C007047C0468C01002010B5EFF30582034973
:101D8C000348143101F098FE10BDC046BC52000847
:101D9C0034540008012210B5144B19690A421ED0A4
:101DAC000620196891431960D9688143D960196973
:101DBC0001308143196140210D4B99620D4B1A3949
:101DCC009A6101329A6102329A611C329A619423AF
:101DDC00094AD0580023002202F0D2F810BD07495E
:101DEC001A692031064801F067FEF7E7002C014024
:101DFC0000080050000400508C000020BC52000869
:101E0C00A4590008022210B5274BD9680A4202D007
:101E1C0019690A423DD125490422234BD868024254
:101E2C0002D0186902420DD10B00CE331A881E4B1A
:101E3C001B6B01339A4213D01B4B1D491A690A4282
:101E4C001AD110BD1869904318610B00CE331A8853
:101E5C00013292B21A80144B1B6B01339A42EBD1B4
:101E6C0094230022C8580023252102F089F80E4B38
:101E7C000F491A690A42E4D01B690E48194001F057
:101E8C001BFEEFF305820C490C48143101F014FED3
:101E9C00D7E719699143196104490A00CE321388B6
:101EAC0001331380B8E7C046002C01408C000020A1
:101EBC00E0FF0C00A4590008BC5200083454000880
:101ECC00F8B580230222DB0519690A420FD10121E2
:101EDC001A69114203D01A698A431A61F8BDEFF3EB
:101EEC0005822A492A48143101F0E6FDF6E7196902
:101EFC00284C914319618023E66FE75872B6BFF303
:101F0C004F8FBFF36F8F2500C4352B78FF2B36D046
:101F1C0021005A1CC431D2B20A7080211E4DC90551
:101F2C00686E496A6966884202D9A96E0131A96650
:101F3C00002A19D02200C4321370002B04D1BFF335
:101F4C004F8FBFF36F8F62B6AB6E6A6E99079208B4
:101F5C000A439B083800B04780228421D205536B7A
:101F6C0061585B185363B9E70C4A0D490D4801F0F1
:101F7C00B3FD2300C4331B78013BDBB2DAE70A4A1A
:101F8C000A49084801F0A8FD2B78C1E7BC520008AB
:101F9C00345400088C0000200C010020005600086E
:101FAC009E020000AC540008BC55000897020000CB
:101FBC0070B50C4C2500C4352B78002B0BD0013B95
:101FCC00DBB2C4342370002B04D1BFF34F8FBFF3AB
:101FDC006F8F62B670BD044A0449054801F07CFD60
:101FEC002B78ECE78C000020005600089E020000C5
:101FFC00AC54000870B572B6BFF34F8FBFF36F8F40
:10200C00084C2500C4352B78FF2B03D00133C43486
:10201C00237070BD044A0549054801F05DFD2B781D
:10202C00F4E7C0468C000020BC5500089702000065
:10203C00AC540008102210B50E4BD9680A4211D1CD
:10204C0019690A4207D1EFF305820B490B48143189
:10205C0001F032FD10BD0A4800211A61883001F0F0
:10206C0057FDF7E706480121DA60883001F050FD92
:10207C00F0E7C04600180240BC5200083454000877
:10208C008C00002010B5EFF305820349034814318E
:10209C0001F012FD10BDC046BC52000834540008BB
:1020AC00102210B51C4B19680A421AD1012219686A
:1020BC000A4211D1802219689201114222D10422C4
:1020CC0019680A4223D1082219680A420ED01A60F4
:1020DC00124801F0F1FC03E011481A6001F0ECFC2D
:1020EC0010BD1A600F4801F0E7FCF9E719680E48BB
:1020FC0001F0E2FCEFF305820C490D48143101F0BC
:10210C00DBFCEDE71A600B4801F0D6FCE8E71A603F
:10211C00094801F0D1FCE3E700240140F459000820
:10212C00C0590008B0590008005A0008BC520008F9
:10213C0034540008CC590008E8590008022310B5A3
:10214C00134C2268134218D108232268134208D179
:10215C00104922681048403101F0AEFC0423636042
:10216C0010BD0C49636040310C4801F0A5FC012105
:10217C000B4A13680B431360F2E76360094B94211D
:10218C001A005858C6320623803901F0F9FEE7E7E9
:10219C0000000240BC5200081C5A0008105A0008EB
:1021AC00080002408C00002010B50E4BDA69920634
:1021BC0012D4DB691B0607D5B4220B4B0B4998587C
:1021CC00043A9B58984710BDEFF30582084909481B
:1021DC00143101F071FCF6E70348596A983001F0AC
:1021EC0097FCF0E7004400408C000020284400409D
:1021FC00BC5200083454000870B572B6BFF34F8F50
:10220C00BFF36F8F1C4C2500C4352B78FF2B2CD0C3
:10221C0021005A1CC431D2B20A708021174DC90555
:10222C00686E496A6966884202D9A96E0131A9664D
:10223C00002A0FD0C4342370002B04D1BFF34F8F6E
:10224C00BFF36F8F62B6A96E686E8B078008184358
:10225C00890870BD0A4A0B490B4801F03DFC23006C
:10226C00C4331B78013BDBB2E4E7084A0849064853
:10227C0001F032FC2B78CBE78C0000200C01002005
:10228C00005600089E020000AC540008BC55000823
:10229C00970200007047C04610B50B00EFF3108496
:1022AC00012181F310881900FEF75CFA84F3108881
:1022BC0010BDC04610B582B0EFF31084012181F33C
:1022CC0010886B460122D91D0020FEF74BFA84F3CF
:1022DC001088012803D16B46D87902B010BD0120BB
:1022EC004042FAE710B5FEF7E7F910BDF0B5DE464F
:1022FC004E4657464546E0B59BB00AAB0593402386
:10230C00069300230793089301330C0091469B46D8
:10231C000290099005E005A8FEF712FB089800282A
:10232C0059DB2178013400295CD02529F3D1220016
:10233C001378002602250820140021392D2B0CD0EF
:10234C002D2B0ED8232B11D02B2B00D05FE10E435D
:10235C000132137814002D2BF2D15B4601321E434F
:10236C00F7E7302B05D12E430132F2E70643013259
:10237C00EFE71A00303A0025092A0DD81A00AB00F5
:10238C005B1901345B009B182278303B1D00130055
:10239C00303B092BF3D913002E2B00D1D8E00027AA
:1023AC002378042101E0637801341A008A43682AF7
:1023BC00F9D0252B07D0583BDBB2202B07D8954AF8
:1023CC009B00D3589F46252105A8FEF7B9FA08981B
:1023DC0001340028A5DA1BB0F0BCBB46B246A946B6
:1023EC00A046F0BD08980028F5DD079C002C00D015
:1023FC00C6E00019EFE74B4649461B6805A81A1DB5
:10240C000A60196810223B0001960095FEF7D0FA7D
:10241C0001340898DDE74B4649461B6805A81A1D90
:10242C000A6019680A223B0001960095FEF7C0FA73
:10243C0001340898CDE74B4649461B681A1D0A60C3
:10244C001D6805E005A8FEF77BFA08980028BFDB9D
:10245C00297801350029F5D10898B9E74B4649464A
:10246C001B6805A81A1D0A6019680023019308331C
:10247C0010220093FEF79CFA01340898A9E74B460A
:10248C0049461B681A1D0A601B68DA1798180393D3
:10249C00012350409A4609280DDDAA46A0461D008E
:1024AC000A210400013500F081F9632CF8DC2B00C3
:1024BC00444655469A46B846574575D3002D36D0F6
:1024CC00039B002B74DB730772D4B30701D5002F69
:1024DC002DD05B4633422AD1002D28D04346A0464E
:1024EC001C00AC4220D205A82021FEF729FA08983E
:1024FC00013D002800DA87E0002DF2D1230044468C
:10250C009846039B002B58DB730761D4032333409D
:10251C00022B62D005A83B000A2203990196009574
:10252C00FEF746FA089853E7230044469846089865
:10253C000028E6DA01344CE74B4649461B6805A8EF
:10254C001A1D0A601978FEF7FBF90134089840E768
:10255C006378621C1900303914000027092900D94E
:10256C001FE71A00BB00DB1901345B009B182278B3
:10257C00303B1F001300303B092BF3D9130010E73D
:10258C00254B1B78002B15D0EFF31085012181F31F
:10259C001088220002980AA9FEF758F985F31088D2
:1025AC000898079C001916E7D046002DBFD087E786
:1025BC00013D8AE7FEF780F8E6E75B422D2105A88E
:1025CC000393FEF7BDF9089800289FDA013400E761
:1025DC002B2105A8FEF7B4F9F5E7002F9AD10AE0F4
:1025EC00A8450CD205A83021FEF7AAF90898013DA0
:1025FC00002800DAECE6002DF2D100258AE70898D5
:10260C00002887DA0134E4E644460134E1E600258B
:10261C00C5E6C046B8500008A42100200023C25CC7
:10262C000133002AFBD1581E7047000003B47146D9
:10263C00490840004900095E49008E4403BC7047BC
:10264C00002243088B4274D303098B425FD3030AE5
:10265C008B4244D3030B8B4228D3030C8B420DD3F8
:10266C00FF22090212BA030C8B4202D31212090286
:10267C0065D0030B8B4219D300E0090AC30B8B42C4
:10268C0001D3CB03C01A5241830B8B4201D38B0372
:10269C00C01A5241430B8B4201D34B03C01A524117
:1026AC00030B8B4201D30B03C01A5241C30A8B425A
:1026BC0001D3CB02C01A5241830A8B4201D38B0245
:1026CC00C01A5241430A8B4201D34B02C01A5241E9
:1026DC00030A8B4201D30B02C01A5241CDD2C3095B
:1026EC008B4201D3CB01C01A524183098B4201D3D7
:1026FC008B01C01A524143098B4201D34B01C01AC2
:10270C00524103098B4201D30B01C01A5241C30839
:10271C008B4201D3CB00C01A524183088B4201D3A8
:10272C008B00C01A524143088B4201D34B00C01A94
:10273C005241411A00D20146524110467047FFE700
:10274C0001B5002000F006F802BDC0460029F7D004
:10275C0076E770477047C04610B5002903D100F0EA
:10276C0007F8203002E0080000F002F810BDC04667
:10277C001C2101231B04984201D3000C10391B0AA5
:10278C00984201D3000A08391B09984201D3000969
:10279C00043902A2105C40187047C04604030202C0
:1027AC0001010101000000000000000003460B4382
:1027BC007FD4002243088B4274D303098B425FD32E
:1027CC00030A8B4244D3030B8B4228D3030C8B425A
:1027DC000DD3FF22090212BA030C8B4202D3121240
:1027EC00090265D0030B8B4219D300E0090AC30B15
:1027FC008B4201D3CB03C01A5241830B8B4201D3C2
:10280C008B03C01A5241430B8B4201D34B03C01AAA
:10281C005241030B8B4201D30B03C01A5241C30A22
:10282C008B4201D3CB02C01A5241830A8B4201D393
:10283C008B02C01A5241430A8B4201D34B02C01A7D
:10284C005241030A8B4201D30B02C01A5241CDD222
:10285C00C3098B4201D3CB01C01A524183098B426D
:10286C0001D38B01C01A524143098B4201D34B0156
:10287C00C01A524103098B4201D30B01C01A5241B9
:10288C00C3088B4201D3CB00C01A524183088B4240
:10289C0001D38B00C01A524143088B4201D34B0029
:1028AC00C01A5241411A00D201465241104670479B
:1028BC005DE0CA0F00D04942031000D340425340A0
:1028CC0000229C4603098B422DD3030A8B4212D360
:1028DC00FC22890112BA030A8B420CD38901921192
:1028EC008B4208D3890192118B4204D389013AD0CF
:1028FC00921100E08909C3098B4201D3CB01C01AA4
:10290C00524183098B4201D38B01C01A52414309B6
:10291C008B4201D34B01C01A524103098B4201D3A4
:10292C000B01C01A5241C3088B4201D3CB00C01A11
:10293C00524183088B4201D38B00C01A5241D9D229
:10294C0043088B4201D34B00C01A5241411A00D2AA
:10295C000146634652415B10104601D34042002BA6
:10296C0000D54942704763465B1000D3404201B525
:10297C000020FFF7EFFE02BD0029F8D016E77047E4
:10298C00002B11D1002A0FD1002900D1002802D030
:10299C000021C943080007B4024802A14018029064
:1029AC0003BDC046B1FDFFFF03B4684601B50298F4
:1029BC0000F006F8019B9E4602B00CBC7047C04666
:1029CC00F0B557464E464546DE46E0B504000D00D0
:1029DC009246994683B08B4230D82DD0494650460A
:1029EC00FFF7BAFE290006002000FFF7B5FE331AE8
:1029FC009846203B9B4633D45A4653469340424616
:102A0C001F00534693401E00AF423AD8AF4200D14C
:102A1C0078E05B46A41BBD41002B00DA75E0002278
:102A2C0000230092019301235A4693400193012302
:102A3C0042469340009328E08242CFD900220023E3
:102A4C00009201930C9B002B01D01C605D600098E0
:102A5C00019903B0F0BCBB46B246A946A046F0BDF6
:102A6C00424620239B1A5246DA40414613004A46FE
:102A7C008A40170042461F43534693401E00AF4204
:102A8C00C4D900220023009201934346002BD9D0D5
:102A9C00FB0772081A4346467B080EE0AB4201D195
:102AAC00A2420CD8A41A9D41012024196D41002189
:102ABC00013E24184D41002E06D0AB42EED9013E0A
:102ACC0024196D41002EF8D1009801995B4600192C
:102ADC006941002B24DB2B005A464446D3402A0084
:102AEC00E2401C005B461500002B2ADB26009E40B2
:102AFC00330026004746BE403200801A99410090B0
:102B0C0001919FE7A342BCD883E7424620230021D2
:102B1C009B1A0022009101920122DA40019286E771
:102B2C00424620239B1A2A0046469A402300F34033
:102B3C00444613432A00E2401C005B461500002B60
:102B4C00D4DA42462F002023260097409B1ADE4001
:102B5C003B003343CDE7C0460D488546FFF79AFB53
:102B6C000C480D490D4A002302E0D458C4500433DC
:102B7C00C4188C42F9D30A4A0A4C002301E01360B2
:102B8C000432A242FBD301F0A5FB00F00FF8FEE7E4
:102B9C0000900020000000206C0000203C5C00082D
:102BAC007000002084220020FEE70000F0B5DE4615
:102BBC0057464E464546E0B5B9B000F06FFF904819
:102BCC0000F07AFF07228F4B00215A63A0240D32AC
:102BDC0015A801F0CEFB0223E405189320000E3358
:102BEC0014A91493FDF7EEFA149A236913409A4230
:102BFC0006D1854B1B6883F30888844B1B68984768
:102C0C000323A0269A4615930023F6059846300018
:102C1C00189314A943331493FDF7D4FA20233000EE
:102C2C0014A914938025FDF7CDFA43460127784C5F
:102C3C001793AD000233200015971693149514A921
:102C4C00A5629946FDF7BEFA40237248149314A965
:102C5C008361FDF7B7FA272320001797149314A963
:102C6C00A361FDF7AFFA4B46159319934346C02465
:102C7C0017935346A400169314943000B46214A90D
:102C8C00FDF7A0FA0C23300014A919971493FDF743
:102C9C0099FA80215B4B09065A6D0120920092082B
:102CAC000A435A655C4ADA635C4A1A649A6B1743A6
:102CBC009F635B4B1A6814431C605A4CFDF708FB6E
:102CCC002368594A594913401D432560584D2B68B8
:102CDC005800C0184000FFF7B3FC80226369D20093
:102CEC000130134202D105E0002803D0636901389A
:102CFC001342F9D180214B4A490013680B431360EE
:102D0C0013680B42FCD002213E4A4A4BD365D36D6B
:102D1C001942FCD0382391680B40D168102B01D19B
:102D2C0000F03AFC002B01D000F03AFC1368424949
:102D3C00536819408023DB010B43536013683F49F0
:102D4C000B40136013683E4A9B045B0FDA402A6009
:102D5C006868FDF7BDFA3B4A002832D13820294972
:102D6C008B680340102B01D100F0C8FD0B6836486E
:102D7C00034080200B605469800403E053691B1BE3
:102D8C00022B1ED80B680342F8D1CB682F48184091
:102D9C002F4B0343CB60802308685B0403430B6019
:102DAC008023C8685B050343CB60802154691548B8
:102DBC00890403E053691B1B022B02D803680B42E6
:102DCC00F8D0062316490868184201D100F0DCFC43
:102DDC00E0230C49DB01886803438B608B681D483A
:102DEC0003408B600B689B0167D507208B681A4CDE
:102DFC0083431800022303438B603820566931E06B
:102E0C002C5A0008001002400000FF1F0400FF1F96
:102E1C0000040050000800500300023001081200AA
:102E2C000020024000700040FFF9FFFF40420F00FD
:102E3C000000002009800000FF80FFFFFFC7FFFF9C
:102E4C000024F4008C010020FFFFFFFE8C80C111D8
:102E5C0032301646FFF0FFFF8813000053699B1BAE
:102E6C00A3422AD88B680340102BF7D10720F549D1
:102E7C000B680340022B01D900F0E6FCF24BF3493E
:102E8C009A680A409A6038229968114201D000F081
:102E9C00C4FC1B68EE489B045B0FD840EA4BED4A20
:102EAC009B681B051B0F9B00D3181F22DB6D134067
:102EBC00D84028606868FDF70BFAE74AE7491368C1
:102ECC00E7480B401360E74B2A6819680905090DA0
:102EDC0000F0F2FD84201022E34B19589143195055
:102EEC00043819581143195019681143196059685D
:102EFC000A435A60DD4B1A68D20307D41A68DC49BE
:102F0C000A401A60DA6BDB490A40DA638023D74A3D
:102F1C005B02116801240B4313603F22D649092040
:102F2C000B6893431A00052313430B60D34BD4490E
:102F3C001A681140D34A0A43D3491A609960032195
:102F4C00D24AC632DA605A68120C12040A435A602A
:102F5C00CF4A5460022219680A431A600822196881
:102F6C000A431A601A68210022431A60FDF7C4F85C
:102F7C00C84B9A68224207D1DA68C7490A40DA601E
:102F8C001A69920092081A618021C24B8903DA688F
:102F9C000A43DA608022920119681142FCD00721A1
:102FAC001A605A698A43110002220A4370215A613D
:102FBC005A698A43110050220A430F215A619A6AB6
:102FCC008A439A625A69A5490A405A619A6AF2314F
:102FDC00FF318A43110010220A4380219A625A69F8
:102FEC0089000A435A619A6AAC491140C022D20046
:102FFC000A4380219A625A69C9010A435A619A6844
:10300C00A7491140802252050A439A60A5492868B5
:10301C00FFF716FB142343430793079B002B05D0A4
:10302C00079B013B0793079B002BF9D1994B9E49BA
:10303C009A681140802212060A439A609A68002A04
:10304C00FCDB802212011A6020230793079B002BC4
:10305C0005D0079B013B0793079B002BF9D18023DD
:10306C008C4C9B05226903211343236111230C20F3
:10307C006360FDF741F80121E368E368A3680B4244
:10308C0000D159E3894800F017FD01218846814B96
:10309C0014A81A69D0248A431A611A6984496400F5
:1030AC000A401A619A6880490A4041460A439A606C
:1030BC004246764B6332C533197018A900F046FFAF
:1030CC00E220400001F02AF9C82201005200103120
:1030DC00060000F03BFFDE20764B4000335131966A
:1030EC0001F01CF9C822010052001031060000F05A
:1030FC002DFF0022002338213492359306AA882311
:10310C00521841463296D1546B4A6C4811001C310E
:10311C00914600F0D1FC28686949FFF791FA8023A9
:10312C00684ADB05013898625A63102241469A615D
:10313C001A6A56480A431A62DA6849180A43DA606E
:10314C00614A14AEC267802293460200584616505C
:10315C0084229246FA2256464C481201825103228E
:10316C00586902435A6142460F201A60FCF7C4FFAB
:10317C00564801F0D3F8564A01009446554A61442A
:10318C0094469622060002909200604400F0CCFC1B
:10319C00FF22514BD221F254329B504A49001A5112
:1031AC004A4638325A50DA208122002492004000DC
:1031BC001A524E3A9C5402329C54344F253AFF3AE0
:1031CC00BB5028683749FFF73BFA4946444F013852
:1031DC00B862BA6A7831434800F06EFC424B424602
:1031EC00BB61112321003B620D207A60FCF784FF48
:1031FC0021000E20FCF780FF524688233A6042469D
:10320C001B02FA607B64319F329A384990463A002F
:10321C00AD32FF321000172201F0E4F9D222414600
:10322C00D4235200B9505946314A5B00FE5014ABBE
:10323C005350DA2088235146329FD65057504000C5
:10324C003B5C57E00020024000100240FF8FFFFF64
:10325C000024F400BC52000800700040FFFEFFFF89
:10326C00405A000800580140001802400074004009
:10327C00FFFF03FFFFFFF8FF0008024008000240B9
:10328C000F80FFFFA0250000402401408C0000208F
:10329C000000024000240140C73FFFFFFFF0FFFF8A
:1032AC00E8FFFF6F40420F00E8FFFF7F605A000805
:1032BC00FFFFFFDF010B00083C53000860560008BD
:1032CC0000093D00801A060019040008DC140000F7
:1032DC007410000064100000D5140000E10A00080E
:1032EC00002C01407C5A000868680000885A0008CD
:1032FC000C010020A3422CD014229246BE4B9946BE
:10330C00BE4B9B46BE4B9A44D2235B00FB58260116
:10331C009C46664431684846019300F0CDFB7368C7
:10332C003689002E0ED0002204E0013292B2023314
:10333C00964207D0197858780842F6D0514658462C
:10334C0000F0BAFBDA235B000134FB5CE4B2A3426D
:10335C00DAD8B623D222FF33FB5C5200BA581B01D9
:10336C00D318B822D4213C00FF32BA5C4900A934EE
:10337C007B50FF349989A27100222181A280DB7AD3
:10338C00934200D115E200239E4AE371A372A1334C
:10339C00FF33FA5000F07EFE802601009A4C380074
:1033AC00FEF7A4F90A213800FCF7D8FF6369B600D0
:1033BC00334203D1954800F07FFBA66114AA9449CF
:1033CC0008A800F09FFB934B883316C816C3032143
:1033DC000720FCF791FED023319E8F4A5B00F25000
:1033EC0000F058FE01003000FDF718FFD4235B00FD
:1033FC00F4588A4BE35C7F2B00D8BBE1884B0493D9
:10340C00884B05930023884A2660A354874AA3520D
:10341C00874A884B516D0B4353658B238649CB6090
:10342C000A68864B1343C52294460B60794B634460
:10343C0098461B78012B00D98FE102211C20FCF748
:10344C005BFE434641461B785A1C0A70734A5BB2BA
:10345C009046A354002B00DA85E10BAB2200180038
:10346C0077499A4600F04EFB0EAB220018007549C6
:10347C0000F048FB11AB180022007349994600F08C
:10348C0041FB4346E356012B00D1F1E1634BE2567D
:10349C006E4B1F0003936E4B5837180039009A4639
:1034AC0000F00AFB5D4BE2569846012A00D10CE273
:1034BC003900504600F000FB4346E256012A00D189
:1034CC0003E23900504600F0F7FAD42361495B005F
:1034DC0054316148F45800F0EFFA00225F4B604918
:1034EC00E2546048303100F0E7FA5F4B5F4C9B468A
:1034FC005F4F8826382206AB9B189B5D002B00D1B2
:10350C00BEE0329B21001A001800019300F07CFDF4
:10351C000028EFD1319B39001A001800019300F0FC
:10352C0073FD0028E6D114AA5946100000F06CFD7A
:10353C000028DFD180460121484600F0D7FA002848
:10354C0000D057E172B6BFF34F8FBFF36F8F314B83
:10355C00C4331B78FF2B00D1BDE12E4A3298C43204
:10356C0013780133137000F007FD002800D026E11A
:10357C00284BC4331B78002B00D148E1254AC432B8
:10358C001378013BDBB21370002BB2D1BFF34F8F1A
:10359C00BFF36F8F62B6ACE70D3B1940022920D008
:1035AC002349344A0B68802013400B6080230A683F
:1035BC005B001343304A0B605469C00005E053694B
:1035CC001B1B022B01D9FFF7FCFB0B680342F6D047
:1035DC004B682A4818408023DB0103434B60FFF7FC
:1035EC00BDFB13682549536819408023DB010B434D
:1035FC005360FFF7ADFBC046985A0008A85A000864
:10360C00BC530008F916000800040050B458000818
:10361C00010400088C00002029120008D5140000B9
:10362C00C05A0008AC550008D4140000D81400008F
:10363C000010024008000C00004400400100002073
:10364C00851C000839030008510300083C51000890
:10365C00E45500083C52000860560008D9140000DC
:10366C00BC510008085B0008951400089D0B00086D
:10367C00450B0008FFC7FFFF8C010020FF80FFFFF8
:10368C00D025319C6D00665900F012FD0100200020
:10369C00B047DC4BDC48635100F00EFAD4235B00DE
:1036AC00E458DA4BE256012A04D0039950465831BB
:1036BC0000F002FAFF228026D44BD54DE2546B6900
:1036CC00B600329C334203D0D24800F0F5F9AE621A
:1036DC00D0256D00665900F0EBFC01002000B047CE
:1036EC00CD4B029A6351C94BD35C7F2B05D89D21DE
:1036FC00049A0598490000F0EFF9029800F018FEC2
:10370C00329800F015FE319800F012FE72B6C348E4
:10371C0000F0D2F900F0F4F91121C14A136A8B437D
:10372C0013628022BA4B92009A62DA3AFF3A9A619B
:10373C00BC4B19329A62FEE7E368BB4AE3681A4055
:10374C00BA4B1343E360E3689B0200D49DE4F0237F
:10375C00A26A1B021343A36297E4B54800F0ACF9CC
:10376C00FF22AA4BE25411AB9946B24B0393B24BD6
:10377C009A46AAE68921B14BB14A18004900049235
:10378C00059300F0A9F93DE6072002230C68844359
:10379C0023430B605669AB4C05E053699B1BA3425A
:1037AC0001D9FFF78AFB0B680340022BF5D1FFF719
:1037BC000FFB4821A44AA54800F08EF9E3E53198A7
:1037CC0000F0DAFB002800D1D2E614A800F0D4FBFC
:1037DC00002800D1CCE680229D4E92007369904661
:1037EC00134200D0E8E004219A4A13698B43136119
:1037FC0030BFBDE64B461E78974B6C228C33197844
:10380C0000296ED12F2E7CD16B3A1A709AE6934A0E
:10381C009349944800F060F9B0E699681140082982
:10382C0000D1DEE099681140102900D189E0996837
:10383C001140202900D1D7E09B681A40182A00D1EA
:10384C00D6E00020FFF72AFB02230C6884432343B5
:10385C000B6056697B4C05E053699B1BA34201D955
:10386C00FFF72BFB0B680340022BF5D1FFF706FB90
:10387C0052467D4B983383CA83C37B4BA43383CA94
:10388C0083C3042379490A6813430B604346E35608
:10389C00012B00D0FAE5744AB333D4507249744A00
:1038AC00043BCA500B004A46B83383CA83C308236F
:1038BC006E490A6813430B604346E2565D4B039313
:1038CC005D4B9A46012A00D0E2E52023674A116835
:1038DC000B431360F9E5674A6749624800F0FCF84E
:1038EC003BE60A2E44D0654800F0E6F83000FEF7BF
:1038FC0017F80022584B8C331A7023E6CB68FFF76D
:10390C0060FA55488D3003788046534884469C4471
:10391C00604681540A2E0AD041460133DBB20B704B
:10392C008654142B00D00DE6544800F0C5F84A49D3
:10393C0053486C3100F0C0F80022474B8D331A709D
:10394C0000E6DA68D968D243D8684906490F4004C2
:10395C000131440E92074FD04A48FEF771FE604386
:10396C00494BD968490F0131FEF76AFEFFF796FA09
:10397C003948394E84462F208D3631784B1CDBB2BA
:10398C00614433708854142B08D13C4800F094F8EF
:10399C003E493B4800F090F8434633700022904675
:1039AC002D4E2D498D3633786C31CA54344800F085
:1039BC0083F8434633709CE706202B683449584300
:1039CC00FEF73EFE3368334A01301340336003E0A8
:1039DC00002800D1CCE50138424673691342F7D177
:1039EC0001E72D48FFF75AFA80200002FFF756FA3C
:1039FC00FA20C001FFF752FA2748FEF721FE604378
:103A0C00AEE7C046010B00082C5B0008D514000083
:103A1C0000040050A0580008E10A00083C5B0008B4
:103A2C00002C0140000800503CC2FEFF03100000B7
:103A3C00D45A00083C510008E4550008AC55000865
:103A4C00C05A00088813000098570008B0570008A7
:103A5C000070004000ED00E00C0100200056000852
:103A6C009E020000AC5400088C0000200044004072
:103A7C00F50B0008BC55000897020000405B0008DD
:103A8C001C5B00080024F4000010024078010020A8
:103A9C0040420F00FFBFFFFF00127A0010B5FEF787
:103AAC0021FC10BD00B583B0019101AA01000020DA
:103ABC00FEF71CFC03B000BD0FB400B583B004AB23
:103ACC0002CB01AA002000930193FEF70FFC03B078
:103ADC0008BC04B01847C046130010B50A0001001A
:103AEC000148FFF7E9FFFEE76C5B00080A0010B520
:103AFC0001000020FEF7D0FBC343DB17184010BDBC
:103B0C007047C04600238360426001607047C04626
:103B1C0010B503680400002B04D040689847A368D4
:103B2C000133A36010BDC04601604B1E99410023B8
:103B3C004942114041608360C360704703009B6839
:103B4C00C068C01A43425841C0B270470200C368F3
:103B5C00581E9368C01A536800D5C0187047C046E9
:103B6C0003008268C1685B68501A00D5C0187047A2
:103B7C00F0B54646D6464F460500C0B5EB688068A2
:103B8C00013B0E0014001B1A1ED493421AD31700CB
:103B9C00002F05D12000E0BCBA46B146A846F0BDC6
:103BAC00AB6828689C463A006044310000F0D8FBB2
:103BBC00AB689C466B686744AF609F42EAD10023B8
:103BCC00AB60E7E70020E6E76A6890464344A3420F
:103BDC00F8D30319994627009A42D9D8131A9A4652
:103BEC002B6852469C46604400F0BAFB00234246C8
:103BFC00AB604B4656449F1ACAE7C046F8B54746D9
:103C0C00CE4680B5C6688368050088469C1B0BD4DD
:103C1C00944207D82700002C20D13800C0BCB946EC
:103C2C00B046F8BD1400F5E7436899464C449442FD
:103C3C0000D91400331927009945ECD84B469F1B2B
:103C4C002B683A009919404600F08AFB4B46F61A4D
:103C5C00A419B84400263F19002CDED02968220094
:103C6C004046891900F07CFBD7E7C046F0B54F46BB
:103C7C004646D646C0B50F008368C16806001400DE
:103C8C005B1A1ED493421AD31500002D05D12000C7
:103C9C00E0BCBA46B146A846F0BDF36831689C4614
:103CAC002A006144380000F05BFBF3689C467368A3
:103CBC006544F5609D42EAD10023F360E7E70020FC
:103CCC00E6E7426890464344A342F8D30B19994661
:103CDC0025009A42D9D8531A9A46036852469C46F4
:103CEC003800614400F03CFB00234246F3604B4635
:103CFC0057449D1AC9E7C04670B501000400861DE3
:103D0C001D4D1E4823781B025840082304E0013B3C
:103D1C00DBB280B2002B09D002B24000002AF6DAE6
:103D2C00013B6840DBB280B2002BF5D10134A642D6
:103D3C00E8D14B888A781D0A120215431BD0083132
:103D4C004D190D4CADB20B781B025840082304E002
:103D5C00013BDBB280B2002B09D002B24000002A3A
:103D6C00F6DA013B6040DBB280B2002BF5D10131B9
:103D7C008BB2AB42E7D170BD21100000FFFF0000F9
:103D8C00052804D883001B180248C0187047024845
:103D9C00FCE7C046905B00088C5B000870B5040023
:103DAC0004A80078490000010843012101430720C1
:103DBC0018400023D20002436380237120000023AB
:103DCC000725C9B221706270661D082201304B4074
:103DDC0004E0013AD2B2DBB2002A09D059B25B003E
:103DEC000029F6DA013A6B40D2B2DBB2002AF5D1E7
:103DFC00B04201D00178E8E763712000FFF77CFF47
:103E0C00030AE071A371200070BDC04670B50400B8
:103E1C0004A840C84900058820001B010B43D200B0
:103E2C0031002370627008302A0000F099FA2B0AD6
:103E3C00A3700023E570200007252371661D02780E
:103E4C005340082204E0013AD2B2DBB2002A09D076
:103E5C0059B25B000029F6DA013A6B40D2B2DBB200
:103E6C00002AF5D10130B042E9D163712000FFF78F
:103E7C0043FF030AE071A371200070BD70B50023ED
:103E8C0007244679451D02785340082204E0013A84
:103E9C00D2B2DBB2002A09D059B25B000029F6DAA3
:103EAC00013A6340D2B2DBB2002AF5D10130A8420C
:103EBC00E9D1F01A42425041C0B270BD0078800680
:103ECC00800F704700780007400F704740788006DD
:103EDC00400F70474378072018407047827843881A
:103EEC001202180A104370470830704710B50400CE
:103EFC00FFF702FFE388A1791B0A09020B43181A8A
:103F0C0042425041C0B210BDB0B500AF050000F048
:103F1C00BFF86A46C31DDB08DB00D31A9D460200BE
:103F2C00040069462800FFF769FE80B2844203D082
:103F3C000024BD462000B0BD684600F0D3F8040054
:103F4C002800FFF70DFE8442F2D8F2E770B50500A9
:103F5C000C001600002905D0320028002100FFF7C4
:103F6C00E3FD70BD3D21024A0248FFF7B5FDF3E7C2
:103F7C00B05B0008C05B000810B5FFF7DFFD10BD9B
:103F8C00F8B5DE4657464E464546E0B500AF1E0036
:103F9C0080468A46914600F07BF86B46C41DE408C7
:103FAC00E4001B1B9D460500801983B2320051466C
:103FBC0068469B4600F08AF8FEF71CF84046FFF76F
:103FCC00C5FD002483450DD9FDF7F2FF5B46E01AD1
:103FDC00BD4643425841C0B2F0BCBB46B246A946AE
:103FEC00A046F8BD2A0069464046FFF7C1FD4B4686
:103FFC0084B2002BE8D0320049464046FFF7B8FDAA
:10400C002418A4B2E0E7C046F8B54E464546DE4655
:10401C005746E0B500AF060089469046FFF774FF9F
:10402C000025041E07D1BD462800F0BCBB46B24695
:10403C00A946A046F8BD6A46C31DDB08DB00D31AAF
:10404C00EA469D46FDF7D6FF220069463000FFF791
:10405C000DFE0600B6B2EB46FDF7AAFF002E01D10D
:10406C00D546E0E7684600F03DF8844205D1594654
:10407C004046C8470125D546D5E72521024A0348C5
:10408C00FFF72AFDF3E7C046D85B0008C05B0008C9
:10409C000C20704710B5FEF7AFF802000B00034878
:1040AC000260436080235B02836010BD60220020AD
:1040BC0010B5FEF7A1F802000B0003480260436044
:1040CC0080239B02836010BD5022002070B5040039
:1040DC000E001500FEF790F8668120606160258166
:1040EC00200070BD00890C3080B27047807A704718
:1040FC00008970470C30704710B5042A26D012D8AE
:10410C00012A15D0022A1BD1052303700023441C5D
:10411C00C85CE0540133D8B29042F9D30220002A93
:10412C000AD180B210BD082A0AD107230370EDE72B
:10413C00042303700B784370013AD0B20230F0E7DD
:10414C0004230370002343700220EBE70623037063
:10415C00DCE7C046F0B5C6460E0000B5002917D006
:10416C00FF23050000240227984601CDFEF756FADE
:10417C0080B280459B415B420233C01801343F182A
:10418C00E4B2BFB2A642F0D1380080BCB846F0BD54
:10419C000227F9E7F8B5DE4657464E464546162344
:1041AC00E0B583460370002A38D0013AD2B29200AF
:1041BC0091460B1D0E000127994411E002220C239D
:1041CC0092462B7068700A3B020454444146120C10
:1041DC00E8183F19043600F0C3F8BFB2B14512D04D
:1041EC005B46DD19336818009846FEF717FA84B25F
:1041FC00FF2CE3D90D2303222B70230AAB709246BC
:10420C0003236870E0E7781C80B25A461823D35514
:10421C00F0BCBB46B246A946A046F8BD0220012719
:10422C00F3E7C046FB2203000C38104203D00020F9
:10423C00042B03D07047023188B2FBE7013188B2FE
:10424C00F8E7C046F8B5050016001C000D2909D882
:10425C000B291BD80439032916D83100DAB2FFF721
:10426C004BFFF8BD103901290ED8FF2B2AD810238B
:10427C004470037002270220220031002818E41930
:10428C0000F06EF8A0B2ECE70020EAE71000FEF7B1
:10429C00C5F984B2FF2C0FD90D232B70230AAB70F8
:1042AC0003270323687002043100120CE818E41988
:1042BC0000F056F8A0B2D4E70C2302272B706870DC
:1042CC000A3BF0E711230370230A44708370032721
:1042DC000320D1E770B500260C4D0D4C641BA410C7
:1042EC00A64209D1002600F023FD0A4D0A4C641B9E
:1042FC00A410A64205D170BDB300EB589847013607
:10430C00EEE7B300EB5898470136F2E7345C00084F
:10431C00345C0008345C0008385C000810B5034BB2
:10432C000100186800F09AF810BDC0460800002083
:10433C0010B5034B0100186800F024F810BDC046FE
:10434C000800002030B500240139A24201D1002020
:10435C0005E0035D01340D5DAB42F6D0581B30BD5A
:10436C00002310B59A4200D110BDCC5CC45401336B
:10437C00F8E703008218934200D17047197001339B
:10438C00F9E7000070B50500002910D00C1F236858
:10439C00002B00DAE418280000F070F91D4A1368AD
:1043AC00002B05D163601460280000F06FF970BD1C
:1043BC00A34208D9216860188342F3D118685B685E
:1043CC0041182160EEE71A005B68002B01D0A34274
:1043DC00F9D911685018A0420BD12068091850184F
:1043EC0011608342E0D118685B684118116053601A
:1043FC00DAE7A04202D90C232B60D5E721686018BC
:10440C00834203D118685B68411821606360546073
:10441C00CAE7C0467022002070B50F4E0D003168FF
:10442C000400002902D100F08FF830602900200030
:10443C0000F08AF8431C0AD00323C51C9D43A842F4
:10444C0007D0291A200000F07FF8431C01D1012568
:10445C006D42280070BDC04674220020F7B50322BF
:10446C00CB1C9343083306001F000C2B32D20C27B5
:10447C00B94231D8300000F001F9324D2B681C00E4
:10448C00002C2ED139003000FFF7C6FF0400431C6E
:10449C001ED12C682500002D4AD123682900E31871
:1044AC003000019300F050F8019B834243D1236804
:1044BC000337FF1A03239F4308370C2F00D20C2716
:1044CC0039003000FFF7A8FF431C34D02368DF19F4
:1044DC00276013E0002BCBDA0C2300253360280077
:1044EC00FEBD2268D11B20D40B2917D9E2192760F5
:1044FC00A34211D12A60636811605360300025001B
:10450C0000F0C4F807220B35231D9543EA1A9D428F
:10451C00E5D05B1BA350E2E75A60ECE76268A3426C
:10452C0001D12A60EAE75A60E8E723006468A7E74C
:10453C002C006D68AFE70C233000336000F0A6F858
:10454C00CDE7C04670220020002370B5064D040054
:10455C0008002B6000F0DEFB431C03D12B68002B02
:10456C0000D0236070BDC046782200200CB430B55A
:10457C00174B0C001D689DB0002908DA8B23012015
:10458C002B6040421DB030BC08BC02B018478223DF
:10459C006A469B009382002302900690994200D0B9
:1045AC004B1E0493079301236A465B42D382280077
:1045BC0021AB209A02A9019300F0D2F8431C01DA36
:1045CC008B232B60002CDDD00023029A1370D9E7CB
:1045DC000800002003000A7801311A700133002A08
:1045EC00F9D17047030030B51D00002A06D00C78B5
:1045FC00013A01332C700131002CF5D100219A18AD
:10460C00934200D130BD19700133F9E730B5140075
:10461C0005001A009BB0002C05DA8B2303600120E7
:10462C0040421BB030BD822368469B00838100232F
:10463C00009104919C4200D0631E029305930123C8
:10464C0069465B42CB8128001E9B00F089F8431C15
:10465C0001DA8B232B60002CE3D00023009A13701B
:10466C00DFE7000007B5009313000A0001000248C1
:10467C000068FFF7CBFF0EBD0800002010B5024804
:10468C0000F0F0FA10BDC0467C22002010B50248A4
:10469C0000F0E9FA10BDC0467C220020F0B58E680F
:1046AC0085B007000C00039201939E423CD89023E6
:1046BC008A89DB001A4234D00969236860695B1A65
:1046CC00029303234343DD0FED18019B0298013342
:1046DC001B186D10AB4200D91D00530532D52900B3
:1046EC003800FFF7BBFE061E09D10C233B604023AC
:1046FC000120A28940421343A38105B0F0BD029A68
:10470C002169FFF72DFEA389144A1A408023134315
:10471C00A381029B2661F61826606561019EED1A45
:10472C00A560019B9E4200D9019E3200039920682E
:10473C0000F0A5FAA36800209B1BA36023689E19B8
:10474C002660DAE72A00380000F0ACFA061EE0D149
:10475C0038002169FFF716FEC7E7C0467FFBFFFF55
:10476C00F0B5A1B003901D008B890F0016001B063D
:10477C0011D50B69002B0ED14021FFF76FFE38606D
:10478C003861002805D10C23039A0138136021B03D
:10479C00F0BD40237B61002308AC6361203363765A
:1047AC001033A376079535002B78002B01D0252BE1
:1047BC0047D1AB1B0593B5420CD03200390003989E
:1047CC00FFF76CFF431C00D1AEE06269059B944679
:1047DC00634463612B78002B00D1A5E001220023F8
:1047EC005242626004A9543252186E1C2360E3607A
:1047FC00A3601370A36505223178544800F034FA95
:10480C00751C00281FD12268D30604D5532304A994
:10481C005B1820211970130704D5532304A95B18C6
:10482C002B21197033782A2B16D0350000210A2041
:10483C00E3682A786E1C303A092A4ED9002911D126
:10484C0017E00135B0E7414B2268C01A01238340C1
:10485C0013432E002360CEE7079B191D1B6807919D
:10486C00002B01DB0B9304E05B42E3600223134358
:10487C0023602B782E2B0AD16B782A2B35D1079BF2
:10488C0002351A1D1B680792002B2BDB0993304E47
:10489C0003223000297800F0E7F9002806D04023E5
:1048AC00801B83402268013513432360297806223C
:1048BC0028486E1C217600F0D7F900283CD0264BF6
:1048CC00002B25D10722079B07339343083307930B
:1048DC006369049A9B18636165E7434335000121C2
:1048EC009B18A6E701235B42D0E700230A201A009D
:1048FC000135636029786E1C3039092903D9002BE6
:10490C00C5D00992C3E74243350001235218F1E7A1
:10491C0007AB00933A002100104B039800E000BF56
:10492C000490049B0133D3D1BB890D985B0600D452
:10493C002DE7012040422AE707AB00933A00210003
:10494C00064B039800F07CF8EAE7C046F85B0008D9
:10495C00FE5B0008025C000800000000A94600088D
:10496C00F7B5150001938A680B690C00009093420F
:10497C0000DA130022002B6043321278002A01D097
:10498C0001332B6023689B0602D52B6802332B6006
:10499C002268062317001F401A4227D023004333F6
:1049AC001B785A1E93412268920630D4220001993A
:1049BC000098089E4332B047431C25D0062320683C
:1049CC002A68E16800250340042B03D18D1AEB43C0
:1049DC00DB171D40A3682269934201DD9B1AED1879
:1049EC000027BD4220D1002010E00137E3682A687F
:1049FC009B1ABB42D2DD2200012301990098089E2C
:104A0C001932B047431CF0D101204042FEBD30208A
:104A1C00E1184331087021005A1C45310978A2185D
:104A2C00433202331170C1E722000123019900982F
:104A3C00089E1A32B047431CE6D00137D1E700007C
:104A4C00F0B58BB006920A0043320793059004929E
:104A5C000A7E0C00109B782A07D8622A09D8002AF3
:104A6C0000D1C1E0582A00D18CE0260042363270C9
:104A7C0022E0100063381528F7D8FDF7D7FD160093
:104A8C001F00F6FFF6FFF6FFF6FF1F00F6FFF6FF1E
:104A9C00F6FFF6FFA80036009A00F6FFF6FFB90005
:104AAC00F6FF3600F6FFF6FF9E0026001A68423627
:104ABC00111D1960136833700123A7E00868196889
:104ACC000A1D05060BD50D681A60002D03DA2D237F
:104ADC00049A6D421370614B0A2703931BE00D6817
:104AEC001A604106F1D52DB2EFE70D681968081D63
:104AFC0018602E0601D50D6803E06D06FBD50D6818
:104B0C00ADB2564B082703936F2A00D0023723000F
:104B1C00002243331A706368A360002B03DB04226A
:104B2C00216891432160002D02D1049E002B0CD0F2
:104B3C00049E28003900FDF709FE039B013E5B5CD7
:104B4C0033702B0005009F42F3D9082F09D123683D
:104B5C00DB0706D563682269934202DC3023013EF1
:104B6C003370049B9B1B2361079B210000930598CA
:104B7C00069B09AAFFF7F4FE431C4CD101204042CE
:104B8C000BB0F0BD45310A70344A03921A682168A3
:104B9C0020CA1A60080616D5CB0702D52023194364
:104BAC0021601027002DB2D1202322689A43226065
:104BBC00ADE7202209680A432260220078214532A1
:104BCC001170274AE1E74806E6D5ADB2E4E71A686A
:104BDC000D68101D4969186013682E0601D51960FF
:104BEC0002E06D06FBD519800023049E2361BBE710
:104BFC001A68111D1960166800213000626800F0F7
:104C0C0033F8002801D0801B6060636823610023A7
:104C1C00049A1370A8E72369320006990598079D3A
:104C2C00A847431CAAD023689B0715D4099BE068AE
:104C3C009842A5DA1800A3E72200012306990598EB
:104C4C00079E1932B047431C98D00135E368099A86
:104C5C009B1AAB42F0DCE9E70025F7E7095C00089A
:104C6C001A5C000870477047C9B28218904201D193
:104C7C000020704703788B42FBD00130F6E710B56B
:104C8C00884202D98B18984203D3002307E08B5C2F
:104C9C008354013AFBD210BDCC5CC45401339A420C
:104CAC00FAD1F8E7F7B507000E001400002905D17A
:104CBC001100FFF7D3FB05002800FEBD002A03D12D
:104CCC00FFF760FB2500F7E700F01BF8019084422A
:104CDC0003D835004308A342EED321003800FFF778
:104CEC00BDFB051EE8D0019B22009C4200D91A0096
:104CFC0031002800FFF734FB31003800FFF742FB8E
:104D0C00DAE70B1F1B68181F002B01DA0B58C018B1
:104D1C0070470000044A03001068002802D0C31832
:104D2C00136070470148FAE7802200208822002097
:104D3C00F8B5C046F8BC08BC9E467047F8B5C046EE
:084D4C00F8BC08BC9E4670474C
:104D5400F8110008F8110008B4100008CE1000087B
:104D6400F8110008FC100008A2110008C81100087E
:104D7400E0110008881000082E1600081A16000812
:104D84001A1600081A1600081A1600081A1600083F
:104D94001A1600081A1600081A1600081A1600082F
:104DA4001A160008EC1500087A160008D416000834
:104DB4001A1600081A1600081A1600080C1600081D
:104DC40010170008781700086A1700081017000861
:104DD4001017000810170008101700081017000813
:104DE4001017000810170008101700081017000803
:104DF40010170008101700081017000810170008F3
:104E040010170008101700081017000810170008E2
:104E140010170008101700081017000810170008D2
:104E240010170008101700081A17000810170008B8
:104E340010170008101700081A17000810170008A8
:104E440010170008101700081017000810170008A2
:104E5400101700081017000858170008E817000872
:104E64001618000840180008E8170008E81700089A
:104E7400E8170008E8170008E8170008E817000812
:104E8400E8170008E8170008E8170008E817000802
:104E9400E8170008E8170008E8170008E8170008F2
:104EA400E8170008E8170008E8170008E8170008E2
:104EB400E8170008E8170008E8170008E8170008D2
:104EC400E8170008E8170008F2170008121800088D
:104ED400E8170008F2170008E8170008E8170008A8
:104EE400E8170008E8170008E81700084E1800083B
:104EF400E8170008F617000888180008C01800080A
:104F0400E4180008881800088818000888180008A1
:104F140088180008881800088818000888180008ED
:104F240088180008881800088818000888180008DD
:104F340088180008881800088818000888180008CD
:104F440088180008881800088818000888180008BD
:104F540088180008881800088818000888180008AD
:104F6400A018000888180008041900088818000808
:104F74009218000888180008881800088818000883
:104F8400881800088818000888180008881800087D
:104F9400A41800087C1900084E1900084E190008CE
:104FA4004E1900084E1900084E1900084E19000841
:104FB4004E1900084E1900084E190008421900083D
:104FC4004219000842190008421900084219000851
:104FD4009E190008421900084219000842190008E5
:104FE4004219000842190008421900084219000831
:104FF4004219000842190008421900084219000821
:105004004219000842190008421900084219000810
:105014004219000842190008421900084219000800
:1050240042190008421900084219000842190008F0
:1050340042190008421900084219000842190008E0
:1050440042190008421900084219000842190008D0
:105054004219000842190008A6190008BE190008E0
:1050640042190008DC190008421900084219000816
:1050740042190008421900084219000842190008A0
:1050840042190008241A0008421900083A1A0008B4
:1050940042190008421900084C1A00084219000875
:1050A4004219000842190008041A0008621A00088C
:1050B4006C1A000802240008DA230008DA23000826
:1050C400DA230008DA230008DA230008DA230008C8
:1050D400DA230008DA230008DA230008DA230008B8
:1050E400442500088A240008DA230008DA2300088B
:1050F400DA230008DA230008DA230008DA23000898
:10510400DA230008DA230008DA230008DA23000887
:10511400DA23000868240008DA230008DA230008E8
:1051240042240008DA23000822240008DA230008B5
:10513400DA230008022400086173736572745F66E1
:1051440061696C656400000072784572726F724325
:10515400616C6C6261636B0074784572726F724348
:10516400616C6C6261636B003031323334353637D5
:10517400383941424344454673746174654E6F70D7
:105184000000000073746174654E6F7000000000CD
:105194004253505F646F4368616E6E656C41637423
:1051A400696F6E004174747269627574655F6177CA
:1051B40061697452656164004253505F7472696737
:1051C400676572414443000068616E646C655265B2
:1051D4006164526571756573740000007374617461
:1051E4006549646C650000005075736820746865D7
:1051F40020627574746F6E20746F20706C617920F6
:105204006F72207061757365203A2D290A000000C1
:1052140068616E646C655772697465526571756511
:105224007374000068616E646C65496E766F6B65BB
:10523400526571756573740068616E646C6552655E
:1052440071756573740000006469737061746368D8
:105254004576656E74000000737461746543616E15
:105264006F707900737461746549646C6500000043
:10527400737461746550756C73696E670000000027
:10528400737461746550617573656400446174611D
:105294004C696E6B5F77616974466F7253796E63A4
:1052A4000000000068616E646C65496E636F6D692F
:1052B4006E674672616D6500486172644661756C23
:1052C400745F48616E646C6572000000737075727F
:1052D400696F75734952510054494D315F42524BC5
:1052E4005F55505F5452475F434F4D5F4952514899
:1052F400616E646C65720000444D41315F436861C6
:105304006E6E656C315F49525148616E646C6572B2
:105314000000000000000000000000000000000089
:105324000000000000000000000000000000000079
:105334000000000001000000020000000300000063
:105344000400000006000000070000000800000040
:10535400090000004253505F726567697374657297
:1053640041707054696D657248616E646C65720059
:10537400445B00082454000802007D03C8000000B8
:10538400505B00081C540008040032052C01000086
:10539400585B00081454000804001405C8000000F9
:1053A400645B0008F053000812001E092800000086
:1053B4004253505F726567697374657250756C739C
:1053C4006544656C656761746500000050617474C0
:1053D40065726E4974657261746F725F6368656348
:1053E4006B5061747465726E000000000102020566
:1053F40004020A040408080501080A01050A020156
:1054040005020204040A080405080801010A0A0541
:10541400010802040402080101020408020108044C
:10542400050A0A0525732825732C202575290A00E9
:105434002573282575290A0053657474696E6720DD
:10544400696E74656E7369747920746F2025686859
:105454007525250A0000000053657474696E672081
:105464005663617020746F20256875206D560A009C
:1054740053657474696E672070756C736520776901
:1054840064746820746F202568687520C2B5730A37
:105494000000000070742D3E706163655F6D7320C1
:1054A4003E3D2035000000007372632F6273705F0D
:1054B40073746D3332673037312E630070742D3E50
:1054C40070756C73655F77696474685F6D69637226
:1054D4006F7320213D20300070742D3E6E725F6F1B
:1054E400665F70756C73657320213D203000000089
:1054F40028656C636F6E5B305D202620656C636F7E
:105504006E5B315D29203D3D203000005465726D95
:10551400696E616C000000005254540053454747C3
:105524004552000053657175656E6365725F25733E
:1055340020756E6578706563746564206576656E44
:10554400743A2025750A0000436F6E74726F6C6C98
:1055540065725F257320756E657870656374656424
:10556400206576656E743A2025750A007366203DC1
:105574003D204E554C4C00007372632F636F6E7464
:10558400726F6C6C65722E63000000007372632F7F
:1055940073657175656E6365722E63006E62722049
:1055A4003D3D2031000000007372632F646174611B
:1055B4006C696E6B2E6300006273702E6372697483
:1055C4006963616C5F73656374696F6E5F6C657644
:1055D400656C20213D2055434841525F4D415800A0
:1055E4002573282575293A20756E6B6E6F776E20AA
:1055F4006465766963652069640A00006273702ECD
:10560400637269746963616C5F73656374696F6EF7
:105614005F6C6576656C20213D2030004672616DBB
:1056240065207061796C6F616420746F6F206269AA
:10563400673A20256875206279746573000000005C
:1056440076302E34302D6265746100002573206637
:105654006F722069643D2568750A000025730A008D
:1056640025733A20756E6B6E6F776E206174747259
:1056740069627574652069643D2568750A000000D7
:10568400436F6E74726F6C6C65725F257320454E48
:105694005452590A00000000436F6E74726F6C6CB0
:1056A40065725F257320455849540A007265616428
:1056B400000000005472616E73616374696F6E2040
:1056C4002568753A20257320617474726962757453
:1056D40065202568750A000077726974650000000A
:1056E40073746F70000000007061757365000000D2
:1056F400426F78206E616D652073657420746F202D
:10570400272573270A000000737562736372696248
:105714006520746F00000000696E766F6B65000091
:1057240025732C20756E6B6E6F776E206F70636FB0
:1057340064652030782530326868780A00000000FB
:10574400706C61790000000054696D652025303269
:10575400753A253032753A253032750A000000005A
:105764005265636569766564207369676E616C2050
:1057740025640A00257328256875293F0A0000005E
:10578400537769746368696E6720746F2027257383
:10579400270A000070642D3E6E725F6F665F73743B
:1057A40065707320213D2030000000007372632F68
:1057B4007061747465726E5F697465722E63000043
:1057C400566261743D256875206D562C20566361C0
:1057D400703D256875206D562C20497072696D3DA9
:1057E400256875206D410A0053657175656E6365A2
:1057F400725F257320454E5452590A0053657175E2
:10580400656E6365725F257320455849540A00002C
:105814005374617274696E6720272573270A000028
:1058240046696E697368656420272573270A00003A
:10583400257320454E5452590A0000002573204513
:105844005849540A00000000526573756D696E670B
:1058540020272573270A000050617573696E67203D
:10586400272573270A000000436F6D6D616E647312
:105874003A202F3F202F61202F62202F64202F6C8D
:10588400202F6E202F71202F75202F76202F772028
:105894002F30202F312E2E2F390A00005475726EAE
:1058A400696E672056636170204F46460A00000007
:1058B4005475726E696E672056636170204F4E0A8C
:1058C400000000004669726D776172652025730AD5
:1058D40000000000556E6B6E6F776E20636F6D6D08
:1058E400616E6420272F2563270A0000476F742008
:1058F40053594E43206672616D652C207365715F48
:105904006E723D256868750A0000000027252E2A5E
:1059140073273F0A00000000476F74202573206638
:1059240072616D652C207365715F6E723D256868C8
:10593400752C207061796C6F61645F73697A653D61
:105944002568750A0000000025733A20626164200E
:105954006672616D650A000025732C204943535219
:105964003D307825780A000020205469703A206878
:10597400616C74204350552C206368616E67652008
:105984006775617264204020257020746F20302C6C
:10599400207468656E20737465702E0A0000000020
:1059A40050742053523D307825780A0041444320F6
:1059B4006F76657272756E0A0000000041444320E0
:1059C40072656164790A0000414443206368616E32
:1059D4006E656C20636F6E666967207265616479B9
:1059E4000A00000041444320454F430A00000000E0
:1059F40041444320454F530A0000000041444331D1
:105A04002D3E4953523D307825780A0025732C20C9
:105A140054454946310A000025732C204953523D10
:105A2400307825780A000000496E697469616C69F0
:105A340073696E672E2E2E0A0000000044657649B5
:105A4400643D307825782C2053797374656D436FE9
:105A54007265436C6F636B3D25750A004C4C5F4166
:105A640044435F5245475F496E6974206572726FA3
:105A7400723D25750A00000025733A205053433DBA
:105A840025750A004D65616E204D616368696E6518
:105A940000000000436865636B696E672027257307
:105AA400270A000025733A2073686F727420696EA8
:105AB40020656C636F6E202568750A006D652D3E48
:105AC4006368616E6E656C5F6664203C2030000024
