:020000040800F2
:1000000000900020D11D0008211E0008B90F000833
:1000100000000000000000000000000000000000E0
:10002000000000000000000000000000211E000889
:100030000000000000000000211E00081910000848
:10004000211E0008211E0008211E0008211E000894
:1000500029100008211E0008211E0008C9120008EE
:10006000211E0008D1130008211E0008211E0008CF
:100070003513000845100008B51000086D11000880
:10008000211E000819130008211E0008211E000867
:10009000211E0008211E0008211E0008211E000844
:1000A000211E0008211E0008211E0008211E000834
:0C00B00055140008211E0008211E000845
:1000BC0010B5064C2378002B07D1054B002B02D032
:1000CC00044800E000BF0123237010BD7000002025
:1000DC0000000000A0350008044B10B5002B03D025
:1000EC000349044800E000BF10BDC04600000000FA
:1000FC0074000020A0350008F0B50124C023844012
:10010C000B4D5B00EC500700830803203840FF27A1
:10011C00AC46C026C0008740890181409B006344E7
:10012C00B6009A59BA430A439A512C60F0BDC046A6
:10013C0000E100E0F0B501224F46D64646460B687A
:10014C0000249146C0B5002B1AD14BE01700574341
:10015C007B00DB19DB43C568AC4666460D691E4067
:10016C007D433543C5604D68022D2DD07D4302681B
:10017C0013402B4303600B681A000134E24031D06A
:10018C004D461A00A5402A402B42F5D04B68013B46
:10019C00012BDBD81700574383688D6898467B008A
:1001AC009C467D43BC44AA4646466546AE43350054
:1001BC00564663462E438660CE6845685643954343
:1001CC003543DB434560C6E7FF2A10D83D007D432D
:1001DC00026A2E01761BB2434E6975432A430262B2
:1001EC004D68C3E7E0BCBA46B146A846F0BD120A5A
:1001FC0052435243456A1601B61AB5434E697243CF
:10020C002A4342624D68B1E710B511240200084838
:10021C000B00016AA14301628020064980008862BC
:10022C00DA38FF3888610449044802F081FDFEE7A2
:10023C00002C014000040050F4370008243A000858
:10024C00FA2170B5124C05008900206801F02EFBD4
:10025C00802301385B04984201D3012070BDC0217A
:10026C000C4A090650600C48036A1B021B0A0B431C
:10027C0003620721002393601160032DEDD8026AFD
:10028C00A9071202120A0A43026218006560E5E728
:10029C000000002010E000E000ED00E010B50A00C6
:1002AC0002490348103102F043FD10BDF437000839
:1002BC00303A000810B50A0002490348203102F018
:1002CC0037FD10BDF4370008303A0008002210B595
:1002DC00037844781C4205D1013292B202308A4232
:1002EC00F6D110BD02490348303102F021FDF8E788
:1002FC00F4370008383A00084B1E9941012310B519
:10030C0049429943002200230E3102F023FF10BD15
:10031C0070B5060014001D00A93682B0FF3600929D
:10032C00019332687368A41A9D41002D04D1074BC8
:10033C009C4201D802B070BD08236A46132102F01A
:10034C0009FF009B019C33607460F3E7BFE1E4009C
:10035C00F0B5D6464F4646460300C0B5DC33DD89C2
:10036C0002000020002D04D1E0BCBA46B146A846DC
:10037C00F0BD987ADE889979002800D085E01C7A47
:10038C00587A013C241A0120E4B298724900DC200E
:10039C0012581F7B5018565CDA7A45789146C82A59
:1003AC0000D983E01100794802F0C2FC01235B42C2
:1003BC004B449846032F00D8A1E04B46002B05D1A7
:1003CC00734B744A1800744902F0C2FC002C00D123
:1003DC008AE07B01DB1B9801C01AFA23C000C0190C
:1003EC0080019B04984279D36C48002206216C4B07
:1003FC00013CD8621C635A621A698A431A613542FD
:10040C0000D0A1E00523334200D183E04246022113
:10041C00634B35435A63DA680A43DA605A69013927
:10042C000A435A614022ED4301205E4B9A61EBB2C4
:10043C00054200D0A1E05C4A02219062042208200F
:10044C0019401A400340002900D092E0022056497E
:10045C008862002A74D10421534A9162002B55D032
:10046C002022514B9A6100235021504A4C4C53523C
:10047C006363A36390693339002202F06BFE01229F
:10048C0023680120134323606EE701319F88C8B2B3
:10049C00B84232D041005C7A187A0134E4B20138A7
:1004AC005C72844257D00020987270E7C82137489C
:1004BC0002F03EFCC7239846032F87D8344B3C4AA6
:1004CC0018003C499A4602F043FC002C0ED07B01EC
:1004DC00DB1B9801C01AC000C0198001FA218900E9
:1004EC0001F0E4F9013880E7294B9A46CC215046BB
:1004FC00314A890002F02CFC6BE70021CBE7244B3E
:10050C002B4A18002B4902F023FC56E72022264BDD
:10051C009A62A8E742460421214B35439A63DA6874
:10052C000A43DA605A6903390A435A61002D1ED115
:10053C0040221C4B9A621C4B3E3A99619A610823EB
:10054C000421194A916189E756211C4A1048FF3150
:10055C0002F0FEFB56E700200136B6B25872B742E5
:10056C0001D0DE809FE7013DD880DD819BE7ADB2F5
:10057C0058E702200C4988616BE7082402213C3AB9
:10058C0019401A402340084CA0615CE7503A00081F
:10059C007C3A0008903A00082F030000FEFF000090
:1005AC00002C014000080050000400508C0000207A
:1005BC00683A00082E030000AC3A0008C43A000860
:1005CC00032310B5104C114A23616361104BA261D7
:1005DC00E36180239B0123620023A3626362E362D5
:1005EC0022660C4A0C49543262661022E01DA26647
:1005FC002367E366636702F0A5FF2000074902F05A
:10060C00A1FF2023A37110BD24210020E03A000893
:10061C00240100208C000020EC3A0008F03A00087D
:10062C00F8B54746CE4680B58368C56899465B1BCE
:10063C009846436804000E0017005819904507D9D6
:10064C00ED1902F079FEE560C0BCB946B046F8BDC4
:10065C00424602F071FE4B463100ED19ED1A2A00AC
:10066C006068414402F068FEE560EDE7F0B557467E
:10067C004E464546DE46E0B5354B83B09A461B7870
:10068C00060015000191002B56D07700BB19DB003A
:10069C0053441A6F9046DA6E9146904525D8130054
:1006AC0042462C009B1A9D4209D8002C09D12000EF
:1006BC0003B0F0BCBB46B246A946A046F0BD1C1E1A
:1006CC00F5D0A146BB19DB005344596E22004144BE
:1006DC000198A04402F030FE4C46002CE7D0434673
:1006EC00BF19FF0057443B67E1E742469B6E2C0065
:1006FC009B1A9D4227D8BB19DB0053449B46596E6D
:10070C0022004144019802F017FE5B469B6EA04408
:10071C002D1B434519D04B4642469B1A99464D45D5
:10072C000DD8002DD9D0019BA1469C46A44463460C
:10073C002C000193A944C5E7FFF742FFA5E74D46FE
:10074C00002DCAD0EFE71C00D5E700239846E6E75A
:10075C0024210020F8B557464E46DE4645468946CC
:10076C00411CE0B517004A0052180300D200924613
:10077C00344A5E0093461000F618F6005E44F36AA5
:10078C0050449846012B0CD0022B27D0002B17D0AD
:10079C00002398464046F0BCBB46B246A946A0464C
:1007AC00F8BDB36A726A934247D9013B9B1AB846AB
:1007BC009F4200D9984642464946FFF731FFE9E788
:1007CC00B36A726A934233D9013B9B1A9F42E1D8B8
:1007DC003A004946FFF724FFB846DBE70023746A6A
:1007EC0098461DE0013B356A1B1BBB4200D93B0000
:1007FC002D1B9D4200D91D005B46534458682A00AE
:10080C004946001902F098FD336A6419E31A5A1E1E
:10081C0093415B421C40A844A9447F1B7462B9D02D
:10082C00B36AA342DED8356A5B19013B1B1BDCE7BC
:10083C00316A5B18013B9B1AC8E7316A5B18013BB4
:10084C009B1AB4E724210020F0B5C64600B5856894
:10085C0043686A1C04009A4207D80368595515006E
:10086C00C36882600133C36043689D4202D080BC80
:10087C00B846F0BD2368276998460E4B1B78002BB1
:10088C0015D0EFF31086012181F310882A00414620
:10089C003800FFF75FFF86F31088A368834203D00C
:1008AC0001235B42E360E2E70023A360DFE7FFF78D
:1008BC0087FEE6E724210020F0B54E464546574614
:1008CC00DE46E0B583B09A460C9B80460E001500C0
:1008DC009946914200D27DE008000127290000F0E2
:1008EC00E5FF01378542F9D9574500D25746012318
:1008FC000D9A1A4001920D9A13424ED14B46002B81
:10090C004BD0130020249B075ED44F4545D20123C6
:10091C005B429C4621004046E144FFF795FF43466D
:10092C00DB68002B32DB4B46002BEED15346012407
:10093C00012B07D901235B429C46E24453466C438E
:10094C00012BF7D82100300000F0B0FF8542F5D91B
:10095C00214B9B4650239A4606E02900200000F0CC
:10096C00A5FFAC420FD304003000210001F024F8A5
:10097C00534658440E00C15C4046FFF765FF4346A2
:10098C00DB68002BE9DA019B002B19D103B0F0BC1A
:10099C00BB46B246A946A046F0BD4346DB68002BD9
:1009AC00C4DAF3E74F45F1D201235B429C46202188
:1009BC004046E144FFF748FF4346DB68002BE5DB8C
:1009CC004B46002BEED1E1E753465C425C412401DF
:1009DC0020349AE7012787E7F437000870B5050043
:1009EC0008000C0002F06CFCC31FDBB20D2B03D80B
:1009FC0028499B00CB589F46274902007431274851
:100A0C0002F096F970BD200002F05CFC04682448EA
:100A1C00210002F08DF9022CF4D1D82300225B00C6
:100A2C00EA54EFE7D2235B00E858002200231A2196
:100A3C0002F090FBE6E7200002F044FC0023416842
:100A4C000068184A01F0D2F804003C21200000F0A4
:100A5C00B3FF20000E003C2100F028FF3C2100F0E9
:100A6C00ABFF0D00E1212000090100F01FFF330056
:100A7C0001002A000C4802F05BF9C3E7D0230649B9
:100A8C005B000A486031EC5802F052F9E223002274
:100A9C00E254B7E7B8350008F4370008283B0008E3
:100AAC00103B000840420F00F83A0008243B0008B5
:100ABC0070B5050008000C0002F002FC1F2803D8DA
:100ACC001E4A800013589F461D4922001D480431C0
:100ADC0002F02EF9002070BD194C1B48211D02F0AC
:100AEC0027F9DC23E0221034EC501849D83BAB50EA
:100AFC000432A950DC35BC3A00202A73EB81EAE7BA
:100B0C000F491348043102F013F90020E3E7EA23FC
:100B1C00EB5A002B0BD00F48DDE70F4802F008F919
:100B2C000020D8E70D4802F003F90020D3E70C4869
:100B3C005D210C4A02F00CF90648CCE7F0350008B0
:100B4C0074380008B43B0008343B00080700003C34
:100B5C00403B0008750B00087C3B00089C3B0008E0
:100B6C006C3B00084C3B000870B5050008000C00FD
:100B7C0002F0A6FB1F280DD8154A800013589F467B
:100B8C0014491548183102F0D3F82800FFF7E0FBA0
:100B9C00002070BD0F4922001048183102F0C8F82F
:100BAC000020F6E70B490E48183102F0C1F800207E
:100BBC00EFE72800FFF7CCFB03000020002BE8D167
:100BCC00084802F0B5F80848E3E70848E1E7C046F2
:100BDC007036000874380008343B0008B43B000839
:100BEC00403B0008D83B0008BD0A0008FD0B00087C
:100BFC0070B5050008000C0002F062FB1F2803D83A
:100C0C00174A800013589F4616492200164828316F
:100C1C0002F08EF8002070BD12491448283102F001
:100C2C0087F80020F7E70F491148283102F080F8C7
:100C3C000020F0E70F4802F07BF80F48EBE7EA23BF
:100C4C00EB5A002B06D10D4802F072F80C48E2E783
:100C5C000020E0E70B4802F06BF80020DBE7C04611
:100C6C00F036000874380008B43B0008343B000828
:100C7C00403B0008F43B0008750B0008D83B00080B
:100C8C00BD0A0008043C000810B5040002F05EFA2E
:100C9C00002800D110BDD2235B00E05802F056FAB8
:100CAC00F8E7C046F8B50600C8360500012230004A
:100CBC0002F018F9012804D07C21244A244802F0BF
:100CCC0047F872B6BFF34F8FBFF36F8F4827214C95
:100CDC00E35DFF2B2BD0482201333000A35402F0EC
:100CEC007BF800280FD04825635D002B18D04822D4
:100CFC00013BDBB2A354002B04D1BFF34F8FBFF3E6
:100D0C006F8F62B6F8BDDD23EA56012A17D048254D
:100D1C0011491248343102F00BF8635D002BE6D117
:100D2C000F4A1049104802F013F8635DDFE7A12168
:100D3C000E4A0D48890002F00BF8E35DCBE78021E9
:100D4C000B4A13688B431360CDE7C046243C000864
:100D5C00303C00088C00002074380008643C00080B
:100D6C00803C00088B0200007C3A00083C3C0008E8
:100D7C000044004070B5D826835904009847051EDE
:100D8C001AD0A65902F07EFA01002000B0470028C4
:100D9C0004D0C021094A0A4801F0DAFFD823E550F3
:100DAC0002F062FA01002000A847002804D0C321F9
:100DBC00024A034801F0CCFF70BDC046A03C0008BD
:100DCC006C3B0008F8B50400DC25D820DE26635DFA
:100DDC005A1C62552258D154615DA35B994206D3CB
:100DEC0027580DD0E022A05A1B18994201D00020A0
:100DFC00F8BDDC2300223800E25402F067F9F7E773
:100E0C00380002F03DF9002807D0380002F058F9FC
:100E1C00E023E052615DA35BE6E7635D013BDBB27F
:100E2C006355002BE3D00023D825DC306259D11850
:100E3C004978D154225C0133DBB29A42F6D8D6E71A
:100E4C00F8B5CE464746DE2280B50B006946865A79
:100E5C0000AFF21DD208D2008A1A9546E322040094
:100E6C00825C0121684602F0D7F8E84672B6BFF3FF
:100E7C004F8FBFF36F8F4823234D9946EB5CFF2BAD
:100E8C0032D0482220000133AB5441463200C830E6
:100E9C0001F0AAFF002813D148242B5D002B1CD095
:100EAC004822013BDBB2AB54002B04D1BFF34F8F74
:100EBC00BFF36F8F62B6BD46C0BCB946B046F8BD35
:100ECC00DD23E256012A18D0482410491048343149
:100EDC0001F02EFF2B5D002BE2D10E4A0E490F487C
:100EEC0001F036FF2B5DDBE7A1210D4A0B48890091
:100EFC0001F02EFF4B46EB5CC3E78021094A1368D7
:100F0C000B431360C8E7C0468C00002074380008FF
:100F1C00643C0008803C00088B0200007C3A00080E
:100F2C003C3C000800440040F8B5060008000C00EA
:100F3C0002F0D0F80500200002F0C2F807002000F3
:100F4C0002F0C4F802F05AF83B002A0001000448F1
:100F5C0001F0EEFE29003000FFF772FFF8BDC0462D
:100F6C00AC3C000870B5E225435D0400002B0AD1AF
:100F7C000A2905D0C9B2FFF725FF03280ED070BD92
:100F8C00FFF75EFFFBE7C9B2FFF71CFF0028F6D0A6
:100F9C00D8232000E158FFF7C7FFF0E7D823200043
:100FAC00E158FFF7C1FF01236355E8E7112110B5A4
:100FBC000F4A1048136A8B43136280220E4B920027
:100FCC009A62DA3AFF3A9A610C490D4B48315A68E9
:100FDC0001F0AEFE0B4C0122210064230A4864315F
:100FEC00E25401F0A5FE6422A35C002BFCD110BDE1
:100FFC00002C0140DC3C0008000400507438000850
:10100C0000ED00E08C000020EC3C0008024A936EDE
:10101C00013393667047C0468C00002010B5EFF387
:10102C000582034903485C3101F082FE10BDC046C5
:10103C0074380008303A0008012210B5144B1969B5
:10104C000A421DD00620196891431960D968814362
:10105C00D960196901308143196140210D4B9962A6
:10106C000D4B21399A6101329A6102329A611C321C
:10107C009A610A4B00229869002302F06BF810BDAC
:10108C0007491A696831074801F052FEF7E7C04674
:10109C00002C014000080050000400508C0000207F
:1010AC0074380008243D0008022210B5244BD9687E
:1010BC000A4202D019690A4235D1224C0422204B33
:1010CC00D9680A4202D019690A4220D150221C4B1D
:1010DC00A25A1B6B01339A4212D0194B1A491A6946
:1010EC000A4200D110BD1B691848194001F020FEBE
:1010FC00EFF30582164917485C3101F019FEF1E750
:10110C00002300221E21A06902F024F8E5E71969EA
:10111C001148914319615023E15A013189B2E152CE
:10112C0001F006FED2E71969064C91431961502370
:10113C00E15A0A48013189B2E15201F0F9FDBDE7EB
:10114C00002C01408C000020E0FF0C00243D000826
:10115C0074380008303A00083C3D0008303D000867
:10116C00F8B580230222DB0519690A420FD101214F
:10117C001A69114203D01A698A431A61F8BDEFF358
:10118C000582274927485C3101F0D2FDF6E7196941
:10119C00254C914319612568666872B6BFF34F8F71
:1011AC00BFF36F8F4827E35DFF2B31D048215A1CCA
:1011BC00D2B262548021C905E06E496AE166884268
:1011CC0002D9216F01312167002A17D04822A3547C
:1011DC00002B04D1BFF34F8FBFF36F8F62B6236F19
:1011EC00E26E990792080A439B083000A8478022B8
:1011FC00D205536BA1685B185363BFE70B4A0C49CC
:10120C000C4801F0A5FD4823E35C013BDBB2DDE7B4
:10121C00A121094A0748890001F09AFDE35DC5E761
:10122C0074380008303A00088C000020803C00081C
:10123C008B0200007C3A00083C3C000870B5482545
:10124C000B4C635D002B0BD04822013BDBB2A3544B
:10125C00002B04D1BFF34F8FBFF36F8F62B670BDFD
:10126C00044A0549054801F073FD635DECE7C0468F
:10127C008C000020803C00088B0200007C3A0008A7
:10128C0070B572B6BFF34F8FBFF36F8F4825084C04
:10129C00635DFF2B03D048220133A35470BDA12101
:1012AC00044A0548890001F053FD635DF3E7C0462D
:1012BC008C0000203C3C00087C3A0008102210B541
:1012CC000E4BD9680A4211D119690A4207D1EFF3C2
:1012DC0005820B490B485C3101F02AFD10BD0A4810
:1012EC0000211A610C3001F04FFDF7E7064801218F
:1012FC00DA600C3001F048FDF0E7C04600180240FF
:10130C0074380008303A00088C00002010B5EFF358
:10131C000582034903485C3101F00AFD10BDC0464B
:10132C0074380008303A0008102210B51C4B1968AC
:10133C000A421AD1012219680A4211D18022196875
:10134C009201114222D1042219680A4223D10822A7
:10135C0019680A420ED01A60124801F0E9FC03E049
:10136C0011481A6001F0E4FC10BD1A600F4801F03E
:10137C00DFFCF9E719680E4801F0DAFCEFF305829F
:10138C000C490D485C3101F0D3FCEDE71A600B48B9
:10139C0001F0CEFCE8E71A60094801F0C9FCE3E76C
:1013AC00002401408C3D0008583D0008483D0008D1
:1013BC00983D000874380008303A0008643D000875
:1013CC00803D0008022310B5174C2268134218D137
:1013DC0008232268134208D11449226814480831A2
:1013EC0001F0A6FC0123636010BD10496360083155
:1013FC00104801F09DFC01210F4A13680B43136048
:10140C00F2E74A220D4963604A33C85A0233CB5A79
:10141C00895A0B4A89B2534342439B0B920B09489E
:10142C0001F086FCE0E7C04600000240F4380008FA
:10143C00D83D0008CC3D0008080002408C0000207C
:10144C004DCE0000A83D000810B50D4BDA69920690
:10145C0010D4DB691B0605D50A4B0B49986B5B6BEB
:10146C00984710BDEFF30582084909485C3101F03B
:10147C005FFCF6E70348596A1C3001F085FCF0E785
:10148C00004400408C0000202844004074380008C0
:10149C00303A000870B572B6BFF34F8FBFF36F8F41
:1014AC0048251B4C635DFF2B29D048215A1CD2B216
:1014BC0062548021C905E06E496AE166884202D90E
:1014CC00216F01312167002A0FD04822A354002B31
:1014DC0004D1BFF34F8FBFF36F8F62B6216FE06EF5
:1014EC008B0780081843890870BD0A4A0A490B48C3
:1014FC0001F02EFC4823E35C013BDBB2E5E7A121C4
:10150C00074A0648890001F023FC635DCDE7C0461D
:10151C008C000020803C00088B0200007C3A000804
:10152C003C3C00087047C04610B50B00EFF310842C
:10153C00012181F310881900FFF798F884F31088C3
:10154C0010BDC04610B582B0EFF31084012181F3B9
:10155C0010886B460122D91D0020FFF787F884F311
:10156C001088012803D16B46D87902B010BD012038
:10157C004042FAE710B5FFF723F810BDF0B5DE4690
:10158C004E4657464546E0B59BB00AAB0593402303
:10159C00069300230793089301330C0091469B4656
:1015AC000290099005E005A8FFF74EF9089800286D
:1015BC0059DB2178013400295CD02529F3D1220094
:1015CC001378002602250820140021392D2B0CD06D
:1015DC002D2B0ED8232B11D02B2B00D05FE10E43DB
:1015EC000132137814002D2BF2D15B4601321E43CD
:1015FC00F7E7302B05D12E430132F2E706430132D7
:10160C00EFE71A00303A0025092A0DD81A00AB0072
:10161C005B1901345B009B182278303B1D001300D2
:10162C00303B092BF3D913002E2B00D1D8E0002727
:10163C002378042101E0637801341A008A43682A74
:10164C00F9D0252B07D0583BDBB2202B07D8954A75
:10165C009B00D3589F46252105A8FFF7F5F808985D
:10166C0001340028A5DA1BB0F0BCBB46B246A94633
:10167C00A046F0BD08980028F5DD079C002C00D092
:10168C00C6E00019EFE74B4649461B6805A81A1D32
:10169C000A60196810223B0001960095FFF70CF9BF
:1016AC0001340898DDE74B4649461B6805A81A1D0E
:1016BC000A6019680A223B0001960095FFF7FCF8B6
:1016CC0001340898CDE74B4649461B681A1D0A6041
:1016DC001D6805E005A8FFF7B7F808980028BFDBE0
:1016EC00297801350029F5D10898B9E74B464946C8
:1016FC001B6805A81A1D0A6019680023019308339A
:10170C0010220093FFF7D8F801340898A9E74B464C
:10171C0049461B681A1D0A601B68DA179818039350
:10172C00012350409A4609280DDDAA46A0461D000B
:10173C000A210400013500F06FF9632CF8DC2B0052
:10174C00444655469A46B846574575D3002D36D073
:10175C00039B002B74DB730772D4B30701D5002FE6
:10176C002DD05B4633422AD1002D28D04346A046CB
:10177C001C00AC4220D205A82021FFF765F8089880
:10178C00013D002800DA87E0002DF2D12300444609
:10179C009846039B002B58DB730761D4032333401B
:1017AC00022B62D005A83B000A22039901960095F2
:1017BC00FFF782F8089853E72300444698460898A8
:1017CC000028E6DA01344CE74B4649461B6805A86D
:1017DC001A1D0A601978FFF737F80134089840E7AA
:1017EC006378621C1900303914000027092900D9CC
:1017FC001FE71A00BB00DB1901345B009B18227831
:10180C00303B1F001300303B092BF3D9130010E7BA
:10181C00254B1B78002B15D0EFF31085012181F39C
:10182C001088220002980AA9FEF794FF85F310880D
:10183C000898079C001916E7D046002DBFD087E703
:10184C00013D8AE7FEF7BCFEE6E75B422D2105A8C9
:10185C000393FEF7F9FF089800289FDA013400E79C
:10186C002B2105A8FEF7F0FFF5E7002F9AD10AE02F
:10187C00A8450CD205A83021FEF7E6FF0898013DDB
:10188C00002800DAECE6002DF2D100258AE7089852
:10189C00002887DA0134E4E644460134E1E6002509
:1018AC00C5E6C046703700082421002000224308FA
:1018BC008B4274D303098B425FD3030A8B4244D30C
:1018CC00030B8B4228D3030C8B420DD3FF2209024E
:1018DC0012BA030C8B4202D31212090265D0030B0D
:1018EC008B4219D300E0090AC30B8B4201D3CB0303
:1018FC00C01A5241830B8B4201D38B03C01A524145
:10190C00430B8B4201D34B03C01A5241030B8B4246
:10191C0001D30B03C01A5241C30A8B4201D3CB0231
:10192C00C01A5241830A8B4201D38B02C01A524116
:10193C00430A8B4201D34B02C01A5241030A8B4219
:10194C0001D30B02C01A5241CDD2C3098B4201D331
:10195C00CB01C01A524183098B4201D38B01C01AAF
:10196C00524143098B4201D34B01C01A5241030926
:10197C008B4201D30B01C01A5241C3088B4201D3D5
:10198C00CB00C01A524183088B4201D38B00C01A82
:10199C00524143088B4201D34B00C01A5241411AA9
:1019AC0000D20146524110467047FFE701B50020B6
:1019BC0000F006F802BDC0460029F7D076E7704764
:1019CC007047C04610B5002903D100F007F820304D
:1019DC0002E0080000F002F810BDC0461C210123F3
:1019EC001B04984201D3000C10391B0A984201D3F6
:1019FC00000A08391B09984201D30009043902A2D4
:101A0C00105C40187047C04604030202010101013A
:101A1C00000000000000000003460B437FD40022AE
:101A2C0043088B4274D303098B425FD3030A8B4266
:101A3C0044D3030B8B4228D3030C8B420DD3FF22D0
:101A4C00090212BA030C8B4202D31212090265D09E
:101A5C00030B8B4219D300E0090AC30B8B4201D351
:101A6C00CB03C01A5241830B8B4201D38B03C01A98
:101A7C005241430B8B4201D34B03C01A5241030B0F
:101A8C008B4201D30B03C01A5241C30A8B4201D3C0
:101A9C00CB02C01A5241830A8B4201D38B02C01A6B
:101AAC005241430A8B4201D34B02C01A5241030AE2
:101ABC008B4201D30B02C01A5241CDD2C3098B42C7
:101ACC0001D3CB01C01A524183098B4201D38B0144
:101ADC00C01A524143098B4201D34B01C01A5241E7
:101AEC0003098B4201D30B01C01A5241C3088B422C
:101AFC0001D3CB00C01A524183088B4201D38B0017
:101B0C00C01A524143088B4201D34B00C01A5241B8
:101B1C00411A00D201465241104670475DE0CA0F8F
:101B2C0000D04942031000D34042534000229C464F
:101B3C0003098B422DD3030A8B4212D3FC22890159
:101B4C0012BA030A8B420CD3890192118B4208D32F
:101B5C00890192118B4204D389013AD0921100E091
:101B6C008909C3098B4201D3CB01C01A52418309A5
:101B7C008B4201D38B01C01A524143098B4201D3D2
:101B8C004B01C01A524103098B4201D30B01C01AFD
:101B9C005241C3088B4201D3CB00C01A5241830877
:101BAC008B4201D38B00C01A5241D9D243088B42CD
:101BBC0001D34B00C01A5241411A00D20146634670
:101BCC0052415B10104601D34042002B00D54942D4
:101BDC00704763465B1000D3404201B50020FFF70D
:101BEC00EFFE02BD0029F8D016E77047002B11D18B
:101BFC00002A0FD1002900D1002802D00021C943AE
:101C0C00080007B4024802A14018029003BDC04668
:101C1C00B1FDFFFF03B4684601B5029800F006F869
:101C2C00019B9E4602B00CBC7047C046F0B55746AF
:101C3C004E464546DE46E0B504000D0092469946F8
:101C4C0083B08B4230D82DD049465046FFF7BAFEB0
:101C5C00290006002000FFF7B5FE331A9846203BFA
:101C6C009B4633D45A465346934042461F00534634
:101C7C0093401E00AF423AD8AF4200D178E05B46A9
:101C8C00A41BBD41002B00DA75E00022002300925A
:101C9C00019301235A4693400193012342469340FA
:101CAC00009328E08242CFD90022002300920193B6
:101CBC000C9B002B01D01C605D600098019903B057
:101CCC00F0BCBB46B246A946A046F0BD4246202316
:101CDC009B1A5246DA40414613004A468A40170086
:101CEC0042461F43534693401E00AF42C4D90022C4
:101CFC000023009201934346002BD9D0FB077208B6
:101D0C001A4346467B080EE0AB4201D1A2420CD8E6
:101D1C00A41A9D41012024196D410021013E241873
:101D2C004D41002E06D0AB42EED9013E24196D4137
:101D3C00002EF8D1009801995B4600196941002BDF
:101D4C0024DB2B005A464446D3402A00E2401C00B8
:101D5C005B461500002B2ADB26009E403300260034
:101D6C004746BE403200801A9941009001919FE78E
:101D7C00A342BCD883E74246202300219B1A0022B1
:101D8C00009101920122DA40019286E7424620231B
:101D9C009B1A2A0046469A402300F34044461343BC
:101DAC002A00E2401C005B461500002BD4DA4246A8
:101DBC002F002023260097409B1ADE403B00334324
:101DCC00CDE7C0460D488546FFF7ACFB0C480D49E6
:101DDC000D4A002302E0D458C4500433C4188C427A
:101DEC00F9D30A4A0A4C002301E013600432A242E0
:101DFC00FBD301F069FA00F00FF8FEE70090002029
:101E0C00000000206C0000204C40000870000020F6
:101E1C0004220020FEE70000F0B5DE46454657469A
:101E2C004E46E0B5674C684DA54400F07DFF674811
:101E3C0000F07EFF8021664B09065A6D012092004E
:101E4C0092080A4301215A65624ADA63624A1A64AB
:101E5C009A6B0A439A635A6B06310A435A63C0233E
:101E6C005E4A9B0011680B431360FEF7E9F92B687F
:101E7C005B4A5C4C1A4080239B0013432B60236805
:101E8C0059495800C0184000FFF710FD80226B69BB
:101E9C00D2000130134202D105E0002803D06B6957
:101EAC0001381342F9D18021474A490013680B438A
:101EBC00136013680B42FCD00221454A4B4BD3658F
:101ECC00D36D1942FCD0382391680B40D168102B8C
:101EDC0001D100F043FC002B01D000F043FC13684F
:101EEC004349536819408023DB010B43536013684B
:101EFC0040490B40136013683F4A9B045B0FDA4068
:101F0C0022606068FEF79CF93C4B9A46002835D15C
:101F1C0038212F4A93680B40102B01D100F020FE82
:101F2C001368374955460B4013608021534689048A
:101F3C00986E03E0AB6E1B1A022B1ED813680B4273
:101F4C00F8D1D3682F4919402F4B0B43D360802312
:101F5C0011685B040B4313608023D1685B050B4352
:101F6C00D3608022A86E1A49920403E0AB6E1B1A50
:101F7C00022B02D80B681342F8D0AA460623174A44
:101F8C001168194201D100F00BFDE023104ADB016E
:101F9C0091680B43936093681C490B4093601368E2
:101FAC009B0101D400F0AAFC0721936856468B4391
:101FBC00190002230B439360534638219D6E14483D
:101FCC002EE0C046F4FDFFFF00700040E83D000825
:101FDC0000100240030002300108120000200240F1
:101FEC00FFF9FFFF0000002040420F0009800000B5
:101FFC00FF80FFFFFFC7FFFF0024F4008C000020D0
:10200C00FFFFFFFE8C80C11132301646FFF0FFFF40
:10201C0088130000B36E5B1B834201D900F06DFC8A
:10202C0093680B40102BF5D10721F64AB246136882
:10203C000B40022B01D900F035FDF34BF3499A68A4
:10204C000A409A6038229968114201D000F0EEFCE7
:10205C001B68EF489B045B0FD840EE4AEA4B944652
:10206C009B6801921F221B051B0F9B0063445B6A3C
:10207C001340D84020606068FEF7E2F8E64AE74972
:10208C001368A0260B401360E54B22681968E548DD
:10209C000905090D00F04CFE1422002115A801F0D1
:1020AC0054F910250223F605300014A9984618930C
:1020BC001495FEF73FF8032300223000159314A962
:1020CC004033934618921493FEF734F820233000D3
:1020DC0014A91493FEF72EF85A4617924246802301
:1020EC0001271692D04A9B0010001493159714A93F
:1020FC0093629146FEF71EF84023CC48149314A922
:10210C008361FEF717F827234A461493484617971E
:10211C0014A99361FEF70EF8032342461693C023CD
:10212C00159219925A469B00179214933000B36281
:10213C0014A9FDF7FFFF0C2314A930001493199771
:10214C00FDF7F8FF8421BA4B5A58AA435A50043968
:10215C005A582A435A501A682A431A605A68154327
:10216C005D60B44B1A68D20307D41A68B2490A40AE
:10217C001A60DA6BB1490A40DA638023AD4A5B021C
:10218C00116801250B4313603F22AD4909200B68F0
:10219C0093431A00052313430B60AA4BAA491A68F0
:1021AC001140AA4A0A431A605246A9494A32996018
:1021BC000321DA605A68120C12040A435A60022294
:1021CC0019680A431A60082219680A431A601A68C7
:1021DC0029002A431A609F4B5D60FDF78DFF019922
:1021EC009D48643100F0A4FD9C4B9A682A4207D1AB
:1021FC00DA689B490A40DA601A69920092081A61FF
:10220C008021964B8903DA680A438021DA608901C0
:10221C001A680A42FCD0196007215A698A431100D6
:10222C0002220A4370215A615A698A4311004022E2
:10223C000A430F215A619A6A8A439A625A6977490A
:10224C000A405A619A6AF231FF318A431100102216
:10225C000A439A625A6983490A405A619A6A8249C6
:10226C001140C022D2000A439A625A697F490A403F
:10227C005A619A687E491140802252050A439A603D
:10228C007C492068FFF712FB142343430A930A9BF3
:10229C00002B05D00A9B013B0A930A9B002BF9D11A
:1022AC006E4B75499A681140802212060A439A6057
:1022BC009A68002AFCDB802212011A6020230A9300
:1022CC000A9B002B05D00A9B013B0A930A9B002B0F
:1022DC00F9D18023614D9B052A69032113432B619E
:1022EC0011230C206B60FDF707FF0121EB68EB68F5
:1022FC00AB680B4200D121E3604800F019FD0125C9
:10230C00564B5F491A6914A8AA431A611A690A4004
:10231C001A619A6858490A402A439A6049235246DE
:10232C00D554C82218A9520000F0FAFEE42000F09F
:10233C00EFFF0600C8223100C83000F031FDDD236C
:10234C00984642462233B354A13319009946793B3F
:10235C00FF3B0AAAD2185650EC2000F0D9FF01001E
:10236C00C8221031070000F0DBFED823454A206854
:10237C00FA5052463F499761FFF798FA424E01389E
:10238C00B0620199B26A7031404800F0D1FC404B08
:10239C000021B36111230D2033627560FDF7ACFE93
:1023AC0000210E20FDF7A8FE8423336088231B0236
:1023BC00F56073642826D2230AAA5B009219D750C1
:1023CC00002200237E927F93D8230AAA92195B00E5
:1023DC00D554304B204819000C319B4600F0A8FC1A
:1023EC0020682D49FFF762FA80232C4ADB0501385F
:1023FC0098625A631022022150469A611A6A2A4343
:10240C004EE0C0460020024000100240FF8FFFFF4C
:10241C000024F400F438000800700040FFFEFFFFB9
:10242C0000580140FC3D000800040050000800501A
:10243C000018024000740040FFFF03FFFFFFF8FF8D
:10244C0000080240080002400F80FFFFA02500009A
:10245C004024014000000240243B000800240140BD
:10246C00C73FFFFFFFFDFFFFFFF0FFFFFFBFFFFFB9
:10247C00E8FFFF6F40420F00E8FFFF7F1C3E0008A3
:10248C00FFFFFFDFBD0A0008002C0140383E0008AA
:10249C00686800007439000800093D00801A0600C5
:1024AC001A62DA680A43DA60D14A0260524614A80A
:1024BC005060FA225046120182600322586902438E
:1024CC005A610F201D60FDF717FE4A460AAB9B1997
:1024DC009C584346E35C7F2B00D851E2C54B0793D5
:1024EC00C54B089300F088FDDE23E0528023DB000F
:1024FC009C46604400F00CFFD823DC22E050002303
:10250C00A3540632A352BD4ABD4B516DBD4D0B4376
:10251C0053658B235B00EB602A68BB4B4926134346
:10252C002B6053469B5D012B00D918E202211C2025
:10253C00FDF7E2FD534651469B5D5A1C8A55DD263C
:10254C005BB2A355002B00DA0FE20BAB2200180094
:10255C00AE49039300F012FC0EAB22001800AC49FC
:10256C00099300F00BFC11AB18002200A949019350
:10257C0000F004FCA357012B00D1A7E2DD23E256A7
:10258C00A54BDD261D000593A44B343529001800FE
:10259C001F00069300F0CCFBA257012A00D1BDE22C
:1025AC002900380000F0C4FBA257012A00D1B5E283
:1025BC002900380000F0BCFB9423524614A9D150DA
:1025CC002821059811330AAA5218FF3310302439E8
:1025DC00D7585C46FDF77AFE5846022128302C3439
:1025EC00FDF774FE12212000FDF770FEDC2308229B
:1025FC00FC5098460433FA50894A0433FA503D0093
:10260C00884A0026914652464544BC3B2B73233BDB
:10261C00EB810292EA88A87AD1B2002800D0CEE0F1
:10262C002C7A6B7A013CE41A0123E4B2AB72434678
:10263C00FB585A469C464900614448785032830006
:10264C001B180878D3188100091852184846210025
:10265C0000F06EFBEB893619002BDBD1029B3100AD
:10266C0071489A4600F064FB00F0FEFD0100380052
:10267C00FEF780FB14AA6D49019800F07FFB5346CE
:10268C000C3316C816C303210720FDF735FD684926
:10269C00684800F04DFB684800F04AFBFA21674B94
:1026AC00C9001800984600F043FB654B654AD825D5
:1026BC005A61654BD2269B46644B654F99466D001B
:1026CC00760028220AAB9B185B5D002B00D1C7E07B
:1026DC0028220AAB9B189B5939001A001800019349
:1026EC0000F07CFD0028ECD114AA5946100000F033
:1026FC0075FD041EE5D10121039800F033FB002881
:10270C0000D005E172B6BFF34F8FBFF36F8F482334
:10271C005246D35CFF2B00D13BE148225346514635
:10272C009B5C14A801338B5400F010FD002800D0E2
:10273C00FDE048235246D35C002B00D1E2E0482256
:10274C00534651469B5C013BDBB28B54002BB8D1FA
:10275C00BFF34F8FBFF36F8F62B6B2E70D3B1940DB
:10276C00022922D0254A3B4913680B401360802371
:10277C0011685B000B4380211360374BC9001D00AF
:10278C00986E05E0AB6E1B1A022B01D9FFF7F5FB17
:10279C0013680B42F6D053683049AA46194080237F
:1027AC00DB010B435360FFF7B3FB13682B495368F2
:1027BC0019408023DB010B435360FFF7A2FB4C1C39
:1027CC00A888E1B2E4B20490844200D10021287AB6
:1027DC006C7A84460120404282460134E4B2D444EF
:1027EC006C72644500D17EE00023AB721FE7C046DB
:1027FC001D030008443E0008303C00080010024055
:10280C0008000C000044004001000020710F00087B
:10281C00A9020008C102000874380008643C0008D2
:10282C000700003C8C3E0008A03E00080503000891
:10283C00BC3E0008D03E0008E83E0008103F0008EF
:10284C0000740040550E0000E90900087C3A0008AD
:10285C00810D0008FFC7FFFF8C000020FF80FFFFE9
:10286C00D14800F065FAD02328210AAA5B0052183F
:10287C00D458C33BE256012A04D00599069834314A
:10288C0000F056FAD823E05800F04CFDDD25FF236C
:10289C00635528240AAA1219A533D05800F042FD1A
:1028AC00D0230AAA5B001219D458635D7F2B04D87D
:1028BC00CC21079A089800F04BFA200000F032FD6A
:1028CC0072B6BA4800F034FA00F056FA1121B84A40
:1028DC00136A8B4313628022B64B92009A62DA3AE7
:1028EC00FF3A9A61FEE7002001326872049892B2B6
:1028FC00904200D195E0EA8076E7B246AE4B019368
:10290C00FFF7BCFB4846AD4AAD4900F021FA16E78B
:10291C00039B74221978AB4B0191DB7F002B55D1B3
:10292C002F2900D000E1A74A0133D377EAE6282209
:10293C000AAB9B18985900F009FCFAE6EB68A24A1E
:10294C00EB681A40A14B1343EB60EB689B0200D47D
:10295C00D5E4F023AA6A1B021343AB62CFE49C4874
:10296C0000F0E6F9DD23FF22E2540BAB03930EAB30
:10297C00099311AB0193974B0593974B06931BE669
:10298C00964B974A9A2118000792089300F0E0F9A9
:10299C00A8E5A1214846934A890000F0D9F9BCE684
:1029AC00072102231068564688430343136053469D
:1029BC008D489D6E03E0B36E5B1B83429DD81368FC
:1029CC000B40022BF7D1B246FFF7DFFA019B0A2B23
:1029DC0000D1C8E0854800F0ABF9019B612B00D118
:1029EC0071E142D8392B38D8302B00D93AE100D0DC
:1029FC0033E180226F4C92006369134205D07C480E
:102A0C0000F096F980229200A2620021404600F06C
:102A1C008FF9784B784A5A61534600227433DA772F
:102A2C0070E60022013BEA80EB81DDE699681140FB
:102A3C00082900D103E199681140102900D1E7E081
:102A4C0099681140202900D139E19B681A40182A55
:102A5C0000D14AE10020FFF700FB019B3F2B00D087
:102A6C00FBE0664800F064F9D6E7019B712B00D1BE
:102A7C00E8E0732B08D10023544694201A0014214B
:102A8C00205800F067FBC7E76C2B00D0E5E08022F4
:102A9C005B49D20348690304134040228243134329
:102AAC008B61B9E702231068884303431360B56E4A
:102ABC004D4804E0B36E5B1B834200D91DE71368DD
:102ACC000B40022BF6D1B246FFF7B7FA5346039AE6
:102ADC001C3383CA83C35346099A283383CA83C3DE
:102AEC0004232A6813432B60A357012B00D045E520
:102AFC00534652469C63434B53635346019A3C33B3
:102B0C0083CA83C308232A6813432B60314BA25713
:102B1C000593314B0693012A00D031E520233A4A24
:102B2C0011680B43136047E550462649019C897F89
:102B3C00401883540A2C0AD04B1C2249DBB28B77E9
:102B4C0084541E2B00D0DDE5284800F0F1F85446E3
:102B5C00743421002D4800F0EBF80023A377D1E565
:102B6C00D368FFF70BFA174B1648997F4B1CDBB257
:102B7C0083772F20514488541E2B08D11B4800F01A
:102B8C00D7F81049214800F0D3F80E4B9C775446E7
:102B9C0000227434A37F2100E2541C4800F0C8F8D2
:102BAC000022A27738E7C0469C3F0008AC3F0008E3
:102BBC00002C014000040050F4380008803C000850
:102BCC008B020000000100203CC2FEFF031000003D
:102BDC00583E000874380008643C0008303C00087B
:102BEC00443E00083C3C000888130000B03F00083D
:102BFC005C3F000800740040FF0F0000383F0008E5
:102C0C0000080050B10C000800440040283F0008A8
:102C1C00DA68D968D243D8684906490F40040131B3
:102C2C00450E92075CD03348FEF740FE6843324BAA
:102C3C00D968490F0131FEF739FEFFF70EFA2F481C
:102C4C00FFF70BFA0223544694200E930721099A9E
:102C5C002058DB1800F07EFADEE60199284800F0D7
:102C6C0067F8D9E68022274C92006369134205D19C
:102C7C00254800F05DF880229200A261FA24019BA5
:102C8C00A400303B5C43A4B22100404600F050F855
:102C9C001E4A231C944200D9131C85229BB2D200DD
:102CAC00934200D21300194AD21A194B5343802273
:102CBC0012019446174A63441B0B5361ACE6802007
:102CCC000002FFF7CAF914491448203100F030F81B
:102CDC001349144A8B681A40042313438B609BE6F8
:102CEC000648FEF7E3FD6843A1E7FA20C001FFF7B1
:102CFC00B4F9C0460024F4000010024000127A001F
:102D0C00843F000800040050703F00084927000071
:102D1C004907000000740040F4390008243B000807
:102D2C0000240140E8FFFF7F10B5FEF723FC10BD27
:102D3C000FB400B583B004AB02CB01AA0020009302
:102D4C000193FEF71BFC03B008BC04B01847C04647
:102D5C00130010B50A0001000148FFF7E9FFFEE778
:102D6C00B43F00080A0010B501000020FEF7DCFBA0
:102D7C00C343DB17184010BD7047C0460023836067
:102D8C00426001607047C04610B503680400002B18
:102D9C0004D040689847A3680133A36010BDC046B7
:102DAC0001604B1E994100234942114041608360F0
:102DBC00C360704703009B68C068C01A4342584107
:102DCC00C0B270470200C368581E9368C01A53689B
:102DDC0000D5C0187047C04603008268C1685B68A4
:102DEC00501A00D5C0187047F0B54646D6464F4627
:102DFC000500C0B5EB688068013B0E0014001B1A7F
:102E0C001ED493421AD31700002F05D12000E0BC2A
:102E1C00BA46B146A846F0BDAB6828689C463A0055
:102E2C006044310000F088FAAB689C466B686744DC
:102E3C00AF609F42EAD10023AB60E7E70020E6E7F2
:102E4C006A6890464344A342F8D303199946270075
:102E5C009A42D9D8131A9A462B6852469C4660441B
:102E6C0000F06AFA00234246AB604B4656449F1A68
:102E7C00CAE7C046F8B54746CE4680B5C6688368F3
:102E8C00050088469C1B0BD4944207D82700002CC5
:102E9C0020D13800C0BCB946B046F8BD1400F5E7E7
:102EAC00436899464C44944200D9140033192700C6
:102EBC009945ECD84B469F1B2B683A009919404614
:102ECC0000F03AFA4B46F61AA419B84400263F19FA
:102EDC00002CDED0296822004046891900F02CFA1B
:102EEC00D7E7C046F0B54F464646D646C0B50F00AC
:102EFC008368C168060014005B1A1ED493421AD36F
:102F0C001500002D05D12000E0BCBA46B146A846FC
:102F1C00F0BDF36831689C462A006144380000F02B
:102F2C000BFAF3689C4673686544F5609D42EAD1E0
:102F3C000023F360E7E70020E6E74268904643444D
:102F4C00A342F8D30B19994625009A42D9D8531AA3
:102F5C009A46036852469C463800614400F0ECF9EE
:102F6C0000234246F3604B4657449D1AC9E7C046BE
:102F7C00012270B51E4906000400851D1D482378EA
:102F8C005840082305E0013B4008DBB24840002BC9
:102F9C0007D00242F7D1013B4008DBB280B2002BD4
:102FAC00F7D10134AC42EAD17388B2781D0A12020F
:102FBC0015431CD00122083675190D4CADB233786F
:102FCC00584080B2082306E04008013B6040DBB269
:102FDC0080B2002B07D00242F6D1013B4008DBB295
:102FEC0080B2002BF7D10136B3B29D42E7D170BD50
:102FFC0021100000FFFF000008207047042804D8AF
:10300C0083001B180248C01870470248FCE7C046F2
:10301C00D83F0008D43F000870B5040001204900D7
:10302C0001430F20184000231201024363802371D7
:10303C002000FF230725C9B221706270661D08228B
:10304C0001304B4004E0013AD2B2DBB2002A09D085
:10305C0059B25B000029F6DA013A6B40D2B2DBB20E
:10306C00002AF5D1B04201D00178E8E76371200065
:10307C00FFF77EFF030AE071A371200070BDC0460C
:10308C0070B5FF2307244679451D0278534008226A
:10309C0004E0013AD2B2DBB2002A09D059B25B008B
:1030AC000029F6DA013A6340D2B2DBB2002AF5D13C
:1030BC000130A842E9D1F01A42425041C0B270BD71
:1030CC00827843881202180A104370470078000770
:1030DC00400F7047407800097047C046B0B500AF4C
:1030EC00050000F0BFF86A46C31DDB08DB00D31AED
:1030FC009D460200040069462800FFF7BBFE80B223
:10310C00844203D00024BD462000B0BD684600F0C8
:10311C00D3F804002800FFF75FFE8442F2D8F2E7F0
:10312C0070B505000C001600002905D032002800EF
:10313C002100FFF735FE70BD3D21024A0248FFF722
:10314C0007FEF3E7F43F00080440000810B5FFF752
:10315C0031FE10BDF8B5DE4657464E464546E0B545
:10316C0000AF1E0080468A46914600F07BF86B4605
:10317C00C41DE408E4001B1B9D460500801983B2A6
:10318C003200514668469B4600F08AF8FEF778F804
:10319C004046FFF717FE002483450DD9FEF74EF885
:1031AC005B46E01ABD4643425841C0B2F0BCBB4638
:1031BC00B246A946A046F8BD2A0069464046FFF72C
:1031CC0013FE4B4684B2002BE8D0320049464046F1
:1031DC00FFF70AFE2418A4B2E0E7C046F8B54E4645
:1031EC004546DE465746E0B500AF06008946904698
:1031FC00FFF774FF0025041E07D1BD462800F0BC64
:10320C00BB46B246A946A046F8BD6A46C31DDB08BC
:10321C00DB00D31AEA469D46FEF732F822006946D7
:10322C003000FFF75FFE0600B6B2EB46FEF706F87D
:10323C00002E01D1D546E0E7684600F03DF8844207
:10324C0005D159464046C8470125D546D5E7252125
:10325C00024A0348FFF77CFDF3E7C0461C40000818
:10326C00044000080C20704710B5FEF713F902005B
:10327C000B0003480260436080235B02836010BD37
:10328C00E021002010B5FEF705F902000B00034801
:10329C000260436080239B02836010BDD02100201C
:1032AC0070B504000E001500FEF7F4F8668120607E
:1032BC0061602581200070BD00890C3080B27047A0
:1032CC00807A70470C30704770B500260C4D0D4C51
:1032DC00641BA410A64209D1002600F05BF90A4D2C
:1032EC000A4C641BA410A64205D170BDB300EB5868
:1032FC0098470136EEE7B300EB5898470136F2E7F2
:10330C00444000084440000844400008484000087D
:10331C0010B5034B0100186800F08CF810BDC046C6
:10332C000800002010B5034B0100186800F016F8D7
:10333C0010BDC04608000020002310B59A4200D1F1
:10334C0010BDCC5CC4540133F8E7030082189342DF
:10335C0000D1704719700133F9E7000070B5050012
:10336C00002910D00C1F2368002B00DAE418280069
:10337C0000F0F0F81D4A1368002B05D1636014604F
:10338C00280000F0EFF870BDA34208D9216860183E
:10339C008342F3D118685B6841182160EEE71A008C
:1033AC005B68002B01D0A342F9D911685018A042D8
:1033BC000BD120680918501811608342E0D11868AD
:1033CC005B68411811605360DAE7A04202D90C2304
:1033DC002B60D5E721686018834203D118685B68BD
:1033EC004118216063605460CAE7C046F021002098
:1033FC0070B50F4E0D0031680400002902D100F0A9
:10340C008FF830602900200000F08AF8431C0AD0A5
:10341C000323C51C9D43A84207D0291A200000F0A5
:10342C007FF8431C01D101256D42280070BDC046B8
:10343C00F4210020F7B50322CB1C9343083306007C
:10344C001F000C2B32D20C27B94231D8300000F0BF
:10345C0081F8324D2B681C00002C2ED13900300025
:10346C00FFF7C6FF0400431C1ED12C682500002D5D
:10347C004AD123682900E3183000019300F050F87A
:10348C00019B834243D123680337FF1A03239F43D5
:10349C0008370C2F00D20C2739003000FFF7A8FF9B
:1034AC00431C34D02368DF19276013E0002BCBDAE0
:1034BC000C23002533602800FEBD2268D11B20D4CC
:1034CC000B2917D9E2192760A34211D12A6063682E
:1034DC00116053603000250000F044F807220B35D2
:1034EC00231D9543EA1A9D42E5D05B1BA350E2E7EE
:1034FC005A60ECE76268A34201D12A60EAE75A609D
:10350C00E8E723006468A7E72C006D68AFE70C239D
:10351C003000336000F026F8CDE7C046F0210020E3
:10352C00002370B5064D040008002B6000F024F851
:10353C00431C03D12B68002B00D0236070BDC04608
:10354C00F821002003000A7801311A700133002A97
:10355C00F9D1704710B5024800F00CF810BDC04608
:10356C00FC21002010B5024800F005F810BDC04643
:10357C00FC21002070477047044A030010680028A3
:10358C0002D0C318136070470148FAE700220020EC
:10359C0008220020F8B5C046F8BC08BC9E4670470F
:0C35AC00F8B5C046F8BC08BC9E4670474D
:1035B800120A0008040A0008040A0008040A00089D
:1035C800040A0008300A0008040A0008100A000863
:1035D800040A0008040A0008040A0008040A00088B
:1035E800420A0008880A0008D40A0008E40A000809
:1035F8000C0B0008D40A0008D40A0008D40A0008F2
:10360800D40A0008D40A0008D40A0008D40A00081A
:10361800D40A0008D40A0008D40A0008D40A00080A
:10362800D40A0008D40A0008D40A0008D40A0008FA
:10363800D40A0008D40A0008D40A0008D40A0008EA
:10364800D40A0008D40A0008D40A0008D40A0008DA
:103658001A0B0008D40A0008D40A0008D40A000883
:10366800260B0008300B0008A00B00088C0B000884
:10367800B00B0008A00B0008A00B0008A00B000866
:10368800A00B0008A00B0008A00B0008A00B000866
:10369800A00B0008A00B0008A00B0008A00B000856
:1036A800A00B0008A00B0008A00B0008A00B000846
:1036B800A00B0008A00B0008A00B0008A00B000836
:1036C800A00B0008A00B0008A00B0008A00B000826
:1036D800D60B0008A00B0008A00B00089C0B0008E4
:1036E8009C0B0008BE0B0008140C0008240C0008F2
:1036F800320C0008140C0008140C0008140C000804
:10370800140C0008140C0008140C0008140C000811
:10371800140C0008140C0008140C0008140C000801
:10372800140C0008140C0008140C0008140C0008F1
:10373800140C0008140C0008140C0008140C0008E1
:10374800140C0008140C0008140C0008140C0008D1
:10375800400C0008140C0008140C0008140C000895
:103768005C0C00084A0C0008921600086A1600084B
:103778006A1600086A1600086A1600086A16000821
:103788006A1600086A1600086A1600086A16000811
:103798006A160008D41700081A1700086A160008E5
:1037A8006A1600086A1600086A1600086A160008F1
:1037B8006A1600086A1600086A1600086A160008E1
:1037C8006A1600086A160008F81600086A16000843
:1037D8006A160008D21600086A160008B216000811
:1037E8006A1600086A160008921600086173736565
:1037F80072745F6661696C65640000007278457276
:10380800726F7243616C6C6261636B0074784572AD
:10381800726F7243616C6C6261636B0050617474A7
:1038280065726E4974657261746F725F636865630F
:103838006B5061747465726E000000003031323371
:10384800343536373839414243444546436F6D6D08
:10385800735F77616974466F7253796E6300000015
:1038680064697370617463684576656E74000000FE
:10387800737461746549646C65000000010202019B
:1038880004080804737461746550756C73696E6715
:10389800000000007374617465506175736564009D
:1038A8004253505F646F4368616E6E656C41637428
:1038B800696F6E00486172644661756C745F486137
:1038C8006E646C657200000073707572696F757351
:1038D8004952510054494D315F42524B5F55505F38
:1038E8005452475F434F4D5F49525148616E646C73
:1038F80065720000444D41315F4368616E6E656CCE
:10390800315F49525148616E646C65720000000075
:10391800000000000000000000000000000000009F
:10392800000000000000000000000000000000008F
:103938000100000002000000030000000400000075
:103948000600000007000000080000000900000051
:10395800696E697441444331000000004253505F6E
:10396800726567697374657250756C736544656CCC
:1039780065676174650000004253505F726567694E
:103988007374657241707054696D657248616E64D4
:103998006C657200050A0A050102020504020A04A0
:1039A8000408080501080A01050A020105020204C3
:1039B800040A080405080801010A0A054E6F6E6525
:1039C80000410000000042000000004142000000E9
:1039D8004300000000414300000042430000004152
:1039E80042430000440000000041440000004244FB
:1039F80000000041424400004344000000414344A9
:103A08000000424344000041424344004253505F97
:103A180074726967676572414443000025732825FD
:103A2800732C202575290A002573282575290A0075
:103A380025733A2073686F727420696E20656C6311
:103A48006F6E202568750A0050756C73652077695C
:103A58006474682069732025687520C2B5730A00EC
:103A680070742D3E706163655F6D73203E3D203438
:103A7800000000007372632F6273705F73746D339C
:103A880032673037312E630070742D3E70756C7359
:103A9800655F77696474685F6D6963726F7320210D
:103AA8003D20300070742D3E6E725F6F665F7075DA
:103AB8006C73657320213D203000000028656C631D
:103AC8006F6E5B305D202620656C636F6E5B315DC9
:103AD80029203D3D203000005465726D696E616C8F
:103AE8000000000052545400534547474552000017
:103AF80054696D6520253032753A253032753A257E
:103B08003032750A000000005265636569766564A5
:103B1800207369676E616C2025640A0025730A00AA
:103B2800257328256875293F0A000000257320455C
:103B38004E5452590A000000257320455849540A2A
:103B48000000000021205061747465726E4974652C
:103B58007261746F725F646F6E6528266D652D3EA5
:103B6800706929007372632F73657175656E63657B
:103B7800722E630050756C736520747261696E20D3
:103B88006C6173742070756C736520646F6E650A60
:103B98000000000050756C736520747261696E20B6
:103BA80066696E69736865640A000000536571751B
:103BB800656E6365725F257320756E6578706563E1
:103BC800746564206576656E743A2025750A000070
:103BD8004C6173742070756C736520747261696EC2
:103BE8002066696E69736865640A000052657375BA
:103BF8006D696E672E2E2E0A0000000050756C73DA
:103C08006520747261696E2066696E69736865649F
:103C1800202D2070617573696E670A006E627220CC
:103C28003D3D2031000000007372632F636F6D6D9E
:103C3800732E63006273702E637269746963616CBA
:103C48005F73656374696F6E5F6C6576656C202160
:103C58003D2055434841525F4D4158002573282562
:103C680075293A20756E6B6E6F776E20646576697C
:103C780063652069640A00006273702E6372697458
:103C88006963616C5F73656374696F6E5F6C657699
:103C9800656C20213D2030007366203D3D204E5547
:103CA8004C4C0000476F74202573206672616D6567
:103CB8002C207365715F6E723D25326868752C2003
:103CC8007061796C6F61645F73697A653D256875A9
:103CD8000A00000025732C20494353523D307825B3
:103CE800780A000020205469703A2068616C7420BA
:103CF8004350552C206368616E6765206775617253
:103D080064204020257020746F20302C2074686552
:103D18006E20737465702E0A0000000050742053E2
:103D2800523D307825780A00434331202568750ACA
:103D380000000000434332202568750A0000000097
:103D4800414443206F76657272756E0A0000000068
:103D58004144432072656164790A0000414443206C
:103D68006368616E6E656C20636F6E66696720724A
:103D7800656164790A00000041444320454F430AC5
:103D88000000000041444320454F530A0000000052
:103D9800414443312D3E4953523D307825780A003D
:103DA800497072696D3D2568752C20566361703DB8
:103DB8002575206D562C20566261743D2575206D41
:103DC800560A000025732C2054454946310A000044
:103DD80025732C204953523D307825780A0000007D
:103DE800496E697469616C6973696E672E2E2E0A53
:103DF8000000000044657649643D307825782C2021
:103E080053797374656D436F7265436C6F636B3D73
:103E180025750A004C4C5F4144435F5245475F4952
:103E28006E6974206572726F723D25750A00000014
:103E380025733A205053433D25750A006D652D3E84
:103E48006368616E6E656C5F6664203C20300000BC
:103E580043616E206F6E6C7920757365206F6E6597
:103E68002073657269616C20706F727420617420B0
:103E7800612074696D652C20666F72206E6F770AF9
:103E8800000000002025336875202A207B25732C2C
:103E98002025737D0A000000546F74616C206E75D4
:103EA8006D626572206F662070756C7365733A2059
:103EB80025750A004D6F76696E67205061747465C8
:103EC800726E2044656D6F005374617274696E6719
:103ED800202573206F6E204E656F444B210A000029
:103EE800507573682074686520627574746F6E20ED
:103EF800746F20706C6179206F72207061757365C2
:103F080021203A2D290A000053657474696E6720D0
:103F18005663617020746F20256875206D560A00FD
:103F2800436F6E736F6C653A20272573270A00006C
:103F3800436F6D6D616E64733A202F3F202F6120AF
:103F48002F6C202F71202F73202F30202F312E2EF1
:103F58002F390A005475726E696E67205663617056
:103F6800204F46460A0000005475726E696E67203D
:103F780056636170204F4E0A00000000556E6B6E4C
:103F88006F776E20636F6D6D616E6420272F2563D8
:103F9800270A0000456E64206F6620736573736995
:103FA8006F6E0A00427965210A00000041535345AB
:103FB8005254494F4E204641494C454420282573C8
:103FC800203A202575292025730A00004241440023
:103FD8004E4F4E450041434B00004E414B000053AD
:103FE800594E4300444154410000000073746F72FD
:103FF80061676520213D204E554C4C006D616F6C0A
:1040080069622F7372632F6576656E747175657555
:10401800652E63006576656E745F73697A65203D09
:104028003D20414F4576656E745F73697A652865F2
:044038007674290071
:08403C00FCDBFF7F0100000026
:04404400E50000088B
:04404800BD000008AF
:10404C000024F400040000000C000020000000001C
:10405C000000000000000000000000000000000054
:10406C000000000000000000000000000000000044
:10407C000000000000000000000000000000000034
:10408C000000000000000000000000000000000024
:10409C000000000000000000000000000000000014
:0C40AC0000000000000000000000000008
:0400000508001DD101
:00000001FF
