:020000040800F2
:100000000090002051320008A1320008A11C000815
:1000100000000000000000000000000000000000E0
:10002000000000000000000000000000A1320008F5
:100030000000000000000000A1320008FD1C0008C4
:10004000A1320008A1320008A1320008A132000844
:100050000D1D0008A1320008A1320008612000082F
:10006000A132000869210008A1320008A13200086D
:10007000CD200008291D0008911D0008211E000840
:10008000A1320008B1200008A1320008A132000806
:10009000A1320008A1320008D91E0008A1320008D0
:1000A000A1320008A1320008A1320008A1320008E4
:0C00B000D5210008A1320008A132000890
:1000BC0010B5064C2378002B07D1054B002B02D032
:1000CC00044800E000BF0123237010BD7000002025
:1000DC0000000000A0570008044B10B5002B03D003
:1000EC000349044800E000BF10BDC04600000000FA
:1000FC0074000020A0570008F0B50124C0238440F0
:10010C000B4D5B00EC500700830803203840FF27A1
:10011C00AC46C026C0008740890181409B006344E7
:10012C00B6009A59BA430A439A512C60F0BDC046A6
:10013C0000E100E0F0B5C64600B582B0070008A8A3
:10014C000088002484461848804605002E78BE425C
:10015C0007D001340C350A2CF8D102B080BCB8465B
:10016C00F0BD654660000419A4004444A0680093E7
:10017C000195130065680A003900A8476388012BB4
:10018C0004D0002BE9D0013B6380E6E7782143469D
:10019C005B5C013BDAB243465A5453009B189B00FC
:1001AC00434407CB07C4D8E78C00002070B50F4E32
:1001BC00002334002578854213D001330C340A2BEC
:1001CC00F8D17824335D0A2B0AD05D1C35555C00C0
:1001DC00E418A400331930550548996058605A80CA
:1001EC0070BD5800C3189B00F318F5E78C00002075
:1001FC0059100008F0B501224F46D64646460B680A
:10020C0000249146C0B5002B1AD14BE01700574380
:10021C007B00DB19DB43C568AC4666460D691E40A6
:10022C007D433543C5604D68022D2DD07D4302685A
:10023C0013402B4303600B681A000134E24031D0A9
:10024C004D461A00A5402A402B42F5D04B68013B85
:10025C00012BDBD81700574383688D6898467B00C9
:10026C009C467D43BC44AA4646466546AE43350093
:10027C00564663462E438660CE6845685643954382
:10028C003543DB434560C6E7FF2A10D83D007D436C
:10029C00026A2E01761BB2434E6975432A430262F1
:1002AC004D68C3E7E0BCBA46B146A846F0BD120A99
:1002BC0052435243456A1601B61AB5434E6972430E
:1002CC002A4342624D68B1E710B511240200084878
:1002DC000B00016AA14301628020064980008862FC
:1002EC00DA38FF3888610449044803F041FFFEE71F
:1002FC00002C014000040050B05C0008F45F0008C2
:10030C00FA2170B5124C05008900206802F00EFD30
:10031C00802301385B04984201D3012070BDC021B9
:10032C000C4A090650600C48036A1B021B0A0B435B
:10033C0003620721002393601160032DEDD8026A3C
:10034C00A9071202120A0A43026218006560E5E767
:10035C000000002010E000E000ED00E010B50A0005
:10036C0002490348103103F003FF10BDB05C0008D4
:10037C000060000810B50A0002490348203103F060
:10038C00F7FE10BDB05C00080060000870B50C00F2
:10039C005026050082B01D4803F0EAFEF4236643A4
:1003AC00EC54002E14D12B000122F43300920021C6
:1003BC0003320720FFF7BEFE610832340C19E4B299
:1003CC002100134803F0D4FEE435AC7102B070BDCB
:1003DC003100104803F0CCFE0F4B104ACC331E807A
:1003EC00331C964200D9131C0D4A9BB2934200D287
:1003FC0013000A4AD21A0B4B534380221201944623
:10040C00094A63441B0B5361CDE7C04608600008E2
:10041C0040600008286000088C000020D3270000F2
:10042C00B2040000490700000074004010B5C188F8
:10043C00354A0139D1620189030001391163002168
:10044C0006205162116981431161197B002941D049
:10045C000020012900D010BD5989043002318905D2
:10046C00090E9163D1680143D160012026494A6984
:10047C0002434A611A795B79110019430A1E234B16
:10048C003AD04021D2439961D3B2024237D1204AAB
:10049C00906202221E491A422CD08A6104221C4905
:1004AC001A4225D08A611B071ED52022184B9A614F
:1004BC000023154C174A6363A3639433D058262149
:1004CC000023002204F0BCF801222368012013430E
:1004DC002360C0E75989043802318905090E51633C
:1004EC00D1680143D160C0E72022094B9A62DFE753
:1004FC008A62D8E78A62D1E740229A62FF230121FF
:10050C00034A9161C5E7C046002C01400008005029
:10051C00000400508C0000204B1E9941012310B5A3
:10052C0049429943002200230E3104F089F810BD92
:10053C0070B5060014001D0082B080360092019345
:10054C0032687368A41A9D41002D04D1074B9C425C
:10055C0001D802B070BD08236A46142104F070F86B
:10056C00009B019C33607460F3E7C046BFE1E4007C
:10057C00F0B5418903008BB00020002901D10BB0EC
:10058C00F0BD1C7B18689E881A79002C48D1817BA1
:10059C001D7A06AC491B01392181012152001973C6
:1005AC0041688D18895C21716D7865719A7992001A
:1005BC0062814389C820E3808000824200D9608137
:1005CC000D4242D105220A4051424A412273294A26
:1005DC009446294A63449BB2934209D86389052BFC
:1005EC0006D92389002B03D02000FFF71FFFC6E795
:1005FC00224803F0BDFD6189637902318905090E3A
:10060C0022790491617B1E480391E1880291218932
:10061C000191217B0091069903F0AAFD0020AEE721
:10062C0001320489D5B2AC420DD06A001D7A06ACF9
:10063C000135EDB21D722581877B013FBD420CD087
:10064C0000211973ACE70022F0E740210D4A0E4857
:10065C0003F09EFD2179E388B4E700250136B6B29C
:10066C001D729E800789B742EAD101399D8059815C
:10067C00E6E7C04678ECFFFF9CE0000094600008C1
:10068C00A86000086460000880600008032310B5AF
:10069C00104C114A23616361104BA261E36180230A
:1006AC009B0123620023A3626362E36222660C4A0D
:1006BC000C49603262661022E01DA2662367E36675
:1006CC00636704F0B9FC2000074904F0B5FC202353
:1006DC00A37110BDB021002004610008B0010020FE
:1006EC000C0100201061000814610008F8B54746A1
:1006FC00CE4680B58368C56899465B1B98464368AF
:10070C0004000E0017005819904507D9ED1904F094
:10071C0059FBE560C0BCB946B046F8BD424604F092
:10072C0051FB4B463100ED19ED1A2A00606841442B
:10073C0004F048FBE560EDE7F0B557464E464546FC
:10074C00DE46E0B5354B83B09A461B7806001500A3
:10075C000191002B56D07700BB19DB0053441A6F64
:10076C009046DA6E9146904525D8130042462C00EF
:10077C009B1A9D4209D8002C09D1200003B0F0BC73
:10078C00BB46B246A946A046F0BD1C1EF5D0A146FC
:10079C00BB19DB005344596E220041440198A0441C
:1007AC0004F010FB4C46002CE7D04346BF19FF0069
:1007BC0057443B67E1E742469B6E2C009B1A9D42D7
:1007CC0027D8BB19DB0053449B46596E2200414489
:1007DC00019804F0F7FA5B469B6EA0442D1B434531
:1007EC0019D04B4642469B1A99464D450DD8002DC3
:1007FC00D9D0019BA1469C46A44463462C0001938E
:10080C00A944C5E7FFF742FFA5E74D46002DCAD026
:10081C00EFE71C00D5E700239846E6E7B02100205F
:10082C00F8B557464E46DE4645468946411CE0B56E
:10083C0017004A0052180300D2009246344A5E0058
:10084C0093461000F618F6005E44F36A504498463E
:10085C00012B0CD0022B27D0002B17D0002398464D
:10086C004046F0BCBB46B246A946A046F8BDB36AAA
:10087C00726A934247D9013B9B1AB8469F4200D9F2
:10088C00984642464946FFF731FFE9E7B36A726A78
:10089C00934233D9013B9B1A9F42E1D83A00494617
:1008AC00FFF724FFB846DBE70023746A98461DE087
:1008BC00013B356A1B1BBB4200D93B002D1B9D42E3
:1008CC0000D91D005B46534458682A00494600195C
:1008DC0004F078FA336A6419E31A5A1E93415B42A6
:1008EC001C40A844A9447F1B7462B9D0B36AA342CC
:1008FC00DED8356A5B19013B1B1BDCE7316A5B18E0
:10090C00013B9B1AC8E7316A5B18013B9B1AB4E7A1
:10091C00B0210020F0B5C64600B5856843686A1C56
:10092C0004009A4207D8036859551500C3688260C1
:10093C000133C36043689D4202D080BCB846F0BD11
:10094C002368276998460E4B1B78002B15D0EFF3C4
:10095C001086012181F310882A0041463800FFF7E8
:10096C005FFF86F31088A368834203D001235B42A8
:10097C00E360E2E70023A360DFE7FFF787FEE6E72B
:10098C00B0210020F0B54E4645465746DE46E0B550
:10099C0083B09A460C9B80460E00150099469142F6
:1009AC0000D27DE008000127290002F0BFF90137D1
:1009BC008542F9D9574500D2574601230D9A1A4062
:1009CC0001920D9A13424ED14B46002B4BD0130083
:1009DC0020249B075ED44F4545D201235B429C46A5
:1009EC0021004046E144FFF795FF4346DB68002BAE
:1009FC0032DB4B46002BEED153460124012B07D999
:100A0C0001235B429C46E24453466C43012BF7D8CE
:100A1C002100300002F08AF98542F5D9214B9B4622
:100A2C0030239A4606E02900200002F07FF9AC4200
:100A3C000FD304003000210002F0FEF95346584455
:100A4C000E00C15C4046FFF765FF4346DB68002B98
:100A5C00E9DA019B002B19D103B0F0BCBB46B246BE
:100A6C00A946A046F0BD4346DB68002BC4DAF3E789
:100A7C004F45F1D201235B429C4620214046E14484
:100A8C00FFF748FF4346DB68002BE5DB4B46002BAA
:100A9C00EED1E1E753465C425C41240120349AE7F5
:100AAC00012787E7B05C000810B5080003F07EFE54
:100ABC00034902004031034803F05AFB002010BDEB
:100ACC00B05C00081C61000810B5080003F06EFE55
:100ADC00034902004C31034803F04AFB002010BDCF
:100AEC00B05C00084061000810B50400806F03F092
:100AFC00A3FD002801D1002010BD606F03F09CFD08
:100B0C000028F8D0200003F097FDF5E770B5D0264B
:100B1C007600835904009847051E1DD0A65903F092
:100B2C0027FE01002000B047002805D03A210B4ACF
:100B3C000B48FF3103F02CFBD0235B00E55003F096
:100B4C0009FE01002000A847002805D09E21034A79
:100B5C000348490003F01CFB70BDC04664610008EB
:100B6C007061000870B5DC26835904009847051E97
:100B7C001CD0A65903F0FCFD01002000B047002852
:100B8C0005D0B3210A4A0B48490003F001FBDC23D2
:100B9C00E55003F0DFFD01002000A847002805D038
:100BAC006A21034A0348FF3103F0F2FA70BDC046D4
:100BBC006461000884610008F8B505000E0072B687
:100BCC00BFF34F8FBFF36F8F284C2700C4373B7890
:100BDC00FF2B3DD022000133C4321370244B012271
:100BEC00EF183100380003F0A1FB012804D0D0210C
:100BFC00204A214803F0CCFA380003F011FB0028FE
:100C0C0010D02500C4352B78002B19D0013BDBB25A
:100C1C00C4342370002B04D1BFF34F8FBFF36F8FFD
:100C2C0062B6F8BD154BEA56012A18D025001449B6
:100C3C0014485831C43503F09BFA2B78002BE5D1BE
:100C4C00B721114A1148890003F0A2FA2B78DDE78D
:100C5C000F4A10490D4803F09BFA3B78BAE7802104
:100C6C000D4A13688B431360CBE7C0468C00002001
:100C7C0064100000D0610008DC610008D51400008D
:100C8C00B05C0008EC61000808620008BC61000858
:100C9C0094610008D502000000440040F8B5224DD4
:100CAC000400435D5A1CD2B24255C3181F488446F7
:100CBC0063441970072A08D91C4BE618082A0DD072
:100CCC001B4BE05A0830824201D00020F8BD0022B4
:100CDC00154B3000E25403F055FCF7E7300003F0FD
:100CEC002DFC00280BD0300003F058FC8023104F53
:100CFC000100E0539B00984210D8625DE2E7615D11
:100D0C000139C9B261550029DFD000237278013353
:100D1C00DBB2327001369942F8D1D6E7054803F0C0
:100D2C0027FA0023E353D0E7D4140000CC120000C0
:100D3C00D61400002862000870B584B00B00009235
:100D4C0005000022012102A803F088FB72B6BFF354
:100D5C004F8FBFF36F8F234C2600C4363378FF2B95
:100D6C0033D022000133C43213701F4B082202A966
:100D7C00E81803F05DFA002811D12500C4352B7852
:100D8C00002B1AD0013BDBB2C4342370002B04D1EE
:100D9C00BFF34F8FBFF36F8F62B604B070BD134BB0
:100DAC00EA56012A18D02500114912485831C43589
:100DBC0003F0DEF92B78002BE4D1B7210E4A0F4853
:100DCC00890003F0E5F92B78DCE70D4A0D490B4857
:100DDC0003F0DEF93378C4E780210B4A13680B4328
:100DEC001360CAE78C00002064100000D5140000CA
:100DFC00B05C0008EC61000808620008BC610008E7
:100E0C0094610008D502000000440040F0B50600D3
:100E1C00C64610001D00624B00B5F25C82B0940116
:100E2C00A4186400A418A400043434190B00019510
:100E3C0000900421200003F049FB083572B6BFF383
:100E4C004F8FBFF36F8FC4239846564FB844434619
:100E5C001B78FF2B3DD03A000133C4321370524B38
:100E6C0021002A00F01803F0E3F9041E18D1C42362
:100E7C009846B84443461B78002B21D03A00013BDE
:100E8C00DBB2C4321370002B04D1BFF34F8FBFF30E
:100E9C006F8F62B6A54224D002B080BCB846F0BDBC
:100EAC00424BF256012A5ED041494248583103F078
:100EBC005FF9C4239846B84443461B78002BDDD118
:100ECC00B7213D4A3D48890003F062F943461B783F
:100EDC00D4E73B4A3B49394803F05AF943461B785F
:100EEC00B9E772B6BFF34F8FBFF36F8F3C00C434BA
:100EFC002378FF2B4DD0390070205A1CC431D2B24C
:100F0C000A703149314C496A255A89B221528D42B5
:100F1C0007D9200070304188013189B24180002905
:100F2C0027D0002A29D0C4373B70002B04D1BFF343
:100F3C004F8FBFF36F8F62B6832189008C461848A0
:100F4C00216F325C646F93019B185B009B189B00B4
:100F5C00F318E4074908634421431960072301325D
:100F6C001A40325498E78021194A13680B431360D6
:100F7C007DE7616F01316167D3E7B7210E4A0F48F6
:100F8C00890003F005F93B00C4331B78013BDBB24D
:100F9C00C9E70B4A0B49094803F0FAF82378AAE78A
:100FAC00D81400008C00002064100000D514000040
:100FBC00B05C0008EC61000808620008BC61000825
:100FCC0094610008D5020000004801400C0100208B
:100FDC0000440040B0B582B000AF05000C00FA71BF
:100FEC00002A28D10121042003F07AFC03006A4670
:100FFC001333DB08DB00D31A5A8821889A8000222D
:10100C001A805A809D46A288D98001215A81198163
:10101C00FA1D012303A8033103F07CFCD422030046
:10102C0052000C33A85801216A469BB2FFF7EEFE22
:10103C00BD4602B0B0BD8B88024903486C3103F049
:10104C0097F8CFE7B05C00084C620008F8B5DE46B4
:10105C0057464E464546E0B51D00282300AFFB1809
:10106C00914604CB06001B8888462800190093463D
:10107C009A4603F035FC6B461330C408E4001B1B86
:10108C005A889D469A8000221A805A804A46DA80F5
:10109C0005221A81424629005A8103A853465A4612
:1010AC0003F038FCD422030052000C33B058012159
:1010BC006A469BB2FFF7AAFEBD46F0BCBB46B246E1
:1010CC00A946A046F8BDC0460FB430B597B01AA9D2
:1010DC0020C92800019103F041F82A000400502196
:1010EC00019B02A803F0F0FF002808DD94220749B9
:1010FC00013083B28858002102AAFFF787FE200036
:10110C0017B030BC08BC04B01847C0460C01002016
:10111C0070B5050082B008000C0003F047FBC31F3C
:10112C00DBB20D2B03D827499B00CB589F460200FE
:10113C002549264803F01CF802B070BD200003F0CE
:10114C0039FB04682248210003F012F8022CF3D179
:10115C0088230022EA54EFE7002300221F21A86F06
:10116C0003F06EFAE8E7200003F024FB03001A6991
:10117C000068043300920ECB02F0FAFFDCE720008B
:10118C0003F018FB002341680068124A01F06EFF5F
:10119C0004003C21200001F04FFE20000E003C21F9
:1011AC0001F0C4FD3C2101F047FE0D00E1212000BF
:1011BC00090101F0BBFD330001002A000648FFF7CE
:1011CC0083FFB9E7B8570008305D0008906200084B
:1011DC007C62000840420F006462000870B5040095
:1011EC000D0082B0002926D029681948FFF76CFF42
:1011FC00E026E423A551E55023000021E433D97106
:10120C00AA8920005A81002299801A721A7310310F
:10121C00FFF7BCF8A459002C13D02468200001F06F
:10122C0073FD80B2009023000C2200210620FEF7F3
:10123C0081FF02B070BDA521064A074802F0A8FF45
:10124C00D2E7A521034A044802F0A2FFE5E7C04615
:10125C00BC620008A0620008AC620008F0B5D6467B
:10126C004F464646C0B505008CB008000C0003F094
:10127C009DFA1538C0B212281BD8694A8300D3587E
:10128C009F46E0236749EB581031002B07D05B1ABF
:10129C001B1101339BB2052B01D01B01C91828006F
:1012AC00FFF79CFF60480CB0E0BCBA46B146A846BC
:1012BC00F0BD200003F07AFA5A49020060315B4815
:1012CC0002F056FF0020EEE7200003F073FA81468F
:1012DC00200003F06DFA534B554F1E00804638002A
:1012EC009A460024103601F00FFD40450AD0013417
:1012FC00A4B21036052CD5D03768380001F004FDA7
:10130C004045F4D142463900484603F04DFD0028D3
:10131C00EDD15346210110335918C0E7200003F0DA
:10132C0049FA01782800FFF731F80020BBE72000CC
:10133C0003F040FA0600200003F03AFA27216A462F
:10134C000023D82752181370040013003100020038
:10135C00E85903F011FC002839D0E8590AA903F028
:10136C00FDFB04230A200093102200210AABFEF798
:10137C00E1FE002097E7200003F01CFA2D4A81883B
:10138C000AAC5143890B2180438809045A43920BC0
:10139C00628000881204C3011B181B011B1A9B0AD4
:1013AC00A3801B041B0C120C090C2348FFF78CFEAA
:1013BC00062303200093102223000021FEF7BAFE1F
:1013CC00002070E71D4802F0D3FE00206BE72722B7
:1013DC006B469B1819781A4802F0CAFE708971780E
:1013EC008446307B72688046707B337A8146F07815
:1013FC00757A8246B77800200E2C01D90E20305613
:10140C00069050460590484604904046039060462E
:10141C000197029000950B4802F0AAFE002042E7CB
:10142C00F0570008305D0008551400081C610008D6
:10143C00D06200084DCE0000DC620008906300080A
:10144C00046300082063000830B5040083B0080072
:10145C000D0003F0ABF9282806D8294B80001B5847
:10146C009F46002003B030BD29002000FFF7F6FE98
:10147C00F8E7E023E4220021E358A350E434E171BF
:10148C009A89A18062810022227222739A7B002A9F
:10149C00E7D019681B48FFF717FE1B48E2E71B490A
:1014AC001B486C3102F064FE0122F523E254230048
:1014BC00082000920021F5330332FEF73BFE00209A
:1014CC00D0E7E423E458002C14D021681148FFF72E
:1014DC00FBFD0020C6E70D490F486C3102F048FEB9
:1014EC000020BFE7D823E05803F022FB0028B8D136
:1014FC000A48B7E7A5210A4A0A4802F049FEE4E780
:10150C003C580008CC63000879180008305D0008CE
:10151C00A4630008DC630008B863000835150008F4
:10152C00A0620008AC620008F0B5D64646464F46AD
:10153C00C0B5060088B008000D0003F037F90400B0
:10154C0028281BD8BA4B82009B589F46D82304AD41
:10155C002900F05803F066FB0024002800D0F3E0CB
:10156C00AB7BDB0700D5E1E0F623F454002420002C
:10157C0008B0E0BCBA46B146A846F0BD2900300020
:10158C00FFF76CFE0400F2E7F623F35C002BEDD1C1
:10159C00A84CECE7F525735D022B00D11CE100246F
:1015AC00032BE4D18027A449FF057A6A3031A34884
:1015BC0002F0DEFD01223B68002193433B600223D5
:1015CC007355330000920820F5330332FEF7B2FD59
:1015DC009B48FFF779FDCAE7974FE4223900994BF6
:1015EC0008317833B350984802F0C2FDF52303223A
:1015FC00F254F43B00939846330000210820F53355
:10160C000132FEF797FDD82304AD2900F05803F002
:10161C0009FB002840D10024A6E7874D802429002F
:10162C00E405626A3031854802F0A2FD012223688C
:10163C0093432360D823F05803F06AFA29008348B7
:10164C00083102F095FD002491E7F523F25C0024AB
:10165C00022A00D08BE70132F25401273300802597
:10166C00F5330021013208200097FEF763FD78481E
:10167C00FFF72AFD7049ED056A6A7048483102F09F
:10168C0077FD2B683B432B6071E7F525735D0024D8
:10169C00032B00D06BE785E7049B39009A4628237F
:1016AC005B4253441A0018316A48994602F060FDB7
:1016BC0052468023293ADB055A634A4641465A6210
:1016CC001A680A431A6072B6BFF34F8FBFF36F8F5D
:1016DC00C4239846604FB84443461B789C46FF2B66
:1016EC0000D19CE06346591CCBB29946C423984662
:1016FC00B84443464A461A703B00D03307CD07C363
:10170C00286818604B46002B5AD03B006246C43305
:10171C001A70002A04D1BFF34F8FBFF36F8F62B6DC
:10172C00D023FA588023DB055A631DE7D82303A97D
:10173C00F05803F013FA04231022009300210A201E
:10174C0003ABFEF7F7FC0FE772B6BFF34F8FBFF397
:10175C006F8F414F3C00C43423789C46FF2B56D0EE
:10176C0063463C00591CCBB2C434237098463B00F2
:10177C002800D033A14616C816C30068186043462B
:10178C00002B11D03B006246C4331A70002A04D1DE
:10179C00BFF34F8FBFF36F8F62B6D023FA588023FD
:1017AC00DB0501245A63DBE6B7212C4A2C4889005F
:1017BC0002F0EEFC4B461A78013AD3B29C46E1E7B4
:1017CC00B721264A2648890002F0E2FC43461A78E3
:1017DC00013AD3B29C4698E7013373553300802409
:1017EC00F43DF5330422002108200095FEF7A2FCFD
:1017FC001748FFF769FC1049E405626A0F48483145
:10180C0002F0B6FC23682B4323600024AFE6154A94
:10181C001549134802F0BCFC23789C46A0E7114AFA
:10182C0011490F4802F0B4FC43461B789C4659E71B
:10183C00E058000855140008B05D0008F463000877
:10184C0018640008305D0008A4630008B863000841
:10185C0004640008EC6300088C0000200862000897
:10186C00BC61000894610008D502000030B504008A
:10187C0083B008000D0002F099FF282803D82C4AE9
:10188C00800013589F4629002000FFF7E7FC03B0A7
:10189C0030BD2848FBE728492848643102F068FC31
:1018AC00E023E558002D36D02D68280001F02CFAE5
:1018BC0080B22B000C22002100900620FEF73AFC8F
:1018CC00F5230322E2542300023A0820009200215F
:1018DC00F5330332FEF72EFC2000E430FEF748FE11
:1018EC000020D4E714491648643102F041FC002072
:1018FC00CDE72000E430FEF73BFE03000020002B78
:10190C00C5D1E433E458002C0BD021680D48FFF707
:10191C00DBFB0D48BBE7A5210C4A0D4802F038FC57
:10192C00C2E7A521094A0A4802F032FCEDE7C0469D
:10193C008459000861190008B05D0008A463000810
:10194C00B8630008DC63000855140008A0620008A6
:10195C00AC620008F0B5D6464F464646C0B5050009
:10196C0082B008000C0002F021FF282803D8514B4C
:10197C0080001B589F4621002800FFF76FFC02B027
:10198C00E0BCBA46B146A846F0BD4B494B48743151
:10199C0002F0EEFBF5230222EA542B00013A082058
:1019AC0000920021F5330332FEF7C4FB0020E6E77A
:1019BC0041494348743102F0DBFB0020DFE7E423AC
:1019CC00EC58002C64D021683E48FFF77DFB3E4864
:1019DC00D5E7E0233D49EB581031002B07D05B1ABB
:1019EC001B1101339BB2052B01D01B01C918280018
:1019FC00FFF7F4FB3648C2E7200002F0DBFE81461D
:101A0C00200002F0D5FE314B324F1E0080463800CC
:101A1C009A460024103601F077F940450AD001347B
:101A2C00A4B21036052CE5D03768380001F06CF9FB
:101A3C004045F4D142463900484603F0B5F9002838
:101A4C00EDD15346210110335918D0E7D823E8586B
:101A5C0003F06EF8002817D11F4890E7EE23EB5ADD
:101A6C00002B09D1E433EC58002C17D021681B480B
:101A7C00FFF72AFB164882E7E423EC58002C13D01E
:101A8C0021681748FFF720FB002078E70E4876E71F
:101A9C00A521144A144802F07BFB94E7A521114AB6
:101AAC00114802F075FBE1E7A5210E4A0E4802F041
:101ABC006FFBE5E7285A0008B05D0008A463000836
:101ACC00B86300082864000879180008305D000825
:101ADC0055140008D062000835150008DC630008B6
:101AEC0038640008A0620008AC620008010030B540
:101AFC003039CBB283B0472B03D8574A9B00D3580D
:101B0C009F4601005548FFF7DFFA03B030BD8B004C
:101B1C00C9189023802501AA490011705049514CD5
:101B2C00C8588F3B222102F08BFD6369AD002B421C
:101B3C00EBD14D4802F01CFBA561E6E79023484A27
:101B4C00D0586433C25C023A131C642A00DD81E075
:101B5C0019B201AA0A2912DB13702221012302F007
:101B6C006FFDD2E790233E4AD0586433C25C0232F8
:101B7C00131C642A00DD642301AA092BECDC0A2364
:101B8C00EAE780223949D203486903041340402212
:101B9C00824313438B61B8E79023314A2021D058FC
:101BAC000023002202F04CFDAFE73148FFF78CFA1E
:101BBC00ABE78C242A4D002300220C21285902F07B
:101BCC003FFD002300220E21285902F039FD9CE72D
:101BDC0028492948FFF778FA97E79023204A1D21D6
:101BEC00D0580023002202F02BFD8EE72349244815
:101BFC0002F0BEFA234A244993680B4004210B439C
:101C0C00936082E78025174CAD0063692B421CD191
:101C1C000023134901AA13709033C85822218F3B1B
:101C2C0002F00EFD71E7942300210D4AD258174B98
:101C3C00D1546AE702230A4A01938A33D058072108
:101C4C00883B01AA02F0FCFC5FE7114802F090FA15
:101C5C00A562DDE764237BE7CC5A0008C864000862
:101C6C000C0100200004005094640008000800508F
:101C7C0048640008AC640008B8640008305E0008D2
:101C8C00A864000800240140E8FFFF7FD91400007D
:101C9C0080640008112110B50E4A0F48136A8B435B
:101CAC00136280220D4B92009A62DA3AFF3A9A61E3
:101CBC000B490C4B10315A6802F05AFA0A4C0123AA
:101CCC0021000A481C31237702F052FA237F002BA3
:101CDC00FCD110BD002C0140E06400080004005051
:101CEC00305E000800ED00E08C010020F06400087C
:101CFC00024A136A013313627047C0468C010020FC
:101D0C0010B5EFF3058203490348243102F030FA91
:101D1C0010BDC046305E000800600008012210B5FE
:101D2C00124B19690A421AD019689143196006219D
:101D3C00DA688A43DA601A6901318A431A61272208
:101D4C000B4B21319A6180220A4BD2039A61942366
:101D5C00094AD0580023002202F072FC10BD07493A
:101D6C001A693031064802F003FAF7E7002C0140FB
:101D7C0000040050000800508C000020305E000869
:101D8C0028650008022210B51C4BD9680A4202D003
:101D9C0019690A4228D10422184BD9680A4202D088
:101DAC0019690A4205D1154B15491A690A420ED117
:101DBC0010BD19699143134A1961CE321388104929
:101DCC0001339BB213800D4B1A690A42F0D01B6988
:101DDC000D48194002F0CCF9EFF305820B490C4881
:101DEC00243102F0C5F9E3E719699143054A1961F9
:101DFC00CE32138801339BB21380CCE7002C014008
:101E0C00E0FF0C008C00002028650008305E000804
:101E1C00006000088023022210B5DB0519690A4214
:101E2C0015D019691F48914319610300DD331B78E4
:101E3C00002B14D103000022CE331A800300D833B8
:101E4C001B88012B21D0D030FEF7F0FA10BDEFF338
:101E5C00058215491548243102F08AF9F6E702008B
:101E6C0013495B01CC3213801A1C8B4200D20A1C22
:101E7C00104B92B29A1A104B534380221201944683
:101E8C000E4A63441B0B5361D4E703000200DA33A0
:101E9C001B88D632023311889B051B0E5B185B1016
:101EAC001380D0E78C000020305E00080060000832
:101EBC00B2040000D3270000490700000074004062
:101ECC00408902308010C0B27047C0460222F8B57B
:101EDC00364B19690A420FD101211A69114203D0FC
:101EEC001A698A431A61F8BDEFF30582304931480B
:101EFC00243102F03DF9F6E719692F4C9143196131
:101F0C008023E66FE75872B6BFF34F8FBFF36F8F26
:101F1C002500C4352B78FF2B40D021007020274D95
:101F2C005A1CC431D2B20A70295A8C461F49496ACC
:101F3C0089B229528C450AD9280070304188013168
:101F4C0089B24180002902D1696F01316967002A89
:101F5C0018D02200C4321370002B04D1BFF34F8F62
:101F6C00BFF36F8F62B66B6F2A6FD90752080A43A3
:101F7C005B083800B04784210C4A6158536B5B18DE
:101F8C005363B0E7B7210E4A0E48890002F000F9FE
:101F9C002300C4331B78013BDBB2DAE70A4A0B4956
:101FAC00084802F0F5F82B78B7E7C0460048014026
:101FBC00305E0008006000088C0000200C0100203E
:101FCC0008620008BC61000894610008D50200009A
:101FDC0070B572B6BFF34F8FBFF36F8F084C2500EF
:101FEC00C4352B78FF2B03D00133C434237070BD60
:101FFC00044A0549054802F0CBF82B78F4E7C046B3
:10200C008C00002094610008D5020000BC6100081F
:10201C0070B50D4C2500C4352B78002B0BD0013B33
:10202C00DBB2C4342370002B04D1BFF34F8FBFF34A
:10203C006F8F62B670BDB721044A0548890002F063
:10204C00A7F82B78EBE7C0468C000020086200084C
:10205C00BC610008102210B50E4BD9680A4211D190
:10206C0019690A4207D1EFF305820B490B48243159
:10207C0002F07EF810BD0A4800211A61883002F087
:10208C00A3F8F7E706480121DA60883002F09CF8E3
:10209C00F0E7C04600180240305E000800600008FF
:1020AC008C00002010B5EFF305820349034824315E
:1020BC0002F05EF810BDC046305E000800600008FB
:1020CC00102210B51C4B19680A421AD1012219684A
:1020DC000A4211D1802219689201114222D10422A4
:1020EC0019680A4223D1082219680A420ED01A60D4
:1020FC00124802F03DF803E011481A6002F038F87B
:10210C0010BD1A600F4802F033F8F9E719680E4851
:10211C0002F02EF8EFF305820C490D48243102F041
:10212C0027F8EDE71A600B4802F022F8E8E71A608E
:10213C00094802F01DF8E3E7002401407865000827
:10214C00446500083465000884650008305E0008AA
:10215C0000600008506500086C650008022310B58B
:10216C00134C2268134218D108232268134208D159
:10217C00104922681048503101F0FAFF04236360C3
:10218C0010BD0C49636050310C4801F0F1FF012186
:10219C000B4A13680B431360F2E76360094B9421FD
:1021AC001A005858C63206237F3902F049FAE7E77D
:1021BC0000000240305E0008A0650008946500082D
:1021CC00080002408C00002010B50E4BDA69920614
:1021DC0012D4DB691B0607D5B4220B4B0B4998585C
:1021EC00043A9B58984710BDEFF3058208490948FB
:1021FC00243101F0BDFFF6E70348596A983001F02D
:10220C00E3FFF0E7004400408C000020284400402D
:10221C00305E00080060000870B572B6BFF34F8FD7
:10222C00BFF36F8F224C2500C4352B78FF2B38D091
:10223C00210070205A1CC431D2B20A701D491E4DA7
:10224C00496A2E5A89B229528E4207D92800703019
:10225C004188013189B24180002911D0002A14D063
:10226C00C4342370002B04D1BFF34F8FBFF36F8F97
:10227C0062B6696F286FCB0740081843490870BDD8
:10228C00696F01316967002AEAD1B7210B4A0C4802
:10229C00890001F07DFF2300C4331B78013BDBB2C6
:1022AC00DEE7084A0849064801F072FF2B78BFE7C1
:1022BC008C000020004801400C010020086200083E
:1022CC00BC61000894610008D5020000F0B5C64658
:1022DC0000B58A8888B005000C0002AF0A2A00D924
:1022EC00BDE067499300CB589F46D2235B00C25890
:1022FC00CC3BD0583900248802F030FC0423102247
:10230C00009321003B000A20FDF714FFBD4606B0E8
:10231C0080BCB846F0BD26885A4C200000F0F4FC76
:10232C0080B201900C233200022128000094FEF7A9
:10233C008DFEEBE7012201000320FDF737FF524928
:10234C00524801F015FF524A524993680B40042140
:10235C000B439360DAE7FFF75FFF0823386079607F
:10236C0022882179280001930097043BFEF76EFE2A
:10237C00CCE7494B05213B60484B38007B60484B10
:10238C006E46BB60474BFB60474B3B6102F040FA2B
:10239C0003000C339BB20733DB08DB00F31A9D46BA
:1023AC0002AB984642465B884146938000231380DB
:1023BC0053802388A288CB8005230B8109336B447F
:1023CC009A803900052205A802F042FAD4220300B3
:1023DC0052000C33A858012142469BB2FEF716FD61
:1023EC00B54693E7D2235B00C258C43BD458002CAB
:1023FC0040D02468200000F087FC80B200902300BD
:10240C000C2200210620FDF795FE7FE7D223012246
:10241C005B00C358002100920720F4330332FDF710
:10242C0089FE73E7D22301225B00C358002100927E
:10243C000820F5330332FDF77DFE67E7268804009C
:10244C00AD34FF34200000F05FFC80B201900C230F
:10245C003200092128000094FEF7F8FD56E70A49DE
:10246C0012486C3101F084FE862221002800FEF710
:10247C00B1FD4BE7A5210E4A0E4801F089FEB8E7E5
:10248C00EC5B0008AC640008305E0008A86400082F
:10249C0000240140E8FFFF7FD0620008B06500080F
:1024AC00B8650008C4650008CC650008E065000844
:1024BC00A0620008AC620008F8B5050008000C002A
:1024CC0002F074F9162842D009D8012853D00228FA
:1024DC0048D18549854801F04BFE0020F8BD1828ED
:1024EC0040D1200002F066F9027A0400861D062A0B
:1024FC005CD013D8022A43D0032A4CD1B388C188AC
:10250C007B4A7C4801F034FE290030790022FDF72B
:10251C004DFE31002800FFF7D9FEDEE7082A3AD13C
:10252C00C188754AB388734801F022FEB288062A26
:10253C0045D00A2A00D19FE06B4948316F4801F021
:10254C0017FE862231002800FEF744FDC5E7D42390
:10255C00654A5B00E858833B0021FF3B0C32FEF7D9
:10256C0055FCBAE7200002F021F95F4902006448EB
:10257C0001F0FEFDB1E75C49624801F0F9FDACE702
:10258C00C188B388604A5B4801F0F2FD3100280035
:10259C00FFF79CFEA1E754495C485C3101F0E8FD73
:1025AC00812231002800FEF715FD96E7B288931FB3
:1025BC009BB2042B6ED8564A9B00D3589F46B379D6
:1025CC000C2B6AD0002231002800FEF703FD84E7B3
:1025DC00B3790C2BF6D1F3791F1C172B00D91727C5
:1025EC0021002C00AD34FF34BFB23A0020000E3174
:1025FC0002F0E8FB0023EF19AD37FF3721003B70E9
:10260C00444801F0B5FDDDE7B3790C2BDAD19933F1
:10261C00FF33EF58F3790E34042B52D0052B22D014
:10262C001E2100230022380002F00AF8CAE7B37911
:10263C00042BC7D10200A133FF33E858A43B22215D
:10264C000D32FF3B01F0FCFFBCE7B379102BB9D185
:10265C00D2210200490068588239F3790E32FF39D1
:10266C0001F0EEFFAEE72C490522200002F09CFBA6
:10267C001C210028D4D1D4E7B379092B18D0082B0E
:10268C00A0D19D33FF33E85800220023252101F00F
:10269C00D7FF97E71449343150E7D2212200490083
:1026AC0068588439F3790E32FF3901F0C9FF89E794
:1026BC009C33FF33E85800220023242101F0C0FF93
:1026CC0080E704222000154902F06EFB002808D098
:1026DC0004222000124902F067FB0028A0D11B2124
:1026EC009FE71D219DE7C046B05E000818660008F4
:1026FC00806600083466000890660008E0650008F3
:10270C0040610008006600082C6600089866000806
:10271C00185C0008686600086066000858660008C7
:10272C00B8660008F0B5DE4657464E464546E0B55D
:10273C0083B0060002AF08000C0001F023FF050077
:10274C002000012D4AD001F021FF8046200001F02D
:10275C0015FF8246032D51D0200001F01FFF81464A
:10276C00042D10D0280001F06BFE4B4601004246B0
:10277C00334801F0FDFCBD4601B0F0BCBB46B2468F
:10278C00A946A046F0BD200001F0F8FE81462000CD
:10279C0001F00AFF0500200001F000FF4A4603008B
:1027AC00002A20D1022802D12A782F2A43D01A00DD
:1027BC0069460C32D208D2008A1AEB46954602AA18
:1027CC0091465C1D210048461E4A009502F000FC13
:1027DC00002801DD844224D8DD4609E001F0DAFE50
:1027EC00FFF71AFDC7E72A001821306801F028FF0F
:1027FC00524641463000FEF79FFABCE7414612486C
:10280C0001F0B6FC524641463000FEF795FA5146AF
:10281C004B1E9941002200233068163101F010FF45
:10282C00A9E79422094983B288584A460021FEF749
:10283C00EDFADD46DCE76878FFF758F9D8E7C046D3
:10284C00EC660008E0660008C06600080C01002079
:10285C0070B5204D0400435D002B0ED10A2905D024
:10286C00C9B2FEF71BFA032818D070BD0122033938
:10287C00FEF762FA01236355F7E7C9B2FEF70EFAC9
:10288C000028F2D0144BE518280001F08FFE002828
:10289C0013D029002000FFF745FFE6E70E4BE518A3
:1028AC00280001F083FE00280DD029002000FFF73E
:1028BC0039FF0122074BE254D7E7084908486C312D
:1028CC0001F056FCD1E7054905486C3101F050FC8C
:1028DC00EFE7C046D9140000CC120000B05E00082F
:1028EC001C6700087047C04610B50B00EFF310844E
:1028FC00012181F310881900FDF71EFF84F3108865
:10290C0010BDC04610B582B0EFF31084012181F3E5
:10291C0010886B460122D91D0020FDF70DFF84F3B2
:10292C001088012803D16B46D87902B010BD012064
:10293C004042FAE710B5FDF7A9FE10BDF0B5DE4632
:10294C004E4657464546E0B59BB00AAB059340232F
:10295C00069300230793089301330C0091469B4682
:10296C000290099005E005A8FDF7D4FF089800280F
:10297C0059DB2178013400295CD02529F3D12200C0
:10298C001378002602250820140021392D2B0CD099
:10299C002D2B0ED8232B11D02B2B00D05FE10E4307
:1029AC000132137814002D2BF2D15B4601321E43F9
:1029BC00F7E7302B05D12E430132F2E70643013203
:1029CC00EFE71A00303A0025092A0DD81A00AB009F
:1029DC005B1901345B009B182278303B1D001300FF
:1029EC00303B092BF3D913002E2B00D1D8E0002754
:1029FC002378042101E0637801341A008A43682AA1
:102A0C00F9D0252B07D0583BDBB2202B07D8954AA1
:102A1C009B00D3589F46252105A8FDF77BFF0898FE
:102A2C0001340028A5DA1BB0F0BCBB46B246A9465F
:102A3C00A046F0BD08980028F5DD079C002C00D0BE
:102A4C00C6E00019EFE74B4649461B6805A81A1D5E
:102A5C000A60196810223B0001960095FDF792FF61
:102A6C0001340898DDE74B4649461B6805A81A1D3A
:102A7C000A6019680A223B0001960095FDF782FF57
:102A8C0001340898CDE74B4649461B681A1D0A606D
:102A9C001D6805E005A8FDF73DFF08980028BFDB81
:102AAC00297801350029F5D10898B9E74B464946F4
:102ABC001B6805A81A1D0A601968002301930833C6
:102ACC0010220093FDF75EFF01340898A9E74B46EE
:102ADC0049461B681A1D0A601B68DA17981803937D
:102AEC00012350409A4609280DDDAA46A0461D0038
:102AFC000A210400013500F0CFF9632CF8DC2B001F
:102B0C00444655469A46B846574575D3002D36D09F
:102B1C00039B002B74DB730772D4B30701D5002F12
:102B2C002DD05B4633422AD1002D28D04346A046F7
:102B3C001C00AC4220D205A82021FDF7EBFE089822
:102B4C00013D002800DA87E0002DF2D12300444635
:102B5C009846039B002B58DB730761D40323334047
:102B6C00022B62D005A83B000A220399019600951E
:102B7C00FDF708FF089853E7230044469846089849
:102B8C000028E6DA01344CE74B4649461B6805A899
:102B9C001A1D0A601978FDF7BDFE0134089840E74C
:102BAC006378621C1900303914000027092900D9F8
:102BBC001FE71A00BB00DB1901345B009B1822785D
:102BCC00303B1F001300303B092BF3D9130010E7E7
:102BDC00254B1B78002B15D0EFF31085012181F3C9
:102BEC001088220002980AA9FDF71AFE85F31088B6
:102BFC000898079C001916E7D046002DBFD087E730
:102C0C00013D8AE7FDF742FDE6E75B422D2105A871
:102C1C000393FDF77FFE089800289FDA013400E744
:102C2C002B2105A8FDF776FEF5E7002F9AD10AE0D7
:102C3C00A8450CD205A83021FDF76CFE0898013D83
:102C4C00002800DAECE6002DF2D100258AE708987E
:102C5C00002887DA0134E4E644460134E1E6002535
:102C6C00C5E6C0462C5C0008B0210020102070473F
:102C7C0040687047837807201840704703005A68F3
:102C8C0008000A601A7A0A715A7A4A7107229978EE
:102C9C000A40FA2102731A7B4A43C280DA78920006
:102CAC0042815A8902815B7B437300238373704793
:102CBC00030010000E2908D90E229A5602700F2913
:102CCC0006D0DB7B5BB24370704700231370FAE7CE
:102CDC000023F8E7002243898A569B18C8229200E9
:102CEC0093420BDD1300012243818A56C3889B1843
:102CFC00044A934200DD1300C3807047062BF2DABE
:102D0C000623F0E724F400000023C25C0133002A00
:102D1C00FBD1581E7047000003B4714649084000AF
:102D2C004900095E49008E4403BC704700224308E9
:102D3C008B4274D303098B425FD3030A8B4244D377
:102D4C00030B8B4228D3030C8B420DD3FF220902B9
:102D5C0012BA030C8B4202D31212090265D0030B78
:102D6C008B4219D300E0090AC30B8B4201D3CB036E
:102D7C00C01A5241830B8B4201D38B03C01A5241B0
:102D8C00430B8B4201D34B03C01A5241030B8B42B2
:102D9C0001D30B03C01A5241C30A8B4201D3CB029D
:102DAC00C01A5241830A8B4201D38B02C01A524182
:102DBC00430A8B4201D34B02C01A5241030A8B4285
:102DCC0001D30B02C01A5241CDD2C3098B4201D39D
:102DDC00CB01C01A524183098B4201D38B01C01A1B
:102DEC00524143098B4201D34B01C01A5241030992
:102DFC008B4201D30B01C01A5241C3088B4201D341
:102E0C00CB00C01A524183088B4201D38B00C01AED
:102E1C00524143088B4201D34B00C01A5241411A14
:102E2C0000D20146524110467047FFE701B5002021
:102E3C0000F006F802BDC0460029F7D076E77047CF
:102E4C007047C04610B5002903D100F007F82030B8
:102E5C0002E0080000F002F810BDC0461C2101235E
:102E6C001B04984201D3000C10391B0A984201D361
:102E7C00000A08391B09984201D30009043902A23F
:102E8C00105C40187047C0460403020201010101A6
:102E9C00000000000000000003460B437FD400221A
:102EAC0043088B4274D303098B425FD3030A8B42D2
:102EBC0044D3030B8B4228D3030C8B420DD3FF223C
:102ECC00090212BA030C8B4202D31212090265D00A
:102EDC00030B8B4219D300E0090AC30B8B4201D3BD
:102EEC00CB03C01A5241830B8B4201D38B03C01A04
:102EFC005241430B8B4201D34B03C01A5241030B7B
:102F0C008B4201D30B03C01A5241C30A8B4201D32B
:102F1C00CB02C01A5241830A8B4201D38B02C01AD6
:102F2C005241430A8B4201D34B02C01A5241030A4D
:102F3C008B4201D30B02C01A5241CDD2C3098B4232
:102F4C0001D3CB01C01A524183098B4201D38B01AF
:102F5C00C01A524143098B4201D34B01C01A524152
:102F6C0003098B4201D30B01C01A5241C3088B4297
:102F7C0001D3CB00C01A524183088B4201D38B0082
:102F8C00C01A524143088B4201D34B00C01A524124
:102F9C00411A00D201465241104670475DE0CA0FFB
:102FAC0000D04942031000D34042534000229C46BB
:102FBC0003098B422DD3030A8B4212D3FC228901C5
:102FCC0012BA030A8B420CD3890192118B4208D39B
:102FDC00890192118B4204D389013AD0921100E0FD
:102FEC008909C3098B4201D3CB01C01A5241830911
:102FFC008B4201D38B01C01A524143098B4201D33E
:10300C004B01C01A524103098B4201D30B01C01A68
:10301C005241C3088B4201D3CB00C01A52418308E2
:10302C008B4201D38B00C01A5241D9D243088B4238
:10303C0001D34B00C01A5241411A00D201466346DB
:10304C0052415B10104601D34042002B00D549423F
:10305C00704763465B1000D3404201B50020FFF778
:10306C00EFFE02BD0029F8D016E77047002B11D1F6
:10307C00002A0FD1002900D1002802D00021C94319
:10308C00080007B4024802A14018029003BDC046D4
:10309C00B1FDFFFF03B4684601B5029800F006F8D5
:1030AC00019B9E4602B00CBC7047C046F0B557461B
:1030BC004E464546DE46E0B504000D009246994664
:1030CC0083B08B4230D82DD049465046FFF7BAFE1C
:1030DC00290006002000FFF7B5FE331A9846203B66
:1030EC009B4633D45A465346934042461F005346A0
:1030FC0093401E00AF423AD8AF4200D178E05B4615
:10310C00A41BBD41002B00DA75E0002200230092C5
:10311C00019301235A469340019301234246934065
:10312C00009328E08242CFD9002200230092019321
:10313C000C9B002B01D01C605D600098019903B0C2
:10314C00F0BCBB46B246A946A046F0BD4246202381
:10315C009B1A5246DA40414613004A468A401700F1
:10316C0042461F43534693401E00AF42C4D900222F
:10317C000023009201934346002BD9D0FB07720821
:10318C001A4346467B080EE0AB4201D1A2420CD852
:10319C00A41A9D41012024196D410021013E2418DF
:1031AC004D41002E06D0AB42EED9013E24196D41A3
:1031BC00002EF8D1009801995B4600196941002B4B
:1031CC0024DB2B005A464446D3402A00E2401C0024
:1031DC005B461500002B2ADB26009E4033002600A0
:1031EC004746BE403200801A9941009001919FE7FA
:1031FC00A342BCD883E74246202300219B1A00221D
:10320C00009101920122DA40019286E74246202386
:10321C009B1A2A0046469A402300F3404446134327
:10322C002A00E2401C005B461500002BD4DA424613
:10323C002F002023260097409B1ADE403B0033438F
:10324C00CDE7C0460D488546FFF74CFB0C480D49B1
:10325C000D4A002302E0D458C4500433C4188C42E5
:10326C00F9D30A4A0A4C002301E013600432A2424B
:10327C00FBD301F061FD00F00FF8FEE70090002099
:10328C00000000206C0000205C6900087000002029
:10329C008C220020FEE70000F0B5DE4657464E4675
:1032AC004546E0B5B9B000F055FF9349934800F09E
:1032BC005FFF0722924B00215A63A0240D3215A800
:1032CC0001F089FD0223E405189320000E3314A9A4
:1032DC001493FCF78FFF149A236913409A4206D17A
:1032EC00884B1B6883F30888874B1B68984703231C
:1032FC00A0269A4615930023F6059846300018939D
:10330C0014A943331493FCF775FF2023300014A940
:10331C0014938025FCF76EFF434601277B4C1793D3
:10332C00AD000233200015971693149514A9A562CD
:10333C009946FCF75FFF40237548149314A98361E9
:10334C00FCF758FF272320001797149314A9A361A7
:10335C00FCF750FF4B46159319934346C024179323
:10336C005346A400169314943000B46214A9FCF7CD
:10337C0041FF0C23300014A919971493FCF73AFF62
:10338C0080215F4B09065A6D0120920092080A4376
:10339C005A65604ADA63604A1A649A6B17439F63F2
:1033AC005E4B1A6814431C605D4CFCF7A9FF236844
:1033BC005C4A5D4913401D435C4B25609A461B6873
:1033CC005800C0184000FFF7B1FC80226369D2009E
:1033DC000130134202D105E0002803D063690138A3
:1033EC001342F9D180214E4A490013680B431360F4
:1033FC0013680B42FCD00221414A4D4BD365D36D6F
:10340C001942FCD0382391680B40D168102B01D1A4
:10341C0000F022FC002B01D000F022FC136845497F
:10342C00536819408023DB010B43536013684249F6
:10343C000B4013601368414A9B045B0FDA40534600
:10344C001A6053465868FCF75BFF3D4A002832D19E
:10345C0038202B498B680340102B01D100F0B1FDB3
:10346C000B683848034080200B60146A800403E02A
:10347C00136A1B1B022B1ED80B680342F8D1CB68B6
:10348C0031481840314B0343CB60802308685B0400
:10349C0003430B608023C8685B050343CB6080212A
:1034AC00146A1748890403E0136A1B1B022B02D809
:1034BC0003680B42F8D0062318490868184201D15A
:1034CC0000F0A4FCE0230E49DB01886803438B6009
:1034DC008B681F4803408B600B689B0101D400F084
:1034EC00A7FC07208B681B4C834318000223034363
:1034FC008B603820156A35E0AC6400082C67000836
:10350C00001002400000FF1F0400FF1F00040050C9
:10351C000008005003000230010816000020024091
:10352C0000700040FFF9FFFF40420F000000002038
:10353C0009800000FF80FFFFFFC7FFFF0024F4009D
:10354C008C010020FFFFFFFE8C80C111323016462B
:10355C00FFF0FFFF88130000136A5B1BA34201D925
:10356C0000F066FC8B680340102BF5D10720F44962
:10357C000B680340022B01D900F0FDFCF14BF24922
:10358C009A680A409A6038229968114201D000F07A
:10359C00AAFC1B68ED489B045B0FD840E94BEC4A36
:1035AC009B6800921B051B0F9B00D3581F221340D6
:1035BC00D840534618605868FCF7A2FEE54AE64925
:1035CC001368E6480B401360E54B19685346090530
:1035DC001A68090D00F0CCFDE24B1A68D20307D42F
:1035EC001A68E1490A401A60DA6BE0490A40DA636A
:1035FC008023DC4A5B02116801240B4313603F22D9
:10360C00DB4909200B6893431A00052313430B6015
:10361C00D84BD9491A681140D84A0A43D8491A607C
:10362C0099600321D74A9346C632DA605A68120C65
:10363C0012040A435A60D44A5460022219680A439D
:10364C001A60082219680A431A601A68210022437A
:10365C001A60FCF751FDCD4B9A68224207D1DA680B
:10366C00CB490A40DA601A69920092081A618021EB
:10367C00C64B8903DA680A43DA6080229201196822
:10368C001142FCD007211A605A698A4311000222A8
:10369C000A4370215A615A698A43110050220A4325
:1036AC000F215A619A6A8A439A625A69AA490A4056
:1036BC005A619A6AF231FF318A43110010220A438F
:1036CC0080219A625A6989000A435A619A6AB149FF
:1036DC001140C022D2000A4380219A625A69C90162
:1036EC000A435A619A68AC491140802252050A4338
:1036FC009A605346A9491868FFF718FB14234343F3
:10370C000793079B002B05D0079B013B0793079B57
:10371C00002BF9D19D4BA2499A68114080221206C8
:10372C000A439A609A68002AFCDB802212011A6014
:10373C0020230793079B002B05D0079B013B079386
:10374C00079B002BF9D18023904C9B052269032108
:10375C001343236111230C206360FCF7CDFC012182
:10376C00E368E368A3680B4200D165E38D4800F081
:10377C00FFFC0124854B8C491A6914A8A2431A61D9
:10378C001A690A401A619A6885490A4022439A606C
:10379C005B466422C53318A91C7000F037FFE22089
:1037AC00400001F0EDFAC822010052001031050072
:1037BC0000F02CFFD0237D4A5B00EA50F8203195B5
:1037CC0001F0DEFA0100C8221031050000F01EFFE6
:1037DC00142001F075F9D8230022E8500023382179
:1037EC0034923593882306AA5218009932954031A9
:1037FC00D4546F4800F0BCFC5A466E4B14A9D367E6
:10380C008023D150FA225946D2000433CA50534671
:10381C0069491868FFF78AFA0221684B684A01382F
:10382C0098625A63DA6816200A43DA605A692243AE
:10383C005A611C60FCF760FC624801F0A1FA624B13
:10384C0001009C46614B614496229C460400019009
:10385C009200604400F0C4FCFF225D4B5D49E254D1
:10386C00329B5D489846DC234246D150FFF74CFA18
:10387C0010229446594B00246344994687B24B4618
:10388C002601F5582800FFF73FFA874200D111E2D4
:10389C000134052CF3D100264246E0230024D650F7
:1038AC0014339425D4525B465A5153463B491868FD
:1038BC00FFF73CFA4A4B4B4A013898629A61112245
:1038CC0001261A6273325E601A6088221202DE6070
:1038DC0021005A640D20FCF70FFC21000E20FCF790
:1038EC000BFC53462D491868FFF720FA8023102251
:1038FC00DB050138986299690F200A439A6102220C
:10390C00D9680A43DA605A69210016435E61FCF7F4
:10391C00F3FB319E17223000AD303349FF30329F1C
:10392C0001F092FBD223019A30485B00F75004332C
:10393C00F2504251642294461D3B3299FF3B57E0B2
:10394C000020024000100240FF8FFFFF0024F40013
:10395C00305F000800700040FFFEFFFF406700086A
:10396C000058014000740040FFFF03FFFFFFF8FF09
:10397C0000080240080002400F80FFFFA025000055
:10398C00402401408C000020000002400024014033
:10399C00C73FFFFFFFF0FFFFE8FFFF6F40420F0044
:1039AC00E8FFFF7F60670008FFFFFFDFD50A000814
:1039BC00A86400083D05000880841E0000480140F2
:1039CC00400D0300DC1400007410000064100000B3
:1039DC00D5140000B50A00088C5F0008305D0008A3
:1039EC00002C0140686800007C6700080C01002076
:1039FC0014AEC6500433C150B34BB44D9946009B22
:103A0C00B34E63449846029110353000296800F09B
:103A1C00AFFB28896B6800280ED0002204E001322D
:103A2C0092B20233904207D019785F780F42F6D0E9
:103A3C004146484600F09CFB0134E4B21035052C9D
:103A4C00E3D1F6230022029C8025E254A14A1A3BC2
:103A5C00E25000F07FFE01002000FDF7F5FC200095
:103A6C009D4C1021FCF792FC6369AD002B4203D1F5
:103A7C009A4800F07DFBA561994914AA08A800F0AA
:103A8C009DFB5B46883316C816C384201022954BC9
:103A9C001958914319500438195811431950196881
:103AAC0079381143196059680A435A600321FCF7AD
:103ABC0023FBD023319D8C4A5B00EA5000F04AFE78
:103ACC0001002800FEF7F8FCD4235B00EC58874B70
:103ADC00E35C7F2B00D8CDE1854B0493854B05939C
:103AEC000023854A2560A354844A5F46A352844A26
:103AFC00844B516D844E0B4353658B23F3603268BA
:103B0C00824BC537134333603B78012B00D9A4E1BA
:103B1C0002211C20FCF7F0FA3B785A1C3A70734ACD
:103B2C005BB2A354002B00DA9DE10BAB1800220012
:103B3C007749994600F042FB220076490EA800F026
:103B4C003DFB11AB180022007349984600F036FB80
:103B5C00664BE356012B00D1DCE1644BE2566F4B14
:103B6C00624F1E0002936E4B583631001800994676
:103B7C00039300F0FDFAE257012A00D1F5E1310080
:103B8C00484600F0F5FAE257012A00D1EDE1310088
:103B9C00484600F0EDFAD42300215B00EA58614B53
:103BAC006148D154614988240C3100F0E1FA604B32
:103BBC00604D9946604F382206AB9B181B5D002B5D
:103BCC0000D1C3E0329B29001A001800009300F0CA
:103BDC007BFD0028EFD1319B49461A001800009359
:103BEC0000F072FD0028E6D114AA3900100000F094
:103BFC006BFD061EDFD10121404600F0D3FA0028F0
:103C0C0000D05BE172B6BFF34F8FBFF36F8F5B4693
:103C1C00C4331B78FF2B00D1BFE15A46C432137852
:103C2C0032980133137000F007FD002800D02BE10F
:103C3C005B46C4331B78002B00D14DE15A46C4328D
:103C4C001378013BDBB21370002BB4D1BFF34F8F51
:103C5C00BFF36F8F62B6AEE70D3B194002291FD040
:103C6C002749364A0B68802013400B6080230A6872
:103C7C005B001343324A0B60146AC00004E0136A01
:103C8C001B1B022B00D916E40B680342F7D04B68C0
:103C9C002C4818408023DB0103434B60FFF7D8FB13
:103CAC0013682849536819408023DB010B43536088
:103CBC00FFF7C7FB3A002900234801F075F80028EC
:103CCC0000D0E5E54E44E7E5A4670008305D000848
:103CDC009467000855140008000400509464000810
:103CEC002505000800180240C5240008D514000062
:103CFC00BC670008DC610008D4140000D814000074
:103D0C000010024008000C0000440040010000209C
:103D1C005D2800086903000881030008B05C0008F6
:103D2C00EC610008D914000004680008B05E0008BB
:103D3C00190B0008710B00081D110008FFC7FFFFCD
:103D4C008C010020FF80FFFF8C5F0008D025319C88
:103D5C006D00665900F00CFD01002000B047D94BF6
:103D6C00D948635100F004FAD4235B00E458D74BD4
:103D7C00E256012A04D002990398583100F0F8F960
:103D8C00FF228026D14BD24DE2546B69B600329C97
:103D9C00334203D0CF4800F0EBF9AE62DC25665914
:103DAC0000F0E6FC01002000B047CB4B019A6351B8
:103DBC00C64BD35C7F2B05D89821049A05984900F3
:103DCC0000F0E6F9019800F0E5FFD823329CE058AA
:103DDC0000F0A6FF200000F0DDFF319800F0DAFFC4
:103DEC0072B6BE4800F0C4F900F0E6F91121BC4AE5
:103DFC00136A8B4313628022B54B92009A62DA3AB3
:103E0C00FF3A9A61B74B19329A62FEE707200223F8
:103E1C000C68844323430B60156AB34C0B68034056
:103E2C00022B01D1FFF74EFB136A5B1BA342F5D9A2
:103E3C00AE4B0093FFF7C2FBE368AD4AE3681A4050
:103E4C00AC4B1343E360E3689B0200D491E4F02392
:103E5C00A26A1B021343A3628BE4A74800F088F903
:103E6C00FF229A4BE25411AB9846A44B0293A44BFD
:103E7C00039390E60A21A34BA34A1800FF31049246
:103E8C00059300F085F92BE6319800F0D5FB00285E
:103E9C0000D1CDE614A800F0CFFB002800D1C7E676
:103EAC0080229A4E92007369134200D0E3E0042101
:103EBC00974A13698B43136130BFB9E643461878B0
:103ECC00944B009098331978782200296BD12F28C5
:103EDC007AD1773A1A7095E6B7218F4A8F488900C4
:103EEC0000F056F9AAE699681140082900D1D9E0EA
:103EFC0099681140102900D183E09968114020295C
:103F0C0000D1D2E09B681A40182A00D1D1E00020E1
:103F1C00FFF744FB5B464A46983383CA83C35B4630
:103F2C00A43383CA83C30423326813433360674BBF
:103F3C00E356012B00D010E65A465946B333D45001
:103F4C00774A043BCA505B464246B83383CA83C3A4
:103F5C0008233268134333605C4BE256674B029381
:103F6C00674B0393012A00D0F9E520236D4A1168B1
:103F7C000B4313600FE602230C68844323430B604E
:103F8C00156A594C0B680340022B01D1FFF7F6FA66
:103F9C00136A5B1BA342F5D94AE7634A63495F483E
:103FAC0000F0F6F839E6009B0A2B41D0604800F08F
:103FBC00DFF80098FDF79AFD0022564B98331A70E3
:103FCC0020E6CB68FFF777FA5248524E99300378C7
:103FDC00F618B15400990A2909D00133DBB20370E9
:103FEC00B154142B00D00DE6514800F0C1F84949EA
:103FFC005048783100F0BCF80022464B99331A70C7
:10400C0000E6DA68D968D243D8684906490F4004FB
:10401C000131440E920750D04748FEF787FE6043AB
:10402C00464BD968490F0131FEF780FEFFF7B6FA0F
:10403C00434B434819784B1CDBB20370354884461C
:10404C002F2061448854142B08D1394800F090F883
:10405C003C49384800F08CF8394B1E7000222D4E2C
:10406C002C49993633787831CA54324800F080F8AC
:10407C0000223270A0E7534606201B683249584391
:10408C00FEF754FE3368314A01301340336003E0CD
:10409C00002800D1CCE501388022736992001342CC
:1040AC00F6D104E72A48FFF779FA80200002FFF7DF
:1040BC0075FAFA20C001FFF771FA2548FEF736FEB3
:1040CC006043ADE7D50A000828680008D514000045
:1040DC000004005080640008B50A00083868000825
:1040EC00002C01400008005088130000305F0008CD
:1040FC003CC2FEFF03100000D0670008B05C000853
:10410C00EC610008DC610008BC670008007000402E
:10411C0000ED00E00C01002008620008BC61000802
:10412C00C50B00080044004094610008D502000053
:10413C003C680008186800080024F40000100240D5
:10414C00A50100208401002040420F00FFBFFFFFAB
:10415C0000127A0010B5FEF7EDFB10BD00B583B070
:10416C00019101AA01000020FEF7E8FB03B000BD9D
:10417C000FB400B583B004AB02CB01AA00200093AE
:10418C000193FEF7DBFB03B008BC04B01847C04634
:10419C00130010B50A0001000148FFF7E9FFFEE724
:1041AC004C6800080A0010B501000020FEF79CFBCB
:1041BC00C343DB17184010BD7047C0460023836013
:1041CC00426001607047C04610B503680400002BC4
:1041DC0004D040689847A3680133A36010BDC04663
:1041EC0001604B1E9941002349421140416083609C
:1041FC00C360704700238360C360704703009B68F3
:10420C00C068C01A43425841C0B270470200C3682C
:10421C00581E9368C01A536800D5C0187047C04622
:10422C0003008268C1685B68501A00D5C0187047DB
:10423C00F0B54646D6464F460500C0B5EB688068DB
:10424C00013B0E0014001B1A1ED493421AD3170004
:10425C00002F05D12000E0BCBA46B146A846F0BDFF
:10426C00AB6828689C463A006044310000F0AAFD17
:10427C00AB689C466B686744AF609F42EAD10023F1
:10428C00AB60E7E70020E6E76A6890464344A34248
:10429C00F8D30319994627009A42D9D8131A9A468B
:1042AC002B6852469C46604400F08CFD002342462D
:1042BC00AB604B4656449F1ACAE7C046F8B5474612
:1042CC00CE4680B5C6688368050088469C1B0BD417
:1042DC00944207D82700002C20D13800C0BCB94626
:1042EC00B046F8BD1400F5E7436899464C44944237
:1042FC0000D91400331927009945ECD84B469F1B65
:10430C002B683A009919404600F05CFD4B46F61AB2
:10431C00A419B84400263F19002CDED029682200CD
:10432C004046891900F04EFDD7E7C046F0B54F4620
:10433C004646D646C0B50F008368C1680600140017
:10434C005B1A1ED493421AD31500002D05D1200000
:10435C00E0BCBA46B146A846F0BDF36831689C464D
:10436C002A006144380000F02DFDF3689C46736808
:10437C006544F5609D42EAD10023F360E7E7002035
:10438C00E6E7426890464344A342F8D30B1999469A
:10439C0025009A42D9D8531A9A46036852469C462D
:1043AC003800614400F00EFD00234246F3604B469A
:1043BC0057449D1AC9E7C04670B501000400861D1C
:1043CC001D4D1E4823781B025840082304E0013B76
:1043DC00DBB280B2002B09D002B24000002AF6DA20
:1043EC00013B6840DBB280B2002BF5D10134A64210
:1043FC00E8D14B888A781D0A120215431BD008316C
:10440C004D190D4CADB20B781B025840082304E03B
:10441C00013BDBB280B2002B09D002B24000002A73
:10442C00F6DA013B6040DBB280B2002BF5D10131F2
:10443C008BB2AB42E7D170BD21100000FFFF000032
:10444C00052804D883001B180248C018704702487E
:10445C00FCE7C046706800086C68000870B5040082
:10446C0004A80078490000010843012101430720FA
:10447C0018400023D20002436380237120000023E4
:10448C000725C9B221706270661D082201304B40AD
:10449C0004E0013AD2B2DBB2002A09D059B25B0077
:1044AC000029F6DA013A6B40D2B2DBB2002AF5D120
:1044BC00B04201D00178E8E763712000FFF77CFF80
:1044CC00030AE071A371200070BDC04670B50400F2
:1044DC0004A840C84900058820001B010B43D200EA
:1044EC0031002370627008302A0000F06BFC2B0A3C
:1044FC00A3700023E570200007252371661D027848
:10450C005340082204E0013AD2B2DBB2002A09D0AF
:10451C0059B25B000029F6DA013A6B40D2B2DBB239
:10452C00002AF5D10130B042E9D163712000FFF7C8
:10453C0043FF030AE071A371200070BD70B5002326
:10454C0007244679451D02785340082204E0013ABD
:10455C00D2B2DBB2002A09D059B25B000029F6DADC
:10456C00013A6340D2B2DBB2002AF5D10130A84245
:10457C00E9D1F01A42425041C0B270BD00788006B9
:10458C00800F704700780007400F70474078800616
:10459C00400F704743780720184070478278438853
:1045AC001202180A104370470830704710B5040007
:1045BC00FFF702FFE388A1791B0A09020B43181AC3
:1045CC0042425041C0B210BDB0B500AF050000F082
:1045DC00BFF86A46C31DDB08DB00D31A9D460200F8
:1045EC00040069462800FFF769FE80B2844203D0BC
:1045FC000024BD462000B0BD684600F0D3F804008E
:10460C002800FFF70DFE8442F2D8F2E770B50500E2
:10461C000C001600002905D0320028002100FFF7FD
:10462C00DFFD70BD3D21024A0248FFF7B1FDF3E703
:10463C0090680008A068000810B5FFF7DFFD10BDFA
:10464C00F8B5DE4657464E464546E0B500AF1E006F
:10465C0080468A46914600F07BF86B46C41DE40800
:10466C00E4001B1B9D460500801983B232005146A5
:10467C0068469B4600F08AF8FDF7AAFC4046FFF717
:10468C00C5FD002483450DD9FDF7C2FC5B46E01A3D
:10469C00BD4643425841C0B2F0BCBB46B246A946E7
:1046AC00A046F8BD2A0069464046FFF7C1FD4B46BF
:1046BC0084B2002BE8D0320049464046FFF7B8FDE3
:1046CC002418A4B2E0E7C046F8B54E464546DE468F
:1046DC005746E0B500AF060089469046FFF774FFD9
:1046EC000025041E07D1BD462800F0BCBB46B246CF
:1046FC00A946A046F8BD6A46C31DDB08DB00D31AE9
:10470C00EA469D46FDF764FC220069463000FFF73F
:10471C000DFE0600B6B2EB46FDF77AFC002E01D179
:10472C00D546E0E7684600F03DF8844205D159468D
:10473C004046C8470125D546D5E72521024A0348FE
:10474C00FFF726FDF3E7C046B8680008A06800082C
:10475C000C20704710B5FDF75FFD02000B000348FD
:10476C000260436080235B02836010BD68220020DE
:10477C0010B5FDF751FD02000B00034802604360C9
:10478C0080239B02836010BD5822002070B504006A
:10479C000E001500FDF740FD6681206061602581EB
:1047AC00200070BD00890C3080B27047807A704751
:1047BC00008970470C30704710B5042A24D012D8E9
:1047CC00012A15D0022A1BD1052303700023441C97
:1047DC00C85CE0540133D8B29042F9D30220002ACD
:1047EC000AD180B210BD082A0AD107230370EDE765
:1047FC00042303700B784370013AD0B20230F0E717
:10480C00142303700120EDE706230370DEE7C04696
:10481C00F0B5C6460E0000B5002917D0FF230500E1
:10482C0000240227984601CDFEF76EFA80B280452F
:10483C009B415B420233C01801343F18E4B2BFB253
:10484C00A642F0D1380080BCB846F0BD0227F9E78B
:10485C00F8B5DE4657464E4645461623E0B5834628
:10486C000370002A38D0013AD2B2920091460B1D47
:10487C000E000127994411E002220C2392462B7062
:10488C0068700A3B020454444146120CE8183F1964
:10489C00043600F097FABFB2B14512D05B46DD1971
:1048AC00336818009846FEF72FFA84B2FF2CE3D930
:1048BC000D2303222B70230AAB70924603236870DE
:1048CC00E0E7781C80B25A461823D355F0BCBB469F
:1048DC00B246A946A046F8BD02200127F3E7C04620
:1048EC0007280DD9030004220C3B9343DBB2002BA9
:1048FC0009D00D389043C3B20020002B06D070476E
:10490C00013188B2FBE7023188B2F8E7033188B293
:10491C00F5E7C046F8B5050016001C000D2909D8AE
:10492C000B291BD80439032916D83100DAB2FFF74A
:10493C0043FFF8BD103901290ED8FF2B2AD81023BC
:10494C004470037002270220220031002818E41959
:10495C0000F038FAA0B2ECE70020EAE71000FEF70E
:10496C00D3F984B2FF2C0FD90D232B70230AAB7013
:10497C0003270323687002043100120CE818E419B1
:10498C0000F020FAA0B2D4E70C2302272B70687039
:10499C000A3BF0E711230370230A4470837003274A
:1049AC000320D1E7F0B5C64600B5838B04000D009B
:1049BC00012600AF002B04D0BD46300080BCB846A9
:1049CC00F0BD6A46CB1DDB08DB00D31AE8469D46DA
:1049DC000A0004306946FFF7A9FC854202D0002684
:1049EC00C546E9E7210068461431FEF747F9220075
:1049FC00290068462432FEF75BF922220121A35CD0
:104A0C000B43A354C546D7E7F8B545465746DE4693
:104A1C004E46E0B5838B04008846150000AF002B92
:104A2C0025D00600242314369A46B34682442B0024
:104A3C005A4643CA43C32221126858461A600122BF
:104A4C00635C934363542A816269A38B9446013B54
:104A5C00A383638B514663446361FEF73BF90120EA
:104A6C00BD46F0BCBB46B246A946A046F8BD0B00FD
:104A7C006A460733DB08DB00D31AE9469D460A0079
:104A8C0004306946FFF752FC804502D00020CD4629
:104A9C00E6E72600143631006846FEF7EFF82423CB
:104AAC009A46A244524641466846FEF701F9222234
:104ABC000121A35CB3460B43A354CD46B7E7C046D4
:104ACC0070B50500582000F05BF90600FEF7CEF833
:104ADC0001356C1044430134A4B2200000F050F9AD
:104AEC00010030000025220002C0FFF779FB2000F6
:104AFC00B58300F045F9B0620100300022002C3083
:104B0C00FFF76EFB44233000F5523565756570BDBB
:104B1C0070B5040004300025FFF76CFB2000A58362
:104B2C002C30FFF767FB4423E5522565656570BDA6
:104B3C0010B5838B0400002B01D0002010BD043075
:104B4C00FFF75CFB0028F8D04423E35A002BF4D188
:104B5C0020002C30FFF752FBF0E7C04670B5040084
:104B6C0004300D00FFF752FB288020002C30FFF79B
:104B7C004DFB688070BDC046F0B54F464646D646E4
:104B8C00C0B5804600AF08000C0091461E00FEF731
:104B9C0071F8012808D9012300203370BD46E0BC10
:104BAC00BA46B146A846F0BD85002D18FEF75EF852
:104BBC00ED000435454482462800FFF727FB82456B
:104BCC0003D9022300203370E8E72000FEF750F8E9
:104BDC0043461B6D834201D300281ED14346186502
:104BEC0053466A460733DB08DB00D31A9D46524610
:104BFC000021684600F0EFF84A46210000F0E2F888
:104C0C00524669462800FFF713FB030001209A4522
:104C1C00C4D0042300203370C0E70323002033707A
:104C2C00BCE7C046F0B5D6464F464646C0B5040074
:104C3C000D00FEF71BF8070001002000FFF7B2FE85
:104C4C0000285AD0200039002830FFF7ABFE8046F0
:104C5C0000284BD000276169E06B272388427F41F5
:104C6C008842924178429843524201339C469300C9
:104C7C009B18DB00E3181A0029001432BA4681464F
:104C8C00C1CAC1C11268E1440A60222294469C4404
:104C9C00624601206146127882430A702881596964
:104CAC0048468C4649469A8B2431013A9A835A8B52
:104CBC001430624420185A616118FEF70BF8534601
:104CCC0098005044C700E41964692B682800E41A62
:104CDC00FDF7F6F8844218DDEB889C4200DAEC8094
:104CEC004046E0BCBA46B146A846F0BD2A003900A1
:104CFC002000FFF789FE8046F2E720002A003900E9
:104D0C002830FFF781FE8046EAE76721024A034814
:104D1C00FFF73EFAE0E7C046D868000800690008D3
:104D2C0010B50400806A00F035F8206800F032F805
:104D3C00200000F02FF810BD70B500260C4D0D4C66
:104D4C00641BA410A64209D1002600F023FD0A4DD5
:104D5C000A4C641BA410A64205D170BDB300EB58DD
:104D6C0098470136EEE7B300EB5898470136F2E767
:104D7C00546900085469000854690008586900080F
:104D8C0010B5034B0100186800F09AF810BDC0462E
:104D9C000800002010B5034B0100186800F024F83F
:104DAC0010BDC0460800002030B500240139A242D5
:104DBC0001D1002005E0035D01340D5DAB42F6D05E
:104DCC00581B30BD002310B59A4200D110BDCC5CED
:104DDC00C4540133F8E703008218934200D17047A2
:104DEC0019700133F9E7000070B50500002910D0E7
:104DFC000C1F2368002B00DAE418280000F070F96F
:104E0C001D4A1368002B05D163601460280000F064
:104E1C006FF970BDA34208D9216860188342F3D1A1
:104E2C0018685B6841182160EEE71A005B68002B7C
:104E3C0001D0A342F9D911685018A0420BD12068B7
:104E4C000918501811608342E0D118685B6841184A
:104E5C0011605360DAE7A04202D90C232B60D5E72E
:104E6C0021686018834203D118685B68411821607F
:104E7C0063605460CAE7C0467822002070B50F4EBC
:104E8C000D0031680400002902D100F08FF8306069
:104E9C002900200000F08AF8431C0AD00323C51C0B
:104EAC009D43A84207D0291A200000F07FF8431C2C
:104EBC0001D101256D42280070BDC0467C22002026
:104ECC00F7B50322CB1C9343083306001F000C2BB1
:104EDC0032D20C27B94231D8300000F001F9324DF2
:104EEC002B681C00002C2ED139003000FFF7C6FFB8
:104EFC000400431C1ED12C682500002D4AD12368C8
:104F0C002900E3183000019300F050F8019B834214
:104F1C0043D123680337FF1A03239F4308370C2F11
:104F2C0000D20C2739003000FFF7A8FF431C34D007
:104F3C002368DF19276013E0002BCBDA0C23002544
:104F4C0033602800FEBD2268D11B20D40B2917D951
:104F5C00E2192760A34211D12A6063681160536083
:104F6C003000250000F0C4F807220B35231D9543B3
:104F7C00EA1A9D42E5D05B1BA350E2E75A60ECE7CE
:104F8C006268A34201D12A60EAE75A60E8E723008D
:104F9C006468A7E72C006D68AFE70C233000336022
:104FAC0000F0A6F8CDE7C04678220020002370B5AB
:104FBC00064D040008002B6000F0DEFB431C03D1FF
:104FCC002B68002B00D0236070BDC04680220020CF
:104FDC000CB430B5174B0C001D689DB0002908DAD5
:104FEC008B2301202B6040421DB030BC08BC02B0AA
:104FFC00184782236A469B009382002302900690F6
:10500C00994200D04B1E0493079301236A465B42DE
:10501C00D382280021AB209A02A9019300F0D2F888
:10502C00431C01DA8B232B60002CDDD00023029A69
:10503C001370D9E70800002003000A7801311A70B8
:10504C000133002AF9D17047030030B51D00002A46
:10505C0006D00C78013A01332C700131002CF5D1BB
:10506C0000219A18934200D130BD19700133F9E731
:10507C0030B5140005001A009BB0002C05DA8B2308
:10508C000360012040421BB030BD822368469B0068
:10509C0083810023009104919C4200D0631E0293F3
:1050AC000593012369465B42CB8128001E9B00F0CF
:1050BC0089F8431C01DA8B232B60002CE3D00023EE
:1050CC00009A1370DFE7000007B5009313000A0085
:1050DC00010002480068FFF7CBFF0EBD080000205E
:1050EC0010B5024800F0F0FA10BDC0468422002032
:1050FC0010B5024800F0E9FA10BDC0468422002029
:10510C00F0B58E6885B007000C00039201939E42A7
:10511C003CD890238A89DB001A4234D00969236871
:10512C0060695B1A029303234343DD0FED18019B67
:10513C00029801331B186D10AB4200D91D005305AA
:10514C0032D529003800FFF7BBFE061E09D10C230F
:10515C003B6040230120A28940421343A38105B048
:10516C00F0BD029A2169FFF72DFEA389144A1A405B
:10517C0080231343A381029B2661F6182660656188
:10518C00019EED1AA560019B9E4200D9019E320042
:10519C000399206800F0A5FAA36800209B1BA3606C
:1051AC0023689E192660DAE72A00380000F0ACFA72
:1051BC00061EE0D138002169FFF716FEC7E7C0468E
:1051CC007FFBFFFFF0B5A1B003901D008B890F0092
:1051DC0016001B0611D50B69002B0ED14021FFF7D1
:1051EC006FFE38603861002805D10C23039A013812
:1051FC00136021B0F0BD40237B61002308AC6361D8
:10520C00203363761033A376079535002B78002B6B
:10521C0001D0252B47D1AB1B0593B5420CD03200E6
:10522C0039000398FFF76CFF431C00D1AEE06269B4
:10523C00059B9446634463612B78002B00D1A5E059
:10524C00012200235242626004A9543252186E1C8F
:10525C002360E360A3601370A36505223178544882
:10526C0000F034FA751C00281FD12268D30604D52F
:10527C00532304A95B1820211970130704D5532359
:10528C0004A95B182B21197033782A2B16D0350002
:10529C0000210A20E3682A786E1C303A092A4ED97C
:1052AC00002911D117E00135B0E7414B2268C01A33
:1052BC000123834013432E002360CEE7079B191D67
:1052CC001B680791002B01DB0B9304E05B42E3604E
:1052DC000223134323602B782E2B0AD16B782A2BB5
:1052EC0035D1079B02351A1D1B680792002B2BDB4F
:1052FC000993304E03223000297800F0E7F900289A
:10530C0006D04023801B8340226801351343236061
:10531C002978062228486E1C217600F0D7F900283F
:10532C003CD0264B002B25D10722079B07339343F8
:10533C00083307936369049A9B18636165E74343D9
:10534C00350001219B18A6E701235B42D0E700231F
:10535C000A201A000135636029786E1C303909293E
:10536C0003D9002BC5D00992C3E742433500012372
:10537C005218F1E707AB00933A002100104B039849
:10538C0000E000BF0490049B0133D3D1BB890D987E
:10539C005B0600D42DE7012040422AE707AB0093BF
:1053AC003A002100064B039800F07CF8EAE7C0466F
:1053BC00176900081D690008216900080000000039
:1053CC000D510008F7B5150001938A680B690C00A4
:1053DC000090934200DA130022002B6043321278C3
:1053EC00002A01D001332B6023689B0602D52B6861
:1053FC0002332B602268062317001F401A4227D065
:10540C00230043331B785A1E93412268920630D4F2
:10541C00220001990098089E4332B047431C25D0C6
:10542C00062320682A68E16800250340042B03D179
:10543C008D1AEB43DB171D40A3682269934201DDF3
:10544C009B1AED180027BD4220D1002010E0013737
:10545C00E3682A689B1ABB42D2DD22000123019922
:10546C000098089E1932B047431CF0D101204042ED
:10547C00FEBD3020E1184331087021005A1C453123
:10548C000978A218433202331170C1E722000123BC
:10549C0001990098089E1A32B047431CE6D0013798
:1054AC00D1E70000F0B58BB006920A0043320793A7
:1054BC00059004920A7E0C00109B782A07D8622A69
:1054CC0009D8002A00D1C1E0582A00D18CE026006E
:1054DC004236327022E0100063381528F7D8FDF7F9
:1054EC001BFC16001F00F6FFF6FFF6FFF6FF1F0071
:1054FC00F6FFF6FFF6FFF6FFA80036009A00F6FF5F
:10550C00F6FFB900F6FF3600F6FFF6FF9E00260008
:10551C001A684236111D1960136833700123A7E015
:10552C00086819680A1D05060BD50D681A60002D50
:10553C0003DA2D23049A6D421370614B0A270393EF
:10554C001BE00D681A604106F1D52DB2EFE70D682E
:10555C001968081D18602E0601D50D6803E06D064C
:10556C00FBD50D68ADB2564B082703936F2A00D0BC
:10557C0002372300002243331A706368A360002BA8
:10558C0003DB0422216891432160002D02D1049E8B
:10559C00002B0CD0049E28003900FDF74DFC039B1A
:1055AC00013E5B5C33702B0005009F42F3D9082F42
:1055BC0009D12368DB0706D563682269934202DCB4
:1055CC003023013E3370049B9B1B2361079B2100FE
:1055DC0000930598069B09AAFFF7F4FE431C4CD1D7
:1055EC00012040420BB0F0BD45310A70344A0392A1
:1055FC001A68216820CA1A60080616D5CB0702D58E
:10560C002023194321601027002DB2D120232268BA
:10561C009A432260ADE7202209680A4322602200E7
:10562C00782145321170274AE1E74806E6D5ADB23C
:10563C00E4E71A680D68101D4969186013682E0696
:10564C0001D5196002E06D06FBD519800023049E7C
:10565C002361BBE71A68111D196016680021300020
:10566C00626800F033F8002801D0801B606063682A
:10567C0023610023049A1370A8E72369320006996A
:10568C000598079DA847431CAAD023689B0715D4EF
:10569C00099BE0689842A5DA1800A3E722000123D1
:1056AC0006990598079E1932B047431C98D00135CE
:1056BC00E368099A9B1AAB42F0DCE9E70025F7E7AF
:1056CC00286900083969000870477047C9B2821808
:1056DC00904201D10020704703788B42FBD00130FF
:1056EC00F6E710B5884202D98B18984203D30023F1
:1056FC0007E08B5C8354013AFBD210BDCC5CC454E4
:10570C0001339A42FAD1F8E7F7B507000E001400FE
:10571C00002905D11100FFF7D3FB05002800FEBDC1
:10572C00002A03D1FFF760FB2500F7E700F01BF818
:10573C000190844203D835004308A342EED32100E4
:10574C003800FFF7BDFB051EE8D0019B22009C42F0
:10575C0000D91A0031002800FFF734FB3100380063
:10576C00FFF742FBDAE70B1F1B68181F002B01DA4F
:10577C000B58C01870470000044A0300106800283A
:10578C0002D0C318136070470148FAE78822002042
:10579C0090220020F8B5C046F8BC08BC9E46704765
:0C57AC00F8B5C046F8BC08BC9E4670472B
:1057B800481100083A1100083A1100083A11000887
:1057C8003A110008641100083A1100084411000851
:1057D8003A1100083A110008721100083A1100083D
:1057E8003A1100088A11000882130008BE12000846
:1057F800BE120008BE120008BE120008BE12000841
:10580800BE120008BE120008B0120008D01300082B
:10581800BE1200088E120008D412000828130008CF
:105828003A130008BE120008BE120008BE12000893
:10583800D012000874140008AA140008E214000822
:105848007414000874140008741400087414000810
:105858007414000874140008741400087414000800
:1058680074140008741400087414000874140008F0
:1058780074140008741400087414000874140008E0
:1058880074140008741400087414000874140008D0
:1058980074140008741400087414000874140008C0
:1058A8007E140008741400086E14000874140008AC
:1058B8007E14000874140008741400087414000896
:1058C80074140008F01400086E140008741400081A
:1058D80074140008CE14000888150008E4150008A0
:1058E800261600088815000888150008881500087D
:1058F800881500088815000888150008881500080C
:1059080088150008881500088815000888150008FB
:1059180088150008881500088815000888150008EB
:1059280088150008881500088815000888150008DB
:1059380088150008881500088815000888150008CB
:1059480088150008561600089616000888150008DD
:1059580088150008A0150008881500088815000893
:105968008815000888150008781500089C15000897
:1059780058150008781500089415000892180008B2
:10598800A2180008F01800089218000892180008D9
:105998009218000892180008921800089218000837
:1059A8009218000892180008921800089218000827
:1059B8009218000892180008921800089218000817
:1059C8009218000892180008921800089218000807
:1059D80092180008921800089218000892180008F7
:1059E8009218000892180008921800089E180008DB
:1059F80092180008921800089E18000892180008CB
:105A080092180008921800089218000892180008C6
:105A180092180008EC18000892180008FE180008F0
:105A28008219000896190008BC1900088219000894
:105A380082190008821900088219000882190008D2
:105A480082190008821900088219000882190008C2
:105A580082190008821900088219000882190008B2
:105A680082190008821900088219000882190008A2
:105A78008219000882190008821900088219000892
:105A8800821900088219000882190008981A00086B
:105A9800821900088219000882190008CA1900082A
:105AA800DE190008041A0008821900088219000883
:105AB800581A00088219000882190008821900087B
:105AC800681A0008101C00081A1B00081A1B000896
