:020000040800F2
:1000000000900020A1200008F1200008A1120008A3
:1000100000000000000000000000000000000000E0
:10002000000000000000000000000000F1200008B7
:100030000000000000000000F1200008011300088B
:10004000F1200008F1200008F1200008F12000084C
:1000500011130008F1200008F1200008B115000874
:10006000F1200008B9160008F1200008F12000086E
:100070001D1600082D1300089D13000855140008D4
:10008000F120000801160008F1200008F120000806
:10009000F1200008F1200008F1200008F1200008FC
:1000A000F1200008F1200008F1200008F1200008EC
:0C00B00025170008F1200008F1200008CE
:1000BC0010B5064C2378002B07D1054B002B02D032
:1000CC00044800E000BF0123237010BD7000002025
:1000DC0000000000CC390008044B10B5002B03D0F5
:1000EC000349044800E000BF10BDC04600000000FA
:1000FC0074000020CC390008F0B50124C0238440E2
:10010C000B4D5B00EC500700830803203840FF27A1
:10011C00AC46C026C0008740890181409B006344E7
:10012C00B6009A59BA430A439A512C60F0BDC046A6
:10013C0000E100E0F0B501224F46D64646460B687A
:10014C0000249146C0B5002B1AD14BE01700574341
:10015C007B00DB19DB43C568AC4666460D691E4067
:10016C007D433543C5604D68022D2DD07D4302681B
:10017C0013402B4303600B681A000134E24031D06A
:10018C004D461A00A5402A402B42F5D04B68013B46
:10019C00012BDBD81700574383688D6898467B008A
:1001AC009C467D43BC44AA4646466546AE43350054
:1001BC00564663462E438660CE6845685643954343
:1001CC003543DB434560C6E7FF2A10D83D007D432D
:1001DC00026A2E01761BB2434E6975432A430262B2
:1001EC004D68C3E7E0BCBA46B146A846F0BD120A5A
:1001FC0052435243456A1601B61AB5434E697243CF
:10020C002A4342624D68B1E710B511240200084838
:10021C000B00016AA14301628020064980008862BC
:10022C00DA38FF3888610449044802F04DFFFEE7D4
:10023C00002C014000040050E83B0008803E000800
:10024C00FA2170B5124C05008900206801F096FC6B
:10025C00802301385B04984201D3012070BDC0217A
:10026C000C4A090650600C48036A1B021B0A0B431C
:10027C0003620721002393601160032DEDD8026AFD
:10028C00A9071202120A0A43026218006560E5E728
:10029C000000002010E000E000ED00E010B50A00C6
:1002AC0002490348103102F00FFF10BDE83B000873
:1002BC008C3E000810B50A0002490348203102F0B8
:1002CC0003FF10BDE83B00088C3E0008002210B56F
:1002DC00037844781C4205D1013292B202308A4232
:1002EC00F6D110BD02490348303102F0EDFEF8E7BB
:1002FC00E83B0008943E00084B1E9941012310B5C1
:10030C0049429943002200230E3103F039F910BD04
:10031C0070B5060014001D00A93682B0FF3600929D
:10032C00019332687368A41A9D41002D04D1074BC8
:10033C009C4201D802B070BD08236A46132103F019
:10034C001FF9009B019C33607460F3E7BFE1E4008C
:10035C00F0B5D6464F4646460300C0B5A533FF332D
:10036C00DD8902000020002D04D1E0BCBA46B14664
:10037C00A846F0BD987ADE889979002800D086E0EE
:10038C001C7A587A013C241A0120E4B29872490074
:10039C00D220400012581F7B5018565CDA7A4578F0
:1003AC009146C82A00D983E01100794802F08CFEEE
:1003BC0001235B424B449846042F00D8A1E04B46E6
:1003CC00002B05D1734B744A1800744902F08CFE53
:1003DC00002C00D18AE07B01DB1B9801C01AFA23A8
:1003EC00C000C01980019B04984279D36C4800224C
:1003FC0006216C4B013CD8621C635A621A698A4311
:10040C001A61354200D0A1E00523334200D183E0CC
:10041C0042460221634B35435A63DA680A43DA6079
:10042C005A6901390A435A614022ED4301205E4B5F
:10043C009A61EBB2054200D0A1E05C4A02219062C5
:10044C000422082019401A400340002900D092E0F1
:10045C00022056498862002A74D10421534A9162C1
:10046C00002B55D02022514B9A6100235021504A29
:10047C004C4C53526363A36390693339002203F0ED
:10048C007FF8012223680120134323606DE70131BB
:10049C009F88C8B2B84232D041005C7A187A0134D5
:1004AC00E4B201385C72844257D0002098726FE736
:1004BC00C821374802F008FEC7239846042F87D876
:1004CC00344B3C4A18003C499A4602F00DFE002C75
:1004DC000ED07B01DB1B9801C01AC000C019800133
:1004EC00FA21890001F04AFB013880E7294B9A4632
:1004FC00CF215046314A890002F0F6FD6BE700210E
:10050C00CBE7244B2B4A18002B4902F0EDFD56E7A4
:10051C002022264B9A62A8E742460421214B354300
:10052C009A63DA680A43DA605A6903390A435A61F2
:10053C00002D1ED140221C4B9A621C4B3E3A9961F5
:10054C009A6108230421194A916189E75B311C4A9D
:10055C001048FF3102F0C8FD56E700200136B6B254
:10056C005872B74201D0DE809FE7013DD880DD8113
:10057C009BE7ADB258E702200C4988616BE7082471
:10058C0002213C3A19401A402340084CA0615CE718
:10059C00AC3E0008D83E0008EC3E00083B030000CF
:1005AC00FEFF0000002C0140000800500004005029
:1005BC008C000020C43E00083A030000083F0008ED
:1005CC00203F0008032310B5104C114A23616361CE
:1005DC00104BA261E36180239B0123620023A36281
:1005EC006362E36222660C4A0C4954326266102242
:1005FC00E01DA2662367E366636703F0B9F9200088
:10060C00074903F0B5F92023A37110BD2421002064
:10061C003C3F0008240100208C000020483F0008CB
:10062C004C3F0008F8B54746CE4680B58368C56890
:10063C0099465B1B9846436804000E001700581936
:10064C00904507D9ED1903F08DF8E560C0BCB946AB
:10065C00B046F8BD424603F085F84B463100ED1923
:10066C00ED1A2A006068414403F07CF8E560EDE780
:10067C00F0B557464E464546DE46E0B5354B83B0A1
:10068C009A461B78060015000191002B56D0770076
:10069C00BB19DB0053441A6F9046DA6E91469045B5
:1006AC0025D8130042462C009B1A9D4209D8002CD9
:1006BC0009D1200003B0F0BCBB46B246A946A04607
:1006CC00F0BD1C1EF5D0A146BB19DB005344596E7E
:1006DC00220041440198A04403F044F84C46002CFD
:1006EC00E7D04346BF19FF0057443B67E1E742465A
:1006FC009B6E2C009B1A9D4227D8BB19DB005344E0
:10070C009B46596E22004144019803F02BF85B463E
:10071C009B6EA0442D1B434519D04B4642469B1A59
:10072C0099464D450DD8002DD9D0019BA1469C462C
:10073C00A44463462C000193A944C5E7FFF742FF8C
:10074C00A5E74D46002DCAD0EFE71C00D5E70023E6
:10075C009846E6E724210020F8B557464E46DE467B
:10076C0045468946411CE0B517004A005218030063
:10077C00D2009246344A5E0093461000F618F600FA
:10078C005E44F36A50449846012B0CD0022B27D0C0
:10079C00002B17D0002398464046F0BCBB46B2460F
:1007AC00A946A046F8BDB36A726A934247D9013B89
:1007BC009B1AB8469F4200D9984642464946FFF7D5
:1007CC0031FFE9E7B36A726A934233D9013B9B1A52
:1007DC009F42E1D83A004946FFF724FFB846DBE7D1
:1007EC000023746A98461DE0013B356A1B1BBB4213
:1007FC0000D93B002D1B9D4200D91D005B46534484
:10080C0058682A004946001902F0ACFF336A641993
:10081C00E31A5A1E93415B421C40A844A9447F1B17
:10082C007462B9D0B36AA342DED8356A5B19013B56
:10083C001B1BDCE7316A5B18013B9B1AC8E7316A6A
:10084C005B18013B9B1AB4E724210020F0B5C64687
:10085C0000B5856843686A1C04009A4207D803688F
:10086C0059551500C36882600133C36043689D42CB
:10087C0002D080BCB846F0BD2368276998460E4B61
:10088C001B78002B15D0EFF31086012181F3108813
:10089C002A0041463800FFF75FFF86F31088A368F3
:1008AC00834203D001235B42E360E2E70023A360B1
:1008BC00DFE7FFF787FEE6E724210020F0B54E4680
:1008CC0045465746DE46E0B583B09A460C9B8046BB
:1008DC000E0015009946914200D27DE008000127D8
:1008EC00290001F04BF901378542F9D9574500D25F
:1008FC00574601230D9A1A4001920D9A13424ED17C
:10090C004B46002B4BD0130020249B075ED44F4545
:10091C0045D201235B429C4621004046E144FFF74F
:10092C0095FF4346DB68002B32DB4B46002BEED1A8
:10093C0053460124012B07D901235B429C46E24418
:10094C0053466C43012BF7D82100300001F016F907
:10095C008542F5D9214B9B4650239A4606E0290047
:10096C00200001F00BF9AC420FD304003000210041
:10097C0001F08AF9534658440E00C15C4046FFF71B
:10098C0065FF4346DB68002BE9DA019B002B19D18C
:10099C0003B0F0BCBB46B246A946A046F0BD4346E8
:1009AC00DB68002BC4DAF3E74F45F1D201235B423D
:1009BC009C4620214046E144FFF748FF4346DB6854
:1009CC00002BE5DB4B46002BEED1E1E753465C42B6
:1009DC005C41240120349AE7012787E7E83B0008B3
:1009EC0070B5050008000C0002F080FE0E280CD03B
:1009FC000CD807282FD00C283CD1D0235B00E8580A
:100A0C00002200231A2102F0BBFD70BD132831D146
:100A1C00200002F06DFE002341680068194A01F0C5
:100A2C004DFA04003C21200001F02EF920000E00AC
:100A3C003C2101F0A3F83C2101F026F90D00E12145
:100A4C002000090101F09AF8330001002A000E4839
:100A5C0002F03AFBD9E7200002F04AFE04680B488A
:100A6C00210002F031FB022CCFD1D82300225B00F5
:100A7C00EA54CAE7064902006031064802F024FB3A
:100A8C00C3E7C04640420F00543F00086C3F0008CB
:100A9C00E83B0008803F000870B5050008000C001A
:100AAC0002F024FE1F280DD8214A800013589F46BF
:100ABC0020492148703102F007FB2800FFF748FC61
:100ACC00002070BD200002F011FE1A4902007031A6
:100ADC001A4802F0F9FA0020F3E716491848703169
:100AEC0002F0F2FA0020ECE7200002F001FE154AB9
:100AFC0041888388008853434A43C101091809017E
:100B0C00091A9B0B1048920B890A02F0DDFA00209F
:100B1C00D7E72800FFF71CFC03000020002BD0D1E6
:100B2C000A4802F0D1FA0A48CBE70A48C9E7C0469E
:100B3C00E4390008E83B00088C3F0008E83F000857
:100B4C00983F00084DCE0000C03F0008A43F0008AD
:100B5C004D0C0008650B000870B5050008000C0072
:100B6C0002F0C4FD1F2803D8224A800013589F4668
:100B7C00200002F0BBFD20490200204802F0A4FA3C
:100B8C00002070BD1C491E4802F09EFA0020F8E7B8
:100B9C0019491C4802F098FA0020F2E7200002F0F4
:100BAC00A7FD194A41888388008853434A43C101F1
:100BBC0009180901091A9B0B1448920B890A02F0B7
:100BCC0083FA0020DDE7124802F07EFA1148D8E7DC
:100BDC00D9235B00EB5A002B06D10F4802F074FAB4
:100BEC000E48CEE70020CCE70D4802F06DFA00204D
:100BFC00C7E7C046643A0008683C0008E83F0008B4
:100C0C008C3F0008983F00084DCE0000C03F000804
:100C1C000C400008A50A0008A43F00084D0C000871
:100C2C001C40000810B5040002F0A6FC002800D1FE
:100C3C0010BDD0235B00E05802F09EFCF8E7C046E4
:100C4C0070B5050008000C0002F050FD1F2803D8F9
:100C5C002D4A800013589F46200002F047FD2B4977
:100C6C0002000C312A4802F02FFA002070BD274CEC
:100C7C00284821000C3102F027FAD22302225B0013
:100C8C001834EC500433EA50234A0433EA50A535A7
:100C9C00993BFF35FF3B2B731E330020EB81E5E7BF
:100CAC001A491E480C3102F00FFA0020DEE7200032
:100CBC0002F01EFD1A4A41888388008853434A4338
:100CCC00C10109180901091A9B0B1648920B890AD4
:100CDC0002F0FAF90020C9E7D9235B00EB5A002B8C
:100CEC000BD01148C2E7114802F0EEF90020BDE725
:100CFC000F4802F0E9F90020B8E70E486D210E4AC2
:100D0C0002F0F2F90848B1E7E43A0008683C000840
:100D1C00E83F00088C3F00080F000050983F000887
:100D2C004DCE0000C03F0008A50A00086C4000082A
:100D3C008C4000085C4000083C400008F8B50600F8
:100D4C00D03605000122300002F098FA012804D0B8
:100D5C00A921244A244802F0C7F972B6BFF34F8F79
:100D6C00BFF36F8F4827214CE35DFF2B2BD048221C
:100D7C0001333000A35402F0FBF900280FD04825B2
:100D8C00635D002B18D04822013BDBB2A354002B2F
:100D9C0004D1BFF34F8FBFF36F8F62B6F8BDE5235D
:100DAC00EA56012A17D04825114912481C3102F085
:100DBC008BF9635D002BE6D10F4A1049104802F005
:100DCC0093F9635DDFE7A4210E4A0D48890002F018
:100DDC008BF9E35DCBE780210B4A13688B431360DF
:100DEC00CDE7C046A4400008B04000088C000020AD
:100DFC00683C0008E8400008044100089702000025
:100E0C00D83E0008C04000080044004070B5D02611
:100E1C007600835904009847051E1BD0A65902F092
:100E2C0047FC01002000B047002804D0D6210A4A14
:100E3C000A4802F059F9D0235B00E55002F02AFC75
:100E4C0001002000A847002804D0D921024A0348F9
:100E5C0002F04AF970BDC046244100085C4000080D
:100E6C00F0B5DE4657464E464546E0B5494D0A00BC
:100E7C002900040083B002AF3031474802F024F956
:100E8C00266872B6BFF34F8FBFF36F8F4823434C66
:100E9C009846E35CFF2B6BD048220133A354D0233C
:100EAC009946B1444846904602F058F9E623F35A65
:100EBC00DA1C9246904245D36A460A33DB08DB00C3
:100ECC00D31A9D4602AB9B46EA23F25CE73B042116
:100EDC0000935846324B02F09FFA52465946484608
:100EEC0002F04EF94346E35C002B1DD04822013B37
:100EFC00DBB2A354002B11D0584602F0EFFA2900B4
:100F0C00020003232748443102F0DEF8BD4601B04D
:100F1C00F0BCBB46B246A946A046F0BDBFF34F8F0E
:100F2C00BFF36F8F62B6E7E71F4A2049204802F0F3
:100F3C00DBF843464822E35C013BDBB2A354002BB5
:100F4C00DAD1EBE74346E35C002B1AD04822013B95
:100F5C00DBB2A354002B04D1BFF34F8FBFF36F8FC1
:100F6C0062B6290003224431124802F0ADF8CDE7F5
:100F7C00A421114A0E48890002F0B6F84346E35CFE
:100F8C008AE7094A09490A4802F0AEF84346E35C8D
:100F9C00DCE7C046683C0008304100088C000020AB
:100FAC005441000858410008044100089702000011
:100FBC00D83E00083C410008C0400008F0B50400D1
:100FCC00E425E020C646E626635D00B55A1C625552
:100FDC002258D154615DA35B994206D327580FD098
:100FEC00E822A05A1B18994203D0002080BCB846B6
:100FFC00F0BDE42300223800E25402F06BFAF5E76E
:10100C00380002F03FFA00280DD0380002F05AFAEE
:10101C00E8239846E05280230100DB00984215D863
:10102C00615DA35BDEE7635D013BDBB26355002BC7
:10103C00DBD00023E025E4306259D1184978D15433
:10104C00225C0133DBB29A42F6D8CEE7034802F0B9
:10105C003BF800234246A352C7E7C0467C41000838
:10106C00F0B5D6464F464646E623C0B5C65A6B4643
:10107C00F41DE408E4001B1B00AF9D4688460B00E2
:10108C00050000220121684602F092F92B4B4246E2
:10109C0019002B4858319946EA4602F015F872B6F9
:1010AC00BFF34F8FBFF36F8F4823264C9846E35CFA
:1010BC00FF2B33D0482228000133A3545146320071
:1010CC00D03002F05DF8002814D14825635D002B68
:1010DC001DD04822013BDBB2A354002B04D1BFF33B
:1010EC004F8FBFF36F8F62B6BD46E0BCBA46B146B8
:1010FC00A846F0BDE523EA56012A18D049464825F2
:10110C0011481C3101F0E0FF635D002BE1D10F4A67
:10111C000F49104801F0E8FF635DDAE7A4210E4A9D
:10112C000C48890001F0E0FF4346E35CC2E78021F4
:10113C000A4A13680B431360C7E7C046683C0008B3
:10114C00A04100088C000020E84000080441000881
:10115C0097020000D83E0008C04000080044004040
:10116C00F0B5C646804600B508000D0002F0B2F995
:10117C0004002800012C16D002F0B0F90600032C54
:10118C0035D0280002F09EF90700042C19D020005D
:10119C0002F000F93B0001003200194801F094FF05
:1011AC0080BCB846F0BD02F09DF904000100154862
:1011BC0001F08AFF0F20EA23424601340440D45444
:1011CC00EEE702003100104801F07EFF310040468E
:1011DC00FFF746FF4246CC232800D458043BD65890
:1011EC0002F076F93A0001003000A047D8E7010080
:1011FC00064801F069FF31004046FFF731FFCFE7A9
:10120C001C420008B8410008F0410008D041000819
:10121C00EB2370B5C35C0400002B0BD10A2905D05D
:10122C00C9B2FFF7CBFE032815D070BD0339FFF709
:10123C0017FFFAE7C9B2FFF7C1FE0028F5D0E0238B
:10124C00E558280002F052F9002813D0290020009C
:10125C00FFF786FFE9E7E023E558280002F046F99E
:10126C0000280DD029002000FFF77AFFEB23012284
:10127C00E254DAE7054906486C3101F025FFD4E762
:10128C00024903486C3101F01FFFEFE7683C00088E
:10129C004C420008112110B50F4A1048136A8B43B9
:1012AC00136280220E4B92009A62DA3AFF3A9A61EC
:1012BC000C4B0D495A6801F007FF0C4C0122210020
:1012CC0064230B486431E25401F0FEFE6422A35CFB
:1012DC00002BFCD110BDC046002C01405C42000824
:1012EC000004005000ED00E0E83C00088C000020F9
:1012FC006C420008024A936E013393667047C046F5
:10130C008C00002010B5EFF305820349034814311B
:10131C0001F0DAFE10BDC046E83C00088C3E000827
:10132C00012210B5144B19690A421DD00620196808
:10133C0091431960D9688143D9601969013081439F
:10134C00196140210D4B99620D4B21399A61013283
:10135C009A6102329A611C329A610A4B0022986996
:10136C00002302F00DF910BD07491A692031074816
:10137C0001F0AAFEF7E7C046002C0140000800501F
:10138C00000400508C000020E83C0008A442000837
:10139C00022210B5244BD9680A4202D019690A42BC
:1013AC0035D1224C0422204BD9680A4202D019694B
:1013BC000A4220D150221C4BA25A1B6B01339A4279
:1013CC0012D0194B1A491A690A4200D110BD1B6977
:1013DC001848194001F078FEEFF3058216491748BA
:1013EC00143101F071FEF1E7002300221E21A069E7
:1013FC0002F0C6F8E5E719691148914319615023C9
:10140C00E15A013189B2E15201F05EFED2E719696D
:10141C00064C914319615023E15A0A48013189B2B3
:10142C00E15201F051FEBDE7002C01408C00002080
:10143C00E0FF0C00A4420008E83C00088C3E0008C9
:10144C00BC420008B0420008F8B580230222DB053C
:10145C0019690A420FD101211A69114203D01A6984
:10146C008A431A61F8BDEFF30582274927481431E6
:10147C0001F02AFEF6E71969254C9143196125689C
:10148C00666872B6BFF34F8FBFF36F8F4827E35D6B
:10149C00FF2B31D048215A1CD2B262548021C9058D
:1014AC00E06E496AE166884202D9216F01312167F9
:1014BC00002A17D04822A354002B04D1BFF34F8F1E
:1014CC00BFF36F8F62B6236FE26E990792080A43DF
:1014DC009B083000A8478022D205536BA1685B188B
:1014EC005363BFE70B4A0C490C4801F0FDFD482340
:1014FC00E35C013BDBB2DDE7A421094A0748890024
:10150C0001F0F2FDE35DC5E7E83C00088C3E000805
:10151C008C0000200441000897020000D83E00080F
:10152C00C040000870B548250B4C635D002B0BD0F8
:10153C004822013BDBB2A354002B04D1BFF34F8FE5
:10154C00BFF36F8F62B670BD044A0549054801F0C0
:10155C00CBFD635DECE7C0468C0000200441000825
:10156C0097020000D83E000870B572B6BFF34F8FDB
:10157C00BFF36F8F4825084C635DFF2B03D04822C7
:10158C000133A35470BDA421044A0548890001F01D
:10159C00ABFD635DF3E7C0468C000020C040000843
:1015AC00D83E0008102210B50E4BD9680A4211D152
:1015BC0019690A4207D1EFF305820B490B48143124
:1015CC0001F082FD10BD0A4800211A610C3001F0B7
:1015DC00A7FDF7E706480121DA600C3001F0A0FD09
:1015EC00F0E7C04600180240E83C00088C3E0008BA
:1015FC008C00002010B5EFF3058203490348143129
:10160C0001F062FD10BDC046E83C00088C3E0008AD
:10161C00102210B51C4B19680A421AD10122196804
:10162C000A4211D1802219689201114222D104225E
:10163C0019680A4223D1082219680A420ED01A608E
:10164C00124801F041FD03E011481A6001F03CFD25
:10165C0010BD1A600F4801F037FDF9E719680E4804
:10166C0001F032FDEFF305820C490D48143101F005
:10167C002BFDEDE71A600B4801F026FDE8E71A6038
:10168C00094801F021FDE3E7002401400C43000868
:10169C00D8420008C842000818430008E83C00087B
:1016AC008C3E0008E442000800430008022310B5F9
:1016BC00134C2268134218D108232268134208D114
:1016CC00104922681048403101F0FEFC042363608D
:1016DC0010BD0C49636040310C4801F0F5FC012150
:1016EC000B4A13680B431360F2E76360094B142138
:1016FC001A0098694A32062301F042FFE8E7C04617
:10170C0000000240E83C000834430008284300086D
:10171C00080002408C00002010B50D4BDA699206CF
:10172C0010D4DB691B0605D50A4B0B49986B5B6B18
:10173C00984710BDEFF3058208490948143101F0B0
:10174C00C3FCF6E70348596A1C3001F0E9FCF0E7EA
:10175C00004400408C00002028440040E83C000875
:10176C008C3E000870B572B6BFF34F8FBFF36F8F0E
:10177C0048251B4C635DFF2B29D048215A1CD2B243
:10178C0062548021C905E06E496AE166884202D93B
:10179C00216F01312167002A0FD04822A354002B5E
:1017AC0004D1BFF34F8FBFF36F8F62B6216FE06E22
:1017BC008B0780081843890870BD0A4A0A490B48F0
:1017CC0001F092FC4823E35C013BDBB2E5E7A4218A
:1017DC00074A0648890001F087FC635DCDE7C046E7
:1017EC008C0000200441000897020000D83E00083D
:1017FC00C04000087047C04610B50B00EFF31084D2
:10180C00012181F310881900FEF732FF84F3108850
:10181C0010BDC04610B582B0EFF31084012181F3E6
:10182C0010886B460122D91D0020FEF721FF84F39E
:10183C001088012803D16B46D87902B010BD012065
:10184C004042FAE710B5FEF7BDFE10BDF0B5DE461E
:10185C004E4657464546E0B59BB00AAB0593402330
:10186C00069300230793089301330C0091469B4683
:10187C000290099005E005A8FEF7E8FF08980028FB
:10188C0059DB2178013400295CD02529F3D12200C1
:10189C001378002602250820140021392D2B0CD09A
:1018AC002D2B0ED8232B11D02B2B00D05FE10E4308
:1018BC000132137814002D2BF2D15B4601321E43FA
:1018CC00F7E7302B05D12E430132F2E70643013204
:1018DC00EFE71A00303A0025092A0DD81A00AB00A0
:1018EC005B1901345B009B182278303B1D00130000
:1018FC00303B092BF3D913002E2B00D1D8E0002755
:10190C002378042101E0637801341A008A43682AA1
:10191C00F9D0252B07D0583BDBB2202B07D8954AA2
:10192C009B00D3589F46252105A8FEF78FFF0898EA
:10193C0001340028A5DA1BB0F0BCBB46B246A94660
:10194C00A046F0BD08980028F5DD079C002C00D0BF
:10195C00C6E00019EFE74B4649461B6805A81A1D5F
:10196C000A60196810223B0001960095FEF7A6FF4D
:10197C0001340898DDE74B4649461B6805A81A1D3B
:10198C000A6019680A223B0001960095FEF796FF43
:10199C0001340898CDE74B4649461B681A1D0A606E
:1019AC001D6805E005A8FEF751FF08980028BFDB6D
:1019BC00297801350029F5D10898B9E74B464946F5
:1019CC001B6805A81A1D0A601968002301930833C7
:1019DC0010220093FEF772FF01340898A9E74B46DA
:1019EC0049461B681A1D0A601B68DA17981803937E
:1019FC00012350409A4609280DDDAA46A0461D0039
:101A0C000A210400013500F06FF9632CF8DC2B007F
:101A1C00444655469A46B846574575D3002D36D0A0
:101A2C00039B002B74DB730772D4B30701D5002F13
:101A3C002DD05B4633422AD1002D28D04346A046F8
:101A4C001C00AC4220D205A82021FEF7FFFE08980E
:101A5C00013D002800DA87E0002DF2D12300444636
:101A6C009846039B002B58DB730761D40323334048
:101A7C00022B62D005A83B000A220399019600951F
:101A8C00FEF71CFF089853E7230044469846089835
:101A9C000028E6DA01344CE74B4649461B6805A89A
:101AAC001A1D0A601978FEF7D1FE0134089840E738
:101ABC006378621C1900303914000027092900D9F9
:101ACC001FE71A00BB00DB1901345B009B1822785E
:101ADC00303B1F001300303B092BF3D9130010E7E8
:101AEC00254B1B78002B15D0EFF31085012181F3CA
:101AFC001088220002980AA9FEF72EFE85F31088A2
:101B0C000898079C001916E7D046002DBFD087E730
:101B1C00013D8AE7FEF756FDE6E75B422D2105A85D
:101B2C000393FEF793FE089800289FDA013400E730
:101B3C002B2105A8FEF78AFEF5E7002F9AD10AE0C3
:101B4C00A8450CD205A83021FEF780FE0898013D6F
:101B5C00002800DAECE6002DF2D100258AE708987F
:101B6C00002887DA0134E4E644460134E1E6002536
:101B7C00C5E6C046643B000824210020002243082F
:101B8C008B4274D303098B425FD3030A8B4244D339
:101B9C00030B8B4228D3030C8B420DD3FF2209027B
:101BAC0012BA030C8B4202D31212090265D0030B3A
:101BBC008B4219D300E0090AC30B8B4201D3CB0330
:101BCC00C01A5241830B8B4201D38B03C01A524172
:101BDC00430B8B4201D34B03C01A5241030B8B4274
:101BEC0001D30B03C01A5241C30A8B4201D3CB025F
:101BFC00C01A5241830A8B4201D38B02C01A524144
:101C0C00430A8B4201D34B02C01A5241030A8B4246
:101C1C0001D30B02C01A5241CDD2C3098B4201D35E
:101C2C00CB01C01A524183098B4201D38B01C01ADC
:101C3C00524143098B4201D34B01C01A5241030953
:101C4C008B4201D30B01C01A5241C3088B4201D302
:101C5C00CB00C01A524183088B4201D38B00C01AAF
:101C6C00524143088B4201D34B00C01A5241411AD6
:101C7C0000D20146524110467047FFE701B50020E3
:101C8C0000F006F802BDC0460029F7D076E7704791
:101C9C007047C04610B5002903D100F007F820307A
:101CAC0002E0080000F002F810BDC0461C21012320
:101CBC001B04984201D3000C10391B0A984201D323
:101CCC00000A08391B09984201D30009043902A201
:101CDC00105C40187047C046040302020101010168
:101CEC00000000000000000003460B437FD40022DC
:101CFC0043088B4274D303098B425FD3030A8B4294
:101D0C0044D3030B8B4228D3030C8B420DD3FF22FD
:101D1C00090212BA030C8B4202D31212090265D0CB
:101D2C00030B8B4219D300E0090AC30B8B4201D37E
:101D3C00CB03C01A5241830B8B4201D38B03C01AC5
:101D4C005241430B8B4201D34B03C01A5241030B3C
:101D5C008B4201D30B03C01A5241C30A8B4201D3ED
:101D6C00CB02C01A5241830A8B4201D38B02C01A98
:101D7C005241430A8B4201D34B02C01A5241030A0F
:101D8C008B4201D30B02C01A5241CDD2C3098B42F4
:101D9C0001D3CB01C01A524183098B4201D38B0171
:101DAC00C01A524143098B4201D34B01C01A524114
:101DBC0003098B4201D30B01C01A5241C3088B4259
:101DCC0001D3CB00C01A524183088B4201D38B0044
:101DDC00C01A524143088B4201D34B00C01A5241E6
:101DEC00411A00D201465241104670475DE0CA0FBD
:101DFC0000D04942031000D34042534000229C467D
:101E0C0003098B422DD3030A8B4212D3FC22890186
:101E1C0012BA030A8B420CD3890192118B4208D35C
:101E2C00890192118B4204D389013AD0921100E0BE
:101E3C008909C3098B4201D3CB01C01A52418309D2
:101E4C008B4201D38B01C01A524143098B4201D3FF
:101E5C004B01C01A524103098B4201D30B01C01A2A
:101E6C005241C3088B4201D3CB00C01A52418308A4
:101E7C008B4201D38B00C01A5241D9D243088B42FA
:101E8C0001D34B00C01A5241411A00D2014663469D
:101E9C0052415B10104601D34042002B00D5494201
:101EAC00704763465B1000D3404201B50020FFF73A
:101EBC00EFFE02BD0029F8D016E77047002B11D1B8
:101ECC00002A0FD1002900D1002802D00021C943DB
:101EDC00080007B4024802A14018029003BDC04696
:101EEC00B1FDFFFF03B4684601B5029800F006F897
:101EFC00019B9E4602B00CBC7047C046F0B55746DD
:101F0C004E464546DE46E0B504000D009246994625
:101F1C0083B08B4230D82DD049465046FFF7BAFEDD
:101F2C00290006002000FFF7B5FE331A9846203B27
:101F3C009B4633D45A465346934042461F00534661
:101F4C0093401E00AF423AD8AF4200D178E05B46D6
:101F5C00A41BBD41002B00DA75E000220023009287
:101F6C00019301235A469340019301234246934027
:101F7C00009328E08242CFD90022002300920193E3
:101F8C000C9B002B01D01C605D600098019903B084
:101F9C00F0BCBB46B246A946A046F0BD4246202343
:101FAC009B1A5246DA40414613004A468A401700B3
:101FBC0042461F43534693401E00AF42C4D90022F1
:101FCC000023009201934346002BD9D0FB077208E3
:101FDC001A4346467B080EE0AB4201D1A2420CD814
:101FEC00A41A9D41012024196D410021013E2418A1
:101FFC004D41002E06D0AB42EED9013E24196D4165
:10200C00002EF8D1009801995B4600196941002B0C
:10201C0024DB2B005A464446D3402A00E2401C00E5
:10202C005B461500002B2ADB26009E403300260061
:10203C004746BE403200801A9941009001919FE7BB
:10204C00A342BCD883E74246202300219B1A0022DE
:10205C00009101920122DA40019286E74246202348
:10206C009B1A2A0046469A402300F34044461343E9
:10207C002A00E2401C005B461500002BD4DA4246D5
:10208C002F002023260097409B1ADE403B00334351
:10209C00CDE7C0460D488546FFF7ACFB0C480D4913
:1020AC000D4A002302E0D458C4500433C4188C42A7
:1020BC00F9D30A4A0A4C002301E013600432A2420D
:1020CC00FBD301F017FB00F00FF8FEE700900020A7
:1020DC00000000206C000020AC45000870000020BF
:1020EC0004220020FEE70000F0B5DE4657464E46BF
:1020FC004546E0B5934CA54400F0E2FF924800F051
:10210C00E3FF0722914B00215A63A0240D3217A83C
:10211C0001F031FB0223E4051A9320000E3316A9BB
:10212C001693FEF707F8169A236913409A4206D1C4
:10213C00874B1B6883F30888864B1B6898470323DF
:10214C00A0269A4617930023F605984630001A935A
:10215C0016A943331693FDF7EDFF2023300016A983
:10216C0016938025FDF7E6FF434601277A4C199319
:10217C00AD000233200017971893169516A9A56287
:10218C009946FDF7D7FF40237448169316A983612F
:10219C00FDF7D0FF272320001997169316A9A361EA
:1021AC00FDF7C8FF4B4617931B934346C024199366
:1021BC005346A400189316943000B46216A9FDF788
:1021CC00B9FF0C23300016A91B971693FDF7B2FF2D
:1021DC0080215E4B09065A6D0120920092080A4339
:1021EC005A655F4ADA635F4A1A649A6B17439F63B6
:1021FC005D4B1A6814431C605C4CFEF721F8236895
:10220C005B4A5C4913401D435B4B256099461B6838
:10221C005800C0184000FFF7B1FC80226369D2005F
:10222C000130134202D105E0002803D06369013864
:10223C001342F9D180214D4A490013680B431360B6
:10224C0013680B42FCD00221404A4C4BD365D36D32
:10225C001942FCD0382391680B40D168102B01D166
:10226C0000F018FC002B01D000F018FC1368444956
:10227C00536819408023DB010B43536013684149B9
:10228C000B4013601368404A9B045B0FDA404B46CB
:10229C001A604B465868FDF7D3FF3C4E002832D1EC
:1022AC0038212A4A93680B40102B01D100F0EDFD28
:1022BC00136837490B4080211360B06E890403E02A
:1022CC00B36E1B1A022B1ED813680B42F8D1D368BD
:1022DC0030491940304B0B43D360802311685B04A9
:1022EC000B4313608023D1685B050B43D3608022C2
:1022FC00B06E1649920403E0B36E1B1A022B02D87F
:10230C000B681342F8D00623174A1168194201D101
:10231C0000F0F9FCE0230D4ADB0191680B4393605C
:10232C0093681E490B40936013689B016AD5072183
:10233C0093681B488B43190002230B43936038218D
:10234C00B46E33E0ECFDFFFF444300080010024084
:10235C000000FF1F0400FF1F000400500008005085
:10236C0003000230010812000020024000700040FF
:10237C00FFF9FFFF40420F00000000200980000021
:10238C00FF80FFFFFFC7FFFF0024F4008C0000203C
:10239C00FFFFFFFE8C80C11132301646FFF0FFFFAD
:1023AC0088130000B36E1B1B83422BD893680B4021
:1023BC00102BF7D10721F24A13680B40022B01D9DD
:1023CC0000F038FDEF4BF0499A680A409A603822C9
:1023DC009968114201D000F0E4FC1B68EB489B04A7
:1023EC005B0FD840E74BEA4A9B681B051B0F9B0011
:1023FC00D3181F22DB6D1340D8404B461860586829
:10240C00FDF71EFFE34AE4491368E4480B401360F0
:10241C00E34B19684B4609051A68090D00F054FE88
:10242C0084201022DF4B1958914319500438195845
:10243C001143195019681143196059680A435A60BD
:10244C00D94B1A68D20307D41A68D8490A401A60C3
:10245C00DA6BD7490A40DA638023D34A5B021168EE
:10246C0001240B4313603F22D24909200B6893438C
:10247C001A00052313430B60CF4BD0491A68114047
:10248C00CF4A0A431A603200CE494A32996003217E
:10249C00DA605A68120C12040A435A60CA4A546031
:1024AC00022219680A431A60082219680A431A6042
:1024BC001A68210022431A60FDF71EFEC34B9A686E
:1024CC00224207D1DA68C2490A40DA601A699200DE
:1024DC0092081A618021BD4B8903DA680A43802176
:1024EC00DA6089011A680A42FCD0196007215A691E
:1024FC008A43110002220A4370215A615A698A43A5
:10250C00110050220A430F215A619A6A8A439A6237
:10251C005A69A1490A405A619A6AF231FF318A43D9
:10252C00110010220A4380219A625A6989000A43D9
:10253C005A619A6AA7491140C022D2000A438021ED
:10254C009A625A69C9010A435A619A68A2491140B0
:10255C00802252050A439A604B46A0491868FFF73F
:10256C000DFB142343430C930C9B002B05D00C9BAD
:10257C00013B0C930C9B002BF9D1944B98499A6816
:10258C001140802212060A439A609A68002AFCDBEA
:10259C00802212011A6020230C930C9B002B05D077
:1025AC000C9B013B0C930C9B002BF9D18023874C8B
:1025BC009B05226903211343236111230C206360C3
:1025CC00FDF79AFD0121E368E368A3680B4200D193
:1025DC0068E3844800F078FD01247C4B82491A6939
:1025EC0016A8A2431A611A69804F0A401A619A68A8
:1025FC007B490A4022439A60C822492352001AA9F7
:10260C00F45400F0A3FFDA20400001F097F8C82240
:10261C00010052001031804600F098FFD0235B007F
:10262C009A4642465146724BB26153504B466B49E7
:10263C001868FFF7A3FA6F4D01382900B862BA6A1F
:10264C001C316D4800F040FD6C4B0021BB61112327
:10265C000D203B627C60FDF74FFD00210E20FDF745
:10266C004BFD84233B6088232821404652461B02A5
:10267C00FC607B640CAB5B189850002200238092AA
:10268C008193D8230CAA521829005B00D4543831FA
:10269C005B4800F019FD4B465A491868FFF76EFA73
:1026AC008023594ADB05013898625A6310220221B3
:1026BC009A611A6AE52722431A62DA680A43DA60D9
:1026CC00524A326016AA7260FA221201B2600322D8
:1026DC00586902435A610F201C60FDF70DFD042060
:1026EC0001F02CF804000390EC2001F027F8030013
:1026FC0002009846D032190006901000C82200F053
:10270C001BFDFF2342462900D35522603C4854311F
:10271C0000F0DAFC2468E35D7F2B00D8EAE23C4B46
:10272C0009933C4B0A9300F033FEE623039AE052E4
:10273C001E3BE250384A0433E2508023DB009C46B7
:10274C00604400F0FBFFE023E422E0500023A3549C
:10275C000632A3520B4A314B516D0B435365304B30
:10276C009A468B235246D36012682E4B1343524623
:10277C00136049239846F35C012B00D9A9E253E07E
:10278C000020024000100240FF8FFFFF0024F400E5
:10279C00E83C000800700040FFFEFFFF58430008B3
:1027AC00005801400018024000740040FFFF03FF76
:1027BC00FFFFF8FF00080240080002400F80FFFFF7
:1027CC00A0250000402401400000024000240140EC
:1027DC00C73FFFFFFFF0FFFFE8FFFF6F40420F0016
:1027EC00E8FFFF7F78430008FFFFFFDF002C01406C
:1027FC004D0C0008683D0008944300086868000010
:10280C00A043000800093D00801A06001D030008C3
:10281C00A4430008B04000086D0E000808000C002E
:10282C00004400400100002002211C20FDF764FC44
:10283C0043464146F35C5A1C7254E5225BB2904607
:10284C00A354002B00DA4AE20DAB22001800E24937
:10285C00049300F05FFC10AB22001800DF490B93CF
:10286C0000F058FC13AB18002200DD49019300F076
:10287C0051FC4346E356012B00D1A9E2E523E25675
:10288C00D84B1F000793D84B1C37390018009A46B9
:10289C00089300F019FCE5229046A256012A00D1BB
:1028AC00C2E23900504600F00FFC4246A256012A03
:1028BC0000D1B9E23900504600F006FC2900039B18
:1028CC006431CA481C68002700F0FEFBEB2328216A
:1028DC002800E75416AA573BF2500D330CAA521895
:1028EC00FF33D3587C3024399846FDF7EFFC07981A
:1028FC0002211830FDF7EAFCBD4B12211C1D2000F3
:10290C00FDF7E4FCD2235B009A46434652469C50AA
:10291C00D42341469D3A5B00FF3ACA50B54A043372
:10292C00CA504546B44A853B934632004646554408
:10293C00FF3B2B73273BEB810292EA88A87AD1B23A
:10294C00002800D0D4E02C7A6B7A013CE41A0123E5
:10295C00E4B2AB725346F35849009C466144487844
:10296C00A34A83001B180878283281000918D31851
:10297C0058465218210000F0A7FBEB893F19002B99
:10298C00DBD1B046029B39009C481E0000F09CFB3A
:10299C00D02342465B00D45800F07CFE0100404638
:1029AC00A04716AA9649019800F0B4FB33000C33EB
:1029BC0016C816C303210720FDF79EFB91499248C8
:1029CC0000F082FB914800F07FFBFA218025904FAC
:1029DC00C900380000F078FB8E4B8F4A8F4C5A613F
:1029EC006369AD002B4203D18D4800F06DFBA561EE
:1029FC008C4BD02598468C4B6D009B46D8235B00A6
:102A0C009A46282152460CAB5B189B5C002B00D1DC
:102A1C0085E028220CAB9B185B5941461A00180024
:102A2C00019300F0F1FD0028EBD116AA59461000D5
:102A3C0000F0EAFD0028E4D104000121049800F024
:102A4C005DFB002800D01DE172B6BFF34F8FBFF3C2
:102A5C006F8F4823F35CFF2B00D169E14822B35CF4
:102A6C0016A80133B35400F087FD002800D0F1E024
:102A7C004823F35C002B00D125E14822B35C013BD9
:102A8C00DBB2B354002BB9D1BFF34F8FBFF36F8FB1
:102A9C0062B6B3E70D3B194002291FD0634A644963
:102AAC001368644E0B401360802311685B000B436A
:102ABC0080211360B06EC90004E0B36E1B1A022BA8
:102ACC0000D920E413680B42F7D053685A491940D7
:102ADC008023DB010B435360FFF7E2FB136856497D
:102AEC00536819408023DB010B435360FFF7D1FB84
:102AFC004C1CA888E1B2E4B20590844200D10021BC
:102B0C00287A6C7A84460120404280460134E4B233
:102B1C00C4446C72644554D00023AB721AE7802510
:102B2C003E4CAD0063692B4203D0444800F0CCFA14
:102B3C00A56243492D48083100F0C6FA039B1C6876
:102B4C00E523E256012A04D0079908981C3100F0BD
:102B5C00BBFAE023E05800F0FBFDE525FF233948E4
:102B6C00635500F0B1FA039800F0F2FD069B5B5D33
:102B7C007F2B05D88221099A0A98490000F0B4FAF3
:102B8C00069800F0E5FD2821D0230CAA5B00521812
:102B9C00D05800F0DDFD72B62B4800F095FA00F02D
:102BAC00B7FA1121294A136A8B43136280221B4BFB
:102BBC0092009A62DA3AFF3A9A61254B19329A627C
:102BCC00FEE7002001326872059892B2904200D163
:102BDC00E2E0EA80A0E7C0461D120008A902000846
:102BEC00C1020008683C0008E8400008A043000847
:102BFC00E83D000802000050EC43000800440008C7
:102C0C00050300081C440008304400084844000830
:102C1C007044000800740040550E00000004005081
:102C2C0088440008190E0008ED0900080010024045
:102C3C00FFC7FFFF8C000020FF80FFFFD04400087F
:102C4C00683E0008FC4400080C450008002C0140BC
:102C5C000008005028220CAB9B18585900F08CFC33
:102C6C00002800D104E78022C94C92006369924687
:102C7C00134200D028E10421C64A13698B43136127
:102C8C0030BFF5E6049B74221B789A46C24BDB7F5F
:102C9C00002B54D151462F2900D0F9E0BE4A013304
:102CAC00D377D1E6E368BD4AE3681A40BC4B1343C3
:102CBC00E360E3689B0200D48EE4F023A26A1B025B
:102CCC001343A36288E4B74AB749B84800F00CFA3A
:102CDC00D3E6B74800F0F8F9E523FF22E2540DAB38
:102CEC00049310AB0B9313AB0193B24B0793B24B02
:102CFC000893E3E5B14BB24AC721180009920A9335
:102D0C0000F0F2F90FE50721022310688843034312
:102D1C001360B46EAB4805E0B36E1B1B834201D944
:102D2C00FFF770FB13680B40022BF5D1FFF7F2FA9B
:102D3C00A421A54A9D48890000F0D6F98EE6534699
:102D4C000A2B00D1D6E0A14800F0BEF95346612B06
:102D5C0000D10BE100D981E0392B00D98EE0302B6A
:102D6C0000D959E100D00EE18022994C92006369A0
:102D7C009246134204D0974800F0A6F95346A3623A
:102D8C000021380000F0A0F9934B944A5A613300AB
:102D9C0000227433DA7757E60022013BEA80EB819C
:102DAC00BAE699681140082900D1DCE09968114015
:102DBC00102900D1BFE099681140202900D167E1AA
:102DCC009B681A40182A00D15EE10020FFF70AFB2D
:102DDC003300049A1C3383CA83C333000B9A283301
:102DEC0083CA83C353461A680423134352461360A1
:102DFC004346E356012B00D040E5794B019A7363AF
:102E0C003300B4633C3383CA83C353461A68082324
:102E1C001343524613604346E256664B0793664B88
:102E2C000893012A00D02BE520236E4A11680B432E
:102E3C00136043E502231068884303431360B46EA8
:102E4C00604805E0B36E1B1B834201D9FFF7DAFA29
:102E5C0013680B40022BF5D1FFF7B4FA6C2B00D1A1
:102E6C0007E1712B00D08EE00223942010930721F0
:102E7C000B9A3058DB1800F083FB88E73F2B00D00F
:102E8C0081E0594800F020F981E7D368FFF73BFA5D
:102E9C004149897F7018835453460A2B0BD04B1C25
:102EAC003D49DBB28B77514681541E2B00D0CBE5CC
:102EBC00464800F009F93400743421004B4800F006
:102ECC0003F90023A377BFE54B4606201B6848494E
:102EDC005843FEF753FE2368464A013013402360E3
:102EEC0003E0002800D1C3E5013852466369134260
:102EFC00F7D1C0E6284B2848997F4B1CDBB283776F
:102F0C002F20711888541E2B08D1304800F0DCF8A3
:102F1C002149364800F0D8F81F4B9C77002234002A
:102F2C0092467434A37F2100E254304800F0CCF870
:102F3C005346A3772BE7DA68D968D243D868490699
:102F4C00490F40040131440E920700D1A4E02A48F5
:102F5C00FEF714FE6043294BD968490F0131FEF787
:102F6C000DFEFFF73FFA2648FFF73CFA25492648A5
:102F7C00783100F0A9F82549254A8B681A400423BA
:102F8C0013438B6003E75146224800F09DF8FEE6A0
:102F9C000070004000ED00E0000100203CC2FEFF8C
:102FAC00031000000441000897020000D83E0008FE
:102FBC00B8430008683C0008E8400008B04000082E
:102FCC00A443000888130000C04000081045000806
:102FDC0000040050D044000800740040FF0F0000B3
:102FEC00490D000800440040AC4400089C44000813
:102FFC0040420F00FFBFFFFF0024F400001002400E
:10300C0000127A00E83D0008A043000800240140AB
:10301C00E8FFFF7FE44400088022224C92006369A1
:10302C00134205D1204800F04FF880229200A26193
:10303C005346FA24303BA4005C43A4B22100380070
:10304C0000F042F8194A231C944200D9131C852223
:10305C009BB2D200934200D21300144AD21A144BE2
:10306C005343802212019446124A63441B0B536152
:10307C008DE680221049D203486903041340402294
:10308C00824313438B6182E6FA20C001FFF7AAF951
:10309C0080200002FFF7A6F90848FEF76FFD604399
:1030AC0059E7C04600040050884400084927000036
:1030BC0049070000007400400008005000127A001C
:1030CC0010B5FEF7BFFB10BD0FB400B583B004AB59
:1030DC0002CB01AA002000930193FEF7B7FB03B0CB
:1030EC0008BC04B01847C046130010B50A00010014
:1030FC000148FFF7E9FFFEE7144500080A0010B588
:10310C0001000020FEF778FBC343DB17184010BD0D
:10311C007047C04600238360426001607047C04620
:10312C0010B503680400002B04D040689847A368CE
:10313C000133A36010BDC04601604B1E99410023B2
:10314C004942114041608360C360704703009B6833
:10315C00C068C01A43425841C0B270470200C368ED
:10316C00581E9368C01A536800D5C0187047C046E3
:10317C0003008268C1685B68501A00D5C01870479C
:10318C00F0B54646D6464F460500C0B5EB6880689C
:10319C00013B0E0014001B1A1ED493421AD31700C5
:1031AC00002F05D12000E0BCBA46B146A846F0BDC0
:1031BC00AB6828689C463A006044310000F0D2FAB3
:1031CC00AB689C466B686744AF609F42EAD10023B2
:1031DC00AB60E7E70020E6E76A6890464344A34209
:1031EC00F8D30319994627009A42D9D8131A9A464C
:1031FC002B6852469C46604400F0B4FA00234246C9
:10320C00AB604B4656449F1ACAE7C046F8B54746D2
:10321C00CE4680B5C6688368050088469C1B0BD4D7
:10322C00944207D82700002C20D13800C0BCB946E6
:10323C00B046F8BD1400F5E7436899464C449442F7
:10324C0000D91400331927009945ECD84B469F1B25
:10325C002B683A009919404600F084FA4B46F61A4E
:10326C00A419B84400263F19002CDED0296822008E
:10327C004046891900F076FAD7E7C046F0B54F46BC
:10328C004646D646C0B50F008368C16806001400D8
:10329C005B1A1ED493421AD31500002D05D12000C1
:1032AC00E0BCBA46B146A846F0BDF36831689C460E
:1032BC002A006144380000F055FAF3689C467368A4
:1032CC006544F5609D42EAD10023F360E7E70020F6
:1032DC00E6E7426890464344A342F8D30B1999465B
:1032EC0025009A42D9D8531A9A46036852469C46EE
:1032FC003800614400F036FA00234246F3604B4636
:10330C0057449D1AC9E7C04670B501000400861DDC
:10331C001D4D1E4823781B025840082304E0013B36
:10332C00DBB280B2002B09D002B24000002AF6DAE0
:10333C00013B6840DBB280B2002BF5D10134A642D0
:10334C00E8D14B888A781D0A120215431BD008312C
:10335C004D190D4CADB20B781B025840082304E0FC
:10336C00013BDBB280B2002B09D002B24000002A34
:10337C00F6DA013B6040DBB280B2002BF5D10131B3
:10338C008BB2AB42E7D170BD21100000FFFF0000F3
:10339C0008207047042804D883001B180248C01862
:1033AC0070470248FCE7C046384500083445000821
:1033BC0070B5040001204900014307201840002388
:1033CC00D2000243638023712000FF230725C9B27A
:1033DC0021706270661D082201304B4004E0013AF6
:1033EC00D2B2DBB2002A09D059B25B000029F6DA5E
:1033FC00013A6B40D2B2DBB2002AF5D1B04201D017
:10340C000178E8E763712000FFF77EFF030AE071A3
:10341C00A371200070BDC04670B5040004A80588D7
:10342C0020004900D2002170627019002A00083077
:10343C0000F098F92B0AA3700023E57020000725F3
:10344C002371661DFF3302785340082204E0013AD1
:10345C00D2B2DBB2002A09D059B25B000029F6DAED
:10346C00013A6B40D2B2DBB2002AF5D10130B04246
:10347C00E9D163712000FFF747FF030AE071A371E4
:10348C00200070BD70B5FF2307244679451D0278D6
:10349C005340082204E0013AD2B2DBB2002A09D030
:1034AC0059B25B000029F6DA013A6340D2B2DBB2C2
:1034BC00002AF5D10130A842E9D1F01A424250411C
:1034CC00C0B270BD827843881202180A104370474C
:1034DC000830704700780007400F7047407880062E
:1034EC00400F7047437807201840704710B5040010
:1034FC00FFF70AFFE388A1791B0A09020B43181A8C
:10350C0042425041C0B210BDB0B500AF050000F052
:10351C00BFF86A46C31DDB08DB00D31A9D460200C8
:10352C00040069462800FFF771FE80B2844203D084
:10353C000024BD462000B0BD684600F0D3F804005E
:10354C002800FFF715FE8442F2D8F2E770B50500AB
:10355C000C001600002905D0320028002100FFF7CE
:10356C00EBFD70BD3D21024A0248FFF7BDFDF3E7BC
:10357C00544500086445000810B5FFF7E7FD10BD81
:10358C00F8B5DE4657464E464546E0B500AF1E0040
:10359C0080468A46914600F07BF86B46C41DE408D1
:1035AC00E4001B1B9D460500801983B23200514676
:1035BC0068469B4600F08AF8FDF7D6FF4046FFF7B9
:1035CC00CDFD002483450DD9FDF7ACFF5B46E01A19
:1035DC00BD4643425841C0B2F0BCBB46B246A946B8
:1035EC00A046F8BD2A0069464046FFF7C9FD4B4688
:1035FC0084B2002BE8D0320049464046FFF7C0FDAC
:10360C002418A4B2E0E7C046F8B54E464546DE465F
:10361C005746E0B500AF060089469046FFF774FFA9
:10362C000025041E07D1BD462800F0BCBB46B2469F
:10363C00A946A046F8BD6A46C31DDB08DB00D31AB9
:10364C00EA469D46FDF790FF220069463000FFF7E1
:10365C0015FE0600B6B2EB46FDF764FF002E01D155
:10366C00D546E0E7684600F03DF8844205D159465E
:10367C004046C8470125D546D5E72521024A0348CF
:10368C00FFF732FDF3E7C0467C45000864450008AF
:10369C000C20704710B5FEF765F802000B000348CC
:1036AC000260436080235B02836010BDE021002038
:1036BC0010B5FEF757F802000B0003480260436098
:1036CC0080239B02836010BDD021002070B50400C4
:1036DC000E001500FEF746F86681206061602581BA
:1036EC00200070BD00890C3080B27047807A704722
:1036FC000C30704770B500260C4D0D4C641BA4109B
:10370C00A64209D1002600F05BF90A4D0A4C641B55
:10371C00A410A64205D170BDB300EB5898470136F2
:10372C00EEE7B300EB5898470136F2E7A4450008E2
:10373C00A4450008A4450008A845000810B5034B93
:10374C000100186800F08CF810BDC046080000207D
:10375C0010B5034B0100186800F016F810BDC046F8
:10376C0008000020002310B59A4200D110BDCC5C9B
:10377C00C4540133F8E703008218934200D1704718
:10378C0019700133F9E7000070B50500002910D05D
:10379C000C1F2368002B00DAE418280000F0F0F866
:1037AC001D4A1368002B05D163601460280000F0DB
:1037BC00EFF870BDA34208D9216860188342F3D199
:1037CC0018685B6841182160EEE71A005B68002BF3
:1037DC0001D0A342F9D911685018A0420BD120682E
:1037EC000918501811608342E0D118685B684118C1
:1037FC0011605360DAE7A04202D90C232B60D5E7A5
:10380C0021686018834203D118685B6841182160F5
:10381C0063605460CAE7C046F021002070B50F4EBB
:10382C000D0031680400002902D100F08FF83060DF
:10383C002900200000F08AF8431C0AD00323C51C81
:10384C009D43A84207D0291A200000F07FF8431CA2
:10385C0001D101256D42280070BDC046F421002025
:10386C00F7B50322CB1C9343083306001F000C2B27
:10387C0032D20C27B94231D8300000F081F8324DE9
:10388C002B681C00002C2ED139003000FFF7C6FF2E
:10389C000400431C1ED12C682500002D4AD123683E
:1038AC002900E3183000019300F050F8019B83428B
:1038BC0043D123680337FF1A03239F4308370C2F88
:1038CC0000D20C2739003000FFF7A8FF431C34D07E
:1038DC002368DF19276013E0002BCBDA0C230025BB
:1038EC0033602800FEBD2268D11B20D40B2917D9C8
:1038FC00E2192760A34211D12A60636811605360FA
:10390C003000250000F044F807220B35231D9543A9
:10391C00EA1A9D42E5D05B1BA350E2E75A60ECE744
:10392C006268A34201D12A60EAE75A60E8E7230003
:10393C006468A7E72C006D68AFE70C233000336098
:10394C0000F026F8CDE7C046F0210020002370B52A
:10395C00064D040008002B6000F024F8431C03D132
:10396C002B68002B00D0236070BDC046F8210020CE
:10397C0003000A7801311A700133002AF9D170471B
:10398C0010B5024800F00CF810BDC046FC21002018
:10399C0010B5024800F005F810BDC046FC2100200F
:1039AC0070477047044A03001068002802D0C318FF
:1039BC00136070470148FAE700220020082200201B
:1039CC00F8B5C046F8BC08BC9E467047F8B5C04672
:0839DC00F8BC08BC9E467047D0
:1039E400D00A0008BC0A0008E60A0008D00A000849
:1039F400D00A0008D00A0008D00A0008D00A00083B
:103A0400D00A0008D00A0008D00A0008D00A00082A
:103A1400D00A0008D00A0008D00A0008D00A00081A
:103A2400D00A0008D00A0008D00A0008D00A00080A
:103A3400F40A0008D00A0008D00A0008D00A0008D6
:103A4400D00A0008D00A0008360B0008D00A000883
:103A5400D00A0008CC0A0008CC0A00081E0B000893
:103A64007C0B0008900B00089C0B00087C0B0008E2
:103A74007C0B00087C0B00087C0B00087C0B000806
:103A84007C0B00087C0B00087C0B00087C0B0008F6
:103A94007C0B00087C0B00087C0B00087C0B0008E6
:103AA4007C0B00087C0B00087C0B00087C0B0008D6
:103AB400A80B00087C0B00087C0B00087C0B00089A
:103AC4007C0B00087C0B0008D20B00087C0B000860
:103AD4007C0B00087C0B0008F00B0008DC0B0008D2
:103AE400640C00087A0C0008AC0C0008640C000894
:103AF400640C0008640C0008640C0008640C0008E2
:103B0400640C0008640C0008640C0008640C0008D1
:103B1400640C0008640C0008640C0008640C0008C1
:103B2400640C0008640C0008640C0008640C0008B1
:103B3400BA0C0008640C0008640C0008640C00084B
:103B4400640C0008640C0008E40C0008640C000811
:103B5400640C0008640C0008F20C0008FC0C00085B
:103B6400621900083A1900083A1900083A190008BD
:103B74003A1900083A1900083A1900083A190008D5
:103B84003A1900083A1900083A190008A41A00085A
:103B9400EA1900083A1900083A1900083A19000805
:103BA4003A1900083A1900083A1900083A190008A5
:103BB4003A1900083A1900083A1900083A19000895
:103BC400C81900083A1900083A190008A21900088F
:103BD4003A190008821900083A1900083A1900082D
:103BE400621900086173736572745F6661696C655C
:103BF4006400000072784572726F7243616C6C628B
:103C040061636B0074784572726F7243616C6C62AD
:103C140061636B005061747465726E49746572619E
:103C2400746F725F636865636B5061747465726E00
:103C340000000000303132333435363738394142F0
:103C44004344454664697370617463684576656E80
:103C540074000000737461746550756C73696E67E9
:103C640000000000737461746550617573656400CD
:103C7400737461746549646C65000000050A0A0583
:103C84004253505F646F4368616E6E656C41637448
:103C9400696F6E0068616E646C65486F73744D651E
:103CA4007373616765000000446174614C696E6BF5
:103CB4005F73656E645061636B65740072657370E5
:103CC4006F6E645769746841636B4672616D650019
:103CD40068616E646C65496E636F6D696E67467288
:103CE400616D6500486172644661756C745F48611A
:103CF4006E646C657200000073707572696F757321
:103D04004952510054494D315F42524B5F55505F07
:103D14005452475F434F4D5F49525148616E646C42
:103D240065720000444D41315F4368616E6E656C9D
:103D3400315F49525148616E646C65720000000045
:103D4400000000000000000000000000000000006F
:103D5400000000000000000000000000000000005F
:103D64000100000002000000030000000400000045
:103D74000600000007000000080000000900000021
:103D84004253505F726567697374657250756C73E2
:103D94006544656C65676174650000004253505F5B
:103DA400726567697374657241707054696D657288
:103DB40048616E646C657200436F6E74726F6C6CF4
:103DC40065725F696E697400446174614C696E6BFD
:103DD4005F77616974466F7253796E630000000007
:103DE40001020408020108040102020504020A0493
:103DF4000408080501080A01050A02010502020473
:103E0400040A080405080801010A0A054E6F6E65D4
:103E14000041000000004200000000414200000098
:103E24004300000000414300000042430000004101
:103E340042430000440000000041440000004244AA
:103E44000000004142440000434400000041434458
:103E54000000424344000041424344004253505F47
:103E6400747269676765724144430000436F6E74FE
:103E7400726F6C6C65725F73746F700025732825A4
:103E8400732C202575290A002573282575290A0015
:103E940025733A2073686F727420696E20656C63B1
:103EA4006F6E202568750A0050756C7365207769FC
:103EB4006474682069732025687520C2B5730A008C
:103EC40070742D3E706163655F6D73203E3D2035D7
:103ED400000000007372632F6273705F73746D333C
:103EE40032673037312E630070742D3E70756C73F9
:103EF400655F77696474685F6D6963726F732021AD
:103F04003D20300070742D3E6E725F6F665F707579
:103F14006C73657320213D203000000028656C63BC
:103F24006F6E5B305D202620656C636F6E5B315D68
:103F340029203D3D203000005465726D696E616C2E
:103F440000000000525454005345474745520000B6
:103F540054696D6520253032753A253032753A251D
:103F64003032750A00000000526563656976656445
:103F7400207369676E616C2025640A002573282507
:103F84006875293F0A000000257320454E54525994
:103F94000A000000257320455849540A0000000017
:103FA4004C6173742070756C736520747261696EF2
:103FB4002066696E69736865640A000049707269F5
:103FC4006D3D2575206D412C20566361703D25752E
:103FD400206D562C20566261743D2575206D560A5D
:103FE4000000000053657175656E6365725F25732B
:103FF40020756E6578706563746564206576656E9A
:10400400743A2025750A0000526573756D696E67F0
:104014002E2E2E0A0000000050756C7365207472F9
:1040240061696E2066696E6973686564202D20700D
:10403400617573696E670A0021205061747465723A
:104044006E4974657261746F725F646F6E65282661
:104054006D652D3E706929007372632F73657175E8
:10406400656E6365722E630050756C73652074729F
:1040740061696E206C6173742070756C7365206463
:104084006F6E650A0000000050756C7365207472D1
:1040940061696E2066696E69736865640A00000070
:1040A4006E6272203D3D2031000000007372632F68
:1040B400646174616C696E6B2E6300006273702EB0
:1040C400637269746963616C5F73656374696F6E4D
:1040D4005F6C6576656C20213D2055434841525FF5
:1040E4004D4158002573282575293A20756E6B6E4D
:1040F4006F776E206465766963652069640A0000E1
:104104006273702E637269746963616C5F73656353
:1041140074696F6E5F6C6576656C20213D2030009C
:104124007366203D3D204E554C4C000025732827D6
:10413400257327290A0000002573206F6620736900
:104144007A65202575206661696C65640A00000043
:104154004F6B2100257320287365713D25686875B0
:1041640029206F662073697A65202575207375632D
:104174006365656465640A004672616D65207061FB
:10418400796C6F616420746F6F206269673A2025CF
:104194006875206279746573000000002573282512
:1041A4006868752920746F20636F6E74726F6C6C0D
:1041B40065720A00476F742041434B20666F72207A
:1041C4006672616D6520256868750A00476F742002
:1041D40053594E43206672616D652C207365715F7F
:1041E4006E723D256868750A00000000476F7420F0
:1041F4007061636B65742C207365715F6E723D250D
:104204006868752C207061796C6F61645F73697A7A
:10421400653D2568750A0000476F74202573206684
:1042240072616D652C207365715F6E723D256868DF
:10423400752C207061796C6F61645F73697A653D78
:104244002568750A0000000025733A206261642025
:104254006672616D650A000025732C204943535230
:104264003D307825780A000020205469703A20688F
:10427400616C74204350552C206368616E6765201F
:104284006775617264204020257020746F20302C83
:10429400207468656E20737465702E0A0000000037
:1042A40050742053523D307825780A00434331201E
:1042B4002568750A00000000434332202568750A0A
:1042C40000000000414443206F76657272756E0AE7
:1042D400000000004144432072656164790A0000D3
:1042E400414443206368616E6E656C20636F6E6643
:1042F40069672072656164790A00000041444320C3
:10430400454F430A0000000041444320454F530AEF
:1043140000000000414443312D3E4953523D307862
:1043240025780A0025732C2054454946310A00009B
:1043340025732C204953523D307825780A0000001B
:10434400496E697469616C6973696E672E2E2E0AF1
:104354000000000044657649643D307825782C20BF
:1043640053797374656D436F7265436C6F636B3D12
:1043740025750A004C4C5F4144435F5245475F49F1
:104384006E6974206572726F723D25750A000000B3
:1043940025733A205053433D25750A0025730A00BE
:1043A4006D652D3E6368616E6E656C5F6664203C6E
:1043B4002030000043616E206F6E6C792075736548
:1043C400206F6E652073657269616C20706F727402
:1043D40020617420612074696D652C20666F7220E1
:1043E4006E6F770A000000002025336875202A20AC
:1043F4007B25732C2025737D0A000000546F7461A3
:104404006C206E756D626572206F662070756C73BA
:1044140065733A2025750A004D6F76696E672050E2
:1044240061747465726E2044656D6F0053746172BB
:1044340074696E67202573206F6E204E656F444B40
:10444400210A0000507573682074686520627574D1
:10445400746F6E20746F20706C6179206F7220709D
:104464006175736521203A2D290A0000536574741F
:10447400696E67205663617020746F20256875200B
:104484006D560A005475726E696E672056636170CA
:10449400204F4E0A00000000436F6E736F6C653A44
:1044A40020272573270A0000436F6D6D616E6473C6
:1044B4003A202F3F202F61202F6C202F71202F3086
:1044C400202F312E2E2F390A000000005475726EF1
:1044D400696E672056636170204F46460A000000EB
:1044E400556E6B6E6F776E20636F6D6D616E6420B9
:1044F400272F2563270A0000456E64206F6620730A
:10450400657373696F6E0A00427965210A000000C1
:10451400415353455254494F4E204641494C45441A
:1045240020282573203A202575292025730A0000A8
:10453400424144004E4F4E450041434B00004E4122
:104544004B000053594E43004441544100000000C5
:1045540073746F7261676520213D204E554C4C0089
:104564006D616F6C69622F7372632F6576656E740B
:1045740071756575652E63006576656E745F736924
:104584007A65203D3D20414F4576656E745F7369C1
:084594007A65286576742900A0
:08459C006CD9FF7F0100000053
:0445A400E500000826
:0445A800BD0000084A
:1045AC000024F400040000000C00002000000000B7
:1045BC0000000000000000000000000000000000EF
:1045CC0000000000000000000000000000000000DF
:1045DC0000000000000000000000000000000000CF
:1045EC0000000000000000000000000000000000BF
:1045FC0000000000000000000000000000000000AF
:0C460C00000000000000000000000000A2
:04000005080020A12E
:00000001FF
