:020000040800F2
:100000000090002085310008D53100085D1B0008F4
:1000100000000000000000000000000000000000E0
:10002000000000000000000000000000D5310008C2
:100030000000000000000000D5310008BD1B0008D2
:10004000D5310008D5310008D5310008D531000878
:10005000CD1B0008D5310008D53100083D1F000830
:10006000D531000845200008D5310008D5310008F9
:10007000A91F0008E91B0008451C0008FD1C00081A
:10008000D53100088D1F0008D5310008D531000892
:10009000D5310008D5310008B51D0008D53100085C
:1000A000D5310008D5310008D5310008D531000818
:0C00B000B1200008D5310008D53100084F
:1000BC0010B5064C2378002B07D1054B002B02D032
:1000CC00044800E000BF0123237010BD7000002025
:1000DC0000000000D4560008044B10B5002B03D0D0
:1000EC000349044800E000BF10BDC04600000000FA
:1000FC0074000020D4560008F0B50124C0238440BD
:10010C000B4D5B00EC500700830803203840FF27A1
:10011C00AC46C026C0008740890181409B006344E7
:10012C00B6009A59BA430A439A512C60F0BDC046A6
:10013C0000E100E0F0B5C64600B582B0070008A8A3
:10014C00008884461B48804644460078251D0024C0
:10015C00002805D11BE00134E6B20C35864216D2DC
:10016C002E78BE42F7D1654660000419A4004444C1
:10017C00E068009301951300A5680A003900A847B0
:10018C00E388012B07D0002B01D0013BE38002B0A8
:10019C0080BCB846F0BD43461B780434013BDAB250
:1001AC0043461A7053009B189B004344043307CBFF
:1001BC0007C4ECE78C000020F0B5164F3E78002EFB
:1001CC0024D000233C1D04E00133DDB20C34AE42DC
:1001DC000CD925788542F7D15C00E31804379B00D5
:1001EC00FB180D48996058605A80F0BD0A2EFCD05F
:1001FC007400A419751C3B1DA400EDB21B197400EE
:10020C00A619B6003D70BF193871EAE70026012522
:10021C003B1DF4E78C00002005100008F0B501220E
:10022C004F46D64646460B6800249146C0B5002B77
:10023C001AD14BE0170057437B00DB19DB43C56831
:10024C00AC4666460D691E407D433543C5604D681E
:10025C00022D2DD07D43026813402B4303600B68A5
:10026C001A000134E24031D04D461A00A5402A4014
:10027C002B42F5D04B68013B012BDBD817005743C1
:10028C0083688D6898467B009C467D43BC44AA4697
:10029C0046466546AE433500564663462E43866059
:1002AC00CE684568564395433543DB434560C6E706
:1002BC00FF2A10D83D007D43026A2E01761BB24303
:1002CC004E6975432A4302624D68C3E7E0BCBA46E7
:1002DC00B146A846F0BD120A52435243456A160174
:1002EC00B61AB5434E6972432A4342624D68B1E770
:1002FC0010B51124020008480B00016AA1430162E9
:10030C008020064980008862DA38FF388861044909
:10031C00044803F0C7FEFEE7002C01400004005027
:10032C00E85B00082C5F0008FA2170B5124C050040
:10033C008900206802F094FC802301385B04984209
:10034C0001D3012070BDC0210C4A090650600C4835
:10035C00036A1B021B0A0B430362072100239360F1
:10036C001160032DEDD8026AA9071202120A0A4382
:10037C00026218006560E5E70000002010E000E074
:10038C0000ED00E010B50A0002490348103103F0FB
:10039C0089FE10BDE85B0008385F000810B50A0044
:1003AC0002490348203103F07DFE10BDE85B0008D4
:1003BC00385F000870B50C005026050082B01D484F
:1003CC0003F070FEF4236643EC54002E14D12B0082
:1003DC000122F4330092002103320720FFF7AAFE1A
:1003EC00610832340C19E4B22100134803F05AFEB0
:1003FC00E435AC7102B070BD3100104803F052FE10
:10040C000F4B104ACC331E80331C964200D9131C60
:10041C000D4A9BB2934200D213000A4AD21A0B4BDC
:10042C005343802212019446094A63441B0B5361C7
:10043C00CDE7C046405F0008785F0008605F0008A9
:10044C008C000020D3270000B204000049070000F4
:10045C000074004070B5C188324A0139D1620189FB
:10046C000300013911630021062051621169814397
:10047C001161197B002941D00020012900D070BDE9
:10048C005989043002318905090E9163D168014301
:10049C00D1601A795B7913433DD04021224A916196
:1004AC00DA07D2171204120C3E390132194201D06C
:1004BC00802189020A431D485907C917014004319C
:1004CC0011431A071A4BD217134020330125194A2E
:1004DC00144C0B4393616369174A2B436361942358
:1004EC002621D058903B154A04F044F8002363634E
:1004FC00A363236801202B432360C0E75989043888
:10050C0002318905090E5163D1680143D1601A7912
:10051C005B791343C1D14022034B07219A622023FC
:10052C00D4E7C046002C014000080050FCFF03003B
:10053C00E0FF1F00000400508C000020240000404D
:10054C004B1E9941012310B54942994300220023C7
:10055C000E3104F00FF810BD10B582B0009201936B
:10056C00D623426F5B00D358002B0FD0040080348D
:10057C00009A2168521A9A4208D308236A46142119
:10058C0003F0F8FF009A019B2260636002B010BD7B
:10059C00F0B5418903008BB00020002901D10BB0CC
:1005AC00F0BD1C7B18689E881A79002C49D1817B80
:1005BC001D7A06AC491B01392181012152001973A6
:1005CC0041688D18895C21716D7865719A799200FA
:1005DC0062814389C820E3808000824200D9608117
:1005EC000D4243D105220A4051424A412273294A05
:1005FC009446294A63449BB2934209D86389052BDC
:10060C0006D92389002B03D02000FFF723FFC6E770
:10061C00224803F047FD6189637902318905090E8F
:10062C0022790491617B1E480391E1880291218912
:10063C000191217B30310091069903F033FD0020AC
:10064C00ADE701320489D5B2AC420DD06A001D7AF7
:10065C0006AC0135EDB21D722581877B013FBD4291
:10066C000CD000211973ABE70022F0E740210D4AB2
:10067C000D4803F027FD2179E388B3E70025013607
:10068C00B6B21D729E800789B742EAD101399D80AE
:10069C005981E6E778ECFFFF9CE00000CC5F000896
:1006AC00E05F00089C5F0008B85F0008032310B5EA
:1006BC00104C114A23616361104BA261E3618023EA
:1006CC009B0123620023A3626362E36222660C4AED
:1006DC000C49643262661022E01DA2662367E36651
:1006EC00636704F043FC2000074904F03FFC20231F
:1006FC00A37110BDB421002038600008B4010020A3
:10070C000C0100204460000848600008F8B547461A
:10071C00CE4680B58368C56899465B1B984643688E
:10072C0004000E0017005819904507D9ED1904F074
:10073C00E3FAE560C0BCB946B046F8BD424604F0E9
:10074C00DBFA4B463100ED19ED1A2A006068414482
:10075C0004F0D2FAE560EDE7F0B557464E46454653
:10076C00DE46E0B5354B83B09A461B780600150083
:10077C000191002B56D07700BB19DB0053441A6F44
:10078C009046DA6E9146904525D8130042462C00CF
:10079C009B1A9D4209D8002C09D1200003B0F0BC53
:1007AC00BB46B246A946A046F0BD1C1EF5D0A146DC
:1007BC00BB19DB005344596E220041440198A044FC
:1007CC0004F09AFA4C46002CE7D04346BF19FF00C0
:1007DC0057443B67E1E742469B6E2C009B1A9D42B7
:1007EC0027D8BB19DB0053449B46596E2200414469
:1007FC00019804F081FA5B469B6EA0442D1B434587
:10080C0019D04B4642469B1A99464D450DD8002DA2
:10081C00D9D0019BA1469C46A44463462C0001936D
:10082C00A944C5E7FFF742FFA5E74D46002DCAD006
:10083C00EFE71C00D5E700239846E6E7B42100203B
:10084C00F8B557464E46DE4645468946411CE0B54E
:10085C0017004A0052180300D2009246344A5E0038
:10086C0093461000F618F6005E44F36A504498461E
:10087C00012B0CD0022B27D0002B17D0002398462D
:10088C004046F0BCBB46B246A946A046F8BDB36A8A
:10089C00726A934247D9013B9B1AB8469F4200D9D2
:1008AC00984642464946FFF731FFE9E7B36A726A58
:1008BC00934233D9013B9B1A9F42E1D83A004946F7
:1008CC00FFF724FFB846DBE70023746A98461DE067
:1008DC00013B356A1B1BBB4200D93B002D1B9D42C3
:1008EC0000D91D005B46534458682A00494600193C
:1008FC0004F002FA336A6419E31A5A1E93415B42FC
:10090C001C40A844A9447F1B7462B9D0B36AA342AB
:10091C00DED8356A5B19013B1B1BDCE7316A5B18BF
:10092C00013B9B1AC8E7316A5B18013B9B1AB4E781
:10093C00B4210020F0B5C64600B5856843686A1C32
:10094C0004009A4207D8036859551500C3688260A1
:10095C000133C36043689D4202D080BCB846F0BDF1
:10096C002368276998460E4B1B78002B15D0EFF3A4
:10097C001086012181F310882A0041463800FFF7C8
:10098C005FFF86F31088A368834203D001235B4288
:10099C00E360E2E70023A360DFE7FFF787FEE6E70B
:1009AC00B4210020F0B54E4645465746DE46E0B52C
:1009BC0083B09A460C9B80460E00150099469142D6
:1009CC0000D27DE008000127290002F049F9013727
:1009DC008542F9D9574500D2574601230D9A1A4042
:1009EC0001920D9A13424ED14B46002B4BD0130063
:1009FC0020249B075ED44F4545D201235B429C4685
:100A0C0021004046E144FFF795FF4346DB68002B8D
:100A1C0032DB4B46002BEED153460124012B07D978
:100A2C0001235B429C46E24453466C43012BF7D8AE
:100A3C002100300002F014F98542F5D9214B9B4678
:100A4C0030239A4606E02900200002F009F9AC4256
:100A5C000FD304003000210002F088F953465844AB
:100A6C000E00C15C4046FFF765FF4346DB68002B78
:100A7C00E9DA019B002B19D103B0F0BCBB46B2469E
:100A8C00A946A046F0BD4346DB68002BC4DAF3E769
:100A9C004F45F1D201235B429C4620214046E14464
:100AAC00FFF748FF4346DB68002BE5DB4B46002B8A
:100ABC00EED1E1E753465C425C41240120349AE7D5
:100ACC00012787E7E85B000810B5080003F008FE73
:100ADC00034902004031034803F0E4FA002010BD42
:100AEC00E85B00085060000810B5080003F0F8FD42
:100AFC00034902004C31034803F0D4FA002010BD26
:100B0C00E85B00087460000810B50400806F03F007
:100B1C002DFD002801D1002010BD606F03F026FDD3
:100B2C000028F8D0200003F021FDF5E770B5D026A1
:100B3C007600835904009847051E1DD0A65903F072
:100B4C00B1FD01002000B047002805D0A1210B4ABF
:100B5C000B48490003F0B6FAD0235B00E55003F0D4
:100B6C0093FD01002000A847002805D04621034A28
:100B7C000348FF3103F0A6FA70BDC0469860000828
:100B8C00A460000870B5DC26835904009847051E44
:100B9C001CD0A65903F086FD01002000B0470028A8
:100BAC0005D068210A4A0B48FF3103F08BFADC238D
:100BBC00E55003F069FD01002000A847002805D08E
:100BCC00B521034A0348490003F07CFA70BDC046C6
:100BDC0098600008B8600008134B70B5C618040084
:100BEC0030000D0003F0B6FA01280CD001222900C8
:100BFC00300003F035FB012804D0D3210B4A0C48FC
:100C0C0003F060FA70BD0B4BE256012A05D00A497D
:100C1C000A48583103F046FAE8E78021084A13687D
:100C2C008B431360E2E7C04664100000E4600008E8
:100C3C00F0600008D5140000E85B0008C8600008EC
:100C4C0000440040F8B5224D0400435D5A1CD2B25A
:100C5C004255C3181F48844663441970072A08D9A3
:100C6C001C4BE618082A0DD01B4BE05A0830824268
:100C7C0001D00020F8BD0022154B3000E25403F0E7
:100C8C001BFCF7E7300003F0F3FB00280BD030001F
:100C9C0003F01EFC8023104F0100E0539B00984290
:100CAC0010D8625DE2E7615D0139C9B26155002976
:100CBC00DFD0002372780133DBB2327001369942F7
:100CCC00F8D1D6E7054803F0EDF90023E353D0E75C
:100CDC00D4140000CC120000D614000000610008EF
:100CEC0070B584B00B00009205000022012102A80F
:100CFC0003F04EFB72B6BFF34F8FBFF36F8F234CD5
:100D0C002600C4363378FF2B32D022000133C43294
:100D1C0013701F4B082202A9E81803F023FA0028CD
:100D2C0011D12500C4352B78002B1AD0013BDBB236
:100D3C00C4342370002B04D1BFF34F8FBFF36F8FDC
:100D4C0062B604B070BD134BEA56012A17D02500C9
:100D5C00114912485831C43503F0A4F92B78002BF3
:100D6C00E4D10F4A0F49104803F0ACF92B78DDE7BA
:100D7C000E4A0F490C4803F0A5F93378C5E78021DA
:100D8C000C4A13680B431360CBE7C0468C00002061
:100D9C0064100000D5140000E85B0008C86000086F
:100DAC0060610008E20200004C6100082461000848
:100DBC00DB02000000440040F0B50600C6461000FF
:100DCC001D00614B00B5F25C82B09401A418640064
:100DDC00A418A400043434190B00019500900421CC
:100DEC00200003F00DFB083572B6BFF34F8FBFF335
:100DFC006F8FC4239846554FB84443461B78FF2B3E
:100E0C003CD03A000133C4321370514B21002A00FC
:100E1C00F01803F0A7F9041E18D1C4239846B8445F
:100E2C0043461B78002B21D03A00013BDBB2C43285
:100E3C001370002B04D1BFF34F8FBFF36F8F62B6CB
:100E4C00A54223D002B080BCB846F0BD414BF2564F
:100E5C00012A5DD040494148583103F023F9C4239D
:100E6C009846B84443461B78002BDDD13C4A3D499B
:100E7C003D4803F027F943461B78D5E73B4A3C49EC
:100E8C00394803F01FF943461B78BAE772B6BFF333
:100E9C004F8FBFF36F8F3C00C4342378FF2B4CD0A3
:100EAC00390074205A1CC431D2B20A703149324C08
:100EBC00496A255A89B221528D4207D920007430D3
:100ECC004188013189B24180002927D0002A29D0DC
:100EDC00C4373B70002B04D1BFF34F8FBFF36F8F20
:100EEC0062B6832189008C461748616F325CA46F0F
:100EFC0093019B185B009B189B00F318E4074908AF
:100F0C00634421431960072301321A40325499E794
:100F1C0080211A4A13680B4313607EE7A16F0131DD
:100F2C00A167D3E70E4A0F490F4803F0CBF83B00FB
:100F3C00C4331B78013BDBB2CAE70C4A0C490A48A4
:100F4C0003F0C0F82378ABE7D81400008C00002025
:100F5C0064100000D5140000E85B0008C8600008AD
:100F6C0060610008E20200004C6100082461000886
:100F7C00DB020000004801400C010020004400404E
:100F8C00B0B582B000AF05000C00FA71002A28D170
:100F9C000121042003F03EFC03006A461333DB08F6
:100FAC00DB00D31A5A8821889A8000221A805A8032
:100FBC009D46A288D98001215A811981FA1D0123ED
:100FCC0003A8033103F040FCD422030052000C337D
:100FDC00A85801216A469BB2FFF7EEFEBD4602B04F
:100FEC00B0BD8B88024903486C3103F05BF8CFE746
:100FFC00E85B000880610008F8B5DE4657464E46AF
:10100C004546E0B51D00282300AFFB18914604CBE4
:10101C0006001B8888462800190093469A4603F060
:10102C00F9FB6B461330C408E4001B1B5A889D4621
:10103C009A8000221A805A804A46DA8005221A8148
:10104C00424629005A8103A853465A4603F0FCFB3A
:10105C00D422030052000C33B05801216A469BB2D3
:10106C00FFF7AAFEBD46F0BCBB46B246A946A04659
:10107C00F8BDC0460FB430B597B01AA920C92800E6
:10108C00019103F005F82A0004005021019B02A8ED
:10109C0003F0B4FF002808DD98220749013083B221
:1010AC008858002102AAFFF787FE200017B030BC39
:1010BC0008BC04B01847C0460C01002070B50500F0
:1010CC0082B008000C0003F00BFBC31FDBB20D2B2E
:1010DC0003D827499B00CB589F4602002549264838
:1010EC0002F0E0FF02B070BD200003F0FDFA0468CE
:1010FC002248210002F0D6FF022CF3D188230022D3
:10110C00EA54EFE7002300221F21A86F03F032FA04
:10111C00E8E7200003F0E8FA03001A6900680433DA
:10112C0000920ECB02F0BEFFDCE7200003F0DCFAED
:10113C00002341680068124A01F032FF04003C2190
:10114C00200001F013FE20000E003C2101F088FD70
:10115C003C2101F00BFE0D00E1212000090101F002
:10116C007FFD330001002A000648FFF783FFB9E733
:10117C00EC560008685C0008C4610008B061000807
:10118C0040420F009861000870B504000D0082B059
:10119C00002926D029681948FFF76CFFE026E423C4
:1011AC00A551E55023000021E433D971AA89200010
:1011BC005A81002299801A721A731031FFF7FAF8CB
:1011CC00A459002C13D02468200001F037FD80B204
:1011DC00009023000C2200210620FEF7ABFF02B08A
:1011EC0070BDA521064A074802F06CFFD2E7A52185
:1011FC00034A044802F066FFE5E7C046F0610008C8
:10120C00D4610008E0610008F0B5D6464F4646466A
:10121C00C0B505008CB008000C0003F061FA15385D
:10122C00C0B212281BD86A4A8300D3589F46E023C9
:10123C006849EB581031002B07D05B1A1B11013396
:10124C009BB2052B01D01B01C9182800FFF79CFF8E
:10125C0061480CB0E0BCBA46B146A846F0BD2000CF
:10126C0003F03EFA5B49020060315C4802F01AFF61
:10127C000020EEE7200003F037FA8146200003F04F
:10128C0031FA544B564F1E00804638009A460024C3
:10129C00103601F0D3FC40450AD00134A4B210360C
:1012AC00052CD5D03768380001F0C8FC4045F4D186
:1012BC0042463900484603F011FD0028EDD1534653
:1012CC00210110335918C0E7200003F00DFA017802
:1012DC002800FFF76FF80020BBE7200003F004FAAA
:1012EC000600200003F0FEF927216A460023D827C8
:1012FC00521813700400130031000200E85903F077
:10130C00D5FB002839D0E8590AA903F0C1FB042306
:10131C000A200093102200210AABFEF70BFF0020DD
:10132C0097E7200003F0E0F92E4A81880AAC51437C
:10133C00890B2180438809045A43920B62800088F0
:10134C001204C3011B181B011B1A9B0AA3801B044C
:10135C001B0C120C090C2448FFF78CFE06230320EF
:10136C000093102223000021FEF7E4FE002070E71A
:10137C001E4802F097FE00206BE727226B469B1855
:10138C0019781B4802F08EFE7589B078AC46357B17
:10139C007178A846757B7268A946F578337AAA46A7
:1013AC00777A002530300E2C01D90E25755754460E
:1013BC0005944C4604944446039464460190069567
:1013CC000C480294009702F06DFE002041E7C046E5
:1013DC0024570008685C00080514000850600008D9
:1013EC00046200084DCE000010620008C4620008C0
:1013FC00386200085462000830B5040083B008005D
:10140C000D0003F06DF9282806D8294B80001B58D5
:10141C009F46002003B030BD29002000FFF7F4FEEA
:10142C00F8E7E023E4220021E358A350E434E1710F
:10143C009A89A18062810022227222739A7B002AEF
:10144C00E7D019681B48FFF715FE1B48E2E71B495C
:10145C001B486C3102F026FE0122F523E2542300D6
:10146C00082000920021F5330332FEF763FE0020C2
:10147C00D0E7E423E458002C14D021681148FFF77E
:10148C00F9FD0020C6E70D490F486C3102F00AFE49
:10149C000020BFE7D823E05803F0E4FA0028B8D1C5
:1014AC000A48B7E7A5210A4A0A4802F00BFEE4E70E
:1014BC00705700080063000839170008685C0008C2
:1014CC00D862000810630008EC620008E5140008FC
:1014DC00D4610008E0610008F0B5D64646464F4698
:1014EC00C0B5060088B008000D0003F0F9F8040040
:1014FC00282803D8824B82009B589F462900300035
:10150C00FFF782FE0400200008B0E0BCBA46B146EA
:10151C00A846F0BD7B4FE42239007B4B0831783371
:10152C00B3507A4802F0BEFDF5230322F254F43B8B
:10153C0000939846330000210820F5330132FEF762
:10154C00F9FDD82304AD2900F05803F005FB002861
:10155C0000D097E00024F623F4540024D3E7F623BC
:10156C00F35C002BF9D16A4CCDE7D82304AC2100F5
:10157C00F05803F0F1FA0025002874D1A37BDB07A7
:10158C0063D4F6230024F554BDE75E4D8024290076
:10159C00E405626A30315F4802F084FD0122236861
:1015AC0093432360D823F05803F04CFA29005A488F
:1015BC00083102F077FD0024A5E7F523F25C002446
:1015CC00022AA0D10132F254012733008025F533D1
:1015DC000021013208200097FEF7ACFD4F48FFF7C1
:1015EC0049FD4849ED056A6A4A48483102F05AFDFE
:1015FC002B683B432B6086E7F525735D0024032B9A
:10160C0000D080E780273F49FF057A6A3031414896
:10161C0002F048FD01223B68002193433B6002230A
:10162C007355330000920820F5330332FEF782FD28
:10163C003B48FFF71FFD66E7F525735D022B44D091
:10164C000024032B00D05EE7DCE7D82303A9F05875
:10165C0003F01EFA04231022009300210A2003AB8E
:10166C00FEF768FD8DE72F4A21001300D033A1C986
:10167C00A1C3096801251960D023D2588023DB054A
:10168C005A637BE7049B39009A4628235B425344F8
:10169C001A0018312448994602F004FD5346802262
:1016AC00293BD20553634B464146536213680B43A7
:1016BC0013601C4B9C46D03383CD83C329681960BF
:1016CC00D0236146CB58536345E701337355330040
:1016DC008024F43DF5330422002108200095FEF708
:1016EC0029FD0E48FFF7C6FC0649E405626A094865
:1016FC00483102F0D7FC23682B432360002402E717
:10170C0014580008E85C0008685C0008D8620008FF
:10171C000514000828630008EC6200083863000810
:10172C004C6300088C00002020630008F0B5D646FE
:10173C004F464646C0B5050082B008000C0002F0CA
:10174C00CFFF28281BD84B4A800013589F46E02314
:10175C004949EB581031002B07D05B1A1B11013390
:10176C009BB2052B01D01B01C9182800FFF70CFDFB
:10177C00002002B0E0BCBA46B146A846F0BD21003C
:10178C002800FFF741FDF4E73C48F2E7200002F0A7
:10179C00ABFF8146200002F0A5FF374B384F1E00EF
:1017AC00804638009A460024103601F047FA8045EE
:1017BC000AD00134A4B21036052CD9D037683800C1
:1017CC0001F03CFA8045F4D142463900484603F01A
:1017DC0085FA0028EDD15346210110335918C4E77E
:1017EC0028492948643102F05DFCE023EC58002CB8
:1017FC0034D02468200001F021FA80B223000C229E
:10180C00002100900620FEF795FCF5230322EA54F4
:10181C002B00023A00210820F53300920332FEF728
:10182C0089FC2800E430FEF7B3FE0020A1E7280075
:10183C00E430FEF7ADFE00289AD1E423EC58002CDE
:10184C0012D021681148FFF715FC114891E70D499A
:10185C001048643102F026FC00208AE7A5210E4ACC
:10186C000E4802F02FFCC4E7A5210B4A0B4802F0EE
:10187C0029FCE6E7B8580008685C0008AD180008B9
:10188C0004620008E85C0008D862000810630008D5
:10189C0005140008EC620008D4610008E06100083F
:1018AC0030B5050083B008000C0002F019FF2828A1
:1018BC0003D8314B80001B589F4621002800FFF7AE
:1018CC00A3FC03B030BD2D492D48743102F0EAFB66
:1018DC00F5230222EA542B00013A08200092002141
:1018EC00F5330332FEF726FC0020EAE723492548AE
:1018FC00743102F0D7FB0020E3E7E423EC58002C12
:10190C0027D021682048FFF7B5FB2048D9E7D8231A
:10191C00E85803F0A7F8002817D11D48D1E7EE23AB
:10192C00EB5A002B09D1E433EC58002C17D021686A
:10193C001848FFF79FFB1848C3E7E423EC58002C2A
:10194C0013D021681548FFF795FB0020B9E70F4825
:10195C00B7E7A521124A134802F0B4FBD1E7A52141
:10196C000F4A104802F0AEFBE1E7A5210C4A0D48E6
:10197C0002F0A8FBE5E7C0465C590008E85C0008EB
:10198C00D8620008EC6200085C6300083917000894
:10199C00E514000810630008051400086C630008C7
:1019AC00D4610008E0610008010030B53039CBB2D9
:1019BC0083B0472B03D8574A9B00D3589F4601004E
:1019CC005548FFF757FB03B030BD8B00C918942363
:1019DC00802501AA490011705049514CC858933BBD
:1019EC00222102F0C7FD6369AD002B42EBD14D48BB
:1019FC0002F058FBA561E6E79423484AD0586033BF
:101A0C00C25C023A131C642A00DD81E019B201AAFF
:101A1C000A2912DB13702221012302F0ABFDD2E75D
:101A2C0094233E4AD0586033C25C0232131C642AA1
:101A3C0000DD642301AA092BECDC0A23EAE78022EF
:101A4C003949D203486903041340402282431343AB
:101A5C008B61B8E79423314A2021D058002300220F
:101A6C0002F088FDAFE73148FFF704FBABE79024A9
:101A7C002A4D002300220C21285902F07BFD002363
:101A8C0000220E21285902F075FD9CE728492948AF
:101A9C00FFF7F0FA97E79423204A1D21D058002332
:101AAC00002202F067FD8EE72349244802F0FAFA7F
:101ABC00234A244993680B4004210B43936082E72B
:101ACC008025174CAD0063692B421CD100231349B0
:101ADC0001AA13709433C8582221933B02F04AFD9B
:101AEC0071E7982300210D4AD258174BD1546AE75D
:101AFC0002230A4A01938E33D05807218C3B01AA4A
:101B0C0002F038FD5FE7114802F0CCFAA562DDE780
:101B1C0064237BE7005A0008FC6300080C010020DA
:101B2C0000040050C8630008000800507C630008E3
:101B3C00E0630008EC630008685D0008DC630008E3
:101B4C0000240140E8FFFF7FD9140000B4630008B3
:101B5C00112110B50F4A1048136A8B43136280226F
:101B6C000E4B92009A62DA3AFF3A9A610C490D4B8D
:101B7C0010315A6802F096FA0B4C012221002023F6
:101B8C000A482031E25402F08DFA2022A35C002B8B
:101B9C00FCD110BD002C014014640008000400505E
:101BAC00685D000800ED00E08C0100202464000852
:101BBC00024A536A013353627047C0468C010020BD
:101BCC0010B5EFF3058203490348243102F06AFA99
:101BDC0010BDC046685D0008385F0008012210B5D2
:101BEC00104B19690A4216D01968914319600621E5
:101BFC00DA688A43DA601A6901318A431A61402231
:101C0C00094B21319A629423084AD05800230022B0
:101C1C0002F0B0FC10BD06491A693031054802F0DB
:101C2C0041FAF7E7002C0140000800508C0000201E
:101C3C00685D00085C640008022210B5254BD96869
:101C4C000A4202D019690A4220D1234A0421214BAD
:101C5C00D868014202D0186901420DD11300CE336D
:101C6C0019881C4B1B6B013399421AD0194B1B4919
:101C7C001A690A4221D110BD1869884311001861F4
:101C8C00CE310B8801339BB20B80E7E71969914386
:101C9C00114A19611100CE310B8801339BB20B80B4
:101CAC00D4E7E0321378002BE0D127220C4B0B4900
:101CBC009A61084B1A690A42DDD01B690948194020
:101CCC0002F0F0F9EFF3058207490848243102F0DD
:101CDC00E9F9D0E7002C01408C000020E0FF0C005B
:101CEC00000400505C640008685D0008385F000860
:101CFC008023022210B5DB0519690A421CD0196930
:101D0C002248914319610300DD331B78002B26D147
:101D1C0003000022CE331A8003000200DE331B784E
:101D2C00E032DB0913700300D8331B88012B0BD076
:101D3C00D030FEF78FFB10BDEFF305821449154828
:101D4C00243102F0AFF9F6E703000200DA331B8806
:101D5C00D63202339B10DBB214331380E8E7020057
:101D6C000D495B01CC3213801A1C8B4200D20A1C29
:101D7C000A4B92B29A1A0A4B534380221201944690
:101D8C00084A63441B0B5361C2E7C0468C00002019
:101D9C00685D0008385F0008B2040000D32700001B
:101DAC0049070000007400400222F8B5354B196950
:101DBC000A420FD101211A69114203D01A698A43D0
:101DCC001A61F8BDEFF305822F493048243102F037
:101DDC0069F9F6E719692E4C914319618023E66F76
:101DEC00E75872B6BFF34F8FBFF36F8F2500C43522
:101DFC002B78FF2B3FD021007420264D5A1CC43168
:101E0C00D2B20A70295A8C461E49496A89B22952A3
:101E1C008C450AD9280074304188013189B241803F
:101E2C00002902D1A96F0131A967002A18D022001C
:101E3C00C4321370002B04D1BFF34F8FBFF36F8FDD
:101E4C0062B6AB6F6A6FD90752080A435B08380059
:101E5C00B04784210B4A6158536B5B185363B0E74E
:101E6C000D4A0E490E4802F02DF92300C4331B789D
:101E7C00013BDBB2DBE70B4A0B49094802F022F9C4
:101E8C002B78B8E700480140685D0008385F00080F
:101E9C008C0000200C01002060610008E2020000B0
:101EAC004C61000824610008DB02000070B572B6BA
:101EBC00BFF34F8FBFF36F8F084C2500C4352B78C1
:101ECC00FF2B03D00133C434237070BD044A054981
:101EDC00054802F0F7F82B78F4E7C0468C00002098
:101EEC0024610008DB0200004C61000870B50C4C4A
:101EFC002500C4352B78002B0BD0013BDBB2C4344E
:101F0C002370002B04D1BFF34F8FBFF36F8F62B6DA
:101F1C0070BD044A0449054802F0D4F82B78ECE76C
:101F2C008C00002060610008E20200004C61000897
:101F3C00102210B50E4BD9680A4211D119690A4208
:101F4C0007D1EFF305820B490B48243102F0AAF8B4
:101F5C0010BD0A4800211A61883002F0CFF8F7E76B
:101F6C0006480121DA60883002F0C8F8F0E7C04674
:101F7C0000180240685D0008385F00088C000020E3
:101F8C0010B5EFF3058203490348243102F08AF8B7
:101F9C0010BDC046685D0008385F0008102210B5FF
:101FAC001C4B19680A421AD1012219680A4211D134
:101FBC00802219689201114222D1042219680A4226
:101FCC0023D1082219680A420ED01A60124802F076
:101FDC0069F803E011481A6002F064F810BD1A6049
:101FEC000F4802F05FF8F9E719680E4802F05AF84A
:101FFC00EFF305820C490D48243102F053F8EDE75C
:10200C001A600B4802F04EF8E8E71A60094802F033
:10201C0049F8E3E700240140AC6400087864000848
:10202C0068640008B8640008685D0008385F000840
:10203C0084640008A0640008022310B5134C2268C5
:10204C00134218D108232268134208D11049226880
:10205C001048503102F026F80423636010BD0C497F
:10206C00636050310C4802F01DF801210B4A1368D3
:10207C000B431360F2E76360094B94211A00585824
:10208C00C63206237F3902F075FAE7E700000240FA
:10209C00685D0008D4640008C864000808000240A9
:1020AC008C00002010B5104BDA69920616D48022F1
:1020BC00D9690A420AD01B681A4206D00B4B34323B
:1020CC009858043A9B580A49984710BDEFF305827B
:1020DC0008490948243101F0E5FFF6E70348596A3D
:1020EC00983002F00BF8F0E7004400408C00002020
:1020FC0028440040685D0008385F000870B572B66F
:10210C00BFF34F8FBFF36F8F224C2500C4352B7854
:10211C00FF2B37D0210074205A1CC431D2B20A7064
:10212C001D491E4D496A2E5A89B229528E4207D931
:10213C00280074304188013189B24180002911D0C6
:10214C00002A14D0C4342370002B04D1BFF34F8F5A
:10215C00BFF36F8F62B6A96F686FCB074008184347
:10216C00490870BDA96F0131A967002AEAD10C4A50
:10217C000C490D4801F0A6FF2300C4331B78013B2A
:10218C00DBB2DFE7094A0A49074801F09BFF2B78CD
:10219C00C0E7C0468C000020004801400C01002024
:1021AC0060610008E20200004C6100082461000834
:1021BC00DB020000F0B5C64600B58A8888B0050081
:1021CC000C0002AF0A2A00D9BDE067499300CB5836
:1021DC009F46D2235B00C258CC3BD0583900248890
:1021EC0002F056FC04231022009321003B000A202D
:1021FC00FDF7A0FFBD4606B080BCB846F0BD2688F2
:10220C005A4C200000F01AFD80B201900C233200D1
:10221C00022128000094FEF7EFFEEBE701220100FB
:10222C000320FDF7C9FF5249524801F03BFF524AC7
:10223C00524993680B4004210B439360DAE7FFF794
:10224C005DFF08233860796022882179280001938A
:10225C000097043BFEF7D0FECCE7494B05213B60D1
:10226C00484B38007B60484B6E46BB60474BFB606D
:10227C00474B3B6102F066FA03000C339BB2073309
:10228C00DB08DB00F31A9D4602AB984642465B889E
:10229C00414693800023138053802388A288CB80EF
:1022AC0005230B8109336B449A803900052205A85C
:1022BC0002F068FAD422030052000C33A858012112
:1022CC0042469BB2FEF778FDB54693E7D2235B00FE
:1022DC00C258C43BD458002C40D02468200000F0D5
:1022EC00ADFC80B2009023000C2200210620FDF7EB
:1022FC0021FF7FE7D22301225B00C358002100920B
:10230C000720F4330332FDF715FF73E7D2230122C4
:10231C005B00C358002100920820F5330332FDF70F
:10232C0009FF67E726880400B134FF34200000F071
:10233C0085FC80B201900C23320009212800009406
:10234C00FEF75AFE56E70A4912486C3101F0AAFE14
:10235C00862221002800FEF713FE4BE7A5210E4A2A
:10236C000E4801F0AFFEB8E7205B0008E063000800
:10237C00685D0008DC63000800240140E8FFFF7F73
:10238C0004620008E4640008EC640008F8640008C7
:10239C000065000814650008D4610008E0610008BD
:1023AC00F8B5050008000C0002F09AF9162842D086
:1023BC0009D8012853D0022848D19349934801F0F9
:1023CC0071FE0020F8BD182840D1200002F08CF9D5
:1023DC00027A0400861D062A5CD013D8022A43D048
:1023EC00032A4CD1B388C188894A8A4801F05AFE25
:1023FC00290030790022FDF7DFFE31002800FFF7BD
:10240C00D9FEDEE7082A3AD1C188834AB3888148CD
:10241C0001F048FEB288062A46D00A2A00D1BDE057
:10242C00794948317D4801F03DFE86223100280073
:10243C00FEF7A6FDC5E7D423734A5B00E858833B3F
:10244C000021FF3B0C32FEF7B7FCBAE7200002F08C
:10245C0047F96D490200724801F024FEB1E76A4960
:10246C00704801F01FFEACE7C188B3886E4A69481A
:10247C0001F018FE31002800FFF79CFEA1E762492D
:10248C006A485C3101F00EFE812231002800FEF713
:10249C0077FD96E7B288931F9BB2052B00D98BE092
:1024AC00634A9B00D3589F46B3790C2B00D186E02E
:1024BC00002231002800FEF763FD82E7B379102B70
:1024CC00F6D1D2210200490068588239F3790E32D4
:1024DC00FF3902F04FF8EBE7B3790C2BE8D1F37925
:1024EC001F1C172B00D9172721002C00B134FF34E7
:1024FC00BFB23A0020000E3102F0FEFB0023EF19B0
:10250C00B137FF3721003B704A4801F0CBFDCFE7D4
:10251C00B3790C2BCCD19933F279FF33EF580E34BD
:10252C00042A60D0052A31D01E2100230022380055
:10253C0002F020F8BCE7B379042BB9D10200A13327
:10254C00FF33E858A43B22210D32FF3B02F012F876
:10255C00AEE7B379052BABD1E121827B437B120231
:10256C001A43141C09018A4200D90C1CA4B2210084
:10257C00314801F097FD6201121B93019B1AD62280
:10258C00DB001B199B015200AB5091E720002B493B
:10259C0002F0A4FB0028C7D11C21C6E7B379092B94
:1025AC0018D0082B84D19D33FF33E8580022002328
:1025BC00252101F0DFFF7BE71349343132E7D221CB
:1025CC002200490068588439F3790E32FF3901F042
:1025DC00D1FF6DE79C33FF33E85800220023242100
:1025EC0001F0C8FF64E72000154902F077FB0028D2
:1025FC0008D004222000134902F070FB002893D16C
:10260C001B2192E71D2190E7E85D00084C6500084E
:10261C00E065000868650008F065000814650008AE
:10262C00746000083465000860650008F8650008EF
:10263C004C5B00089C650008B465000894650008B4
:10264C008C65000818660008F0B5DE4657464E4605
:10265C004546E0B583B0060002AF08000C0001F05F
:10266C002BFF05002000012D4AD001F029FF8046E8
:10267C00200001F01DFF8246032D51D0200001F0F7
:10268C0027FF8146042D10D0280001F073FE4B4625
:10269C0001004246334801F005FDBD4601B0F0BCD7
:1026AC00BB46B246A946A046F0BD200001F000FF93
:1026BC008146200001F012FF0500200001F008FF08
:1026CC004A460300002A20D1022802D12A782F2A58
:1026DC0043D01A0069460C32D208D2008A1AEB4653
:1026EC00954602AA91465C1D210048461E4A00955B
:1026FC0002F008FC002801DD844224D8DD4609E004
:10270C0001F0E2FEFFF7FAFCC7E72A001821306857
:10271C0001F030FF524641463000FEF7E1FABCE7CB
:10272C004146124801F0BEFC524641463000FEF7CD
:10273C00D7FA51464B1E99410022002330681631BE
:10274C0001F018FFA9E79822094983B288584A4634
:10275C000021FEF731FBDD46DCE76878FFF724F952
:10276C00D8E7C0464C6600084066000820660008A2
:10277C000C01002070B5204D0400435D002B0ED1E0
:10278C000A2905D0C9B2FEF75DFA032818D070BD2E
:10279C0001220339FEF7A4FA01236355F7E7C9B206
:1027AC00FEF750FA0028F2D0144BE518280001F07F
:1027BC0097FE002813D029002000FFF745FFE6E71D
:1027CC000E4BE518280001F08BFE00280DD02900D7
:1027DC002000FFF739FF0122074BE254D7E70849E5
:1027EC0008486C3101F05EFCD1E7054905486C31B5
:1027FC0001F058FCEFE7C046D9140000CC120000E1
:10280C00E85D00087C660008408902308010C0B288
:10281C007047C0467047C04610B50B00EFF31084EC
:10282C00012181F310881900FDF796FF84F31088BD
:10283C0010BDC04610B582B0EFF31084012181F3B6
:10284C0010886B460122D91D0020FDF785FF84F30B
:10285C001088012803D16B46D87902B010BD012035
:10286C004042FAE710B5FDF721FF10BDF0B5DE468A
:10287C004E4657464546E0B59BB00AAB0593402300
:10288C00069300230793089301330C0091469B4653
:10289C000290099005E005A8FEF74CF8089800286E
:1028AC0059DB2178013400295CD02529F3D1220091
:1028BC001378002602250820140021392D2B0CD06A
:1028CC002D2B0ED8232B11D02B2B00D05FE10E43D8
:1028DC000132137814002D2BF2D15B4601321E43CA
:1028EC00F7E7302B05D12E430132F2E706430132D4
:1028FC00EFE71A00303A0025092A0DD81A00AB0070
:10290C005B1901345B009B182278303B1D001300CF
:10291C00303B092BF3D913002E2B00D1D8E0002724
:10292C002378042101E0637801341A008A43682A71
:10293C00F9D0252B07D0583BDBB2202B07D8954A72
:10294C009B00D3589F46252105A8FDF7F3FF089857
:10295C0001340028A5DA1BB0F0BCBB46B246A94630
:10296C00A046F0BD08980028F5DD079C002C00D08F
:10297C00C6E00019EFE74B4649461B6805A81A1D2F
:10298C000A60196810223B0001960095FEF70AF8C0
:10299C0001340898DDE74B4649461B6805A81A1D0B
:1029AC000A6019680A223B0001960095FDF7FAFFB0
:1029BC0001340898CDE74B4649461B681A1D0A603E
:1029CC001D6805E005A8FDF7B5FF08980028BFDBDA
:1029DC00297801350029F5D10898B9E74B464946C5
:1029EC001B6805A81A1D0A60196800230193083397
:1029FC0010220093FDF7D6FF01340898A9E74B4647
:102A0C0049461B681A1D0A601B68DA17981803934D
:102A1C00012350409A4609280DDDAA46A0461D0008
:102A2C000A210400013500F0D1F9632CF8DC2B00ED
:102A3C00444655469A46B846574575D3002D36D070
:102A4C00039B002B74DB730772D4B30701D5002FE3
:102A5C002DD05B4633422AD1002D28D04346A046C8
:102A6C001C00AC4220D205A82021FDF763FF08987A
:102A7C00013D002800DA87E0002DF2D12300444606
:102A8C009846039B002B58DB730761D40323334018
:102A9C00022B62D005A83B000A22039901960095EF
:102AAC00FDF780FF089853E72300444698460898A2
:102ABC000028E6DA01344CE74B4649461B6805A86A
:102ACC001A1D0A601978FDF735FF0134089840E7A4
:102ADC006378621C1900303914000027092900D9C9
:102AEC001FE71A00BB00DB1901345B009B1822782E
:102AFC00303B1F001300303B092BF3D9130010E7B8
:102B0C00254B1B78002B15D0EFF31085012181F399
:102B1C001088220002980AA9FDF792FE85F310880E
:102B2C000898079C001916E7D046002DBFD087E700
:102B3C00013D8AE7FDF7BAFDE6E75B422D2105A8CA
:102B4C000393FDF7F7FE089800289FDA013400E79D
:102B5C002B2105A8FDF7EEFEF5E7002F9AD10AE030
:102B6C00A8450CD205A83021FDF7E4FE0898013DDC
:102B7C00002800DAECE6002DF2D100258AE708984F
:102B8C00002887DA0134E4E644460134E1E6002506
:102B9C00C5E6C046645B0008B421002010207047D5
:102BAC0040687047837807201840704703005A68C4
:102BBC0008000A601A7A0A715A7A4A7107229978BF
:102BCC000A40FA2102731A7B4A43C280DA789200D7
:102BDC0042815A8902815A7B42737F229B789343AC
:102BEC0083737047030010000E2908D90E229A56E1
:102BFC0002700F2906D0DB7B5BB243707047002359
:102C0C001370FAE70023F8E7002243898A569B18D1
:102C1C00C822920093420BDD1300012243818A5695
:102C2C00C3889B18044A934200DD1300C38070478D
:102C3C00062BF2DA0623F0E724F400000023C25C32
:102C4C000133002AFBD1581E7047000003B47146B3
:102C5C00490840004900095E49008E4403BC704796
:102C6C00002243088B4274D303098B425FD3030ABF
:102C7C008B4244D3030B8B4228D3030C8B420DD3D2
:102C8C00FF22090212BA030C8B4202D31212090260
:102C9C0065D0030B8B4219D300E0090AC30B8B429E
:102CAC0001D3CB03C01A5241830B8B4201D38B034C
:102CBC00C01A5241430B8B4201D34B03C01A5241F1
:102CCC00030B8B4201D30B03C01A5241C30A8B4234
:102CDC0001D3CB02C01A5241830A8B4201D38B021F
:102CEC00C01A5241430A8B4201D34B02C01A5241C3
:102CFC00030A8B4201D30B02C01A5241CDD2C30935
:102D0C008B4201D3CB01C01A524183098B4201D3B0
:102D1C008B01C01A524143098B4201D34B01C01A9B
:102D2C00524103098B4201D30B01C01A5241C30813
:102D3C008B4201D3CB00C01A524183088B4201D382
:102D4C008B00C01A524143088B4201D34B00C01A6E
:102D5C005241411A00D20146524110467047FFE7DA
:102D6C0001B5002000F006F802BDC0460029F7D0DE
:102D7C0076E770477047C04610B5002903D100F0C4
:102D8C0007F8203002E0080000F002F810BDC04641
:102D9C001C2101231B04984201D3000C10391B0A7F
:102DAC00984201D3000A08391B09984201D3000943
:102DBC00043902A2105C40187047C046040302029A
:102DCC0001010101000000000000000003460B435C
:102DDC007FD4002243088B4274D303098B425FD308
:102DEC00030A8B4244D3030B8B4228D3030C8B4234
:102DFC000DD3FF22090212BA030C8B4202D312121A
:102E0C00090265D0030B8B4219D300E0090AC30BEE
:102E1C008B4201D3CB03C01A5241830B8B4201D39B
:102E2C008B03C01A5241430B8B4201D34B03C01A84
:102E3C005241030B8B4201D30B03C01A5241C30AFC
:102E4C008B4201D3CB02C01A5241830A8B4201D36D
:102E5C008B02C01A5241430A8B4201D34B02C01A57
:102E6C005241030A8B4201D30B02C01A5241CDD2FC
:102E7C00C3098B4201D3CB01C01A524183098B4247
:102E8C0001D38B01C01A524143098B4201D34B0130
:102E9C00C01A524103098B4201D30B01C01A524193
:102EAC00C3088B4201D3CB00C01A524183088B421A
:102EBC0001D38B00C01A524143088B4201D34B0003
:102ECC00C01A5241411A00D2014652411046704775
:102EDC005DE0CA0F00D04942031000D3404253407A
:102EEC0000229C4603098B422DD3030A8B4212D33A
:102EFC00FC22890112BA030A8B420CD3890192116C
:102F0C008B4208D3890192118B4204D389013AD0A8
:102F1C00921100E08909C3098B4201D3CB01C01A7D
:102F2C00524183098B4201D38B01C01A5241430990
:102F3C008B4201D34B01C01A524103098B4201D37E
:102F4C000B01C01A5241C3088B4201D3CB00C01AEB
:102F5C00524183088B4201D38B00C01A5241D9D203
:102F6C0043088B4201D34B00C01A5241411A00D284
:102F7C000146634652415B10104601D34042002B80
:102F8C0000D54942704763465B1000D3404201B5FF
:102F9C000020FFF7EFFE02BD0029F8D016E77047BE
:102FAC00002B11D1002A0FD1002900D1002802D00A
:102FBC000021C943080007B4024802A1401802903E
:102FCC0003BDC046B1FDFFFF03B4684601B50298CE
:102FDC0000F006F8019B9E4602B00CBC7047C04640
:102FEC00F0B557464E464546DE46E0B504000D00AA
:102FFC009246994683B08B4230D82DD049465046E4
:10300C00FFF7BAFE290006002000FFF7B5FE331AC1
:10301C009846203B9B4633D45A46534693404246EF
:10302C001F00534693401E00AF423AD8AF4200D126
:10303C0078E05B46A41BBD41002B00DA75E0002252
:10304C0000230092019301235A46934001930123DC
:10305C0042469340009328E08242CFD900220023BD
:10306C00009201930C9B002B01D01C605D600098BA
:10307C00019903B0F0BCBB46B246A946A046F0BDD0
:10308C00424620239B1A5246DA40414613004A46D8
:10309C008A40170042461F43534693401E00AF42DE
:1030AC00C4D900220023009201934346002BD9D0AF
:1030BC00FB0772081A4346467B080EE0AB4201D16F
:1030CC00A2420CD8A41A9D41012024196D41002163
:1030DC00013E24184D41002E06D0AB42EED9013EE4
:1030EC0024196D41002EF8D1009801995B46001906
:1030FC006941002B24DB2B005A464446D3402A005E
:10310C00E2401C005B461500002B2ADB26009E408B
:10311C00330026004746BE403200801A9941009089
:10312C0001919FE7A342BCD883E7424620230021AC
:10313C009B1A0022009101920122DA40019286E74B
:10314C00424620239B1A2A0046469A402300F3400D
:10315C00444613432A00E2401C005B461500002B3A
:10316C00D4DA42462F002023260097409B1ADE40DB
:10317C003B003343CDE7C0460D488546FFF74AFB7D
:10318C000C480D490D4A002302E0D458C4500433B6
:10319C00C4188C42F9D30A4A0A4C002301E013608C
:1031AC000432A242FBD301F061FD00F00FF8FEE700
:1031BC0000900020000000206C000020BC6800087B
:1031CC007000002094220020FEE70000F0B5DE46DF
:1031DC0057464E464546E0B5B9B000F055FF934909
:1031EC00934800F05FFF0722924B00215A63A02402
:1031FC000D3215A801F089FD0223E4051893200077
:10320C000E3314A91493FDF709F8149A236913408B
:10321C009A4206D1884B1B6883F30888874B1B683E
:10322C0098470323A0269A4615930023F605984643
:10323C003000189314A943331493FCF7EFFF2023A9
:10324C00300014A914938025FCF7E8FF43460127AE
:10325C007B4C1793AD0002332000159716931495F1
:10326C0014A9A5629946FCF7D9FF4023754814931D
:10327C0014A98361FCF7D2FF27232000179714931E
:10328C0014A9A361FCF7CAFF4B4615931993434647
:10329C00C02417935346A400169314943000B462C0
:1032AC0014A9FCF7BBFF0C23300014A91997149335
:1032BC00FCF7B4FF80215F4B09065A6D0120920088
:1032CC0092080A435A65604ADA63604A1A649A6B38
:1032DC0017439F635E4B1A6814431C605D4CFDF7EB
:1032EC0023F823685C4A5D4913401D435C4B256001
:1032FC009B461B685800C0184000FFF7B1FC8022A9
:10330C006369D2000130134202D105E0002803D0DA
:10331C00636901381342F9D180214E4A4900136880
:10332C000B43136013680B42FCD00221414A4D4BF6
:10333C00D365D36D1942FCD0382391680B40D1680A
:10334C00102B01D100F028FC002B01D000F028FC40
:10335C0013684549536819408023DB010B435360C4
:10336C00136842490B4013601368414A9B045B0F7E
:10337C00DA405B461A605B465868FCF7D5FF3D4A5D
:10338C00002832D138202B498B680340102B01D1F7
:10339C0000F0B6FD0B683848034080200B60546A7F
:1033AC00800403E0536A1B1B022B1ED80B680342DC
:1033BC00F8D1CB6831481840314B0343CB608023A4
:1033CC0008685B0403430B608023C8685B050343F8
:1033DC00CB608021546A1748890403E0536A1B1B95
:1033EC00022B02D803680B42F8D006231849086850
:1033FC00184201D100F0AAFCE0230E49DB018868D9
:10340C0003438B608B681F4803408B600B689B01E8
:10341C0001D400F0ADFC07208B681B4C83431800D3
:10342C00022303438B603820556A35E0E0630008C3
:10343C008C660008001002400000FF1F0400FF1FF4
:10344C000004005000080050030002300108160070
:10345C000020024000700040FFF9FFFF40420F00C7
:10346C000000002009800000FF80FFFFFFC7FFFF66
:10347C000024F4008C010020FFFFFFFE8C80C111A2
:10348C0032301646FFF0FFFF88130000536A5B1BB7
:10349C00A34201D900F06CFC8B680340102BF5D1D2
:1034AC000720F4490B680340022B01D900F0D2FC31
:1034BC00F14BF2499A680A409A6038229968114295
:1034CC0001D000F0B0FC1B68ED489B045B0FD840AA
:1034DC00E94BEC4A9B6800921B051B0F9B00D358D1
:1034EC001F221340D8405B4618605868FCF71CFF3D
:1034FC00E54AE6491368E6480B401360E54B19684A
:10350C005B4609051A68090D00F0CCFDE24B1A6800
:10351C00D20307D41A68E1490A401A60DA6BE04911
:10352C000A40DA638023DC4A5B02116801240B43F6
:10353C0013603F22DB4909200B6893431A000523D3
:10354C0013430B60D84BD9491A681140D84A0A4327
:10355C00D8491A6099600321D74A9246C632DA607C
:10356C005A68120C12040A435A60D44A546002225C
:10357C0019680A431A60082219680A431A601A6803
:10358C00210022431A60FCF7B7FDCD4B9A6822420A
:10359C0007D1DA68CB490A40DA601A6992009208BE
:1035AC001A618021C64B8903DA680A43DA608022EB
:1035BC00920119681142FCD007211A605A698A439A
:1035CC00110002220A4370215A615A698A43110080
:1035DC0050220A430F215A619A6A8A439A625A69A5
:1035EC00AA490A405A619A6AF231FF318A431100A2
:1035FC0010220A4380219A625A6989000A435A614F
:10360C009A6AB1491140C022D2000A4380219A62C1
:10361C005A69C9010A435A619A68AC49114080221F
:10362C0052050A439A605B46A9491868FFF718FBD4
:10363C00142343430793079B002B05D0079B013BA7
:10364C000793079B002BF9D19D4BA2499A68114017
:10365C00802212060A439A609A68002AFCDB8022B8
:10366C0012011A6020230793079B002B05D0079BA0
:10367C00013B0793079B002BF9D18023904C9B05B2
:10368C00226903211343236111230C206360FCF78F
:10369C0033FD0121E368E368A3680B4200D16BE3BF
:1036AC008D4800F0FFFC0124854B8C491A6914A845
:1036BC00A2431A611A690A401A619A6885490A403C
:1036CC0022439A6053466422C53318A91C7000F03B
:1036DC0037FFE420400001F0EDFAC822010052004F
:1036EC001031050000F02CFFD0237D4A5B00EA501E
:1036FC00F820319501F0DEFA0100C82210310500E6
:10370C0000F01EFF142001F075F9D8230022E850B8
:10371C000023382134923593882306AA5218009935
:10372C0032954031D4546F4800F0BCFC52466E4B7D
:10373C0014A9D3678023D150FA225146D200043306
:10374C00CA505B4669491868FFF78AFA0221684B30
:10375C00684A013898625A63DA6816200A43DA60BC
:10376C005A6922435A611C60FCF7C6FC624801F09E
:10377C00A1FA624B01009C46614B614496229C4627
:10378C00040001909200604400F0C4FCFF225D4BE9
:10379C005D49E254329B5D489846DC234246D15049
:1037AC00FFF74CFA10229446594B00246344994677
:1037BC0087B24B462601F5582800FFF73FFA87429F
:1037CC0000D117E20134052CF3D100264246E02348
:1037DC000024D65014339425D45253465A515B4688
:1037EC003B491868FFF73CFA4A4B4B4A0138986240
:1037FC009A61112201261A6273325E601A60882265
:10380C001202DE6021005A640D20FCF775FC2100C9
:10381C000E20FCF771FC5B462D491868FFF720FA67
:10382C0080231022DB050138986299690F200A4326
:10383C009A610222D9680A43DA605A692100164358
:10384C005E61FCF759FC319E17223000B1303349D0
:10385C00FF30329F01F092FBD22301995B00F750AD
:10386C002F4A0433F1500433F250329A2D4802920D
:10387C00425159E00020024000100240FF8FFFFF30
:10388C000024F400685E000800700040FFFEFFFF9B
:10389C00A06600080058014000740040FFFF03FFC1
:1038AC00FFFFF8FF00080240080002400F80FFFFF6
:1038BC00A0250000402401408C00002000000240A4
:1038CC0000240140C73FFFFFFFF0FFFFE8FFFF6F41
:1038DC0040420F00E8FFFF7FC0660008FFFFFFDFDC
:1038EC00F50A0008DC6300086505000880841E00EA
:1038FC0000480140400D0300DC140000741000006F
:10390C0064100000D5140000D50A0008C45E00083D
:10391C00685C0008002C014068680000DC66000848
:10392C00C0E1E4000C01002064221D3BFF3B14AEFF
:10393C00C65098239446C150B34BB44D9946009B46
:10394C00B34E6344984610353000296800F0AAFB4A
:10395C0028896B6800280ED0002204E0013292B254
:10396C000233904207D019785F780F42F6D0414667
:10397C00484600F097FB0134E4B21035052CE3D136
:10398C00F6230022029C8025E254A24A1A3BE25004
:10399C0000F07AFE01002000FDF72EFD20009E4C69
:1039AC001021FCF707FD6369AD002B4203D19B4846
:1039BC0000F078FBA5619A4914AA08A800F098FBBE
:1039CC005346883316C816C384201022954B1958B9
:1039DC009143195004381958114319501968793802
:1039EC001143196059680A435A600321FCF784FBA0
:1039FC00D023319D8C4A5B00EA5000F045FE01005B
:103A0C002800FEF7CDFCD4235B00EC58874BE35C1D
:103A1C007F2B00D8C1E1864B0493864B0593002382
:103A2C00854A2560A354854A5746A352844A854B40
:103A3C00516D854E0B4353658B23F3603268834B7A
:103A4C00C537134333603B78012B00D9AFE102211A
:103A5C001C20FCF751FB3B785A1C3A70734A5BB242
:103A6C00A354002B00DAA8E10BAB18002200784914
:103A7C00994600F03DFB220076490EA800F038FB79
:103A8C0011AB180022007449984600F031FB674BCB
:103A9C00E356012B00D1EFE1644BE2566F4B634FC1
:103AAC001E0002936E4B5836310018009946039352
:103ABC0000F0F8FAE257012A00D108E2310048463A
:103ACC0000F0F0FAE257012A00D100E2310048463A
:103ADC0000F0E8FAD42300215B00EA58614B6248FD
:103AEC00D15462490C3100F0DDFA614B614C9946BE
:103AFC00614E8827382206AB9B18DB5D002B00D16A
:103B0C00C4E0329B21001A001800009300F076FDEF
:103B1C000028EFD1319B31001A001800009300F0FF
:103B2C006DFD0028E6D114AA4946100000F066FD90
:103B3C000028DFD105000121404600F0CDFA002815
:103B4C0000D041E172B6BFF34F8FBFF36F8F534676
:103B5C00C4331B78FF2B00D1BFE15246C43213781B
:103B6C0032980133137000F001FD002800D03AE1C7
:103B7C005346C4331B78002B00D14EE15246C4325D
:103B8C001378013BDBB21370002BB2D1BFF34F8F14
:103B9C00BFF36F8F62B6ACE70D3B194002291FD003
:103BAC002749364A0B68802013400B6080230A6833
:103BBC005B001343324A0B60546AC00004E0536A42
:103BCC001B1B022B00D910E40B680342F7D04B6887
:103BDC002C4818408023DB0103434B60FFF7D2FBDA
:103BEC0013682849536819408023DB010B43536049
:103BFC00FFF7C1FB3A002900234801F06FF80028B9
:103C0C0000D0DFE54E44E1E504670008685C00087D
:103C1C00F46600080514000800040050C86300088E
:103C2C004D05000800180240AD230008D514000013
:103C3C001C670008F0600008D4140000D8140000C1
:103C4C000010024008000C0000440040010000205D
:103C5C008127000891030008A9030008E85B00080D
:103C6C00C8600008D914000064670008E85D00080B
:103C7C00C9100008910B0008390B0008FFC7FFFFA3
:103C8C008C010020FF80FFFFC45E0008D025319C12
:103C9C006D00665900F006FD01002000B047D64BC0
:103CAC00D648635100F0FEF9D4235B00E458D44BA2
:103CBC00E256012A04D002990398583100F0F2F927
:103CCC00FF228026CE4BCF4DE2546B69B600329C5E
:103CDC00334203D0CC4800F0E5F9AE62DC256659DE
:103CEC0000F0E0FC01002000B047C84B019A635182
:103CFC00C34BD35C7F2B05D89721049A05984900B8
:103D0C0000F0E0F9019800F0DFFFD823329CE05876
:103D1C0000F0A0FF200000F0D7FF319800F0D4FF96
:103D2C0072B6BB4800F0BEF900F0E0F91121B94AB7
:103D3C00136A8B4313628022B24B92009A62DA3A76
:103D4C00FF3A9A61B44B19329A62FEE707200223BC
:103D5C000C68844323430B60556AB04C0B680340DA
:103D6C00022B01D1FFF748FB536A5B1BA342F5D929
:103D7C00AB4B0093FFF7BCFBE368AA4AE3681A401D
:103D8C00A94B1343E360E3689B0200D48BE4F0235C
:103D9C00A26A1B021343A36285E40821A34BA44A25
:103DAC001800FF310492059300F08CF937E6A14816
:103DBC0000F078F9FF22924BE25411AB98469E4BDF
:103DCC0002939E4B039385E643461F789C4B7C22C3
:103DDC009C331978002900D085E02F2F00D092E079
:103DEC007B3A1A70AEE6319800F0C0FB002800D187
:103DFC00BEE614A800F0BAFB002800D1B8E6802774
:103E0C00904DBF006B693B4200D0D0E004218E4A3C
:103E1C0013698B43136130BFAAE68C4A8C498D48D9
:103E2C0000F050F9AAE699681140082900D1D3E0B6
:103E3C0099681140102900D181E09968114020291E
:103E4C0000D1CCE09B681A40182A00D1CBE00020AE
:103E5C00FFF73EFB02230C68844323430B60556A37
:103E6C006E4C0B680340022B01D1FFF721FB536A08
:103E7C005B1BA342F5D97BE753464A46983383CA6A
:103E8C0083C35346A43383CA83C3042332681343C6
:103E9C0033605B4BE356012B00D0FDE55246514697
:103EAC00B333D4506C4A043BCA5053464246B833E1
:103EBC0083CA83C30823326813433360504BE256E2
:103ECC005D4B02935D4B0393012A00D0E6E5202362
:103EDC00624A11680B431360FCE5614A61495D4815
:103EEC0000F0F0F839E60A2F40D05F4800F0DAF81D
:103EFC003800FDF759FD0022514B9C331A7021E616
:103F0C00CB68FFF772FA4E484D4D9D300378ED1893
:103F1C00A9540A2F09D00133DBB20370AF54142B10
:103F2C0000D00FE6504800F0BDF845494F487C31B1
:103F3C0000F0B8F80022424B9D331A7002E6DA68A2
:103F4C00D968D243D8684906490F40040131440E60
:103F5C0092074CD04648FEF783FE6043454BD96828
:103F6C00490F0131FEF77CFEFFF7B2FA3448344FAB
:103F7C0084462F209D3739784B1CDBB261443B7053
:103F8C008854142B07D1384800F08CF83A4937483C
:103F9C0000F088F83D700027294D29499D352B7874
:103FAC007C313248CF5400F07DF82F70A3E75B468C
:103FBC0006201B6831495843FEF752FE2B68304AE5
:103FCC00013013402B6003E0002800D1D0E501380C
:103FDC006B693B42F8D119E72A48FFF779FA802040
:103FEC000002FFF775FAFA20C001FFF771FA2548B5
:103FFC00FEF736FE6043B1E7F50A00088867000853
:10400C00D514000000040050B4630008D50A000861
:10401C0098670008002C014000080050881300002D
:10402C00685E00083CC2FEFF03100000F060000850
:10403C001C67000830670008E85B0008C8600008CF
:10404C000C0100200070004000ED00E060610008F1
:10405C00E20200004C610008E50B0008004400403F
:10406C0024610008DB0200009C67000878670008E8
:10407C000024F400001002408801002040420F0090
:10408C00FFBFFFFF00127A0010B5FEF7EBFB10BD6F
:10409C0000B583B0019101AA01000020FEF7E6FBF8
:1040AC0003B000BD0FB400B583B004AB02CB01AAC2
:1040BC00002000930193FEF7D9FB03B008BC04B0B9
:1040CC001847C046130010B50A0001000148FFF75D
:1040DC00E9FFFEE7AC6700080A0010B501000020FC
:1040EC00FEF79AFBC343DB17184010BD7047C04660
:1040FC0000238360426001607047C04610B50368BE
:10410C000400002B04D040689847A3680133A360D7
:10411C0010BDC04601604B1E99410023494211401D
:10412C0041608360C360704700238360C360704745
:10413C0003009B68C068C01A43425841C0B2704724
:10414C000200C368581E9368C01A536800D5C01883
:10415C007047C04603008268C1685B68501A00D57E
:10416C00C0187047F0B54646D6464F460500C0B558
:10417C00EB688068013B0E0014001B1A1ED493429E
:10418C001AD31700002F05D12000E0BCBA46B14667
:10419C00A846F0BDAB6828689C463A0060443100E4
:1041AC0000F0AAFDAB689C466B686744AF609F4209
:1041BC00EAD10023AB60E7E70020E6E76A689046A7
:1041CC004344A342F8D30319994627009A42D9D8FD
:1041DC00131A9A462B6852469C46604400F08CFD9C
:1041EC0000234246AB604B4656449F1ACAE7C04672
:1041FC00F8B54746CE4680B5C66883680500884644
:10420C009C1B0BD4944207D82700002C20D13800DB
:10421C00C0BCB946B046F8BD1400F5E743689946F2
:10422C004C44944200D91400331927009945ECD81A
:10423C004B469F1B2B683A009919404600F05CFDD9
:10424C004B46F61AA419B84400263F19002CDED0B0
:10425C00296822004046891900F04EFDD7E7C04678
:10426C00F0B54F464646D646C0B50F008368C168C8
:10427C00060014005B1A1ED493421AD31500002DAD
:10428C0005D12000E0BCBA46B146A846F0BDF368A3
:10429C0031689C462A006144380000F02DFDF3681B
:1042AC009C4673686544F5609D42EAD10023F36037
:1042BC00E7E70020E6E7426890464344A342F8D380
:1042CC000B19994625009A42D9D8531A9A46036875
:1042DC0052469C463800614400F00EFD00234246D5
:1042EC00F3604B4657449D1AC9E7C04670B50100B0
:1042FC000400861D1D4D1E4823781B0258400823C0
:10430C0004E0013BDBB280B2002B09D002B24000CA
:10431C00002AF6DA013B6840DBB280B2002BF5D103
:10432C000134A642E8D14B888A781D0A1202154343
:10433C001BD008314D190D4CADB20B781B025840F7
:10434C00082304E0013BDBB280B2002B09D002B29F
:10435C004000002AF6DA013B6040DBB280B2002B51
:10436C00F5D101318BB2AB42E7D170BD2110000009
:10437C00FFFF0000052804D883001B180248C01852
:10438C0070470248FCE7C046D0670008CC670008BD
:10439C0070B5040004A8007849000001084301210D
:1043AC000143072018400023D2000243638023718D
:1043BC00200000230725C9B221706270661D0822F7
:1043CC0001304B4004E0013AD2B2DBB2002A09D0F2
:1043DC0059B25B000029F6DA013A6B40D2B2DBB27B
:1043EC00002AF5D1B04201D00178E8E763712000D2
:1043FC00FFF77CFF030AE071A371200070BDC0467B
:10440C0070B5040004A840C84900058820001B01B1
:10441C000B43D20031002370627008302A0000F088
:10442C006BFC2B0AA3700023E57020000725237179
:10443C00661D02785340082204E0013AD2B2DBB286
:10444C00002A09D059B25B000029F6DA013A6B4018
:10445C00D2B2DBB2002AF5D10130B042E9D163719E
:10446C002000FFF743FF030AE071A371200070BD29
:10447C0070B5002307244679451D02785340082265
:10448C0004E0013AD2B2DBB2002A09D059B25B0087
:10449C000029F6DA013A6340D2B2DBB2002AF5D138
:1044AC000130A842E9D1F01A42425041C0B270BD6D
:1044BC0000788006800F704700780007400F704727
:1044CC0040788006400F70474378072018407047AB
:1044DC00827843881202180A1043704708307047DC
:1044EC0010B50400FFF702FFE388A1791B0A09024B
:1044FC000B43181A42425041C0B210BDB0B500AFC8
:10450C00050000F0BFF86A46C31DDB08DB00D31AB8
:10451C009D460200040069462800FFF769FE80B240
:10452C00844203D00024BD462000B0BD684600F094
:10453C00D3F804002800FFF70DFE8442F2D8F2E70E
:10454C0070B505000C001600002905D032002800BB
:10455C002100FFF7DFFD70BD3D21024A0248FFF745
:10456C00B1FDF3E7F06700080068000810B5FFF72D
:10457C00DFFD10BDF8B5DE4657464E464546E0B564
:10458C0000AF1E0080468A46914600F07BF86B46D1
:10459C00C41DE408E4001B1B9D460500801983B272
:1045AC003200514668469B4600F08AF8FDF77EFCC7
:1045BC004046FFF7C5FD002483450DD9FDF796FC59
:1045CC005B46E01ABD4643425841C0B2F0BCBB4604
:1045DC00B246A946A046F8BD2A0069464046FFF7F8
:1045EC00C1FD4B4684B2002BE8D032004946404610
:1045FC00FFF7B8FD2418A4B2E0E7C046F8B54E4664
:10460C004546DE465746E0B500AF06008946904663
:10461C00FFF774FF0025041E07D1BD462800F0BC2F
:10462C00BB46B246A946A046F8BD6A46C31DDB0888
:10463C00DB00D31AEA469D46FDF738FC220069469A
:10464C003000FFF70DFE0600B6B2EB46FDF74EFC50
:10465C00002E01D1D546E0E7684600F03DF88442D3
:10466C0005D159464046C8470125D546D5E72521F1
:10467C00024A0348FFF726FDF3E7C0461868000816
:10468C00006800080C20704710B5FDF737FD0200DC
:10469C000B0003480260436080235B02836010BD03
:1046AC007022002010B5FDF729FD02000B00034815
:1046BC000260436080239B02836010BD6022002057
:1046CC0070B504000E001500FDF718FD6681206022
:1046DC0061602581200070BD00890C3080B270476C
:1046EC00807A7047008970470C30704710B5042AE7
:1046FC0024D012D8012A15D0022A1BD1052303700D
:10470C000023441CC85CE0540133D8B29042F9D366
:10471C000220002A0AD180B210BD082A0AD1072330
:10472C000370EDE7042303700B784370013AD0B2A9
:10473C000230F0E7142303700120EDE70623037029
:10474C00DEE7C046F0B5C6460E0000B5002917D00E
:10475C00FF23050000240227984601CDFEF76EFAD0
:10476C0080B280459B415B420233C01801343F1834
:10477C00E4B2BFB2A642F0D1380080BCB846F0BD5E
:10478C000227F9E7F8B5DE4657464E46454616234E
:10479C00E0B583460370002A38D0013AD2B29200B9
:1047AC0091460B1D0E000127994411E002220C23A7
:1047BC0092462B7068700A3B020454444146120C1A
:1047CC00E8183F19043600F097FABFB2B14512D081
:1047DC005B46DD19336818009846FEF72FFA84B251
:1047EC00FF2CE3D90D2303222B70230AAB709246C6
:1047FC0003236870E0E7781C80B25A461823D3551F
:10480C00F0BCBB46B246A946A046F8BD0220012723
:10481C00F3E7C04607280DD9030004220C3B934351
:10482C00DBB2002B09D00D389043C3B20020002B13
:10483C0006D07047013188B2FBE7023188B2F8E745
:10484C00033188B2F5E7C046F8B5050016001C0028
:10485C000D2909D80B291BD80439032916D8310086
:10486C00DAB2FFF743FFF8BD103901290ED8FF2B40
:10487C002AD8102344700370022702202200310032
:10488C002818E41900F038FAA0B2ECE70020EAE7A7
:10489C001000FEF7D3F984B2FF2C0FD90D232B7027
:1048AC00230AAB7003270323687002043100120C37
:1048BC00E818E41900F020FAA0B2D4E70C23022780
:1048CC002B7068700A3BF0E711230370230A4470C5
:1048DC00837003270320D1E7F0B5C64600B5838B60
:1048EC0004000D00012600AF002B04D0BD463000A3
:1048FC0080BCB846F0BD6A46CB1DDB08DB00D31A82
:10490C00E8469D460A0004306946FFF7A9FC85423B
:10491C0002D00026C546E9E7210068461431FEF7AF
:10492C0045F92200290068462432FEF75BF9222261
:10493C000121A35C0B43A354C546D7E7F8B5454604
:10494C005746DE464E46E0B5838B0400884615007C
:10495C0000AF002B25D00600242314369A46B3460C
:10496C0082442B005A4643CA43C32221126858463C
:10497C001A600122635C934363542A816269A38B9E
:10498C009446013BA383638B514663446361FEF7FA
:10499C003BF90120BD46F0BCBB46B246A946A04639
:1049AC00F8BD0B006A460733DB08DB00D31AE94677
:1049BC009D460A0004306946FFF752FC804502D040
:1049CC000020CD46E6E72600143631006846FEF797
:1049DC00EDF824239A46A244524641466846FEF717
:1049EC0001F922220121A35CB3460B43A354CD460B
:1049FC00B7E7C04670B50500582000F05BF906001B
:104A0C00FEF7CCF801356C1044430134A4B22000FD
:104A1C0000F050F9010030000025220002C0FFF721
:104A2C0079FB2000B58300F045F9B062010030003D
:104A3C0022002C30FFF76EFB44233000F552356515
:104A4C00756570BD70B5040004300025FFF76CFB74
:104A5C002000A5832C30FFF767FB4423E552256526
:104A6C00656570BD10B5838B0400002B01D0002050
:104A7C0010BD0430FFF75CFB0028F8D04423E35A48
:104A8C00002BF4D120002C30FFF752FBF0E7C0468E
:104A9C0070B5040004300D00FFF752FB2880200095
:104AAC002C30FFF74DFB688070BDC046F0B54F460B
:104ABC004646D646C0B5804600AF08000C0091466D
:104ACC001E00FEF76FF8012808D90123002033706F
:104ADC00BD46E0BCBA46B146A846F0BD85002D18CF
:104AEC00FEF75CF8ED000435454482462800FFF7DC
:104AFC0027FB824503D9022300203370E8E720000E
:104B0C00FEF74EF843461B6D834201D300281ED19D
:104B1C004346186553466A460733DB08DB00D31A55
:104B2C009D4652460021684600F0EFF84A462100A7
:104B3C0000F0E2F8524669462800FFF713FB030029
:104B4C0001209A45C4D0042300203370C0E703230E
:104B5C0000203370BCE7C046F0B5D6464F464646FB
:104B6C00C0B504000D00FEF719F807000100200085
:104B7C00FFF7B2FE00285AD0200039002830FFF78A
:104B8C00ABFE804600284BD000276169E06B2723E1
:104B9C0088427F4188429241784298435242013385
:104BAC009C4693009B18DB00E3181A002900143272
:104BBC00BA468146C1CAC1C11268E1440A602222C8
:104BCC0094469C44624601206146127882430A70E6
:104BDC002881596948468C4649469A8B2431013ABA
:104BEC009A835A8B1430624420185A616118FEF76C
:104BFC000BF8534698005044C700E41964692B68BD
:104C0C002800E41AFDF700FE844218DDEB889C4274
:104C1C0000DAEC804046E0BCBA46B146A846F0BD8E
:104C2C002A0039002000FFF789FE8046F2E72000B9
:104C3C002A0039002830FFF781FE8046EAE7672119
:104C4C00024A0348FFF73EFAE0E7C046386800081E
:104C5C006068000810B50400806A00F035F8206820
:104C6C0000F032F8200000F02FF810BD70B50026CF
:104C7C000C4D0D4C641BA410A64209D1002600F06B
:104C8C0023FD0A4D0A4C641BA410A64205D170BD2D
:104C9C00B300EB5898470136EEE7B300EB58984752
:104CAC000136F2E7B4680008B4680008B46800087C
:104CBC00B868000810B5034B0100186800F09AF8AA
:104CCC0010BDC0460800002010B5034B0100186849
:104CDC0000F024F810BDC0460800002030B50024B8
:104CEC000139A24201D1002005E0035D01340D5DC4
:104CFC00AB42F6D0581B30BD002310B59A4200D100
:104D0C0010BDCC5CC4540133F8E703008218934205
:104D1C0000D1704719700133F9E7000070B5050038
:104D2C00002910D00C1F2368002B00DAE41828008F
:104D3C0000F070F91D4A1368002B05D163601460F4
:104D4C00280000F06FF970BDA34208D921686018E3
:104D5C008342F3D118685B6841182160EEE71A00B2
:104D6C005B68002B01D0A342F9D911685018A042FE
:104D7C000BD120680918501811608342E0D11868D3
:104D8C005B68411811605360DAE7A04202D90C232A
:104D9C002B60D5E721686018834203D118685B68E3
:104DAC004118216063605460CAE7C046802200202D
:104DBC0070B50F4E0D0031680400002902D100F0CF
:104DCC008FF830602900200000F08AF8431C0AD0CC
:104DDC000323C51C9D43A84207D0291A200000F0CC
:104DEC007FF8431C01D101256D42280070BDC046DF
:104DFC0084220020F7B50322CB1C93430833060012
:104E0C001F000C2B32D20C27B94231D8300000F0E5
:104E1C0001F9324D2B681C00002C2ED139003000CA
:104E2C00FFF7C6FF0400431C1ED12C682500002D83
:104E3C004AD123682900E3183000019300F050F8A0
:104E4C00019B834243D123680337FF1A03239F43FB
:104E5C0008370C2F00D20C2739003000FFF7A8FFC1
:104E6C00431C34D02368DF19276013E0002BCBDA06
:104E7C000C23002533602800FEBD2268D11B20D4F2
:104E8C000B2917D9E2192760A34211D12A60636854
:104E9C00116053603000250000F0C4F807220B3578
:104EAC00231D9543EA1A9D42E5D05B1BA350E2E714
:104EBC005A60ECE76268A34201D12A60EAE75A60C3
:104ECC00E8E723006468A7E72C006D68AFE70C23C4
:104EDC003000336000F0A6F8CDE7C04680220020F9
:104EEC00002370B5064D040008002B6000F0DEFBBB
:104EFC00431C03D12B68002B00D0236070BDC0462F
:104F0C00882200200CB430B5174B0C001D689DB0E6
:104F1C00002908DA8B2301202B6040421DB030BCE5
:104F2C0008BC02B0184782236A469B009382002378
:104F3C0002900690994200D04B1E049307930123D4
:104F4C006A465B42D382280021AB209A02A90193C6
:104F5C0000F0D2F8431C01DA8B232B60002CDDD03F
:104F6C000023029A1370D9E70800002003000A7886
:104F7C0001311A700133002AF9D17047030030B5A2
:104F8C001D00002A06D00C78013A01332C70013137
:104F9C00002CF5D100219A18934200D130BD197024
:104FAC000133F9E730B5140005001A009BB0002C52
:104FBC0005DA8B230360012040421BB030BD8223F5
:104FCC0068469B0083810023009104919C4200D091
:104FDC00631E02930593012369465B42CB81280033
:104FEC001E9B00F089F8431C01DA8B232B60002CEC
:104FFC00E3D00023009A1370DFE7000007B500939D
:10500C0013000A00010002480068FFF7CBFF0EBD39
:10501C000800002010B5024800F0F0FA10BDC046A0
:10502C008C22002010B5024800F0E9FA10BDC046F1
:10503C008C220020F0B58E6885B007000C0003921E
:10504C0001939E423CD890238A89DB001A4234D0CB
:10505C000969236860695B1A029303234343DD0FDC
:10506C00ED18019B029801331B186D10AB4200D94F
:10507C001D00530532D529003800FFF7BBFE061E74
:10508C0009D10C233B6040230120A28940421343E9
:10509C00A38105B0F0BD029A2169FFF72DFEA3890B
:1050AC00144A1A4080231343A381029B2661F618ED
:1050BC0026606561019EED1AA560019B9E4200D998
:1050CC00019E32000399206800F0A5FAA368002025
:1050DC009B1BA36023689E192660DAE72A00380020
:1050EC0000F0ACFA061EE0D138002169FFF716FE7D
:1050FC00C7E7C0467FFBFFFFF0B5A1B003901D00D2
:10510C008B890F0016001B0611D50B69002B0ED1D5
:10511C004021FFF76FFE38603861002805D10C2361
:10512C00039A0138136021B0F0BD40237B6100234A
:10513C0008AC6361203363761033A3760795350092
:10514C002B78002B01D0252B47D1AB1B0593B542F7
:10515C000CD0320039000398FFF76CFF431C00D1D0
:10516C00AEE06269059B9446634463612B78002B27
:10517C0000D1A5E0012200235242626004A95432FE
:10518C0052186E1C2360E360A3601370A3650522A4
:10519C003178544800F034FA751C00281FD122686D
:1051AC00D30604D5532304A95B18202119701307C7
:1051BC0004D5532304A95B182B21197033782A2B9F
:1051CC0016D0350000210A20E3682A786E1C303A8C
:1051DC00092A4ED9002911D117E00135B0E7414B0E
:1051EC002268C01A0123834013432E002360CEE7AC
:1051FC00079B191D1B680791002B01DB0B9304E027
:10520C005B42E3600223134323602B782E2B0AD1DD
:10521C006B782A2B35D1079B02351A1D1B68079218
:10522C00002B2BDB0993304E03223000297800F041
:10523C00E7F9002806D04023801B83402268013503
:10524C00134323602978062228486E1C217600F02F
:10525C00D7F900283CD0264B002B25D10722079BE1
:10526C0007339343083307936369049A9B1863616C
:10527C0065E74343350001219B18A6E701235B42F8
:10528C00D0E700230A201A000135636029786E1CD0
:10529C003039092903D9002BC5D00992C3E7424301
:1052AC00350001235218F1E707AB00933A002100B7
:1052BC00104B039800E000BF0490049B0133D3D142
:1052CC00BB890D985B0600D42DE7012040422AE7EC
:1052DC0007AB00933A002100064B039800F07CF8D2
:1052EC00EAE7C046776800087D6800088168000816
:1052FC000000000041500008F7B5150001938A68C2
:10530C000B690C000090934200DA130022002B6012
:10531C0043321278002A01D001332B6023689B069C
:10532C0002D52B6802332B602268062317001F401E
:10533C001A4227D0230043331B785A1E934122680C
:10534C00920630D4220001990098089E4332B0474F
:10535C00431C25D0062320682A68E16800250340F9
:10536C00042B03D18D1AEB43DB171D40A368226974
:10537C00934201DD9B1AED180027BD4220D100207D
:10538C0010E00137E3682A689B1ABB42D2DD220089
:10539C00012301990098089E1932B047431CF0D1A3
:1053AC0001204042FEBD3020E1184331087021003D
:1053BC005A1C45310978A218433202331170C1E7E7
:1053CC002200012301990098089E1A32B047431C11
:1053DC00E6D00137D1E70000F0B58BB006920A0099
:1053EC0043320793059004920A7E0C00109B782A96
:1053FC0007D8622A09D8002A00D1C1E0582A00D166
:10540C008CE026004236327022E0100063381528FA
:10541C00F7D8FDF71BFC16001F00F6FFF6FFF6FF92
:10542C00F6FF1F00F6FFF6FFF6FFF6FFA8003600AA
:10543C009A00F6FFF6FFB900F6FF3600F6FFF6FF0E
:10544C009E0026001A684236111D196013683370CD
:10545C000123A7E0086819680A1D05060BD50D681D
:10546C001A60002D03DA2D23049A6D421370614BE0
:10547C000A2703931BE00D681A604106F1D52DB283
:10548C00EFE70D681968081D18602E0601D50D6828
:10549C0003E06D06FBD50D68ADB2564B08270393A0
:1054AC006F2A00D002372300002243331A7063683E
:1054BC00A360002B03DB0422216891432160002DA3
:1054CC0002D1049E002B0CD0049E28003900FDF75D
:1054DC004DFC039B013E5B5C33702B0005009F422F
:1054EC00F3D9082F09D12368DB0706D56368226935
:1054FC00934202DC3023013E3370049B9B1B2361DF
:10550C00079B210000930598069B09AAFFF7F4FE60
:10551C00431C4CD1012040420BB0F0BD45310A7008
:10552C00344A03921A68216820CA1A60080616D5F4
:10553C00CB0702D52023194321601027002DB2D1AF
:10554C00202322689A432260ADE7202209680A438F
:10555C0022602200782145321170274AE1E7480683
:10556C00E6D5ADB2E4E71A680D68101D49691860FC
:10557C0013682E0601D5196002E06D06FBD5198063
:10558C000023049E2361BBE71A68111D196016687D
:10559C0000213000626800F033F8002801D0801B35
:1055AC006060636823610023049A1370A8E7236981
:1055BC00320006990598079DA847431CAAD023687A
:1055CC009B0715D4099BE0689842A5DA1800A3E75D
:1055DC002200012306990598079E1932B047431CF7
:1055EC0098D00135E368099A9B1AAB42F0DCE9E7E5
:1055FC000025F7E78868000899680008704770472D
:10560C00C9B28218904201D10020704703788B42B6
:10561C00FBD00130F6E710B5884202D98B189842BE
:10562C0003D3002307E08B5C8354013AFBD210BDFB
:10563C00CC5CC45401339A42FAD1F8E7F7B50700B1
:10564C000E001400002905D11100FFF7D3FB050053
:10565C002800FEBD002A03D1FFF760FB2500F7E709
:10566C0000F01BF80190844203D835004308A34294
:10567C00EED321003800FFF7BDFB051EE8D0019BDF
:10568C0022009C4200D91A0031002800FFF734FB9D
:10569C0031003800FFF742FBDAE70B1F1B68181FBD
:1056AC00002B01DA0B58C01870470000044A0300A5
:1056BC001068002802D0C318136070470148FAE73D
:1056CC009022002098220020F8B5C046F8BC08BCF7
:1056DC009E467047F8B5C046F8BC08BC9E4670475D
:1056EC00F4100008E6100008E6100008E6100008A8
:1056FC00E610000810110008E6100008F010000871
:10570C00E6100008E61000081E110008E61000085C
:10571C00E6100008361100082E1300086A12000863
:10572C006A1200086A1200086A1200086A1200085D
:10573C006A1200086A1200085C1200087C13000848
:10574C006A1200083A12000880120008D4120008ED
:10575C00E61200086A1200086A1200086A120008B1
:10576C007C120008241400085A1400089214000833
:10577C00241400082414000824140008241400081D
:10578C00241400082414000824140008241400080D
:10579C0024140008241400082414000824140008FD
:1057AC0024140008241400082414000824140008ED
:1057BC0024140008241400082414000824140008DD
:1057CC0024140008241400082414000824140008CD
:1057DC002E140008241400081E14000824140008B9
:1057EC002E140008241400082414000824140008A3
:1057FC0024140008A01400081E1400082414000827
:10580C00241400087E140008081500082015000850
:10581C00961500080815000808150008081500085A
:10582C0008150008081500080815000808150008D8
:10583C0008150008081500080815000808150008C8
:10584C0008150008081500080815000808150008B8
:10585C0008150008081500080815000808150008A8
:10586C000815000808150008081500080815000898
:10587C0008150008C61500080416000808150008CD
:10588C00081500084416000808150008081500083B
:10589C0008150008081500086615000872150008A0
:1058AC0076150008661500086A1500088A170008A6
:1058BC00EC1700085A1800088A1700088A17000805
:1058CC008A1700088A1700088A1700088A17000828
:1058DC008A1700088A1700088A1700088A17000818
:1058EC008A1700088A1700088A1700088A17000808
:1058FC008A1700088A1700088A1700088A170008F8
:10590C008A1700088A1700088A1700088A170008E7
:10591C008A1700088A1700088A17000894170008CD
:10592C008A1700088A170008941700085A170008ED
:10593C00981700088A1700088A1700088A170008A9
:10594C008A1700087C1700088A1700083A18000804
:10595C00C6180008D2180008F8180008C618000865
:10596C00C6180008C6180008C6180008C618000893
:10597C00C6180008C6180008C6180008C618000883
:10598C00C6180008C6180008C6180008C618000873
:10599C00C6180008C6180008C6180008C618000863
:1059AC00C6180008C6180008C6180008C618000853
:1059BC00C6180008C6180008C61800085A190008AE
:1059CC00C6180008C6180008C618000806190008F2
:1059DC00C6180008C6180008C6180008C618000823
:1059EC001A190008C6180008C6180008C6180008BE
:1059FC002A190008CC1A0008D6190008D619000874
:105A0C00D6190008D6190008D6190008D6190008AE
:105A1C00D6190008D6190008D6190008CA190008AA
:105A2C00CA190008CA190008CA190008CA190008BE
:105A3C00721A0008CA190008CA190008CA19000805
:105A4C00CA190008CA190008CA190008CA1900089E
:105A5C00CA190008CA190008CA190008CA1900088E
:105A6C00CA190008CA190008CA190008CA1900087E
:105A7C00CA190008CA190008CA190008CA1900086E
:105A8C00CA190008CA190008CA190008CA1900085E
:105A9C00CA190008CA190008CA190008CA1900084E
:105AAC00CA190008CA190008CA190008CA1900083E
:105ABC00CA190008CA190008B41A00087A1A000892
:105ACC00CA190008041A0008CA190008CA190008E3
