:020000040800F2
:1000000000900020E92E0008392F0008A1200008E8
:1000100000000000000000000000000000000000E0
:10002000000000000000000000000000392F000860
:100030000000000000000000392F0008FD2000082B
:10004000392F0008392F0008392F0008392F0008F0
:100050000D210008392F0008392F0008C52300089A
:10006000392F0008CD240008392F0008392F000847
:100070003124000829210008992100085522000890
:10008000392F000815240008392F0008392F0008DF
:10009000392F0008392F0008392F0008392F0008A0
:1000A000392F0008392F0008392F0008392F000890
:0C00B00039250008392F0008392F0008FE
:1000BC0010B5064C2378002B07D1054B002B02D032
:1000CC00044800E000BF0123237010BD7000002025
:1000DC000000000070500008044B10B5002B03D03A
:1000EC000349044800E000BF10BDC04600000000FA
:1000FC007400002070500008F0B50124C023844027
:10010C000B4D5B00EC500700830803203840FF27A1
:10011C00AC46C026C0008740890181409B006344E7
:10012C00B6009A59BA430A439A512C60F0BDC046A6
:10013C0000E100E070B50F4E0023340025788542B5
:10014C0013D001330C340A2BF8D17824335D0A2BED
:10015C000AD05D1C35555C00E418A40033193055E9
:10016C000548996058605A8070BD5800C3189B00B0
:10017C00F318F5E78C00002075100008F0B501228B
:10018C004F46D64646460B6800249146C0B5002B18
:10019C001AD14BE0170057437B00DB19DB43C568D2
:1001AC00AC4666460D691E407D433543C5604D68BF
:1001BC00022D2DD07D43026813402B4303600B6846
:1001CC001A000134E24031D04D461A00A5402A40B5
:1001DC002B42F5D04B68013B012BDBD81700574362
:1001EC0083688D6898467B009C467D43BC44AA4638
:1001FC0046466546AE433500564663462E438660FA
:10020C00CE684568564395433543DB434560C6E7A6
:10021C00FF2A10D83D007D43026A2E01761BB243A3
:10022C004E6975432A4302624D68C3E7E0BCBA4687
:10023C00B146A846F0BD120A52435243456A160114
:10024C00B61AB5434E6972432A4342624D68B1E710
:10025C0010B51124020008480B00016AA143016289
:10026C008020064980008862DA38FF3888610449AA
:10027C00044803F0AFFDFEE7002C014000040050E1
:10028C007854000898570008FA2170B5124C0500F4
:10029C008900206802F096FB802301385B049842A9
:1002AC0001D3012070BDC0210C4A090650600C48D6
:1002BC00036A1B021B0A0B43036207210023936092
:1002CC001160032DEDD8026AA9071202120A0A4323
:1002DC00026218006560E5E70000002010E000E015
:1002EC0000ED00E010B50A0002490348103103F09C
:1002FC0071FD10BD78540008A457000810B50A0011
:10030C0002490348203103F065FD10BD7854000804
:10031C00A4570008F0B5C64607001C4800248046C8
:10032C00050000B582B02E78BE4207D001340C35E2
:10033C000A2CF8D102B080BCB846F0BD600004199C
:10034C004046A4000519A86800936E6813000A00C3
:10035C003900B0476B88012B04D0002BEAD0013B4D
:10036C006B80E7E743460A48195D03F033FD7821BB
:10037C0043465B5C013BDAB243465A5453009B182C
:10038C009B00434407CB07C5D4E7C0468C00002034
:10039C00AC570008F8B50C00050050261A4803F0BD
:1003AC0019FD1A4B0421EC54EA1807200123FFF71E
:1003BC00B1FF174F6643CC373B88B34204D03100B2
:1003CC00144803F007FD3E80134B321C9E4200D9AB
:1003DC001A1C124B92B29A4200D21A000E4B6108B0
:1003EC009A1A0F4B323453438022120194460C1943
:1003FC000C4A63441B0BE4B2536121000A4803F01E
:10040C00E9FC0A4BEC54F8BDD05700088E020000F2
:10041C008C000020F0570008D3270000B204000025
:10042C0049070000007400400858000886020000CC
:10043C004B1E9941012310B54942994300220023D8
:10044C000E3103F02FFF10BD70B5060014001D0017
:10045C0082B080360092019332687368A41A9D4171
:10046C00002D04D1074B9C4201D802B070BD08236B
:10047C006A46132103F016FF009B019C33607460E5
:10048C00F3E7C046BFE1E40010B5C3780400042BC9
:10049C0000D889E0E388002B00D18EE0A388002BE4
:1004AC0000D193E0E1784A01521A93019B1AD800CB
:1004BC00FA23401800029B0498424FD2FA2189007B
:1004CC0002F080FA0138454B0621D862A288013A25
:1004DC001A6300225A621A698A431A61A278002AA6
:1004EC003ED1E2880439013A5A63DA680A43DA6089
:1004FC0001213A4A53690B435361237862781800FF
:10050C001043031E37D14022354B9A62BF32012172
:10051C00344B996102233349134239D08B61042344
:10052C003049134239D08B61130739D520222D4B1A
:10053C009A612D4A00231100284CCE310B80636345
:10054C00A3639433D05823210023002203F0AAFE86
:10055C000122012023681343236010BD2348B2E716
:10056C000020012AF9D10421E288013A9A63DA6861
:10057C000A43DA60BCE74020DB43194A9061DAB2E7
:10058C000B42C4D1174B9962022316491342C5D1B1
:10059C008B62042313491342C5D18B621307C5D454
:1005AC002022104B9A62C4E7114A1249124803F0F8
:1005BC0021FCE388002B00D070E7104A10490E484C
:1005CC0003F018FCA388002B00D06BE7D0210D4A58
:1005DC000948890003F00EFC64E7C046002C01407A
:1005EC0000080050000400508C000020FEFF0000AA
:1005FC002C5800083E0300004058000854580008CE
:10060C003F03000074580008A023F0B59B00C318EA
:10061C001D89020085B00020002D01D105B0F0BD70
:10062C00A021987A890051589E881A79002823D1E4
:10063C00C87ADD7901AC401B0138A0800120520042
:10064C00987248688518825C6878227060709B7913
:10065C009B00E380897AE170C82189008B4200D924
:10066C00E18010421DD1052313405A425341200012
:10067C00A370FFF709FFD1E701320889D4B2A04279
:10068C000DD06200D87901AC0130C0B2D871A08015
:10069C00CF7A013FB8420CD000209872D1E70022EB
:1006AC00F0E78221094A0A48FF3103F0A3FB2278C4
:1006BC00D9E700200136B6B2D8719E800F89B742B7
:1006CC00EAD1013D98801D81E6E7C04690580008AC
:1006DC00AC580008032310B5104C114A2361636118
:1006EC00104BA261E36180239B0123620023A36270
:1006FC006362E36222660C4A0C4954326266102231
:10070C00E01DA2662367E366636704F0FDF8200032
:10071C00074904F0F9F82023A37110BDA42100208F
:10072C00BC580008A40100200C010020C858000887
:10073C00CC580008F8B54746CE4680B58368C568E6
:10074C0099465B1B9846436804000E001700581925
:10075C00904507D9ED1903F09DFFE560C0BCB94683
:10076C00B046F8BD424603F095FF4B463100ED19FB
:10077C00ED1A2A006068414403F08CFFE560EDE758
:10078C00F0B557464E464546DE46E0B5354B83B090
:10079C009A461B78060015000191002B56D0770065
:1007AC00BB19DB0053441A6F9046DA6E91469045A4
:1007BC0025D8130042462C009B1A9D4209D8002CC8
:1007CC0009D1200003B0F0BCBB46B246A946A046F6
:1007DC00F0BD1C1EF5D0A146BB19DB005344596E6D
:1007EC00220041440198A04403F054FF4C46002CD5
:1007FC00E7D04346BF19FF0057443B67E1E7424649
:10080C009B6E2C009B1A9D4227D8BB19DB005344CE
:10081C009B46596E22004144019803F03BFF5B4616
:10082C009B6EA0442D1B434519D04B4642469B1A48
:10083C0099464D450DD8002DD9D0019BA1469C461B
:10084C00A44463462C000193A944C5E7FFF742FF7B
:10085C00A5E74D46002DCAD0EFE71C00D5E70023D5
:10086C009846E6E7A4210020F8B557464E46DE46EA
:10087C0045468946411CE0B517004A005218030052
:10088C00D2009246344A5E0093461000F618F600E9
:10089C005E44F36A50449846012B0CD0022B27D0AF
:1008AC00002B17D0002398464046F0BCBB46B246FE
:1008BC00A946A046F8BDB36A726A934247D9013B78
:1008CC009B1AB8469F4200D9984642464946FFF7C4
:1008DC0031FFE9E7B36A726A934233D9013B9B1A41
:1008EC009F42E1D83A004946FFF724FFB846DBE7C0
:1008FC000023746A98461DE0013B356A1B1BBB4202
:10090C0000D93B002D1B9D4200D91D005B46534472
:10091C0058682A004946001903F0BCFE336A641972
:10092C00E31A5A1E93415B421C40A844A9447F1B06
:10093C007462B9D0B36AA342DED8356A5B19013B45
:10094C001B1BDCE7316A5B18013B9B1AC8E7316A59
:10095C005B18013B9B1AB4E7A4210020F0B5C646F6
:10096C0000B5856843686A1C04009A4207D803687E
:10097C0059551500C36882600133C36043689D42BA
:10098C0002D080BCB846F0BD2368276998460E4B50
:10099C001B78002B15D0EFF31086012181F3108802
:1009AC002A0041463800FFF75FFF86F31088A368E2
:1009BC00834203D001235B42E360E2E70023A360A0
:1009CC00DFE7FFF787FEE6E7A4210020F0B54E46EF
:1009DC0045465746DE46E0B583B09A460C9B8046AA
:1009EC000E0015009946914200D27DE008000127C7
:1009FC00290001F0E7FF01378542F9D9574500D2AC
:100A0C00574601230D9A1A4001920D9A13424ED16A
:100A1C004B46002B4BD0130020249B075ED44F4534
:100A2C0045D201235B429C4621004046E144FFF73E
:100A3C0095FF4346DB68002B32DB4B46002BEED197
:100A4C0053460124012B07D901235B429C46E24407
:100A5C0053466C43012BF7D82100300001F0B2FF54
:100A6C008542F5D9214B9B4630239A4606E0290056
:100A7C00200001F0A7FFAC420FD30400300021008E
:100A8C0002F026F8534658440E00C15C4046FFF76E
:100A9C0065FF4346DB68002BE9DA019B002B19D17B
:100AAC0003B0F0BCBB46B246A946A046F0BD4346D7
:100ABC00DB68002BC4DAF3E74F45F1D201235B422C
:100ACC009C4620214046E144FFF748FF4346DB6843
:100ADC00002BE5DB4B46002BEED1E1E753465C42A5
:100AEC005C41240120349AE7012787E778540008F9
:100AFC0010B5080003F08CFC034902004031034898
:100B0C0003F068F9002010BD78540008D458000890
:100B1C0010B5080003F07CFC034902004C3103487B
:100B2C0003F058F9002010BD78540008F85800085C
:100B3C0010B50400806F03F0ADFB002801D100203C
:100B4C0010BD606F03F0A6FB0028F8D0200003F066
:100B5C00A1FBF5E770B5D0267600835904009847C1
:100B6C00051E1DD0A65903F035FC01002000B0472E
:100B7C00002805D098210B4A0B48490003F03AF99C
:100B8C00D0235B00E55003F017FC01002000A847C0
:100B9C00002805D03421034A0348FF3103F02AF919
:100BAC0070BDC0461C5900082859000870B59E2617
:100BBC00B600835904009847051E1DD0A65903F0B2
:100BCC0009FC01002000B047002805D0DE210B4AAB
:100BDC000B48490003F00EF99E239B00E55003F0EF
:100BEC00EBFB01002000A847002805D0C021034AD8
:100BFC000348FF3103F0FEF870BDC0461C590008D5
:100C0C00AC580008F8B52B4B0500C6180122300073
:100C1C0003F0BAF9012804D0CF21274A274803F062
:100C2C00E9F872B6BFF34F8FBFF36F8F244C2700D8
:100C3C00C4373B78FF2B2ED022000133C432300056
:100C4C00137003F01BF9002810D02500C4352B7845
:100C5C00002B19D0013BDBB2C4342370002B04D120
:100C6C00BFF34F8FBFF36F8F62B6F8BD154BEA56CB
:100C7C00012A18D02500144914485831C43503F002
:100C8C00A9F82B78002BE5D1114A1249124803F030
:100C9C00B1F82B78DEE7A421104A0F48890003F045
:100CAC00A9F83B78C8E780210D4A13688B43136081
:100CBC00CBE7C046641000003C59000848590008B6
:100CCC008C000020D51400007854000880590008CE
:100CDC009C59000897020000405800085859000819
:100CEC0000440040F0B54F46D6464646A323C0B557
:100CFC0017009F229B009846C35C920005008A4611
:100D0C0000249146002B06D117E043460134EB5CDE
:100D1C00E4B2A34211D94A46AA5823019E58300086
:100D2C0001F03EFEB842F0D13A003100504603F0DB
:100D3C00A3FC0028E9D1034BEC54E0BCBA46B14605
:100D4C00A846F0BD8D020000F8B5224D0400435DAD
:100D5C005A1CD2B24255C3181F48844663441970BA
:100D6C00072A08D91C4BE618082A0DD01B4BE05A51
:100D7C000830824201D00020F8BD0022154B300013
:100D8C00E25403F02DFAF7E7300003F005FA0028DF
:100D9C000BD0300003F030FA8023104F0100E053E9
:100DAC009B00984210D8625DE2E7615D0139C9B2DF
:100DBC0061550029DFD0002372780133DBB2327029
:100DCC0001369942F8D1D6E7054803F003F8002321
:100DDC00E353D0E7D4140000CC120000D61400006A
:100DEC00BC59000870B584B00B00009205000022BD
:100DFC00012102A803F060F972B6BFF34F8FBFF365
:100E0C006F8F234C2600C4363378FF2B32D0220050
:100E1C000133C43213701F4B082202A9E81803F0E7
:100E2C0035F8002811D12500C4352B78002B1AD0A9
:100E3C00013BDBB2C4342370002B04D1BFF34F8FC2
:100E4C00BFF36F8F62B604B070BD134BEA56012A24
:100E5C0018D02500114912485831C43502F0BAFF98
:100E6C002B78002BE4D10F4A0F49104802F0C2FF37
:100E7C002B78DDE7A4210E4A0C48890002F0BAFF5A
:100E8C003378C4E780210B4A13680B431360CAE71D
:100E9C008C00002064100000D51400007854000869
:100EAC00805900089C59000897020000405800081F
:100EBC005859000800440040F0B50600C646100022
:100ECC001D005D4B00B5F25C82B09401A418640067
:100EDC00A418A400043434190B00019500900421CB
:100EEC00200003F021F9083572B6BFF34F8FBFF322
:100EFC006F8FC4239846514FB84443461B78FF2B41
:100F0C003CD03A000133C43213704D4B21002A00FF
:100F1C00F01802F0BBFF041E18D1C4239846B84445
:100F2C0043461B78002B21D03A00013BDBB2C43284
:100F3C001370002B04D1BFF34F8FBFF36F8F62B6CA
:100F4C00A54224D002B080BCB846F0BD3D4BF25651
:100F5C00012A58D03C493D48583102F03BFFC4238C
:100F6C009846B84443461B78002BDDD1384A3949A2
:100F7C00394802F03FFF43461B78D5E7A421374A96
:100F8C003548890002F036FF43461B78B9E772B644
:100F9C00BFF34F8FBFF36F8F3C00C4342378FF2B0C
:100FAC0042D039005A1CC431D2B20A7080212C4C68
:100FBC00C905606E496A6166884202D9A16E013129
:100FCC00A166002A25D0C4373B70002B04D1BFF397
:100FDC004F8FBFF36F8F62B6832189008C46164802
:100FEC00616E325CA46E93019B185B009B189B0096
:100FFC00F318A407890863442143196007230132BD
:10100C001A4032549EE78021164A13680B43136032
:10101C0083E70F4A0F49104802F0ECFE3B00C43343
:10102C001B78013BDBB2CEE7A4210C4A0A488900AD
:10103C0002F0E0FE2378B4E7D81400008C00002006
:10104C0064100000D5140000785400088059000882
:10105C009C59000897020000405800085859000895
:10106C000C01002000440040F0B5D6464F464646E1
:10107C00C0B500AF98463B8C06008946100019009D
:10108C0015009A4603F05EFA6B461330C408E40070
:10109C001B1B5A889D469A8000221A805A80DA803F
:1010AC0005321A814A4629005A8103A85346424602
:1010BC0003F062FAD422030052000C33B058012121
:1010CC006A469BB2FFF7F8FEBD46E0BCBA46B14695
:1010DC00A846F0BD70B506000D00140084B0002ABF
:1010EC0017D101AA538800219380002311705370EB
:1010FC005180A9885372D42328885B00D080F05883
:10110C009D3B518114720121FF3BFFF7D5FE04B0CA
:10111C0070BD8B88024903486C3102F05BFEE0E73E
:10112C0078540008E0590008F0B54F46D6464646BC
:10113C00C0B58A8884B005000C0002AF0A2A00D919
:10114C000AE195499300CB589F46D2235B00C058C7
:10115C00D83003F0A3F8022338803A0005210A2086
:10116C00FFF7D8F8BD4602B0E0BCBA46B146A84677
:10117C00F0BD8A4C200001F013FC80B200902300DB
:10118C000C2202212800FFF76FFFEBE7844C0322AF
:10119C002100844802F01EFE012229000320FEF7E4
:1011AC00C9FF21008048143102F014FE7F4A8049A7
:1011BC0093680B4004210B439360D3E772B6BFF3E3
:1011CC004F8FBFF36F8FC42398467A4EB04443467B
:1011DC001B78FF2B00D1D5E031005A1CC431D2B2A0
:1011EC000A7075498846496E40468C468021C9056F
:1011FC00496A41668C4502D9816E01318166002AAB
:10120C0000D1B4E0C4363370002B04D1BFF34F8F40
:10121C00BFF36F8F62B6434642465B6E926E9B087D
:10122C0091070B433B60082392087A6021790422D2
:10123C00009328003B00FFF717FF93E7D2235B00D6
:10124C00C358E9469A46A32352469B00D65C6A468D
:10125C00B3000733DB08DB00D31A9D469F2202AB99
:10126C009200984694460023002E0BD050466146BF
:10127C00415840461A0151589A0001338150DAB254
:10128C009642F3D83100404603F0F4F803006A4666
:10129C000C339BB20733DB08DB00D31A9D4602AB41
:1012AC009A4652465B8851469380002313805380A4
:1012BC002388A288CB8005230B8109336B449A8049
:1012CC004146320005A803F0F5F8D4220300520081
:1012DC000C33A858012152469BB2FFF7EDFDCD46C9
:1012EC0040E7D2239F215B00C258344B8900D35C6A
:1012FC0052581B019C58200001F052FB220083B273
:10130C000C210620FFF706F82CE7D2235B00C2580D
:10131C002B4B04219C46082001236244FEF7FAFF64
:10132C0020E70400AD34FF34200001F039FB80B21B
:10133C00009023000C2209212800FFF795FE11E7ED
:10134C00D2235B00C2581F4B04219C46072001236B
:10135C006244FEF7DFFF05E711491B48243102F018
:10136C0039FD862221002800FFF7B4FEFAE6174A61
:10137C001749184802F03EFD3300C4331B78013B7B
:10138C00DBB23FE7A421144A1248890002F032FD77
:10139C0043461B7820E7C04688500008F8590008DF
:1013AC00F8540008045A0008145A0008002401409C
:1013BC00E8FFFF7F8C0000200C0100208D02000054
:1013CC008F0200008E020000185A00089C59000879
:1013DC00970200004058000858590008F0B5C6465E
:1013EC0000B5050084B008000C0003F011F81528B6
:1013FC0055D00ED8012800D166E002285AD18C496C
:10140C008C48383102F0E6FC002004B080BCB846B1
:10141C00F0BD17284ED1200002F0FEFF027A040026
:10142C00861D062A6CD013D8022A53D0032A5CD10D
:10143C00B388C188804A814802F0CCFC29003079FD
:10144C000022FEF777FE31002800FFF76DFEDBE788
:10145C00082A4AD1C1887A4AB388784802F0BAFC83
:10146C00B288062A00D0C0E0B3790C2B00D1C9E0B9
:10147C0001AA53880021938000231170537051806E
:10148C00E088B18813725372D4235B00D080E85883
:10149C009D3B5181FF3B0121FFF70EFDB4E7D423A7
:1014AC00634A5B00E858833B0021FF3B4432FFF763
:1014BC0003FDA9E7200002F0ABFF5D4902003831C3
:1014CC00604802F087FC9FE759495F48383102F0C9
:1014DC0081FC99E7C188B3885C4A584802F07AFCD1
:1014EC0031002800FFF720FE8EE759495948143186
:1014FC0002F070FC812231002800FFF7EBFD83E73E
:10150C00B388C188544A4D4802F064FCB288931FDA
:10151C009BB2042B73D8514A9B00D3589F46B37986
:10152C000C2BA5D1F3791F1C172B00D91727D62309
:10153C005B0098462100A844BFB23A0040460E31E9
:10154C0003F0A8F80023EF19AD37FF3741463B7085
:10155C00434802F03FFC8BE7B3790C2B88D1270072
:10156C009933FF33EB580E379846F379042B4DD053
:10157C00052B31D01D2100230022404602F092FEA3
:10158C0076E7B379042B00D072E72200A133FF3346
:10159C00E858A43B2121FF3B0D3202F083FE67E7A4
:1015AC00B3790C2B00D063E7D222F3795200A85800
:1015BC00220020210E3202F075FE59E7B379102B70
:1015CC0000D055E7D2225200A85822002221F379EC
:1015DC000E3202F067FE4BE722490522380003F079
:1015EC004BF81B210028C5D1C5E719491E4802F04C
:1015FC00F1FB862231002800FFF76CFD04E70C4953
:10160C006C31F3E79F32F379FF32D0E704223800D4
:10161C00164903F031F8002808D004223800144988
:10162C0003F02AF80028A5D11A21A4E71C21A2E76F
:10163C00F8540008505A0008C05A00086C5A0008A8
:10164C00D05A0008F8580008385A0008645A0008A4
:10165C0078550008D85A0008905A0008B450000871
:10166C00A85A0008A05A0008185A0008985A0008EE
:10167C00F85A00080FB430B597B01AA920C9280041
:10168C00019102F09DFB2A0004005021019B02A84D
:10169C0003F082F9002808DD88220749013083B263
:1016AC008858002102AAFFF707FC200017B030BCB5
:1016BC0008BC04B01847C0460C01002070B50500EA
:1016CC0008000C0002F0A4FE0E280AD00AD8072845
:1016DC002DD00C2839D1002300221E21A86F02F036
:1016EC00E1FD70BD132830D1200002F095FE0023DF
:1016FC0041680068184A01F005FB04003C212000F9
:10170C0001F0E6F920000E003C2101F05BF93C21D0
:10171C0001F0DEF90D00E1212000090101F052F980
:10172C00330001002A000D48FFF7A4FFD9E7200081
:10173C0002F072FE04680A48210002F04BFB022CF6
:10174C00CFD188230022EA54CBE70649020024318A
:10175C00054802F03FFBC4E740420F00005B000865
:10176C00185B0008785500082C5B00089F2270B5A8
:10177C001A4B9200C35C85581B01ED1804002968B4
:10178C001748FFF777FFA023A0229B00E550AB89F9
:10179C009200A61833810023B380EB7A002B17D06C
:1017AC0000230F21F371B3722000FEF7F3FD9F228B
:1017BC000A4B9200E35CA2581B019C58200001F0DC
:1017CC00EFF8220083B20C210620FEF7A3FD70BDBA
:1017DC004721044A044802F00DFBE1E78D020000AA
:1017EC00385B00084C5B0008645B000870B50500B2
:1017FC0082B008000C0002F00BFE0300143BDBB2BD
:10180C00102B15D82F4A9B00D3589F46200002F06E
:10181C0003FE0600200002F0FDFD3100020028004E
:10182C00FFF760FA2800FFF7A1FF002002B070BD9F
:10183C00200002F0EDFD244902003431234802F06F
:10184C00C9FA0020F2E7200002F0E6FD6B46818821
:10185C001F4A5143890B1980438809045A436B462C
:10186C00920B5A8000881204C3011B181B011B1A0F
:10187C0068469B0A83801B041B0C120C090C154830
:10188C00FFF7F8FE032006236A461021FEF742FDFF
:10189C000020CBE7A321104A8900AB5C0133DBB2FB
:1018AC00AB54695C9942BDD10023AB54BAE720001C
:1018BC0002F0B2FD01782800FEF76CFDB5E7074891
:1018CC00B4E7C046C850000878550008D458000842
:1018DC004DCE0000785B00088D020000ED1800086A
:1018EC00F0B504008DB008000D0002F091FD252824
:1018FC0003D8564A800013589F4629002000FFF752
:10190C0075FF0DB0F0BDA026514BB600E25C113B4B
:10191C00E35812019B18A3519A89A5192A81002218
:10192C00AA80DA7A002A00D189E00022EA71AA7230
:10193C0019684848FFF79EFE4748E2E74749484880
:10194C00403102F047FA0122464B0820E2540421B0
:10195C00E2180123FEF7DEFC0020D2E73F494248A3
:10196C00403102F037FA0020CBE7280002F054FD9A
:10197C000600280002F04EFD0F203056337A7268B4
:10198C0071780690B07A0590F0780490F07A039014
:10199C00B0890290B0780190707A0090334802F0D0
:1019AC0019FA334FF578CC373B886D01AB4204D034
:1019BC002900304802F00EFA3D802F4A2B1C95422C
:1019CC0000D2131C2D4A9BB2D21A2D4B2D485343D7
:1019DC008022120194462C4A63441B0B5361B57A46
:1019EC00290002F0F7F92000284BD830E55402F01A
:1019FC0055FC09AC02232200052120800A20FEF7A9
:101A0C0089FC338920002380B378A370F37AE370C8
:101A1C00B37A9B00E380B389A380FEF735FD030006
:101A2C000020002B00D16CE719486AE7A0239B002B
:101A3C00E35818481968FFF71DFE002061E747219D
:101A4C00154A164802F0D6F9A3596EE70C51000856
:101A5C008D020000C85B00080D1B000878550008BB
:101A6C00A05B00088F020000B45B0008D85B000884
:101A7C008C000020F0570008B2040000D3270000AF
:101A8C004907000008580008007400408602000056
:101A9C00AD1A0008445C00084C5B0008645B00084D
:101AAC0070B5050008000C0002F0B2FC24280CD81C
:101ABC0022280ED8012813D002280CD10C490D482D
:101ACC004C3102F087F9002070BD252803D10A485B
:101ADC00FAE70020F8E721002800FFF787FEF3E77C
:101AEC00034906484C3102F075F90020ECE7C0467A
:101AFC0078550008B45B0008ED180008A05B0008DE
:101B0C0070B5050008000C0002F082FC252803D8F3
:101B1C001A4A800013589F4621002800FFF766FEE2
:101B2C0070BD1748FCE7174917485C3102F052F9B1
:101B3C000322164B0820EA540421EA180123FEF76D
:101B4C00E9FB2800FEF760FD0020E9E70D4910488D
:101B5C005C3102F03FF90020E2E72800FEF754FD6B
:101B6C0003000020002BDBD1A0239B00EB5809487D
:101B7C001968FFF77FFD0848D2E7C046A45100085A
:101B8C00A91B000878550008A05B00088F02000014
:101B9C00B45B0008445C0008ED18000870B5040044
:101BAC0008000D0002F034FC252803D8314A8000CF
:101BBC0013589F4629002000FFF718FE70BD2E49D0
:101BCC002E486C3102F006F902222D4B0820E2540B
:101BDC000421E2180123FEF79DFB0020EEE72649C5
:101BEC0028486C3102F0F6F80020E7E7A0239B00B0
:101BFC00E35825481968FFF73DFD2448DEE7A3218B
:101C0C00234A8900A35C0133DBB2A354615C994283
:101C1C0001D10023A3542000FFF7A8FD1D48CDE7F8
:101C2C00280002F0F9FB0600280002F0F3FB31005B
:101C3C0002002000FFF756F82000FFF797FD15482B
:101C4C00BCE7A2239B00E35A002B08D1A0239B00E6
:101C5C00E35811481968FFF70DFD0E48AEE7A023B5
:101C6C009B00E3580D481968FFF704FD0020A5E719
:101C7C000648A3E73C52000878550008A05B000812
:101C8C008F020000B45B0008545C00080D1B0008B8
:101C9C008D020000ED180008445C0008645C00082C
:101CAC00010030B53039CBB283B0472B03D8584A3A
:101CBC009B00D3589F4601005648FFF7DBFC03B04E
:101CCC0030BD8B00C9188423802501AA49001170EE
:101CDC005149524CC858833B212102F0E3FA636905
:101CEC00AD002B42EBD14E4802F074F8A561E6E74B
:101CFC008423494AD0584B4BC25C023A131C642AC9
:101D0C0000DD82E019B201AA0A2912DB137021212D
:101D1C00012302F0C7FAD2E784233F4AD058414B43
:101D2C00C25C0232131C642A00DD642301AA092B55
:101D3C00ECDC0A23EAE780223B49D203486903041E
:101D4C0013404022824313438B61B8E78423324A09
:101D5C001F21D0580023002202F0A4FAAFE7334829
:101D6C00FFF788FCABE780242B4D002300220C21CD
:101D7C00285902F097FA002300220E21285902F06C
:101D8C0091FA9CE72A492B48FFF774FC97E78423C8
:101D9C00214A1C21D0580023002202F083FA8EE73E
:101DAC0025492648143102F015F8254A254993682F
:101DBC000B4004210B43936081E78025174CAD0049
:101DCC0063692B421CD10023134901AA137084337D
:101DDC00C8582121833B02F065FA70E78823002163
:101DEC000D4AD258184BD15469E702230A4A019381
:101DFC007E33D05807217C3B01AA02F053FA5EE7F0
:101E0C00124801F0E7FFA562DDE764237AE7C046DC
:101E1C00D4520008E45C00080C01002000040050BF
:101E2C00C05C00088E02000000080050745C0008C2
:101E3C00F8590008D45C0008F8540008145A00083B
:101E4C0000240140E8FFFF7FD9140000AC5C0008BF
:101E5C00F0B5DE4657464E464546E0B583B0060023
:101E6C0002AF08000C0002F0BBF905002000012DA8
:101E7C004BD002F0B9F98046200002F0ADF9824651
:101E8C00032D00D180E0200002F0B6F98146042D2C
:101E9C0010D0280002F002F94B46010042464F4890
:101EAC0001F098FFBD4601B0F0BCBB46B246A94656
:101EBC00A046F0BD200002F08FF98146200002F010
:101ECC00A1F90500200002F097F94A460300002A08
:101EDC0044D1022802D12A782F2A7AD01A006946D6
:101EEC000C32D208D2008A1AEB46954602AA9146C9
:101EFC005C1D210048463A4A009502F0D1FC0028AE
:101F0C0001DD84425BD8DD462DE002F071F972B63A
:101F1C00BFF34F8FBFF36F8F324C2500C4352B7836
:101F2C00FF2B44D0210080205A1CC431D2B20A703D
:101F3C002D49C0054D6E406A4866854202D9886EAF
:101F4C0001308866002A14D0C4342370002BA9D128
:101F5C00BFF34F8FBFF36F8F62B6A3E72A00172131
:101F6C00306802F09FF9524641463000FEF73AFFC6
:101F7C0098E71E4A1E491F4801F03CFF2300C4335A
:101F8C001B78013BDBB2DFE741461B4801F022FF27
:101F9C00524641463000FEF725FF51464B1E9941F3
:101FAC00002200233068153102F07CF97AE7A42175
:101FBC00124A1048890001F01DFF2B78B2E78822E5
:101FCC00094983B288584A460021FEF775FFDD4661
:101FDC00C9E76878FFF764FEC5E7C046285D0008CE
:101FEC001C5D00088C0000200C0100209C5900088E
:101FFC009702000040580008FC5C00085859000883
:10200C0070B5204D0400435D002B0ED10A2905D07C
:10201C00C9B2FEF799FE032818D070BD012203390E
:10202C00FEF7E0FE01236355F7E7C9B2FEF78CFE1D
:10203C000028F2D0144BE518280002F0E5F800282F
:10204C0013D029002000FFF703FFE6E70E4BE5183D
:10205C00280002F0D9F800280DD029002000FFF745
:10206C00F7FE0122074BE254D7E7084908487831BC
:10207C0001F0B0FED1E705490548783101F0AAFE20
:10208C00EFE7C046D9140000CC12000078550008C8
:10209C00585D0008112110B50E4A0F48136A8B4386
:1020AC00136280220D4B92009A62DA3AFF3A9A61DF
:1020BC000B490C4B0C315A6801F08CFE0A4C012375
:1020CC0021000A481031237401F084FE237C002B7C
:1020DC00FCD110BD002C0140685D000800040050CC
:1020EC00F855000800ED00E08C010020785D000838
:1020FC00024A5369013353617047C0468C0100207A
:10210C0010B5EFF3058203490348203101F062FE5C
:10211C0010BDC046F8550008A4570008012210B5A0
:10212C00144B19690A421ED0062019689143196094
:10213C00D9688143D9601969013081431961402103
:10214C000D4B99620D4B1B399A6101329A61023227
:10215C009A611C329A619423094AD05800230022B8
:10216C0002F0A0F810BD07491A692C31064801F09D
:10217C0031FEF7E7002C014000080050000400502D
:10218C008C000020F8550008B05D0008022210B544
:10219C00274BD9680A4202D019690A423DD1254918
:1021AC000422234BD868024202D0186902420DD196
:1021BC000B00CE331A881E4B1B6B01339A4213D083
:1021CC001B4B1D491A690A421AD110BD186990435C
:1021DC0018610B00CE331A88013292B21A80144B5C
:1021EC001B6B01339A42EBD194230022C858002375
:1021FC00242102F057F80E4B0F491A690A42E4D019
:10220C001B690E48194001F0E5FDEFF305820C49FE
:10221C000C48203101F0DEFDD7E7196991431961B3
:10222C0004490A00CE32138801331380B8E7C04644
:10223C00002C01408C000020E0FF0C00B05D000879
:10224C00F8550008A4570008F8B580230222DB05D6
:10225C0019690A420FD101211A69114203D01A6976
:10226C008A431A61F8BDEFF305822B492B482031C4
:10227C0001F0B0FDF6E71969294C914319618023EF
:10228C00E66FE75872B6BFF34F8FBFF36F8F250021
:10229C00C4352B78FF2B36D021005A1CC431D2B256
:1022AC000A7080211F4DC905686E496A69668842AB
:1022BC0002D9A96E0131A966002A19D02200C432B4
:1022CC001370002B04D1BFF34F8FBFF36F8F62B627
:1022DC00AB6E6A6E990792080A439B083800B047A8
:1022EC0080228421D205536B61585B185363B9E784
:1022FC000D4A0E490E4801F07DFD2300C4331B78B6
:10230C00013BDBB2DAE7A4210A4A0948890001F053
:10231C0071FD2B78C0E7C046F8550008A45700089B
:10232C008C0000200C0100209C5900089702000032
:10233C00405800085859000870B50C4C2500C4359D
:10234C002B78002B0BD0013BDBB2C4342370002B59
:10235C0004D1BFF34F8FBFF36F8F62B670BD044AC9
:10236C000449054801F046FD2B78ECE78C00002071
:10237C009C590008970200004058000870B572B6CE
:10238C00BFF34F8FBFF36F8F084C2500C4352B78EC
:10239C00FF2B03D00133C434237070BDA421044A35
:1023AC000448890001F026FD2B78F3E78C0000200F
:1023BC005859000840580008102210B50E4BD96827
:1023CC000A4211D119690A4207D1EFF305820B4970
:1023DC000B48203101F0FEFC10BD0A4800211A61A7
:1023EC00883001F023FDF7E706480121DA608830D8
:1023FC0001F01CFDF0E7C04600180240F85500083B
:10240C00A45700088C00002010B5EFF30582034997
:10241C000348203101F0DEFC10BDC046F855000821
:10242C00A4570008102210B51C4B19680A421AD187
:10243C00012219680A4211D18022196892011142B5
:10244C0022D1042219680A4223D1082219680A42AF
:10245C000ED01A60124801F0BDFC03E011481A605E
:10246C0001F0B8FC10BD1A600F4801F0B3FCF9E79D
:10247C0019680E4801F0AEFCEFF305820C490D48CB
:10248C00203101F0A7FCEDE71A600B4801F0A2FC2B
:10249C00E8E71A60094801F09DFCE3E700240140DD
:1024AC00005E0008CC5D0008BC5D00080C5E0008F6
:1024BC00F8550008A4570008D85D0008F45D000822
:1024CC00022310B5134C2268134218D1082322683A
:1024DC00134208D11049226810484C3101F07AFCA3
:1024EC000423636010BD0C4963604C310C4801F04F
:1024FC0071FC01210B4A13680B431360F2E7636014
:10250C00094B94211A005858C6320623803901F021
:10251C00C9FEE7E700000240F8550008285E0008F5
:10252C001C5E0008080002408C00002010B50E4B09
:10253C00DA69920612D4DB691B0607D5B4220B4B61
:10254C000B499858043A9B58984710BDEFF30582F5
:10255C0008490948203101F03DFCF6E70348596A67
:10256C00983001F063FCF0E7004400408C00002040
:10257C0028440040F8550008A457000870B572B6FE
:10258C00BFF34F8FBFF36F8F1D4C2500C4352B78D5
:10259C00FF2B2CD021005A1CC431D2B20A708021DE
:1025AC00184DC905686E496A6966884202D9A96ED8
:1025BC000131A966002A0FD0C4342370002B04D13A
:1025CC00BFF34F8FBFF36F8F62B6A96E686E8B0728
:1025DC0080081843890870BD0B4A0C490C4801F05F
:1025EC0009FC2300C4331B78013BDBB2E4E7A421D4
:1025FC00084A0748890001F0FDFB2B78CAE7C04662
:10260C008C0000200C0100209C590008970200004F
:10261C0040580008585900087047C04610B50B00C8
:10262C00EFF31084012181F310881900FEF7A8F84C
:10263C0084F3108810BDC04610B582B0EFF310843F
:10264C00012181F310886B460122D91D0020FEF771
:10265C0097F884F31088012803D16B46D87902B01F
:10266C0010BD01204042FAE710B5FEF733F810BD5B
:10267C00F0B5DE464E4657464546E0B59BB00AAB34
:10268C0005934023069300230793089301330C0012
:10269C0091469B460290099005E005A8FEF75EF96D
:1026AC000898002859DB2178013400295CD02529B1
:1026BC00F3D12200137800260225082014002139BA
:1026CC002D2B0CD02D2B0ED8232B11D02B2B00D037
:1026DC005FE10E430132137814002D2BF2D15B46CF
:1026EC0001321E43F7E7302B05D12E430132F2E7BE
:1026FC0006430132EFE71A00303A0025092A0DD8BB
:10270C001A00AB005B1901345B009B182278303B3C
:10271C001D001300303B092BF3D913002E2B00D1D5
:10272C00D8E000272378042101E0637801341A00F3
:10273C008A43682AF9D0252B07D0583BDBB2202BD3
:10274C0007D8954A9B00D3589F46252105A8FEF72C
:10275C0005F9089801340028A5DA1BB0F0BCBB467B
:10276C00B246A946A046F0BD08980028F5DD079CA6
:10277C00002C00D0C6E00019EFE74B4649461B6819
:10278C0005A81A1D0A60196810223B0001960095D5
:10279C00FEF71CF901340898DDE74B4649461B68E7
:1027AC0005A81A1D0A6019680A223B0001960095BB
:1027BC00FEF70CF901340898CDE74B4649461B68E7
:1027CC001A1D0A601D6805E005A8FEF7C7F80898F1
:1027DC000028BFDB297801350029F5D10898B9E725
:1027EC004B4649461B6805A81A1D0A601968002348
:1027FC000193083310220093FEF7E8F8013408988F
:10280C00A9E74B4649461B681A1D0A601B68DA1774
:10281C0098180393012350409A4609280DDDAA46C7
:10282C00A0461D000A210400013500F081F9632C3B
:10283C00F8DC2B00444655469A46B846574575D3A6
:10284C00002D36D0039B002B74DB730772D4B307B7
:10285C0001D5002F2DD05B4633422AD1002D28D034
:10286C004346A0461C00AC4220D205A82021FEF70E
:10287C0075F80898013D002800DA87E0002DF2D1A8
:10288C00230044469846039B002B58DB730761D406
:10289C0003233340022B62D005A83B000A22039984
:1028AC0001960095FEF792F8089853E723004446EA
:1028BC00984608980028E6DA01344CE74B4649461E
:1028CC001B6805A81A1D0A601978FEF747F8013431
:1028DC00089840E76378621C19003039140000270F
:1028EC00092900D91FE71A00BB00DB1901345B0072
:1028FC009B182278303B1F001300303B092BF3D977
:10290C00130010E7254B1B78002B15D0EFF3108527
:10291C00012181F31088220002980AA9FDF7A4FF77
:10292C0085F310880898079C001916E7D046002DEF
:10293C00BFD087E7013D8AE7FDF7CCFEE6E75B42B7
:10294C002D2105A80393FEF709F8089800289FDAB3
:10295C00013400E72B2105A8FEF700F8F5E7002F5E
:10296C009AD10AE0A8450CD205A83021FDF7F6FF54
:10297C000898013D002800DAECE6002DF2D1002584
:10298C008AE70898002887DA0134E4E644460134E3
:10299C00E1E60025C5E6C046F4530008A42100205A
:1029AC000023C25C0133002AFBD1581E7047000083
:1029BC0003B47146490840004900095E49008E4441
:1029CC0003BC7047002243088B4274D303098B422B
:1029DC005FD3030A8B4244D3030B8B4228D3030CE3
:1029EC008B420DD3FF22090212BA030C8B4202D385
:1029FC001212090265D0030B8B4219D300E0090AAD
:102A0C00C30B8B4201D3CB03C01A5241830B8B42B5
:102A1C0001D38B03C01A5241430B8B4201D34B039E
:102A2C00C01A5241030B8B4201D30B03C01A524103
:102A3C00C30A8B4201D3CB02C01A5241830A8B4288
:102A4C0001D38B02C01A5241430A8B4201D34B0271
:102A5C00C01A5241030A8B4201D30B02C01A5241D5
:102A6C00CDD2C3098B4201D3CB01C01A5241830989
:102A7C008B4201D38B01C01A524143098B4201D3C3
:102A8C004B01C01A524103098B4201D30B01C01AEE
:102A9C005241C3088B4201D3CB00C01A5241830868
:102AAC008B4201D38B00C01A524143088B4201D395
:102ABC004B00C01A5241411A00D2014652411046F5
:102ACC007047FFE701B5002000F006F802BDC046D4
:102ADC000029F7D076E770477047C04610B500293B
:102AEC0003D100F007F8203002E0080000F002F8F3
:102AFC0010BDC0461C2101231B04984201D3000CBD
:102B0C0010391B0A984201D3000A08391B09984254
:102B1C0001D30009043902A2105C40187047C0466A
:102B2C00040302020101010100000000000000008A
:102B3C0003460B437FD4002243088B4274D3030912
:102B4C008B425FD3030A8B4244D3030B8B4228D3B3
:102B5C00030C8B420DD3FF22090212BA030C8B42D9
:102B6C0002D31212090265D0030B8B4219D300E079
:102B7C00090AC30B8B4201D3CB03C01A5241830BFE
:102B8C008B4201D38B03C01A5241430B8B4201D3AE
:102B9C004B03C01A5241030B8B4201D30B03C01AD7
:102BAC005241C30A8B4201D3CB02C01A5241830A51
:102BBC008B4201D38B02C01A5241430A8B4201D380
:102BCC004B02C01A5241030A8B4201D30B02C01AAA
:102BDC005241CDD2C3098B4201D3CB01C01A524111
:102BEC0083098B4201D38B01C01A524143098B429A
:102BFC0001D34B01C01A524103098B4201D30B0183
:102C0C00C01A5241C3088B4201D3CB00C01A5241A7
:102C1C0083088B4201D38B00C01A524143088B426C
:102C2C0001D34B00C01A5241411A00D20146524105
:102C3C00104670475DE0CA0F00D04942031000D324
:102C4C004042534000229C4603098B422DD3030A79
:102C5C008B4212D3FC22890112BA030A8B420CD389
:102C6C00890192118B4208D3890192118B4204D3B2
:102C7C0089013AD0921100E08909C3098B4201D332
:102C8C00CB01C01A524183098B4201D38B01C01A6C
:102C9C00524143098B4201D34B01C01A52410309E3
:102CAC008B4201D30B01C01A5241C3088B4201D392
:102CBC00CB00C01A524183088B4201D38B00C01A3F
:102CCC005241D9D243088B4201D34B00C01A524116
:102CDC00411A00D20146634652415B10104601D3A3
:102CEC004042002B00D54942704763465B1000D32D
:102CFC00404201B50020FFF7EFFE02BD0029F8D0DD
:102D0C0016E77047002B11D1002A0FD1002900D1F2
:102D1C00002802D00021C943080007B4024802A1D0
:102D2C004018029003BDC046B1FDFFFF03B46846D6
:102D3C0001B5029800F006F8019B9E4602B00CBC4F
:102D4C007047C046F0B557464E464546DE46E0B5A0
:102D5C0004000D009246994683B08B4230D82DD09A
:102D6C0049465046FFF7BAFE290006002000FFF73F
:102D7C00B5FE331A9846203B9B4633D45A465346ED
:102D8C00934042461F00534693401E00AF423AD830
:102D9C00AF4200D178E05B46A41BBD41002B00DAAA
:102DAC0075E0002200230092019301235A469340C0
:102DBC000193012342469340009328E08242CFD9ED
:102DCC0000220023009201930C9B002B01D01C606D
:102DDC005D600098019903B0F0BCBB46B246A946B1
:102DEC00A046F0BD424620239B1A5246DA4041468B
:102DFC0013004A468A40170042461F4353469340ED
:102E0C001E00AF42C4D90022002300920193434616
:102E1C00002BD9D0FB0772081A4346467B080EE0FC
:102E2C00AB4201D1A2420CD8A41A9D410120241915
:102E3C006D410021013E24184D41002E06D0AB42BD
:102E4C00EED9013E24196D41002EF8D1009801995C
:102E5C005B4600196941002B24DB2B005A46444683
:102E6C00D3402A00E2401C005B461500002B2ADBF5
:102E7C0026009E40330026004746BE403200801A92
:102E8C009941009001919FE7A342BCD883E7424649
:102E9C00202300219B1A0022009101920122DA408A
:102EAC00019286E7424620239B1A2A0046469A4006
:102EBC002300F340444613432A00E2401C005B46C7
:102ECC001500002BD4DA42462F0020232600974011
:102EDC009B1ADE403B003343CDE7C0460D48854688
:102EEC00FFF79AFB0C480D490D4A002302E0D45819
:102EFC00C4500433C4188C42F9D30A4A0A4C002338
:102F0C0001E013600432A242FBD301F07DFB00F020
:102F1C000FF8FEE700900020000000206C0000205D
:102F2C005C6000087000002084220020FEE7000096
:102F3C00F0B5DE4657464E464546E0B5B9B000F012
:102F4C003BFF9149914800F045FF0722904B00212F
:102F5C005A63A0240D3215A801F0A5FB0223E40549
:102F6C00189320000E3314A91493FDF707F9149A43
:102F7C00236913409A4206D1864B1B6883F3088859
:102F8C00854B1B6898470323A0269A46159300236C
:102F9C00F60598463000189314A943331493FDF7A3
:102FAC00EDF82023300014A914938024FDF7E6F8E3
:102FBC0043460127794D1793A40002332800159737
:102FCC001693149414A9AC629946FDF7D7F84023D4
:102FDC007348149314A98361FDF7D0F827232800B4
:102FEC001797149314A9AB61FDF7C8F84B461593CA
:102FFC0019934346C02517935346AD001693149569
:10300C003000B56214A9FDF7B9F80C23300014A9EF
:10301C0019971493FDF7B2F880215D4B09065A6D90
:10302C000120920092080A435A655E4ADA635E4AAE
:10303C001A649A6B17439F635C4B1A6815431D60A7
:10304C005B4DFDF721F92B685A4A5B4913401C4331
:10305C002C605A4C23685800C0184000FFF7B2FC93
:10306C0080226B69D2000130134202D105E00028A6
:10307C0003D06B6901381342F9D180214C4A4900C5
:10308C0013680B43136013680B42FCD00221404AB7
:10309C004B4BD365D36D1942FCD0382391680B4050
:1030AC00D168102B01D100F019FC002B01D000F0DD
:1030BC0019FC13684349536819408023DB010B4307
:1030CC005360136840490B40136013683F4A9B04DC
:1030DC005B0FDA4022606068FDF7D6F83C4A0028A6
:1030EC0032D138202A498B680340102B01D100F0D3
:1030FC00AAFD0B683748034080200B60556980049B
:10310C0003E053695B1B022B1ED80B680342F8D1FA
:10311C00CB6831481840314B0343CB60802308689F
:10312C005B0403430B608023C8685B050343CB60DF
:10313C00802155691648890403E053695B1B022BF7
:10314C0002D803680B42F8D00623184908681842C5
:10315C0001D100F0C1FCE0230D49DB018868034379
:10316C008B608B681E4803408B600B689B016AD593
:10317C0007208B681B4D83431800022303438B608D
:10318C003820566934E0C046F8590008385E00080B
:10319C00001002400000FF1F0400FF1F000400503D
:1031AC000008005003000230010812000020024009
:1031BC0000700040FFF9FFFF40420F0000000020AC
:1031CC0009800000FF80FFFFFFC7FFFF0024F40011
:1031DC008C010020FFFFFFFE8C80C111323016469F
:1031EC00FFF0FFFF8813000053699B1BAB422AD8EA
:1031FC008B680340102BF7D10720F4490B68034070
:10320C00022B01D900F0C3FCF14BF2499A680A4039
:10321C009A6038229968114201D000F0A1FC1B6819
:10322C00ED489B045B0FD840E94BEC4A9B681B05AF
:10323C001B0F9B00D3181F229B6E1340D84020609D
:10324C006068FDF721F8E64AE6491368E6480B404A
:10325C001360E64B226819680905090D00F0BAFDE8
:10326C0084201022E24B19589143195004381958F4
:10327C001143195019681143196059680A435A606F
:10328C00DC4B1A68D20307D41A68DB490A401A606F
:10329C00DA6BDA490A40DA638023D64A5B0211689A
:1032AC0001250B4313603F22D54909200B6893433A
:1032BC001A00052313430B60D24BD3491A681140F3
:1032CC00D24A0A43D2491A6099600321D14AC632C4
:1032DC00DA605A68120C12040A435A60CE4A5560DE
:1032EC00022219680A431A60082219680A431A60F4
:1032FC001A6829002A431A60FCF7FEFEC74B9A682D
:10330C002A4207D1DA68C6490A40DA601A69920083
:10331C0092081A618021C14B8903DA680A43DA608A
:10332C008022920119681142FCD007211A605A6957
:10333C008A43110002220A4370215A615A698A4356
:10334C00110050220A430F215A619A6A8A439A62E9
:10335C005A69A4490A405A619A6AF231FF318A4388
:10336C00110010220A4380219A625A6989000A438B
:10337C005A619A6AAB491140C022D2000A4380219B
:10338C009A625A69C9010A435A619A68A64911405E
:10339C00802252050A439A60A4492068FFF712FB69
:1033AC00142343430793079B002B05D0079B013B3A
:1033BC000793079B002BF9D1984B9D499A681140B4
:1033CC00802212060A439A609A68002AFCDB80224B
:1033DC0012011A6020230793079B002B05D0079B33
:1033EC00013B0793079B002BF9D180238B4D9B0549
:1033FC002A69032113432B6111230C206B60FCF70A
:10340C007BFE0121EB68EB68AB680B4200D13BE320
:10341C00884800F0DFFC0127804B87491A6914A803
:10342C00BA431A611A690A401A619A6880490A40BB
:10343C003A439A60774B6422C53318A91F7000F089
:10344C0013FFE220400001F003F9C82201005200F2
:10345C001031050000F008FFD023A420774A5B0050
:10346C00EA508000319501F0F3F801000500C82204
:10347C00103100F0F9FE29002800C822E831D830BC
:10348C00520000F0F1FE0022002334923593882381
:10349C0038219A466A4E06AB5B185246310032957B
:1034AC0028319F54674800F095FC20686649FFF767
:1034BC0089FA8023654ADB05013898625A63102229
:1034CC0002219A611A6A53483A431A62DA6814ADB7
:1034DC000A43DA605E4A4436C26780229346020091
:1034EC005846155084229046FA2245464948120106
:1034FC0042510322586902435A610F201F60FCF7A6
:10350C00FBFD544801F0A4F8534B01009C46534B6F
:10351C00614496229C46050002909200604400F0A3
:10352C0091FCFF224E4B4F49EA54329B7A32FF32C8
:10353C00995004329E501032914649464A4A2068AE
:10354C005A503449723AFF3A8B503F49FFF73AFAD6
:10355C00464E47490138B062B26A1431454800F012
:10356C0039FC454B0021B36111230D203362776088
:10357C00FCF7C2FD00210E20FCF7BEFD4346336074
:10358C0088231B02F7607364319E17223000AD3024
:10359C003A49FF30329F01F0BFF9D2235A465B0003
:1035AC00F7500433F550364B14A999504246329ECD
:1035BC009E5052469D504B46F35C002B00D18DE043
:1035CC00583A94462F4B002799465DE00020024064
:1035DC0000100240FF8FFFFF0024F400F855000894
:1035EC0000700040FFFEFFFF4C5E000800580140D9
:1035FC000018024000740040FFFF03FFFFFFF8FFBC
:10360C0000080240080002400F80FFFFA0250000C8
:10361C00402401408C0000200000024000240140A6
:10362C00C73FFFFFFFF0FFFFE8FFFF6F40420F00B7
:10363C00E8FFFF7F6C5E0008FFFFFFDF1D0B00083B
:10364C0078560008145A000800093D00801A06003C
:10365C0055040008DC140000741000006410000015
:10366C00D5140000FD0A000805020000002C0140E2
:10367C00F8560008885E000868680000945E000830
:10368C000C010020A45E0008D94B9A46D94B634428
:10369C009B469F239B00F3583D019C46654429683B
:1036AC004846019300F096FB6B682D89002D0ED0D7
:1036BC00002204E0013292B20233954207D019780D
:1036CC0058780842F6D05946504600F083FBA323A5
:1036DC009B000137F35CFFB2BB42DAD89E23C64A8B
:1036EC009B00F25000F068FE01003000FEF7F8F885
:1036FC0030008026C14D0F21FCF74CFE6B69B600E3
:10370C00334203D1BE4800F065FBAE6114AABD493B
:10371C0008A800F085FBBC4B883326C826C30321C0
:10372C000720FCF7E9FCD023319EB84A5B00F2502D
:10373C0000F042FE01003000FDF750FED4235B0088
:10374C00F558B34BEB5C7F2B00D8AEE1B14B049337
:10375C00B14B05930023B14A2E60AB54B04AAB5227
:10376C00B04AB14B516D0B4353658B23AF49CB60C2
:10377C000A68AF4B1343C52294460B60A24B6344BB
:10378C0098461B78012B00D999E102211C20FCF7EB
:10379C00B3FC434641461B785A1C0A709C4A5BB2E8
:1037AC009046AB54002B00DA8FE10BAB2A001800CB
:1037BC00A0499A4600F034FB0EAB2A0018009E4933
:1037CC0000F02EFB11AB18002A009C49994600F022
:1037DC0027FB4346EB56012B00D1ECE18C4BEA5610
:1037EC00974B1F000393974B5837180039009B4693
:1037FC0000F0F0FA864BEA569846012A00D107E20F
:10380C003900584600F0E6FA4346EA56012A00D140
:10381C00FEE13900584600F0DDFAD42300215B00AC
:10382C00F258894B8948D15489498825443100F094
:10383C00D1FA884B884E9A46884B9846382206AB6C
:10384C009B185B5D002B77D0329B31001A0018005F
:10385C00019300F06BFD0028F0D1319B51461A000A
:10386C001800019300F062FD0028E7D114AA41462C
:10387C00100000F05BFD071EE0D10121484600F06E
:10388C00C3FA002800D056E172B6BFF34F8FBFF3D6
:10389C006F8F5D4BC4331B78FF2B00D1BEE15A4AAE
:1038AC003298C43213780133137000F0F3FC002803
:1038BC0000D026E1544BC4331B78002B00D149E1D6
:1038CC00514AC4321378013BDBB21370002BB5D1D3
:1038DC00BFF34F8FBFF36F8F62B6AFE70D3B19404D
:1038EC0002291FD04F495E4A0B68802013400B60A1
:1038FC0080230A685B0013435A4A0B605569C00069
:10390C0004E053695B1B022B00D91DE40B680342D6
:10391C00F7D04B68544818408023DB0103434B60BD
:10392C00FFF7DFFB13685049536819408023DB0114
:10393C000B435360FFF7CFFBD025319C6D006659CC
:10394C0000F048FD01002000B047484B4848635147
:10395C0000F040FAD4235B00E4582D4BE256012AC8
:10396C0004D003995846583100F034FAFF228026CF
:10397C00274B224DE2546B69B600329C334203D084
:10398C003C4800F027FAAE629E25AD00665900F067
:10399C0021FD01002000B047374B029A63511C4BAC
:1039AC00D35C7F2B05D89821049A0598490000F028
:1039BC0021FA029800F056FE329800F053FE31982E
:1039CC0000F050FE72B62D4800F004FA00F026FA12
:1039DC0011212B4A136A8B4313628022074B9200EE
:1039EC009A62DA3AFF3A9A61264B19329A62FEE7EA
:1039FC00B45E0008F8560008ED18000800040050EA
:103A0C00C05C00083D0400088C000020E91300088D
:103A1C00D5140000CC5E000848590008D4140000EE
:103A2C00D81400000010024008000C0000440040B4
:103A3C00010000200D200008F10200080903000815
:103A4C007854000880590008D9140000145F00084D
:103A5C00F8540008610B0008B90B0008C9160008DF
:103A6C00FFC7FFFF8C010020FF80FFFF1D0B00082C
:103A7C00385F0008AC5C0008FD0A0008485F0008CD
:103A8C00002C014000080050EB68AF4AEB681A406C
:103A9C00AE4B1343EB60EB689B0200D4BBE4F0230A
:103AAC00AA6A1B021343AB62B5E40A21A84BA94ACC
:103ABC001800FF310492059300F09CF94AE6A648E1
:103ACC0000F088F9FF22A54BEA5411AB9946A44BA0
:103ADC000393A44B9B46A0E6072002230D68854365
:103AEC002B430B605669A04D05E053699B1BAB4201
:103AFC0001D9FFF7A8FB0B680340022BF5D1FFF7A8
:103B0C002AFB319800F0C6FB002800D1D2E614A89D
:103B1C0000F0C0FB002800D1CCE68022934F92002D
:103B2C007B69134200D0E8E00421914A13698B436E
:103B3C00136130BFBEE64B4618788E4B01908C3328
:103B4C0019786C22002970D12F2800D07EE06B3AB6
:103B5C001A7099E6884A8949894800F04BF9AFE612
:103B6C0099681140082900D1DDE0996811401029AD
:103B7C0000D188E099681140202900D1D6E09B68DB
:103B8C001A40182A00D1D5E00020FFF74DFB022384
:103B9C000D6885432B430B605669734D05E05369E3
:103BAC009B1BAB4201D9FFF74EFB0B680340022B6A
:103BBC00F5D1FFF729FB5246724B983383CA83C366
:103BCC00704BA43383CA83C304236F490A6813431D
:103BDC000B604346EB56012B00D0FFE5694AB3332B
:103BEC00D5506849694A043BCA500B004A46B83361
:103BFC0083CA83C3082364490A6813430B60434692
:103C0C00EA56574B0393574B9B46012A00D0E7E5E6
:103C1C0020235D4A11680B431360FEE5A4215C4A26
:103C2C005748890000F0E6F839E6019B0A2B41D091
:103C3C00584800F0CFF80198FEF732F800224D4BAF
:103C4C008C331A7020E6CB68FFF77EFA4948494F4F
:103C5C008D300378FF18B95401990A2909D0013322
:103C6C00DBB20370B954142B00D00DE6494800F0B8
:103C7C00B1F8404948486C3100F0ACF800223D4B9B
:103C8C008D331A7000E6DA68D968D243D8684906D1
:103C9C00490F40040131450E92074FD03F48FEF7C3
:103CAC0091FE68433E4BD968490F0131FEF78AFEFD
:103CBC00FFF7BAFA3B4B3B4819784B1CDBB203704D
:103CCC002C4884462F2061448854142B08D1314849
:103CDC0000F080F83449304800F07CF8314B1F700C
:103CEC000022244F23498D373B786C31CA542A4823
:103CFC0000F070F800223A70A0E7062023682B49E8
:103D0C005843FEF75FFE3B68294A013013403B6085
:103D1C0003E0002800D1CDE5013880227B699200B8
:103D2C001342F6D100E72348FFF77EFA8020000209
:103D3C00FFF77AFAFA20C001FFF776FA1D48FEF772
:103D4C0041FE6843AEE7C0463CC2FEFF03100000D4
:103D5C0048590008CC5E0008E05E0008D51400004D
:103D6C007854000880590008881300000070004047
:103D7C0000ED00E00C0100209C59000897020000A7
:103D8C00405800088C00002000440040110C000832
:103D9C00585900084C5F0008285F00080024F40004
:103DAC0000100240990100207801002040420F00D1
:103DBC00FFBFFFFF00127A0010B5FEF755FC10BDD7
:103DCC0000B583B0019101AA01000020FEF750FC60
:103DDC0003B000BD0FB400B583B004AB02CB01AA95
:103DEC00002000930193FEF743FC03B008BC04B021
:103DFC001847C046130010B50A0001000148FFF730
:103E0C00E9FFFEE78C5F00080A0010B501000020F6
:103E1C00FEF704FCC343DB17184010BD7047C046C7
:103E2C0000238360426001607047C04610B5036890
:103E3C000400002B04D040689847A3680133A360AA
:103E4C0010BDC04601604B1E9941002349421140F0
:103E5C0041608360C360704703009B68C068C01AF0
:103E6C0043425841C0B270470200C368581E936861
:103E7C00C01A536800D5C0187047C046030082684A
:103E8C00C1685B68501A00D5C0187047F0B546463B
:103E9C00D6464F460500C0B5EB688068013B0E0066
:103EAC0014001B1A1ED493421AD31700002F05D1ED
:103EBC002000E0BCBA46B146A846F0BDAB68286805
:103ECC009C463A006044310000F0E4FBAB689C4631
:103EDC006B686744AF609F42EAD10023AB60E7E7B1
:103EEC000020E6E76A6890464344A342F8D30319DE
:103EFC00994627009A42D9D8131A9A462B685246EB
:103F0C009C46604400F0C6FB00234246AB604B4627
:103F1C0056449F1ACAE7C046F8B54746CE4680B508
:103F2C00C6688368050088469C1B0BD4944207D84E
:103F3C002700002C20D13800C0BCB946B046F8BDD3
:103F4C001400F5E7436899464C44944200D9140098
:103F5C00331927009945ECD84B469F1B2B683A0028
:103F6C009919404600F096FB4B46F61AA419B84432
:103F7C0000263F19002CDED0296822004046891902
:103F8C0000F088FBD7E7C046F0B54F464646D6460C
:103F9C00C0B50F008368C168060014005B1A1ED4FC
:103FAC0093421AD31500002D05D12000E0BCBA466F
:103FBC00B146A846F0BDF36831689C462A006144BE
:103FCC00380000F067FBF3689C4673686544F56045
:103FDC009D42EAD10023F360E7E70020E6E7426860
:103FEC0090464344A342F8D30B19994625009A42B4
:103FFC00D9D8531A9A46036852469C4638006144F5
:10400C0000F048FB00234246F3604B4657449D1A90
:10401C00C9E7C04670B501000400861D1D4D1E4841
:10402C0023781B025840082304E0013BDBB280B22A
:10403C00002B09D002B24000002AF6DA013B68409E
:10404C00DBB280B2002BF5D10134A642E8D14B880B
:10405C008A781D0A120215431BD008314D190D4CDC
:10406C00ADB20B781B025840082304E0013BDBB2D5
:10407C0080B2002B09D002B24000002AF6DA013BD4
:10408C006040DBB280B2002BF5D101318BB2AB4278
:10409C00E7D170BD21100000FFFF0000052804D8F7
:1040AC0083001B180248C01870470248FCE7C04642
:1040BC00B05F0008AC5F000870B5040004A800787D
:1040CC004900000108430121014307201840002347
:1040DC00D200024363802371200000230725C9B25C
:1040EC0021706270661D082201304B4004E0013AD9
:1040FC00D2B2DBB2002A09D059B25B000029F6DA41
:10410C00013A6B40D2B2DBB2002AF5D1B04201D0F9
:10411C000178E8E763712000FFF77CFF030AE07188
:10412C00A371200070BDC04670B5040004A840C83F
:10413C004900058820001B010B43D200310023707D
:10414C00627008302A0000F0A5FA2B0AA370002335
:10415C00E570200007252371661D02785340082264
:10416C0004E0013AD2B2DBB2002A09D059B25B00AA
:10417C000029F6DA013A6B40D2B2DBB2002AF5D153
:10418C000130B042E9D163712000FFF743FF030A0D
:10419C00E071A371200070BD70B50023072446792F
:1041AC00451D02785340082204E0013AD2B2DBB23A
:1041BC00002A09D059B25B000029F6DA013A6340B3
:1041CC00D2B2DBB2002AF5D10130A842E9D1F01A03
:1041DC0042425041C0B270BD00788006800F7047DB
:1041EC0000780007400F704740788006400F7047FA
:1041FC004378072018407047827843881202180AC7
:10420C00104370470830704710B50400FFF702FFE9
:10421C00E388A1791B0A09020B43181A4242504148
:10422C00C0B210BDB0B500AF050000F0C3F86A46CF
:10423C00C31DDB08DB00D31A9D460200040069464F
:10424C002800FFF769FE80B2844203D00024BD46EB
:10425C002000B0BD684600F0D7F804002800FFF736
:10426C000DFE8442F2D8F2E770B505000C00160082
:10427C00002905D0320028002100FFF7E3FD70BDB6
:10428C003D21024A0248FFF7B5FDF3E7D05F000875
:10429C00E05F000810B5FFF7DFFD10BD10B5FFF7AC
:1042AC00E3FD10BDF8B5DE4657464E464546E0B533
:1042BC0000AF1E0080468A46914600F07BF86B46A4
:1042CC00C41DE408E4001B1B9D460500801983B245
:1042DC003200514668469B4600F08AF8FEF74EF8CD
:1042EC004046FFF7C1FD002483450DD9FEF724F8A5
:1042FC005B46E01ABD4643425841C0B2F0BCBB46D7
:10430C00B246A946A046F8BD2A0069464046FFF7CA
:10431C00BDFD4B4684B2002BE8D0320049464046E6
:10432C00FFF7B4FD2418A4B2E0E7C046F8B54E463A
:10433C004546DE465746E0B500AF06008946904636
:10434C00FFF770FF0025041E07D1BD462800F0BC06
:10435C00BB46B246A946A046F8BD6A46C31DDB085B
:10436C00DB00D31AEA469D46FEF708F822006946A0
:10437C003000FFF709FE0600B6B2EB46FDF7DCFF96
:10438C00002E01D1D546E0E7684600F03DF88442A6
:10439C0005D159464046C8470125D546D5E72521C4
:1043AC00024A0348FFF726FDF3E7C046F85F000812
:1043BC00E05F00080C20704710B5FEF7DFF8020034
:1043CC000B0003480260436080235B02836010BDD6
:1043DC006022002010B5FEF7D1F802000B00034854
:1043EC000260436080239B02836010BD502200203A
:1043FC0070B504000E001500FEF7C0F86681206051
:10440C0061602581200070BD00890C3080B270473E
:10441C00807A7047008970470C30704710B5042AB9
:10442C0024D012D8012A15D0022A1BD105230370DF
:10443C000023441CC85CE0540133D8B29042F9D339
:10444C000220002A0AD180B210BD082A0AD1072303
:10445C000370EDE7042303700B784370013AD0B27C
:10446C000230F0E7142303700120EDE706230370FC
:10447C00DEE7C046F0B5C6460E0000B5002917D0E1
:10448C00FF23050000240227984601CDFEF788FA89
:10449C0080B280459B415B420233C01801343F1807
:1044AC00E4B2BFB2A642F0D1380080BCB846F0BD31
:1044BC000227F9E7F8B5DE4657464E464546162321
:1044CC00E0B583460370002A38D0013AD2B292008C
:1044DC0091460B1D0E000127994411E002220C237A
:1044EC0092462B7068700A3B020454444146120CED
:1044FC00E8183F19043600F0CDF8BFB2B14512D020
:10450C005B46DD19336818009846FEF749FA84B209
:10451C00FF2CE3D90D2303222B70230AAB70924698
:10452C0003236870E0E7781C80B25A461823D355F1
:10453C00F0BCBB46B246A946A046F8BD02200127F6
:10454C00F3E7C04607280DD9030004220C3B934324
:10455C00DBB2002B09D00D389043C3B20020002BE6
:10456C0006D07047013188B2FBE7023188B2F8E718
:10457C00033188B2F5E7C046F8B5050016001C00FB
:10458C000D2909D80B291BD80439032916D8310059
:10459C00DAB2FFF743FFF8BD103901290ED8FF2B13
:1045AC002AD8102344700370022702202200310005
:1045BC002818E41900F06EF8A0B2ECE70020EAE746
:1045CC001000FEF7EDF984B2FF2C0FD90D232B70E0
:1045DC00230AAB7003270323687002043100120C0A
:1045EC00E818E41900F056F8A0B2D4E70C2302271F
:1045FC002B7068700A3BF0E711230370230A447098
:10460C00837003270320D1E770B500260C4D0D4CA9
:10461C00641BA410A64209D1002600F023FD0A4D0C
:10462C000A4C641BA410A64205D170BDB300EB5814
:10463C0098470136EEE7B300EB5898470136F2E79E
:10464C00546000085460000854600008586000086A
:10465C0010B5034B0100186800F09AF810BDC04665
:10466C000800002010B5034B0100186800F024F876
:10467C0010BDC0460800002030B500240139A2420C
:10468C0001D1002005E0035D01340D5DAB42F6D095
:10469C00581B30BD002310B59A4200D110BDCC5C24
:1046AC00C4540133F8E703008218934200D17047D9
:1046BC0019700133F9E7000070B50500002910D01E
:1046CC000C1F2368002B00DAE418280000F070F9A6
:1046DC001D4A1368002B05D163601460280000F09C
:1046EC006FF970BDA34208D9216860188342F3D1D9
:1046FC0018685B6841182160EEE71A005B68002BB4
:10470C0001D0A342F9D911685018A0420BD12068EE
:10471C000918501811608342E0D118685B68411881
:10472C0011605360DAE7A04202D90C232B60D5E765
:10473C0021686018834203D118685B6841182160B6
:10474C0063605460CAE7C0467022002070B50F4EFB
:10475C000D0031680400002902D100F08FF83060A0
:10476C002900200000F08AF8431C0AD00323C51C42
:10477C009D43A84207D0291A200000F07FF8431C63
:10478C0001D101256D42280070BDC0467422002065
:10479C00F7B50322CB1C9343083306001F000C2BE8
:1047AC0032D20C27B94231D8300000F001F9324D29
:1047BC002B681C00002C2ED139003000FFF7C6FFEF
:1047CC000400431C1ED12C682500002D4AD12368FF
:1047DC002900E3183000019300F050F8019B83424C
:1047EC0043D123680337FF1A03239F4308370C2F49
:1047FC0000D20C2739003000FFF7A8FF431C34D03F
:10480C002368DF19276013E0002BCBDA0C2300257B
:10481C0033602800FEBD2268D11B20D40B2917D988
:10482C00E2192760A34211D12A60636811605360BA
:10483C003000250000F0C4F807220B35231D9543EA
:10484C00EA1A9D42E5D05B1BA350E2E75A60ECE705
:10485C006268A34201D12A60EAE75A60E8E72300C4
:10486C006468A7E72C006D68AFE70C233000336059
:10487C0000F0A6F8CDE7C04670220020002370B5EA
:10488C00064D040008002B6000F0DEFB431C03D136
:10489C002B68002B00D0236070BDC046782200200E
:1048AC000CB430B5174B0C001D689DB0002908DA0C
:1048BC008B2301202B6040421DB030BC08BC02B0E1
:1048CC00184782236A469B0093820023029006902D
:1048DC00994200D04B1E0493079301236A465B4216
:1048EC00D382280021AB209A02A9019300F0D2F8C0
:1048FC00431C01DA8B232B60002CDDD00023029AA1
:10490C001370D9E70800002003000A7801311A70EF
:10491C000133002AF9D17047030030B51D00002A7D
:10492C0006D00C78013A01332C700131002CF5D1F2
:10493C0000219A18934200D130BD19700133F9E768
:10494C0030B5140005001A009BB0002C05DA8B233F
:10495C000360012040421BB030BD822368469B009F
:10496C0083810023009104919C4200D0631E02932A
:10497C000593012369465B42CB8128001E9B00F006
:10498C0089F8431C01DA8B232B60002CE3D0002325
:10499C00009A1370DFE7000007B5009313000A00BC
:1049AC00010002480068FFF7CBFF0EBD0800002095
:1049BC0010B5024800F0F0FA10BDC0467C22002071
:1049CC0010B5024800F0E9FA10BDC0467C22002068
:1049DC00F0B58E6885B007000C00039201939E42DF
:1049EC003CD890238A89DB001A4234D009692368A9
:1049FC0060695B1A029303234343DD0FED18019B9F
:104A0C00029801331B186D10AB4200D91D005305E1
:104A1C0032D529003800FFF7BBFE061E09D10C2346
:104A2C003B6040230120A28940421343A38105B07F
:104A3C00F0BD029A2169FFF72DFEA389144A1A4092
:104A4C0080231343A381029B2661F61826606561BF
:104A5C00019EED1AA560019B9E4200D9019E320079
:104A6C000399206800F0A5FAA36800209B1BA360A3
:104A7C0023689E192660DAE72A00380000F0ACFAA9
:104A8C00061EE0D138002169FFF716FEC7E7C046C5
:104A9C007FFBFFFFF0B5A1B003901D008B890F00C9
:104AAC0016001B0611D50B69002B0ED14021FFF708
:104ABC006FFE38603861002805D10C23039A013849
:104ACC00136021B0F0BD40237B61002308AC63610F
:104ADC00203363761033A376079535002B78002BA3
:104AEC0001D0252B47D1AB1B0593B5420CD032001E
:104AFC0039000398FFF76CFF431C00D1AEE06269EC
:104B0C00059B9446634463612B78002B00D1A5E090
:104B1C00012200235242626004A9543252186E1CC6
:104B2C002360E360A3601370A365052231785448B9
:104B3C0000F034FA751C00281FD12268D30604D566
:104B4C00532304A95B1820211970130704D5532390
:104B5C0004A95B182B21197033782A2B16D0350039
:104B6C0000210A20E3682A786E1C303A092A4ED9B3
:104B7C00002911D117E00135B0E7414B2268C01A6A
:104B8C000123834013432E002360CEE7079B191D9E
:104B9C001B680791002B01DB0B9304E05B42E36085
:104BAC000223134323602B782E2B0AD16B782A2BEC
:104BBC0035D1079B02351A1D1B680792002B2BDB86
:104BCC000993304E03223000297800F0E7F90028D1
:104BDC0006D04023801B8340226801351343236099
:104BEC002978062228486E1C217600F0D7F9002877
:104BFC003CD0264B002B25D10722079B0733934330
:104C0C00083307936369049A9B18636165E7434310
:104C1C00350001219B18A6E701235B42D0E7002356
:104C2C000A201A000135636029786E1C3039092975
:104C3C0003D9002BC5D00992C3E7424335000123A9
:104C4C005218F1E707AB00933A002100104B039880
:104C5C0000E000BF0490049B0133D3D1BB890D98B5
:104C6C005B0600D42DE7012040422AE707AB0093F6
:104C7C003A002100064B039800F07CF8EAE7C046A6
:104C8C00186000081E600008226000080000000088
:104C9C00DD490008F7B5150001938A680B690C0013
:104CAC000090934200DA130022002B6043321278FA
:104CBC00002A01D001332B6023689B0602D52B6898
:104CCC0002332B602268062317001F401A4227D09C
:104CDC00230043331B785A1E93412268920630D42A
:104CEC00220001990098089E4332B047431C25D0FE
:104CFC00062320682A68E16800250340042B03D1B1
:104D0C008D1AEB43DB171D40A3682269934201DD2A
:104D1C009B1AED180027BD4220D1002010E001376E
:104D2C00E3682A689B1ABB42D2DD22000123019959
:104D3C000098089E1932B047431CF0D10120404224
:104D4C00FEBD3020E1184331087021005A1C45315A
:104D5C000978A218433202331170C1E722000123F3
:104D6C0001990098089E1A32B047431CE6D00137CF
:104D7C00D1E70000F0B58BB006920A0043320793DE
:104D8C00059004920A7E0C00109B782A07D8622AA0
:104D9C0009D8002A00D1C1E0582A00D18CE02600A5
:104DAC004236327022E0100063381528F7D8FDF730
:104DBC00FFFD16001F00F6FFF6FFF6FFF6FF1F00C3
:104DCC00F6FFF6FFF6FFF6FFA80036009A00F6FF96
:104DDC00F6FFB900F6FF3600F6FFF6FF9E00260040
:104DEC001A684236111D1960136833700123A7E04D
:104DFC00086819680A1D05060BD50D681A60002D88
:104E0C0003DA2D23049A6D421370614B0A27039326
:104E1C001BE00D681A604106F1D52DB2EFE70D6865
:104E2C001968081D18602E0601D50D6803E06D0683
:104E3C00FBD50D68ADB2564B082703936F2A00D0F3
:104E4C0002372300002243331A706368A360002BDF
:104E5C0003DB0422216891432160002D02D1049EC2
:104E6C00002B0CD0049E28003900FDF731FE039B6B
:104E7C00013E5B5C33702B0005009F42F3D9082F79
:104E8C0009D12368DB0706D563682269934202DCEB
:104E9C003023013E3370049B9B1B2361079B210035
:104EAC0000930598069B09AAFFF7F4FE431C4CD10E
:104EBC00012040420BB0F0BD45310A70344A0392D8
:104ECC001A68216820CA1A60080616D5CB0702D5C5
:104EDC002023194321601027002DB2D120232268F2
:104EEC009A432260ADE7202209680A43226022001F
:104EFC00782145321170274AE1E74806E6D5ADB274
:104F0C00E4E71A680D68101D4969186013682E06CD
:104F1C0001D5196002E06D06FBD519800023049EB3
:104F2C002361BBE71A68111D196016680021300057
:104F3C00626800F033F8002801D0801B6060636861
:104F4C0023610023049A1370A8E7236932000699A1
:104F5C000598079DA847431CAAD023689B0715D426
:104F6C00099BE0689842A5DA1800A3E72200012308
:104F7C0006990598079E1932B047431C98D0013505
:104F8C00E368099A9B1AAB42F0DCE9E70025F7E7E6
:104F9C00296000083A60000870477047C9B282184F
:104FAC00904201D10020704703788B42FBD0013036
:104FBC00F6E710B5884202D98B18984203D3002328
:104FCC0007E08B5C8354013AFBD210BDCC5CC4541B
:104FDC0001339A42FAD1F8E7F7B507000E00140036
:104FEC00002905D11100FFF7D3FB05002800FEBDF9
:104FFC00002A03D1FFF760FB2500F7E700F01BF850
:10500C000190844203D835004308A342EED321001B
:10501C003800FFF7BDFB051EE8D0019B22009C4227
:10502C0000D91A0031002800FFF734FB310038009A
:10503C00FFF742FBDAE70B1F1B68181F002B01DA86
:10504C000B58C01870470000044A03001068002871
:10505C0002D0C318136070470148FAE78022002081
:10506C0088220020F8B5C046F8BC08BC9E467047A4
:0C507C00F8B5C046F8BC08BC9E46704762
:1050880064130008641300087E11000898110008D2
:10509800C811000848120008EE1200084C13000856
:1050A800161300082E13000856110008AC15000846
:1050B8008E150008641500082A150008C815000890
:1050C800521800083C1800083C1800083C18000852
:1050D8003C1800083C1800083C1800083C18000858
:1050E800CA1800083C1800083C180008A018000856
:1050F80018180008BA1800083C1800083C180008DE
:105108003618000806190008481900086819000828
:1051180006190008061900080619000806190008EB
:1051280006190008061900080619000806190008DB
:1051380006190008061900080619000806190008CB
:1051480006190008061900080619000806190008BB
:1051580006190008061900080619000806190008AB
:10516800061900080619000806190008121900088F
:10517800061900080619000806190008121900087F
:10518800061900080619000806190008761900080B
:105198000619000806190008381A0008241B000818
:1051A800321B0008581B0008241B0008241B000899
:1051B800241B0008241B0008241B0008241B0008CB
:1051C800241B0008241B0008241B0008241B0008BB
:1051D800241B0008241B0008241B0008241B0008AB
:1051E800241B0008241B0008241B0008241B00089B
:1051F800241B0008241B0008241B0008241B00088B
:10520800241B0008241B00082E1B0008241B000870
:10521800241B00082E1B0008241B0008241B000860
:10522800241B0008241B0008541B0008241B00082A
:10523800661B0008C01B0008CA1B0008EA1B000800
:10524800C01B0008C01B0008C01B0008C01B0008CA
:10525800C01B0008C01B0008C01B0008C01B0008BA
:10526800C01B0008C01B0008C01B0008C01B0008AA
:10527800C01B0008C01B0008C01B0008C01B00089A
:10528800C01B0008C01B0008C01B0008C01B00088A
:10529800C01B0008C01B0008C01B00087C1C0008BD
:1052A800C01B0008C01B0008C01B0008F81B000832
:1052B8000A1C00082C1C0008C01B0008C01B0008A2
:1052C800C01B0008C01B00084E1C0008C61D0008B3
:1052D800CE1C0008CE1C0008CE1C0008CE1C0008FE
:1052E800CE1C0008CE1C0008CE1C0008CE1C0008EE
:1052F800CE1C0008C21C0008C21C0008C21C000802
:10530800C21C0008C21C00086A1D0008C21C000854
:10531800C21C0008C21C0008C21C0008C21C0008ED
:10532800C21C0008C21C0008C21C0008C21C0008DD
:10533800C21C0008C21C0008C21C0008C21C0008CD
:10534800C21C0008C21C0008C21C0008C21C0008BD
:10535800C21C0008C21C0008C21C0008C21C0008AD
:10536800C21C0008C21C0008C21C0008C21C00089D
:10537800C21C0008C21C0008C21C0008C21C00088D
:10538800C21C0008C21C0008C21C0008C21C00087D
:10539800AC1D0008721D0008C21C0008FC1C000897
:1053A800C21C0008C21C0008C21C0008C21C00085D
:1053B800C21C0008C21C0008C21C0008421D0008CC
:1053C800C21C0008581D0008C21C0008C21C0008A6
:1053D800F61D0008C21C00089A1D0008C21C00081F
:1053E800241D0008901D0008E81D000886270008F5
:1053F8005E2700085E2700085E2700085E27000871
:105408005E2700085E2700085E2700085E27000860
:105418005E2700085E270008C82800080E28000834
:105428005E2700085E2700085E2700085E27000840
:105438005E2700085E2700085E2700085E27000830
:105448005E2700085E2700085E270008EC27000892
:105458005E2700085E270008C62700085E270008A8
:10546800A62700085E2700085E2700088627000890
:105478006173736572745F6661696C6564000000CE
:1054880072784572726F7243616C6C6261636B0013
:1054980074784572726F7243616C6C6261636B0001
:1054A8003031323334353637383941424344454652
:1054B80073746174654E6F700000000073746174DA
:1054C800654E6F70000000004253505F646F436880
:1054D800616E6E656C416374696F6E0073656E64AE
:1054E800537461747573526573706F6E73650000E1
:1054F8004174747269627574655F61776169745229
:10550800656164004253505F7472696767657241F0
:105518004443000068616E646C655265616452655D
:105528007175657374000000737461746552656108
:10553800647900005075736820746865206275741A
:10554800746F6E20746F20706C6179206F72207098
:1055580061757365203A2D290A00000068616E6440
:105568006C6557726974655265717565737400006E
:1055780068616E646C65496E766F6B6552657175AE
:105588006573740068616E646C65526571756573E6
:105598007400000064697370617463684576656EB1
:1055A80074000000737461746543616E6F707900F4
:1055B800737461746549646C650000007374617488
:1055C8006553747265616D696E6700007374617408
:1055D8006550756C73696E670000000073746174C0
:1055E800655061757365640068616E646C65496EC9
:1055F800636F6D696E674672616D650048617264BC
:105608004661756C745F48616E646C657200000079
:1056180073707572696F75734952510054494D31F1
:105628005F42524B5F55505F5452475F434F4D5F47
:1056380049525148616E646C65720000444D4131B5
:105648005F4368616E6E656C315F49525148616EA7
:10565800646C65720000000000000000000000009B
:105668000000000000000000000000000000000032
:10567800000000000000000001000000020000001F
:1056880003000000040000000600000007000000FE
:1056980008000000090000004253505F7265676906
:1056A8007374657241707054696D657248616E6497
:1056B8006C657200505F00089457000802007D0373
:1056C800C80000005C5F00088C5700080400320521
:1056D8002C010000645F00088457000804001405CA
:1056E800C8000000705F00086057000812001E091B
:1056F80028000000785F0008485700080C00080BD5
:10570800881300004253505F72656769737465724D
:1057180050756C736544656C65676174650000005D
:105728005061747465726E4974657261746F725FEA
:10573800636865636B5061747465726E0000000085
:105748000102020101020201040808040408080415
:1057580001020408020108040102020504020A0405
:105768000408080501080A01050A020105020204E5
:10577800040A080405080801010A0A0501080204C8
:10578800040208010102040802010804050A0A05C6
:1057980025732825732C202575290A0025732825AB
:1057A80075290A0043616E63656C6C696E672073C6
:1057B8007562736372697074696F6E20666F7220A8
:1057C80069643D2568750A0053657474696E6720BD
:1057D800696E74656E7369747920746F20256868C2
:1057E8007525250A0000000053657474696E6720EA
:1057F8005663617020746F20256875206D560A0005
:1058080053657474696E672070756C736520776969
:1058180064746820746F202568687520C2B5730A9F
:105828000000000062757273742D3E706163655FDD
:105838006D73203E3D2035007372632F6273705F75
:1058480073746D3332673037312E6300627572734B
:10585800742D3E70756C73655F77696474685FC298
:10586800BC5FC2B57320213D2030000062757273A1
:10587800742D3E6E725F6F665F70756C7365732012
:10588800213D20300000000028656C636F6E5B309E
:105898005D202620656C636F6E5B315D29203D3D80
:1058A800203000007372632F73657175656E6365D0
:1058B800722E63005465726D696E616C00000000A1
:1058C800525454005345474745520000536571757B
:1058D800656E6365725F257320756E6578706563A4
:1058E800746564206576656E743A2025750A000033
:1058F800436F6E74726F6C6C65725F257320756E82
:105908006578706563746564206576656E743A20A1
:1059180025750A007366203D3D204E554C4C00000D
:105928007372632F636F6E74726F6C6C65722E6323
:10593800000000006E6272203D3D20310000000032
:105948007372632F646174616C696E6B2E630000FF
:105958006273702E637269746963616C5F736563E7
:1059680074696F6E5F6C6576656C20213D205543C8
:105978004841525F4D4158002573282575293A2022
:10598800756E6B6E6F776E206465766963652069E6
:10599800640A00006273702E637269746963616CD3
:1059A8005F73656374696F6E5F6C6576656C2021E3
:1059B8003D2030004672616D65207061796C6F61C1
:1059C8006420746F6F206269673A202568752062C9
:1059D80079746573000000002573202568752066BA
:1059E8006F7220617474722069643D2568750A00BD
:1059F80076302E34342D626574610000257320667C
:105A08006F722069643D2568750A000025730A00D5
:105A180025733A20756E6B6E6F776E2061747472A1
:105A280069627574652069643D2568750A0000001F
:105A3800436F6E74726F6C6C65725F257320454E90
:105A48005452590A00000000436F6E74726F6C6CF8
:105A580065725F257320455849540A007265616470
:105A6800000000005472616E73616374696F6E2088
:105A78002568753A2025732061747472696275749B
:105A880065202568750A0000777269746500000052
:105A980073746F700000000070617573650000001A
:105AA800426F78206E616D652073657420746F2075
:105AB800272573270A000000737562736372696291
:105AC8006520746F00000000696E766F6B650000DA
