:020000040800F2
:1000000000900020E92E0008392F0008350B000869
:1000100000000000000000000000000000000000E0
:10002000000000000000000000000000392F000860
:100030000000000000000000392F0008910B0008AC
:10004000392F0008392F0008392F0008392F0008F0
:10005000A10B0008392F0008392F0008810D000876
:10006000392F0008910E0008392F0008392F000899
:10007000F50D0008BD0B0008250C0008D10C000888
:10008000392F0008D90D0008392F0008392F000832
:10009000392F0008392F0008392F0008392F0008A0
:1000A000392F0008392F0008392F0008392F000890
:0C00B000E50E0008392F0008392F000869
:1000BC0010B5064C2378002B07D1054B002B02D032
:1000CC00044800E000BF0123237010BDE0010020B4
:1000DC000000000080670008044B10B5002B03D013
:1000EC000349044800E000BF10BDC04600000000FA
:1000FC00E401002080670008F0B50124C02384408F
:10010C000B4D5B00EC500700830803203840FF27A1
:10011C00AC46C026C0008740890181409B006344E7
:10012C00B6009A59BA430A439A512C60F0BDC046A6
:10013C0000E100E0FA21054A8900138801339BB2E3
:10014C008B4200D1002313807047C046FC01002075
:10015C00F0B501224F46D64646460B680024914620
:10016C00C0B5002B1AD14BE0170057437B00DB19AD
:10017C00DB43C568AC4666460D691E407D4335437E
:10018C00C5604D68022D2DD07D43026813402B4372
:10019C0003600B681A000134E24031D04D461A005E
:1001AC00A5402A402B42F5D04B68013B012BDBD8F4
:1001BC001700574383688D6898467B009C467D43A7
:1001CC00BC44AA4646466546AE4335005646634691
:1001DC002E438660CE684568564395433543DB43D2
:1001EC004560C6E7FF2A10D83D007D43026A2E0108
:1001FC00761BB2434E6975432A4302624D68C3E7CE
:10020C00E0BCBA46B146A846F0BD120A524352436E
:10021C00456A1601B61AB5434E6972432A434262C7
:10022C004D68B1E7032310B5104C114A236163618B
:10023C00104BA261E3618023DB0023620023A362E5
:10024C006362E36222660C4A0C4904326266102235
:10025C00E01DA2662367E366636704F0DBF9200008
:10026C00074904F0D7F92023A37110BD9006002094
:10027C00F469000890020020FC010020006A0008CC
:10028C00046A0008F8B54746CE4680B58368C56851
:10029C0099465B1B9846436804000E0017005819DA
:1002AC00904507D9ED1903F041FCE560C0BCB94697
:1002BC00B046F8BD424603F039FC4B463100ED190F
:1002CC00ED1A2A006068414403F030FCE560EDE76C
:1002DC00F8B557464E46DE4645468946411CE0B5C4
:1002EC0017004A0052180300D2009246344A5E00AE
:1002FC0093461000F618F6005E44F36A5044984694
:10030C00012B0CD0022B27D0002B17D000239846A2
:10031C004046F0BCBB46B246A946A046F8BDB36AFF
:10032C00726A934247D9013B9B1AB8469F4200D947
:10033C00984642464946FFF7A5FFE9E7B36A726A59
:10034C00934233D9013B9B1A9F42E1D83A0049466C
:10035C00FFF798FFB846DBE70023746A98461DE068
:10036C00013B356A1B1BBB4200D93B002D1B9D4238
:10037C0000D91D005B46534458682A0049460019B1
:10038C0003F0D4FB336A6419E31A5A1E93415B429F
:10039C001C40A844A9447F1B7462B9D0B36AA34221
:1003AC00DED8356A5B19013B1B1BDCE7316A5B1835
:1003BC00013B9B1AC8E7316A5B18013B9B1AB4E7F7
:1003CC0090060020F0B5C64600B5856843686A1CE7
:1003DC0004009A4207D8036859551500C368826017
:1003EC000133C36043689D4202D080BCB846F0BD67
:1003FC002368276998460E4B1B78002B15D0EFF31A
:10040C001086012181F310882A0041463800FFF73D
:10041C005FFF86F31088A368834203D001235B42FD
:10042C00E360E2E70023A360DFE7FFF7FBFEE6E70C
:10043C0090060020F8B54E464546DE465746E0B5D8
:10044C001D000A9B80460E0014009946914200D272
:10045C0072E008000127210000F088FD013784427A
:10046C00F9D9BA46AF4200D2AA4601230B9A1A40D8
:10047C0093460B9A134243D14B46002B40D01300AA
:10048C0020279B0753D4CA453AD201235B429C4692
:10049C0039004046E144FFF795FF4346DB68002BEB
:1004AC0028DB4B46002BEED10127012D03D9013D52
:1004BC006743012DFBD83900300000F057FD844212
:1004CC00F6D91E4D06E02100380000F04FFDA74282
:1004DC000DD307003000390000F0CEFD0E00295C72
:1004EC004046FFF76FFF4346DB68002BEBDA5B46B9
:1004FC00002B18D1F0BCBB46B246A946A046F8BDAD
:10050C004346DB68002BCFDAF4E7CA45F2D201236D
:10051C005B429C4620214046E144FFF753FF434693
:10052C00DB68002BE6DB4B46002BEED1E2E76F429B
:10053C006F413F012037A6E7012792E71C680008AE
:10054C000FB4F0B5DE46574645464E46E0B59BB077
:10055C0024AB10CB984604930AAB05934023069327
:10056C00002307930993089301339A46BD4B9B468E
:10057C0005E005A8FFF726FF0898002860DB217826
:10058C000134002966D02529F3D1220013780026E6
:10059C0002250820140021392D2B0CD02D2B0ED820
:1005AC00232B11D02B2B00D069E10E430132137891
:1005BC0014002D2BF2D1534601321E43F7E7302B9A
:1005CC0005D12E430132F2E706430132EFE71A0060
:1005DC00303A0025092A0DD81A00AB005B190134FA
:1005EC005B009B182278303B1D001300303B092B1D
:1005FC00F3D913002E2B00D1C9E000272378042156
:10060C0001E0637801341A008A43682AF9D0252B5B
:10061C0000D1D4E0583BDBB2202B0DD85A469B00BE
:10062C00D3589F46434602CB0A22984601963B007C
:10063C00009505A8FFF7FEFE0898013400289EDA05
:10064C001BB0F0BCBB46B246A946A046F0BC08BCE9
:10065C0004B0184708980028F2DD079C002C00D045
:10066C00B4E00019ECE7434602CB05A898461022EB
:10067C003B0001960095FFF7DDFE01340898DDE79D
:10068C00464620CE06E005A8FFF79CFE08980028F9
:10069C0000DAB5E0297801350029F4D1B046089884
:1006AC000134CBE74546002302CD0193083305A85E
:1006BC0010220093FFF7BEFEA84608980134BDE750
:1006CC00434604CB0293D317D0185840012303920E
:1006DC00984609280CDDA946A0461D000A210400F5
:1006EC00013500F0CDFC632CF8DC4446A8464D46A1
:1006FC00B946474500D27DE0002D37D0039B002B37
:10070C0000DA7BE0730779D4B30701D5002F2DD025
:10071C00534633422AD1002D28D0A0464C46AC4239
:10072C0022D205A82021FFF74DFE0898013D002894
:10073C0000DA9BE0002DF2D1A1464446039B002B2E
:10074C0064DB73076FD403233340022B70D03B0060
:10075C0005A80A22039901960095FFF76BFE029BF0
:10076C0008989846013469E7A1464446029B0898CC
:10077C0098460028E2DA013460E7454602CD05A828
:10078C00C9B2FFF71FFEA8460898013456E76378F4
:10079C00621C1900303914000027092900D92EE7F2
:1007AC001A00BB00DB1901345B009B182278303B2C
:1007BC001F001300303B092BF3D913001FE705A8CA
:1007CC002521FFF7FFFD0134089837E7264B1B78EE
:1007DC00002B18D0EFF31085012181F31088002035
:1007EC0022000AA9FFF774FD85F310880898079C6E
:1007FC00001925E7C146002DB8D07FE7013D83E7FE
:10080C00B04601341AE7FFF70DFDE3E75B422D21FB
:10081C0005A80393FFF7D6FD029B0898984600287D
:10082C0091DA01340AE72B2105A8FFF7CBFDF3E79A
:10083C00002F8CD109E0A9450BD205A83021FFF778
:10084C00C1FD0898013D002815DB002DF3D10025D2
:10085C007DE7029B08989846002800DB77E7013477
:10086C00ECE6C04698670008900600204446029BC0
:10087C0001349846E2E6029B01349846DEE60025F8
:10088C00BBE6C04610B51124020009480B00016AF2
:10089C00A14301628020074980008862DA38FF3862
:1008AC008861054905481031FFF74AFEFEE7C0464E
:1008BC00002C0140000400501C6800080C6A000861
:1008CC00FA2170B5124C05008900206800F04EFB2F
:1008DC00802301385B04984201D3012070BDC021F4
:1008EC000C4A090650600C48036A1B021B0A0B4396
:1008FC0003620721002393601160032DEDD8026A77
:10090C00A9071202120A0A43026218006560E5E7A1
:10091C000000002010E000E000ED00E0044910B5FC
:10092C00203104000348FFF70BFE0023237010BD99
:10093C001C680008186A000810B50A000249034830
:10094C003431FFF7FDFD10BD1C6800081C6A00085F
:10095C0010B50A00024903484431FFF7F1FD10BD00
:10096C001C6800081C6A000802000B0010B5024944
:10097C000248FFF7E5FDFEE7246A0008386A000824
:10098C004022F8B50400374B0D009A61364B3F3AC4
:10099C009A6201329A6202329A621C329A6201782D
:1009AC003248FFF7CDFD6078032839D92678002E20
:1009BC0031D0A778002F50D04201121A93019B1A04
:1009CC00DB001818FA2380019B04984243D2FA21C9
:1009DC00890000F0CBFA01380021254B013FD86289
:1009EC0006201F6359621A69013E82431A61002D69
:1009FC001AD05E63DA6804380243DA606822012494
:100A0C001C4881525869204358611A6822431A6065
:100A1C0059639963F8BDD72017498000FFF7A4FFED
:100A2C0016491748FFF7A0FF04219E63DA680120DE
:100A3C000A43DA6068220F498D52596901435961A2
:100A4C001A6802431A605D639D632378C72BE1D853
:100A5C0004332370DEE70B48BEE70B490B48FFF766
:100A6C0083FFC0460008005000040050586A00087C
:100A7C00002C0140FC010020846A0008746A000804
:100A8C005B030000FEFF00009C6A00085D03000091
:100A9C000A0010B50A2905D00A490B486831FFF73E
:100AAC004FFD10BDC823C256012A05D00549074881
:100ABC005431FFF745FDF4E78021054A13680B43D9
:100ACC001360EEE71C680008CC6A0008B06A0008E6
:100ADC000044004070B5104D0C00AB681A78002A29
:100AEC0003D00133AB600A7070BDC823C256012A13
:100AFC000AD00A4E0A4831005431FFF721FD0A236F
:100B0C0074362370AE60EFE78021064A034E1368FB
:100B1C008B431360F3E7C046000000201C680008FC
:100B2C00B06A000800440040112110B50E4A0F486D
:100B3C00136A8B43136280220D4B92009A62DA3A4D
:100B4C00FF3A9A610B490C4B7C315A68FFF7F8FC61
:100B5C0001230A4C0A48211D2371FFF7F1FC23796C
:100B6C00002BFCD110BDC046002C0140D86A0008F7
:100B7C00000400501C68000800ED00E07C0200201E
:100B8C00E86A0008024A9368013393607047C046D4
:100B9C007C02002010B5EFF30582034903481031A5
:100BAC00FFF7CEFC10BDC0469C6800081C6A00080C
:100BBC00012210B5124B19690A4219D00620196886
:100BCC0091431960D9688143D96019690130814317
:100BDC00196140210B4B0C4899620C4B9A61013204
:100BEC009A6102329A611C329A61FFF7A9FC10BD1E
:100BFC0007491A691C310748FFF7A2FCF7E7C04602
:100C0C00002C014000080050206B0008000400502C
:100C1C009C680008346B00086822022110B5224C35
:100C2C00A35A0133A352214BD868014202D0186950
:100C3C00014230D104221D4BD9680A4202D01969F5
:100C4C000A421FD16822194BA25A1B6B01339A42DC
:100C5C000BD0164B16491A690A4200D110BD1B69FC
:100C6C0014481940FFF76CFCF8E74022124B9A62CB
:100C7C00A36A002BEDD00121E06A9847236B013366
:100C8C002363E6E719690D48914319616823E15A1A
:100C9C00FFF756FCD6E7186988431861A15A084833
:100CAC00FFF74EFCC6E7C046FC010020002C0140BB
:100CBC00E0FF0C00346B0008000800504C6B00087F
:100CCC00406B00088023022270B5DB0519690A42CB
:100CDC000FD101211A69114203D01A698A431A6192
:100CEC0070BDEFF305821D491D481031FFF728FC3C
:100CFC00F6E719691B4C91431961656972B6BFF32C
:100D0C004F8FBFF36F8F5E32A15CFF2921D0481C3F
:100D1C00A054154A5B6AD068D360984202D9136913
:100D2C00013313616023E154002904D1BFF34F8FC9
:100D3C00BFF36F8F62B61169D0688B0780081843B8
:100D4C008908A8478022D205536BA1695B185363AD
:100D5C00C6E706490648FFF707FEC0469C68000830
:100D6C001C6A0008FC0100207C020020586B000863
:100D7C00B2020000102210B5104BD9680A4216D1ED
:100D8C0019690A420BD00E4C1A61E369002B0DD085
:100D9C000021206A9847636A0133636206E0EFF32F
:100DAC000582084908481031FFF7CAFB10BD044CF6
:100DBC00DA60E369002BF9D00121EAE70018024060
:100DCC00FC0100209C6800081C6A000810B5EFF3B9
:100DDC000582034903481031FFF7B2FB10BDC04632
:100DEC009C6800081C6A0008102210B51C4B19687E
:100DFC000A421AD1012219680A4211D180221968BB
:100E0C009201114222D1042219680A4223D10822EC
:100E1C0019680A420ED01A601248FFF791FB03E0E2
:100E2C0011481A60FFF78CFB10BD1A600F48FFF7D2
:100E3C0087FBF9E719680E48FFF782FBEFF3058291
:100E4C000C490D481031FFF77BFBEDE71A600B489E
:100E5C00FFF776FBE8E71A600948FFF771FBE3E759
:100E6C0000240140C46B0008906B0008806B0008E4
:100E7C00D06B00089C6800081C6A00089C6B00087A
:100E8C00B86B0008022310B50E4C2268134217D120
:100E9C000823226813420BD00B4963603C310B488A
:100EAC00FFF74EFB01210A4A13680B43136008E05D
:100EBC000549226807483C31FFF742FB01235B429E
:100ECC00636010BD000002409C680008E06B0008E5
:100EDC0008000240EC6B000810B5104BDA69920662
:100EEC0010D4DB691B0605D50D4B0E49186DDB6C58
:100EFC00984710BDEFF305820B490C481031FFF7F2
:100F0C001FFBF6E7064C596A636B002BF1D0A06B04
:100F1C009847E36B0133E363EBE7C04600440040C2
:100F2C00FC010020284400409C6800081C6A000852
:100F3C007047C0460023C25C0133002AFBD1581E07
:100F4C007047000002B4714649084900095C490029
:100F5C008E4402BC7047C04603B471464908400039
:100F6C004900095E49008E4403BC704700224308C7
:100F7C008B4274D303098B425FD3030A8B4244D355
:100F8C00030B8B4228D3030C8B420DD3FF22090297
:100F9C0012BA030C8B4202D31212090265D0030B56
:100FAC008B4219D300E0090AC30B8B4201D3CB034C
:100FBC00C01A5241830B8B4201D38B03C01A52418E
:100FCC00430B8B4201D34B03C01A5241030B8B4290
:100FDC0001D30B03C01A5241C30A8B4201D3CB027B
:100FEC00C01A5241830A8B4201D38B02C01A524160
:100FFC00430A8B4201D34B02C01A5241030A8B4263
:10100C0001D30B02C01A5241CDD2C3098B4201D37A
:10101C00CB01C01A524183098B4201D38B01C01AF8
:10102C00524143098B4201D34B01C01A524103096F
:10103C008B4201D30B01C01A5241C3088B4201D31E
:10104C00CB00C01A524183088B4201D38B00C01ACB
:10105C00524143088B4201D34B00C01A5241411AF2
:10106C0000D20146524110467047FFE701B50020FF
:10107C0000F0F0F802BDC0460029F7D076E77047C3
:10108C0003460B437FD4002243088B4274D30309DD
:10109C008B425FD3030A8B4244D3030B8B4228D37E
:1010AC00030C8B420DD3FF22090212BA030C8B42A4
:1010BC0002D31212090265D0030B8B4219D300E044
:1010CC00090AC30B8B4201D3CB03C01A5241830BC9
:1010DC008B4201D38B03C01A5241430B8B4201D379
:1010EC004B03C01A5241030B8B4201D30B03C01AA2
:1010FC005241C30A8B4201D3CB02C01A5241830A1C
:10110C008B4201D38B02C01A5241430A8B4201D34A
:10111C004B02C01A5241030A8B4201D30B02C01A74
:10112C005241CDD2C3098B4201D3CB01C01A5241DB
:10113C0083098B4201D38B01C01A524143098B4264
:10114C0001D34B01C01A524103098B4201D30B014D
:10115C00C01A5241C3088B4201D3CB00C01A524172
:10116C0083088B4201D38B00C01A524143088B4237
:10117C0001D34B00C01A5241411A00D201465241D0
:10118C00104670475DE0CA0F00D04942031000D3EF
:10119C004042534000229C4603098B422DD3030A44
:1011AC008B4212D3FC22890112BA030A8B420CD354
:1011BC00890192118B4208D3890192118B4204D37D
:1011CC0089013AD0921100E08909C3098B4201D3FD
:1011DC00CB01C01A524183098B4201D38B01C01A37
:1011EC00524143098B4201D34B01C01A52410309AE
:1011FC008B4201D30B01C01A5241C3088B4201D35D
:10120C00CB00C01A524183088B4201D38B00C01A09
:10121C005241D9D243088B4201D34B00C01A5241E0
:10122C00411A00D20146634652415B10104601D36D
:10123C004042002B00D54942704763465B1000D3F7
:10124C00404201B5002000F005F802BD0029F8D09D
:10125C0016E770477047C0468446100062468C46BD
:10126C001900634600E0C0461FB500F00DFF0028D2
:10127C0001D40021C8421FBD10B500F05DFE4042F4
:10128C00013010BD10B500F0FFFE002801DB00207E
:10129C0010BD012010BDC04610B500F0F5FE0028B1
:1012AC0001DD002010BD012010BDC04610B500F0BE
:1012BC0085FE002801DC002010BD012010BDC046B9
:1012CC0010B500F07BFE002801DA002010BD0120D3
:1012DC0010BDC046F0B54F464646D6460D0004003C
:1012EC00C0B51F0011002803620F400A10437A009A
:1012FC00520DE3003C039146640AFA0F4F0F6E0047
:10130C0027439246B846760DED0FC900954200D1A1
:10131C0099E04C46341BA446002C00DC7CE04A4689
:10132C00002A00D1B8E0C54A964200D11CE18022C7
:10133C003C0012041443A0466246382A00DD61E1E9
:10134C001F2A00DDCCE164462022121B4446944047
:10135C000F00A14664469140E7404C464A1E91411D
:10136C003C43424621436446E240801A5C1AA34245
:10137C009B415F42C71B3B0200D4D0E07F027F0A37
:10138C00002F00D1FFE0380001F08AFD0100083980
:10139C00202322005B1A8F40DA408C401743B14265
:1013AC0000DAFFE0891B4B1C1F2B00DDA8E020227C
:1013BC003900D21A200094409140D840621E9441CA
:1013CC00DF40002601430C43630709D00F23234061
:1013DC00042B05D0231DA342A44164423F191C00D9
:1013EC003B0200D49EE0954B01369E4200D1B7E003
:1013FC00934AE40817407B0771057F0223433F0B98
:10140C004A0D12053A43ED072A4318001100E0BCBF
:10141C00BA46B146A846F0BD002C4BD04C46A41B96
:10142C00A446002E00D023E104001C4300D1AFE100
:10143C006246541E012A00D115E2804DAC4500D104
:10144C00C8E1A4461BE14A46B21A9446002A00DCC5
:10145C00ACE04A46002A43D0784A964200D1AFE12C
:10146C0080223C0012041443A0466246382A67DCF2
:10147C001F2A00DC5FE14746203AD7406246202A0B
:10148C0005D064464022121B4446944021434A1E18
:10149C0091410C003C4357E03A000A4300D105E16E
:1014AC002200013A012C00D182E1644CA4455BD0AE
:1014BC00944641E7634C771C274200D0C4E00400FB
:1014CC001C43002E00D069E1002C00D1BFE1444642
:1014DC000C4300D0D0E14207DB081343C00829E0DD
:1014EC003A000A4300D170E162466446013A012C8D
:1014FC0000D1E0E0514CA44500D161E19446B4E741
:10150C003A001F39CA401100202B03D04022D31AB5
:10151C009F403C43631E9C41002700260C436307FD
:10152C0000D053E7B446E4087B072343F808434A4A
:10153C0094451DD06246070352053F0B520D60E7E0
:10154C0044460C43621E9441E4189C429B415F420A
:10155C003F183B02E3D5394B01369E4200D0B5E033
:10156C003200002700234CE74207DB081343C00876
:10157C001A00024300D1E1E180273F0307433F03F8
:10158C002E4A3F0B3DE7200001F08AFC0100183188
:10159C001F2900DCFCE60838844027000024B142F7
:1015AC0000DBFFE6264A761A17400DE7002A2FD0FB
:1015BC004A46921B9446002E00D1ADE01F4A91453D
:1015CC0000D10FE18022120410436246382A00DD5C
:1015DC000FE11F2A00DD80E1644620221E00121B51
:1015EC006746040093409440FE405A1E9341F840D5
:1015FC0034431C43804464188C42BF417F424E46A6
:10160C004744A6E742460A4311004A1E9141ADE603
:10161C000C4C721C224200D0A1E002001A43002E96
:10162C0000D0FAE0002A00D145E13A000A4300D08C
:10163C0046E14207DB081343C0087BE7FF070000C5
:10164C00FFFF7FFFFE07000047465C1AC21BA34248
:10165C00BF417F42B94617004A46BF1A3A0200D52D
:10166C008DE023003B4300D08AE60020002561E793
:10167C00B44CA14500D1ADE0802424042043644641
:10168C00382C3DDC62461F2C00DDB7E020251E0007
:10169C002D1B0400AB40AC40D640D04042465D1EF2
:1016AC00AB413443121A904623432CE04207DB082B
:1016BC001343C0083BE75C189C429B4140445B428F
:1016CC00C71801263B0200D429E702269E4A63086C
:1016DC001740012214401C43FB071C437F0873E690
:1016EC004446203AD4406246202A05D06746402220
:1016FC00D21B4746974039434A1E9141214335E658
:10170C000343581E8341CC1AA142BF4143467F423A
:10171C0055464E46DF1B2EE602001A4300D1BDE0B3
:10172C0062466446013A012C00D1E5E0854CA445A3
:10173C0058D0944649E764462022121B44469440F4
:10174C000F00A14664469140E7404C464A1E914129
:10175C003C4342460C436146CA408018F4E6794C3F
:10176C00A24200D1FDE6591899429B4140445F4288
:10177C00C719FC07490816000C437F08CFE6CC1AA2
:10178C00A142BF4143467F42181A5546C71BF7E595
:10179C00C9087B0755460B43F808C8E6002C00D057
:1017AC0081E043460B4315D1802000250003E3E67E
:1017BC005C1AA3429B41C71B5B420126FF1ADAE568
:1017CC004207DB081343C008D2E64207DB08134389
:1017DC00C008ACE643464246C9085B0755460B4376
:1017EC00D008C5E6434642465B07C9080B43D00800
:1017FC00BEE603431C00631E9C41FCE60200203C39
:10180C00E24014006246202A03D04025AD1AA840BD
:10181C000343581E8341234375E7002AE2D03A0064
:10182C000A43CDD04207DB0813438022C0081203C1
:10183C00104206D0FC08144203D12000CB087A07D2
:10184C0013435A0FDB005207DB08134390E6434661
:10185C000B4300D109E743464246C9085B0755468E
:10186C000B43D00866E6CC1AA14289413F1A494283
:10187C00554601267F1A7EE542465C1A871AA3421A
:10188C0092415242BF1A3A023DD5CC1AA14289412B
:10189C00434649421F1A55467F1A95E57B07C908EE
:1018AC000B43F80843E64446DB080C4330D14207AF
:1018BC001343C0085CE67B07C9080B43F80839E6FC
:1018CC005C189C429B4140445B42C7183B0200D4CD
:1018DC0025E61D4B01261F4021E60400203AD4408A
:1018EC006246202A04D040226646921B9040034355
:1018FC005A1E93411C437EE65C188C42894140443D
:10190C0049424718DDE623003B4300D1ADE606E62D
:10191C00440723438024C0082403204208D04246B5
:10192C00D608264204D155463000CB0851070B434C
:10193C005A0FDB00DB085207134319E60023014A58
:10194C001F005EE5FF070000FFFF7FFFF0B5574665
:10195C004E464546DE46E0B5814605000C03480080
:10196C0092461F0085B0240B400DCE0F002800D1ED
:10197C0056E1D44B984200D172E16B0FE4001C434A
:10198C0080231B0423439846CF4BED009B4600233A
:10199C009946834400933C037B005046240B5B0D1B
:1019AC00FF0F002B00D11FE1C64A934200D162E128
:1019BC00C549420F8C46E4005946144380226344C7
:1019CC001204CB1A14439B46C200002033007B4008
:1019DC009A464B460F2B27D8BC499B00CB589F46A9
:1019EC00B246009B022B16D0032B00D18EE2012BAA
:1019FC0000D0D9E000230024002552461B052343C8
:101A0C00D20713432800190005B0F0BCBB46B24600
:101A1C00A946A046F0BD00240025AA4BEDE7BA4626
:101A2C00A04615000090DCE7444500D2C7E100D188
:101A3C00C2E101235B429C462E0040460025E34454
:101A4C002302140E1C431B0C994623041F0C120278
:101A5C00494600920197FFF70FFB02007A430B04F3
:101A6C00310C804619438A4207D901235B429C46BC
:101A7C000919E0448C4200D807E2881A4946FFF75E
:101A8C00FBFA09048C4631046646019A090C424360
:101A9C00030031438A4204D90919013B8C4200D816
:101AAC00EDE1881A424612041A4390464146009BC7
:101ABC000E041B0C1F000293009B360C1B04190C0C
:101ACC000B007343120C7E43039151437A431F0C5A
:101ADC00BC4676186644B14203D9802149028C4633
:101AEC006244310C8A1831041E04360C8E19904253
:101AFC0002D312D1B54210D24346591E009B9C46CC
:101B0C0065441F009D429B415B421B19C0188442D7
:101B1C0000D2A0E100D19BE18846AE1BB542AD419D
:101B2C00801A6D42401B844200D1D5E14946FFF733
:101B3C00A3FA019A0B044243310C050019438A4263
:101B4C0000D96CE1881A4946FFF796FA019A3604D7
:101B5C0042430904360C03000E43B24200D953E150
:101B6C000398B61A02002D041D43029F2B041B0C74
:101B7C005A437B439C46290C4843130C84446344CE
:101B8C007943984203D98020400284466144180C62
:101B9C0012041B04120C41189B188E4200D2FFE059
:101BAC0000D1FAE001231D43494A5A44002A00DCC3
:101BBC00AAE06B0700D03DE1ED084346DB0106D5FA
:101BCC004246444B1A4090468022D2005A44424B23
:101BDC009A4200DD1FE743465B071D43434652050F
:101BEC005C02240B530D08E75246224300D17BE0E4
:101BFC00002C00D1FAE0200001F052F902000B3A5F
:101C0C001D2301009B1A52460839DA408C401443BC
:101C1C0052468A40314B58449B4683440020D5E6BB
:101C2C004B462343984644D0002C00D1CEE02000F4
:101C3C0001F036F9010002000B391D235B1A4946ED
:101C4C001000D940083884400B004D462343984679
:101C5C0085402348831A9B460023994600939AE6B5
:101C6C004B46234398461DD108239946063B002535
:101C7C00834600938FE65246224309D102234946FC
:101C8C001943184B89469C4600240220E3449DE6E8
:101C9C0003234A461A43134B91469C465246032053
:101CAC00E34493E60C239946093BA04683460093F4
:101CBC0071E60423994600239B46013300250093CB
:101CCC0069E6C046FF07000001FCFFFF74690008CD
:101CDC00FF030000FFFFFFFEFE070000F303000000
:101CEC000DFCFFFF01F8FFFF49460123194389460C
:101CFC00002401206AE6002380249A4600258A4BA2
:101D0C0024037AE601256D4201239B1A382B00DD52
:101D1C0070E61F2B00DCBFE01F2149428A1A4146A6
:101D2C00D1400A00202B04D04146804B5B449940A3
:101D3C000D436B1E9D4107232A431D0000241540B3
:101D4C00134200D1D4E00F2100231140042900D10B
:101D5C00CBE0111D9142924152429B180A0019028C
:101D6C0000D4C2E001230024002546E6802341462E
:101D7C001B03194208D01C4206D11C432403BA464B
:101D8C001500694B240B38E68024434624031C437E
:101D9C002403B246644B240B2FE6002B00D103E73F
:101DAC00A619681EA64200D28DE08E4200D2A3E096
:101DBC0000D1B3E00500F5E6AA4200D939E6434666
:101DCC00DE0758086B081E43ED0739E6484601F05C
:101DDC0067F801000200153120321C2900DC2CE7C9
:101DEC004B46083883400025984632E701F058F8F6
:101DFC0003001A00153220301C2A00DC00E7544680
:101E0C00083B00229C4005E73619013BB44200D93F
:101E1C00A6E6B24200D8A3E6831E3619A0E609193D
:101E2C00013D8C4200D98DE68A4200D88AE6851E97
:101E3C00091987E60F232B40042B00D1BCE60523A0
:101E4C005B42AB429B4104355B42ED089844B4E6DF
:101E5C00AF4200D960E6824204D800D05CE6AE42C4
:101E6C0000D859E602235B429C46009BE0449C460A
:101E7C0065449D429B415B421B19C0184DE68A424A
:101E8C0000D80EE6831E09190BE68A4200D8F4E549
:101E9C00831E98460919F0E52549280059448D40C0
:101EAC0042468A40691E8D414146D840D940024382
:101EBC002A430B00510700D151E70F21114004298F
:101ECC0000D046E74BE705008E4200D06AE6009A48
:101EDC00934200D066E667E6164A5A44002A00DCB4
:101EEC0010E701230025984467E65D075B021C0B95
:101EFC00D2080023154380E50098023D420082423F
:101F0C00BF417F423C1936190092DDE780244346DD
:101F1C0024031C432403044B240B6EE5009A9A42C1
:101F2C00EAD30500D3E7C046FF0700003E040000DB
:101F3C001E040000FF030000F0B54E464546DE4689
:101F4C0057469046E0B517001A03120B050084465D
:101F5C0019480E034C0091465A00DB0F9B46360B7A
:101F6C00640DC90F520D844219D0824210D0012049
:101F7C0094420ED14E450CD10120C44509D159458E
:101F8C0017D0002C05D130002843431E984100E0A7
:101F9C000120F0BCBB46B246A946A046F0BD3300BA
:101FAC0001202B43F5D1A242F3D14B463B43F0D158
:101FBC00E2E70020EDE7C046FF070000F0B547461A
:101FCC00CE460400180016001B031B0B2D4D4A00B7
:101FDC00994680B543000F03A446B0463F0B520D03
:101FEC00C90F5B0DC00FAA4221D0AB4213D0002AFF
:101FFC0022D13C43002B02D14D462E4322D0002C43
:10200C0010D0814222D00220013908400138C0BCD6
:10201C00B946B046F0BD4D462E4329D1002AF0D129
:10202C003C43EED10028F2D101204042EFE73D00C5
:10203C0025431DD19342EED0002BE2D14C462643D2
:10204C00DFD1E0E70020002CE1D0DCE79A420ADC8B
:10205C00E8DB4F45D7D80ED000204F45D7D200290A
:10206C00E2D00800D3E74342584140000138CEE7A4
:10207C0002204042CBE7C445C5D80020C445C6D297
:10208C00EDE7C046FF070000F0B54746CE4604001A
:10209C00180016001B031B0B2C4D4A00994680B5EB
:1020AC0043000F03A446B0463F0B520DC90F5B0D06
:1020BC00C00FAA420DD0AB4210D0002A27D13C430E
:1020CC00002B11D14D462E430ED10020002C15D0E3
:1020DC000EE03D00254310D1934218D14D462E43BE
:1020EC000BD1002A02D13C43002C0BD0814214D0DE
:1020FC00022001390840013800E00220C0BCB9467A
:10210C00B046F0BD0028F9D101204042F6E7002B83
:10211C00ECD14C462643E9D1EAE79A4204DD43422E
:10212C00584140000138E9E79A42EBDB4F45DFD8D4
:10213C0006D000204F45E1D20029E5D00800DDE7AC
:10214C00C445D5D80020C445D8D2F5E7FF07000018
:10215C00F0B557464E464546DE46E0B598460C036C
:10216C004B000600924687B0240B5B0DCF0F002B63
:10217C0000D15CE1D94A934200D175E1420FE400F1
:10218C001443802212041443D54AC5009446634478
:10219C000093002399469B46434642461E03D20FAA
:1021AC005B0050469046360B5B0D00D120E1CB4ACC
:1021BC00934200D162E1CA49420F8C4600996344B4
:1021CC00F6008C46164380229C4412046346164348
:1021DC00C200002000930099434601318C464946C9
:1021EC007B4001930F2926D8BE4B890059588F4646
:1021FC00434601933400150083465B46022B16D0F0
:10220C00032B00D103E2012B00D0CDE000220024EF
:10221C000025019B12052243DB071A4328001100FD
:10222C0007B0F0BCBB46B246A946A046F0BD0024A0
:10223C000025AA4AEDE7280C2D042D0C2B00110CBF
:10224C001204120C5343984613002F004343994633
:10225C004F434F44BB4647460B003F0CBA464343E3
:10226C00DA440293D14504D980277F02B9464B4406
:10227C00029353461B0C9B4653461F0443461B04B8
:10228C001B0C98463B0043440493330C3604360C29
:10229C009846330043439946434643432F009A469E
:1022AC00434677435D43380C4D444519A94503D942
:1022BC0080235B029946CA443F04280C3F0C2D0432
:1022CC00ED19270C2404240C0300200050437A43FE
:1022DC0091463A0053440593030C9A464A43614392
:1022EC0049445144AB44894503D980235B02994648
:1022FC004A4400040B0C000C0904091820009946F0
:10230C00434670435C437E435F43030C9846A419D9
:10231C0044444A440397A64204D980235B0298465E
:10232C00474403972304029E9A46059B5E449846B5
:10233C00AE42AD4176188E4289410004000C5044E7
:10234C0040446D424719B846934649428946C344B6
:10235C00D94498428041A845AD4193459241894565
:10236C0089416D4240422843240C524249420A435F
:10237C00039B00198018C7184B46DC0D049B750293
:10238C001D436A1E95414B46F60D7F0235435A029A
:10239C003C431543FB0100D41CE101216A080D40AC
:1023AC001543E207154364084F496144002900DCDA
:1023BC00B0E06B0709D00F222A40042A05D02A1D51
:1023CC00AA42AD416D4264191500E30104D5802188
:1023DC00464AC90014406144454A914200DD26E753
:1023EC006207ED08640249051543240B4A0D10E7FA
:1023FC005246324300D17FE0002E00D1DCE03000A9
:10240C0000F04EFD02000B3A1D2301009B1A5246B0
:10241C000839DA408E40164352468A40009B3549B3
:10242C00181A03008C46634400200093D3E6250061
:10243C0005434AD0002C00D1B0E0200000F030FD64
:10244C00010002000B391D2310005B1A310035000E
:10245C0008388440D94085400C432648831A0093A1
:10246C00002399469B4697E60500254326D1082272
:10247C0000930223002491469B468DE65246009B16
:10248C00324310D1154900268C46634449460093CB
:10249C0002231943894602209DE65B460197022BD5
:1024AC0000D0ADE6C3E60D4A0320944663444A4689
:1024BC00009303231A43914652468CE60C22009358
:1024CC000323050091469B4666E6042399460023A8
:1024DC000093013300249B465EE6C046FF070000D4
:1024EC0001FCFFFFB4690008FF030000FFFFFFFEC3
:1024FC00FE0700000DFCFFFF4946012319438946E6
:10250C000026012067E6002380240025434A01931E
:10251C0024037EE60120401A382800DD76E61F28C9
:10252C005BDD1F2223005242511ACB401900202898
:10253C0003D03B4A6244944025436A1E95412A00CD
:10254C000A4307210D000024154011425BD00F21D6
:10255C0000241140042953D0111D91429241524242
:10256C00A4180A0023024BD501220024002550E6B2
:10257C0080231B031C4209D01E4207D133431C038A
:10258C0043461500240B254A019342E68022120390
:10259C0014432403214A240B01973AE600F080FCF3
:1025AC0001000200153120321C2900DC4BE73400FD
:1025BC0008380025844050E700F072FC03001A0034
:1025CC00153220301C2A00DC1EE75646083B002240
:1025DC009E4023E7009B9C46E6E61249220061449C
:1025EC002E008D408A40C640691E8D4132432A43DD
:1025FC00C4405307B6D00F2111400429ACD1B1E728
:10260C0065076402240BD2081543002201E68022E0
:10261C00120314432403014A240BFAE5FF070000BC
:10262C003E0400001E040000F8B557464E464546D1
:10263C00DE46E0B51E0017004A000B03520D5B0A84
:10264C009046420F1A43CD0FCD4C3103C300944634
:10265C0070007A0F490AFF009A46B946400DF60FF2
:10266C001143A04200D1B1E001225640B346B5421D
:10267C0000D188E04246121A002A00DCAEE00028A5
:10268C0000D1C1E0BE48804500D151E1802000045A
:10269C000143382A00DD7BE11F2A00DDEEE120201A
:1026AC003E00801A0C00D640D140874062468440E0
:1026BC00521A781E8741944634432743DC1BA342AD
:1026CC009B4162465B42D31A99464B461B0200D48F
:1026DC0018E14B465802430A99464B46002B00D151
:1026EC0037E1484600F0DCFB0100083920232200CA
:1026FC0048465B1ADA4088408C4043461043884574
:10270C0000DD36E1C91A4B1C1F2B00DDEAE020224C
:10271C002600D21A01009440DE40D840002391409C
:10272C00621E94418146984631430C43630709D09D
:10273C000F232340042B05D0231DA342A441644244
:10274C00A1441C004B461B0200D4DEE041468C4BDE
:10275C000131994200D1E7E04B468A48E408034036
:10276C00180049055B07400223434A0D040B120570
:10277C00ED0722432A4318001100F0BCBB46B246B9
:10278C00A946A046F8BD4246121A002A52DD00287E
:10279C0000D19CE0A04500D1CAE080200004014398
:1027AC00382A00DD49E11F2A00DC97E110000E00F9
:1027BC002038C640202A04D04020821A91400F4372
:1027CC00B9464C46621E944134433AE10A003A43FE
:1027DC0028D0B346B5422BD06B4A4244002A5DD078
:1027EC0042464446821A002C00D0F5E065461D4353
:1027FC0000D19CE1551E012A00D1FBE1604CA242A4
:10280C0000D1BDE12A00F0E00800384300D1C3E05C
:10281C00501E012A00D1A8E1594CA24200D187E0F8
:10282C00020036E701225640B346B54200D021E7FC
:10283C00554A4244002A00D1B5E042464446821A29
:10284C00002C00D138E14E4EB04200D1DEE18026A2
:10285C00644636043443A446382A00DD96E11F2A28
:10286C0000DD24E22026B41AA24664465646B44043
:10287C00A1461C004E46D440264334005646B34075
:10288C005E1EB3411C436346D340C918E419BC42D5
:10289C00BF417F42B94680468944D8E040463B4C14
:1028AC000130204200D0B4E04046002800D044E182
:1028BC006046184300D190E10800384300D0AAE1EB
:1028CC006146DB0849070B436146CC0827E008004A
:1028DC00384361D0501E012A00D139E1A24227D0E1
:1028EC0002005DE702001F39CA401100202B03D003
:1028FC004022D31A98400443631E9C4100239946FE
:10290C0098460C43630700D012E74B464A46E4084E
:10291C005B072343D408424619498A420ED024034C
:10292C005205240B520D22E70A00002400231EE757
:10293C00DB086246520713436246D4081A0022434E
:10294C0000D1FCE180221203144324030C4A240B13
:10295C000DE7200000F0A4FA010018311F2900DC5B
:10296C00C4E608388440434620000024884500DC37
:10297C00C8E6044A5B1A104098468146D6E6C04623
:10298C00FF070000FFFF7FFF01F8FFFFFE070000BD
:10299C000F437A1E974191E66146DB0849070B43CA
:1029AC006146CC08B8E74046D34C0130204200D0F9
:1029BC00A2E04046002800D001E16046184300D157
:1029CC005EE10800384300D05FE16146DB0849074F
:1029DC000B436146CC08A2E7C84DA84200D1CFE01A
:1029EC00802564462D042C43A446382A56DC1F2A25
:1029FC0000DDD1E020251E00AD1A6446AB40AC4092
:102A0C00D6405D1EAB41344323436446D440091B7E
:102A1C0049E06046DC1B461AA34280414042814695
:102A2C0030004E46801B8146000276D44B46234331
:102A3C0000D052E60024002571E739430C00621ED9
:102A4C009441E4189C429B415B42634499464B463B
:102A5C001B0200D456E701239C46A84BE044984542
:102A6C0038D04B46A6480122034018006308144096
:102A7C001C43C3071C434308994657E610000E003D
:102A8C002038C640202A04D04020821A91400F439F
:102A9C00B9464F467A1E974137430FE662461A43B2
:102AAC0013005A1E9341FC1AA742BF417F42CB1B15
:102ABC0099465D46804608E666461E4300D1BEE058
:102ACC00561E012A00D109E18C4CA24200D119E119
:102ADC003200C1E642460024002348E620200C00C8
:102AEC00801A3E0087408440D640781E8741D140F2
:102AFC0034433C438C44A4E7804A904200D1E9E043
:102B0C00DF199F429B4161445B42C918CC077F0887
:102B1C004B08994680463C43F4E6FC1AA742BF4159
:102B2C0063467F42C91ACB1B99465D46D5E5FF0823
:102B3C004B075D463B43CC08EEE662461A4300D099
:102B4C0082E00B003B431BD1802400252403F9E6D3
:102B5C00DC199C429B41614489465B4299444B463B
:102B6C001B0244D401239846CCE6DC1B6246A342EC
:102B7C009B41511A5B42CB1A994601239846A4E516
:102B8C00FF084B075D463B43CC08D7E662461A4329
:102B9C001400631E9C4179E615006446203DEC4010
:102BAC00A046202A05D040256446AA1A9440234307
:102BBC009A465446631E9C414346234373E7624640
:102BCC001A4323D00A003A4300D0A0E06246DB0847
:102BDC00520713436246D408B0E60B003B4300D1C6
:102BEC0028E7FF084B075D463B43CC0897E60223DA
:102BFC00984636E7FC1AA742BF4163467F42C91A82
:102C0C00CB1B994601235D4698465EE54B07FF08B2
:102C1C003B43CC0892E6DC1B6046A342B641401A0B
:102C2C007642801B8146000260D5FC1AA742BF4148
:102C3C0063467F42C91ACB1B99465D4676E5FF0871
:102C4C004B073B43CC0867E60A00DB083A4300D14C
:102C5C006FE66246520713436246D4088022120381
:102C6C00144207D0C808104204D15D460400FB088A
:102C7C0049070B435A0FDB00DB08520713435DE691
:102C8C004B07FF083B43CC0849E6DC199C429B41AF
:102C9C00614489465B4299444B461B0200D431E6A1
:102CAC004A46174B1A400123914698462AE61600CD
:102CBC006446203EF440A046202A05D040266446B7
:102CCC00B21A944023439A465446631E9C41434691
:102CDC001C43DBE502000024002348E5DC19BC4260
:102CEC00BF41614489467F42B94438E74B46234390
:102CFC0000D19FE606E6C046FE070000FF07000075
:102D0C00FFFF7FFFFF084B073B43CC0816E66246EC
:102D1C00DB08520713436246D40880221203144284
:102D2C0007D0C808104204D15D460400FB084907CF
:102D3C000B435A0FDB005207DB081343FEE500235D
:102D4C00014A1C0013E5C046FF07000070B50500E2
:102D5C000C481C0316005B000A034900120B490DBA
:102D6C00240B5B0D814208D0064A0020934203D10C
:102D7C0020003043431E984170BD01202A43FBD1F3
:102D8C00F2E7C046FF0700000A0030B5134C5300B1
:102D9C0009030500090B00205B0DD20FA34204DDD3
:102DAC000F48834202DD0F4BD01830BD802040030A
:102DBC0001430D48C01A1F2808DD0C48C31AD9401E
:102DCC000B005842002AF0D11800EEE7084CC54021
:102DDC00A446634499400B002B43F2E7FE0300002A
:102DEC001D040000FFFFFF7F3304000013040000EC
:102DFC00EDFBFFFF70B5002816D0C317C5185D405A
:102E0C00C40F280000F04CF8114A121A0A2816DCDC
:102E1C0003002E0015339E400B23181AC540520593
:102E2C002D032D0B530D03E0002400230025002659
:102E3C001B052B43E40723433000190070BD0B38EE
:102E4C00854052052D0300262D0B530DF0E7C0468F
:102E5C001E04000010B5041E10D000F021F80F4B1A
:102E6C001B1A0A2811DC0B222100121AD140153032
:102E7C000A035B058440120B5B0D01E0002300226A
:102E8C001B0513432000190010BD22000B38824093
:102E9C005B0512030024120B5B0DF1E71E0400000E
:102EAC001C2101231B04984201D3000C10391B0A6E
:102EBC00984201D3000A08391B09984201D3000932
:102ECC00043902A2105C40187047C0460403020289
:102EDC000101010100000000000000000D488546C2
:102EEC00FEF726F80C480D490D4A002302E0D45891
:102EFC00C4500433C4188C42F9D30A4A0A4C002338
:102F0C0001E013600432A242FBD300F0E1FD00F0BB
:102F1C000FF8FEE70090002000000020E0010020E8
:102F2C004C710008E00100204C070020FEE7000077
:102F3C00F0B5DE46454657464E46E0B589B0FDF73E
:102F4C0071F96048FDF7FCFA80215F4B09065A6D58
:102F5C005E4D920092080A4301215A655C4A00209A
:102F6C00DA635C4A1A649A6B0A439A635A6B0631A9
:102F7C000A435A63C023584A9B0011680B431360E1
:102F8C00FDF79EFC2B68554A554C1A4080239B003C
:102F9C0013432B60236853495800C0184000FDF7B9
:102FAC00E5FF80226B69D2000130134202D105E0AB
:102FBC00002803D06B6901381342F9D18021434AB0
:102FCC00490013680B43136013680B42FCD00221B9
:102FDC003D4A454BD365D36D1942FCD038239168DB
:102FEC000B40D168102B00D122E3002B00D023E33F
:102FFC0013683E49536819408023DB010B4353602F
:10300C0013683B490B40136013683A4A9B045B0FEF
:10301C00DA4022606068FDF753FC374A002832D151
:10302C00382029498B680340102B01D100F0E7FCB4
:10303C000B683248034080200B609568800403E0E5
:10304C0093685B1B022B1ED80B680342F8D1CB682C
:10305C002B4818402B4B0343CB60802308685B0440
:10306C0003430B608023C8685B050343CB6080215E
:10307C0095681548890403E093685B1B022B02D802
:10308C0003680B42F8D0062313490868184201D193
:10309C0000F079FCE0230C49DB01886803438B606A
:1030AC008B68194803408B600B689B015FD5072028
:1030BC008B68164D83431800022303438B60382022
:1030CC00966829E0FC6B000800100240007000407C
:1030DC00030002300108120000200240FFF9FFFF3C
:1030EC000000002040420F0009800000FF80FFFF1D
:1030FC00FFC7FFFF0024F4007C020020FFFFFFFE4F
:10310C008C80C11132301646FFF0FFFF881300008F
:10311C0093689B1BAB422AD88B680340102BF7D1CA
:10312C000720F5490B680340022B01D900F053FC32
:10313C00F24BF3499A680A409A6038229968114216
:10314C0001D000F035FC1B68EE489B045B0FD840A7
:10315C00EA4BED4A9B681B051B0F9B00D3181F22E3
:10316C009B6D1340D84020606068FDF7A9FBA0263A
:10317C0010250227E54AE6491368E6480B40136020
:10318C00E54B2268196802230905090DFDF7D8F9EA
:10319C00F6051422002103A800F0D1FC300002A98E
:1031AC0002950697FCF7D4FF03239B460393002359
:1031BC0030009A46069302A943330293FCF7C8FFEA
:1031CC002023300002A90293FCF7C2FF0123994689
:1031DC000393534605938023D04A9B00100002931F
:1031EC00049702A993629046FCF7B2FF4023CC48A7
:1031FC00029302A98361FCF7ABFF4B464246059351
:10320C00263302934046936102A9FCF7A1FF534673
:10321C0005935B460493C0239B00029330000397F5
:10322C00079702A9B362FCF793FF4B4602A90793D9
:10323C0030000B330293FCF78BFF8421B94B5A58A7
:10324C00AA435A5004395A582A435A501A682A43E6
:10325C001A605A6815435D60B34B1A68D20307D4E1
:10326C001A68B2490A401A60DA6BB1490A40DA634B
:10327C008023AD4A5B02116801270B4313603F2288
:10328C00AC4909200B6893431A00052313430B60C8
:10329C00A94BAA491A681140A94A0A43A9491A60BC
:1032AC0099600321A84A92466232DA605A68120C7D
:1032BC0012040A435A60022219680A431A6008224F
:1032CC0019680A431A601A6839003A431A600122D5
:1032DC009E4B52425A60FCF70FFF9D4D9D4E2900AC
:1032EC0030001831FDF72CF99B4B9A683A4207D104
:1032FC00DA689A490A40DA601A69920092081A61EF
:10330C008021954B8903DA680A438021DA608901B0
:10331C001A680A42FCD0196007215A698A431100C5
:10332C0002220A4370215A615A698A4311004022D1
:10333C000A430F215A619A6A8A439A625A697449FC
:10334C000A405A619A6AF231FF318A431100102205
:10335C000A439A625A6982490A405A619A6A8149B7
:10336C001140C022D2000A439A625A697E490A402F
:10337C005A619A687D491140802252050A439A602D
:10338C007B492068FDF7F2FD142343430293029B13
:10339C00002B05D0029B013B0293029B002BF9D121
:1033AC006D4B74499A681140802212060A439A6048
:1033BC009A68002AFCDB802212011A6020230293F7
:1033CC00029B002B05D0029B013B0293029B002B1E
:1033DC00F9D18023604F9B053A69032113433B616C
:1033EC0011230C207B60FCF787FE0121FB68FB6836
:1033FC00BB680B4200D040E2FB685F4AFB681A4096
:10340C005E4B1343FB60FB689B0204D5F023BA6A46
:10341C001B021343BB6201274F4B59491A69072002
:10342C00BA431A611A690A401A619A6851490A40EA
:10343C003A439A606123994653464A469F545246F2
:10344C00504B0321D36123000C33136200239846A5
:10345C00534642465A62FCF74FFE29003000203199
:10346C00FDF76EF820684849FDF780FD8023474A38
:10347C00DB05013898625A631022022651469A6184
:10348C001A6A0F203A431A62DA683243DA60404A09
:10349C004A61FA2212018A61032259690A435A616C
:1034AC0031001F60FCF728FE4246514601AB1A70F2
:1034BC00384A20688A624246CB620A632C49FDF77F
:1034CC0055FD2900344C0138A062A26A3C31E36AF4
:1034DC003248FDF735F8324B4146A36111230D20DC
:1034EC0023626760FCF708FE41460E20FCF704FEE1
:1034FC008423236056E0C0460020024000100240A6
:10350C00FF8FFFFF0024F4009C680008007000404F
:10351C00FFFEFFFF106C0008005801400004005033
:10352C00000800500018024000740040FFFF03FF29
:10353C00FFFFF8FF00080240080002400F80FFFF69
:10354C00A025000040240140FC01002000000240A6
:10355C001C690008186A000800240140C73FFFFFDF
:10356C00FFFDFFFFFFF0FFFFFFBFFFFFE8FFFF6F57
:10357C0040420F00E8FFFF7F3CC2FEFFC314000077
:10358C00FFFFFFDF8D09000800093D00801A0600CF
:10359C004101000829090008002C0140606C00085A
:1035AC006868000088231B02E760CC20636400F08D
:1035BC00B3FA0123B34A5B42C737C351516D9B46E3
:1035CC0009330B4353658B23AF4D5B00EB608023BA
:1035DC006A681B0213436B602A68AC4B04001343EC
:1035EC002B60C359434500DA7EE1A949A948FCF791
:1035FC00A7FFA948FCF7A4FFFA21A848C900FCF7CB
:10360C009FFFA74BA74AA84D5A616B46DF1DEFF3EE
:10361C001089012181F310882B78002B34D02C6F6A
:10362C00EE6EB44236D8B44260D189F31088EEE71E
:10363C000D3B194002291ED092499C4A0B688020F0
:10364C0013400B6080230A685B001343984A0B609D
:10365C009568C00004E093685B1B022B00D912E54F
:10366C000B680342F7D04B68924818408023DB016B
:10367C0003434B60D4E413688E495368194080238C
:10368C00DB010B435360C5E4FCF7CCFD2C6FEE6EF5
:10369C00B442C8D9AB6E9B461B1B9846A34501D0C0
:1036AC00012398466B6E42461919380000F03EFA19
:1036BC0042460123A96E9B1AA2188A423FD0B61A21
:1036CC009E4200D91E00002E3BD15C45ADD02A672E
:1036DC0089F310886B235246D25C3C78002A15D1B2
:1036EC002F2C68D151460132CA5490E738006B6ECA
:1036FC0001221919013400F019FA2C6789F310888A
:10370C006B235246D25C3C78002AE9D00A2C70D04C
:10371C006948FCF715FF3F2C00D191E03ED8302CC6
:10372C0000D191E02300313B082B0ED921006348D6
:10373C00FCF706FF6B2300225146CA5467E70022B0
:10374C00BEE743461400F818D1E780225C4E920085
:10375C0073699046134200D184E02300FA24303B75
:10376C00A4005C43A4B221004C48FCF7E9FE554A86
:10377C00231C944200D9131C85229BB2D200934285
:10378C0000D213004F4AD21A4F4B534380221201DE
:10379C009446434A63441B0B5361CBE7742CC5D14D
:1037AC0080224A49D20348690304134040228243D1
:1037BC0013438B61BEE76C20534651461B5CC91802
:1037CC006D310A700A2C0AD052460133DBB2135405
:1037DC000C70172B00D01AE73748FCF7B1FE514696
:1037EC003B486D31FCF7ACFE6C2300225146CA54A9
:1037FC000DE75346514662341B5D5A1CD2B20A5532
:10380C002F2153446D331970172A0AD12A48FCF71B
:10381C0097FE51462E486D31FCF792FE002352461E
:10382C0013556C245346002651461B5D28485344BF
:10383C006D331E706D31FCF783FE53461E5579E7D0
:10384C002448FCF77DFE75E780261D4CB6006369A5
:10385C0033420DD100211148FCF772FE104B1E4A69
:10386C005A6167E71D48FCF76BFE4346B36174E78A
:10387C001B48FCF765FEA662ECE71A48FCF760FEF5
:10388C00C9E5C04600100240004400400100002081
:10389C00A86C0008B46C0008CC6C0008E46C000840
:1038AC0000740040550E000090060020FFC7FFFF7B
:1038BC007C020020FF80FFFF646D0008506D000843
:1038CC000004005049270000490700000008005080
:1038DC00FC6C00080C6D0008FF0F00003C6D00082C
:1038EC00286D0008446C000853464A469B5C012B2B
:1038FC0000D9CFE031001C20FCF7FEFB4A465346B2
:10390C00514648469B5C5A1C5BB20A54E351002B4F
:10391C0000DA6AE6012B0CD1614B42464B63614BDA
:10392C008C630B640423CA634C648A642A68134353
:10393C002B60C8216256012A00D180E05A4D5B4EA3
:10394C002F00543739003000FCF7FAFDC823E2563B
:10395C009846012A00D187E039003000FCF7F0FDD1
:10396C004346E256012A00D17EE039003000FCF7D4
:10397C00E7FDC823E256012A5BD029003000543100
:10398C00FCF7DEFD31E6072002230D6885432B434F
:10399C000B609668464D05E093689B1BAB4201D9C2
:1039AC00FFF7E5FB0B680340022BF5D1FFF772FB29
:1039BC009968114008295DD099681140102921D0CF
:1039CC0099681140202958D09B681A40182A58D061
:1039DC000020FFF7BDFB02230D6885432B430B60D2
:1039EC009668334D05E093689B1BAB4201D9FFF7FA
:1039FC00BEFB0B680340022BF5D1FFF799FBCB689C
:103A0C00FFF741FBDA68D968D243D8684906490FF9
:103A1C0040040131450E920737D02648FDF7A6FA2F
:103A2C006843254BD968490F0131FDF79FFAFFF721
:103A3C008FFB224A483B11680B431360D5E5534674
:103A4C0052461C651E4B9465D3641E4B164D536534
:103A5C000023D365194A08331068144E03431360CE
:103A6C006256012A00D069E72023144A11680B43DF
:103A7C0013607EE71448FFF76BFB80200002FFF712
:103A8C0067FBFA20C001FFF763FB0F48FDF76EFAE6
:103A9C006843C6E70D48FCF753FD5B46E351A4E5CC
:103AAC009D0A0008450900081C680008B06A000857
:103ABC00881300000024F400001002400044004071
:103ACC00E10A00085D09000800127A00746C000815
:103ADC0070B500260C4D0D4C641BA410A64209D1E8
:103AEC00002602F047FE0A4D0A4C641BA410A642A5
:103AFC0005D170BDB300EB5898470136EEE7B30023
:103B0C00EB5898470136F2E74471000844710008FD
:103B1C00447100084871000810B5034B0100186887
:103B2C0000F082F810BDC04610000020002310B534
:103B3C009A4200D110BDCC5CC4540133F8E70300A9
:103B4C008218934200D1704719700133F9E70000D5
:103B5C0070B50500002910D00C1F2368002B00DA6B
:103B6C00E418280001F014FC1D4A1368002B05D141
:103B7C0063601460280001F013FC70BDA34208D9E7
:103B8C00216860188342F3D118685B684118216082
:103B9C00EEE71A005B68002B01D0A342F9D911683B
:103BAC005018A0420BD1206809185018116083429C
:103BBC00E0D118685B68411811605360DAE7A042E5
:103BCC0002D90C232B60D5E721686018834203D1FE
:103BDC0018685B684118216063605460CAE7C0468E
:103BEC003807002070B50F4E0D0031680400002915
:103BFC0002D100F0FDFC30602900200000F0F8FC40
:103C0C00431C0AD00323C51C9D43A84207D0291A84
:103C1C00200000F0EDFC431C01D101256D42280071
:103C2C0070BDC0463C070020F7B50322CB1C934364
:103C3C00083306001F000C2B32D20C27B94231D8A6
:103C4C00300001F0A5FB324D2B681C00002C2ED14E
:103C5C0039003000FFF7C6FF0400431C1ED12C684E
:103C6C002500002D4AD123682900E3183000019368
:103C7C0000F0BEFC019B834243D123680337FF1A3B
:103C8C0003239F4308370C2F00D20C273900300038
:103C9C00FFF7A8FF431C34D02368DF19276013E01B
:103CAC00002BCBDA0C23002533602800FEBD2268E4
:103CBC00D11B20D40B2917D9E2192760A34211D1AB
:103CCC002A606368116053603000250001F068FBC6
:103CDC0007220B35231D9543EA1A9D42E5D05B1B49
:103CEC00A350E2E75A60ECE76268A34201D12A6074
:103CFC00EAE75A60E8E723006468A7E72C006D68E0
:103D0C00AFE70C233000336001F04AFBCDE7C0462F
:103D1C0038070020F0B51E00002314008BB09E4223
:103D2C0004DA8021090673181E002D23129A149FA1
:103D3C001370202303229F43462F07D03B00453BA3
:103D4C0059424B411099013ACB18109309AB04938B
:103D5C0008AB0393139B00920293109B22000193D8
:103D6C00330000F0EBFC0500472F02D1119BDB0761
:103D7C0028D5109BEB180793462F14D12B78302B9A
:103D8C000CD10022002320003100FDF775FA002829
:103D9C0004D10123109A9B1A139A1360139B079A50
:103DAC001B68D31807930022002320003100FDF775
:103DBC0063FA002801D0079B09933022099B0799CD
:103DCC008B4206D32800099B159A5B1B13600BB022
:103DDC00F0BD591C09911A70F0E7F0B5831C87B03F
:103DEC00039305000C002B230270002901DA4C42CE
:103DFC0002336B70092C31DD0A2704ABDE1D200069
:103E0C0039000196FDF722FA013E30312000317065
:103E1C0039000294FDF734F9029B0400632BEEDCAD
:103E2C00019B30349A1E13000399147004A80730B8
:103E3C0098420ED804AB073300209A4204D804AB46
:103E4C000930C018019BC01A039B1818401B07B0FF
:103E5C00F0BD1878013308700131E7E73023E4181E
:103E6C00AB70281DEC70F1E7F0B595B00C00099221
:103E7C001E001A9D070001F07BFA036818000C93D2
:103E8C00FDF758F800231293237E07220A93236828
:103E9C000E900D930D992B68C90547D59B1893432C
:103EAC001A0008322A601A685B68A264E364012273
:103EBC00A36CE56C0B936B005B080F930B98A74BF3
:103ECC000F995242FEF742FF002831D10122A34B39
:103EDC000B980F995242FDF7DFF9002828D10022E8
:103EEC00002329000B98FDF7CDF9002803D02300FF
:103EFC002D2243331A700A9B994D472B00D9994DAB
:103F0C0003230D9A236101339A43002322600B9300
:103F1C00099B21003800009613AA00F0E7F9431C16
:103F2C0000D0A2E00120404215B0F0BD0733B6E747
:103F3C000B9A2B0010002900FEF708FF00280BD06D
:103F4C00002D03DA23002D2243331A700A9B864D71
:103F5C00472BD5D9854DD3E720220A996368914325
:103F6C000F915A1C49D10733636080230D9ADB00F3
:103F7C0013430022069212AA05920A9A08A90492E7
:103F8C0011AA0392232223600193636852180292B0
:103F9C00009338002B000B9AFFF7BCFE0F9B05001B
:103FAC001199472B08D1CB1C02DB6368994248DD81
:103FBC000A9B023BDBB20A930A9B652B24D8200098
:103FCC001A00013950301191FFF707FF129A0B902C
:103FDC0013182361012A02DC2268D20701D50133B0
:103FEC002361232308AA9B181B78002B00D18FE791
:103FFC0023002D2243331A708AE70F9A472AB4D133
:10400C00002BB2D10133AFE70A9B662B1BD163683F
:10401C0000290DDD2161002B02D12268D20702D5C7
:10402C00013359182161119BA36500230B93D8E729
:10403C00002B03D101222168114200D09A1C22616D
:10404C00F1E767230A93119B129A934206DB2268CD
:10405C002361D207E7D501332361E4E70121002B6B
:10406C0001DC4918C91A5218E9E72268530507D42C
:10407C0023692A0038000999B047431C28D151E71D
:10408C000A9B652B00D8E1E0A06CE16C00220023B8
:10409C00FDF7F2F8002831D001233800344A099991
:1040AC00B047431C00D13DE7119B129A934202DBAF
:1040BC002368DB070CD538000E9B0C9A0999B04786
:1040CC000025431C00D12DE7129B013BAB420ADCBF
:1040DC0023689B0700D506E1139BE068984200DB40
:1040EC0022E7180020E722000123380009991A3230
:1040FC00B047431C00D115E70135E5E7119B002BB8
:10410C0038DC012338001A4A0999B047431C00D106
:10411C0008E7119B129A134302D12368DB07D7D50A
:10412C000E9B38000C9A0999B047431C00D1F9E654
:10413C0000230A93119B0A9A5B42934201DC129B67
:10414C0097E722000123380009991A32B047431C23
:10415C0000D1E7E60A9B0133EBE7C046FFFFEF7F98
:10416C006C6D0008706D0008746D0008786D0008A7
:10417C007C6D0008129AA36D0A929A4200DD0A9394
:10418C000A9B002B3CDC00230D930A9BDB43DB17C3
:10419C000F93A36D0F9A0B930A9B13400B9AD31A90
:1041AC000D9A934234DC119B129A93423DDB2368A7
:1041BC00DB073AD4129A0B9B1199D31A521A0A9212
:1041CC009A4200DD0A930A9B002B36DC0A9B0025E1
:1041DC00DB43DB170B93119A129B0B999B1A0A9AD0
:1041EC000A409B1AAB4200DC72E722000123380024
:1041FC0009991A32B047431C00D193E60135EAE71E
:10420C000A9B2A0038000999B047431CBBD189E6A8
:10421C0022000123380009991A32B047431C00D1FF
:10422C0080E60D9B01330D93B3E70E9B38000C9A7F
:10423C000999B047431CBDD174E60B9B3800EA18B2
:10424C0009990A9BB047431CC0D16BE6129B012B0A
:10425C0002DC01231A4234D001232A0038000999C8
:10426C00B047431C00D15DE60E9B38000C9A0999AF
:10427C00B047431C00D155E6A06CE16C0022002332
:10428C00FCF7FAFF00281AD1129B6A1C013B38007C
:10429C000999B047431C0ED144E622000123380093
:1042AC0009991A32B047431C00D13BE60135129BE9
:1042BC00013BAB42F1DC22000B9B5032DAE60025CD
:1042CC00F5E72A00E3E722000123380009991932A7
:1042DC00B047431C00D125E60135E368139A9B1ABD
:1042EC00AB42F0DCF8E60025F7E7C046F7B5150061
:1042FC0001938A680B690C000090934200DA13005A
:10430C0022002B6043321278002A01D001332B603B
:10431C0023689B0602D52B6802332B602268062388
:10432C0017001F401A4227D0230043331B785A1E14
:10433C0093412268920630D4220001990098089E7D
:10434C004332B047431C25D0062320682A68E16815
:10435C0000250340042B03D18D1AEB43DB171D40C2
:10436C00A3682269934201DD9B1AED180027BD4218
:10437C0020D1002010E00137E3682A689B1ABB4269
:10438C00D2DD2200012301990098089E1932B04712
:10439C00431CF0D101204042FEBD3020E1184331D6
:1043AC00087021005A1C45310978A2184332023397
:1043BC001170C1E72200012301990098089E1A325E
:1043CC00B047431CE6D00137D1E70000F0B58BB005
:1043DC0006920A0043320793059004920A7E0C0061
:1043EC00109B782A07D8622A09D8002A00D1C1E08C
:1043FC00582A00D18CE026004236327022E01000A0
:10440C0063381528F7D8FCF7A7FD16001F00F6FF38
:10441C00F6FFF6FFF6FF1F00F6FFF6FFF6FFF6FFBE
:10442C00A80036009A00F6FFF6FFB900F6FF36003A
:10443C00F6FFF6FF9E0026001A684236111D196021
:10444C00136833700123A7E0086819680A1D050674
:10445C000BD50D681A60002D03DA2D23049A6D42DA
:10446C001370614B0A2703931BE00D681A60410619
:10447C00F1D52DB2EFE70D681968081D18602E06EE
:10448C0001D50D6803E06D06FBD50D68ADB2564B3A
:10449C00082703936F2A00D00237230000224333EE
:1044AC001A706368A360002B03DB0422216891431C
:1044BC002160002D02D1049E002B0CD0049E2800FC
:1044CC003900FCF7D9FD039B013E5B5C33702B007C
:1044DC0005009F42F3D9082F09D12368DB0706D5C5
:1044EC0063682269934202DC3023013E3370049BE3
:1044FC009B1B2361079B210000930598069B09AA2F
:10450C00FFF7F4FE431C4CD1012040420BB0F0BD30
:10451C0045310A70344A03921A68216820CA1A601D
:10452C00080616D5CB0702D5202319432160102786
:10453C00002DB2D1202322689A432260ADE72022BD
:10454C0009680A4322602200782145321170274AFB
:10455C00E1E74806E6D5ADB2E4E71A680D68101D30
:10456C004969186013682E0601D5196002E06D06C2
:10457C00FBD519800023049E2361BBE71A68111D2B
:10458C001960166800213000626800F0F5FE002802
:10459C0001D0801B6060636823610023049A137050
:1045AC00A8E72369320006990598079DA847431C84
:1045BC00AAD023689B0715D4099BE0689842A5DA1A
:1045CC001800A3E72200012306990598079E1932CB
:1045DC00B047431C98D00135E368099A9B1AAB424B
:1045EC00F0DCE9E70025F7E77E6D00088F6D000829
:1045FC00002370B5064D040008002B6002F0A2F8F1
:10460C00431C03D12B68002B00D0236070BDC04627
:10461C004007002003000A7801311A700133002A88
:10462C00F9D17047F0B506000B69326987B00020EC
:10463C0003919A4265DB013B9C0000930B00143301
:10464C0005931B1904933300143302931C19049B18
:10465C0027681B6838005D1C29000193FCF786FC59
:10466C000190AF4224D30025AC460298059F08CF99
:10467C00019A99B251431B0C534349190A0C9B18CC
:10468C00026889B292B26244521A01681D0C090C7C
:10469C009BB2CB1A11145B18191492B21B041A4357
:1046AC00049B8C4604C0BB42E1D22368002B30D063
:1046BC003000039901F000F9002821DB30000024C0
:1046CC00019B03990133019314301431036820C901
:1046DC009AB21419AAB2A21A1B0C2D0C14145B1B3F
:1046EC001B191C1492B21B04134308C0049B8B426D
:1046FC00ECD2009B029A9B00D3181A68002A15D0A2
:10470C00019807B0F0BD2368002B06D1009B013B3C
:10471C000093029B043CA342F5D3009B3361C7E793
:10472C001A68002A06D1009A013A0092029A043BB8
:10473C009A42F5D3009B3361E2E70000F0B59DB0DF
:10474C0002920393029B039C08930994446A07000A
:10475C00259D002C0ED11020FFF7DEF9021E786289
:10476C0004D1EA21C74BC84801F0EAF944608460DF
:10477C000460C4607B6A196800290AD05A68012356
:10478C0093404A608B60380000F056FE00227B6A32
:10479C001A60039B002B20DA01232B60039B5B0028
:1047AC005B080993099DB94BB84A2B40934217D12A
:1047BC00B74B249A28031360029B000B184301D1BA
:1047CC0000F0BFFDB348269B0690002B02D0B24BE5
:1047DC00269A136006981DB0F0BD00232B60E1E70C
:1047EC00089B099C1293139412981399002200238E
:1047FC00FCF742FD041E09D00123249A1360A74B39
:10480C000693269B002BE5D0A54BE1E71AAB019351
:10481C001BAB00933800129A139B01F001F96E0048
:10482C000590760D00D17CE012981399139B9D4A4C
:10483C001B031B0B1A4311009B4B1894F6180022F8
:10484C009A4BFDF7F1FE9A4A9A4BFDF781FC9A4A76
:10485C009A4BFCF73FFD040030000D00FEF7CAFA3E
:10486C00974A984BFDF774FC02000B0020002900BE
:10487C00FCF730FD04000D00FEF786FA00220290D2
:10488C00002320002900FCF7FDFC00280BD0029827
:10489C00FEF7B0FA2B002200FCF7EEFC4342584125
:1048AC00029B1B1A029301231693029B162B0FD803
:1048BC0012981399DA00844B9B181A685B68FCF702
:1048CC00E1FC002849D0029B013B02930023169384
:1048DC001A9B9E1B00230A933300013B0D9304D5B6
:1048EC0001239B1B0A9300230D93029B002B36DBA9
:1048FC00029A0D9B944663440D93002315920E93DC
:10490C00229B0124092B64D8052B02DD0024043BD7
:10491C002293229B981E032864D8FCF713FB29389A
:10492C0036581A9B1B9A9E18684BF218202A0FDDDA
:10493C0040239B1A9D40664B0298F318D84028439D
:10494C00FEF788FA0123634C013E0919189376E7A8
:10495C00202302989B1A9840F2E71690B8E70A9B1E
:10496C00029A9B1A0A9353420E9300231593C7E79E
:10497C0000230F93239B0C930793002B13DC012331
:10498C001A000C93079323920DE00123F1E7002307
:10499C00239A0F939446029B63440C930133079321
:1049AC00002B00DC01230022786A426004321500DF
:1049BC00143541689D4219D9380000F0F9FC069075
:1049CC00002817D1D5210200434B4900CBE6012327
:1049DC00DEE700230F942293013B0C9307930022F4
:1049EC001333D0E701230F93023BF6E7013141600B
:1049FC005200DCE77B6A069A1A60079B0E2B00D9E3
:104A0C00EBE0002C00D1E8E0029B002B68DD1A00E3
:104A1C000F212D4B0A40D2009B181D685E68029B2B
:104A2C001C1102231093029BDB050BD52B4B0C4066
:104A3C001A6A5B6A12981399FCF788FF0323089093
:104A4C0009911093254B1493002C08D108980999BF
:104A5C002A003300FCF77AFF089009915CE00123EF
:104A6C001C420BD0109B280001331093149B310077
:104A7C001A685B68FDF76CFB05000E00149B641054
:104A8C000833E0E7AD6D0008C46D00080000F07F4E
:104A9C000F270000A96D0008AC6D00087C6D0008A4
:104AAC007D6D00080000F03F01FCFFFF0000F83FA7
:104ABC0061436F63A787D23FB3C8608B288AC63F18
:104ACC00FB799F501344D33FB86E000832040000AA
:104ADC0012040000000010FE1E6E0008906E00080C
:104AEC0002231093029B002B16D0129813995C4250
:104AFC000F23B64A2340DB00D3181A685B68FDF716
:104B0C0027FB0126002308900991B14D2411002C9C
:104B1C0000D094E0002B9FD1169B002B00D19BE082
:104B2C00089C099D002220002900AA4BFCF7AAFB37
:104B3C00002800D190E0079B002B00D18CE00C9B4F
:104B4C00002B46DD029B0022200029005E1EA24B9A
:104B5C00FDF7FEFA109B08900991013310930C9B02
:104B6C001098089C099D1493FEF744F922002B0021
:104B7C00FDF7EEFA0022994BFCF7ACFB109011916B
:104B8C00109A119B08920993954A119B9446634481
:104B9C0017930993149B002B61D10022200029004C
:104BAC00904BFDF741FD089A179B04000D00FCF794
:104BBC007DFB002800D0AFE28B48119984466144FC
:104BCC000B0020002900089AFCF75CFB002800D0A1
:104BDC009FE2129B139C089309941B9B002B00DAF9
:104BEC0072E1029A0E2A00DD6EE1784BD2009B181E
:104BFC005C681B680A930B94239B002B00DBF7E08B
:104C0C00079B002B00DDF3E000D082E20A980B99A1
:104C1C000022744BFDF79CFA089A099BFCF750FB99
:104C2C00079E3500002800D059E2069B069A0133F6
:104C3C00089331231370029B0133029354E23442E4
:104C4C0007D0109B013310932A686B68FDF780FA2C
:104C5C003300641008355AE7029E079B80E7149BCB
:104C6C000F995A1E594BD2009B181A685B68002981
:104C7C0051D000205D49FCF769FE089A099BFDF7AD
:104C8C00D3FC069A069B94461793149B1090119193
:104C9C006344199329002000FEF776F81490FEF770
:104CAC00A9F802000B0020002900FDF7BDFC179BA2
:104CBC00179A01330893149B040030331370109A25
:104CCC00119B0D00FCF7DEFA002875D122002B0099
:104CDC0000204049FDF7A8FC109A119BFCF7D2FA72
:104CEC00002800D0D2E0199B089A934200D170E7BB
:104CFC00109811990022384BFDF72AFA364B109078
:104D0C001191002220002900FDF722FA089B0400D3
:104D1C000D001793BEE708980999FDF719FA069A42
:104D2C00069B94460893149B10901191634419931D
:104D3C0029002000FEF728F81790FEF75BF8020018
:104D4C000B0020002900FDF76FFC179B089A3033ED
:104D5C0013701300199A013304000D000893934249
:104D6C002CD110981199069A149B944663440022F6
:104D7C0008931E4BFCF7AEFA02000B002000290032
:104D8C00FCF794FA002800D080E0109A119B0020C8
:104D9C001649FDF749FC02000B0020002900FCF726
:104DAC0071FA002800D114E7089B1A00013A089206
:104DBC001278302AF8D00893029655E00022064B60
:104DCC00FDF7C6F904000D00B2E7C046B86E000846
:104DDC00906E00080000F03F0000244000001C40D2
:104DEC000000C0FC000014400000C07C0000E03F4C
:104DFC00079B069E013B9B190C93089C099D0A9AE4
:104E0C000B9B20002900FCF7A1FDFDF7BDFF0790CF
:104E1C00FDF7F0FF0A9A0B9BFDF79AF902000B00C5
:104E2C0020002900FDF700FC3300079A01363032D0
:104E3C001A700C9A08969A4239D102000B00FCF7B2
:104E4C0049FA0A9A0B9B04000D00FCF72FFA002874
:104E5C001BD10A9A0B9B20002900FCF70DFA0028A5
:104E6C0002D0079BDB0710D43800059900F0E4FA58
:104E7C000023089A02981370249B01301860269B1B
:104E8C00002B00D1A6E41A60A4E4029E089B0893B0
:104E9C00013B1A78392A06D1069A9A42F7D1302268
:104EAC00069901360A701A7801321A7084E70022CA
:104EBC00AA4BFDF74DF90022002304000D00FCF76E
:104ECC00DBF900289BD0CFE70F9D0E9E0A9C002D8E
:104EDC0012D0229A012A66DC189A002A5DD0A04AC8
:104EEC009B180A9A0121D2180A920D9A3800D318ED
:104EFC000D9300F051FB0500002C0EDD0D9B002BDB
:104F0C000BDD0D9A2300944200DD13000A9AE41A7B
:104F1C00D21A0A920D9AD31A0D930E9B002B1FD006
:104F2C000F9B002B54D0002E11DD290032003800CD
:104F3C0000F0F8FB059A01000500380000F042FB78
:104F4C0005991490380000F077FA149B05930E9B8A
:104F5C009A1BB34204D03800059900F0E3FB05908E
:104F6C000121380000F018FB159B0600002B31DDE9
:104F7C001A000100380000F0D5FB229B0600012B23
:104F8C002DDD00230E93336903339B00F31858680F
:104F9C0000F0BAFA2023181A39E036231A9A0E9E1A
:104FAC000A9C9B1A9DE7079B5E1E0E9BB34207DB78
:104FBC009E1B079B0A9C002B93DAE41A002390E7B4
:104FCC000E9B159AF31AD3180E9615930026F0E73C
:104FDC000E9AC0E700230E93229B012B13DC0023B7
:104FEC000E93089B002B0ED1099B1B030BD15D4B21
:104FFC00099A134207D00A9B01330A930D9B013384
:10500C000D9301230E93159B0120002BBBD10D9BFF
:10501C001F22181803001340104246D00132D21A36
:10502C00042A3FDD1C22D31A0A9AE418D2180A92D9
:10503C000D9AD3180D930A9B002B05DD1A0038002E
:10504C00059900F0CBFB05900D9B002B05DD310085
:10505C001A00380000F0C2FB0600169B002B26D06D
:10506C003100059800F028FC002820DA029B0A2267
:10507C00013B029338000023059900F001FA0F9BC5
:10508C000590002B00D166E1002329000A2238008C
:10509C0000F0F6F90C9B0500002B47DC229B022B41
:1050AC000DDC43E0042AC6D013001C33BCE7079B7D
:1050BC00002B35DC229B022B32DD079B0C930C9BC7
:1050CC00002B0CD131000522380000F0D9F9060074
:1050DC000100059800F0F0FB002800DDA5E5239BFE
:1050EC00DB430293069B089300243100380000F048
:1050FC00A3F9002D00D1B7E6002C05D0AC4203D0AB
:10510C002100380000F098F92900380000F094F9DB
:10511C00AAE600263500E2E70296149E350084E5E7
:10512C000F9B002B00D1CEE0079B0C93002C05DDD0
:10513C0029002200380000F051FB05000E9B2800CE
:10514C00002B22D03800696800F032F9041E0FD110
:10515C000200054B0549FFF706FBC0460000244042
:10516C00330400000000F07F1E6E0008EA0200000D
:10517C0029002B690C319A1C92000C30FEF7D6FCDE
:10518C0001222100380000F029FB069B0C9A0A939F
:10519C00013B9B1801222C0005001493089B134023
:1051AC000F9331000598FFF73DFA030021003033CF
:1051BC000D900598079300F07FFB2A000E903100AC
:1051CC00380000F095FBC3680890109301230C93F2
:1051DC00109B002B04D10100059800F06DFB0C9086
:1051EC003800089900F028F90A9B0C9A01330893AF
:1051FC00229B13430F9A13430CD1079B392B26D0B8
:10520C000E9B002B02DD0D9B313307930A9B079AF3
:10521C001A706AE70E9B002B04DB229A13430F9A39
:10522C0013431FD10C9B002BF0DD05990122380094
:10523C0000F0D4FA3100059000F03EFB002803DCAE
:10524C00E4D1079BDB07E1D5079B392BDBD1392355
:10525C000A9A1370089B0893013B1A78392A68D074
:10526C000132D5E70C9B002B07DD079B392BEED0C9
:10527C00079B0A9A0133137037E70A9B079A1A7037
:10528C00149B0A9A93423ED000230A2205993800B7
:10529C0000F0F6F8002305900A2221003800AC42F9
:1052AC0006D100F0EDF804000500089B0A9378E79E
:1052BC0000F0E6F82900040000230A22380000F070
:1052CC00DFF80500F1E7079B0C93002431000598EB
:1052DC00FFF7A8F9069B303018550C9B013407904A
:1052EC00A34207DD00230A223800059900F0C8F814
:1052FC000590EBE70C9B0120002B00DD180000242F
:10530C00069B1B18089305990122380000F066FAD9
:10531C003100059000F0D0FA00289BDC02D1079BED
:10532C00DB0797D4089B0893013B1A78302AFAD0F4
:10533C00DBE6069A9A428ED1029B0133029331230B
:10534C0099E7094B269A0693084B002A01D0FFF7E0
:10535C003FFAFFF73FFA0C9B002BB6DC229B022B8B
:10536C0000DDACE6B1E7C046A06D0008A86D0008F2
:10537C000048704764010020C9B28218904201D1E4
:10538C000020704703788B42FBD00130F6E7000019
:10539C0010B5024800F003FC10BDC04644070020C5
:1053AC0010B5024800F0FCFB10BDC04644070020BD
:1053BC0070B5456A06000C00002D0ED11020FEF7CA
:1053CC00ABFB021E706204D16621194B194800F028
:1053DC00B7FB456085600560C560756AEB68002B9E
:1053EC0013D0736AA200DB689B181868002818D1C8
:1053FC0001210D00A5406A1D3000920000F074FBE5
:10540C0000280CD0446085600DE02122042130007E
:10541C0000F06AFB736AE860DB68002BE1D10020C6
:10542C0070BD02681A6000230361C360F8E7C046D0
:10543C00AD6D00082F6E000870B5466A05000C00B3
:10544C00002E0ED11020FEF767FB021E686204D1FD
:10545C008A21094B094800F073FB466086600660A0
:10546C00C660002C07D06B6A6268DB6892009B18E0
:10547C001A6822601C6070BDAD6D00082F6E0008AC
:10548C00F7B50E0001900C001D0000200F691436BA
:10549C003368013099B251431B0C534349190D0C1D
:1054AC005B191D0C89B21B045B1808C68742EFDC24
:1054BC00002D22D0A368BB4219DC63680198591CEB
:1054CC00FFF776FF061E05D10200B5210C4B0D48E7
:1054DC0000F036FB210023690C319A1C92000C3031
:1054EC00FEF724FB21000198FFF7A6FF34003B1DBB
:1054FC009B00E3185D607B1C23612000FEBDC04651
:10550C001E6E00082F6E00080300020C0020824261
:10551C0001D11B0410301A0E01D108301B021A0FD6
:10552C0001D104301B019A0F01D102309B00002BDA
:10553C0003DB01305B0000D42020704703680200BD
:10554C000721180008400B420DD0063900200B42F1
:10555C0005D10230034203D0CB40080013607047E2
:10556C009B081360FBE799B2002901D110201B0C9A
:10557C00D9B2002901D108301B0A190701D1043016
:10558C001B09990701D102309B08D907E9D40130D6
:10559C005B08E6D12020E2E710B50C000121FFF7F3
:1055AC0007FF002806D1A0210200044B0448490043
:1055BC0000F0C6FA01234461036110BD1E6E0008A1
:1055CC002F6E0008F0B50B69140012690D0089B03C
:1055DC00934201DA25000C002F6926696968BB1912
:1055EC000293AB68BA19934200DA0131FFF7E0FE7F
:1055FC000190002806D15E210200484B4848FF313B
:10560C0000F09EFA019B002214339C46BB199B00B0
:10561C0063440393634603998B422CD32B002200E3
:10562C001433BF0014320693B600DB19049393199C
:10563C000793042305932B00049915330092994288
:10564C0005D34B1B153B9B0801339B000593079B14
:10565C00009A9A4211D3029B002B06DD039B043B5C
:10566C0003931B680093002B53D0019B029A1800E4
:10567C001A6109B0F0BD04C3CDE7009B1B6898B25A
:10568C0000281BD067460024069E02CE3A688BB2D7
:10569C00434392B29B181B190C0C44433A68110CEF
:1056AC0061181C0C09190C0C9BB209040B4308C79C
:1056BC00049BB342E9D86346059A9C50009B1B6837
:1056CC001E0C20D063462C00604600271B68143447
:1056DC0022689BB291B271430268120C8918CF19DF
:1056EC0039040B43036002CC4368090C71439BB231
:1056FC003F0CCB18049ADB191F0C0430A242E7D8DC
:10570C00624605995350009B0433009304239C4438
:10571C009DE7029B013B02939DE7C0461E6E00086D
:10572C002F6E0008F7B50323150007000E001A4072
:10573C001D4208D02549013A9200525800233100ED
:10574C00FFF79EFE0600AD103DD07C6A002C0FD1F9
:10575C001020FEF7E1F9021E786205D1D7211C4B0F
:10576C001C48490000F0ECF9446084600460C4609B
:10577C007B6A9C680193002C08D138001649FFF70E
:10578C000BFF019B040098600023036001231D4262
:10579C000AD0310022003800FFF714FF31000190CD
:1057AC003800FFF749FE019E6D100CD020680028D0
:1057BC0007D1220021003800FFF704FF00232060EE
:1057CC0003600400E2E73000FEBDC046806F0008B5
:1057DC00AD6D00082F6E000871020000F0B50C00D2
:1057EC0017002369551187B0EB180293013301930D
:1057FC004968A3680490019A934210DB0498FFF760
:10580C00D7FD0023020006001900143298420CD177
:10581C00DA210200264B2748FF3100F091F90131C3
:10582C005B00E8E7980011500133AB42FADBEB4325
:10583C00DB171D401F2123003800AD0055192269CC
:10584C0014339200084084469A180F422AD0013132
:10585C00091A05910021039567461868B840014361
:10586C00039802C002CB03900598C1409A42F3D82A
:10587C00200015300423824204D3131B153B9B08D4
:10588C0001339B00E950002902D0029B02330193A3
:10589C00019B0498013B21003361FFF7CDFD3000E3
:1058AC0007B0F0BD02CB02C59A42FBD8F0E7C04668
:1058BC001E6E00082F6E000802690B6930B50400DB
:1058CC00D01A9A420DD19B0014341431E218C91825
:1058DC00043A043915680B689D4203D001209D429F
:1058EC0003D330BD9442F3D3FBE74042F9E7000009
:1058FC00F0B50E0007001100300087B01400FFF760
:10590C00DBFF051E10D101003800FFF751FD021E10
:10591C0004D1404B4049414800F012F90123456144
:10592C000361100007B0F0BD01230193002804DBD4
:10593C00230034001E000023019338006168FFF738
:10594C0037FD021E03D19021324B8900E3E7019B06
:10595C000027C360206914340194019B84001B1937
:10596C0034000293336914349900631803931300C1
:10597C0014339C460593019B0493049B02CC20CBCF
:10598C000493ABB2DF198BB2FB1A090C2D0C6D1AF8
:10599C0019146D1861462F149BB22D042B4308C1AA
:1059AC00039B8C46A342E8D83100039C1531042399
:1059BC008C4204D3A31B153B9B0801339B0001991C
:1059CC00CC1805992600CB189C4602998E4210D310
:1059DC00029EE11E00258E4204D3310003310C1BC4
:1059EC00A408A5005B19043B196800290FD01061AD
:1059FC0097E702CE8DB2ED190F0C291479180F14FC
:105A0C00ADB209040D43614620C18C46DDE7013877
:105A1C00E9E7C0461E6E0008320200002F6E000837
:105A2C00F7B5012114001E00089FFFF7C1FC051EED
:105A3C0005D10200264B2749274800F081F8330393
:105A4C0076001B0B760D24D10193002C27D06846D1
:105A5C000094FFF773FD009C00281ED0019B2021B1
:105A6C001A00091A8A40C34022436A610193019CBF
:105A7C00AC61631E9C4101342C61002E18D0174B75
:105A8C00F61835233618181A099B3E601860280042
:105A9C00FEBD802252031343D6E76C61E7E701A8F1
:105AAC00FFF74CFD0124019B2C616B612030E4E776
:105ABC000B4BC0180B4B3860E3189B00EB18586964
:105ACC00FFF722FD6401099B241A1C60DFE7C04626
