:020000040800F2
:1000000000900020451E0008951E000845100008BD
:1000100000000000000000000000000000000000E0
:10002000000000000000000000000000951E000815
:100030000000000000000000951E0008A510000848
:10004000951E0008951E0008951E0008951E0008C4
:10005000B5100008951E0008951E000855130008ED
:10006000951E00085D140008951E0008951E0008E6
:10007000C1130008D110000841110008F91100084F
:10008000951E0008A5130008951E0008951E00087F
:10009000951E0008951E0008951E0008951E000874
:1000A000951E0008951E0008951E0008951E000864
:0C00B000C9140008951E0008951E0008E9
:1000BC0010B5064C2378002B07D1054B002B02D032
:1000CC00044800E000BF0123237010BD7000002025
:1000DC000000000000360008044B10B5002B03D0C4
:1000EC000349044800E000BF10BDC04600000000FA
:1000FC007400002000360008F0B50124C0238440B1
:10010C000B4D5B00EC500700830803203840FF27A1
:10011C00AC46C026C0008740890181409B006344E7
:10012C00B6009A59BA430A439A512C60F0BDC046A6
:10013C0000E100E0F0B501224F46D64646460B687A
:10014C0000249146C0B5002B1AD14BE01700574341
:10015C007B00DB19DB43C568AC4666460D691E4067
:10016C007D433543C5604D68022D2DD07D4302681B
:10017C0013402B4303600B681A000134E24031D06A
:10018C004D461A00A5402A402B42F5D04B68013B46
:10019C00012BDBD81700574383688D6898467B008A
:1001AC009C467D43BC44AA4646466546AE43350054
:1001BC00564663462E438660CE6845685643954343
:1001CC003543DB434560C6E7FF2A10D83D007D432D
:1001DC00026A2E01761BB2434E6975432A430262B2
:1001EC004D68C3E7E0BCBA46B146A846F0BD120A5A
:1001FC0052435243456A1601B61AB5434E697243CF
:10020C002A4342624D68B1E710B511240200084838
:10021C000B00016AA14301628020064980008862BC
:10022C00DA38FF3888610449044802F0B1FDFEE772
:10023C00002C01400004005060380008843A00088B
:10024C00FA2170B5124C05008900206801F068FB9A
:10025C00802301385B04984201D3012070BDC0217A
:10026C000C4A090650600C48036A1B021B0A0B431C
:10027C0003620721002393601160032DEDD8026AFD
:10028C00A9071202120A0A43026218006560E5E728
:10029C000000002010E000E000ED00E010B50A00C6
:1002AC0002490348103102F073FD10BD603800089C
:1002BC00903A000810B50A0002490348203102F0B8
:1002CC0067FD10BD60380008903A0008002210B598
:1002DC00037844781C4205D1013292B202308A4232
:1002EC00F6D110BD02490348303102F051FDF8E758
:1002FC0060380008983A00084B1E9941012310B54C
:10030C0049429943002200230E3102F053FF10BDE5
:10031C0070B5060014001D00A93682B0FF3600929D
:10032C00019332687368A41A9D41002D04D1074BC8
:10033C009C4201D802B070BD08236A46132102F01A
:10034C0039FF009B019C33607460F3E7BFE1E4006C
:10035C00F0B5D6464F4646460300C0B5A533FF332D
:10036C00DD8902000020002D04D1E0BCBA46B14664
:10037C00A846F0BD987ADE889979002800D086E0EE
:10038C001C7A587A013C241A0120E4B29872490074
:10039C00D220400012581F7B5018565CDA7A4578F0
:1003AC009146C82A00D983E01100794802F0F0FC8C
:1003BC0001235B424B449846042F00D8A1E04B46E6
:1003CC00002B05D1734B744A1800744902F0F0FCF1
:1003DC00002C00D18AE07B01DB1B9801C01AFA23A8
:1003EC00C000C01980019B04984279D36C4800224C
:1003FC0006216C4B013CD8621C635A621A698A4311
:10040C001A61354200D0A1E00523334200D183E0CC
:10041C0042460221634B35435A63DA680A43DA6079
:10042C005A6901390A435A614022ED4301205E4B5F
:10043C009A61EBB2054200D0A1E05C4A02219062C5
:10044C000422082019401A400340002900D092E0F1
:10045C00022056498862002A74D10421534A9162C1
:10046C00002B55D02022514B9A6100235021504A29
:10047C004C4C53526363A36390693239002202F0EF
:10048C0099FE012223680120134323606DE701319B
:10049C009F88C8B2B84232D041005C7A187A0134D5
:1004AC00E4B201385C72844257D0002098726FE736
:1004BC00C821374802F06CFCC7239846042F87D814
:1004CC00344B3C4A18003C499A4602F071FC002C13
:1004DC000ED07B01DB1B9801C01AC000C019800133
:1004EC00FA21890001F01CFA013880E7294B9A4661
:1004FC00CE215046314A890002F05AFC6BE70021AC
:10050C00CBE7244B2B4A18002B4902F051FC56E741
:10051C002022264B9A62A8E742460421214B354300
:10052C009A63DA680A43DA605A6903390A435A61F2
:10053C00002D1ED140221C4B9A621C4B3E3A9961F5
:10054C009A6108230421194A916189E760211C4AA8
:10055C001048FF3102F02CFC56E700200136B6B2F1
:10056C005872B74201D0DE809FE7013DD880DD8113
:10057C009BE7ADB258E702200C4988616BE7082471
:10058C0002213C3A19401A402340084CA0615CE718
:10059C00B03A0008DC3A0008F03A000837030000D3
:1005AC00FEFF0000002C0140000800500004005029
:1005BC008C000020C83A0008360300000C3B0008F1
:1005CC00243B0008032310B5104C114A23616361CE
:1005DC00104BA261E36180239B0123620023A36281
:1005EC006362E36222660C4A0C4954326266102242
:1005FC00E01DA2662367E366636702F0D3FF200069
:10060C00074902F0CFFF2023A37110BD2421002045
:10061C00403B0008240100208C0000204C3B0008CB
:10062C00503B0008F8B54746CE4680B58368C56890
:10063C0099465B1B9846436804000E001700581936
:10064C00904507D9ED1902F0A7FEE560C0BCB9468C
:10065C00B046F8BD424602F09FFE4B463100ED1904
:10066C00ED1A2A006068414402F096FEE560EDE761
:10067C00F0B557464E464546DE46E0B5354B83B0A1
:10068C009A461B78060015000191002B56D0770076
:10069C00BB19DB0053441A6F9046DA6E91469045B5
:1006AC0025D8130042462C009B1A9D4209D8002CD9
:1006BC0009D1200003B0F0BCBB46B246A946A04607
:1006CC00F0BD1C1EF5D0A146BB19DB005344596E7E
:1006DC00220041440198A04402F05EFE4C46002CDE
:1006EC00E7D04346BF19FF0057443B67E1E742465A
:1006FC009B6E2C009B1A9D4227D8BB19DB005344E0
:10070C009B46596E22004144019802F045FE5B461F
:10071C009B6EA0442D1B434519D04B4642469B1A59
:10072C0099464D450DD8002DD9D0019BA1469C462C
:10073C00A44463462C000193A944C5E7FFF742FF8C
:10074C00A5E74D46002DCAD0EFE71C00D5E70023E6
:10075C009846E6E724210020F8B557464E46DE467B
:10076C0045468946411CE0B517004A005218030063
:10077C00D2009246344A5E0093461000F618F600FA
:10078C005E44F36A50449846012B0CD0022B27D0C0
:10079C00002B17D0002398464046F0BCBB46B2460F
:1007AC00A946A046F8BDB36A726A934247D9013B89
:1007BC009B1AB8469F4200D9984642464946FFF7D5
:1007CC0031FFE9E7B36A726A934233D9013B9B1A52
:1007DC009F42E1D83A004946FFF724FFB846DBE7D1
:1007EC000023746A98461DE0013B356A1B1BBB4213
:1007FC0000D93B002D1B9D4200D91D005B46534484
:10080C0058682A004946001902F0C6FD336A64197B
:10081C00E31A5A1E93415B421C40A844A9447F1B17
:10082C007462B9D0B36AA342DED8356A5B19013B56
:10083C001B1BDCE7316A5B18013B9B1AC8E7316A6A
:10084C005B18013B9B1AB4E724210020F0B5C64687
:10085C0000B5856843686A1C04009A4207D803688F
:10086C0059551500C36882600133C36043689D42CB
:10087C0002D080BCB846F0BD2368276998460E4B61
:10088C001B78002B15D0EFF31086012181F3108813
:10089C002A0041463800FFF75FFF86F31088A368F3
:1008AC00834203D001235B42E360E2E70023A360B1
:1008BC00DFE7FFF787FEE6E724210020F0B54E4680
:1008CC0045465746DE46E0B583B09A460C9B8046BB
:1008DC000E0015009946914200D27DE008000127D8
:1008EC00290001F01DF801378542F9D9574500D28E
:1008FC00574601230D9A1A4001920D9A13424ED17C
:10090C004B46002B4BD0130020249B075ED44F4545
:10091C0045D201235B429C4621004046E144FFF74F
:10092C0095FF4346DB68002B32DB4B46002BEED1A8
:10093C0053460124012B07D901235B429C46E24418
:10094C0053466C43012BF7D82100300000F0E8FF30
:10095C008542F5D9214B9B4650239A4606E0290047
:10096C00200000F0DDFFAC420FD30400300021006A
:10097C0001F05CF8534658440E00C15C4046FFF74A
:10098C0065FF4346DB68002BE9DA019B002B19D18C
:10099C0003B0F0BCBB46B246A946A046F0BD4346E8
:1009AC00DB68002BC4DAF3E74F45F1D201235B423D
:1009BC009C4620214046E144FFF748FF4346DB6854
:1009CC00002BE5DB4B46002BEED1E1E753465C42B6
:1009DC005C41240120349AE7012787E7603800083E
:1009EC0070B5050008000C0002F09AFCC31FDBB2C6
:1009FC000D2B03D828499B00CB589F462749020052
:100A0C007431274802F0C4F970BD200002F08AFC52
:100A1C0004682448210002F0BBF9022CF4D1D8233D
:100A2C0000225B00EA54EFE7D2235B00E858002277
:100A3C0000231B2102F0BEFBE6E7200002F072FC53
:100A4C00002341680068184A01F00AF904003C21AF
:100A5C00200000F0EBFF20000E003C2100F060FFB6
:100A6C003C2100F0E3FF0D00E1212000090100F022
:100A7C0057FF330001002A000C4802F089F9C3E744
:100A8C00D02306495B000A486031EC5802F080F92B
:100A9C00E2230022E254B7E7183600086038000859
:100AAC00883B0008703B000840420F00583B000890
:100ABC00843B000870B5050008000C0002F030FC07
:100ACC0020280DD8214A800013589F4620492148E0
:100ADC00043102F05DF92800FFF73AFC002070BDEC
:100AEC00200002F01DFC1A49020004311A4802F0E1
:100AFC004FF90020F3E716491848043102F048F981
:100B0C000020ECE7200002F00DFC154A4188838898
:100B1C00008853434A43C10109180901091A9B0B68
:100B2C001048920B890A02F033F90020D7E728000D
:100B3C00FFF70EFC03000020002BD0D10A4802F076
:100B4C0027F90A48CBE70A48C9E7C04650360008DF
:100B5C00E0380008943B0008F03B0008A03B00087C
:100B6C004DCE0000C83B0008AC3B00083D0C000813
:100B7C00810B000870B5050008000C0002F0D0FBDA
:100B8C00202803D8194A800013589F46200002F0F1
:100B9C00C7FB174902001431164802F0F9F800207F
:100BAC0070BD13491448143102F0F2F80020F7E735
:100BBC000F491248143102F0EBF80020F0E710480E
:100BCC0002F0E6F80F48EBE7D9235B00EB5A002B59
:100BDC0006D10D4802F0DCF80C48E1E70020DFE715
:100BEC000B4802F0D5F80020DAE7C046D4360008EE
:100BFC00E0380008F03B0008943B0008A03B0008DC
:100C0C00143C0008C10A0008AC3B00083D0C00086D
:100C1C00243C000810B5040002F0C8FA002800D1EA
:100C2C0010BDD2235B00E05802F0C0FAF8E7C046D2
:100C3C0070B5050008000C0002F072FB202803D8E8
:100C4C002D4A800013589F46200002F069FB2B4967
:100C5C00020020312A4802F09BF8002070BD274C7E
:100C6C0028482100203102F093F8D22312225B0095
:100C7C002C34EC500433EA50234A0433EA50A535A3
:100C8C00943BFF35FF3B2B730F3B0020EB81E5E7DB
:100C9C001A491E48203102F07BF80020DEE72000C4
:100CAC0002F040FB1A4A41888388008853434A4328
:100CBC00C10109180901091A9B0B1648920B890AE4
:100CCC0002F066F80020C9E7D9235B00EB5A002B31
:100CDC000BD01148C2E7114802F05AF80020BDE7CA
:100CEC000F4802F055F80020B8E70E486D210E4A67
:100CFC0002F05EF80848B1E758370008E038000801
:100D0C00F03B0008943B000805000050A03B000895
:100D1C004DCE0000C83B0008C10A0008743C000816
:100D2C00943C0008643C0008443C0008F8B50600FC
:100D3C00C83605000122300002F004F9012804D065
:100D4C008021244A244802F033F872B6BFF34F8F47
:100D5C00BFF36F8F4827214CE35DFF2B2BD048222C
:100D6C0001333000A35402F067F800280FD0482557
:100D7C00635D002B18D04822013BDBB2A354002B3F
:100D8C0004D1BFF34F8FBFF36F8F62B6F8BDDD2375
:100D9C00EA56012A17D0482511491248503101F062
:100DAC00F7FF635D002BE6D10F4A1049104801F0A4
:100DBC00FFFF635DDFE7A3210E4A0D48890001F0B8
:100DCC00F7FFE35DCBE780210B4A13688B4313607D
:100DDC00CDE7C046AC3C0008B83C00088C000020B5
:100DEC00E0380008EC3C0008083D000893020000C5
:100DFC00DC3A0008C43C00080044004070B5D02622
:100E0C007600835904009847051E1BD0A65902F0A2
:100E1C0069FA01002000B047002804D0D3210A4A07
:100E2C000A4801F0C5FFD0235B00E55002F04CFAF4
:100E3C0001002000A847002804D0D621024A03480C
:100E4C0001F0B6FF70BDC046283D0008643C0008A8
:100E5C00F8B50400DC25D820DE26635D5A1C6255EB
:100E6C002258D154615DA35B994206D327580DD00B
:100E7C00E022A05A1B18994201D00020F8BDDC23B7
:100E8C0000223800E25402F051F9F7E7380002F082
:100E9C0027F9002807D0380002F042F9E023E0528D
:100EAC00615DA35BE6E7635D013BDBB26355002B41
:100EBC00E3D00023D825DC306259D1184978D154BD
:100ECC00225C0133DBB29A42F6D8D6E7F8B5CE46AF
:100EDC004746DE2280B50B006946865A00AFF21DEC
:100EEC00D208D2008A1A9546E3220400825C0121C2
:100EFC00684602F0C1F8E84672B6BFF34F8FBFF3F5
:100F0C006F8F4823234D9946EB5CFF2B32D0482240
:100F1C0020000133AB5441463200C83001F094FF3D
:100F2C00002813D148242B5D002B1CD04822013BF8
:100F3C00DBB2AB54002B04D1BFF34F8FBFF36F8FD9
:100F4C0062B6BD46C0BCB946B046F8BDDD23E2561C
:100F5C00012A18D0482410491048503101F018FFCC
:100F6C002B5D002BE2D10E4A0E490F4801F020FFF9
:100F7C002B5DDBE7A3210D4A0B48890001F018FF1C
:100F8C004B46EB5CC3E78021094A13680B431360A3
:100F9C00C8E7C0468C000020E0380008EC3C000894
:100FAC00083D000893020000DC3A0008C43C00082D
:100FBC0000440040F8B5060008000C0002F0BAF836
:100FCC000500200002F0ACF80700200002F0AEF89B
:100FDC0002F044F83B002A000100044801F0D8FE5E
:100FEC0029003000FFF772FFF8BDC046343D000801
:100FFC0070B5E225435D0400002B0AD10A2905D007
:10100C00C9B2FFF725FF03280ED070BDFFF75EFFB6
:10101C00FBE7C9B2FFF71CFF0028F6D0D82320004D
:10102C00E158FFF7C7FFF0E7D8232000E158FFF79E
:10103C00C1FF01236355E8E7112110B50F4A104891
:10104C00136A8B43136280220E4B92009A62DA3A37
:10105C00FF3A9A610C490D4B64315A6801F098FEC5
:10106C000B4C0122210064230A486431E25401F044
:10107C008FFE6422A35C002BFCD110BD002C014020
:10108C00643D000800040050E038000800ED00E06A
:10109C008C000020743D0008024A936E0133936665
:1010AC007047C0468C00002010B5EFF30582034951
:1010BC000348783101F06CFE10BDC046E0380008E2
:1010CC00903A0008012210B5144B19690A421DD040
:1010DC000620196891431960D9688143D960196950
:1010EC0001308143196140210D4B99620D4B203920
:1010FC009A6101329A6102329A611C329A610A4BEE
:10110C0000229869002302F055F810BD07491A69AE
:10111C000431074801F03CFEF7E7C046002C0140C3
:10112C0000080050000400508C00002060390008BA
:10113C00AC3D0008022210B5244BD9680A4202D0FB
:10114C0019690A4235D1224C0422204BD9680A4233
:10115C0002D019690A4220D150221C4BA25A1B6B97
:10116C0001339A4212D0194B1A491A690A4200D11A
:10117C0010BD1B691848194001F00AFEEFF30582F7
:10118C0016491748783101F003FEF1E700230022DD
:10119C001F21A06902F00EF8E5E719691148914387
:1011AC0019615023E15A013189B2E15201F0F0FD8D
:1011BC00D2E71969064C914319615023E15A0A4848
:1011CC00013189B2E15201F0E3FDBDE7002C014091
:1011DC008C000020E0FF0C00AC3D0008E03800085B
:1011EC00903A0008C43D0008B83D0008F8B58023CB
:1011FC000222DB0519690A420FD101211A69114239
:10120C0003D01A698A431A61F8BDEFF305822749A6
:10121C002748783101F0BCFDF6E71969254C91435C
:10122C0019612568666872B6BFF34F8FBFF36F8F75
:10123C004827E35DFF2B31D048215A1CD2B26254AF
:10124C008021C905E06E496AE166884202D9216FA6
:10125C0001312167002A17D04822A354002B04D156
:10126C00BFF34F8FBFF36F8F62B6236FE26E990798
:10127C0092080A439B083000A8478022D205536B82
:10128C00A1685B185363BFE70B4A0C490C4801F08B
:10129C008FFD4823E35C013BDBB2DDE7A321094A68
:1012AC000748890001F084FDE35DC5E7E0380008DC
:1012BC00903A00088C000020083D000893020000C2
:1012CC00DC3A0008C43C000870B548250B4C635D43
:1012DC00002B0BD04822013BDBB2A354002B04D1D2
:1012EC00BFF34F8FBFF36F8F62B670BD044A0549D1
:1012FC00054801F05DFD635DECE7C0468C00002005
:10130C00083D000893020000DC3A000870B572B684
:10131C00BFF34F8FBFF36F8F4825084C635DFF2BD6
:10132C0003D048220133A35470BDA321044A0548BD
:10133C00890001F03DFD635DF3E7C0468C000020A1
:10134C00C43C0008DC3A0008102210B50E4BD968DA
:10135C000A4211D119690A4207D1EFF305820B49F0
:10136C000B48783101F014FD10BD0A4800211A61B8
:10137C000C3001F039FDF7E706480121DA600C303A
:10138C0001F032FDF0E7C04600180240E0380008DA
:10139C00903A00088C00002010B5EFF30582034949
:1013AC000348783101F0F4FC10BDC046E038000869
:1013BC00903A0008102210B51C4B19680A421AD139
:1013CC00012219680A4211D1802219689201114236
:1013DC0022D1042219680A4223D1082219680A4230
:1013EC000ED01A60124801F0D3FC03E011481A60C9
:1013FC0001F0CEFC10BD1A600F4801F0C9FCF9E7F2
:10140C0019680E4801F0C4FCEFF305820C490D4835
:10141C00783101F0BDFCEDE71A600B4801F0B8FC27
:10142C00E8E71A60094801F0B3FCE3E70024014047
:10143C00143E0008E03D0008D03D0008203E0008A6
:10144C00E0380008903A0008EC3D0008083E00081F
:10145C00022310B5134C2268134218D108232268BA
:10146C00134208D1104922681048243101F090FC35
:10147C000423636010BD0C49636024310C4801F0F7
:10148C0087FC01210B4A13680B431360F2E763607E
:10149C00094B15211A0098694A32062301F08AFE7D
:1014AC00E8E7C04600000240603900083C3E0008F6
:1014BC00303E0008080002408C00002010B50D4B97
:1014CC00DA69920610D4DB691B0605D50A4B0B4969
:1014DC00986B5B6B984710BDEFF305820849094880
:1014EC00783101F055FCF6E70348596A1C3001F0DD
:1014FC007BFCF0E7004400408C00002028440040B6
:10150C00E0380008903A000870B572B6BFF34F8F00
:10151C00BFF36F8F48251B4C635DFF2B29D04821EF
:10152C005A1CD2B262548021C905E06E496AE16648
:10153C00884202D9216F01312167002A0FD048223D
:10154C00A354002B04D1BFF34F8FBFF36F8F62B640
:10155C00216FE06E8B0780081843890870BD0A4A1A
:10156C000A490B4801F024FC4823E35C013BDBB245
:10157C00E5E7A321074A0648890001F019FC635DE1
:10158C00CDE7C0468C000020083D00089302000007
:10159C00DC3A0008C43C00087047C04610B50B008C
:1015AC00EFF31084012181F310881900FFF760F824
:1015BC0084F3108810BDC04610B582B0EFF31084D0
:1015CC00012181F310886B460122D91D0020FFF701
:1015DC004FF884F31088012803D16B46D87902B0F8
:1015EC0010BD01204042FAE710B5FEF7EBFF10BD2D
:1015FC00F0B5DE464E4657464546E0B59BB00AABC5
:10160C0005934023069300230793089301330C00A2
:10161C0091469B460290099005E005A8FFF716F944
:10162C000898002859DB2178013400295CD0252941
:10163C00F3D122001378002602250820140021394A
:10164C002D2B0CD02D2B0ED8232B11D02B2B00D0C7
:10165C005FE10E430132137814002D2BF2D15B465F
:10166C0001321E43F7E7302B05D12E430132F2E74E
:10167C0006430132EFE71A00303A0025092A0DD84B
:10168C001A00AB005B1901345B009B182278303BCD
:10169C001D001300303B092BF3D913002E2B00D166
:1016AC00D8E000272378042101E0637801341A0084
:1016BC008A43682AF9D0252B07D0583BDBB2202B64
:1016CC0007D8954A9B00D3589F46252105A8FFF7BC
:1016DC00BDF8089801340028A5DA1BB0F0BCBB4655
:1016EC00B246A946A046F0BD08980028F5DD079C37
:1016FC00002C00D0C6E00019EFE74B4649461B68AA
:10170C0005A81A1D0A60196810223B000196009565
:10171C00FFF7D4F801340898DDE74B4649461B68BF
:10172C0005A81A1D0A6019680A223B00019600954B
:10173C00FFF7C4F801340898CDE74B4649461B68BF
:10174C001A1D0A601D6805E005A8FFF77FF80898C8
:10175C000028BFDB297801350029F5D10898B9E7B5
:10176C004B4649461B6805A81A1D0A6019680023D8
:10177C000193083310220093FFF7A0F80134089866
:10178C00A9E74B4649461B681A1D0A601B68DA1705
:10179C0098180393012350409A4609280DDDAA4658
:1017AC00A0461D000A210400013500F06FF9632CDE
:1017BC00F8DC2B00444655469A46B846574575D337
:1017CC00002D36D0039B002B74DB730772D4B30748
:1017DC0001D5002F2DD05B4633422AD1002D28D0C5
:1017EC004346A0461C00AC4220D205A82021FFF79E
:1017FC002DF80898013D002800DA87E0002DF2D181
:10180C00230044469846039B002B58DB730761D496
:10181C0003233340022B62D005A83B000A22039914
:10182C0001960095FFF74AF8089853E723004446C1
:10183C00984608980028E6DA01344CE74B464946AE
:10184C001B6805A81A1D0A601978FEF7FFFF013402
:10185C00089840E76378621C19003039140000279F
:10186C00092900D91FE71A00BB00DB1901345B0002
:10187C009B182278303B1F001300303B092BF3D907
:10188C00130010E7254B1B78002B15D0EFF31085B8
:10189C00012181F31088220002980AA9FEF75CFF4F
:1018AC0085F310880898079C001916E7D046002D80
:1018BC00BFD087E7013D8AE7FEF784FEE6E75B428F
:1018CC002D2105A80393FEF7C1FF089800289FDA85
:1018DC00013400E72B2105A8FEF7B8FFF5E7002F30
:1018EC009AD10AE0A8450CD205A83021FEF7AEFF2C
:1018FC000898013D002800DAECE6002DF2D1002515
:10190C008AE70898002887DA0134E4E64446013473
:10191C00E1E60025C5E6C046DC370008242100209E
:10192C00002243088B4274D303098B425FD3030A12
:10193C008B4244D3030B8B4228D3030C8B420DD325
:10194C00FF22090212BA030C8B4202D312120902B3
:10195C0065D0030B8B4219D300E0090AC30B8B42F1
:10196C0001D3CB03C01A5241830B8B4201D38B039F
:10197C00C01A5241430B8B4201D34B03C01A524144
:10198C00030B8B4201D30B03C01A5241C30A8B4287
:10199C0001D3CB02C01A5241830A8B4201D38B0272
:1019AC00C01A5241430A8B4201D34B02C01A524116
:1019BC00030A8B4201D30B02C01A5241CDD2C30988
:1019CC008B4201D3CB01C01A524183098B4201D304
:1019DC008B01C01A524143098B4201D34B01C01AEF
:1019EC00524103098B4201D30B01C01A5241C30867
:1019FC008B4201D3CB00C01A524183088B4201D3D6
:101A0C008B00C01A524143088B4201D34B00C01AC1
:101A1C005241411A00D20146524110467047FFE72D
:101A2C0001B5002000F006F802BDC0460029F7D031
:101A3C0076E770477047C04610B5002903D100F017
:101A4C0007F8203002E0080000F002F810BDC04694
:101A5C001C2101231B04984201D3000C10391B0AD2
:101A6C00984201D3000A08391B09984201D3000996
:101A7C00043902A2105C40187047C04604030202ED
:101A8C0001010101000000000000000003460B43AF
:101A9C007FD4002243088B4274D303098B425FD35B
:101AAC00030A8B4244D3030B8B4228D3030C8B4287
:101ABC000DD3FF22090212BA030C8B4202D312126D
:101ACC00090265D0030B8B4219D300E0090AC30B42
:101ADC008B4201D3CB03C01A5241830B8B4201D3EF
:101AEC008B03C01A5241430B8B4201D34B03C01AD8
:101AFC005241030B8B4201D30B03C01A5241C30A50
:101B0C008B4201D3CB02C01A5241830A8B4201D3C0
:101B1C008B02C01A5241430A8B4201D34B02C01AAA
:101B2C005241030A8B4201D30B02C01A5241CDD24F
:101B3C00C3098B4201D3CB01C01A524183098B429A
:101B4C0001D38B01C01A524143098B4201D34B0183
:101B5C00C01A524103098B4201D30B01C01A5241E6
:101B6C00C3088B4201D3CB00C01A524183088B426D
:101B7C0001D38B00C01A524143088B4201D34B0056
:101B8C00C01A5241411A00D20146524110467047C8
:101B9C005DE0CA0F00D04942031000D340425340CD
:101BAC0000229C4603098B422DD3030A8B4212D38D
:101BBC00FC22890112BA030A8B420CD389019211BF
:101BCC008B4208D3890192118B4204D389013AD0FC
:101BDC00921100E08909C3098B4201D3CB01C01AD1
:101BEC00524183098B4201D38B01C01A52414309E4
:101BFC008B4201D34B01C01A524103098B4201D3D2
:101C0C000B01C01A5241C3088B4201D3CB00C01A3E
:101C1C00524183088B4201D38B00C01A5241D9D256
:101C2C0043088B4201D34B00C01A5241411A00D2D7
:101C3C000146634652415B10104601D34042002BD3
:101C4C0000D54942704763465B1000D3404201B552
:101C5C000020FFF7EFFE02BD0029F8D016E7704711
:101C6C00002B11D1002A0FD1002900D1002802D05D
:101C7C000021C943080007B4024802A14018029091
:101C8C0003BDC046B1FDFFFF03B4684601B5029821
:101C9C0000F006F8019B9E4602B00CBC7047C04693
:101CAC00F0B557464E464546DE46E0B504000D00FD
:101CBC009246994683B08B4230D82DD04946504637
:101CCC00FFF7BAFE290006002000FFF7B5FE331A15
:101CDC009846203B9B4633D45A4653469340424643
:101CEC001F00534693401E00AF423AD8AF4200D17A
:101CFC0078E05B46A41BBD41002B00DA75E00022A6
:101D0C0000230092019301235A469340019301232F
:101D1C0042469340009328E08242CFD90022002310
:101D2C00009201930C9B002B01D01C605D6000980D
:101D3C00019903B0F0BCBB46B246A946A046F0BD23
:101D4C00424620239B1A5246DA40414613004A462B
:101D5C008A40170042461F43534693401E00AF4231
:101D6C00C4D900220023009201934346002BD9D002
:101D7C00FB0772081A4346467B080EE0AB4201D1C2
:101D8C00A2420CD8A41A9D41012024196D410021B6
:101D9C00013E24184D41002E06D0AB42EED9013E37
:101DAC0024196D41002EF8D1009801995B46001959
:101DBC006941002B24DB2B005A464446D3402A00B1
:101DCC00E2401C005B461500002B2ADB26009E40DF
:101DDC00330026004746BE403200801A99410090DD
:101DEC0001919FE7A342BCD883E742462023002100
:101DFC009B1A0022009101920122DA40019286E79F
:101E0C00424620239B1A2A0046469A402300F34060
:101E1C00444613432A00E2401C005B461500002B8D
:101E2C00D4DA42462F002023260097409B1ADE402E
:101E3C003B003343CDE7C0460D488546FFF7ACFB6E
:101E4C000C480D490D4A002302E0D458C450043309
:101E5C00C4188C42F9D30A4A0A4C002301E01360DF
:101E6C000432A242FBD301F05FFA00F00FF8FEE758
:101E7C0000900020000000206C000020B040000802
:101E8C007000002004220020FEE70000F0B5DE46C2
:101E9C0057464E464546E0B5914CA54400F074FFBC
:101EAC00904800F075FF07228F4B00215A63A02445
:101EBC000D3215A801F079FA0223E40518932000DD
:101ECC000E3314A91493FEF735F9149A23691340B1
:101EDC009A4206D1854B1B6883F30888844B1B6898
:101EEC0098470323A0269A4615930023F605984697
:101EFC003000189314A943331493FEF71BF92023D5
:101F0C00300014A914938024FEF714F943460127DA
:101F1C00784D1793A4000233280015971693149448
:101F2C0014A9AC629946FEF705F940237248149344
:101F3C0014A98361FEF7FEF8272328001797149342
:101F4C0014A9AB61FEF7F6F84B461593199343466B
:101F5C00C02517935346AD00169314953000B56207
:101F6C0014A9FEF7E7F80C23300014A91997149361
:101F7C00FEF7E0F880215C4B09065A6D01209200B7
:101F8C0092080A435A655D4ADA635D4A1A649A6B91
:101F9C0017439F635B4B1A6815431D605A4DFEF740
:101FAC004FF92B68594A5A4913401C432C60594C21
:101FBC0023685800C0184000FFF7B2FC80226B6900
:101FCC00D2000130134202D105E0002803D06B6926
:101FDC0001381342F9D180214B4A490013680B4355
:101FEC00136013680B42FCD002213F4A4A4BD36565
:101FFC00D36D1942FCD0382391680B40D168102B5B
:10200C0000D1EBE3002B00D0ECE313684349536899
:10201C0019408023DB010B435360136840490B408C
:10202C00136013683F4A9B045B0FDA4022606068C0
:10203C00FEF706F93C4D002832D138212A4A936824
:10204C000B40102B01D100F0CEFD136837490B402B
:10205C0080211360A86E890403E0AB6E1B1A022B5F
:10206C001ED813680B42F8D1D36831491940314B53
:10207C000B43D360802311685B040B4313608023F4
:10208C00D1685B050B43D3608022A86E164992047D
:10209C0003E0AB6E1B1A022B02D80B681342F8D06C
:1020AC000623184A1168194201D100F0BFFCE02345
:1020BC000D4ADB0191680B43936093681E490B40FA
:1020CC00936013689B016AD5072193681B488B4367
:1020DC00190002230B4393603821AE6E34E0C046E6
:1020EC00F4FDFFFF4C3E0008001002400000FF1FF3
:1020FC000400FF1F000400500008005003000230D1
:10210C00010812000020024000700040FFF9FFFFA0
:10211C0040420F000000002009800000FF80FFFFFC
:10212C00FFC7FFFF0024F4008C000020FFFFFFFE20
:10213C008C80C11132301646FFF0FFFF881300006F
:10214C00AB6E9B1B83422AD893680B40102BF7D1A4
:10215C000721F44A13680B40022B01D900F014FD3F
:10216C00F14BF2499A680A409A60382299681142F8
:10217C0001D000F0A0FC1B68ED489B045B0FD8401D
:10218C00E94BEC4A9B681B051B0F9B00D3181F22C5
:10219C001B6C1340D84020606068FEF751F8E64A8B
:1021AC00E6491368E6480B401360E64B2268196851
:1021BC000905090D00F0ECFD84201022E24B1958A2
:1021CC009143195004381958114319501968114387
:1021DC00196059680A435A60DC4B1A68D20307D459
:1021EC001A68DB490A401A60DA6BDA490A40DA638A
:1021FC008023D64A5B02116801260B4313603F22F1
:10220C00D54909200B6893431A00052313430B602F
:10221C00D24BD3491A681140D24A0A431A602A0099
:10222C00D1494A3299600321DA605A68120C1204BF
:10223C000A435A60CD4A5660022219680A431A6052
:10224C00082219680A431A601A68310032431A606E
:10225C00FDF752FFC64B9A68324207D1DA68C5497E
:10226C000A40DA601A69920092081A618021C04B08
:10227C008903DA680A438021DA6089011A680A4204
:10228C00FCD0196007215A698A43110002220A43C3
:10229C0070215A615A698A43110050220A430F2156
:1022AC005A619A6A8A439A625A69A4490A405A61E5
:1022BC009A6AF231FF318A43110010220A438021BD
:1022CC009A625A6989000A435A619A6AAA4911406A
:1022DC00C022D2000A4380219A625A69C9010A437A
:1022EC005A619A68A5491140802252050A439A60A6
:1022FC00A3492068FFF714FB142343430A930A9B5A
:10230C00002B05D00A9B013B0A930A9B002BF9D1A9
:10231C00974B9C499A681140802212060A439A6096
:10232C009A68002AFCDB802212011A6020230A938F
:10233C000A9B002B05D00A9B013B0A930A9B002B9E
:10234C00F9D180238A4E9B053269032113433361F3
:10235C0011230C207360FDF7CFFE0121F368F368A5
:10236C00B3680B4200D12FE3874800F011FD012622
:10237C007F4B86491A6914A8B2431A611A690A403C
:10238C001A619A687F490A4032439A60C8224923ED
:10239C00520018A9EE5400F0F3FEE42000F0E8FF20
:1023AC000700C8223900C83000F02AFDDD239A4608
:1023BC0052462233BB54A133984628214246DA2098
:1023CC000AAB5B189F50400000F0D2FF0300C822FC
:1023DC00103319005200070000F0D2FE42466C4B3D
:1023EC002068BB506649AF61FFF79AFA694B013818
:1023FC00994698629A6A684B684819009B4600F0A7
:10240C00C7FC4A46664B0021936111230D201362D1
:10241C005660FDF771FE00210E20FDF76DFE4A4659
:10242C008423136088231B02D66028215364D22393
:10243C000AAA52185B00D750002200237E927F9389
:10244C00D8230AAA52180F0059465B00D6541C31E7
:10245C00544800F09DFC20685349FFF761FA802333
:10246C00524ADB05013898625A63102202219A61A4
:10247C001A6A32431A62DA680A43DA604C4A2A60F2
:10248C0014AA6A60FA221201AA6003225869024354
:10249C005A610F201E60FDF72FFE42460AABDB1976
:1024AC009C585346E35C7F2B00D8B6E2414B079314
:1024BC00414B089300F0D0FDDE23E0528023DB007B
:1024CC009C46604400F054FFD823DC22E0500023EB
:1024DC00A3540632A352144A384B516D49270B436F
:1024EC0053658B23364EF3603268364B134333609F
:1024FC00EB5D012B00D978E202211C20FDF7FCFDDD
:10250C00EB5D5A1CEA55DD225BB29046A354002BBE
:10251C0000DA70E20BAB220018002B49039300F099
:10252C005DFC53E00020024000100240FF8FFFFFD3
:10253C000024F4006039000800700040FFFEFFFF2B
:10254C00603E000800580140001802400074004032
:10255C00FFFF03FFFFFFF8FF0008024008000240E6
:10256C000F80FFFFA0250000402401400000024026
:10257C0000240140C73FFFFFFFF0FFFFE8FFFF6FA4
:10258C0040420F00E8FFFF7F803E0008FFFFFFDFA7
:10259C003D0C0008002C0140E03900089C3E00086E
:1025AC0068680000843B000800093D00801A0600A2
:1025BC001D030008A83E0008B83C000808000C00E9
:1025CC000044004001000020FD0F00080EAB22006B
:1025DC001800DF49099300F001FC11AB1800220030
:1025EC00DC49019300F0FAFB4346E356012B00D182
:1025FC009CE2DD23E256D84BDD271E000593D74B1A
:10260C005036310018009846069300F0C1FBE25793
:10261C00012A00D1B2E23100404600F0B9FBE2578A
:10262C00012A00D1AAE23100404600F0B1FB94230C
:10263C0014AAEA501133FF33994628214A465846CA
:10264C000AAB5B189B58383024399846FDF73EFE90
:10265C00584602214030FDF739FE059C12212C34DE
:10266C002000FDF733FE43464A469C50D423414696
:10267C009D3A5B00FF3ACA50B94A0433CA504646E9
:10268C00B84A002792462A004546853B4E44FF3BFC
:10269C003373273BF3810292F288B07AD1B20028CF
:1026AC0000D0C9E0347A737A013CE41A0123E4B215
:1026BC00B3724B46EB585A469C46490061444878E5
:1026CC00443283001B180878D3188100091852185B
:1026DC005046210000F05CFBF3893F19002BDBD145
:1026EC00A846029B3900A0481D0000F051FBD023E6
:1026FC0042465B00D45800F0E7FD01004046A0477D
:10270C0014AA9A49019800F069FB2B000C3316C8E7
:10271C0016C303210720FDF7EFFC9549954800F0FF
:10272C0037FB954800F034FB944B954918009946BB
:10273C0000F02EFB934B944AD8265A61934BD22728
:10274C009846934B76009B46924B7F009A462822E4
:10275C000AAB9B189B5D002B00D184E028220AABAE
:10276C009B18DB5941461A001800019300F066FDD6
:10277C000028ECD114AA5946100000F05FFD041E8D
:10278C00E5D10121039800F01DFB002800D0C7E023
:10279C0072B6BFF34F8FBFF36F8F4823EB5CFF2BE9
:1027AC0000D133E14822AB5C14A80133AB5400F0E8
:1027BC00FDFC002800D0C3E04823EB5C002B00D1CB
:1027CC00A8E04822AB5C013BDBB2AB54002BBED182
:1027DC00BFF34F8FBFF36F8F62B6B8E70D3B194055
:1027EC0002291FD06C4A6D4913686D4D0B40136064
:1027FC00802311685B000B4380211360A86EC90015
:10280C0004E0AB6E1B1A022B00D949E413680B428F
:10281C00F7D05368634919408023DB010B435360A5
:10282C00FFF70BFC13685F49536819408023DB01E9
:10283C000B435360FFF7FBFB4C1CB088E1B2E4B2D6
:10284C000490844200D10021307A747A84460120AD
:10285C00404280460134E4B2C444747264454FD0A3
:10286C000023B37225E780254F4CAD0063692B42E2
:10287C0003D04E4800F08CFAA5624D4800F088FA5F
:10288C00D02328210AAA5B005218D458C33BE25625
:10289C00012A04D005990698503100F079FAD82312
:1028AC00E05800F06FFDDD25FF23635528240AAAAC
:1028BC001219A533D05800F065FDD0230AAA5B008D
:1028CC001219D458635D7F2B04D8D021079A08982D
:1028DC0000F06EFA200000F055FD72B6354800F09D
:1028EC0057FA00F079FA1121334A136A8B431362B9
:1028FC0080222D4B92009A62DA3AFF3A9A61FEE7F7
:10290C00002001327072049892B2904200D1CDE056
:10291C00F280A5E75046294A294900F049FA50E7C8
:10292C00039B74221978274B0191DB7F002B00D07D
:10293C0091E02F2900D03BE1224A0133D37727E7DE
:10294C0028220AAB9B18D85900F030FC34E7C0465B
:10295C00A9020008C1020008E0380008EC3C00089D
:10296C0002000050F03E0008043F00080503000878
:10297C00203F0008343F00084C3F0008743F00081B
:10298C00B80B0000007400408D0C0000090E00080C
:10299C00ED090008DC3A000800100240FFC7FFFFF9
:1029AC008C000020FF80FFFF00040050C03F000897
:1029BC000040000810400008002C0140083D0008B1
:1029CC009302000000010020F368D04AF3681A401B
:1029DC00CF4B1343F360F3689B0200D4C7E4F0239E
:1029EC00B26A1B021343B362C1E4CA4800F0D0F9C7
:1029FC00DD23FF22E2540BAB03930EAB099311AB17
:102A0C000193C54B0593C54B069310E6A321504685
:102A1C00C34A890000F0CCF9C4E6C24BC24A9E21DD
:102A2C0018000792089300F0C3F943E5072102232D
:102A3C001068884303431360AE6EBC4805E0AB6E70
:102A4C009B1B834201D9FFF7AAFB13680B40022B97
:102A5C00F5D1FFF72CFB019B0A2B00D1C6E0B44843
:102A6C0000F096F9019B612B00D139E142D8392B4A
:102A7C0038D8302B00D9F8E000D0F1E08022AD4CF2
:102A8C0092006369134205D0AB4800F081F98022B3
:102A9C009200A2620021484600F07AF9A74BA84A9E
:102AAC005A612B0000227433DA7771E60022013B65
:102ABC00F280F381D4E699681140082900D1CCE06A
:102ACC0099681140102900D1B0E099681140202973
:102ADC0000D101E19B681A40182A00D112E10020B4
:102AEC00FFF74EFB019B3F2B00D0B9E0954800F05F
:102AFC004FF9D6E7019B712B00D1E3E0732B07D183
:102B0C00002394201A001421285800F053FBC8E726
:102B1C006C2B00D0A4E080228B49D20348690304BB
:102B2C0013404022824313438B61BAE72B00039A74
:102B3C001C3383CA83C32B00099A283383CA83C3EB
:102B4C0004233268134333604346E356012B00D011
:102B5C004FE57E4B019A6B632B00AC633C3383CA0D
:102B6C0083C308233268134333604346E2566A4BEF
:102B7C0005936A4B0693012A00D03CE52023744A46
:102B8C0011680B43136052E502231068884303431A
:102B9C001360AE6E654805E0AB6E9B1B834201D99A
:102BAC00FFF7FDFA13680B40022BF5D1FFF7D8FAAB
:102BBC006849019C897F681883540A2C0AD04B1CE5
:102BCC006449DBB28B7784541E2B00D0E0E5584867
:102BDC0000F0DEF82C00743421005F4800F0D8F8C7
:102BEC000023A377D4E5D368FFF75AFA594B594819
:102BFC00997F4B1CDBB283772F20691888541E2BCE
:102C0C0008D14B4800F0C4F85249534800F0C0F8C2
:102C1C00504B9C772C0000227434A37F2100E2548B
:102C2C004D4800F0B5F80022A2773AE7DA68D96887
:102C3C00D243D8684906490F40040131460E920729
:102C4C005BD04648FEF76CFE7043454BD968490F84
:102C5C000131FEF765FEFFF793FA4248FFF790FA51
:102C6C000199414800F094F81BE78022314C920006
:102C7C006369134205D13D4800F08AF88022920026
:102C8C00A261FA24019BA400303B5C43A4B2210056
:102C9C00484600F07DF8364A231C944200D9131C98
:102CAC0085229BB2D200934200D21300304AD21A32
:102CBC00304B5343802212019446204A63441B0B31
:102CCC005361EEE6022394200E930721099A2858AB
:102CDC00DB1800F06FFAE4E680200002FFF750FAF0
:102CEC0025492648143100F053F82549254A8B68AC
:102CFC001A40042313438B60D3E61A48FEF710FEE8
:102D0C007043A2E7FA20C001FFF73AFA3CC2FEFF7B
:102D1C0003100000BC3E0008E0380008EC3C000842
:102D2C00C43C0008B83C0008A83E0008881300000A
:102D3C001440000800040050C03F0008007400401C
:102D4C00FF0F00009C3F000800080050390D0008E0
:102D5C0000440040000100208C3F00080024F400D7
:102D6C000010024000127A00E83F0008D43F00082F
:102D7C004927000049070000603A0008843B00081E
:102D8C0000240140E8FFFF7F10B5FEF72DFC10BDBD
:102D9C000FB400B583B004AB02CB01AA00200093A2
:102DAC000193FEF725FC03B008BC04B01847C046DD
:102DBC00130010B50A0001000148FFF7E9FFFEE718
:102DCC00184000080A0010B501000020FEF7E6FBD1
:102DDC00C343DB17184010BD7047C0460023836007
:102DEC00426001607047C04610B503680400002BB8
:102DFC0004D040689847A3680133A36010BDC04657
:102E0C0001604B1E9941002349421140416083608F
:102E1C00C360704703009B68C068C01A43425841A6
:102E2C00C0B270470200C368581E9368C01A53683A
:102E3C0000D5C0187047C04603008268C1685B6843
:102E4C00501A00D5C0187047F0B54646D6464F46C6
:102E5C000500C0B5EB688068013B0E0014001B1A1E
:102E6C001ED493421AD31700002F05D12000E0BCCA
:102E7C00BA46B146A846F0BDAB6828689C463A00F5
:102E8C006044310000F088FAAB689C466B6867447C
:102E9C00AF609F42EAD10023AB60E7E70020E6E792
:102EAC006A6890464344A342F8D303199946270015
:102EBC009A42D9D8131A9A462B6852469C466044BB
:102ECC0000F06AFA00234246AB604B4656449F1A08
:102EDC00CAE7C046F8B54746CE4680B5C668836893
:102EEC00050088469C1B0BD4944207D82700002C65
:102EFC0020D13800C0BCB946B046F8BD1400F5E787
:102F0C00436899464C44944200D914003319270065
:102F1C009945ECD84B469F1B2B683A0099194046B3
:102F2C0000F03AFA4B46F61AA419B84400263F1999
:102F3C00002CDED0296822004046891900F02CFABA
:102F4C00D7E7C046F0B54F464646D646C0B50F004B
:102F5C008368C168060014005B1A1ED493421AD30E
:102F6C001500002D05D12000E0BCBA46B146A8469C
:102F7C00F0BDF36831689C462A006144380000F0CB
:102F8C000BFAF3689C4673686544F5609D42EAD180
:102F9C000023F360E7E70020E6E7426890464344ED
:102FAC00A342F8D30B19994625009A42D9D8531A43
:102FBC009A46036852469C463800614400F0ECF98E
:102FCC0000234246F3604B4657449D1AC9E7C0465E
:102FDC00012270B51E4906000400851D1D4823788A
:102FEC005840082305E0013B4008DBB24840002B69
:102FFC0007D00242F7D1013B4008DBB280B2002B74
:10300C00F7D10134AC42EAD17388B2781D0A1202AE
:10301C0015431CD00122083675190D4CADB233780E
:10302C00584080B2082306E04008013B6040DBB208
:10303C0080B2002B07D00242F6D1013B4008DBB234
:10304C0080B2002BF7D10136B3B29D42E7D170BDEF
:10305C0021100000FFFF000008207047042804D84E
:10306C0083001B180248C01870470248FCE7C04692
:10307C003C4000083840000870B5040001204900AD
:10308C0001430F2018400023120102436380237177
:10309C002000FF230725C9B221706270661D08222B
:1030AC0001304B4004E0013AD2B2DBB2002A09D025
:1030BC0059B25B000029F6DA013A6B40D2B2DBB2AE
:1030CC00002AF5D1B04201D00178E8E76371200005
:1030DC00FFF77EFF030AE071A371200070BDC046AC
:1030EC0070B5FF2307244679451D0278534008220A
:1030FC0004E0013AD2B2DBB2002A09D059B25B002B
:10310C000029F6DA013A6340D2B2DBB2002AF5D1DB
:10311C000130A842E9D1F01A42425041C0B270BD10
:10312C00827843881202180A10437047007800070F
:10313C00400F7047407800097047C046B0B500AFEB
:10314C00050000F0BFF86A46C31DDB08DB00D31A8C
:10315C009D460200040069462800FFF7BBFE80B2C2
:10316C00844203D00024BD462000B0BD684600F068
:10317C00D3F804002800FFF75FFE8442F2D8F2E790
:10318C0070B505000C001600002905D0320028008F
:10319C002100FFF735FE70BD3D21024A0248FFF7C2
:1031AC0007FEF3E7584000086840000810B5FFF729
:1031BC0031FE10BDF8B5DE4657464E464546E0B5E5
:1031CC0000AF1E0080468A46914600F07BF86B46A5
:1031DC00C41DE408E4001B1B9D460500801983B246
:1031EC003200514668469B4600F08AF8FEF78EF88E
:1031FC004046FFF717FE002483450DD9FEF764F80F
:10320C005B46E01ABD4643425841C0B2F0BCBB46D7
:10321C00B246A946A046F8BD2A0069464046FFF7CB
:10322C0013FE4B4684B2002BE8D032004946404690
:10323C00FFF70AFE2418A4B2E0E7C046F8B54E46E4
:10324C004546DE465746E0B500AF06008946904637
:10325C00FFF774FF0025041E07D1BD462800F0BC03
:10326C00BB46B246A946A046F8BD6A46C31DDB085C
:10327C00DB00D31AEA469D46FEF748F82200694661
:10328C003000FFF75FFE0600B6B2EB46FEF71CF807
:10329C00002E01D1D546E0E7684600F03DF88442A7
:1032AC0005D159464046C8470125D546D5E72521C5
:1032BC00024A0348FFF77CFDF3E7C0468040000854
:1032CC00684000080C20704710B5FEF71DF902008D
:1032DC000B0003480260436080235B02836010BDD7
:1032EC00E021002010B5FEF70FF902000B00034897
:1032FC000260436080239B02836010BDD0210020BC
:10330C0070B504000E001500FEF7FEF86681206013
:10331C0061602581200070BD00890C3080B270473F
:10332C00807A70470C30704770B500260C4D0D4CF0
:10333C00641BA410A64209D1002600F05BF90A4DCB
:10334C000A4C641BA410A64205D170BDB300EB5807
:10335C0098470136EEE7B300EB5898470136F2E791
:10336C00A8400008A8400008A8400008AC4000088D
:10337C0010B5034B0100186800F08CF810BDC04666
:10338C000800002010B5034B0100186800F016F877
:10339C0010BDC04608000020002310B59A4200D191
:1033AC0010BDCC5CC4540133F8E70300821893427F
:1033BC0000D1704719700133F9E7000070B50500B2
:1033CC00002910D00C1F2368002B00DAE418280009
:1033DC0000F0F0F81D4A1368002B05D163601460EF
:1033EC00280000F0EFF870BDA34208D921686018DE
:1033FC008342F3D118685B6841182160EEE71A002C
:10340C005B68002B01D0A342F9D911685018A04277
:10341C000BD120680918501811608342E0D118684C
:10342C005B68411811605360DAE7A04202D90C23A3
:10343C002B60D5E721686018834203D118685B685C
:10344C004118216063605460CAE7C046F021002037
:10345C0070B50F4E0D0031680400002902D100F048
:10346C008FF830602900200000F08AF8431C0AD045
:10347C000323C51C9D43A84207D0291A200000F045
:10348C007FF8431C01D101256D42280070BDC04658
:10349C00F4210020F7B50322CB1C9343083306001C
:1034AC001F000C2B32D20C27B94231D8300000F05F
:1034BC0081F8324D2B681C00002C2ED139003000C5
:1034CC00FFF7C6FF0400431C1ED12C682500002DFD
:1034DC004AD123682900E3183000019300F050F81A
:1034EC00019B834243D123680337FF1A03239F4375
:1034FC0008370C2F00D20C2739003000FFF7A8FF3B
:10350C00431C34D02368DF19276013E0002BCBDA7F
:10351C000C23002533602800FEBD2268D11B20D46B
:10352C000B2917D9E2192760A34211D12A606368CD
:10353C00116053603000250000F044F807220B3571
:10354C00231D9543EA1A9D42E5D05B1BA350E2E78D
:10355C005A60ECE76268A34201D12A60EAE75A603C
:10356C00E8E723006468A7E72C006D68AFE70C233D
:10357C003000336000F026F8CDE7C046F021002083
:10358C00002370B5064D040008002B6000F024F8F1
:10359C00431C03D12B68002B00D0236070BDC046A8
:1035AC00F821002003000A7801311A700133002A37
:1035BC00F9D1704710B5024800F00CF810BDC046A8
:1035CC00FC21002010B5024800F005F810BDC046E3
:1035DC00FC21002070477047044A03001068002843
:1035EC0002D0C318136070470148FAE7002200208C
:1035FC0008220020F8B5C046F8BC08BC9E467047AF
:0C360C00F8B5C046F8BC08BC9E467047EC
:10361800160A0008080A0008080A0008080A00082C
:10362800080A0008340A0008080A0008140A0008F2
:10363800080A0008080A0008080A0008080A00081A
:10364800460A00088C0A0008EC0A0008D80A000894
:10365800020B0008EC0A0008EC0A0008EC0A000853
:10366800EC0A0008EC0A0008EC0A0008EC0A00085A
:10367800EC0A0008EC0A0008EC0A0008EC0A00084A
:10368800EC0A0008EC0A0008EC0A0008EC0A00083A
:10369800EC0A0008EC0A0008EC0A0008100B000805
:1036A800EC0A0008EC0A0008EC0A0008EC0A00081A
:1036B800EC0A0008520B0008EC0A0008EC0A0008A3
:1036C800E80A0008E80A00083A0B0008980B000806
:1036D800AE0B0008BC0B0008980B0008980B0008FC
:1036E800980B0008980B0008980B0008980B000826
:1036F800980B0008980B0008980B0008980B000816
:10370800980B0008980B0008980B0008980B000805
:10371800980B0008980B0008980B0008980B0008F5
:10372800980B0008980B0008980B0008980B0008E5
:10373800980B0008980B0008CA0B0008980B0008A3
:10374800980B0008980B0008E80B0008D40B000839
:10375800540C00086A0C00089C0C0008540C000863
:10376800540C0008540C0008540C0008540C0008B1
:10377800540C0008540C0008540C0008540C0008A1
:10378800540C0008540C0008540C0008540C000891
:10379800540C0008540C0008540C0008540C000881
:1037A800540C0008AA0C0008540C0008540C00081B
:1037B800540C0008540C0008540C0008D40C0008E1
:1037C800540C0008540C0008540C0008E20C0008C3
:1037D800EC0C000806170008DE160008DE160008C4
:1037E800DE160008DE160008DE160008DE160008E1
:1037F800DE160008DE160008DE160008DE160008D1
:10380800481800088E170008DE160008DE160008A3
:10381800DE160008DE160008DE160008DE160008B0
:10382800DE160008DE160008DE160008DE160008A0
:10383800DE1600086C170008DE160008DE16000801
:1038480046170008DE16000826170008DE160008CE
:10385800DE160008061700086173736572745F66E8
:1038680061696C656400000072784572726F72431A
:10387800616C6C6261636B0074784572726F72433D
:10388800616C6C6261636B005061747465726E493F
:1038980074657261746F725F636865636B5061749D
:1038A8007465726E000000003031323334353637BB
:1038B8003839414243444546436F6D6D735F7761C4
:1038C8006974466F7253796E63000000646973709F
:1038D800617463684576656E740000007374617482
:1038E8006550756C73696E670000000073746174CD
:1038F8006550617573656400737461746549646CBF
:10390800650000000102020504020A040408080513
:1039180001080A01050A020105020204040A080452
:1039280005080801010A0A054253505F646F43689D
:10393800616E6E656C416374696F6E004861726494
:103948004661756C745F48616E646C657200000056
:1039580073707572696F75734952510054494D31CE
:103968005F42524B5F55505F5452475F434F4D5F24
:1039780049525148616E646C65720000444D413192
:103988005F4368616E6E656C315F49525148616E84
:10399800646C657200000000000000000000000078
:1039A800000000000000000000000000000000000F
:1039B80000000000000000000100000002000000FC
:1039C80003000000040000000600000007000000DB
:1039D80008000000090000004253505F72656769E3
:1039E8007374657250756C736544656C6567617452
:1039F800650000004253505F7265676973746572B1
:103A080041707054696D657248616E646C657200CE
:103A18000102040802010804050A0A054E6F6E65D2
:103A28000041000000004200000000414200000088
:103A380043000000004143000000424300000041F1
:103A4800424300004400000000414400000042449A
:103A58000000004142440000434400000041434448
:103A68000000424344000041424344004253505F37
:103A7800747269676765724144430000257328259D
:103A8800732C202575290A002573282575290A0015
:103A980025733A2073686F727420696E20656C63B1
:103AA8006F6E202568750A0050756C7365207769FC
:103AB8006474682069732025687520C2B5730A008C
:103AC80070742D3E706163655F6D73203E3D2035D7
:103AD800000000007372632F6273705F73746D333C
:103AE80032673037312E630070742D3E70756C73F9
:103AF800655F77696474685F6D6963726F732021AD
:103B08003D20300070742D3E6E725F6F665F707579
:103B18006C73657320213D203000000028656C63BC
:103B28006F6E5B305D202620656C636F6E5B315D68
:103B380029203D3D203000005465726D696E616C2E
:103B480000000000525454005345474745520000B6
:103B580054696D6520253032753A253032753A251D
:103B68003032750A00000000526563656976656445
:103B7800207369676E616C2025640A0025730A004A
:103B8800257328256875293F0A00000025732045FC
:103B98004E5452590A000000257320455849540ACA
:103BA800000000004C6173742070756C736520749C
:103BB8007261696E2066696E69736865640A0000DF
:103BC800497072696D3D2575206D412C20566361E1
:103BD800703D2575206D562C20566261743D257503
:103BE800206D560A0000000053657175656E6365A7
:103BF800725F257320756E657870656374656420DF
:103C08006576656E743A2025750A000052657375ED
:103C18006D696E672E2E2E0A0000000050756C73B9
:103C28006520747261696E2066696E69736865647F
:103C3800202D2070617573696E670A00212050611C
:103C4800747465726E4974657261746F725F646FC3
:103C58006E6528266D652D3E706929007372632F85
:103C680073657175656E6365722E630050756C734C
:103C78006520747261696E206C6173742070756C54
:103C8800736520646F6E650A0000000050756C73E0
:103C98006520747261696E2066696E69736865640F
:103CA8000A0000006E6272203D3D203100000000D5
:103CB8007372632F636F6D6D732E63006273702E62
:103CC800637269746963616C5F73656374696F6E4D
:103CD8005F6C6576656C20213D2055434841525FF5
:103CE8004D4158002573282575293A20756E6B6E4D
:103CF8006F776E206465766963652069640A0000E1
:103D08006273702E637269746963616C5F73656353
:103D180074696F6E5F6C6576656C20213D2030009C
:103D28007366203D3D204E554C4C0000476F742073
:103D38002573206672616D652C207365715F6E72E4
:103D48003D25326868752C207061796C6F61645FFD
:103D580073697A653D2568750A00000025732C2073
:103D6800494353523D307825780A00002020546991
:103D7800703A2068616C74204350552C2063686148
:103D88006E67652067756172642040202570207415
:103D98006F20302C207468656E20737465702E0A4D
:103DA8000000000050742053523D307825780A00F6
:103DB800434331202568750A000000004343322040
:103DC8002568750A00000000414443206F7665723B
:103DD80072756E0A000000004144432072656164F8
:103DE800790A0000414443206368616E6E656C2067
:103DF800636F6E6669672072656164790A00000006
:103E080041444320454F430A0000000041444320F9
:103E1800454F530A00000000414443312D3E4953A9
:103E2800523D307825780A0025732C2054454946A0
:103E3800310A000025732C204953523D30782578EB
:103E48000A000000496E697469616C6973696E677C
:103E58002E2E2E0A0000000044657649643D307815
:103E680025782C2053797374656D436F7265436CA4
:103E78006F636B3D25750A004C4C5F4144435F52AC
:103E880045475F496E6974206572726F723D25758A
:103E98000A00000025733A205053433D25750A0057
:103EA8006D652D3E6368616E6E656C5F6664203C6F
:103EB8002030000043616E206F6E6C792075736549
:103EC800206F6E652073657269616C20706F727403
:103ED80020617420612074696D652C20666F7220E2
:103EE8006E6F770A000000002025336875202A20AD
:103EF8007B25732C2025737D0A000000546F7461A4
:103F08006C206E756D626572206F662070756C73BB
:103F180065733A2025750A004D6F76696E672050E3
:103F280061747465726E2044656D6F0053746172BC
:103F380074696E67202573206F6E204E656F444B41
:103F4800210A0000507573682074686520627574D2
:103F5800746F6E20746F20706C6179206F7220709E
:103F68006175736521203A2D290A00005365747420
:103F7800696E67205663617020746F20256875200C
:103F88006D560A00436F6E736F6C653A2027257370
:103F9800270A0000436F6D6D616E64733A202F3FEE
:103FA800202F61202F6C202F71202F73202F30207D
:103FB8002F312E2E2F390A005475726E696E6720C4
:103FC80056636170204F46460A0000005475726EB1
:103FD800696E672056636170204F4E0A000000002A
:103FE800556E6B6E6F776E20636F6D6D616E6420BA
:103FF800272F2563270A0000456E64206F6620730B
:10400800657373696F6E0A00427965210A000000C2
:10401800415353455254494F4E204641494C45441B
:1040280020282573203A202575292025730A0000A9
:10403800424144004E4F4E450041434B00004E4123
:104048004B000053594E43004441544100000000C6
:1040580073746F7261676520213D204E554C4C008A
:104068006D616F6C69622F7372632F6576656E740C
:1040780071756575652E63006576656E745F736925
:104088007A65203D3D20414F4576656E745F7369C2
:084098007A65286576742900A1
:0840A0000CDCFF7F01000000B1
:0440A800E500000827
:0440AC00BD0000084B
:1040B0000024F400040000000C00002000000000B8
:1040C00000000000000000000000000000000000F0
:1040D00000000000000000000000000000000000E0
:1040E00000000000000000000000000000000000D0
:1040F00000000000000000000000000000000000C0
:1041000000000000000000000000000000000000AF
:0C411000000000000000000000000000A3
:0400000508001E458C
:00000001FF
