:020000040800F2
:10000000009000201D2F00086D2F000865190008C2
:1000100000000000000000000000000000000000E0
:100020000000000000000000000000006D2F00082C
:1000300000000000000000006D2F0008C519000836
:100040006D2F00086D2F00086D2F00086D2F000820
:10005000D51900086D2F00086D2F0008951D0008A8
:100060006D2F00089D1E00086D2F00086D2F0008E1
:10007000011E0008F1190008611A0008F11B0008B0
:100080006D2F0008E51D00086D2F00086D2F00087A
:100090006D2F00086D2F00080D1C00086D2F000843
:1000A0006D2F00086D2F00086D2F00086D2F0008C0
:0C00B000091F00086D2F00086D2F0008CC
:1000BC0010B5064C2378002B07D1054B002B02D032
:1000CC00044800E000BF0123237010BD7000002025
:1000DC0000000000C4530008044B10B5002B03D0E3
:1000EC000349044800E000BF10BDC04600000000FA
:1000FC0074000020C4530008F0B50124C0238440D0
:10010C000B4D5B00EC500700830803203840FF27A1
:10011C00AC46C026C0008740890181409B006344E7
:10012C00B6009A59BA430A439A512C60F0BDC046A6
:10013C0000E100E0F0B5C6460700194800248046EF
:10014C00050000B582B02E78BE4207D001340C35C4
:10015C000A2CF8D102B080BCB846F0BD600004197E
:10016C00A4004444A0680093656813000A00390099
:10017C00A8476388012B04D0002BEBD0013B638094
:10018C00E8E7782143465B5C013BDAB243465A54BC
:10019C0053009B189B00434407CB07C4DAE7C046C7
:1001AC008C00002070B50F4E00233400257885425A
:1001BC0013D001330C340A2BF8D17824335D0A2B7D
:1001CC000AD05D1C35555C00E418A4003319305579
:1001DC000548996058605A8070BD5800C3189B0040
:1001EC00F318F5E78C0000203D110008F0B5012252
:1001FC004F46D64646460B6800249146C0B5002BA8
:10020C001AD14BE0170057437B00DB19DB43C56861
:10021C00AC4666460D691E407D433543C5604D684E
:10022C00022D2DD07D43026813402B4303600B68D5
:10023C001A000134E24031D04D461A00A5402A4044
:10024C002B42F5D04B68013B012BDBD817005743F1
:10025C0083688D6898467B009C467D43BC44AA46C7
:10026C0046466546AE433500564663462E43866089
:10027C00CE684568564395433543DB434560C6E736
:10028C00FF2A10D83D007D43026A2E01761BB24333
:10029C004E6975432A4302624D68C3E7E0BCBA4617
:1002AC00B146A846F0BD120A52435243456A1601A4
:1002BC00B61AB5434E6972432A4342624D68B1E7A0
:1002CC0010B51124020008480B00016AA143016219
:1002DC008020064980008862DA38FF38886104493A
:1002EC00044803F0BFFDFEE7002C01400004005061
:1002FC008C580008885B0008FA2170B5124C050078
:10030C008900206802F078FB802301385B04984256
:10031C0001D3012070BDC0210C4A090650600C4865
:10032C00036A1B021B0A0B43036207210023936021
:10033C001160032DEDD8026AA9071202120A0A43B2
:10034C00026218006560E5E70000002010E000E0A4
:10035C0000ED00E010B50A0002490348103103F02B
:10036C0081FD10BD8C580008945B000810B50A0084
:10037C0002490348203103F075FD10BD8C5800086C
:10038C00945B0008F8B505001C480C0003F06AFDEE
:10039C00F0232A005026EC540421EF3B0720F032C6
:1003AC00FFF7C8FE164F6643CC373B88B34204D0E8
:1003BC003100144803F056FD3E80134B321C9E4214
:1003CC0000D91A1C114B92B29A4200D21A000E4B51
:1003DC0061089A1A0E4B3234534380221201944610
:1003EC000C190C4A63441B0BE4B2E4352100536135
:1003FC00094803F037FDAC71F8BDC0469C5B0008A2
:10040C008C000020BC5B0008D3270000B204000065
:10041C004907000000740040D45B0008F8B53E4D5D
:10042C0002002B00D0330400C1CAC1C328001268DB
:10043C00E0301A60022204F0D7FAE288374B013A16
:10044C00DA6222890621013A1A6300225A621A6979
:10045C008A431A61227B002A43D00020012A00D053
:10046C00F8BD0421628902329205120E9A63DA6891
:10047C000A43DA600121294A53690B4353612379FA
:10048C00627918001043031E3DD04020DB43244A00
:10049C009061DAB20B423AD1224B99620223214984
:1004AC0013422ED08B6104231E49134227D08B613B
:1004BC00130720D520221B4B9A612A000023174CCE
:1004CC00CE3213806363A36394330022E858252152
:1004DC00002303F02FFF0122236801201343236024
:1004EC00BEE76289043902329205120E5A63DA6849
:1004FC000A43DA60BEE720220A4B9A62DDE78B6280
:10050C00D6E78B62CFE74022054B9A62BF320121BE
:10051C00044B9961C2E7C0468C000020002C0140BE
:10052C0000080050000400504B1E9941012310B5E7
:10053C0049429943002200230E3103F0FBFE10BD0B
:10054C0070B5060014001D0082B080360092019335
:10055C0032687368A41A9D41002D04D1074B9C424C
:10056C0001D802B070BD08236A46132103F0E2FEE5
:10057C00009B019C33607460F3E7C046BFE1E4006C
:10058C00F0B50189030087B00020002901D107B024
:10059C00F0BD9C7A18689E881A79002C38D1817B22
:1005AC00DD7902AC491B013921810121520099727C
:1005BC0041688D18895C21716D7865719A7992000A
:1005CC0062814389C820E3808000824200D9608127
:1005DC000D4232D105220A4051424A412273002277
:1005EC0001A90A801F4A94461F4A63449BB2934256
:1005FC0009D86389052B06D92389002B03D0200049
:10060C00FFF70CFFC3E7194803F02CFC0020BEE7F2
:10061C0001320489D5B2AC420DD06A00DD7902AC4E
:10062C000135EDB2DD712581877B013FBD420CD0D8
:10063C0000219972BCE70022F0E740210C4A0D48DA
:10064C0003F020FC2179E388C4E700250136B6B21B
:10065C00DD719E800789B742EAD101399D801981ED
:10066C00E6E7C04678ECFFFF90E20000285C00084B
:10067C00F85B0008145C0008032310B5104C114AF9
:10068C0023616361104BA261E36180239B012362B0
:10069C000023A3626362E36222660C4A0C49643253
:1006AC0062661022E01DA2662367E366636704F0AE
:1006BC00D5FA2000074904F0D1FA2023A37110BD0C
:1006CC00B4210020385C0008B40100200C0100208B
:1006DC00445C0008485C0008F8B54746CE4680B537
:1006EC008368C56899465B1B9846436804000E00F6
:1006FC0017005819904507D9ED1904F075F9E56004
:10070C00C0BCB946B046F8BD424604F06DF94B4644
:10071C003100ED19ED1A2A006068414404F064F9C7
:10072C00E560EDE7F0B557464E464546DE46E0B58A
:10073C00354B83B09A461B78060015000191002BAF
:10074C0056D07700BB19DB0053441A6F9046DA6E13
:10075C009146904525D8130042462C009B1A9D4289
:10076C0009D8002C09D1200003B0F0BCBB46B2461E
:10077C00A946A046F0BD1C1EF5D0A146BB19DB0056
:10078C005344596E220041440198A04404F02CF9C2
:10079C004C46002CE7D04346BF19FF0057443B673B
:1007AC00E1E742469B6E2C009B1A9D4227D8BB1951
:1007BC00DB0053449B46596E22004144019804F0DF
:1007CC0013F95B469B6EA0442D1B434519D04B4639
:1007DC0042469B1A99464D450DD8002DD9D0019B08
:1007EC00A1469C46A44463462C000193A944C5E74A
:1007FC00FFF742FFA5E74D46002DCAD0EFE71C00DE
:10080C00D5E700239846E6E7B4210020F8B5574613
:10081C004E46DE4645468946411CE0B517004A0067
:10082C0052180300D2009246344A5E0093461000E0
:10083C00F618F6005E44F36A50449846012B0CD02F
:10084C00022B27D0002B17D0002398464046F0BC33
:10085C00BB46B246A946A046F8BDB36A726A93423B
:10086C0047D9013B9B1AB8469F4200D9984642464D
:10087C004946FFF731FFE9E7B36A726A934233D90D
:10088C00013B9B1A9F42E1D83A004946FFF724FFEF
:10089C00B846DBE70023746A98461DE0013B356AD5
:1008AC001B1BBB4200D93B002D1B9D4200D91D00D8
:1008BC005B46534458682A004946001904F094F8E2
:1008CC00336A6419E31A5A1E93415B421C40A844D4
:1008DC00A9447F1B7462B9D0B36AA342DED8356ACF
:1008EC005B19013B1B1BDCE7316A5B18013B9B1A54
:1008FC00C8E7316A5B18013B9B1AB4E7B4210020AE
:10090C00F0B5C64600B5856843686A1C04009A4277
:10091C0007D8036859551500C36882600133C3605A
:10092C0043689D4202D080BCB846F0BD236827695D
:10093C0098460E4B1B78002B15D0EFF31086012137
:10094C0081F310882A0041463800FFF75FFF86F3D9
:10095C001088A368834203D001235B42E360E2E783
:10096C000023A360DFE7FFF787FEE6E7B421002052
:10097C00F0B54E4645465746DE46E0B583B09A463E
:10098C000C9B80460E0015009946914200D27DE0EA
:10099C0008000127290002F02FF801378542F9D908
:1009AC00574500D2574601230D9A1A4001920D9AD1
:1009BC0013424ED14B46002B4BD0130020249B07E7
:1009CC005ED44F4545D201235B429C4621004046F4
:1009DC00E144FFF795FF4346DB68002B32DB4B46C7
:1009EC00002BEED153460124012B07D901235B4286
:1009FC009C46E24453466C43012BF7D8210030004F
:100A0C0001F0FAFF8542F5D9214B9B4630239A46DB
:100A1C0006E02900200001F0EFFFAC420FD30400E8
:100A2C003000210002F06EF8534658440E00C15CB1
:100A3C004046FFF765FF4346DB68002BE9DA019B74
:100A4C00002B19D103B0F0BCBB46B246A946A04658
:100A5C00F0BD4346DB68002BC4DAF3E74F45F1D217
:100A6C0001235B429C4620214046E144FFF748FFAE
:100A7C004346DB68002BE5DB4B46002BEED1E1E770
:100A8C0053465C425C41240120349AE7012787E7F6
:100A9C008C58000810B5080003F002FD0349020051
:100AAC004031034803F0DEF9002010BD8C580008DB
:100ABC00505C000810B5080003F0F2FC034902007A
:100ACC004C31034803F0CEF9002010BD8C580008BF
:100ADC00745C000810B50400806F03F027FC00283C
:100AEC0001D1002010BD606F03F020FC0028F8D06D
:100AFC00200003F01BFCF5E770B5D0267600835977
:100B0C0004009847051E1DD0A65903F0ABFC01004C
:100B1C002000B047002805D03A210B4A0B48FF3182
:100B2C0003F0B0F9D0235B00E55003F08DFC01001D
:100B3C002000A847002805D09E21034A03484900FD
:100B4C0003F0A0F970BDC046985C0008A45C0008D6
:100B5C0070B5DC26835904009847051E1CD0A65995
:100B6C0003F080FC01002000B047002805D02C21A8
:100B7C000A4A0B48FF3103F085F9DC23E55003F0FA
:100B8C0063FC01002000A847002805D09721034AE8
:100B9C000348490003F076F970BDC046985C000824
:100BAC00B85C0008F8B52B4B0500C61801223000C4
:100BBC0003F036FA012804D0CF21274A274803F046
:100BCC0061F972B6BFF34F8FBFF36F8F244C2700C0
:100BDC00C4373B78FF2B2FD022000133C4323000B6
:100BEC00137003F097F9002810D02500C4352B782A
:100BFC00002B19D0013BDBB2C4342370002B04D181
:100C0C00BFF34F8FBFF36F8F62B6F8BD154BEA562B
:100C1C00012A18D02500144914485831C43503F062
:100C2C0021F92B78002BE5D1A721114A1148890015
:100C3C0003F028F92B78DDE70F4A10490D4803F033
:100C4C0021F93B78C8E780210D4A13688B43136068
:100C5C00CBE7C04664100000C85C0008D45C0008F8
:100C6C008C000020D51400008C580008205D000872
:100C7C003C5D00080C5D0008E45C00089502000077
:100C8C000044004030B5D8258FB004000AA9405963
:100C9C0003F0A0FD002802D100200FB030BD09A93F
:100CAC00605903F043FD04230A2009AA1021FFF721
:100CBC0041FA02ABD88C294B294AC3189BB29342F8
:100CCC00EAD802AB598D0529E6D91C8D002CE3D04E
:100CDC00252224259B1802AA52190A9D1B781278EA
:100CEC0007952D2502318905090E049102A9491990
:100CFC00097802902C20039102A901940918097813
:100D0C0018480091079903F0ADF802AB5B19164D2A
:100D1C001C78CC352B886401A34219D1134A231CAF
:100D2C00944213D3124A9BB2D21A124B09A95343C1
:100D3C00802212019446104A63441B0B536100231A
:100D4C0002AA93830AA8FFF769FBA6E7131CE9E73D
:100D5C0021000A4803F086F82C80DFE778ECFFFFCF
:100D6C0090E200005C5D00088C000020B2040000E2
:100D7C00D32700004907000000740040BC5B00084A
:100D8C00F8B5224D0400435D5A1CD2B24255C3182B
:100D9C001F48844663441970072A08D91C4BE6186F
:100DAC00082A0DD01B4BE05A0830824201D000209B
:100DBC00F8BD0022154B3000E25403F05DFAF7E762
:100DCC00300003F035FA00280BD0300003F060FA45
:100DDC008023104F0100E0539B00984210D8625DB5
:100DEC00E2E7615D0139C9B261550029DFD000230A
:100DFC0072780133DBB2327001369942F8D1D6E702
:100E0C00054803F02FF80023E353D0E7D414000077
:100E1C00CC120000D6140000B45D000870B584B08C
:100E2C000B00009205000022012102A803F090F9AA
:100E3C0072B6BFF34F8FBFF36F8F234C2600C436AF
:100E4C003378FF2B33D022000133C43213701F4B85
:100E5C00082202A9E81803F065F8002811D1250032
:100E6C00C4352B78002B1AD0013BDBB2C434237071
:100E7C00002B04D1BFF34F8FBFF36F8F62B604B05A
:100E8C0070BD134BEA56012A18D02500114912489F
:100E9C005831C43502F0E6FF2B78002BE4D1A721A2
:100EAC000E4A0F48890002F0EDFF2B78DCE70D4A63
:100EBC000D490B4802F0E6FF3378C4E780210B4A5A
:100ECC0013680B431360CAE78C0000206410000009
:100EDC00D51400008C580008205D00083C5D00080B
:100EEC000C5D0008E45C0008950200000044004022
:100EFC00F0B50600C64610001D00624B00B5F25C52
:100F0C0082B09401A4186400A418A4000434341909
:100F1C000B00019500900421200003F051F90835D5
:100F2C0072B6BFF34F8FBFF36F8FC4239846564FE3
:100F3C00B84443461B78FF2B3DD03A000133C432F2
:100F4C001370524B21002A00F01802F0EBFF041E24
:100F5C0018D1C4239846B84443461B78002B21D0A3
:100F6C003A00013BDBB2C4321370002B04D1BFF347
:100F7C004F8FBFF36F8F62B6A54224D002B080BCF6
:100F8C00B846F0BD424BF256012A5ED04149424868
:100F9C00583102F067FFC4239846B84443461B7887
:100FAC00002BDDD1A7213D4A3D48890002F06AFFA4
:100FBC0043461B78D4E73B4A3B49394802F062FF71
:100FCC0043461B78B9E772B6BFF34F8FBFF36F8FF1
:100FDC003C00C4342378FF2B4DD0390074205A1CAC
:100FEC00C431D2B20A703149314C496A255A89B29E
:100FFC0021528D4207D9200074304188013189B2C9
:10100C004180002927D0002A29D0C4373B70002BFF
:10101C0004D1BFF34F8FBFF36F8F62B6832189006A
:10102C008C461848616F325CA46F93019B185B006F
:10103C009B189B00F318A40789086344214319608B
:10104C00072301321A40325498E78021194A136859
:10105C000B4313607DE7A16F0131A167D3E7A72193
:10106C000E4A0F48890002F00DFF3B00C4331B7879
:10107C00013BDBB2C9E70B4A0B49094802F002FFFE
:10108C002378AAE7D81400008C000020641000001C
:10109C00D51400008C580008205D00083C5D000849
:1010AC000C5D0008E45C000895020000004801405B
:1010BC000C01002000440040B0B582B000AF050028
:1010CC000C00FA71002A28D10121042003F082FAC5
:1010DC0003006A461333DB08DB00D31A5A882188D5
:1010EC009A8000221A805A809D46A288D9800121BC
:1010FC005A811981FA1D012303A8033103F084FAE4
:10110C00D422030052000C33A85801216A469BB22A
:10111C00FFF7EEFEBD4602B0B0BD8B880249034816
:10112C006C3102F09FFECFE78C580008D85D0008A8
:10113C00F0B5D6464F464646C0B500AF98463B8CF8
:10114C00060089461000190015009A4603F042FA71
:10115C006B461330C408E4001B1B5A889D469A80CA
:10116C0000221A805A80DA8005321A814A462900F8
:10117C005A8103A85346424603F046FAD422030090
:10118C0052000C33B05801216A469BB2FFF7B0FEF7
:10119C00BD46E0BCBA46B146A846F0BD0FB430B56A
:1011AC0097B01AA920C92800019102F051FE2A001B
:1011BC0004005021019B02A803F098FD002808DDD3
:1011CC0098220749013083B28858002102AAFFF700
:1011DC008FFE200017B030BC08BC04B01847C046C6
:1011EC000C01002070B5050008000C0003F058F944
:1011FC000E280AD00AD807282DD00C2839D1002364
:10120C0000221E21A86F03F095F870BD132830D171
:10121C00200003F049F9002341680068184A01F0E6
:10122C008BFD04003C21200001F06CFC20000E0022
:10123C003C2101F0E1FB3C2101F064FC0D00E121BB
:10124C002000090101F0D8FB330001002A000D48F1
:10125C00FFF7A4FFD9E7200003F026F904680A4839
:10126C00210002F0FFFD022CCFD188230022EA548A
:10127C00CBE702000549064802F0F4FDC5E7C0467D
:10128C0040420F00F05D0008085E00080C59000891
:10129C001C5E0008010030B53039CBB283B0472B4F
:1012AC0003D8584A9B00D3589F4601005648FFF775
:1012BC0075FF03B030BD8B00C9189423802501AA9B
:1012CC00490011705149524CC858933B212103F0ED
:1012DC0031F86369AD002B42EBD14E4802F0C2FDF0
:1012EC00A561E6E79423494AD0585C33C25C023AC4
:1012FC00131C642A00DD82E019B201AA0A2912DB50
:10130C0013702121012303F015F8D2E794233F4AEF
:10131C00D0585C33C25C0232131C642A00DD642397
:10132C0001AA092BECDC0A23EAE780223A49D20312
:10133C004869030413404022824313438B61B8E78E
:10134C009423324A1F21D0580023002202F0F2FFCE
:10135C00AFE73248FFF722FFABE790242B4D002379
:10136C0000220C21285902F0E5FF002300220E2157
:10137C00285902F0DFFF9CE729492A48FFF70EFFA6
:10138C0097E79423214A1C21D0580023002202F015
:10139C00D1FF8EE724492548103102F063FD244A21
:1013AC00244993680B4004210B43936081E780250B
:1013BC00174CAD0063692B421CD10023134901AAC1
:1013CC0013709433C8582121933B02F0B3FF70E79C
:1013DC00982300210D4AD258174BD15469E70223A8
:1013EC000A4A01938E33D05807218C3B01AA02F094
:1013FC00A1FF5EE7114802F035FDA562DDE764232D
:10140C007AE7C046DC530008A85E00080C010020F7
:10141C0000040050745E000800080050285E0008AC
:10142C008C5E0008985E00080C590008885E000865
:10143C0000240140E8FFFF7FD9140000605E000823
:10144C0070B504000D0015480968FFF7A7FEE423EA
:10145C002600E550AB89E43633810023B380AB7BA7
:10146C00002B14D00023F371B372E0261021A55188
:10147C002000FEF787FFA3591C68200001F0AAFA90
:10148C00220083B20C210620FEF754FE70BD5821B9
:10149C00034A044802F0F6FCE4E7C046C05E0008CC
:1014AC00D45E0008145C0008F0B5D6464F4646469C
:1014BC00C0B5050082B008000C0002F0F1FF03007B
:1014CC00143BDBB2122B1CD8424A9B00D3589F46CC
:1014DC00E023EB584049002B00D179E020315B1A16
:1014EC001B1101339BB2052B01D01B01C91828001D
:1014FC00FFF7A6FF002002B0E0BCBA46B146A846F2
:10150C00F0BD200002F0CCFF3349020070313348AB
:10151C0002F0A8FC0020EEE7200002F0C5FF6B46AD
:10152C0081882F4A5143890B1980438809045A43F7
:10153C006B46920B5A8000881204C3011B181B01C6
:10154C001B1A68469B0A83801B041B0C120C090C8B
:10155C002448FFF723FE032006236A461021FEF7DA
:10156C00E9FD0020C7E7200002F09EFF8146200025
:10157C0002F098FF184B1C4F1E00804638009A460C
:10158C000024203601F026FA40450AD00134A4B2DA
:10159C001036052CAED03768380001F01BFA4045E8
:1015AC00F4D142463900484603F010FA0028EDD138
:1015BC00534621012033591899E7200002F074FF9B
:1015CC0001782800FEF7DEFE002094E7074892E73A
:1015DC0030318CE7FC5400080C590008505C0008B2
:1015EC004DCE0000F85E0008EC5E0008FD1500080A
:1015FC0070B5040008000D0002F052FF27280BD82C
:10160C002E4A800013589F46E423E3582C4819684F
:10161C00FFF7C4FD002070BD29002000FFF744FF38
:10162C00F9E7E023E4262500E358E435A3519A8931
:10163C002A810022AA809A7B002A38D00022EA71E3
:10164C00AA7219681F48FFF7A9FD1F48E3E7D823C2
:10165C00E05803F055F80028DCD11C48DBE71C49A6
:10166C001C487C3102F0FEFBF1230122E2542200E3
:10167C0008200421F132F03BFEF75CFD0020CAE7A4
:10168C00134915487C3102F0EDFB0020C3E7D82349
:10169C002800E65802F008FF0400280002F002FFC0
:1016AC0021000200300003F05DF80020B3E7582160
:1016BC000A4A0B4802F0E6FBA359BFE7485500085D
:1016CC00585F0008485F000881170008F1160008F1
:1016DC000C590008205F0008345F0008D45E000835
:1016EC00145C000870B5050008000C0002F0D8FE70
:1016FC0027280DD81A4A800013589F4619491A48B2
:10170C00083102F0AFFB2800FFF7BCFA002070BDD7
:10171C0021002800FFF7C8FEF9E7D823E85802F0AB
:10172C00E1FF10491148083102F09CFB0020EEE764
:10173C002800FFF7A7FA0028E8D10D48E7E7D823DF
:10174C002000EE5802F0B0FE0500200002F0AAFEC8
:10175C0029000200300003F005F80020D7E7C0464E
:10176C00E85500088C590008205F0008345F000819
:10177C00FD15000870B5050008000C0002F090FE85
:10178C00272803D81B4A800013589F4621002800A5
:10179C00FFF78AFE70BD1848FCE718491848183145
:1017AC0002F060FBF1230322EA542A0008200421F2
:1017BC00F132F03BFEF7BEFC2800E430FEF7E0FE11
:1017CC000020E7E70D490F48183102F04BFB0020D1
:1017DC00E0E72800E430FEF7D3FE03000020002BE6
:1017EC00D8D1E433EB5808481968FFF7D7FC074801
:1017FC00D0E7C046885600081D1800088C59000810
:10180C00205F0008345F0008585F0008FD150008D1
:10181C00F0B5D6464F4646460500C0B508000C004C
:10182C0002F03EFE272803D8404A800013589F46FA
:10183C0021002800FFF738FEE0BCBA46B146A846A6
:10184C00F0BD3B493B48283102F00CFBF12302224E
:10185C00EA542A0008200421F132F03BFEF76AFC1E
:10186C000020E9E732493448283102F0FBFA002025
:10187C00E2E7E423EB5831481968FFF78FFC304856
:10188C00DAE7E023EB582F49002B4DD020315B1ABF
:10189C001B1101339BB2052B01D01B01C918280069
:1018AC00FFF7CEFD2848C7E7200002F0FDFD81467A
:1018BC00200002F0F7FD234B244F1E008046380019
:1018CC009A460024203601F085F840450AD00134B0
:1018DC00A4B21036052CE5D03768380001F07AF840
:1018EC004045F4D142463900484603F06FF80028D1
:1018FC00EDD15346210120335918D0E7EC23EB5A94
:10190C00002B07D1E433EB5811481968FFF746FC5C
:10191C000D4891E7E423EB580E481968FFF73EFC9D
:10192C00002089E7064887E73031B8E728570008D8
:10193C008C590008205F0008345F0008685F0008BD
:10194C00811700080C590008FD150008EC5E000812
:10195C00585F0008785F0008112110B50F4A104835
:10196C00136A8B43136280220E4B92009A62DA3A0E
:10197C00FF3A9A610C490D4B34315A6802F072FAF5
:10198C000B4C0122210020230A482031E25402F0A2
:10199C0069FA2022A35C002BFCD110BD002C014065
:1019AC00885F0008000400508C59000800ED00E02E
:1019BC008C010020985F0008024A536A013353627D
:1019CC007047C0468C01002010B5EFF30582034927
:1019DC000348483102F046FA10BDC0468C59000845
:1019EC00945B0008012210B5144B19690A421ED0F1
:1019FC000620196891431960D9688143D960196927
:101A0C0001308143196140210D4B99620D4B1939FD
:101A1C009A6101329A6102329A611C329A61942362
:101A2C00094AD0580023002202F084FC10BD07495B
:101A3C001A695431064802F015FAF7E7002C0140F8
:101A4C0000080050000400508C0000208C59000845
:101A5C00D05F0008022210B54A4BD9680A4202D066
:101A6C0019690A4259D1484B0421464AD0680142AF
:101A7C0002D01069014223D11A00CE321188414A9A
:101A8C00126B0132914212D03E4B40491A690A4204
:101A9C0000D110BD1B693E48194002F0E3F9EFF389
:101AAC0005823C493C48483102F0DCF9F1E71A0068
:101ABC009421CE32585802236E3902F03BFCE3E7F6
:101ACC001069884310611A00CE3211881800013158
:101ADC0089B211801A00E0300078DA32128840B2F4
:101AEC001218C8208000824248DD02001800DA304B
:101AFC00028018001A00E1300078D632128840B209
:101B0C0012182648824200DD02002548824200DA83
:101B1C0002001800D6300280B1E7196991431961AF
:101B2C00194B1900CE310A8801320A8019001A00AB
:101B3C00E0310978DA32128849B25218C82189008A
:101B4C008A4217DD0A001900DA310A8019001A00DE
:101B5C00E1310978D632128849B252180F498A42BB
:101B6C0000DD0A000E498A4200DA0A001900D6315B
:101B7C000A8079E7062AE6DA0622E4E7062AB5DACD
:101B8C000622B3E7002C01408C000020E0FF0C0083
:101B9C00D05F00088C590008945B000818F6000010
:101BAC0088130000002243898A569B18C822920091
:101BBC0093420FDD1300012243818A56C3889B1880
:101BCC00064A934200DD1300054A934200DA1300E3
:101BDC00C3807047062BEEDA0623ECE718F60000FC
:101BEC008813000010B5EFF3058203490348483110
:101BFC0002F038F910BDC0468C590008945B0008FF
:101C0C000222F8B5364B19690A420FD101211A6923
:101C1C00114203D01A698A431A61F8BDEFF30582A9
:101C2C0030493148483102F01DF9F6E719692F4C5B
:101C3C00914319618023E66FE75872B6BFF34F8F5B
:101C4C00BFF36F8F2500C4352B78FF2B40D02100BC
:101C5C007420274D5A1CC431D2B20A70295A8C46B2
:101C6C001F49496A89B229528C450AD92800743017
:101C7C004188013189B24180002902D1A96F01311B
:101C8C00A967002A18D02200C4321370002B04D18B
:101C9C00BFF34F8FBFF36F8F62B6AB6F6A6F99074D
:101CAC0092080A439B083800B04784210C4A6158BB
:101CBC00536B5B185363B0E7A7210E4A0E4889009B
:101CCC0002F0E0F82300C4331B78013BDBB2DAE707
:101CDC000A4A0B49084802F0D5F82B78B7E7C046FA
:101CEC00004801408C590008945B00088C000020CF
:101CFC000C0100203C5D00080C5D0008E45C000851
:101D0C009502000070B572B6BFF34F8FBFF36F8FA3
:101D1C00084C2500C4352B78FF2B03D00133C43479
:101D2C00237070BD044A0549054802F0ABF82B78C6
:101D3C00F4E7C0468C000020E45C0008950200002B
:101D4C000C5D000870B50D4C2500C4352B78002BAC
:101D5C000BD0013BDBB2C4342370002B04D1BFF396
:101D6C004F8FBFF36F8F62B670BDA721044A054831
:101D7C00890002F087F82B78EBE7C0468C00002036
:101D8C003C5D00080C5D0008102210B50E4BD968A4
:101D9C000A4211D119690A4207D1EFF305820B49A6
:101DAC000B48483102F05EF810BD0A4800211A6158
:101DBC00883002F083F8F7E706480121DA608830B2
:101DCC0002F07CF8F0E7C046001802408C5900087D
:101DDC00945B00088C00002010B5EFF305820349DA
:101DEC000348483102F03EF810BDC0468C5900083B
:101DFC00945B0008102210B51C4B19680A421AD1CA
:101E0C00012219680A4211D18022196892011142EB
:101E1C0022D1042219680A4223D1082219680A42E5
:101E2C000ED01A60124802F01DF803E011481A6037
:101E3C0002F018F810BD1A600F4802F013F8F9E719
:101E4C0019680E4802F00EF8EFF305820C490D48A4
:101E5C00483102F007F8EDE71A600B4802F002F87F
:101E6C00E8E71A60094801F0FDFFE3E700240140B0
:101E7C0020600008EC5F0008DC5F00082C600008A4
:101E8C008C590008945B0008F85F00081460000887
:101E9C00022310B5134C2268134218D10823226870
:101EAC00134208D1104922681048743101F0DAFF4E
:101EBC000423636010BD0C49636074310C4801F05D
:101ECC00D1FF01210B4A13680B431360F2E76360E7
:101EDC00094B94211A005858C6320623803902F057
:101EEC0029FAE7E7000002408C5900084860000816
:101EFC003C600008080002408C00002010B50E4B1E
:101F0C00DA69920612D4DB691B0607D5B4220B4B97
:101F1C000B499858043A9B58984710BDEFF305822B
:101F2C0008490948483101F09DFFF6E70348596A12
:101F3C00983001F0C3FFF0E7004400408C00002013
:101F4C00284400408C590008945B000870B572B6A8
:101F5C00BFF34F8FBFF36F8F224C2500C4352B7806
:101F6C00FF2B38D0210074205A1CC431D2B20A7015
:101F7C001D491E4D496A2E5A89B229528E4207D9E3
:101F8C00280074304188013189B24180002911D078
:101F9C00002A14D0C4342370002B04D1BFF34F8F0C
:101FAC00BFF36F8F62B6A96F686F8B0780081843F9
:101FBC00890870BDA96F0131A967002AEAD1A72150
:101FCC000B4A0C48890001F05DFF2300C4331B78D9
:101FDC00013BDBB2DEE7084A0849064801F052FF34
:101FEC002B78BFE78C000020004801400C0100203A
:101FFC003C5D00080C5D0008E45C000895020000E4
:10200C00F0B5C64600B58A8888B005000C0002AF52
:10201C000A2A00D9B0E05E499300CB589F46D223E0
:10202C005B00C258CC3BD058390002F07FFB042334
:10203C003A0010210A20FEF77DF8BD4606B080BCA0
:10204C00B846F0BD534C200000F0C4FC80B20090A8
:10205C0023000C2202212800FFF76AF8EDE7012289
:10206C0001000320FEF79EF84B494C48103101F05B
:10207C00F9FE4B4A4B4993680B4004210B43936088
:10208C00DBE7FFF763FF08233860796004222179CE
:10209C00280000933B00FFF74BF8CEE7424B05219D
:1020AC003B60424B38007B60414B6E46BB60414B02
:1020BC00FB60414B3B6102F025FA03000C339BB2F1
:1020CC000733DB08DB00F31A9D4602AB9846424609
:1020DC005B88414693800023138053802388A28819
:1020EC00CB8005230B8109336B449A803900052280
:1020FC0005A802F027FAD422030052000C33A8588A
:10210C00012142469BB2FEF7F3FEB54695E7D2237A
:10211C005B00C258C43BD3581C68200000F05AFC2A
:10212C00220083B20C210620FEF704F885E7D223A7
:10213C005B00C258A43B04210720F032FF3BFDF7A3
:10214C00F9FF7AE7D2235B00C258A43B0421082094
:10215C00F132FF3BFDF7EEFF6FE70400AD34FF34C7
:10216C00200000F037FC80B2009023000C220921E3
:10217C002800FEF7DDFF60E710491148103101F02F
:10218C0071FE862221002800FEF796FF55E7C04617
:10219C00C85700088C5E00080C590008885E0008BF
:1021AC0000240140E8FFFF7FEC5E00085860000847
:1021BC00606000086C600008746000080C5A00082D
:1021CC0088600008F8B5050008000C0002F068F9FA
:1021DC00152843D00AD8012855D0022849D189495D
:1021EC008948243101F03EFE0020F8BD172840D16B
:1021FC00200002F059F9027A0400861D062A5DD0EF
:10220C0013D8022A45D0032A4ED1B388C1887F4AFD
:10221C007F4801F027FE290030790022FDF7C2FF2C
:10222C0031002800FFF7ECFEDEE7082A3CD1C1881C
:10223C00784AB388764801F015FEB288062A4CD04D
:10224C000A2A00D1A6E06F496C31734801F00AFEEE
:10225C00862231002800FEF72FFFC5E7D423694AF8
:10226C005B00E858833B0021FF3B3032FEF740FE19
:10227C00BAE7200002F014F96249020024316748E1
:10228C0001F0F0FDB0E75F496548243101F0EAFD4B
:10229C00AAE7C188B388634A5D4801F0E3FD3100C9
:1022AC002800FFF7ADFE9FE75F49604801F0DAFDBB
:1022BC00812231002800FEF7FFFE95E7B388C18824
:1022CC005B4A534801F0CEFDB288931F9BB2042B9E
:1022DC006ED8584A9B00D3589F46B3790C2B6AD0C2
:1022EC00002231002800FEF7E7FE7DE7B3790C2BC6
:1022FC00F6D1F3791F1C172B00D9172721002C00BE
:10230C00AD34FF34BFB23A0020000E3102F06CFB4A
:10231C000023EF19AD37FF3721003B70464801F021
:10232C00A1FDDDE7B3790C2BDAD19933FF33EF58EC
:10233C00F3790E34042B52D0052B22D01D2100230F
:10234C000022380001F0F6FFCAE7B379042BC7D19D
:10235C002200A133FF33E858A43B21210D32FF3B6F
:10236C0001F0E8FFBCE7B379102BB9D1D2212200E0
:10237C00490068588339F3790E32FF3901F0DAFFDE
:10238C00AEE72E490522200002F020FB1B2100287D
:10239C00D4D1D4E7B379092B18D0082BA0D19D3315
:1023AC00FF33E85800220023242101F0C3FF97E7F4
:1023BC001449583149E7D22122004900685885391F
:1023CC00F3790E32FF3901F0B5FF89E79C33FF3307
:1023DC00E85800220023232101F0ACFF80E70422FF
:1023EC002000174902F0F2FA002808D0042220003D
:1023FC00144902F0EBFA0028A0D11A219FE71C2106
:10240C009DE7C0460C5A0008C06000083061000807
:10241C00DC6000084061000888600008745C0008FB
:10242C00A8600008D46000088C5A000848610008B5
:10243C0000610008F45700081861000810610008DA
:10244C000861000868610008F0B5DE4657464E4644
:10245C004546E0B583B0060002AF08000C0001F061
:10246C000BFF05002000012D4AD001F009FF80462A
:10247C00200001F0FDFE8246032D51D0200001F01A
:10248C0007FF8146042D10D0280001F053FE4B4667
:10249C0001004246334801F0E5FCBD4601B0F0BCFA
:1024AC00BB46B246A946A046F0BD200001F0E0FEB6
:1024BC008146200001F0F2FE0500200001F0E8FE4C
:1024CC004A460300002A20D1022802D12A782F2A5A
:1024DC0043D01A0069460C32D208D2008A1AEB4655
:1024EC00954602AA91465C1D210048461E4A00955D
:1024FC0002F080FB002801DD844224D8DD4609E08F
:10250C0001F0C2FEFFF722FDC7E72A001721306851
:10251C0001F010FF524641463000FEF77FFCBCE74D
:10252C004146124801F09EFC524641463000FEF7EF
:10253C0075FC51464B1E9941002200233068153121
:10254C0001F0F8FEA9E79822094983B288584A4657
:10255C000021FEF7CDFCDD46DCE76878FEF79AFE3D
:10256C00D8E7C0469C6100089061000870610008C3
:10257C000C01002070B5204D0400435D002B0ED1E2
:10258C000A2905D0C9B2FEF7FBFB032818D070BD91
:10259C0001220339FEF742FC01236355F7E7C9B268
:1025AC00FEF7EEFB0028F2D0144BE518280001F0E2
:1025BC0077FE002813D029002000FFF745FFE6E73F
:1025CC000E4BE518280001F06BFE00280DD02900F9
:1025DC002000FFF739FF0122074BE254D7E70849E7
:1025EC000848103101F03EFCD1E70549054810318F
:1025FC0001F038FCEFE7C046D9140000CC12000003
:10260C008C5A0008CC6100087047C04610B50B000E
:10261C00EFF31084012181F310881900FEF782F882
:10262C0084F3108810BDC04610B582B0EFF310844F
:10263C00012181F310886B460122D91D0020FEF781
:10264C0071F884F31088012803D16B46D87902B055
:10265C0010BD01204042FAE710B5FEF70DF810BD91
:10266C00F0B5DE464E4657464546E0B59BB00AAB44
:10267C0005934023069300230793089301330C0022
:10268C0091469B460290099005E005A8FEF738F9A3
:10269C000898002859DB2178013400295CD02529C1
:1026AC00F3D12200137800260225082014002139CA
:1026BC002D2B0CD02D2B0ED8232B11D02B2B00D047
:1026CC005FE10E430132137814002D2BF2D15B46DF
:1026DC0001321E43F7E7302B05D12E430132F2E7CE
:1026EC0006430132EFE71A00303A0025092A0DD8CB
:1026FC001A00AB005B1901345B009B182278303B4D
:10270C001D001300303B092BF3D913002E2B00D1E5
:10271C00D8E000272378042101E0637801341A0003
:10272C008A43682AF9D0252B07D0583BDBB2202BE3
:10273C0007D8954A9B00D3589F46252105A8FEF73C
:10274C00DFF8089801340028A5DA1BB0F0BCBB46B2
:10275C00B246A946A046F0BD08980028F5DD079CB6
:10276C00002C00D0C6E00019EFE74B4649461B6829
:10277C0005A81A1D0A60196810223B0001960095E5
:10278C00FEF7F6F801340898DDE74B4649461B681E
:10279C0005A81A1D0A6019680A223B0001960095CB
:1027AC00FEF7E6F801340898CDE74B4649461B681E
:1027BC001A1D0A601D6805E005A8FEF7A1F8089827
:1027CC000028BFDB297801350029F5D10898B9E735
:1027DC004B4649461B6805A81A1D0A601968002358
:1027EC000193083310220093FEF7C2F801340898C5
:1027FC00A9E74B4649461B681A1D0A601B68DA1785
:10280C0098180393012350409A4609280DDDAA46D7
:10281C00A0461D000A210400013500F0A3F9632C29
:10282C00F8DC2B00444655469A46B846574575D3B6
:10283C00002D36D0039B002B74DB730772D4B307C7
:10284C0001D5002F2DD05B4633422AD1002D28D044
:10285C004346A0461C00AC4220D205A82021FEF71E
:10286C004FF80898013D002800DA87E0002DF2D1DE
:10287C00230044469846039B002B58DB730761D416
:10288C0003233340022B62D005A83B000A22039994
:10289C0001960095FEF76CF8089853E72300444620
:1028AC00984608980028E6DA01344CE74B4649462E
:1028BC001B6805A81A1D0A601978FEF721F8013467
:1028CC00089840E76378621C19003039140000271F
:1028DC00092900D91FE71A00BB00DB1901345B0082
:1028EC009B182278303B1F001300303B092BF3D987
:1028FC00130010E7254B1B78002B15D0EFF3108538
:10290C00012181F31088220002980AA9FDF77EFFAD
:10291C0085F310880898079C001916E7D046002DFF
:10292C00BFD087E7013D8AE7FDF7A6FEE6E75B42ED
:10293C002D2105A80393FDF7E3FF089800289FDAE3
:10294C00013400E72B2105A8FDF7DAFFF5E7002F8E
:10295C009AD10AE0A8450CD205A83021FDF7D0FF8A
:10296C000898013D002800DAECE6002DF2D1002594
:10297C008AE70898002887DA0134E4E644460134F3
:10298C00E1E60025C5E6C04608580008B421002041
:10299C0010207047837807201840704703005A684E
:1029AC0008000A601A7A0A715A7A4A7107229978D1
:1029BC000A4002733F22197B1140FA2292004A43CB
:1029CC00C280DA78920042815A8902815B7B437320
:1029DC007047C0460023C25C0133002AFBD1581E4D
:1029EC007047000003B47146490840004900095E75
:1029FC0049008E4403BC7047002243088B4274D3B9
:102A0C0003098B425FD3030A8B4244D3030B8B42E3
:102A1C0028D3030C8B420DD3FF22090212BA030CEC
:102A2C008B4202D31212090265D0030B8B4219D3CD
:102A3C0000E0090AC30B8B4201D3CB03C01A5241ED
:102A4C00830B8B4201D38B03C01A5241430B8B4235
:102A5C0001D34B03C01A5241030B8B4201D30B031E
:102A6C00C01A5241C30A8B4201D3CB02C01A524145
:102A7C00830A8B4201D38B02C01A5241430A8B4208
:102A8C0001D34B02C01A5241030A8B4201D30B02F1
:102A9C00C01A5241CDD2C3098B4201D3CB01C01A0B
:102AAC00524183098B4201D38B01C01A5241430915
:102ABC008B4201D34B01C01A524103098B4201D303
:102ACC000B01C01A5241C3088B4201D3CB00C01A70
:102ADC00524183088B4201D38B00C01A52414308E8
:102AEC008B4201D34B00C01A5241411A00D201460D
:102AFC00524110467047FFE701B5002000F006F880
:102B0C0002BDC0460029F7D076E770477047C04633
:102B1C0010B5002903D100F007F8203002E00800BE
:102B2C0000F002F810BDC0461C2101231B04984282
:102B3C0001D3000C10391B0A984201D3000A083942
:102B4C001B09984201D30009043902A2105C4018F9
:102B5C007047C0460403020201010101000000009D
:102B6C000000000003460B437FD4002243088B4235
:102B7C0074D303098B425FD3030A8B4244D3030BF8
:102B8C008B4228D3030C8B420DD3FF22090212BABD
:102B9C00030C8B4202D31212090265D0030B8B4239
:102BAC0019D300E0090AC30B8B4201D3CB03C01A23
:102BBC005241830B8B4201D38B03C01A5241430BFE
:102BCC008B4201D34B03C01A5241030B8B4201D3EE
:102BDC000B03C01A5241C30A8B4201D3CB02C01A59
:102BEC005241830A8B4201D38B02C01A5241430AD1
:102BFC008B4201D34B02C01A5241030A8B4201D3C0
:102C0C000B02C01A5241CDD2C3098B4201D3CB0166
:102C1C00C01A524183098B4201D38B01C01A524115
:102C2C0043098B4201D34B01C01A524103098B4219
:102C3C0001D30B01C01A5241C3088B4201D3CB0004
:102C4C00C01A524183088B4201D38B00C01A5241E7
:102C5C0043088B4201D34B00C01A5241411A00D297
:102C6C0001465241104670475DE0CA0F00D0494200
:102C7C00031000D34042534000229C4603098B4270
:102C8C002DD3030A8B4212D3FC22890112BA030AF8
:102C9C008B420CD3890192118B4208D3890192117A
:102CAC008B4204D389013AD0921100E08909C309FF
:102CBC008B4201D3CB01C01A524183098B4201D301
:102CCC008B01C01A524143098B4201D34B01C01AEC
:102CDC00524103098B4201D30B01C01A5241C30864
:102CEC008B4201D3CB00C01A524183088B4201D3D3
:102CFC008B00C01A5241D9D243088B4201D34B00EE
:102D0C00C01A5241411A00D20146634652415B102F
:102D1C00104601D34042002B00D549427047634610
:102D2C005B1000D3404201B50020FFF7EFFE02BD5F
:102D3C000029F8D016E77047002B11D1002A0FD1CB
:102D4C00002900D1002802D00021C943080007B493
:102D5C00024802A14018029003BDC046B1FDFFFF1E
:102D6C0003B4684601B5029800F006F8019B9E4634
:102D7C0002B00CBC7047C046F0B557464E464546AF
:102D8C00DE46E0B504000D009246994683B08B42B6
:102D9C0030D82DD049465046FFF7BAFE2900060020
:102DAC002000FFF7B5FE331A9846203B9B4633D4E0
:102DBC005A465346934042461F00534693401E00CA
:102DCC00AF423AD8AF4200D178E05B46A41BBD417C
:102DDC00002B00DA75E000220023009201930123FE
:102DEC005A4693400193012342469340009328E0B6
:102DFC008242CFD900220023009201930C9B002B1E
:102E0C0001D01C605D600098019903B0F0BCBB461A
:102E1C00B246A946A046F0BD424620239B1A524614
:102E2C00DA40414613004A468A40170042461F4387
:102E3C00534693401E00AF42C4D900220023009297
:102E4C0001934346002BD9D0FB0772081A43464620
:102E5C007B080EE0AB4201D1A2420CD8A41A9D41D2
:102E6C00012024196D410021013E24184D41002EF2
:102E7C0006D0AB42EED9013E24196D41002EF8D19B
:102E8C00009801995B4600196941002B24DB2B004B
:102E9C005A464446D3402A00E2401C005B461500CB
:102EAC00002B2ADB26009E40330026004746BE40FE
:102EBC003200801A9941009001919FE7A342BCD83F
:102ECC0083E74246202300219B1A002200910192A5
:102EDC000122DA40019286E7424620239B1A2A00FF
:102EEC0046469A402300F340444613432A00E240EE
:102EFC001C005B461500002BD4DA42462F00202321
:102F0C00260097409B1ADE403B003343CDE7C0467A
:102F1C000D488546FFF778FB0C480D490D4A0023F8
:102F2C0002E0D458C4500433C4188C42F9D30A4A72
:102F3C000A4C002301E013600432A242FBD301F0DF
:102F4C000DFD00F00FF8FEE70090002000000020BF
:102F5C006C000020C4630008700000209422002044
:102F6C00FEE70000F0B5DE4657464E464546E0B556
:102F7C00B9B000F069FF9249924800F073FF072244
:102F8C00914B00215A63A0240D3215A801F035FD98
:102F9C000223E405189320000E3314A91493FDF7B3
:102FAC0025F9149A236913409A4206D1874B1B6862
:102FBC0083F30888864B1B6898470323A0269A4600
:102FCC0015930023F60598463000189314A9433343
:102FDC001493FDF70BF92023300014A914938025CA
:102FEC00FDF704F9434601277A4C1793AD000233E1
:102FFC00200015971693149514A9A5629946FDF710
:10300C00F5F840237448149314A98361FDF7EEF886
:10301C00272320001797149314A9A361FDF7E6F852
:10302C004B46159319934346C02417935346A4005B
:10303C00169314943000B46214A9FDF7D7F80C233E
:10304C00300014A919971493FDF7D0F880215E4B2A
:10305C0009065A6D0120920092080A435A655F4A8C
:10306C00DA635F4A1A649A6B17439F635D4B1A6865
:10307C0014431C605C4CFDF73FF923685B4A5C49C8
:10308C0013401D4325605B4D2B685800C018400051
:10309C00FFF7B2FC80226369D2000130134202D1E7
:1030AC0005E0002803D0636901381342F9D180216F
:1030BC004D4A490013680B43136013680B42FCD054
:1030CC000221414A4C4BD365D36D1942FCD03823B5
:1030DC0091680B40D168102B01D100F02AFC002B19
:1030EC0001D000F02AFC136844495368194080232E
:1030FC00DB010B435360136841490B4013601368A9
:10310C00404A9B045B0FDA402A606868FDF7F4F8CC
:10311C003D4A002832D138202B498B680340102BB4
:10312C0001D100F0BEFD0B683848034080200B60D5
:10313C00546A800403E0536A1B1B022B1ED80B68D5
:10314C000342F8D1CB6832481840324B0343CB6072
:10315C00802308685B0403430B608023C8685B050D
:10316C000343CB608021546A1748890403E0536AF7
:10317C001B1B022B02D803680B42F8D006231949FB
:10318C000868184201D100F0B3FCE0230E49DB01C2
:10319C00886803438B608B681F4803408B600B6807
:1031AC009B0101D400F0B6FC07208B681B4C8343B9
:1031BC001800022303438B603820566A36E0C04661
:1031CC008C5E0008DC610008001002400000FF1F4C
:1031DC000400FF1F000400500008005003000230E0
:1031EC00010816000020024000700040FFF9FFFFAC
:1031FC0040420F000000002009800000FF80FFFF0C
:10320C00FFC7FFFF0024F4008C010020FFFFFFFE2E
:10321C008C80C11132301646FFF0FFFF881300007E
:10322C00536A9B1BA34201D900F074FC8B680340CA
:10323C00102BF5D10720F4490B680340022B01D960
:10324C0000F007FDF14BF2499A680A409A60382267
:10325C009968114201D000F0B2FC1B68ED489B0448
:10326C005B0FD8401F22E94BEB4C9B681B051B0FD7
:10327C009B00E3185B6A1340D84028606868FDF730
:10328C003BF8E64AE6491368E6480B401360E64B08
:10329C002A6819680905090D00F0E4FD8420102244
:1032AC00E24B1958914319500438195811431950CD
:1032BC0019681143196059680A435A60DC4B1A6843
:1032CC00D20307D41A68DB490A401A60DA6BDA4970
:1032DC000A40DA638023D64A5B02116801260B434D
:1032EC0013603F22D54909200B6893431A0005232C
:1032FC0013430B60D24BD3491A681140D24A0A438C
:10330C00D2491A6099600321D14A9346C632DA60D9
:10331C005A68120C12040A435A60CE4A56600222B2
:10332C0019680A431A60082219680A431A601A6855
:10333C00310032431A60FCF7DFFEC74B9A68324209
:10334C0007D1DA68C5490A40DA601A699200920816
:10335C001A618021C04B8903DA680A43DA60802243
:10336C00920119681142FCD007211A605A698A43EC
:10337C00110002220A4370215A615A698A431100D2
:10338C0050220A430F215A619A6A8A439A625A69F7
:10339C00A3490A405A619A6AF231FF318A431100FB
:1033AC0010220A4380219A625A6989000A435A61A1
:1033BC009A6AAB491140C022D2000A4380219A621A
:1033CC005A69C9010A435A619A68A6491140802278
:1033DC0052050A439A60A4492868FFF70DFB142391
:1033EC0043430793079B002B05D0079B013B079397
:1033FC00079B002BF9D1984B9C499A68114080226D
:10340C0012060A439A609A68002AFCDB8022120199
:10341C001A6020230793079B002B05D0079B013BC9
:10342C000793079B002BF9D180238B4E9B053269A8
:10343C0003211343336111230C207360FCF75CFEF2
:10344C000121F368F368B3680B4200D165E3884847
:10345C0000F008FD0126804B86491A6914A8B24376
:10346C001A611A690A401A619A6880490A40324303
:10347C009A605B466422C53318A91E7000F040FFA9
:10348C00E220400001F08EFAC822010052001031F7
:10349C00070000F035FFD023774A5B00FA50F42088
:1034AC00319701F07FFA0100C8221031070000F0BB
:1034BC0027FF142001F0F0F8D8230022F850002345
:1034CC0038213492359306AA52188823210032975A
:1034DC006431D654694800F0C5FC28686849FFF788
:1034EC008BFA684B684A013898625A6310220221A1
:1034FC0058469A611A6A14AC32431A62DA680A4363
:10350C00DA60624AC26780228450FA205C46043238
:10351C000001A0505869813A02435A6116201E607E
:10352C00FCF7EAFD5A4801F03DFA5A4B01009C4663
:10353C00594B614496229C460400029092006044D0
:10354C0000F0C8FCFF22554B06A9E254DC23329C48
:10355C00534A11A8E250534B00261A68A046119208
:10356C009A880A860A0032219B7952181370FFF749
:10357C0031FA2022944683B299464B4B63449A46C7
:10358C0053463401E7583800FFF724FA814500D13F
:10359C00FEE10136052EF3D144460023E02200263D
:1035AC00A350F023E6525C3B99465B464A4628689A
:1035BC009C502D49FFF720FA3C4C3D4F0138A0623E
:1035CC00A26A39003B4800F04DFC3B4B3100A36133
:1035DC0011232362103B63600D209A46FCF78CFD8F
:1035EC0031000E20FCF788FD842323605346E360F2
:1035FC0088231B026364319B172298464046329BFA
:10360C00AD309A465AE0C0460020024000100240FD
:10361C00FF8FFFFF0024F4008C5A0008007000405C
:10362C00FFFEFFFFF0610008005801400018024047
:10363C0000740040FFFF03FFFFFFF8FF000802408B
:10364C00080002400F80FFFFA0250000402401402D
:10365C008C0000200000024000240140C73FFFFF07
:10366C00FFF0FFFFE8FFFF6F40420F00E8FFFF7F16
:10367C0010620008FFFFFFDFC10A0008885E000827
:10368C0000093D0000480140801A06004D05000865
:10369C00DC1400007410000064100000D51400004D
:1036AC00A10A0008586000080C590008002C0140C1
:1036BC000C5B00082C62000868680000BB49FF30F6
:1036CC0001F0D4FAD223424651465B00D150414618
:1036DC00029A0433CA50329BB5499846902314A8D9
:1036EC00C8500B004046494658509823B049B14C3D
:1036FC00CA50B14B1C379946B04B20349A460197AF
:10370C004846216800F0AEFB2089636800280ED083
:10371C00002204E0013292B20233904207D01978B1
:10372C005F780F42F6D05046019900F09BFB0136B2
:10373C00F6B21034052EE3D1DC234146A04AA14C4D
:10374C00CA5000F081FE01004046FDF751FF1021E8
:10375C004046FCF717FEFC366369FF36334203D153
:10376C00994800F07FFBA66114AA984908A800F0BC
:10377C009FFB5B46883316C816C303210720FCF752
:10378C00BBFCD023319E924A5B00F25000F05CFEF1
:10379C0001003000FEF716FDD4235B00F4588D4B6E
:1037AC00E35C7F2B00D8C9E18B4B04938B4B0593C7
:1037BC0000238B4A2660A3548A4AA3528A4A8B4B15
:1037CC00516D0B4353658B238949CB600A68894B38
:1037DC0013430B60C5235B4498461B78012B00D91F
:1037EC00DAE202211C20FCF787FC434641461B7899
:1037FC005A1C0A70774A5BB29046A354002B00DA2D
:10380C00A6E10BAB220018007B499A4600F050FB56
:10381C000EAB18002200794900F04AFB22007849CF
:10382C0011A800F045FB4346E356012B00D1DDE126
:10383C00684BE256734B1F000393734B58371800B9
:10384C003900994600F00EFB624BE2569846012A6D
:10385C0000D1F8E13900484600F004FB4346E2563B
:10386C00012A00D1EFE13900484600F0FBFAD423DD
:10387C0000215B00F258654B6548D154654988249A
:10388C00303100F0EFFA644B644E9A46644B984624
:10389C00382206AB9B181B5D002B00D1C8E0329B75
:1038AC0031001A001800019300F088FD0028EFD1B8
:1038BC00319B51461A001800019300F07FFD00283F
:1038CC00E6D114AA4146100000F078FD071EDFD1A6
:1038DC00012111A800F0E0FA002800D057E172B6DF
:1038EC00BFF34F8FBFF36F8F5B46C4331B78FF2B37
:1038FC0000D1C2E15A46C4321378329801331370A6
:10390C0000F014FD002800D027E15B46C4331B787F
:10391C00002B00D14CE15A46C4321378013BDBB288
:10392C001370002BB4D1BFF34F8FBFF36F8F62B600
:10393C00AEE70D3B1940022920D02B49394A0B68C0
:10394C00802013400B6080230A685B001343364AC7
:10395C000B60546AC00005E0536A1B1B022B01D993
:10396C00FFF70CFC0B680342F6D04B682F4818404D
:10397C008023DB0103434B60FFF7CDFB13682B491E
:10398C00536819408023DB010B435360FFF7BDFBE9
:10399C004A46390011A801F019F8002800D0F8E5C2
:1039AC0023004446984653464344F7E538620008E2
:1039BC000C0100200C5900084862000858620008ED
:1039CC00FD15000800040050745E00083505000861
:1039DC00D1210008D514000070620008D45C0008E6
:1039EC00D4140000D81400000010024008000C0091
:1039FC0000440040010000208125000861030008FC
:103A0C00790300088C580008205D0008D9140000C8
:103A1C00B86200080C5A0008050B00085D0B000882
:103A2C00F1110008FFC7FFFF8C010020FF80FFFF92
:103A3C00D025319C6D00665900F014FD010020006A
:103A4C00B047DD4BDD48635100F00CFAD4235B002A
:103A5C00E458DB4BE256012A04D00399484658310E
:103A6C0000F000FAFF228026D54BD64DE2546B694C
:103A7C00B600329C334203D0D34800F0F3F9AE6267
:103A8C00DC25665900F0EEFC01002000B047CF4B5E
:103A9C00029A6351CA4BD35C7F2B05D89821049AA8
:103AAC000598490000F0EEF9029800F085FFD82344
:103ABC00329CE05800F046FF200000F07DFF31986A
:103ACC0000F07AFF72B6C24800F0CCF900F0EEF9C3
:103ADC001121C04A136A8B4313628022B94B9200A6
:103AEC009A62DA3AFF3A9A61BB4B19329A62FEE754
:103AFC00072002230C68844323430B60566AB74C9F
:103B0C000B680340022B01D1FFF73FFB536A9B1B51
:103B1C00A342F5D9B24CFFF7B4FBF368B14AF36892
:103B2C001A40B14B1343F360F3689B0200D491E449
:103B3C00F023B26A1B021343B3628BE40A21AB4B32
:103B4C00AB4A1800FF310492059300F09BF92FE665
:103B5C00A84B0393A84B994689E6319800F0E6FBF5
:103B6C00002800D1D1E614A800F0E0FB002800D119
:103B7C00CBE68022A14F92007B69134200D0EAE091
:103B8C0004219F4A13698B43136130BFBDE62C227D
:103B9C0006AB9B1818789B4B01909C3319785032CC
:103BAC00002970D12F2800D07EE07B3A1A7096E65F
:103BBC00A721954A9548890000F064F9ABE699680D
:103BCC001140082900D1DCE099681140102900D17E
:103BDC0087E099681140202900D1D5E09B681A40F4
:103BEC00182A00D1D4E00020FFF73CFB5B4652467C
:103BFC00983383CA83C35B46A43383CA83C3042329
:103C0C0083490A6813430B604346E356012B00D0EB
:103C1C000EE65A465946B333D4507E4A043BCA503A
:103C2C005B4611AAB83383CA83C3082378490A6850
:103C3C0013430B604346E2566E4B03936E4B99460F
:103C4C00012A00D0F6E52023714A11680B4313605A
:103C5C000DE602230C68844323430B60566A5F4CC9
:103C6C000B680340022B01D1FFF7ECFA536A9B1B44
:103C7C00A342F5D95A4CFFF704FB674A67496348DE
:103C8C0000F000F936E6019B0A2B41D0644800F0A5
:103C9C00E9F80198FDF7FEFA00225A4B9C331A7092
:103CAC001DE6CB68FFF76AFA5648564F9D300378ED
:103CBC00FF18B95401990A2909D00133DBB20370FA
:103CCC00B954142B00D00AE6554800F0CBF84D49F6
:103CDC0054487C3100F0C6F800224A4B9D331A70D0
:103CEC00FDE5DA68D968D243D8684906490F400423
:103CFC000131440E92075AD04B48FEF77DFE6043CB
:103D0C004A4BD968490F0131FEF776FEFFF7AAFA44
:103D1C00474B474819784B1CDBB203703948844633
:103D2C002F2061448854142B08D13D4800F09AF898
:103D3C0040493C4800F096F83D4B1F700022314F33
:103D4C0030499D373B787C31CA54364800F08AF8AC
:103D5C0000223A70A0E706202B6837495843FEF73B
:103D6C004BFE3B68354A013013403B6003E00028B2
:103D7C0000D1CAE5013880227B6992001342F6D14A
:103D8C00FEE62F48FFF76EFA80200002FFF76AFA72
:103D9C00FA20C001FFF766FA2A4800F063F8FF2208
:103DAC00074BE254134B0393134B99465FE524489E
:103DBC00FEF722FE6043A3E7C10A0008DC6200089C
:103DCC00D514000000040050605E0008A10A000831
:103DDC00EC620008002C0140000800508813000021
:103DEC008C5A00083CC2FEFF03100000D45C000893
:103DFC00706200088C580008205D000800700040BC
:103E0C0000ED00E00C0100203C5D00080C5D00089A
:103E1C0000440040B10B0008E45C0008950200006F
:103E2C00F0620008CC6200080024F400001002408C
:103E3C00A90100208801002040420F00FFBFFFFFB6
:103E4C0000127A008462000810B5FEF705FC10BD64
:103E5C0000B583B0019101AA01000020FEF700FC1F
:103E6C0003B000BD0FB400B583B004AB02CB01AA04
:103E7C00002000930193FEF7F3FB03B008BC04B0E1
:103E8C001847C046130010B50A0001000148FFF79F
:103E9C00E9FFFEE7F46200080A0010B501000020FB
:103EAC00FEF7B4FBC343DB17184010BD7047C04688
:103EBC0000238360426001607047C04610B5036800
:103ECC000400002B04D040689847A3680133A3601A
:103EDC0010BDC04601604B1E994100234942114060
:103EEC0041608360C360704700238360C360704788
:103EFC0003009B68C068C01A43425841C0B2704767
:103F0C000200C368581E9368C01A536800D5C018C5
:103F1C007047C04603008268C1685B68501A00D5C0
:103F2C00C0187047F0B54646D6464F460500C0B59A
:103F3C00EB688068013B0E0014001B1A1ED49342E0
:103F4C001AD31700002F05D12000E0BCBA46B146A9
:103F5C00A846F0BDAB6828689C463A006044310026
:103F6C0000F042FDAB689C466B686744AF609F42B3
:103F7C00EAD10023AB60E7E70020E6E76A689046E9
:103F8C004344A342F8D30319994627009A42D9D83F
:103F9C00131A9A462B6852469C46604400F024FD46
:103FAC0000234246AB604B4656449F1ACAE7C046B4
:103FBC00F8B54746CE4680B5C66883680500884686
:103FCC009C1B0BD4944207D82700002C20D138001E
:103FDC00C0BCB946B046F8BD1400F5E74368994635
:103FEC004C44944200D91400331927009945ECD85D
:103FFC004B469F1B2B683A009919404600F0F4FC85
:10400C004B46F61AA419B84400263F19002CDED0F2
:10401C00296822004046891900F0E6FCD7E7C04623
:10402C00F0B54F464646D646C0B50F008368C1680A
:10403C00060014005B1A1ED493421AD31500002DEF
:10404C0005D12000E0BCBA46B146A846F0BDF368E5
:10405C0031689C462A006144380000F0C5FCF368C6
:10406C009C4673686544F5609D42EAD10023F36079
:10407C00E7E70020E6E7426890464344A342F8D3C2
:10408C000B19994625009A42D9D8531A9A460368B7
:10409C0052469C463800614400F0A6FC0023424680
:1040AC00F3604B4657449D1AC9E7C04670B50100F2
:1040BC000400861D1D4D1E4823781B025840082302
:1040CC0004E0013BDBB280B2002B09D002B240000D
:1040DC00002AF6DA013B6840DBB280B2002BF5D146
:1040EC000134A642E8D14B888A781D0A1202154386
:1040FC001BD008314D190D4CADB20B781B0258403A
:10410C00082304E0013BDBB280B2002B09D002B2E1
:10411C004000002AF6DA013B6040DBB280B2002B93
:10412C00F5D101318BB2AB42E7D170BD211000004B
:10413C00FFFF0000052804D883001B180248C01894
:10414C0070470248FCE7C046186300081463000877
:10415C0070B5040004A8007849000001084301214F
:10416C000143072018400023D200024363802371CF
:10417C00200000230725C9B221706270661D082239
:10418C0001304B4004E0013AD2B2DBB2002A09D034
:10419C0059B25B000029F6DA013A6B40D2B2DBB2BD
:1041AC00002AF5D1B04201D00178E8E76371200014
:1041BC00FFF77CFF030AE071A371200070BDC046BD
:1041CC0070B5040004A840C84900058820001B01F4
:1041DC000B43D20031002370627008302A0000F0CB
:1041EC0003FC2B0AA3700023E57020000725237124
:1041FC00661D02785340082204E0013AD2B2DBB2C9
:10420C00002A09D059B25B000029F6DA013A6B405A
:10421C00D2B2DBB2002AF5D10130B042E9D16371E0
:10422C002000FFF743FF030AE071A371200070BD6B
:10423C0070B5002307244679451D027853400822A7
:10424C0004E0013AD2B2DBB2002A09D059B25B00C9
:10425C000029F6DA013A6340D2B2DBB2002AF5D17A
:10426C000130A842E9D1F01A42425041C0B270BDAF
:10427C0000788006800F704700780007400F704769
:10428C0040788006400F70474378072018407047ED
:10429C00827843881202180A10437047083070471E
:1042AC0010B50400FFF702FFE388A1791B0A09028D
:1042BC000B43181A42425041C0B210BDB0B500AF0A
:1042CC00050000F0BFF86A46C31DDB08DB00D31AFB
:1042DC009D460200040069462800FFF769FE80B283
:1042EC00844203D00024BD462000B0BD684600F0D7
:1042FC00D3F804002800FFF70DFE8442F2D8F2E751
:10430C0070B505000C001600002905D032002800FD
:10431C002100FFF7DFFD70BD3D21024A0248FFF787
:10432C00B1FDF3E7386300084863000810B5FFF7E8
:10433C00DFFD10BDF8B5DE4657464E464546E0B5A6
:10434C0000AF1E0080468A46914600F07BF86B4613
:10435C00C41DE408E4001B1B9D460500801983B2B4
:10436C003200514668469B4600F08AF8FDF7CAFCBD
:10437C004046FFF7C5FD002483450DD9FDF7E2FC4F
:10438C005B46E01ABD4643425841C0B2F0BCBB4646
:10439C00B246A946A046F8BD2A0069464046FFF73A
:1043AC00C1FD4B4684B2002BE8D032004946404652
:1043BC00FFF7B8FD2418A4B2E0E7C046F8B54E46A6
:1043CC004546DE465746E0B500AF060089469046A6
:1043DC00FFF774FF0025041E07D1BD462800F0BC72
:1043EC00BB46B246A946A046F8BD6A46C31DDB08CB
:1043FC00DB00D31AEA469D46FDF784FC2200694691
:10440C003000FFF70DFE0600B6B2EB46FDF79AFC46
:10441C00002E01D1D546E0E7684600F03DF8844215
:10442C0005D159464046C8470125D546D5E7252133
:10443C00024A0348FFF726FDF3E7C0466063000815
:10444C00486300080C20704710B5FDF77FFD020093
:10445C000B0003480260436080235B02836010BD45
:10446C007022002010B5FDF771FD02000B0003480F
:10447C000260436080239B02836010BD6022002099
:10448C0070B504000E001500FDF760FD668120601C
:10449C0061602581200070BD00890C3080B27047AE
:1044AC00807A7047008970470C30704710B5042A29
:1044BC0024D012D8012A15D0022A1BD1052303704F
:1044CC000023441CC85CE0540133D8B29042F9D3A9
:1044DC000220002A0AD180B210BD082A0AD1072373
:1044EC000370EDE7042303700B784370013AD0B2EC
:1044FC000230F0E7142303700120EDE7062303706C
:10450C00DEE7C046F0B5C6460E0000B5002917D050
:10451C00FF23050000240227984601CDFEF75AFA26
:10452C0080B280459B415B420233C01801343F1876
:10453C00E4B2BFB2A642F0D1380080BCB846F0BDA0
:10454C000227F9E7F8B5DE4657464E464546162390
:10455C00E0B583460370002A38D0013AD2B29200FB
:10456C0091460B1D0E000127994411E002220C23E9
:10457C0092462B7068700A3B020454444146120C5C
:10458C00E8183F19043600F02FFABFB2B14512D02B
:10459C005B46DD19336818009846FEF71BFA84B2A7
:1045AC00FF2CE3D90D2303222B70230AAB70924608
:1045BC0003236870E0E7781C80B25A461823D35561
:1045CC00F0BCBB46B246A946A046F8BD0220012766
:1045DC00F3E7C04607280DD9030004220C3B934394
:1045EC00DBB2002B09D00D389043C3B20020002B56
:1045FC0006D07047013188B2FBE7023188B2F8E788
:10460C00033188B2F5E7C046F8B5050016001C006A
:10461C000D2909D80B291BD80439032916D83100C8
:10462C00DAB2FFF743FFF8BD103901290ED8FF2B82
:10463C002AD8102344700370022702202200310074
:10464C002818E41900F0D0F9A0B2ECE70020EAE752
:10465C001000FEF7BFF984B2FF2C0FD90D232B707D
:10466C00230AAB7003270323687002043100120C79
:10467C00E818E41900F0B8F9A0B2D4E70C2302272B
:10468C002B7068700A3BF0E711230370230A447007
:10469C00837003270320D1E770B50500502000F08C
:1046AC0081F90600FEF774F901356C1044430134AE
:1046BC00A4B2200000F076F90100300000252200A1
:1046CC0002C0FFF707FC2000B58300F06BF9B06265
:1046DC000100300022002C30FFF7FCFB442330009B
:1046EC00F55270BD70B504000430FFF7FDFB0025DA
:1046FC002000A5832C30FFF7F7FB4423E55270BD57
:10470C0010B5838B0400002B01D0002010BD0430A9
:10471C00FFF7EEFB0028F8D04423E35A002BF4D12A
:10472C0020002C30FFF7E4FBF0E7C04670B5061D07
:10473C00040030000D00FFF7E3FB2C342880200030
:10474C00FFF7DEFB68803000FFF7DAFB0500200086
:10475C00FFF7D6FB2B1C82B2ADB2954200D9031CDD
:10476C0098B270BDF0B5C64600B5040000AF0800A5
:10477C000D009046FEF70EF9012804D90020BD4625
:10478C0080BCB846F0BD83001818C000061DFEF7AB
:10479C00FFF8A61904003000FFF7B2FB8442EDD8F5
:1047AC006A46E31DDB08DB00D31A9D46220000217C
:1047BC00684600F022F94246290000F015F9220063
:1047CC0069463000FFF7AEFB201A43425841C0B295
:1047DC00D5E7C046F0B5D6464F464646C0B50400B0
:1047EC0000AF0D00FEF7D4F8A38B0600002B4BD0C6
:1047FC004423E35A002B1ED020006369E26B28305F
:10480C00934216D903002A00143352CB52C2010032
:10481C001B681430136003892A8924319B1A038185
:10482C00FDF7C0F90120BD46E0BCBA46B146A8462A
:10483C00F0BD2000E6E7F31DDB08DB0098466B4675
:10484C0042469B1AE94620009D46320069462C30B0
:10485C00FFF7E6FB864257D014229246A38BCD4637
:10486C00A244002B57D02B00524643CA43C321000D
:10487C00126850461A60A38B2A8924319B1AA38391
:10488C00FDF790F90120CEE7C31DDB08DB0098464D
:10489C006B4642469B1AE9469D4632006946201DEE
:1048AC00FFF7BEFB864228D03C2244239246E35AB3
:1048BC00CD46A244002B11D02B00524643CA43C311
:1048CC00126850461A6044222989A35A5B1A2100A7
:1048DC00A3524C31FDF766F90120A4E76B46424622
:1048EC009B1A9D462000320069462C30FFF798FB3E
:1048FC00864221D00020CD4695E721006846143130
:10490C00FEF74CF8CD4673E7210068463C31FEF7C4
:10491C0045F8CD4670E76B4642469B1A9D463200E1
:10492C006946201DFFF77CFB8642E3D16846514661
:10493C00FEF734F8CD4696E768465146FEF72EF85A
:10494C00CD46B9E710B50400806A00F035F8206850
:10495C0000F032F8200000F02FF810BD70B50026E2
:10496C000C4D0D4C641BA410A64209D1002600F07E
:10497C0023FD0A4D0A4C641BA410A64205D170BD40
:10498C00B300EB5898470136EEE7B300EB58984765
:10499C000136F2E7BC630008BC630008BC63000886
:1049AC00C063000810B5034B0100186800F09AF8BA
:1049BC0010BDC0460800002010B5034B010018685C
:1049CC0000F024F810BDC0460800002030B50024CB
:1049DC000139A24201D1002005E0035D01340D5DD7
:1049EC00AB42F6D0581B30BD002310B59A4200D113
:1049FC0010BDCC5CC4540133F8E703008218934219
:104A0C0000D1704719700133F9E7000070B505004B
:104A1C00002910D00C1F2368002B00DAE4182800A2
:104A2C0000F070F91D4A1368002B05D16360146007
:104A3C00280000F06FF970BDA34208D921686018F6
:104A4C008342F3D118685B6841182160EEE71A00C5
:104A5C005B68002B01D0A342F9D911685018A04211
:104A6C000BD120680918501811608342E0D11868E6
:104A7C005B68411811605360DAE7A04202D90C233D
:104A8C002B60D5E721686018834203D118685B68F6
:104A9C004118216063605460CAE7C0468022002040
:104AAC0070B50F4E0D0031680400002902D100F0E2
:104ABC008FF830602900200000F08AF8431C0AD0DF
:104ACC000323C51C9D43A84207D0291A200000F0DF
:104ADC007FF8431C01D101256D42280070BDC046F2
:104AEC0084220020F7B50322CB1C93430833060025
:104AFC001F000C2B32D20C27B94231D8300000F0F9
:104B0C0001F9324D2B681C00002C2ED139003000DD
:104B1C00FFF7C6FF0400431C1ED12C682500002D96
:104B2C004AD123682900E3183000019300F050F8B3
:104B3C00019B834243D123680337FF1A03239F430E
:104B4C0008370C2F00D20C2739003000FFF7A8FFD4
:104B5C00431C34D02368DF19276013E0002BCBDA19
:104B6C000C23002533602800FEBD2268D11B20D405
:104B7C000B2917D9E2192760A34211D12A60636867
:104B8C00116053603000250000F0C4F807220B358B
:104B9C00231D9543EA1A9D42E5D05B1BA350E2E727
:104BAC005A60ECE76268A34201D12A60EAE75A60D6
:104BBC00E8E723006468A7E72C006D68AFE70C23D7
:104BCC003000336000F0A6F8CDE7C046802200200C
:104BDC00002370B5064D040008002B6000F0DEFBCE
:104BEC00431C03D12B68002B00D0236070BDC04642
:104BFC00882200200CB430B5174B0C001D689DB0FA
:104C0C00002908DA8B2301202B6040421DB030BCF8
:104C1C0008BC02B0184782236A469B00938200238B
:104C2C0002900690994200D04B1E049307930123E7
:104C3C006A465B42D382280021AB209A02A90193D9
:104C4C0000F0D2F8431C01DA8B232B60002CDDD052
:104C5C000023029A1370D9E70800002003000A7899
:104C6C0001311A700133002AF9D17047030030B5B5
:104C7C001D00002A06D00C78013A01332C7001314A
:104C8C00002CF5D100219A18934200D130BD197037
:104C9C000133F9E730B5140005001A009BB0002C65
:104CAC0005DA8B230360012040421BB030BD822308
:104CBC0068469B0083810023009104919C4200D0A4
:104CCC00631E02930593012369465B42CB81280046
:104CDC001E9B00F089F8431C01DA8B232B60002CFF
:104CEC00E3D00023009A1370DFE7000007B50093B0
:104CFC0013000A00010002480068FFF7CBFF0EBD4D
:104D0C000800002010B5024800F0F0FA10BDC046B3
:104D1C008C22002010B5024800F0E9FA10BDC04604
:104D2C008C220020F0B58E6885B007000C00039231
:104D3C0001939E423CD890238A89DB001A4234D0DE
:104D4C000969236860695B1A029303234343DD0FEF
:104D5C00ED18019B029801331B186D10AB4200D962
:104D6C001D00530532D529003800FFF7BBFE061E87
:104D7C0009D10C233B6040230120A28940421343FC
:104D8C00A38105B0F0BD029A2169FFF72DFEA3891E
:104D9C00144A1A4080231343A381029B2661F61800
:104DAC0026606561019EED1AA560019B9E4200D9AB
:104DBC00019E32000399206800F0A5FAA368002038
:104DCC009B1BA36023689E192660DAE72A00380033
:104DDC0000F0ACFA061EE0D138002169FFF716FE90
:104DEC00C7E7C0467FFBFFFFF0B5A1B003901D00E5
:104DFC008B890F0016001B0611D50B69002B0ED1E9
:104E0C004021FFF76FFE38603861002805D10C2374
:104E1C00039A0138136021B0F0BD40237B6100235D
:104E2C0008AC6361203363761033A37607953500A5
:104E3C002B78002B01D0252B47D1AB1B0593B5420A
:104E4C000CD0320039000398FFF76CFF431C00D1E3
:104E5C00AEE06269059B9446634463612B78002B3A
:104E6C0000D1A5E0012200235242626004A9543211
:104E7C0052186E1C2360E360A3601370A3650522B7
:104E8C003178544800F034FA751C00281FD1226880
:104E9C00D30604D5532304A95B18202119701307DA
:104EAC0004D5532304A95B182B21197033782A2BB2
:104EBC0016D0350000210A20E3682A786E1C303A9F
:104ECC00092A4ED9002911D117E00135B0E7414B21
:104EDC002268C01A0123834013432E002360CEE7BF
:104EEC00079B191D1B680791002B01DB0B9304E03A
:104EFC005B42E3600223134323602B782E2B0AD1F1
:104F0C006B782A2B35D1079B02351A1D1B6807922B
:104F1C00002B2BDB0993304E03223000297800F054
:104F2C00E7F9002806D04023801B83402268013516
:104F3C00134323602978062228486E1C217600F042
:104F4C00D7F900283CD0264B002B25D10722079BF4
:104F5C0007339343083307936369049A9B1863617F
:104F6C0065E74343350001219B18A6E701235B420B
:104F7C00D0E700230A201A000135636029786E1CE3
:104F8C003039092903D9002BC5D00992C3E7424314
:104F9C00350001235218F1E707AB00933A002100CA
:104FAC00104B039800E000BF0490049B0133D3D155
:104FBC00BB890D985B0600D42DE7012040422AE7FF
:104FCC0007AB00933A002100064B039800F07CF8E5
:104FDC00EAE7C04680630008866300088A6300081D
:104FEC0000000000314D0008F7B5150001938A68E8
:104FFC000B690C000090934200DA130022002B6026
:10500C0043321278002A01D001332B6023689B06AF
:10501C0002D52B6802332B602268062317001F4031
:10502C001A4227D0230043331B785A1E934122681F
:10503C00920630D4220001990098089E4332B04762
:10504C00431C25D0062320682A68E168002503400C
:10505C00042B03D18D1AEB43DB171D40A368226987
:10506C00934201DD9B1AED180027BD4220D1002090
:10507C0010E00137E3682A689B1ABB42D2DD22009C
:10508C00012301990098089E1932B047431CF0D1B6
:10509C0001204042FEBD3020E11843310870210050
:1050AC005A1C45310978A218433202331170C1E7FA
:1050BC002200012301990098089E1A32B047431C24
:1050CC00E6D00137D1E70000F0B58BB006920A00AC
:1050DC0043320793059004920A7E0C00109B782AA9
:1050EC0007D8622A09D8002A00D1C1E0582A00D179
:1050FC008CE026004236327022E01000633815280E
:10510C00F7D8FDF76FFC16001F00F6FFF6FFF6FF51
:10511C00F6FF1F00F6FFF6FFF6FFF6FFA8003600BD
:10512C009A00F6FFF6FFB900F6FF3600F6FFF6FF21
:10513C009E0026001A684236111D196013683370E0
:10514C000123A7E0086819680A1D05060BD50D6830
:10515C001A60002D03DA2D23049A6D421370614BF3
:10516C000A2703931BE00D681A604106F1D52DB296
:10517C00EFE70D681968081D18602E0601D50D683B
:10518C0003E06D06FBD50D68ADB2564B08270393B3
:10519C006F2A00D002372300002243331A70636851
:1051AC00A360002B03DB0422216891432160002DB6
:1051BC0002D1049E002B0CD0049E28003900FDF770
:1051CC00A1FC039B013E5B5C33702B0005009F42EE
:1051DC00F3D9082F09D12368DB0706D56368226948
:1051EC00934202DC3023013E3370049B9B1B2361F2
:1051FC00079B210000930598069B09AAFFF7F4FE74
:10520C00431C4CD1012040420BB0F0BD45310A701B
:10521C00344A03921A68216820CA1A60080616D507
:10522C00CB0702D52023194321601027002DB2D1C2
:10523C00202322689A432260ADE7202209680A43A2
:10524C0022602200782145321170274AE1E7480696
:10525C00E6D5ADB2E4E71A680D68101D496918600F
:10526C0013682E0601D5196002E06D06FBD5198076
:10527C000023049E2361BBE71A68111D1960166890
:10528C0000213000626800F033F8002801D0801B48
:10529C006060636823610023049A1370A8E7236994
:1052AC00320006990598079DA847431CAAD023688D
:1052BC009B0715D4099BE0689842A5DA1800A3E770
:1052CC002200012306990598079E1932B047431C0A
:1052DC0098D00135E368099A9B1AAB42F0DCE9E7F8
:1052EC000025F7E791630008A26300087047704738
:1052FC00C9B28218904201D10020704703788B42CA
:10530C00FBD00130F6E710B5884202D98B189842D1
:10531C0003D3002307E08B5C8354013AFBD210BD0E
:10532C00CC5CC45401339A42FAD1F8E7F7B50700C4
:10533C000E001400002905D11100FFF7D3FB050066
:10534C002800FEBD002A03D1FFF760FB2500F7E71C
:10535C0000F01BF80190844203D835004308A342A7
:10536C00EED321003800FFF7BDFB051EE8D0019BF2
:10537C0022009C4200D91A0031002800FFF734FBB0
:10538C0031003800FFF742FBDAE70B1F1B68181FD0
:10539C00002B01DA0B58C01870470000044A0300B8
:1053AC001068002802D0C318136070470148FAE750
:1053BC009022002098220020F8B5C046F8BC08BC0A
:1053CC009E467047F8B5C046F8BC08BC9E46704770
:1053DC00BA130008C2120008C2120008C212000858
:1053EC00C2120008C2120008C2120008C212000841
:1053FC00C2120008C2120008B6120008B612000849
:10540C00B6120008B6120008B61200085E130008A7
:10541C00B6120008B6120008B6120008B612000840
:10542C00B6120008B6120008B6120008B612000830
:10543C00B6120008B6120008B6120008B612000820
:10544C00B6120008B6120008B6120008B612000810
:10545C00B6120008B6120008B6120008B612000800
:10546C00B6120008B6120008B6120008B6120008F0
:10547C00B6120008B6120008B6120008B6120008E0
:10548C00B6120008B6120008B6120008B6120008D0
:10549C00B6120008A013000866130008B612000824
:1054AC00F0120008B6120008B6120008B612000876
:1054BC00B6120008B6120008B6120008B6120008A0
:1054CC0036130008B61200084C130008B612000878
:1054DC00B6120008EA130008B61200088E13000872
:1054EC00B61200081813000884130008DC13000817
:1054FC00241500080E1500080E1500080E150008DE
:10550C000E1500080E1500080E1500080E150008E3
:10551C00D81500080E1500080E150008DC1400083C
:10552C0072150008C61500080E1500080E150008A7
:10553C000E1500080E1500080015000824160008AA
:10554C006A1600088C160008241600082416000899
:10555C002416000824160008241600082416000837
:10556C002416000824160008241600082416000827
:10557C002416000824160008241600082416000817
:10558C002416000824160008241600082416000807
:10559C0024160008241600082416000824160008F7
:1055AC00241600082E1600082416000824160008DD
:1055BC00241600082E1600082416000824160008CD
:1055CC00241600089A1600085A160008201600081F
:1055DC002416000824160008141600081C170008CE
:1055EC0008170008261700081C1700081C170008CD
:1055FC001C1700081C1700081C1700081C170008B3
:10560C001C1700081C1700081C1700081C170008A2
:10561C001C1700081C1700081C1700081C17000892
:10562C001C1700081C1700081C1700081C17000882
:10563C001C1700081C1700081C1700081C17000872
:10564C001C1700081C1700081C1700081C17000862
:10565C001C1700081C17000818170008181700085A
:10566C001C1700084A1700081817000846170008EE
:10567C0018170008181700083C170008981700089E
:10568C00A6170008D01700089817000898170008EC
:10569C009817000898170008981700089817000822
:1056AC009817000898170008981700089817000812
:1056BC009817000898170008981700089817000802
:1056CC0098170008981700089817000898170008F2
:1056DC0098170008981700089817000898170008E2
:1056EC009817000898170008A217000898170008C8
:1056FC0098170008A21700089817000898170008B8
:10570C0098170008981700089817000898170008B1
:10571C00CC17000898170008DE1700083C18000882
:10572C004E180008701800083C1800083C180008B7
:10573C003C1800083C1800083C1800083C180008ED
:10574C003C1800083C1800083C1800083C180008DD
:10575C003C1800083C1800083C1800083C180008CD
:10576C003C1800083C1800083C1800083C180008BD
:10577C003C1800083C1800083C1800083C180008AD
:10578C003C180008301900083C1800083C180008A8
:10579C003C1800087E1800088E180008B418000881
:1057AC003C1800083C1800083C1800083C1800087D
:1057BC003C1800083C18000808190008842100084F
:1057CC0084210008502000086A2000088E20000860
:1057DC00A82000081A2100083A21000850210008CE
:1057EC00662100082A200008E6220008562300083B
:1057FC0030230008F82200087223000876270008DE
:10580C004E2700084E2700084E2700084E27000898
:10581C004E2700084E2700084E2700084E27000888
:10582C004E2700084E270008B8280008FE2700085D
:10583C004E2700084E2700084E2700084E27000868
:10584C004E2700084E2700084E2700084E27000858
:10585C004E2700084E2700084E270008DC270008BA
:10586C004E2700084E270008B62700084E270008D0
:10587C00962700084E2700084E27000876270008B8
:10588C006173736572745F6661696C6564000000B6
:10589C0072784572726F7243616C6C6261636B00FB
:1058AC0074784572726F7243616C6C6261636B00E9
:1058BC00303132333435363738394142434445463A
:1058CC0073746174654E6F700000000073746174C2
:1058DC00654E6F70000000004253505F646F436868
:1058EC00616E6E656C416374696F6E0073656E6496
:1058FC00537461747573526573706F6E73650000C9
:10590C0064697370617463684576656E7400000039
:10591C004253505F7472696767657241444300007B
:10592C00EC5E0008845B0008020018F6C800030057
:10593C00586000087C5B0008040050C32C01050073
:10594C0060600008745B00080400204EC80005006D
:10595C006C600008505B00081200307528000900CC
:10596C0074600008385B00080C00401F88130B00A3
:10597C00737461746543616E6F70790073746174D4
:10598C006549646C650000007374617465537472CE
:10599C0065616D696E670000737461746550756C38
:1059AC0073696E67000000007374617465506175F3
:1059BC0073656400486172644661756C745F48611C
:1059CC006E646C657200000073707572696F75732C
:1059DC004952510054494D315F42524B5F55505F13
:1059EC005452475F434F4D5F49525148616E646C4E
:1059FC0065720000444D41315F4368616E6E656CA9
:105A0C00315F49525148616E646C65720000000050
:105A1C0068616E646C65526561645265717565731D
:105A2C0074000000737461746552656164790000E0
:105A3C00507573682074686520627574746F6E207D
:105A4C00746F20706C6179206F7220706175736552
:105A5C00203A2D290A00000068616E646C6557724B
:105A6C0069746552657175657374000068616E6464
:105A7C006C65496E766F6B655265717565737400F4
:105A8C0068616E646C6552657175657374000000B5
:105A9C0068616E646C65496E636F6D696E674672A2
:105AAC00616D6500000000000000000000000000B7
:105ABC0000000000000000000000000000000000DA
:105ACC0000000000010000000200000003000000C4
