:020000040800F2
:1000000000900020B922000809230008A11400086C
:1000100000000000000000000000000000000000E0
:10002000000000000000000000000000092300089C
:10003000000000000000000009230008FD14000873
:1000400009230008092300080923000809230008E0
:100050000D1500080923000809230008B11700083E
:1000600009230008B918000809230008092300081B
:100070001D180008291500089915000851160008D8
:1000800009230008011800080923000809230008B3
:100090000923000809230008092300080923000890
:1000A0000923000809230008092300080923000880
:0C00B00025190008092300080923000896
:1000BC0010B5064C2378002B07D1054B002B02D032
:1000CC00044800E000BF0123237010BD7000002025
:1000DC0000000000B0410008044B10B5002B03D009
:1000EC000349044800E000BF10BDC04600000000FA
:1000FC0074000020B0410008F0B50124C0238440F6
:10010C000B4D5B00EC500700830803203840FF27A1
:10011C00AC46C026C0008740890181409B006344E7
:10012C00B6009A59BA430A439A512C60F0BDC046A6
:10013C0000E100E0F0B501224F46D64646460B687A
:10014C0000249146C0B5002B1AD14BE01700574341
:10015C007B00DB19DB43C568AC4666460D691E4067
:10016C007D433543C5604D68022D2DD07D4302681B
:10017C0013402B4303600B681A000134E24031D06A
:10018C004D461A00A5402A402B42F5D04B68013B46
:10019C00012BDBD81700574383688D6898467B008A
:1001AC009C467D43BC44AA4646466546AE43350054
:1001BC00564663462E438660CE6845685643954343
:1001CC003543DB434560C6E7FF2A10D83D007D432D
:1001DC00026A2E01761BB2434E6975432A430262B2
:1001EC004D68C3E7E0BCBA46B146A846F0BD120A5A
:1001FC0052435243456A1601B61AB5434E697243CF
:10020C002A4342624D68B1E710B511240200084838
:10021C000B00016AA14301628020064980008862BC
:10022C00DA38FF3888610449044802F0B9FFFEE768
:10023C00002C014000040050E844000884470008EA
:10024C00FA2170B5124C05008900206801F0A2FD5E
:10025C00802301385B04984201D3012070BDC0217A
:10026C000C4A090650600C48036A1B021B0A0B431C
:10027C0003620721002393601160032DEDD8026AFD
:10028C00A9071202120A0A43026218006560E5E728
:10029C000000002010E000E000ED00E010B50A00C6
:1002AC0002490348103102F07BFF10BDE8440008FE
:1002BC009047000810B50A0002490348203102F0AB
:1002CC006FFF10BDE844000890470008002210B5ED
:1002DC00037844781C4205D1013292B202308A4232
:1002EC00F6D110BD02490348303102F059FFF8E74E
:1002FC00E8440008984700084B1E9941012310B5AB
:10030C0049429943002200230E3103F0A5F910BD98
:10031C0070B5060014001D00A93682B0FF3600929D
:10032C00019332687368A41A9D41002D04D1074BC8
:10033C009C4201D802B070BD08236A46132103F019
:10034C008BF9009B019C33607460F3E7BFE1E40020
:10035C00F0B5D6464F4646460300C0B5A533FF332D
:10036C00DD8902000020002D04D1E0BCBA46B14664
:10037C00A846F0BD987ADE889979002800D086E0EE
:10038C001C7A587A013C241A0120E4B29872490074
:10039C00D220400012581F7B5018565CDA7A4578F0
:1003AC009146C82A00D983E01100794802F0F8FE82
:1003BC0001235B424B449846042F00D8A0E04B46E7
:1003CC00002B05D1734B744A1800744902F0F8FEE7
:1003DC00002C00D18AE07B01DB1B9801C01AFA23A8
:1003EC00C000C01980019B04984279D36C4800224C
:1003FC0006216C4B013CD8621C635A621A698A4311
:10040C001A61354200D0A0E00523334200D182E0CE
:10041C0042460221634B35435A63DA680A43DA6079
:10042C005A6901390A435A614022ED4301205E4B5F
:10043C009A61EBB2054200D0A0E05C4A02219062C6
:10044C000422082019401A400340002900D091E0F2
:10045C00022056498862002A73D10421534A9162C2
:10046C00002B54D02022514B9A6100235221504A28
:10047C004C4C53526363A36390693539002203F0EB
:10048C00EBF8012223680120134323606DE701314F
:10049C009F88C8B2B84231D041005C7A187A0134D6
:1004AC00E4B201385C72844256D0002098726FE737
:1004BC00C821374802F074FEC7239846042F87D80A
:1004CC00344B3C4A18003C499A4602F079FE002C09
:1004DC000ED07B01DB1B9801C01AC000C019800133
:1004EC00FA21890001F056FC013880E7294B9A4625
:1004FC005046324A324902F063FE6CE70021CCE7E9
:10050C00244B2C4A18002C4902F05AFE57E72022A3
:10051C00264B9A62A9E742460421224B35439A6343
:10052C00DA680A43DA605A6903390A435A61002DC2
:10053C001ED140221C4B9A621C4B3E3A99619A6127
:10054C0008230421194A91618AE762211D4A114846
:10055C00FF3102F035FE57E700200136B6B2587273
:10056C00B74201D0DE80A0E7013DD880DD819CE759
:10057C00ADB259E702200D4988616CE708240221CD
:10058C003C3A19401A402340084CA0615DE7C04634
:10059C00B0470008DC470008F0470008460300009D
:1005AC00FEFF0000002C0140000800500004005029
:1005BC008C000020C8470008450300000C480008C8
:1005CC004703000024480008032310B5104C114ABF
:1005DC0023616361104BA261E36180239B01236261
:1005EC000023A3626362E36222660C4A0C49583210
:1005FC0062661022E01DA2662367E366636703F060
:10060C0023FA2000074903F01FFA2023A37110BD21
:10061C002C210020404800082C0100208C000020D8
:10062C004C48000850480008F8B54746CE4680B5FF
:10063C008368C56899465B1B9846436804000E00A6
:10064C0017005819904507D9ED1903F0F7F8E56034
:10065C00C0BCB946B046F8BD424603F0EFF84B4675
:10066C003100ED19ED1A2A006068414403F0E6F8F8
:10067C00E560EDE7F0B557464E464546DE46E0B53B
:10068C00354B83B09A461B78060015000191002B60
:10069C0056D07700BB19DB0053441A6F9046DA6EC4
:1006AC009146904525D8130042462C009B1A9D423A
:1006BC0009D8002C09D1200003B0F0BCBB46B246CF
:1006CC00A946A046F0BD1C1EF5D0A146BB19DB0007
:1006DC005344596E220041440198A04403F0AEF8F3
:1006EC004C46002CE7D04346BF19FF0057443B67EC
:1006FC00E1E742469B6E2C009B1A9D4227D8BB1902
:10070C00DB0053449B46596E22004144019803F090
:10071C0095F85B469B6EA0442D1B434519D04B4668
:10072C0042469B1A99464D450DD8002DD9D0019BB8
:10073C00A1469C46A44463462C000193A944C5E7FA
:10074C00FFF742FFA5E74D46002DCAD0EFE71C008E
:10075C00D5E700239846E6E72C210020F8B557464C
:10076C004E46DE4645468946411CE0B517004A0018
:10077C0052180300D2009246344A5E009346100091
:10078C00F618F6005E44F36A50449846012B0CD0E0
:10079C00022B27D0002B17D0002398464046F0BCE4
:1007AC00BB46B246A946A046F8BDB36A726A9342EC
:1007BC0047D9013B9B1AB8469F4200D998464246FE
:1007CC004946FFF731FFE9E7B36A726A934233D9BE
:1007DC00013B9B1A9F42E1D83A004946FFF724FFA0
:1007EC00B846DBE70023746A98461DE0013B356A86
:1007FC001B1BBB4200D93B002D1B9D4200D91D0089
:10080C005B46534458682A004946001903F016F811
:10081C00336A6419E31A5A1E93415B421C40A84484
:10082C00A9447F1B7462B9D0B36AA342DED8356A7F
:10083C005B19013B1B1BDCE7316A5B18013B9B1A04
:10084C00C8E7316A5B18013B9B1AB4E72C210020E6
:10085C00F0B5C64600B5856843686A1C04009A4228
:10086C0007D8036859551500C36882600133C3600B
:10087C0043689D4202D080BCB846F0BD236827690E
:10088C0098460E4B1B78002B15D0EFF310860121E8
:10089C0081F310882A0041463800FFF75FFF86F38A
:1008AC001088A368834203D001235B42E360E2E734
:1008BC000023A360DFE7FFF787FEE6E72C2100208B
:1008CC00F0B54E4645465746DE46E0B583B09A46EF
:1008DC000C9B80460E0015009946914200D27DE09B
:1008EC0008000127290001F055FA01378542F9D992
:1008FC00574500D2574601230D9A1A4001920D9A82
:10090C0013424ED14B46002B4BD0130020249B0797
:10091C005ED44F4545D201235B429C4621004046A4
:10092C00E144FFF795FF4346DB68002B32DB4B4677
:10093C00002BEED153460124012B07D901235B4236
:10094C009C46E24453466C43012BF7D821003000FF
:10095C0001F020FA8542F5D9214B9B4650239A464B
:10096C0006E02900200001F015FAAC420FD3040078
:10097C003000210001F094FA534658440E00C15C3B
:10098C004046FFF765FF4346DB68002BE9DA019B25
:10099C00002B19D103B0F0BCBB46B246A946A04609
:1009AC00F0BD4346DB68002BC4DAF3E74F45F1D2C8
:1009BC0001235B429C4620214046E144FFF748FF5F
:1009CC004346DB68002BE5DB4B46002BEED1E1E721
:1009DC0053465C425C41240120349AE7012787E7A7
:1009EC00E844000870B5050008000C0002F0EAFEAF
:1009FC000E280CD00CD807282FD00C283CD1D02393
:100A0C005B00E858002200231A2102F025FE70BD7D
:100A1C00132831D1200002F0D7FE00234168006872
:100A2C00194A01F057FB04003C21200001F038FA70
:100A3C0020000E003C2101F0ADF93C2101F030FA10
:100A4C000D00E1212000090101F0A4F9330001009F
:100A5C002A000E4802F0A4FBD9E7200002F0B4FEF5
:100A6C0004680B48210002F09BFB022CCFD1D82349
:100A7C0000225B00EA54CAE70649020060310648CE
:100A8C0002F08EFBC3E7C04640420F0058480008F6
:100A9C0070480008E84400088448000870B5050058
:100AAC0008000C0002F08EFE1F280DD8214A800091
:100ABC0013589F4620492148703102F071FB2800E1
:100ACC00FFF746FC002070BD200002F07BFE1A49A7
:100ADC00020070311A4802F063FB0020F3E716495C
:100AEC001848703102F05CFB0020ECE7200002F0AB
:100AFC006BFE154A41888388008853434A43C101E1
:100B0C0009180901091A9B0B1048920B890A02F06B
:100B1C0047FB0020D7E72800FFF71AFC0300002052
:100B2C00002BD0D10A4802F03BFB0A48CBE70A481D
:100B3C00C9E7C046C8410008E844000890480008CE
:100B4C00EC4800089C4800084DCE0000C448000842
:100B5C00A8480008510C0008690B000870B5050086
:100B6C0008000C0002F02EFE1F2803D8224A800039
:100B7C0013589F46200002F025FE20490200204811
:100B8C0002F00EFB002070BD1C491E4802F008FB51
:100B9C000020F8E719491C4802F002FB0020F2E79C
:100BAC00200002F011FE194A4188838800885343C3
:100BBC004A43C10109180901091A9B0B1448920BED
:100BCC00890A02F0EDFA0020DDE7124802F0E8FA9B
:100BDC001148D8E7D9235B00EB5A002B06D10F48FC
:100BEC0002F0DEFA0E48CEE70020CCE70D4802F00A
:100BFC00D7FA0020C7E7C0464842000868450008FD
:100C0C00EC480008904800089C4800084DCE0000B5
:100C1C00C448000810490008A90A0008A8480008A0
:100C2C00510C00082049000810B5040002F010FD1A
:100C3C00002800D110BDD0235B00E05802F008FD65
:100C4C00F8E7C04670B5050008000C0002F0BAFDCC
:100C5C001F2803D82E4A800013589F46200002F00C
:100C6C00B1FD2C4902000C312B4802F099FA0020FE
:100C7C0070BD284C294821000C3102F091FAD22386
:100C8C0004225B001834EC500433EA50244A043339
:100C9C00EA50A5355D3BFF35FF3B2B734133FF33EA
:100CAC000020EB81E4E71B491E480C3102F078FA76
:100CBC000020DDE7200002F087FD1B4A4188838875
:100CCC00008853434A43C10109180901091A9B0BB7
:100CDC001648920B890A02F063FA0020C8E7D92360
:100CEC005B00EB5A002B0BD01148C1E7114802F006
:100CFC0057FA0020BCE7104802F052FA0020B7E780
:100D0C000E486D210E4A02F05BFA0948B0E7C04666
:100D1C00C842000868450008EC48000890480008E4
:100D2C00030000509C4800084DCE0000C448000849
:100D3C00A90A000870490008904900086049000899
:100D4C0040490008F8B50600D036050001223000F5
:100D5C0002F000FB012804D0A921244A244802F007
:100D6C002FFA72B6BFF34F8FBFF36F8F4827214C0A
:100D7C00E35DFF2B2CD0482201333000A35402F04A
:100D8C0063FA00280FD04825635D002B18D0482249
:100D9C00013BDBB2A354002B04D1BFF34F8FBFF345
:100DAC006F8F62B6F8BDE523EA56012A17D04825A5
:100DBC0011491248203102F0F3F9635D002BE6D1A2
:100DCC00A6210F4A0F48890002F0FAF9635DDEE7AD
:100DDC000D4A0E490B4802F0F3F9E35DCBE7802195
:100DEC000B4A13688B431360CDE7C046A849000833
:100DFC00B44900088C00002068450008EC49000844
:100E0C00084A0008DC470008C449000891020000A9
:100E1C000044004070B5D0267600835904009847F2
:100E2C00051E1BD0A65902F0AFFC01002000B047F4
:100E3C00002804D0D6210A4A0A4802F0C1F9D0236E
:100E4C005B00E55002F092FC01002000A84700284E
:100E5C0004D0D921024A034802F0B2F970BDC04651
:100E6C00284A000860490008F0B50400E425E02099
:100E7C00C646E626635D00B55A1C62552258D1540D
:100E8C00615DA35B994206D327580FD0E822A05A84
:100E9C001B18994203D0002080BCB846F0BDE42357
:100EAC0000223800E25402F081FBF5E7380002F032
:100EBC0055FB00280DD0380002F070FBE823984653
:100ECC00E05280230100DB00984215D8615DA35BE2
:100EDC00DEE7635D013BDBB26355002BDBD0002307
:100EEC00E025E4306259D1184978D154225C0133A1
:100EFC00DBB29A42F6D8CEE7034802F051F9002350
:100F0C004246A352C7E7C046344A0008F0B5D6465D
:100F1C004F464646E623C0B5C65A6B46F41DE40858
:100F2C00E4001B1B00AF9D4688460B000500002209
:100F3C000121684602F0A8FA2B4B424619002B48B7
:100F4C0034319946EA4602F02BF972B6BFF34F8F53
:100F5C00BFF36F8F4823264C9846E35CFF2B34D0AD
:100F6C00482228000133A35451463200D03002F0FD
:100F7C0073F9002814D14825635D002B1DD048223D
:100F8C00013BDBB2A354002B04D1BFF34F8FBFF353
:100F9C006F8F62B6BD46E0BCBA46B146A846F0BDFE
:100FAC00E523EA56012A18D0494648251148203134
:100FBC0002F0F6F8635D002BE1D1A6210E4A0F4832
:100FCC00890002F0FDF8635DD9E70D4A0D490B4825
:100FDC0002F0F6F84346E35CC2E780210A4A136844
:100FEC000B431360C7E7C04668450008584A000821
:100FFC008C000020EC490008084A0008DC47000877
:10100C00C44900089102000000440040F0B5C646F7
:10101C00804600B508000D0002F0C8FA0400280054
:10102C00012C16D002F0C6FA0600032C35D028008D
:10103C0002F0B4FA0700042C19D0200002F016FAC2
:10104C003B0001003200194802F0AAF880BCB846F7
:10105C00F0BD02F0B3FA04000100154802F0A0F84C
:10106C000F20EA23424601340440D454EEE7020038
:10107C003100104802F094F831004046FFF746FF6B
:10108C004246CC232800D458043BD65802F08CFAA4
:10109C003A0001003000A047D8E70100064802F0F2
:1010AC007FF831004046FFF731FFCFE7D44A000804
:1010BC00704A0008A84A0008884A0008EB2370B55B
:1010CC00C35C0400002B0BD10A2905D0C9B2FFF771
:1010DC00CBFE032815D070BD0339FFF717FFFAE7D5
:1010EC00C9B2FFF7C1FE0028F5D0E023E55828006F
:1010FC0002F068FA002813D029002000FFF786FFC1
:10110C00E9E7E023E558280002F05CFA00280DD04E
:10111C0029002000FFF77AFFEB230122E254DAE7E3
:10112C0005490648483102F03BF8D4E70249034828
:10113C00483102F035F8EFE768450008044B000829
:10114C000FB4F0B5DE4657464E4645468023E0B513
:10115C0008269BB002AF9B19D91910C92000F96061
:10116C0002F014F805000820801922005021FB68B9
:10117C00C01902F0B1FC00280BDA2800BD4619B0EA
:10118C00F0BCBB46B246A946A046F0BC08BC04B0B5
:10119C0018478C23434E0130F358EB467B6084B2E6
:1011AC0072B6BFF34F8FBFF36F8F48239846F35C33
:1011BC00FF2B66D0D02148228C460133B3547B6878
:1011CC0063441800994602F035F8E6237A68D35A3E
:1011DC009846A04440453DD343466A460733DB0856
:1011EC00DB00D31A9D4602AB9A46EA2308217A68A3
:1011FC005046D25CE23B5B18DB190439009402F0D8
:10120C0077F942465146484602F026F84823F35CEB
:10121C00002B16D04822013BDBB2B354002B04D177
:10122C00BFF34F8FBFF36F8F62B6504602F0C2F917
:10123C001D49020023001D485C3101F0B1FFDD4661
:10124C009BE7A6211A4A1B48890001F0B9FF4823E5
:10125C00F35CDFE74823F35C002B1AD04822013BF8
:10126C00DBB2B354002B04D1BFF34F8FBFF36F8F9E
:10127C0062B60D49220010485C3101F091FFDD4649
:10128C007BE70E4A0E490B4801F09AFF4346F35C8C
:10129C0090E7A621064A0748890001F091FF4823F0
:1012AC00F35CDBE78C000020684500082C4B000841
:1012BC00084A0008DC470008144B0008C449000821
:1012CC009102000070B50400303CE3B282B0462BB2
:1012DC0003D84B4A9B00D3589F4601004948FFF75F
:1012EC002FFF02B070BD8026474DB6006B693342AC
:1012FC0003D1464801F054FFAE61FA239B005C43D6
:10130C00A4B22100424801F04BFF5023414AD45271
:10131C00414A231C944200D9131C85229BB2D20053
:10132C00934200D213003C4AD21A3C4B53438022C6
:10133C00120194463A4A63441B0B5361D1E7502384
:10134C00344DEC5A344BC83C9C4216DC8523DB00F4
:10135C009C4200DA1C0021002D4801F021FF502393
:10136C00EC522D4B1C1B2D4B6343E0E75023294DB6
:10137C00EC5A294BC8349C42E8DD1C00E6E72948AE
:10138C00FFF7DEFEADE728492848703101F008FF71
:10139C00274A284993680B4004210B439360A0E72C
:1013AC008025194CAD0063692B4203D0224801F013
:1013BC00F7FEA5620021164801F0F2FE5023002131
:1013CC00144AD152164B1D4A5A618AE780221C4995
:1013DC00D2034869030413404022824313438B61B8
:1013EC007FE702230B4A01938633D0580721843BB5
:1013FC0001AA02F031F974E71248FFF7A1FE70E779
:10140C0048430008D84B000800040050A84B0008C3
:10141C00904B00088C000020492700004907000071
:10142C0000740040C04B000868450008BC4B000825
:10143C0000240140E8FFFF7F7C4B0008FF0F0000F9
:10144C0000080050504B0008B0B5130014006A4659
:10145C000833DB08DB00D31A00AF9D462200684638
:10146C0002F0FAFA6D4600232B55022C02D12B7890
:10147C002F2B06D02A0005490548FFF761FEBD4613
:10148C00B0BD6878FFF71EFFF9E7C046E8450008D5
:10149C00F04B0008112110B50E4A0F48136A8B430C
:1014AC00136280220D4B92009A62DA3AFF3A9A61EB
:1014BC000B490C4B18315A6801F072FE0A4C01238F
:1014CC0021000A481031237401F06AFE237C002BA2
:1014DC00FCD110BD002C0140FC4B00080004005056
:1014EC00E845000800ED00E00C0100200C4C000861
:1014FC00024A5369013353617047C0460C01002006
:10150C0010B5EFF30582034903482C3101F048FE76
:10151C0010BDC046E845000890470008012210B5F0
:10152C00144B19690A421DD00620196891431960A1
:10153C00D9688143D960196901308143196140210F
:10154C000D4B99620D4B21399A6101329A6102322D
:10155C009A611C329A610A4B00229869002302F0AE
:10156C007BF810BD07491A693831074801F018FE9D
:10157C00F7E7C046002C0140000800500004005062
:10158C008C000020E8450008444C0008022210B5ED
:10159C00244BD9680A4202D019690A4235D1224C2F
:1015AC000422204BD9680A4202D019690A4220D180
:1015BC0052221C4BA25A1B6B01339A4212D0194B6C
:1015CC001A491A690A4200D110BD1B691848194002
:1015DC0001F0E6FDEFF30582164917482C3101F0B6
:1015EC00DFFDF1E7002300221E21A06902F034F890
:1015FC00E5E719691148914319615223E15A013108
:10160C0089B2E15201F0CCFDD2E71969064C914345
:10161C0019615223E15A0A48013189B2E15201F0B1
:10162C00BFFDBDE7002C01408C000020E0FF0C004A
:10163C00444C0008E8450008904700085C4C000842
:10164C00504C0008F8B580230222DB0519690A42C8
:10165C000FD101211A69114203D01A698A431A6108
:10166C00F8BDEFF30582284928482C3101F098FD8C
:10167C00F6E71969264C914319612668676872B6BA
:10168C00BFF34F8FBFF36F8F4825635DFF2B33D0B4
:10169C0048215A1CD2B2625480211E4DC905A8693A
:1016AC00496AA961884202D9E9690131E961002AD4
:1016BC0017D04822A354002B04D1BFF34F8FBFF394
:1016CC006F8F62B6EB69AA69990792080A439B0867
:1016DC003800B0478022D205536BA1685B18536366
:1016EC00BEE7A6210C4A0D48890001F069FD48238C
:1016FC00E35C013BDBB2DCE7094A0A49074801F02D
:10170C005FFD635DC4E7C046E845000890470008EC
:10171C008C0000200C010020084A0008DC4700085F
:10172C00C44900089102000070B548250B4C635D5C
:10173C00002B0BD04822013BDBB2A354002B04D16D
:10174C00BFF34F8FBFF36F8F62B670BDA621044AF3
:10175C000448890001F034FD635DEBE78C00002048
:10176C00084A0008DC47000870B572B6BFF34F8F0B
:10177C00BFF36F8F4825074C635DFF2B03D04822C6
:10178C000133A35470BD044A0449054801F018FD07
:10179C00635DF4E78C000020C4490008910200004E
:1017AC00DC470008102210B50E4BD9680A4211D143
:1017BC0019690A4207D1EFF305820B490B482C310A
:1017CC0001F0EEFC10BD0A4800211A610C3001F04A
:1017DC0013FDF7E706480121DA600C3001F00CFD2F
:1017EC00F0E7C04600180240E845000890470008A2
:1017FC008C00002010B5EFF30582034903482C310F
:10180C0001F0CEFC10BDC046E8450008904700082A
:10181C00102210B51C4B19680A421AD10122196802
:10182C000A4211D1802219689201114222D104225C
:10183C0019680A4223D1082219680A420ED01A608C
:10184C00124801F0ADFC03E011481A6001F0A8FC4D
:10185C0010BD1A600F4801F0A3FCF9E719680E4897
:10186C0001F09EFCEFF305820C490D482C3101F080
:10187C0097FCEDE71A600B4801F092FCE8E71A6060
:10188C00094801F08DFCE3E700240140AC4C000852
:10189C00784C0008684C0008B84C0008E845000873
:1018AC0090470008844C0008A04C0008022310B597
:1018BC00134C2268134218D108232268134208D112
:1018CC00104922681048583101F06AFC0423636007
:1018DC0010BD0C49636058310C4801F061FC0121CA
:1018EC000B4A13680B431360F2E76360094B142136
:1018FC001A0098694A32062301F0AEFEE8E7C046AA
:10190C0000000240E8450008D44C0008C84C000810
:10191C00080002408C00002010B50D4BDA699206CD
:10192C0010D4DB691B0605D50A4B0B49986B5B6B16
:10193C00984710BDEFF30582084909482C3101F096
:10194C002FFCF6E70348596A1C3001F055FCF0E710
:10195C00004400408C00002028440040E84500086A
:10196C009047000870B572B6BFF34F8FBFF36F8FFF
:10197C0048241B4D2B5DFF2B2BD048215A1CD2B277
:10198C006A548021174CC905A069496AA161884233
:10199C0002D9E1690131E161002A0FD04822AB5430
:1019AC00002B04D1BFF34F8FBFF36F8F62B6E16989
:1019BC00A0698B0780081843890870BDA6210A4AC4
:1019CC000A48890001F0FCFB4823EB5C013BDBB2CD
:1019DC00E4E7074A0749054801F0F2FB2B5DCCE729
:1019EC008C0000200C010020084A0008DC4700088D
:1019FC00C4490008910200007047C04610B50B00A6
:101A0C00EFF31084012181F310881900FEF732FEE8
:101A1C0084F3108810BDC04610B582B0EFF310846B
:101A2C00012181F310886B460122D91D0020FEF79D
:101A3C0021FE84F31088012803D16B46D87902B0BB
:101A4C0010BD01204042FAE710B5FEF7BDFD10BDF8
:101A5C00F0B5DE464E4657464546E0B59BB00AAB60
:101A6C0005934023069300230793089301330C003E
:101A7C0091469B460290099005E005A8FEF7E8FE0A
:101A8C000898002859DB2178013400295CD02529DD
:101A9C00F3D12200137800260225082014002139E6
:101AAC002D2B0CD02D2B0ED8232B11D02B2B00D063
:101ABC005FE10E430132137814002D2BF2D15B46FB
:101ACC0001321E43F7E7302B05D12E430132F2E7EA
:101ADC0006430132EFE71A00303A0025092A0DD8E7
:101AEC001A00AB005B1901345B009B182278303B69
:101AFC001D001300303B092BF3D913002E2B00D102
:101B0C00D8E000272378042101E0637801341A001F
:101B1C008A43682AF9D0252B07D0583BDBB2202BFF
:101B2C0007D8954A9B00D3589F46252105A8FEF758
:101B3C008FFE089801340028A5DA1BB0F0BCBB4618
:101B4C00B246A946A046F0BD08980028F5DD079CD2
:101B5C00002C00D0C6E00019EFE74B4649461B6845
:101B6C0005A81A1D0A60196810223B000196009501
:101B7C00FEF7A6FE01340898DDE74B4649461B6884
:101B8C0005A81A1D0A6019680A223B0001960095E7
:101B9C00FEF796FE01340898CDE74B4649461B6884
:101BAC001A1D0A601D6805E005A8FEF751FE08988D
:101BBC000028BFDB297801350029F5D10898B9E751
:101BCC004B4649461B6805A81A1D0A601968002374
:101BDC000193083310220093FEF772FE013408982B
:101BEC00A9E74B4649461B681A1D0A601B68DA17A1
:101BFC0098180393012350409A4609280DDDAA46F4
:101C0C00A0461D000A210400013500F079F9632C6F
:101C1C00F8DC2B00444655469A46B846574575D3D2
:101C2C00002D36D0039B002B74DB730772D4B307E3
:101C3C0001D5002F2DD05B4633422AD1002D28D060
:101C4C004346A0461C00AC4220D205A82021FEF73A
:101C5C00FFFD0898013D002800DA87E0002DF2D145
:101C6C00230044469846039B002B58DB730761D432
:101C7C0003233340022B62D005A83B000A220399B0
:101C8C0001960095FEF71CFE089853E72300444686
:101C9C00984608980028E6DA01344CE74B4649464A
:101CAC001B6805A81A1D0A601978FEF7D1FD0134CE
:101CBC00089840E76378621C19003039140000273B
:101CCC00092900D91FE71A00BB00DB1901345B009E
:101CDC009B182278303B1F001300303B092BF3D9A3
:101CEC00130010E7254B1B78002B15D0EFF3108554
:101CFC00012181F31088220002980AA9FEF72EFD1B
:101D0C0085F310880898079C001916E7D046002D1B
:101D1C00BFD087E7013D8AE7FEF756FCE6E75B425A
:101D2C002D2105A80393FEF793FD089800289FDA50
:101D3C00013400E72B2105A8FEF78AFDF5E7002FFB
:101D4C009AD10AE0A8450CD205A83021FEF780FDF7
:101D5C000898013D002800DAECE6002DF2D10025B0
:101D6C008AE70898002887DA0134E4E6444601340F
:101D7C00E1E60025C5E6C046644400082C2100209D
:101D8C0003B47146490840004900095E49008E447D
:101D9C0003BC7047002243088B4274D303098B4267
:101DAC005FD3030A8B4244D3030B8B4228D3030C1F
:101DBC008B420DD3FF22090212BA030C8B4202D3C1
:101DCC001212090265D0030B8B4219D300E0090AE9
:101DDC00C30B8B4201D3CB03C01A5241830B8B42F2
:101DEC0001D38B03C01A5241430B8B4201D34B03DB
:101DFC00C01A5241030B8B4201D30B03C01A524140
:101E0C00C30A8B4201D3CB02C01A5241830A8B42C4
:101E1C0001D38B02C01A5241430A8B4201D34B02AD
:101E2C00C01A5241030A8B4201D30B02C01A524111
:101E3C00CDD2C3098B4201D3CB01C01A52418309C5
:101E4C008B4201D38B01C01A524143098B4201D3FF
:101E5C004B01C01A524103098B4201D30B01C01A2A
:101E6C005241C3088B4201D3CB00C01A52418308A4
:101E7C008B4201D38B00C01A524143088B4201D3D1
:101E8C004B00C01A5241411A00D201465241104631
:101E9C007047FFE701B5002000F006F802BDC04610
:101EAC000029F7D076E770477047C04610B5002977
:101EBC0003D100F007F8203002E0080000F002F82F
:101ECC0010BDC0461C2101231B04984201D3000CF9
:101EDC0010391B0A984201D3000A08391B09984291
:101EEC0001D30009043902A2105C40187047C046A7
:101EFC0004030202010101010000000000000000C7
:101F0C0003460B437FD4002243088B4274D303094E
:101F1C008B425FD3030A8B4244D3030B8B4228D3EF
:101F2C00030C8B420DD3FF22090212BA030C8B4215
:101F3C0002D31212090265D0030B8B4219D300E0B5
:101F4C00090AC30B8B4201D3CB03C01A5241830B3A
:101F5C008B4201D38B03C01A5241430B8B4201D3EA
:101F6C004B03C01A5241030B8B4201D30B03C01A13
:101F7C005241C30A8B4201D3CB02C01A5241830A8D
:101F8C008B4201D38B02C01A5241430A8B4201D3BC
:101F9C004B02C01A5241030A8B4201D30B02C01AE6
:101FAC005241CDD2C3098B4201D3CB01C01A52414D
:101FBC0083098B4201D38B01C01A524143098B42D6
:101FCC0001D34B01C01A524103098B4201D30B01BF
:101FDC00C01A5241C3088B4201D3CB00C01A5241E4
:101FEC0083088B4201D38B00C01A524143088B42A9
:101FFC0001D34B00C01A5241411A00D20146524142
:10200C00104670475DE0CA0F00D04942031000D360
:10201C004042534000229C4603098B422DD3030AB5
:10202C008B4212D3FC22890112BA030A8B420CD3C5
:10203C00890192118B4208D3890192118B4204D3EE
:10204C0089013AD0921100E08909C3098B4201D36E
:10205C00CB01C01A524183098B4201D38B01C01AA8
:10206C00524143098B4201D34B01C01A524103091F
:10207C008B4201D30B01C01A5241C3088B4201D3CE
:10208C00CB00C01A524183088B4201D38B00C01A7B
:10209C005241D9D243088B4201D34B00C01A524152
:1020AC00411A00D20146634652415B10104601D3DF
:1020BC004042002B00D54942704763465B1000D369
:1020CC00404201B50020FFF7EFFE02BD0029F8D019
:1020DC0016E77047002B11D1002A0FD1002900D12F
:1020EC00002802D00021C943080007B4024802A10D
:1020FC004018029003BDC046B1FDFFFF03B4684613
:10210C0001B5029800F006F8019B9E4602B00CBC8B
:10211C007047C046F0B557464E464546DE46E0B5DC
:10212C0004000D009246994683B08B4230D82DD0D6
:10213C0049465046FFF7BAFE290006002000FFF77B
:10214C00B5FE331A9846203B9B4633D45A46534629
:10215C00934042461F00534693401E00AF423AD86C
:10216C00AF4200D178E05B46A41BBD41002B00DAE6
:10217C0075E0002200230092019301235A469340FC
:10218C000193012342469340009328E08242CFD929
:10219C0000220023009201930C9B002B01D01C60A9
:1021AC005D600098019903B0F0BCBB46B246A946ED
:1021BC00A046F0BD424620239B1A5246DA404146C7
:1021CC0013004A468A40170042461F435346934029
:1021DC001E00AF42C4D90022002300920193434653
:1021EC00002BD9D0FB0772081A4346467B080EE039
:1021FC00AB4201D1A2420CD8A41A9D410120241952
:10220C006D410021013E24184D41002E06D0AB42F9
:10221C00EED9013E24196D41002EF8D10098019998
:10222C005B4600196941002B24DB2B005A464446BF
:10223C00D3402A00E2401C005B461500002B2ADB31
:10224C0026009E40330026004746BE403200801ACE
:10225C009941009001919FE7A342BCD883E7424685
:10226C00202300219B1A0022009101920122DA40C6
:10227C00019286E7424620239B1A2A0046469A4042
:10228C002300F340444613432A00E2401C005B4603
:10229C001500002BD4DA42462F002023260097404D
:1022AC009B1ADE403B003343CDE7C0460D488546C4
:1022BC00FFF7A2FB0C480D490D4A002302E0D4584D
:1022CC00C4500433C4188C42F9D30A4A0A4C002374
:1022DC0001E013600432A242FBD301F077FA00F064
:1022EC000FF8FEE700900020000000206C0000209A
:1022FC00004F0008700000200C220020FEE70000B8
:10230C00F0B5DE4657464E464546E0B5934CA544DF
:10231C0000F038FF924800F043FF0722914B002158
:10232C005A63A0240D3215A801F091FA0223E4059A
:10233C00189320000E3314A91493FDF7FBFE149A86
:10234C00236913409A4206D1874B1B6883F3088894
:10235C00864B1B6898470323A0269A4615930023A7
:10236C00F60598463000189314A943331493FDF7DF
:10237C00E1FE2023300014A914938025FDF7DAFE2A
:10238C00434601277A4C1793AD0002332000159772
:10239C001693149514A9A5629946FDF7CBFE40231C
:1023AC007448149314A98361FDF7C4FE27232000FD
:1023BC001797149314A9A361FDF7BCFE4B46159314
:1023CC0019934346C02417935346A40016931494B0
:1023DC003000B46214A9FDF7ADFE0C23300014A933
:1023EC0019971493FDF7A6FE80215E4B09065A6DD2
:1023FC000120920092080A435A655F4ADA635F4AE9
:10240C001A649A6B17439F635D4B1A6814431C60E4
:10241C005C4CFDF715FF23685B4A5C4913401D4378
:10242C005B4B256098461B685800C0184000FFF7AE
:10243C00B1FC80226369D2000130134202D105E065
:10244C00002803D0636901381342F9D180214D4A29
:10245C00490013680B43136013680B42FCD0022134
:10246C00404A4C4BD365D36D1942FCD0382391684C
:10247C000B40D168102B01D100F016FC002B01D0C1
:10248C0000F016FC13684449536819408023DB01A3
:10249C000B435360136841490B4013601368404A67
:1024AC009B045B0FDA4043461A6043465868FDF7BD
:1024BC00C7FE3C4A002832D138202A498B68034099
:1024CC00102B01D100F0B1FD0B6837480340802080
:1024DC000B605469800403E053691B1B022B1ED84C
:1024EC000B680342F8D1CB6830481840304B03439B
:1024FC00CB60802308685B0403430B608023C868AF
:10250C005B050343CB60802154691648890403E0C2
:10251C0053691B1B022B02D803680B42F8D006230D
:10252C0017490868184201D100F0F5FCE0230D4969
:10253C00DB01886803438B608B681E4803408B600B
:10254C000B689B016AD507208B681B4C83431800D2
:10255C00022303438B603820556933E0F4FDFFFF01
:10256C00E44C0008001002400000FF1F0400FF1F95
:10257C000004005000080050030002300108120053
:10258C000020024000700040FFF9FFFF40420F00A6
:10259C000000002009800000FF80FFFFFFC7FFFF45
:1025AC000024F4000C010020FFFFFFFE8C80C11101
:1025BC0032301646FFF0FFFF8813000053695B1B97
:1025CC00A3422BD88B680340102BF7D10720F2497C
:1025DC000B680340022B01D900F013FDEF4BF049BF
:1025EC009A680A409A6038229968114201D000F02A
:1025FC00C1FC1B68EB489B045B0FD840E74BEA4AD5
:10260C009B681B051B0F9B00D3181F225B6F13408D
:10261C00D840434618605868FDF712FEE34AE44977
:10262C001368E4480B401360E34B196843460905F3
:10263C001A68090D00F0B4FD84201022DF4B1958E4
:10264C009143195004381958114319501968114302
:10265C00196059680A435A60D94B1A68D20307D4D7
:10266C001A68D8490A401A60DA6BD7490A40DA630B
:10267C008023D34A5B02116801240B4313603F2271
:10268C00D24909200B6893431A00052313430B60AE
:10269C00CF4BD0491A681140CF4A0A43CF491A6030
:1026AC0099600321CE4A91464A32DA605A68120C7C
:1026BC0012040A435A60CB4A5460022219680A4336
:1026CC001A60082219680A431A601A68210022430A
:1026DC001A60FDF711FDC44B9A68224207D1DA68E3
:1026EC00C2490A40DA601A69920092081A61802184
:1026FC00BD4B8903DA680A438021DA6089011A68C4
:10270C000A42FCD0196007215A698A43110002223F
:10271C000A4370215A615A698A43110050220A43B4
:10272C000F215A619A6A8A439A625A69A0490A40EF
:10273C005A619A6AF231FF318A43110010220A431E
:10274C0080219A625A6989000A435A619A6AA84997
:10275C001140C022D2000A4380219A625A69C901F1
:10276C000A435A619A68A3491140802252050A43D0
:10277C009A604346A0491868FFF70CFB14234343A7
:10278C000A930A9B002B05D00A9B013B0A930A9BD8
:10279C00002BF9D1944B99499A681140802212066A
:1027AC000A439A609A68002AFCDB802212011A60A4
:1027BC0020230A930A9B002B05D00A9B013B0A930A
:1027CC000A9B002BF9D18023874C9B05226903219E
:1027DC001343236111230C206360FDF78DFC012151
:1027EC00E368E368A3680B4200D164E3844800F01B
:1027FC00D7FC01247C4B83491A6914A8A2431A61A3
:10280C001A69814E0A401A619A687C490A4022432F
:10281C009A6049234A46D454C82218A9520000F0A1
:10282C0001FFDA20400000F0F5FFC8220100520041
:10283C001031070000F0F6FED0235B009A4652469A
:10284C00724B6D49BB504B469F6143461868FFF76E
:10285C00A1FA6F4D01382900B062B26A34316D486B
:10286C0000F09EFC6C4B0021B36111230D203362F0
:10287C007460FDF741FC00210E20FDF73DFC842324
:10288C0033608823282152461B02F46073640AAB20
:10289C005B189F50002200237E927F93D8230AAAB4
:1028AC00521829005B00D45450315C4800F078FC7D
:1028BC0043465B491868FFF76DFA8023594ADB05DC
:1028CC00013898625A631022022148469A611A6AAA
:1028DC00E52622431A62DA680A43DA60524A026039
:1028EC004A4614A85060FA2248461201826003221C
:1028FC00586902435A610F201C60FDF7FDFB042050
:10290C0000F088FF04000290EC2000F083FF02002E
:10291C000700D032390003901000C82200F078FC78
:10292C00FF232900BB5527603C486C3100F038FC74
:10293C002468A35D7F2B00D8E4E23C4B08933C4B0E
:10294C00099300F091FDE623029AE0521E3BE250FF
:10295C00384A0433E2508023DB009C46604400F08C
:10296C0059FFE023E422E0500023A3540632A35283
:10297C000A4A314B516D314E0B4353658B23F36037
:10298C0032682F4B4927134333604B46DB5D012BD9
:10299C0000D9A8E256E0C0460020024000100240D8
:1029AC00FF8FFFFF0024F400E84500080070004092
:1029BC00FFFEFFFFF84C00080058014000180240D1
:1029CC0000740040FFFF03FFFFFFF8FF0008024008
:1029DC00080002400F80FFFFA025000040240140AA
:1029EC008C0000200000024000240140C73FFFFF84
:1029FC00FFF0FFFFE8FFFF6F40420F00E8FFFF7F93
:102A0C00184D0008FFFFFFDF002C0140510C00089F
:102A1C0068460008344D000868680000BC4B00088C
:102A2C0000093D00801A06001D030008404D0008F7
:102A3C00B44900085514000808000C00004400407C
:102A4C000100002002211C20FDF756FB4B46494695
:102A5C00DB5D5A1CCA55E5225BB29346A354002B8E
:102A6C0000DA46E20BAB22001800E0499A4600F06F
:102A7C00BDFB0EAB22001800DD49049300F0B6FB41
:102A8C0011AB18002200DB49019300F0AFFB5B4651
:102A9C00E356012B00D184E2E523E256D64BE52721
:102AAC001E000693D54B2036310018009A4607932A
:102ABC0000F076FBE257012A00D19CE2310050462F
:102ACC0000F06EFBE257012A00D194E2310050462F
:102ADC0000F066FB2900029B7C31C9481C6800266B
:102AEC0000F05EFBEB234A46E65414A9633BD1503D
:102AFC0003990433D1502821069815330AAA521889
:102B0C00FF3318302439D758FDF7E0FBBD480221BC
:102B1C001430FDF7DBFBBB4C122118342000FDF701
:102B2C00D5FBD22308225B009A463D00FC500433AF
:102B3C00FA50B54A0433FA50853B5544FF3BB34A2F
:102B4C002B73273BEB810092EA88A87AD1B200283C
:102B5C0000D0D7E02C7A6B7A013CE41A0123E4B262
:102B6C00AB725346FB5849009C4661444878A54AD1
:102B7C0083001B1808783C3281000918D318009880
:102B8C005218210000F00CFBEB893619002BDBD11D
:102B9C0031009F4800F004FBD0235B00FC5800F090
:102BAC00E5FD01003800A04714AA9A49019800F0ED
:102BBC001DFB4B460C3316C816C3FA240321072001
:102BCC00FDF79AFA9449954800F0EAFAE400944823
:102BDC0000F0E6FA2100934800F0E2FA50234A464E
:102BEC008025D452904B914A914C5A616369AD0047
:102BFC002B4203D18F4800F0D3FAA5618E4BD82518
:102C0C009B468E4BD0269A468D4F6D00760028221F
:102C1C000AAB9B185B5D002B00D18AE028220AAB23
:102C2C009B189B5939001A001800009300F058FDAE
:102C3C000028ECD114AA5946100000F051FD041ED6
:102C4C00E5D10121049800F0C5FA002800D024E158
:102C5C0072B6BFF34F8FBFF36F8F48234A46D35CD6
:102C6C00FF2B00D16CE148224B4649469B5C14A8D3
:102C7C0001338B5400F0ECFC002800D0F6E0482324
:102C8C004A46D35C002B00D126E148224B464946EC
:102C9C009B5C013BDBB28B54002BB8D1BFF34F8F45
:102CAC00BFF36F8F62B6B2E70D3B194002291FD0FC
:102CBC006449654A0B68802013400B6080230A68C6
:102CCC005B001343614A0B605469C00004E0536914
:102CDC001B1B022B00D922E40B680342F7D04B6874
:102CEC005B4818408023DB0103434B60FFF7E4FB98
:102CFC0013685749536819408023DB010B43536019
:102D0C00FFF7D3FB4C1CA888E1B2E4B205908442D7
:102D1C0000D10021287A6C7A8446012040428346F7
:102D2C000134E4B2DC446C72644554D00023AB72C1
:102D3C0017E780253E4CAD0063692B4203D0454814
:102D4C0000F02EFAA56244492D480C3100F028FA07
:102D5C00029B1C68E523E256012A04D006990798C9
:102D6C00203100F01DFAE023E05800F05DFDE52570
:102D7C00FF233A48635500F013FA029800F054FD13
:102D8C00039B5B5D7F2B05D80621089A0998FF31C0
:102D9C0000F016FA039800F047FD2821D0230AAA68
:102DAC005B005218D05800F03FFD72B62C4800F072
:102DBC00F7F900F019FA11212A4A136A8B431362AE
:102DCC0080221B4B92009A62DA3AFF3A9A61264BA8
:102DDC0019329A62FEE7002001326872059892B2AD
:102DEC00904200D1C1E0EA80A0E7C046C9100008BB
:102DFC00A9020008C102000868450008EC49000857
:102E0C00BC4B0008E846000802000050884D000842
:102E1C009C4D000805030008B84D0008CC4D000877
:102E2C00E44D0008904B000800740040550E000063
:102E3C0000040050A84B0008F1090008DC4700080A
:102E4C00210E000800100240FFC7FFFF0C010020FC
:102E5C00FF80FFFF7C4B0008684700081C4E0008F1
:102E6C002C4E0008002C01400008005028220AAB10
:102E7C009B18985900F0ECFB002800D1FFE680224B
:102E8C00A94C92006369134200D0EEE00421A74ADA
:102E9C0013698B43136130BFF1E6049B1A78A44B82
:102EAC000092DB7F002B51D12F2A00D0C0E0A04A2A
:102EBC000133D377CCE6E3689E4AE3681A409E4B15
:102ECC001343E360E3689B0200D492E4F023A26A0C
:102EDC001B021343A3628CE4A6215046974A890037
:102EEC0000F06EF9D1E6964800F05AF9E523FF227E
:102EFC00E2540EAB049311AB0193924B0693924B9D
:102F0C000793E7E5914B924AC72118000892099361
:102F1C0000F056F915E5072002230C68844323437F
:102F2C000B6055698B4C05E053695B1BA34201D9BF
:102F3C00FFF774FB0B680340022BF5D1FFF7F6FA91
:102F4C005046854A854900F03BF98CE6009B0A2BDC
:102F5C0000D1A1E0824800F023F90098FEF7B2F905
:102F6C004B4600226833DA7772E60022013BEA8096
:102F7C00EB81DBE699681140082900D1C4E099681F
:102F8C001140102900D1A8E099681140202900D1E6
:102F9C00C1E09B681A40182A00D1B8E00020FFF766
:102FAC002DFB4B4652461C3383CA83C34B46049AB3
:102FBC00283383CA83C304233268134333605B46CC
:102FCC00E356012B00D067E54B464A469C63654BA4
:102FDC0053634B46019A3C3383CA83C3082332683C
:102FEC00134333605B46E256564B0693564B07939E
:102FFC00012A00D052E520235B4A11680B43136071
:10300C0068E502230C68844323430B605569514CDB
:10301C0005E053695B1BA34201D9FFF7FFFA0B686C
:10302C000340022BF5D1FFF7D9FACB68FFF777FAFB
:10303C00494668203E4A009C927F89180B540A2C02
:10304C000AD0531C3A4ADBB293770C541E2B00D097
:10305C00FEE5434800F0A4F84C4668342100434890
:10306C0000F09EF80023A377F2E5434606201B6888
:10307C003F495843FEF78EFE23683E4A0130134009
:10308C00236003E0002800D1F9E501388022636950
:10309C0092001342F6D1F9E6254B25499A7F682018
:1030AC00531CDBB28B772F214A4411541E2B08D1B1
:1030BC002B4800F075F81E492C4800F071F81C4B99
:1030CC009C774C4600226834A37F2100E2542748A9
:1030DC0000F066F80022A27742E7DA68D968D2439A
:1030EC00D8684906490F40040131440E920716D0A6
:1030FC002148FEF74FFE6043204BD968490F013140
:10310C00FEF748FEFFF77AFA1D48FFF777FAFA2028
:10311C00C001FFF773FA80200002FFF76FFA18481E
:10312C00FEF738FE6043E7E70070004000ED00E07A
:10313C00F40000203CC2FEFF03100000084A000807
:10314C00544D000868450008EC490008B4490008D3
:10315C00404D000888130000C4490008910200008B
:10316C00304E0008510D0008004400400C4E000881
:10317C0040420F00FFBFFFFF0024F400001002408C
:10318C0000127A0010B5FEF75FFC10BD00B583B0DD
:10319C00019101AA01000020FEF75AFC03B000BD0A
:1031AC000FB400B583B004AB02CB01AA002000938E
:1031BC000193FEF74DFC03B008BC04B01847C046A1
:1031CC00130010B50A0001000148FFF7E9FFFEE704
:1031DC00344E00080A0010B501000020FEF70EFC6A
:1031EC00C343DB17184010BD7047C04600238360F3
:1031FC00426001607047C04610B503680400002BA4
:10320C0004D040689847A3680133A36010BDC04642
:10321C0001604B1E9941002349421140416083607B
:10322C00C360704703009B68C068C01A4342584192
:10323C00C0B270470200C368581E9368C01A536826
:10324C0000D5C0187047C04603008268C1685B682F
:10325C00501A00D5C0187047F0B54646D6464F46B2
:10326C000500C0B5EB688068013B0E0014001B1A0A
:10327C001ED493421AD31700002F05D12000E0BCB6
:10328C00BA46B146A846F0BDAB6828689C463A00E1
:10329C006044310000F0D2FAAB689C466B6867441E
:1032AC00AF609F42EAD10023AB60E7E70020E6E77E
:1032BC006A6890464344A342F8D303199946270001
:1032CC009A42D9D8131A9A462B6852469C466044A7
:1032DC0000F0B4FA00234246AB604B4656449F1AAA
:1032EC00CAE7C046F8B54746CE4680B5C66883687F
:1032FC00050088469C1B0BD4944207D82700002C51
:10330C0020D13800C0BCB946B046F8BD1400F5E772
:10331C00436899464C44944200D914003319270051
:10332C009945ECD84B469F1B2B683A00991940469F
:10333C0000F084FA4B46F61AA419B84400263F193B
:10334C00002CDED0296822004046891900F076FA5C
:10335C00D7E7C046F0B54F464646D646C0B50F0037
:10336C008368C168060014005B1A1ED493421AD3FA
:10337C001500002D05D12000E0BCBA46B146A84688
:10338C00F0BDF36831689C462A006144380000F0B7
:10339C0055FAF3689C4673686544F5609D42EAD122
:1033AC000023F360E7E70020E6E7426890464344D9
:1033BC00A342F8D30B19994625009A42D9D8531A2F
:1033CC009A46036852469C463800614400F036FA2F
:1033DC0000234246F3604B4657449D1AC9E7C0464A
:1033EC0070B501000400861D1D4D1E4823781B027C
:1033FC005840082304E0013BDBB280B2002B09D01B
:10340C0002B24000002AF6DA013B6840DBB280B21F
:10341C00002BF5D10134A642E8D14B888A781D0ADD
:10342C00120215431BD008314D190D4CADB20B785F
:10343C001B025840082304E0013BDBB280B2002B96
:10344C0009D002B24000002AF6DA013B6040DBB240
:10345C0080B2002BF5D101318BB2AB42E7D170BDFC
:10346C0021100000FFFF000008207047042804D83A
:10347C0083001B180248C01870470248FCE7C0467E
:10348C00584E0008544E000870B504000120490045
:10349C000143072018400023D200024363802371AC
:1034AC002000FF230725C9B221706270661D082217
:1034BC0001304B4004E0013AD2B2DBB2002A09D011
:1034CC0059B25B000029F6DA013A6B40D2B2DBB29A
:1034DC00002AF5D1B04201D00178E8E763712000F1
:1034EC00FFF77EFF030AE071A371200070BDC04698
:1034FC0070B5040004A8058820004900D200217092
:10350C00627019002A00083000F098F92B0AA37099
:10351C000023E570200007252371661DFF33027818
:10352C005340082204E0013AD2B2DBB2002A09D09F
:10353C0059B25B000029F6DA013A6B40D2B2DBB229
:10354C00002AF5D10130B042E9D163712000FFF7B8
:10355C0047FF030AE071A371200070BD70B5FF2313
:10356C0007244679451D02785340082204E0013AAD
:10357C00D2B2DBB2002A09D059B25B000029F6DACC
:10358C00013A6340D2B2DBB2002AF5D10130A84235
:10359C00E9D1F01A42425041C0B270BD82784388E2
:1035AC001202180A10437047083070470078000761
:1035BC00400F704740788006400F704743780720D3
:1035CC001840704710B50400FFF70AFFE388A17993
:1035DC001B0A09020B43181A42425041C0B210BDDB
:1035EC00B0B500AF050000F0BFF86A46C31DDB089C
:1035FC00DB00D31A9D460200040069462800FFF741
:10360C0071FE80B2844203D00024BD462000B0BDC0
:10361C00684600F0D3F804002800FFF715FE84423A
:10362C00F2D8F2E770B505000C001600002905D0A1
:10363C00320028002100FFF7EBFD70BD3D21024A4E
:10364C000248FFF7BDFDF3E7744E0008844E0008F6
:10365C0010B5FFF7E7FD10BDF8B5DE4657464E46F0
:10366C004546E0B500AF1E0080468A46914600F004
:10367C007BF86B46C41DE408E4001B1B9D4605004B
:10368C00801983B23200514668469B4600F08AF896
:10369C00FEF76AF84046FFF7CDFD002483450DD9AF
:1036AC00FEF742F85B46E01ABD4643425841C0B2B1
:1036BC00F0BCBB46B246A946A046F8BD2A006946F6
:1036CC004046FFF7C9FD4B4684B2002BE8D03200D0
:1036DC0049464046FFF7C0FD2418A4B2E0E7C046B7
:1036EC00F8B54E464546DE465746E0B500AF0600F7
:1036FC0089469046FFF774FF0025041E07D1BD468E
:10370C002800F0BCBB46B246A946A046F8BD6A46A6
:10371C00C31DDB08DB00D31AEA469D46FEF724F8EE
:10372C00220069463000FFF715FE0600B6B2EB46E4
:10373C00FDF7FAFF002E01D1D546E0E7684600F010
:10374C003DF8844205D159464046C8470125D54627
:10375C00D5E72521024A0348FFF732FDF3E7C046BF
:10376C009C4E0008844E00080C20704710B5FEF7E4
:10377C00F9F802000B0003480260436080235B02EF
:10378C00836010BDE821002010B5FEF7EBF80200B5
:10379C000B0003480260436080239B02836010BDD2
:1037AC00D821002070B504000E001500FEF7DAF8E1
:1037BC006681206061602581200070BD00890C301D
:1037CC0080B27047807A70470C30704770B5002615
:1037DC000C4D0D4C641BA410A64209D1002600F020
:1037EC00E1FC0A4D0A4C641BA410A64205D170BD25
:1037FC00B300EB5898470136EEE7B300EB58984707
:10380C000136F2E7F84E0008F84E0008F84E0008B2
:10381C00FC4E000810B5034B0100186800F08CF842
:10382C0010BDC0460800002010B5034B01001868FD
:10383C0000F016F810BDC04608000020002310B59B
:10384C009A4200D110BDCC5CC4540133F8E703009C
:10385C008218934200D1704719700133F9E70000C8
:10386C0070B50500002910D00C1F2368002B00DA5E
:10387C00E418280000F03CF91D4A1368002B05D110
:10388C0063601460280000F03BF970BDA34208D9B6
:10389C00216860188342F3D118685B684118216075
:1038AC00EEE71A005B68002B01D0A342F9D911682E
:1038BC005018A0420BD1206809185018116083428F
:1038CC00E0D118685B68411811605360DAE7A042D8
:1038DC0002D90C232B60D5E721686018834203D1F1
:1038EC0018685B684118216063605460CAE7C04681
:1038FC00F821002070B50F4E0D003168040000292E
:10390C0002D100F08FF830602900200000F08AF816
:10391C00431C0AD00323C51C9D43A84207D0291A77
:10392C00200000F07FF8431C01D101256D422800D6
:10393C0070BDC046FC210020F7B50322CB1C93437D
:10394C00083306001F000C2B32D20C27B94231D899
:10395C00300000F0CDF8324D2B681C00002C2ED11D
:10396C0039003000FFF7C6FF0400431C1ED12C6841
:10397C002500002D4AD123682900E318300001935B
:10398C0000F050F8019B834243D123680337FF1AA0
:10399C0003239F4308370C2F00D20C27390030002B
:1039AC00FFF7A8FF431C34D02368DF19276013E00E
:1039BC00002BCBDA0C23002533602800FEBD2268D7
:1039CC00D11B20D40B2917D9E2192760A34211D19E
:1039DC002A606368116053603000250000F090F895
:1039EC0007220B35231D9543EA1A9D42E5D05B1B3C
:1039FC00A350E2E75A60ECE76268A34201D12A6067
:103A0C00EAE75A60E8E723006468A7E72C006D68D2
:103A1C00AFE70C233000336000F072F8CDE7C046FE
:103A2C00F8210020002370B5064D040008002B601F
:103A3C0000F0AAFB431C03D12B68002B00D02360A1
:103A4C0070BDC0460022002003000A7801311A70B4
:103A5C000133002AF9D17047030030B51D00002A4C
:103A6C0006D00C78013A01332C700131002CF5D1C1
:103A7C0000219A18934200D130BD19700133F9E737
:103A8C0030B5140005001A009BB0002C05DA8B230E
:103A9C000360012040421BB030BD822368469B006E
:103AAC0083810023009104919C4200D0631E0293F9
:103ABC000593012369465B42CB8128001E9B00F0D5
:103ACC0089F8431C01DA8B232B60002CE3D00023F4
:103ADC00009A1370DFE7000007B5009313000A008B
:103AEC00010002480068FFF7CBFF0EBD0800002064
:103AFC0010B5024800F0F0FA10BDC04604220020B8
:103B0C0010B5024800F0E9FA10BDC04604220020AE
:103B1C00F0B58E6885B007000C00039201939E42AD
:103B2C003CD890238A89DB001A4234D00969236877
:103B3C0060695B1A029303234343DD0FED18019B6D
:103B4C00029801331B186D10AB4200D91D005305B0
:103B5C0032D529003800FFF7EFFE061E09D10C23E1
:103B6C003B6040230120A28940421343A38105B04E
:103B7C00F0BD029A2169FFF761FEA389144A1A402D
:103B8C0080231343A381029B2661F618266065618E
:103B9C00019EED1AA560019B9E4200D9019E320048
:103BAC000399206800F0A5FAA36800209B1BA36072
:103BBC0023689E192660DAE72A00380000F0ACFA78
:103BCC00061EE0D138002169FFF74AFEC7E7C04660
:103BDC007FFBFFFFF0B5A1B003901D008B890F0098
:103BEC0016001B0611D50B69002B0ED14021FFF7D7
:103BFC00A3FE38603861002805D10C23039A0138E4
:103C0C00136021B0F0BD40237B61002308AC6361DD
:103C1C00203363761033A376079535002B78002B71
:103C2C0001D0252B47D1AB1B0593B5420CD03200EC
:103C3C0039000398FFF76CFF431C00D1AEE06269BA
:103C4C00059B9446634463612B78002B00D1A5E05F
:103C5C00012200235242626004A9543252186E1C95
:103C6C002360E360A3601370A36505223178544888
:103C7C0000F034FA751C00281FD12268D30604D535
:103C8C00532304A95B1820211970130704D553235F
:103C9C0004A95B182B21197033782A2B16D0350008
:103CAC0000210A20E3682A786E1C303A092A4ED982
:103CBC00002911D117E00135B0E7414B2268C01A39
:103CCC000123834013432E002360CEE7079B191D6D
:103CDC001B680791002B01DB0B9304E05B42E36054
:103CEC000223134323602B782E2B0AD16B782A2BBB
:103CFC0035D1079B02351A1D1B680792002B2BDB55
:103D0C000993304E03223000297800F0E7F900289F
:103D1C0006D04023801B8340226801351343236067
:103D2C002978062228486E1C217600F0D7F9002845
:103D3C003CD0264B002B25D10722079B07339343FE
:103D4C00083307936369049A9B18636165E74343DF
:103D5C00350001219B18A6E701235B42D0E7002325
:103D6C000A201A000135636029786E1C3039092944
:103D7C0003D9002BC5D00992C3E742433500012378
:103D8C005218F1E707AB00933A002100104B03984F
:103D9C0000E000BF0490049B0133D3D1BB890D9884
:103DAC005B0600D42DE7012040422AE707AB0093C5
:103DBC003A002100064B039800F07CF8EAE7C04675
:103DCC00BC4E0008C24E0008C64E000800000000A1
:103DDC001D3B0008F7B5150001938A680B690C00B0
:103DEC000090934200DA130022002B6043321278C9
:103DFC00002A01D001332B6023689B0602D52B6867
:103E0C0002332B602268062317001F401A4227D06A
:103E1C00230043331B785A1E93412268920630D4F8
:103E2C00220001990098089E4332B047431C25D0CC
:103E3C00062320682A68E16800250340042B03D17F
:103E4C008D1AEB43DB171D40A3682269934201DDF9
:103E5C009B1AED180027BD4220D1002010E001373D
:103E6C00E3682A689B1ABB42D2DD22000123019928
:103E7C000098089E1932B047431CF0D101204042F3
:103E8C00FEBD3020E1184331087021005A1C453129
:103E9C000978A218433202331170C1E722000123C2
:103EAC0001990098089E1A32B047431CE6D001379E
:103EBC00D1E70000F0B58BB006920A0043320793AD
:103ECC00059004920A7E0C00109B782A07D8622A6F
:103EDC0009D8002A00D1C1E0582A00D18CE0260074
:103EEC004236327022E0100063381528F7D8FDF7FF
:103EFC0047FF16001F00F6FFF6FFF6FFF6FF1F0048
:103F0C00F6FFF6FFF6FFF6FFA80036009A00F6FF64
:103F1C00F6FFB900F6FF3600F6FFF6FF9E0026000E
:103F2C001A684236111D1960136833700123A7E01B
:103F3C00086819680A1D05060BD50D681A60002D56
:103F4C0003DA2D23049A6D421370614B0A270393F5
:103F5C001BE00D681A604106F1D52DB2EFE70D6834
:103F6C001968081D18602E0601D50D6803E06D0652
:103F7C00FBD50D68ADB2564B082703936F2A00D0C2
:103F8C0002372300002243331A706368A360002BAE
:103F9C0003DB0422216891432160002D02D1049E91
:103FAC00002B0CD0049E28003900FDF779FF039BF1
:103FBC00013E5B5C33702B0005009F42F3D9082F48
:103FCC0009D12368DB0706D563682269934202DCBA
:103FDC003023013E3370049B9B1B2361079B210004
:103FEC0000930598069B09AAFFF7F4FE431C4CD1DD
:103FFC00012040420BB0F0BD45310A70344A0392A7
:10400C001A68216820CA1A60080616D5CB0702D593
:10401C002023194321601027002DB2D120232268C0
:10402C009A432260ADE7202209680A4322602200ED
:10403C00782145321170274AE1E74806E6D5ADB242
:10404C00E4E71A680D68101D4969186013682E069C
:10405C0001D5196002E06D06FBD519800023049E82
:10406C002361BBE71A68111D196016680021300026
:10407C00626800F033F8002801D0801B6060636830
:10408C0023610023049A1370A8E723693200069970
:10409C000598079DA847431CAAD023689B0715D4F5
:1040AC00099BE0689842A5DA1800A3E722000123D7
:1040BC0006990598079E1932B047431C98D00135D4
:1040CC00E368099A9B1AAB42F0DCE9E70025F7E7B5
:1040DC00CD4E0008DE4E000870477047C9B28218FA
:1040EC00904201D10020704703788B42FBD0013005
:1040FC00F6E710B5884202D98B18984203D30023F7
:10410C0007E08B5C8354013AFBD210BDCC5CC454E9
:10411C0001339A42FAD1F8E7F7B507000E00140004
:10412C00002905D11100FFF707FC05002800FEBD92
:10413C00002A03D1FFF794FB2500F7E700F01BF8EA
:10414C000190844203D835004308A342EED32100EA
:10415C003800FFF7F1FB051EE8D0019B22009C42C2
:10416C0000D91A0031002800FFF768FB3100380035
:10417C00FFF776FBDAE70B1F1B68181F002B01DA21
:10418C000B58C01870470000044A03001068002840
:10419C0002D0C318136070470148FAE708220020C8
:1041AC0010220020F8B5C046F8BC08BC9E467047EB
:0C41BC00F8B5C046F8BC08BC9E46704731
:1041C800D40A0008C00A0008EA0A0008D40A00084D
:1041D800D40A0008D40A0008D40A0008D40A00083F
:1041E800D40A0008D40A0008D40A0008D40A00082F
:1041F800D40A0008D40A0008D40A0008D40A00081F
:10420800D40A0008D40A0008D40A0008D40A00080E
:10421800F80A0008D40A0008D40A0008D40A0008DA
:10422800D40A0008D40A00083A0B0008D40A000887
:10423800D40A0008D00A0008D00A0008220B000897
:10424800800B0008940B0008A00B0008800B0008E6
:10425800800B0008800B0008800B0008800B00080A
:10426800800B0008800B0008800B0008800B0008FA
:10427800800B0008800B0008800B0008800B0008EA
:10428800800B0008800B0008800B0008800B0008DA
:10429800AC0B0008800B0008800B0008800B00089E
:1042A800800B0008800B0008D60B0008800B000864
:1042B800800B0008800B0008F40B0008E00B0008D6
:1042C800680C00087E0C0008B20C0008680C000896
:1042D800680C0008680C0008680C0008680C0008E6
:1042E800680C0008680C0008680C0008680C0008D6
:1042F800680C0008680C0008680C0008680C0008C6
:10430800680C0008680C0008680C0008680C0008B5
:10431800C00C0008680C0008680C0008680C00084D
:10432800680C0008680C0008EA0C0008680C000813
:10433800680C0008680C0008F80C0008020D00085A
:10434800AC130008F2120008F2120008F21200087A
:10435800F2120008F2120008F2120008F212000825
:10436800F2120008F2120008E6120008E61200082D
:10437800E6120008E6120008E61200080414000815
:10438800E6120008E6120008E6120008E612000825
:10439800E6120008E6120008E6120008E612000815
:1043A800E6120008E6120008E6120008E612000805
:1043B800E6120008E6120008E6120008E6120008F5
:1043C800E6120008E6120008E6120008E6120008E5
:1043D800E6120008E6120008E6120008E6120008D5
:1043E800E6120008E6120008E6120008E6120008C5
:1043F800E6120008E6120008E6120008E6120008B5
:10440800E612000892130008E6120008E6120008F7
:104418004A130008E6120008E6120008E61200082F
:10442800E6120008E6120008E6120008E612000884
:10443800D8130008E6120008E6120008E612000881
:10444800E6120008EE130008E6120008E61200085B
:10445800E6120008781300088A130008661B000893
:104468003E1B00083E1B00083E1B00083E1B0008C0
:104478003E1B00083E1B00083E1B00083E1B0008B0
:104488003E1B00083E1B0008A81C0008EE1B000885
:104498003E1B00083E1B00083E1B00083E1B000890
:1044A8003E1B00083E1B00083E1B00083E1B000880
:1044B8003E1B00083E1B00083E1B0008CC1B0008E2
:1044C8003E1B00083E1B0008A61B00083E1B0008F8
:1044D800861B00083E1B00083E1B0008661B0008E0
:1044E8006173736572745F6661696C65640000006E
:1044F80072784572726F7243616C6C6261636B00B3
:1045080074784572726F7243616C6C6261636B00A0
:104518005061747465726E4974657261746F725F0C
:10452800636865636B5061747465726E00000000A7
:1045380030313233343536373839414243444546D1
:1045480064697370617463684576656E7400000011
:10455800737461746550756C73696E670000000050
:104568007374617465506175736564007374617404
:104578006549646C65000000010204080201080432
:104588004253505F646F4368616E6E656C4163743B
:10459800696F6E00726573706F6E645769746841F5
:1045A800636B4672616D650068616E646C65496E27
:1045B800636F6D696E674672616D65004461746111
:1045C8004C696E6B5F73656E645061636B657400F4
:1045D8004253505F747269676765724144430000D3
:1045E800434C495F68616E646C65436F6E736F6CB2
:1045F80065496E7075740000486172644661756C37
:10460800745F48616E646C65720000007370757247
:10461800696F75734952510054494D315F42524B8D
:104628005F55505F5452475F434F4D5F4952514861
:10463800616E646C65720000444D41315F4368618E
:104648006E6E656C315F49525148616E646C65727B
:104658000000000000000000000000000000000052
:104668000000000000000000000000000000000042
:10467800000000000100000002000000030000002C
:104688000400000006000000070000000800000009
:10469800090000004253505F726567697374657260
:1046A80050756C736544656C6567617465000000DE
:1046B8004253505F726567697374657241707054D4
:1046C800696D657248616E646C657200436F6E74E3
:1046D800726F6C6C65725F696E69740044617461B5
:1046E8004C696E6B5F77616974466F7253796E635C
:1046F80000000000050A0A050102020504020A0476
:104708000408080501080A01050A02010502020455
:10471800040A080405080801010A0A054E6F6E65B7
:10472800004100000000420000000041420000007B
:1047380043000000004143000000424300000041E4
:10474800424300004400000000414400000042448D
:10475800000000414244000043440000004143443B
:10476800000042434400004142434400436F6E74DA
:10477800726F6C6C65725F73746F70002573282597
:10478800732C202575290A002573282575290A0008
:1047980025733A2073686F727420696E20656C63A4
:1047A8006F6E202568750A0050756C7365207769EF
:1047B8006474682069732025687520C2B5730A007F
:1047C80070742D3E706163655F6D73203E3D2035CA
:1047D800000000007372632F6273705F73746D332F
:1047E80032673037312E630070742D3E70756C73EC
:1047F800655F77696474685F6D6963726F732021A0
:104808003D20300070742D3E6E725F6F665F70756C
:104818006C73657320213D203000000028656C63AF
:104828006F6E5B305D202620656C636F6E5B315D5B
:1048380029203D3D203000005465726D696E616C21
:1048480000000000525454005345474745520000A9
:1048580054696D6520253032753A253032753A2510
:104868003032750A00000000526563656976656438
:10487800207369676E616C2025640A0025732825FA
:104888006875293F0A000000257320454E54525987
:104898000A000000257320455849540A000000000A
:1048A8004C6173742070756C736520747261696EE5
:1048B8002066696E69736865640A000049707269E8
:1048C8006D3D2575206D412C20566361703D257521
:1048D800206D562C20566261743D2575206D560A50
:1048E8000000000053657175656E6365725F25731E
:1048F80020756E6578706563746564206576656E8D
:10490800743A2025750A0000526573756D696E67E3
:104918002E2E2E0A0000000050756C7365207472EC
:1049280061696E2066696E6973686564202D207000
:10493800617573696E670A0021205061747465722D
:104948006E4974657261746F725F646F6E65282654
:104958006D652D3E706929007372632F73657175DB
:10496800656E6365722E630050756C736520747292
:1049780061696E206C6173742070756C7365206456
:104988006F6E650A0000000050756C7365207472C4
:1049980061696E2066696E69736865640A00000063
:1049A8006E6272203D3D2031000000007372632F5B
:1049B800646174616C696E6B2E6300006273702EA3
:1049C800637269746963616C5F73656374696F6E40
:1049D8005F6C6576656C20213D2055434841525FE8
:1049E8004D4158002573282575293A20756E6B6E40
:1049F8006F776E206465766963652069640A0000D4
:104A08006273702E637269746963616C5F73656346
:104A180074696F6E5F6C6576656C20213D2030008F
:104A28007366203D3D204E554C4C00004672616D2A
:104A380065207061796C6F616420746F6F206269A2
:104A4800673A202568752062797465730000000054
:104A5800257328256868752920746F20636F6E7424
:104A6800726F6C6C65720A00476F742041434B206B
:104A7800666F72206672616D6520256868750A0028
:104A8800476F742053594E43206672616D652C2020
:104A98007365715F6E723D256868750A00000000D5
:104AA800476F74207061636B65742C207365715F48
:104AB8006E723D256868752C207061796C6F616431
:104AC8005F73697A653D2568750A0000476F742031
:104AD8002573206672616D652C207365715F6E7237
:104AE8003D256868752C207061796C6F61645F730F
:104AF800697A653D2568750A0000000025733A202B
:104B0800626164206672616D650A00002573206F1A
:104B1800662073697A65202575206661696C65640D
:104B28000A000000257320287365713D25686875A3
:104B380029206F662073697A65202575207375634F
:104B48006365656465640A00436F6D6D616E6473C7
:104B58003A202F3F202F61202F64202F6C202F71A7
:104B6800202F75202F76202F30202F312E2E2F39F1
:104B78000A0000005475726E696E67205663617092
:104B8800204F46460A00000053657474696E67201A
:104B98005663617020746F20256875206D560A0071
:104BA8005475726E696E672056636170204F4E0AA5
:104BB8000000000025730A004669726D776172650E
:104BC8002056302E32312D626574610A00000000D3
:104BD800556E6B6E6F776E20636F6D6D616E6420BE
:104BE800272F2563270A00002573282725732729DF
:104BF8000A00000025732C20494353523D30782584
:104C0800780A000020205469703A2068616C74208A
:104C18004350552C206368616E6765206775617223
:104C280064204020257020746F20302C2074686523
:104C38006E20737465702E0A0000000050742053B3
:104C4800523D307825780A00434331202568750A9B
:104C580000000000434332202568750A0000000068
:104C6800414443206F76657272756E0A0000000039
:104C78004144432072656164790A0000414443203D
:104C88006368616E6E656C20636F6E66696720721B
:104C9800656164790A00000041444320454F430A96
:104CA8000000000041444320454F530A0000000023
:104CB800414443312D3E4953523D307825780A000E
:104CC80025732C2054454946310A000025732C20B1
:104CD8004953523D307825780A000000496E6974BE
:104CE80069616C6973696E672E2E2E0A00000000D8
:104CF80044657649643D307825782C20537973745F
:104D0800656D436F7265436C6F636B3D25750A0073
:104D18004C4C5F4144435F5245475F496E6974207C
:104D28006572726F723D25750A00000025733A207E
:104D38005053433D25750A006D652D3E6368616ECD
:104D48006E656C5F6664203C2030000043616E2015
:104D58006F6E6C7920757365206F6E652073657250
:104D680069616C20706F72742061742061207469AD
:104D78006D652C20666F72206E6F770A0000000048
:104D88002025336875202A207B25732C2025737DE8
:104D98000A000000546F74616C206E756D62657254
:104DA800206F662070756C7365733A2025750A004C
:104DB8004D6F76696E67205061747465726E204419
:104DC800656D6F005374617274696E672025732076
:104DD8006F6E204E656F444B210A00005075736852
:104DE8002074686520627574746F6E20746F20700B
:104DF8006C6179206F7220706175736521203A2D7E
:104E0800290A0000436F6E736F6C653A202725737B
:104E1800270A0000456E64206F6620736573736906
:104E28006F6E0A00427965210A000000415353451C
:104E38005254494F4E204641494C45442028257339
:104E4800203A202575292025730A00004241440094
:104E58004E4F4E450041434B00004E414B0000531E
:104E6800594E4300444154410000000073746F726E
:104E780061676520213D204E554C4C006D616F6C7B
:104E880069622F7372632F6576656E7471756575C7
:104E9800652E63006576656E745F73697A65203D7B
:104EA8003D20414F4576656E745F73697A65286564
:104EB80076742900232D302B2000686C4C00656621
:104EC8006745464700303132333435363738394153
:104ED8004243444546003031323334353637383969
:084EE80061626364656600006D
:084EF00030D2FF7F0100000039
:044EF800E5000008C9
:044EFC00BD000008ED
:104F00000024F400040000000C0000200000000059
:104F10000000000000000000000000000000000091
:104F20000000000000000000000000000000000081
:104F30000000000000000000000000000000000071
:104F40000000000000000000000000000000000061
:104F50000000000000000000000000000000000051
:0C4F600000000000000000000000000045
:04000005080022B914
:00000001FF
