:020000040800F2
:100000000090002071300008C130000895210008E0
:1000100000000000000000000000000000000000E0
:10002000000000000000000000000000C1300008D7
:100030000000000000000000C1300008F1210008AD
:10004000C1300008C1300008C1300008C1300008CC
:1000500001220008C1300008C13000084D25000809
:10006000C130000855260008C1300008C130000822
:10007000B92500081D2200088D220008DD23000894
:10008000C13000089D250008C1300008C1300008BB
:10009000C1300008C1300008C1300008C13000087C
:1000A000C1300008C1300008C1300008C13000086C
:0C00B000C1260008C1300008C130000863
:1000BC0010B5064C2378002B07D1054B002B02D032
:1000CC00044800E000BF0123237010BD7000002025
:1000DC000000000038520008044B10B5002B03D070
:1000EC000349044800E000BF10BDC04600000000FA
:1000FC007400002038520008F0B50124C02384405D
:10010C000B4D5B00EC500700830803203840FF27A1
:10011C00AC46C026C0008740890181409B006344E7
:10012C00B6009A59BA430A439A512C60F0BDC046A6
:10013C0000E100E0F0B5C6460700194800248046EF
:10014C00050000B582B02E78BE4207D001340C35C4
:10015C000A2CF8D102B080BCB846F0BD600004197E
:10016C00A4004444A0680093656813000A00390099
:10017C00A8476388012B04D0002BEBD0013B638094
:10018C00E8E7782143465B5C013BDAB243465A54BC
:10019C0053009B189B00434407CB07C4DAE7C046C7
:1001AC008C00002070B50F4E00233400257885425A
:1001BC0013D001330C340A2BF8D17824335D0A2B7D
:1001CC000AD05D1C35555C00E418A4003319305579
:1001DC000548996058605A8070BD5800C3189B0040
:1001EC00F318F5E78C00002001120008F0B501228D
:1001FC004F46D64646460B6800249146C0B5002BA8
:10020C001AD14BE0170057437B00DB19DB43C56861
:10021C00AC4666460D691E407D433543C5604D684E
:10022C00022D2DD07D43026813402B4303600B68D5
:10023C001A000134E24031D04D461A00A5402A4044
:10024C002B42F5D04B68013B012BDBD817005743F1
:10025C0083688D6898467B009C467D43BC44AA46C7
:10026C0046466546AE433500564663462E43866089
:10027C00CE684568564395433543DB434560C6E736
:10028C00FF2A10D83D007D43026A2E01761BB24333
:10029C004E6975432A4302624D68C3E7E0BCBA4617
:1002AC00B146A846F0BD120A52435243456A1601A4
:1002BC00B61AB5434E6972432A4342624D68B1E7A0
:1002CC0010B51124020008480B00016AA143016219
:1002DC008020064980008862DA38FF38886104493A
:1002EC00044803F02FFEFEE7002C014000040050F0
:1002FC00005700080C5A0008FA2170B5124C050082
:10030C008900206802F022FC802301385B049842AB
:10031C0001D3012070BDC0210C4A090650600C4865
:10032C00036A1B021B0A0B43036207210023936021
:10033C001160032DEDD8026AA9071202120A0A43B2
:10034C00026218006560E5E70000002010E000E0A4
:10035C0000ED00E010B50A0002490348103103F02B
:10036C00F1FD10BD00570008185A000810B50A001E
:10037C0002490348203103F0E5FD10BD0057000889
:10038C00185A0008F8B50C00050050261A4803F05E
:10039C00D9FD1A4B0421EC54EA1807200123FFF76E
:1003AC00C9FE174F6643CC373B88B34204D03100AB
:1003BC00144803F0C7FD3E80134B321C9E4200D9FB
:1003CC001A1C124B92B29A4200D21A000E4B6108C0
:1003DC009A1A0F4B323453438022120194460C1953
:1003EC000C4A63441B0BE4B2536121000A4803F02E
:1003FC00A9FD0A4BEC54F8BD205A00088E020000EF
:10040C008C000020405A0008D3270000B2040000E2
:10041C004907000000740040585A0008860200008A
:10042C0070B5414D040028000E000A222100D03086
:10043C0004F014FA280002223100DA3004F00EFA2B
:10044C0062883A4B013ADA62A2880621013A1A63B1
:10045C0000225A621A698A431A61227A002A3DD113
:10046C00E288043902329210013A5A63DA680A437C
:10047C00DA6001212D4A53690B435361237862786A
:10048C0018001043031E36D14022294B9A62BF320A
:10049C000121284B996102232649134238D08B61E4
:1004AC0004232449134238D08B61130738D52022FA
:1004BC00204B9A612A0000231C4CCE3213806363BC
:1004CC00A36394330022E8582521002303F0B0FFE6
:1004DC000122012023681343236070BD0020012AF0
:1004EC00FBD10421E28802329210013A9A63DA6855
:1004FC000A43DA60BDE74020DB430D4A9061DAB273
:10050C000B42C5D10B4B996202230A491342C6D147
:10051C008B62042307491342C6D18B621307C6D4DE
:10052C002022044B9A62C5E78C000020002C01406D
:10053C0000080050000400504B1E9941012310B5D7
:10054C0049429943002200230E3103F071FF10BD84
:10055C0070B5060014001D0082B080360092019325
:10056C0032687368A41A9D41002D04D1074B9C423C
:10057C0001D802B070BD08236A46132103F058FF5E
:10058C00009B019C33607460F3E7C046BFE1E4005C
:10059C00A023F0B59B00C3181D89020085B0002074
:1005AC00002D01D105B0F0BDA021987A89005158D9
:1005BC009E881A79002838D1887BDD7901AC401BE4
:1005CC000138A080012052009872486885186D7817
:1005DC00805C657020709A799200E2804B89C8210A
:1005EC00638089008A4200D9E180054232D105221C
:1005FC00024051424A416946227200220A80204A36
:10060C009446204A63449BB2934209D8E388052B55
:10061C0006D9A388002B03D02000FFF701FFC1E708
:10062C00194803F08FFC0020BCE701320889D4B2D2
:10063C00A0420DD06200D87901AC0130C0B2D871A3
:10064C00A0808F7B013FB8420DD000209872BCE790
:10065C000022F0E7B4210D480D4AFF3103F082FC73
:10066C0020786388C3E700200136B6B2D8719E802B
:10067C000F89B742E9D1013D98801D81E5E7C0465D
:10068C0078ECFFFF90E20000A85A0008985A000886
:10069C007C5A0008032310B5104C114A2361636186
:1006AC00104BA261E36180239B0123620023A362B0
:1006BC006362E36222660C4A0C495C326266102269
:1006CC00E01DA2662367E366636704F001FA20006D
:1006DC00074904F0FDF92023A37110BDAC210020C3
:1006EC00B85A0008AC0100200C010020C45A0008C4
:1006FC00C85A0008F8B54746CE4680B58368C56829
:10070C0099465B1B9846436804000E001700581965
:10071C00904507D9ED1904F0A1F8E560C0BCB946C5
:10072C00B046F8BD424604F099F84B463100ED193D
:10073C00ED1A2A006068414404F090F8E560EDE79A
:10074C00F0B557464E464546DE46E0B5354B83B0D0
:10075C009A461B78060015000191002B56D07700A5
:10076C00BB19DB0053441A6F9046DA6E91469045E4
:10077C0025D8130042462C009B1A9D4209D8002C08
:10078C0009D1200003B0F0BCBB46B246A946A04636
:10079C00F0BD1C1EF5D0A146BB19DB005344596EAD
:1007AC00220041440198A04404F058F84C46002C17
:1007BC00E7D04346BF19FF0057443B67E1E7424689
:1007CC009B6E2C009B1A9D4227D8BB19DB0053440F
:1007DC009B46596E22004144019804F03FF85B4659
:1007EC009B6EA0442D1B434519D04B4642469B1A89
:1007FC0099464D450DD8002DD9D0019BA1469C465C
:10080C00A44463462C000193A944C5E7FFF742FFBB
:10081C00A5E74D46002DCAD0EFE71C00D5E7002315
:10082C009846E6E7AC210020F8B557464E46DE4622
:10083C0045468946411CE0B517004A005218030092
:10084C00D2009246344A5E0093461000F618F60029
:10085C005E44F36A50449846012B0CD0022B27D0EF
:10086C00002B17D0002398464046F0BCBB46B2463E
:10087C00A946A046F8BDB36A726A934247D9013BB8
:10088C009B1AB8469F4200D9984642464946FFF704
:10089C0031FFE9E7B36A726A934233D9013B9B1A81
:1008AC009F42E1D83A004946FFF724FFB846DBE700
:1008BC000023746A98461DE0013B356A1B1BBB4242
:1008CC0000D93B002D1B9D4200D91D005B465344B3
:1008DC0058682A004946001903F0C0FF336A6419AE
:1008EC00E31A5A1E93415B421C40A844A9447F1B47
:1008FC007462B9D0B36AA342DED8356A5B19013B86
:10090C001B1BDCE7316A5B18013B9B1AC8E7316A99
:10091C005B18013B9B1AB4E7AC210020F0B5C6462E
:10092C0000B5856843686A1C04009A4207D80368BE
:10093C0059551500C36882600133C36043689D42FA
:10094C0002D080BCB846F0BD2368276998460E4B90
:10095C001B78002B15D0EFF31086012181F3108842
:10096C002A0041463800FFF75FFF86F31088A36822
:10097C00834203D001235B42E360E2E70023A360E0
:10098C00DFE7FFF787FEE6E7AC210020F0B54E4627
:10099C0045465746DE46E0B583B09A460C9B8046EA
:1009AC000E0015009946914200D27DE00800012707
:1009BC00290002F0CBF801378542F9D9574500D20E
:1009CC00574601230D9A1A4001920D9A13424ED1AB
:1009DC004B46002B4BD0130020249B075ED44F4575
:1009EC0045D201235B429C4621004046E144FFF77F
:1009FC0095FF4346DB68002B32DB4B46002BEED1D8
:100A0C0053460124012B07D901235B429C46E24447
:100A1C0053466C43012BF7D82100300002F096F8B6
:100A2C008542F5D9214B9B4630239A4606E0290096
:100A3C00200002F08BF8AC420FD3040030002100F0
:100A4C0002F00AF9534658440E00C15C4046FFF7C9
:100A5C0065FF4346DB68002BE9DA019B002B19D1BB
:100A6C0003B0F0BCBB46B246A946A046F0BD434617
:100A7C00DB68002BC4DAF3E74F45F1D201235B426C
:100A8C009C4620214046E144FFF748FF4346DB6883
:100A9C00002BE5DB4B46002BEED1E1E753465C42E5
:100AAC005C41240120349AE7012787E700570008AE
:100ABC0010B5080003F090FD0349020040310348D3
:100ACC0003F040FA002010BD00570008D05A00086F
:100ADC0010B5080003F080FD034902004C310348B7
:100AEC0003F030FA002010BD00570008F45A00083B
:100AFC0010B50400806F03F093FC002801D1002096
:100B0C0010BD606F03F08CFC0028F8D0200003F0BF
:100B1C0087FCF5E770B5D02676008359040098471A
:100B2C00051E1DD0A65903F039FD01002000B04769
:100B3C00002805D09C210B4A0B48490003F012FAFF
:100B4C00D0235B00E55003F01BFD01002000A847FB
:100B5C00002805D03C21034A0348FF3103F002FA78
:100B6C0070BDC046185B0008245B000870B59E265B
:100B7C00B600835904009847051E1DD0A65903F0F2
:100B8C000DFD01002000B047002805D0F0210B4AD4
:100B9C000B48FF3103F0E6F99E239B00E55003F070
:100BAC00EFFC01002000A847002805D0F921034ADA
:100BBC000348490003F0D6F970BDC046185B000825
:100BCC00985A0008F8B52B4B0500C61801223000C6
:100BDC0003F096FA012804D0CF21274A274803F0C6
:100BEC00C1F972B6BFF34F8FBFF36F8F244C270040
:100BFC00C4373B78FF2B2ED022000133C432300097
:100C0C00137003F0F7F9002810D02500C4352B78A9
:100C1C00002B19D0013BDBB2C4342370002B04D160
:100C2C00BFF34F8FBFF36F8F62B6F8BD154BEA560B
:100C3C00012A18D02500144914485831C43503F042
:100C4C0081F92B78002BE5D1114A1249124803F097
:100C5C0089F92B78DEE7A321104A0F48890003F0AD
:100C6C0081F93B78C8E780210D4A13688B431360E8
:100C7C00CBE7C04664100000385B0008445B0008FA
:100C8C008C000020D514000000570008905B000871
:100C9C00AC5B0008930200007C5B0008545B00080E
:100CAC0000440040F0B54F46D6464646A323C0B597
:100CBC0017009F229B009846C35C920005008A4651
:100CCC0000249146002B06D117E043460134EB5C1F
:100CDC00E4B2A34211D94A46AA5823019E583000C7
:100CEC0001F022FFB842F0D13A003100504603F037
:100CFC00A7FD0028E9D1034BEC54E0BCBA46B14641
:100D0C00A846F0BD8D020000F0B5DE4657464E46B3
:100D1C004546E0B507008DB008000C0003F05EFC02
:100D2C000500200003F05CFC040041784268037A63
:100D3C00467A8078844660898046207B8146607B39
:100D4C008246E078834600200E2D01D90E202056D5
:100D5C0006905846059050460490484603904046ED
:100D6C000290604600960190304803F0EBF8CC22DC
:100D7C0090462F4B667B984443461B887601B342C2
:100D8C0005D031002B4803F0DDF843461E802A4A7B
:100D9C00331C964200D2131C284A9BB2D21A284B01
:100DAC0028485343802212019446274A63441B0B64
:100DBC005361E678310003F0C5F8244B09A8FE54C2
:100DCC00238908A90380A3780372FA23227B9B0052
:100DDC0053439BB24380E2789200C280668986803E
:100DEC000E2D1ED9A77B0F700F2D1DD0E47B64B286
:100DFC004C70174CA446174C63449BB2A34206D8C4
:100E0C00052A04D9002E02D0FFF70AFB02E0124893
:100E1C0003F098F80DB0F0BCBB46B246A946A0460C
:100E2C00F0BD00240C70E3E70024E1E7CC5B000884
:100E3C008C000020405A0008B2040000D3270000A8
:100E4C0049070000585A0008007400408602000050
:100E5C0078ECFFFF90E20000A85A0008F8B5224D8C
:100E6C000400435D5A1CD2B24255C3181F48844635
:100E7C0063441970072A08D91C4BE618082A0DD0B0
:100E8C001B4BE05A0830824201D00020F8BD0022F2
:100E9C00154B3000E25403F05FFAF7E7300003F033
:100EAC0037FA00280BD0300003F062FA8023104F81
:100EBC000100E0539B00984210D8625DE2E7615D4F
:100ECC000139C9B261550029DFD000237278013392
:100EDC00DBB2327001369942F8D1D6E7054803F0FF
:100EEC0031F80023E353D0E7D4140000CC120000F7
:100EFC00D6140000385C000870B584B00B0000926A
:100F0C0005000022012102A803F092F972B6BFF38A
:100F1C004F8FBFF36F8F234C2600C4363378FF2BD3
:100F2C0032D022000133C43213701F4B082202A9A5
:100F3C00E81803F067F8002811D12500C4352B7888
:100F4C00002B1AD0013BDBB2C4342370002B04D12C
:100F5C00BFF34F8FBFF36F8F62B604B070BD134BEE
:100F6C00EA56012A18D02500114912485831C435C7
:100F7C0002F0E8FF2B78002BE4D10F4A0F49104800
:100F8C0002F0F0FF2B78DDE7A3210E4A0C48890014
:100F9C0002F0E8FF3378C4E780210B4A13680B4357
:100FAC001360CAE78C00002064100000D514000008
:100FBC0000570008905B0008AC5B0008930200002F
:100FCC007C5B0008545B000800440040F0B5060050
:100FDC00C64610001D005D4B00B5F25C82B094015A
:100FEC00A4186400A418A400043434190B0001954F
:100FFC0000900421200003F053F9083572B6BFF3BA
:10100C004F8FBFF36F8FC4239846514FB84443465C
:10101C001B78FF2B3CD03A000133C43213704D4B7C
:10102C0021002A00F01802F0EDFF041E18D1C42391
:10103C009846B84443461B78002B21D03A00013B1C
:10104C00DBB2C4321370002B04D1BFF34F8FBFF34C
:10105C006F8F62B6A54224D002B080BCB846F0BDFA
:10106C003D4BF256012A58D03C493D48583102F0CC
:10107C0069FFC4239846B84443461B78002BDDD146
:10108C00384A3949394802F06DFF43461B78D5E799
:10109C00A321374A3548890002F064FF43461B7888
:1010AC00B9E772B6BFF34F8FBFF36F8F3C00C434F8
:1010BC002378FF2B42D039005A1CC431D2B20A70AB
:1010CC0080212C4CC905E06E496AE166884202D940
:1010DC00216F01312167002A25D0C4373B70002BCA
:1010EC0004D1BFF34F8FBFF36F8F62B6832189009A
:1010FC008C461648E16E325C246F93019B185B00A2
:10110C009B189B00F318A4078908634421431960BA
:10111C00072301321A4032549EE78021164A136885
:10112C000B43136083E70F4A0F49104802F01AFF74
:10113C003B00C4331B78013BDBB2CEE7A3210C4A46
:10114C000A48890002F00EFF2378B4E7D814000097
:10115C008C00002064100000D5140000005700081B
:10116C00905B0008AC5B0008930200007C5B0008FD
:10117C00545B00080C01002000440040B0B582B064
:10118C0000AF05000C00FA71002A28D101210420BF
:10119C0003F0BCFA03006A461333DB08DB00D31AF6
:1011AC005A8821889A8000221A805A809D46A288EB
:1011BC00D98001215A811981FA1D012303A8033119
:1011CC0003F0BEFAD422030052000C33A8580121BC
:1011DC006A469BB2FFF7FAFEBD4602B0B0BD8B88E3
:1011EC00024903486C3102F0ADFECFE7005700080E
:1011FC005C5C0008F0B5D6464F464646C0B500AF1D
:10120C0098463B8C060089461000190015009A463A
:10121C0003F07CFA6B461330C408E4001B1B5A889D
:10122C009D469A8000221A805A80DA8005321A81F3
:10123C004A4629005A8103A85346424603F080FAD5
:10124C00D422030052000C33B05801216A469BB2E1
:10125C00FFF7BCFEBD46E0BCBA46B146A846F0BDA1
:10126C00F0B54F46D6464646C0B58A8884B00500D0
:10127C000C0002AF0A2A00D907E193499300CB581E
:10128C009F46D2235B00C058D83003F0CDF8040041
:10129C0003F074F90223241A3A0005210A203C8039
:1012AC00FEF748FFBD4602B0E0BCBA46B146A846C0
:1012BC00F0BD864C200001F037FC80B2009023007A
:1012CC000C2202212800FFF795FFEBE70122010019
:1012DC000320FEF767FF7E497E4802F033FE7E4A0C
:1012EC007E4993680B4004210B439360DAE772B696
:1012FC00BFF34F8FBFF36F8FC4239846784EB04423
:10130C0043461B78FF2B00D1D5E031005A1CC43169
:10131C00D2B20A7073498846C96E40468C46802109
:10132C00C905496AC1668C4502D9016F0131016753
:10133C00002A00D1B4E0C4363370002B04D1BFF3C3
:10134C004F8FBFF36F8F62B643464246DB6E126F10
:10135C009B0891070B433B60082392087A60217924
:10136C000422009328003B00FFF744FF9AE7D223A6
:10137C005B00C358E9469A46A32352469B00D65CB1
:10138C006A46B3000733DB08DB00D31A9D469F2265
:10139C0002AB9200984694460023002E0BD0504688
:1013AC006146415840461A0151589A000133815008
:1013BC00DAB29642F3D83100404603F03FF903000D
:1013CC006A460C339BB20733DB08DB00D31A9D460D
:1013DC0002AB9A4652465B88514693800023138099
:1013EC0053802388A288CB8005230B8109336B445F
:1013FC009A804146320005A803F040F9D42203003C
:10140C0052000C33A858012152469BB2FFF7DEFD67
:10141C00CD4647E7D2239F215B00C258324B89004F
:10142C00D35C52581B019C58200001F07DFB22001C
:10143C0083B20C210620FEF77DFE33E7D2235B003E
:10144C00C2582A4B04219C46082001236244FEF713
:10145C0071FE27E70400AD34FF34200001F064FB7B
:10146C0080B2009023000C2209212800FFF7C2FE55
:10147C0018E7D2235B00C2581D4B04219C46072061
:10148C0001236244FEF756FE0CE71149194810314E
:10149C0002F058FD862221002800FFF76FFE01E7BD
:1014AC00154A1649164802F05DFD3300C4331B780B
:1014BC00013BDBB23FE7A321124A1148890002F03D
:1014CC0051FD43461B7820E750520008745C00081D
:1014DC0080570008805C000800240140E8FFFF7F73
:1014EC008C0000200C0100208D0200008F020000F7
:1014FC008E020000845C0008AC5B000893020000C4
:10150C007C5B0008545B0008F8B5050008000C0073
:10151C0003F062F8152843D00AD8012855D00228C8
:10152C0049D189498948243102F00CFD0020F8BDCD
:10153C00172840D1200003F053F8027A0400861DCE
:10154C00062A5DD013D8022A45D0032A4ED1B3887F
:10155C00C1887F4A7F4802F0F5FC290030790022CF
:10156C00FEF720FE31002800FFF77AFEDEE7082A9E
:10157C003CD1C188784AB388764802F0E3FCB28843
:10158C00062A4CD00A2A00D1A6E06F496C31734868
:10159C0002F0D8FC862231002800FFF7EFFDC5E7EA
:1015AC00D423694A5B00E858833B0021FF3B30326F
:1015BC00FFF70CFDBAE7200003F00EF862490200B9
:1015CC002431674802F0BEFCB0E75F49654824311E
:1015DC0002F0B8FCAAE7C188B388634A5D4802F000
:1015EC00B1FC31002800FFF73BFE9FE75F496048E4
:1015FC0002F0A8FC812231002800FFF7BFFD95E71F
:10160C00B388C1885B4A534802F09CFCB288931F94
:10161C009BB2042B6ED8584A9B00D3589F46B37983
:10162C000C2B6AD0002231002800FFF7A7FD7DE7C4
:10163C00B3790C2BF6D1F3791F1C172B00D9172774
:10164C0021002C00AD34FF34BFB23A0020000E3123
:10165C0003F004F90023EF19AD37FF3721003B707D
:10166C00464802F06FFCDDE7B3790C2BDAD19933E5
:10167C00FF33EF58F3790E34042B52D0052B22D0C4
:10168C001D2100230022380002F0D2FECAE7B379F4
:10169C00042BC7D12200A133FF33E858A43B2121EE
:1016AC000D32FF3B02F0C4FEBCE7B379102BB9D16D
:1016BC00D2212200490068588339F3790E32FF3960
:1016CC0002F0B6FEAEE72E490522200003F0B8F872
:1016DC001B210028D4D1D4E7B379092B18D0082BBF
:1016EC00A0D19D33FF33E85800220023242102F0BF
:1016FC009FFE97E71449583149E7D221220049004F
:10170C0068588539F3790E32FF3902F091FE89E77A
:10171C009C33FF33E85800220023232102F088FE7B
:10172C0080E704222000174903F08AF8002808D02B
:10173C0004222000144903F083F80028A0D11A21B8
:10174C009FE71C219DE7C04680570008BC5C000841
:10175C002C5D0008D85C00083C5D0008845C000827
:10176C00F45A0008A45C0008D05C0008005800087B
:10177C00445D0008FC5C00087C520008145D000805
:10178C000C5D0008045D0008645D00080FB430B502
:10179C0097B01AA920C92800019102F0C9FB2A00B0
:1017AC0004005021019B02A803F0DAF9002808DD9F
:1017BC0090220749013083B28858002102AAFFF712
:1017CC0005FC200017B030BC08BC04B01847C0465C
:1017DC000C01002070B5050008000C0002F0FCFEA6
:1017EC000E280AD00AD807282DD00C2839D100236E
:1017FC0000221E21A86F02F01BFE70BD132830D1F1
:10180C00200002F0EDFE002341680068184A01F048
:10181C003DFB04003C21200001F01EFA20000E00CC
:10182C003C2101F093F93C2101F016FA0D00E12165
:10183C002000090101F08AF9330001002A000D484B
:10184C00FFF7A4FFD9E7200002F0CAFE04680A489B
:10185C00210002F077FB022CCFD188230022EA541E
:10186C00CBE7064902001031054802F06BFBC4E7D8
:10187C0040420F006C5D0008845D000800580008B1
:10188C00985D00089F2270B51A4B9200C35C855876
:10189C001B01ED18040029681748FFF777FFA023F8
:1018AC00A0229B00E550AB899200A618338100233F
:1018BC00B380AB7B002B17D000230F21F371B372D5
:1018CC002000FEF75FFD9F220A4B9200E35CA258BA
:1018DC001B019C58200001F027F9220083B20C2137
:1018EC000620FEF727FC70BD4721044A044802F08D
:1018FC0039FBE1E78D020000A45D0008B85D00082B
:10190C00D05D000870B5050082B008000C0002F034
:10191C0063FE0300143BDBB2122B15D82F4A9B003D
:10192C00D3589F46200002F05BFE0600200002F018
:10193C0055FE310002002800FFF7B4F92800FFF72C
:10194C00A1FF002002B070BD200002F045FE24492A
:10195C0002002031234802F0F5FA0020F2E72000C3
:10196C0002F03EFE6B4681881F4A5143890B198059
:10197C00438809045A436B46920B5A800088120420
:10198C00C3011B181B011B1A68469B0A83801B048E
:10199C001B0C120C090C1548FFF7F8FE032006234C
:1019AC006A461021FEF7C6FB0020CBE7A321104AA4
:1019BC008900AB5C0133DBB2AB54695C9942BDD19D
:1019CC000023AB54BAE7200002F00AFE017828008D
:1019DC00FEF7D8FCB5E70748B4E7C04690520008BC
:1019EC0000580008D05A00084DCE0000E45D0008F5
:1019FC008D020000D51F000870B5050008000C0012
:101A0C0002F0EAFD272803D81A4A800013589F4693
:101A1C0021002800FFF776FF70BD1748FCE7174937
:101A2C0017482C3102F08EFA0322164B0820EA5488
:101A3C000421EA180123FEF77DFB2800FEF7A8FD20
:101A4C000020E9E70D4910482C3102F07BFA002008
:101A5C00E2E72800FEF79CFD03000020002BDBD101
:101A6C00A0239B00EB5809481968FFF78FFE084824
:101A7C00D2E7C046DC520008A11A00080058000842
:101A8C000C5E00088F020000205E0008345E000827
:101A9C00D51F000870B5040008000D0002F09CFD75
:101AAC00272803D8314A800013589F46290020006C
:101ABC00FFF728FF70BD2E492E483C3102F042FA48
:101ACC0002222D4B0820E2540421E2180123FEF7D8
:101ADC0031FB0020EEE7264928483C3102F032FA6F
:101AEC000020E7E7A0239B00E35825481968FFF77F
:101AFC004DFE2448DEE7A321234A8900A35C013371
:101B0C00DBB2A354615C994201D10023A3542000A1
:101B1C00FFF7B8FE1D48CDE7280002F061FD060076
:101B2C00280002F05BFD310002002000FFF7BAF83C
:101B3C002000FFF7A7FE1548BCE7A2239B00E35A41
:101B4C00002B08D1A0239B00E35811481968FFF71C
:101B5C001DFE0E48AEE7A0239B00E3580D48196804
:101B6C00FFF714FE0020A5E70648A3E77C53000806
:101B7C00005800080C5E00088F020000205E000870
:101B8C00445E0008051A00088D020000D51F0008ED
:101B9C00345E0008545E0008010030B53039CBB219
:101BAC0083B0472B03D8574A9B00D3589F4601005C
:101BBC005548FFF7EBFD03B030BD8B00C9188C23E3
:101BCC00802501AA490011705049514CC8588B3BD3
:101BDC00212102F02DFC6369AD002B42EBD14D4865
:101BEC0002F0B0F9A561E6E78C23484AD0584A4B7D
:101BFC00C25C023A131C642A00DD81E019B201AA0E
:101C0C000A2912DB13702121012302F011FCD2E707
:101C1C008C233E4AD058404BC25C0232131C642ABF
:101C2C0000DD642301AA092BECDC0A23EAE78022FD
:101C3C003A49D203486903041340402282431343B8
:101C4C008B61B8E78C23314A1F21D0580023002226
:101C5C0002F0EEFBAFE73248FFF798FDABE78824C4
:101C6C002A4D002300220C21285902F0E1FB00230D
:101C7C0000220E21285902F0DBFB9CE729492A4857
:101C8C00FFF784FD97E78C23204A1C21D0580023B2
:101C9C00002202F0CDFB8EE72449254802F052F9D0
:101CAC00244A254993680B4004210B43936082E737
:101CBC008025174CAD0063692B421CD100231349BE
:101CCC0001AA13708C33C85821218B3B02F0B0FB56
:101CDC0071E7902300210D4AD258184BD1546AE772
:101CEC0002230A4A01938633D0580721843B01AA68
:101CFC0002F09EFB5FE7124802F024F9A562DDE7D3
:101D0C0064237BE71C540008D45E00080C010020FF
:101D1C0000040050B05E00088E0200000008005065
:101D2C00645E0008745C0008C45E000880570008FC
:101D3C00805C000800240140E8FFFF7FD9140000FC
:101D4C009C5E0008F0B5DE4657464E464546E0B56B
:101D5C0083B0060002AF08000C0002F0FDFA05008B
:101D6C002000012D4BD002F0FBFA8046200002F03F
:101D7C00EFFA8246032D00D180E0200002F0F8FA41
:101D8C008146042D10D0280002F044FA4B46010085
:101D9C0042464F4802F0D6F8BD4601B0F0BCBB46F7
:101DAC00B246A946A046F0BD200002F0D1FA814609
:101DBC00200002F0E3FA0500200002F0D9FA4A46AE
:101DCC000300002A44D1022802D12A782F2A7AD083
:101DDC001A0069460C32D208D2008A1AEB46954694
:101DEC0002AA91465C1D210048463A4A009502F031
:101DFC003BFE002801DD84425BD8DD462DE002F07D
:101E0C00B3FA72B6BFF34F8FBFF36F8F324C25000E
:101E1C00C4352B78FF2B44D0210080205A1CC431B0
:101E2C00D2B20A702D49C005CD6E406AC866854293
:101E3C0002D9086F01300867002A14D0C43423700B
:101E4C00002BA9D1BFF34F8FBFF36F8F62B6A3E7FF
:101E5C002A001721306802F0EBFA52464146300056
:101E6C00FFF74AF898E71E4A1E491F4802F07AF815
:101E7C002300C4331B78013BDBB2DFE741461B4830
:101E8C0002F060F8524641463000FFF735F85146F3
:101E9C004B1E9941002200233068153102F0C8FA1C
:101EAC007AE7A321124A1048890002F05BF82B78DC
:101EBC00B2E79022094983B288584A460021FFF7BD
:101ECC0085F8DD46C9E76878FFF766FEC5E7C046CA
:101EDC00185F00080C5F00088C0000200C0100202B
:101EEC00AC5B0008930200007C5B0008EC5E000811
:101EFC00545B000870B5204D0400435D002B0ED1DF
:101F0C000A2905D0C9B2FEF7A9FF032818D070BD65
:101F1C0001220339FEF7F0FF01236355F7E7C9B23D
:101F2C00FEF79CFF0028F2D0144BE518280002F0B5
:101F3C0027FA002813D029002000FFF703FFE6E75B
:101F4C000E4BE518280002F01BFA00280DD02900D2
:101F5C002000FFF7F7FE0122074BE254D7E70849B0
:101F6C000848483101F0EEFFD1E7054905484831F2
:101F7C0001F0E8FFEFE7C046D9140000CC120000D6
:101F8C0000580008485F000830B50D00040083B00D
:101F9C00080002F025FBD834280002F01FFB2900B2
:101FAC00200002F089FA200002F03EFA040002F050
:101FBC00E5FA6B46241A9A1D052102230A20148087
:101FCC00FEF7B8F803B030BD70B5040008000D0082
:101FDC0002F002FB27280CD82B4A800013589F468E
:101FEC00A0239B00E35829481968FFF7CFFB00207A
:101FFC0070BD29002000FFF785FCF9E7A026244BD3
:10200C00B600E25C113BE35812019B18A3519A896C
:10201C00A5192A810022AA809A7B002A2DD00022A1
:10202C00EA71AA7219681B48FFF7B0FB1A48DFE780
:10203C002000D83002F0F4F90028D8D11748D7E79F
:10204C00174918485C3101F07DFF0122164B08201E
:10205C00E2540421E2180123FEF76CF80020C7E7D4
:10206C000F4912485C3101F06DFF0020C0E72000E1
:10207C002900FFF789FF0020BAE747210C4A0D48D9
:10208C0001F070FFA359CAE73C550008345E000804
:10209C008D020000585F0008051A0008C5200008D2
:1020AC00005800080C5E00088F020000205E00083B
:1020BC00B85D0008D05D000830B5050083B008009D
:1020CC000C0002F089FA272821D8294A80001358DD
:1020DC009F462C002749D8346831274801F032FF3D
:1020EC002A002649200002F005FA200002F09CF993
:1020FC00040002F043FA6B46241A9A1D05210223B0
:10210C000A201480FEF716F8002003B030BD210021
:10211C002800FFF7F7FBF8E72800D83002F076F933
:10212C0014491748683101F00DFF0020EDE72C0031
:10213C00D8342A001149200002F0DCF905002000F7
:10214C0002F072F9040002F019FA6B46241A9A1D77
:10215C00052102230A201480FDF7ECFF002DD3D1BA
:10216C000848D2E728002100FFF70EFF0020CCE73B
:10217C00DC550008005800080C5E0008150D00081E
:10218C00205E0008D51F0008112110B50E4A0F481B
:10219C00136A8B43136280220D4B92009A62DA3AD7
:1021AC00FF3A9A610B490C4B78315A6801F0CAFE20
:1021BC000A4C012321000A481831237601F0C2FE93
:1021CC00237E002BFCD110BD002C0140685F000861
:1021DC00000400500058000800ED00E08C010020C5
:1021EC00785F0008024AD3690133D3617047C04657
:1021FC008C01002010B5EFF30582034903480C3124
:10220C0001F0A0FE10BDC04680580008185A000806
:10221C00012210B5144B19690A421ED00620196808
:10222C0091431960D9688143D960196901308143A0
:10223C00196140210D4B99620D4B19399A6101328C
:10224C009A6102329A611C329A619423094AD058DD
:10225C000023002202F0ECF810BD07491A6918316E
:10226C00064801F06FFEF7E7002C01400008005013
:10227C00000400508C00002080580008B05F00085B
:10228C00022210B54A4BD9680A4202D019690A4297
:10229C0059D1484B0421464AD068014202D01069FA
:1022AC00014223D11A00CE321188414A126B0132FD
:1022BC00914212D03E4B40491A690A4200D110BDDE
:1022CC001B693E48194001F03DFEEFF305823C4985
:1022DC003C480C3101F036FEF1E71A009421CE3265
:1022EC00585802236E3902F0A3F8E3E710698843CB
:1022FC0010611A00CE3211881800013189B2118098
:10230C001A00DA300078D632128840B21218C8207F
:10231C008000824248DD02001800D630028018008E
:10232C001A00DB300078D232128840B212182648DC
:10233C00824200DD02002548824200DA02001800C9
:10234C00D2300280B1E7196991431961194B190018
:10235C00CE310A8801320A8019001A00DA31097864
:10236C00D632128849B25218C82189008A4217DD28
:10237C000A001900D6310A8019001A00DB310978DD
:10238C00D232128849B252180F498A4200DD0A0033
:10239C000E498A4200DA0A001900D2310A8079E724
:1023AC00062AE6DA0622E4E7062AB5DA0622B3E7BD
:1023BC00002C01408C000020E0FF0C00B05F0008F6
:1023CC0080580008185A000818F6000088130000FE
:1023DC00F8B580230222DB0519690A420FD10121CD
:1023EC001A69114203D01A698A431A61F8BDEFF3D6
:1023FC0005822B492B480C3101F0A4FDF6E7196935
:10240C00294C914319618023E66FE75872B6BFF3EC
:10241C004F8FBFF36F8F2500C4352B78FF2B36D031
:10242C0021005A1CC431D2B20A7080211F4DC9053B
:10243C00E86E496AE966884202D9296F0131296739
:10244C00002A19D02200C4321370002B04D1BFF320
:10245C004F8FBFF36F8F62B62B6FEA6E990792089E
:10246C000A439B083800B04780228421D205536B65
:10247C0061585B185363B9E70D4A0E490E4801F0D9
:10248C0071FD2300C4331B78013BDBB2DAE7A321D7
:10249C000A4A0948890001F065FD2B78C0E7C0465F
:1024AC0080580008185A00088C0000200C010020ED
:1024BC00AC5B0008930200007C5B0008545B0008D6
:1024CC0070B50C4C2500C4352B78002B0BD0013B80
:1024DC00DBB2C4342370002B04D1BFF34F8FBFF396
:1024EC006F8F62B670BD044A0449054801F03AFD8D
:1024FC002B78ECE78C000020AC5B0008930200000A
:10250C007C5B000870B572B6BFF34F8FBFF36F8F53
:10251C00084C2500C4352B78FF2B03D00133C43471
:10252C00237070BDA321044A0448890001F01AFDF0
:10253C002B78F3E78C000020545B00087C5B0008D0
:10254C00102210B50E4BD9680A4211D119690A42F2
:10255C0007D1EFF305820B490B480C3101F0F2FC6B
:10256C0010BD0A4800211A61883001F017FDF7E709
:10257C0006480121DA60883001F010FDF0E7C04612
:10258C000018024080580008185A00088C000020DF
:10259C0010B5EFF30582034903480C3101F0D2FC6E
:1025AC0010BDC04680580008185A0008102210B5FB
:1025BC001C4B19680A421AD1012219680A4211D11E
:1025CC00802219689201114222D1042219680A4210
:1025DC0023D1082219680A420ED01A60124801F061
:1025EC00B1FC03E011481A6001F0ACFC10BD1A609C
:1025FC000F4801F0A7FCF9E719680E4801F0A2FC9E
:10260C00EFF305820C490D480C3101F09BFCEDE712
:10261C001A600B4801F096FCE8E71A60094801F0D3
:10262C0091FCE3E70024014000600008CC5F000847
:10263C00BC5F00080C60000880580008185A00089D
:10264C00D85F0008F45F0008022310B5134C226811
:10265C00134218D108232268134208D1104922686A
:10266C001048383101F06EFC0423636010BD0C4936
:10267C00636038310C4801F065FC01210B4A13688A
:10268C000B431360F2E76360094B94211A0058580E
:10269C00C6320623803901F0CBFEE7E7000002408A
:1026AC0080580008286000081C60000808000240E0
:1026BC008C00002010B50E4BDA69920612D4DB693F
:1026CC001B0607D5B4220B4B0B499858043A9B5860
:1026DC00984710BDEFF30582084909480C3101F009
:1026EC0031FCF6E70348596A983001F057FCF0E7E3
:1026FC00004400408C000020284400408058000812
:10270C00185A000870B572B6BFF34F8FBFF36F8FB6
:10271C001D4C2500C4352B78FF2B2CD021005A1CC6
:10272C00C431D2B20A708021184DC905E86E496ACD
:10273C00E966884202D9296F01312967002A0FD036
:10274C00C4342370002B04D1BFF34F8FBFF36F8FB2
:10275C0062B6296FE86E8B0780081843890870BD34
:10276C000B4A0C490C4801F0FDFB2300C4331B78C9
:10277C00013BDBB2E4E7A321084A0748890001F0DA
:10278C00F1FB2B78CAE7C0468C0000200C0100201E
:10279C00AC5B0008930200007C5B0008545B0008F3
:1027AC007047C04610B50B00EFF31084012181F384
:1027BC0010881900FDF7C4FF84F3108810BDC046C3
:1027CC0010B582B0EFF31084012181F310886B46B1
:1027DC000122D91D0020FDF7B3FF84F310880128D6
:1027EC0003D16B46D87902B010BD01204042FAE704
:1027FC0010B5FDF74FFF10BDF0B5DE464E465746FF
:10280C004546E0B59BB00AAB0593402306930023E5
:10281C000793089301330C0091469B460290099054
:10282C0005E005A8FEF77AF80898002859DB21780E
:10283C00013400295CD02529F3D12200137800261D
:10284C0002250820140021392D2B0CD02D2B0ED84D
:10285C00232B11D02B2B00D05FE10E4301321378C8
:10286C0014002D2BF2D15B4601321E43F7E7302BBF
:10287C0005D12E430132F2E706430132EFE71A008D
:10288C00303A0025092A0DD81A00AB005B19013427
:10289C005B009B182278303B1D001300303B092B4A
:1028AC00F3D913002E2B00D1D8E000272378042174
:1028BC0001E0637801341A008A43682AF9D0252B89
:1028CC0007D0583BDBB2202B07D8954A9B00D35836
:1028DC009F46252105A8FEF721F808980134002809
:1028EC00A5DA1BB0F0BCBB46B246A946A046F0BD6B
:1028FC0008980028F5DD079C002C00D0C6E00019D4
:10290C00EFE74B4649461B6805A81A1D0A60196873
:10291C0010223B0001960095FEF738F80134089818
:10292C00DDE74B4649461B6805A81A1D0A60196865
:10293C000A223B0001960095FEF728F8013408980E
:10294C00CDE74B4649461B681A1D0A601D6805E019
:10295C0005A8FDF7E3FF08980028BFDB29780135AF
:10296C000029F5D10898B9E74B4649461B6805A8DC
:10297C001A1D0A6019680023019308331022009372
:10298C00FEF704F801340898A9E74B4649461B6842
:10299C001A1D0A601B68DA1798180393012350401C
:1029AC009A4609280DDDAA46A0461D000A210400FE
:1029BC00013500F081F9632CF8DC2B0044465546B8
:1029CC009A46B846574575D3002D36D0039B002B3D
:1029DC0074DB730772D4B30701D5002F2DD05B467F
:1029EC0033422AD1002D28D04346A0461C00AC42CD
:1029FC0020D205A82021FDF791FF0898013D002861
:102A0C0000DA87E0002DF2D1230044469846039B60
:102A1C00002B58DB730761D403233340022B62D0A5
:102A2C0005A83B000A22039901960095FDF7AEFF1D
:102A3C00089853E723004446984608980028E6DA9D
:102A4C0001344CE74B4649461B6805A81A1D0A6021
:102A5C001978FDF763FF0134089840E76378621C2E
:102A6C001900303914000027092900D91FE71A0072
:102A7C00BB00DB1901345B009B182278303B1F0034
:102A8C001300303B092BF3D9130010E7254B1B78AF
:102A9C00002B15D0EFF31085012181F31088220053
:102AAC0002980AA9FDF7C0FE85F310880898079CC8
:102ABC00001916E7D046002DBFD087E7013D8AE705
:102ACC00FDF7E8FDE6E75B422D2105A80393FDF732
:102ADC0025FF089800289FDA013400E72B2105A870
:102AEC00FDF71CFFF5E7002F9AD10AE0A8450CD2A0
:102AFC0005A83021FDF712FF0898013D002800DAE7
:102B0C00ECE6002DF2D100258AE70898002887DA38
:102B1C000134E4E644460134E1E60025C5E6C0464E
:102B2C007C560008AC2100200023C25C0133002A33
:102B3C00FBD1581E7047000003B471464908400091
:102B4C004900095E49008E4403BC704700224308CB
:102B5C008B4274D303098B425FD3030A8B4244D359
:102B6C00030B8B4228D3030C8B420DD3FF2209029B
:102B7C0012BA030C8B4202D31212090265D0030B5A
:102B8C008B4219D300E0090AC30B8B4201D3CB0350
:102B9C00C01A5241830B8B4201D38B03C01A524192
:102BAC00430B8B4201D34B03C01A5241030B8B4294
:102BBC0001D30B03C01A5241C30A8B4201D3CB027F
:102BCC00C01A5241830A8B4201D38B02C01A524164
:102BDC00430A8B4201D34B02C01A5241030A8B4267
:102BEC0001D30B02C01A5241CDD2C3098B4201D37F
:102BFC00CB01C01A524183098B4201D38B01C01AFD
:102C0C00524143098B4201D34B01C01A5241030973
:102C1C008B4201D30B01C01A5241C3088B4201D322
:102C2C00CB00C01A524183088B4201D38B00C01ACF
:102C3C00524143088B4201D34B00C01A5241411AF6
:102C4C0000D20146524110467047FFE701B5002003
:102C5C0000F006F802BDC0460029F7D076E77047B1
:102C6C007047C04610B5002903D100F007F820309A
:102C7C0002E0080000F002F810BDC0461C21012340
:102C8C001B04984201D3000C10391B0A984201D343
:102C9C00000A08391B09984201D30009043902A221
:102CAC00105C40187047C046040302020101010188
:102CBC00000000000000000003460B437FD40022FC
:102CCC0043088B4274D303098B425FD3030A8B42B4
:102CDC0044D3030B8B4228D3030C8B420DD3FF221E
:102CEC00090212BA030C8B4202D31212090265D0EC
:102CFC00030B8B4219D300E0090AC30B8B4201D39F
:102D0C00CB03C01A5241830B8B4201D38B03C01AE5
:102D1C005241430B8B4201D34B03C01A5241030B5C
:102D2C008B4201D30B03C01A5241C30A8B4201D30D
:102D3C00CB02C01A5241830A8B4201D38B02C01AB8
:102D4C005241430A8B4201D34B02C01A5241030A2F
:102D5C008B4201D30B02C01A5241CDD2C3098B4214
:102D6C0001D3CB01C01A524183098B4201D38B0191
:102D7C00C01A524143098B4201D34B01C01A524134
:102D8C0003098B4201D30B01C01A5241C3088B4279
:102D9C0001D3CB00C01A524183088B4201D38B0064
:102DAC00C01A524143088B4201D34B00C01A524106
:102DBC00411A00D201465241104670475DE0CA0FDD
:102DCC0000D04942031000D34042534000229C469D
:102DDC0003098B422DD3030A8B4212D3FC228901A7
:102DEC0012BA030A8B420CD3890192118B4208D37D
:102DFC00890192118B4204D389013AD0921100E0DF
:102E0C008909C3098B4201D3CB01C01A52418309F2
:102E1C008B4201D38B01C01A524143098B4201D31F
:102E2C004B01C01A524103098B4201D30B01C01A4A
:102E3C005241C3088B4201D3CB00C01A52418308C4
:102E4C008B4201D38B00C01A5241D9D243088B421A
:102E5C0001D34B00C01A5241411A00D201466346BD
:102E6C0052415B10104601D34042002B00D5494221
:102E7C00704763465B1000D3404201B50020FFF75A
:102E8C00EFFE02BD0029F8D016E77047002B11D1D8
:102E9C00002A0FD1002900D1002802D00021C943FB
:102EAC00080007B4024802A14018029003BDC046B6
:102EBC00B1FDFFFF03B4684601B5029800F006F8B7
:102ECC00019B9E4602B00CBC7047C046F0B55746FD
:102EDC004E464546DE46E0B504000D009246994646
:102EEC0083B08B4230D82DD049465046FFF7BAFEFE
:102EFC00290006002000FFF7B5FE331A9846203B48
:102F0C009B4633D45A465346934042461F00534681
:102F1C0093401E00AF423AD8AF4200D178E05B46F6
:102F2C00A41BBD41002B00DA75E0002200230092A7
:102F3C00019301235A469340019301234246934047
:102F4C00009328E08242CFD9002200230092019303
:102F5C000C9B002B01D01C605D600098019903B0A4
:102F6C00F0BCBB46B246A946A046F0BD4246202363
:102F7C009B1A5246DA40414613004A468A401700D3
:102F8C0042461F43534693401E00AF42C4D9002211
:102F9C000023009201934346002BD9D0FB07720803
:102FAC001A4346467B080EE0AB4201D1A2420CD834
:102FBC00A41A9D41012024196D410021013E2418C1
:102FCC004D41002E06D0AB42EED9013E24196D4185
:102FDC00002EF8D1009801995B4600196941002B2D
:102FEC0024DB2B005A464446D3402A00E2401C0006
:102FFC005B461500002B2ADB26009E403300260082
:10300C004746BE403200801A9941009001919FE7DB
:10301C00A342BCD883E74246202300219B1A0022FE
:10302C00009101920122DA40019286E74246202368
:10303C009B1A2A0046469A402300F3404446134309
:10304C002A00E2401C005B461500002BD4DA4246F5
:10305C002F002023260097409B1ADE403B00334371
:10306C00CDE7C0460D488546FFF79AFB0C480D4945
:10307C000D4A002302E0D458C4500433C4188C42C7
:10308C00F9D30A4A0A4C002301E013600432A2422D
:10309C00FBD301F09DFB00F00FF8FEE70090002041
:1030AC00000000206C0000205C6200087000002012
:1030BC008C220020FEE70000F0B5DE4657464E4657
:1030CC004546E0B5B9B000F02FFF9149914800F0AA
:1030DC0039FF0722904B00215A63A0240D3215A80A
:1030EC0001F0C5FB0223E405189320000E3314A94C
:1030FC001493FDF77BF8149A236913409A4206D176
:10310C00864B1B6883F30888854B1B689847032301
:10311C00A0269A4615930023F6059846300018937E
:10312C0014A943331493FDF761F82023300014A93C
:10313C0014938025FDF75AF843460127794C1793D1
:10314C00AD000233200015971693149514A9A562AF
:10315C009946FDF74BF840237348149314A98361E7
:10316C00FDF744F8272320001797149314A9A361A3
:10317C00FDF73CF84B46159319934346C02417931F
:10318C005346A400169314943000B46214A9FDF7AE
:10319C002DF80C23300014A919971493FDF726F879
:1031AC0080215D4B09065A6D0120920092080A435A
:1031BC005A655E4ADA635E4A1A649A6B17439F63D8
:1031CC005C4B1A6814431C605B4CFDF795F8236844
:1031DC005A4A5B4F13401D4325603B6859495800C0
:1031EC00C0184000FFF7B2FC80226369D2000130A6
:1031FC00134202D105E0002803D063690138134261
:10320C00F9D180214C4A490013680B4313601368B1
:10321C000B42FCD00221404A4B4BD365D36D194273
:10322C00FCD0382391680B40D168102B01D100F0F1
:10323C0016FC002B01D000F016FC136843495368B0
:10324C0019408023DB010B435360136840490B404A
:10325C00136013683F4A9B045B0FDA403A6078684E
:10326C00FDF74AF83C4A002832D138202A498B68AD
:10327C000340102B01D100F0ABFD0B683748034025
:10328C0080200B60D469800403E0D3691B1B022BE4
:10329C001ED80B680342F8D1CB6831481840314B2B
:1032AC000343CB60802308685B0403430B608023DB
:1032BC00C8685B050343CB608021D4691648890438
:1032CC0003E0D3691B1B022B02D803680B42F8D016
:1032DC00062318490868184201D100F072FCE0235B
:1032EC000D49DB01886803438B608B681E480340E3
:1032FC008B600B689B016AD507208B681B4C834342
:10330C001800022303438B603820D56934E0C04693
:10331C00745C000838600008001002400000FF1FB9
:10332C000400FF1F0004005000080050030002308E
:10333C00010812000020024000700040FFF9FFFF5E
:10334C000000002040420F0009800000FF80FFFFBA
:10335C00FFC7FFFF0024F4008C010020FFFFFFFEDD
:10336C008C80C11132301646FFF0FFFF881300002D
:10337C00D3695B1BA3422AD88B680340102BF7D16F
:10338C000720F5490B680340022B01D900F0C4FC5F
:10339C00F24BF3499A680A409A60382299681142B4
:1033AC0001D000F0A2FC1B68EE489B045B0FD840D8
:1033BC00EA4BED4A9B681B051B0F9B00D3181F2281
:1033CC005B6D1340D84038607868FCF795FFE74A8E
:1033DC00E7491368E7480B401360E74B3A681968F4
:1033EC000905090D00F0AEFD84201022E34B19589D
:1033FC009143195004381958114319501968114345
:10340C00196059680A435A60DD4B1A68D20307D415
:10341C001A68DC490A401A60DA6BDB490A40DA6345
:10342C008023D74A5B02116801240B4313603F22AF
:10343C00D64909200B6893431A00052313430B60EC
:10344C00D34BD4491A681140D34A0A43D3491A6062
:10345C0099600321D24AC632DA605A68120C1204FF
:10346C000A435A60CF4A5460022219680A431A6010
:10347C00082219680A431A601A68210022431A604C
:10348C00FCF73AFEC84B9A68224207D1DA68C74962
:10349C000A40DA601A69920092081A618021C24BC4
:1034AC008903DA680A43DA608022920119681142B2
:1034BC00FCD007211A605A698A43110002220A4380
:1034CC0070215A615A698A43110050220A430F2114
:1034DC005A619A6A8A439A625A69A5490A405A61A2
:1034EC009A6AF231FF318A43110010220A4380217B
:1034FC009A625A6989000A435A619A6AAC49114026
:10350C00C022D2000A4380219A625A69C9010A4337
:10351C005A619A68A7491140802252050A439A6061
:10352C00A5493868FFF712FB142343430793079B05
:10353C00002B05D0079B013B0793079B002BF9D170
:10354C00994B9E499A681140802212060A439A6050
:10355C009A68002AFCDB802212011A602023079350
:10356C00079B002B05D0079B013B0793079B002B68
:10357C00F9D180238C4C9B052269032113432361D1
:10358C0011230C206360FCF7B7FD0121E368E368AD
:10359C00A3680B4200D1ECE2894800F0D3FC012572
:1035AC00814B88491A6914A8AA431A611A6914AE86
:1035BC000A401A619A6881490A402A439A60784BFA
:1035CC006422C53318A91D7000F00AFFE2204000E8
:1035DC0001F022F9C822010052001031040000F061
:1035EC00FFFED023A420784A5B00E2508000319487
:1035FC0001F012F901000400C822103100F0F0FEB5
:10360C0021002000C822E831D830520000F0E8FE3A
:10361C000022002334923593882338219B46329420
:10362C006A4C06AB5B185A4621009D54143168480D
:10363C0000F088FC38686749FFF788FA8023664AEF
:10364C00DB05013898625A63102202219A611A6ACA
:10365C0053482A431A62DA6830340A43DA605F4A04
:10366C00C26780228650FA228426120182510322DC
:10367C00586902435A610F201D60FCF73DFD584804
:10368C0001F0CAF8574B01009C46574B61449622F7
:10369C009C4602909200604400F08CFCFF22029841
:1036AC00524B5349C254329B7A32FF3299509F216C
:1036BC00504A89005C50884610315A508946723AFB
:1036CC003749FF3A8B5038683B49FFF73FFA4A4C71
:1036DC004A4B0138A062A26A190049489A4600F088
:1036EC0031FC484B0021A36111230D20236265603E
:1036FC00FCF702FD00210E20FCF7FEFC88231B02C8
:10370C002660E5606364319C17222300AD33FF33E0
:10371C0018003D49329D01F0E3F9D2235946029A33
:10372C005B00E5500433E250384B14A858508C23FE
:10373C00329E3649CE500433CA504B46F35C002BB4
:10374C0000D18CE0324B00249946324B9B461C2313
:10375C009C46E24460E0C04600200240001002405B
:10376C00FF8FFFFF0024F400805800080070004019
:10377C00FFFEFFFF4C60000800580140001802409B
:10378C0000740040FFFF03FFFFFFF8FF000802403A
:10379C00080002400F80FFFFA025000040240140DC
:1037AC008C0000200000024000240140C73FFFFFB6
:1037BC00FFF0FFFFE8FFFF6F40420F00E8FFFF7FC5
:1037CC006C600008FFFFFFDFDD0A000800590008ED
:1037DC00805C000800093D00801A06005D050008A9
:1037EC00DC1400007410000064100000D5140000FC
:1037FC00BD0A000805020000002C01408059000899
:10380C008860000868680000946000080C010020C3
:10381C00A4600008B46000084346F35825019C4698
:10382C0065444846296800F08DFB28896B680028A0
:10383C000ED0002204E0013292B20233904207D043
:10384C0019785D780D42F6D05146584600F07AFB57
:10385C00A3239B000134F35CE4B2A342DCD89E2387
:10386C00E24A9B00F25000F08BFE80250100E04CF8
:10387C003000FEF7A9FB0F213000FCF783FD6369D4
:10388C00AD002B4203D1DB4800F05CFBA56114AA10
:10389C00D94908A800F07CFBD84B883316C816C34E
:1038AC0003210720FCF728FCD023319DD44A5B0070
:1038BC00EA5000F065FE01002800FDF725FED42338
:1038CC005B00EC58CF4BE35C7F2B00D862E1CE4B16
:1038DC000493CE4B05930023CD4A2560A354CD4AC7
:1038EC00A352CD4ACD4B516D0B4353658B23CC4921
:1038FC00CB600A68CB4B1343C52294460B60BF4B7D
:10390C00634498461B78012B00D94DE102211C2001
:10391C00FCF7F2FB434641461B785A1C0A70B94A25
:10392C005BB29046A354002B00DA43E10BAB2200B0
:10393C001800BD499A4600F02BFB0EAB2200180074
:10394C00BA4900F025FB11AB18002200B849994682
:10395C0000F01EFB4346E356012B00D1F0E1A94BCE
:10396C00E256B44B1E000393B34B5836180031008B
:10397C009B4600F0E7FAA34BE2569846012A00D189
:10398C000BE23100584600F0DDFA4346E256012ABC
:10399C0000D102E23100584600F0D4FAD4230021C1
:1039AC005B00EA58A54BA648D154A649882430316F
:1039BC0000F0C8FAA44BA54D9A46A54B9846382260
:1039CC0006AB9B181B5D002B77D0329B29001A008D
:1039DC001800019300F08EFD0028F0D1319B514668
:1039EC001A001800019300F085FD0028E7D114AAF5
:1039FC004146100000F07EFD061EE0D10121484634
:103A0C0000F0BAFA002800D05AE172B6BFF34F8F1B
:103A1C00BFF36F8F794BC4331B78FF2B00D1C2E1FE
:103A2C00764A3298C43213780133137000F0F8FCE4
:103A3C00002800D02AE1714BC4331B78002B00D135
:103A4C004DE16E4AC4321378013BDBB21370002B8C
:103A5C00B5D1BFF34F8FBFF36F8F62B6AFE70D3B9E
:103A6C00194002291FD06C497A4A0B6880201340F8
:103A7C000B6080230A685B001343774A0B60D469A0
:103A8C00C00004E0D3691B1B022B00D920E40B6897
:103A9C000342F7D04B68714818408023DB01034385
:103AAC004B60FFF7E2FB13686C49536819408023A5
:103ABC00DB010B435360FFF7D2FBD025319C6D002B
:103ACC00665900F06BFD01002000B047644B65485F
:103ADC00635100F037FAD4235B00E458494BE256AB
:103AEC00012A04D003995846583100F02BFAFF22D2
:103AFC008026444B3E4DE2546B69B600329C3342F7
:103B0C0003D0594800F01EFAAE629E25AD006659EE
:103B1C0000F044FD01002000B047544B029A635161
:103B2C00384BD35C7F2B05D89821049A0598490013
:103B3C0000F018FA029800F079FE329800F076FE48
:103B4C00319800F073FE72B6494800F0FBF900F0B2
:103B5C001DFA1121474A136A8B4313628022244BAE
:103B6C0092009A62DA3AFF3A9A61434B19329A629E
:103B7C00FEE7E368414AE3681A40414B1343E360B4
:103B8C00E3689B0200D40AE5F023A26A1B021343EC
:103B9C00A36204E50A211D4B1B4A1800FF31049255
:103BAC00059300F0DFF996E6364800F0CBF9FF22DA
:103BBC00144BE25411AB99461E4B03931E4B9B4680
:103BCC00ECE6072002230C68844323430B60D56981
:103BDC002D4C05E0D3695B1BA34201D9FFF7F7FB22
:103BEC000B680340022BF5D1FFF779FBD51F0008BA
:103BFC0000040050B05E0008450500088C00002051
:103C0C0015150008D5140000CC600008445B0008B2
:103C1C00D4140000D81400000010024008000C005E
:103C2C000044004001000020011F0008610300084F
:103C3C007903000800570008905B0008D9140000B5
:103C4C001461000880570008210B0008790B00084C
:103C5C00E1170008FFC7FFFF8C010020FF80FFFF6A
:103C6C00DD0A0008386100089C5E0008BD0A0008E7
:103C7C0048610008002C0140000800503CC2FEFFC7
:103C8C0003100000E060000888130000319800F079
:103C9C00C7FB002800D1CEE614A800F0C1FB002819
:103CAC0000D1C8E680228A4E92007369134200D07C
:103CBC00E8E00421874A13698B43136130BFBAE6ED
:103CCC004B461878844B0190943319787422002950
:103CDC0070D12F2800D07EE0733A1A7095E67F4A97
:103CEC007F49804800F03EF9ABE6996811400829FD
:103CFC0000D1DDE099681140102900D188E0996865
:103D0C001140202900D1D6E09B681A40182A00D116
:103D1C00D5E00020FFF74CFB02230C6884432343BF
:103D2C000B60D569704C05E0D3695B1BA34201D9CC
:103D3C00FFF74DFB0B680340022BF5D1FFF728FB77
:103D4C0052466A4B983343CA43C3684BA43343CAA5
:103D5C0043C3042366490A6813430B604346E35686
:103D6C00012B00D0FBE5614AB333D4505F49614A63
:103D7C00043BCA500B004A46B83343CA43C308231A
:103D8C005B490A6813430B604346E2565A4B039354
:103D9C005A4B9B46012A00D0E3E52023544A116874
:103DAC000B431360FAE5A321554A4E48890000F0F5
:103DBC00D9F835E6019B0A2B41D0524800F0C2F8E5
:103DCC000198FDF7E9FE0022434B94331A701CE670
:103DDC00CB68FFF77DFA40483F4E95300378F618D4
:103DEC00B15401990A2909D00133DBB20370B154E3
:103DFC00142B00D009E6434800F0A4F83649424899
:103E0C00743100F09FF80022334B95331A70FCE5A7
:103E1C00DA68D968D243D8684906490F40040131A1
:103E2C00440E92074FD03948FEF790FE6043384B52
:103E3C00D968490F0131FEF789FEFFF7B9FA354B06
:103E4C00344819784B1CDBB20370234884462F206E
:103E5C0061448854142B08D12A4800F073F82E4979
:103E6C00294800F06FF82B4B1E7000221A4E1A498D
:103E7C00953633787431CA54234800F063F8002225
:103E8C003270A0E706203B6824495843FEF75EFEDB
:103E9C003368234A01301340336003E0002800D11B
:103EAC00C9E501388022736992001342F6D100E70C
:103EBC001C48FFF77DFA80200002FFF779FAFA2000
:103ECC00C001FFF775FA1748FEF740FE6043AEE7F6
:103EDC000070004000ED00E00C010020AC5B00081D
:103EEC00930200007C5B0008881300008C0000200B
:103EFC0000440040D10B000800570008905B0008FC
:103F0C00545B00084C610008286100080024F40090
:103F1C0000100240A10100208001002040420F004F
:103F2C00FFBFFFFF00127A0010B5FEF761FC10BD59
:103F3C0000B583B0019101AA01000020FEF75CFCE2
:103F4C0003B000BD0FB400B583B004AB02CB01AA23
:103F5C00002000930193FEF74FFC03B008BC04B0A3
:103F6C001847C046130010B50A0001000148FFF7BE
:103F7C00E9FFFEE78C6100080A0010B50100002083
:103F8C00FEF710FCC343DB17184010BD7047C0464A
:103F9C0000238360426001607047C04610B503681F
:103FAC000400002B04D040689847A3680133A36039
:103FBC0010BDC04601604B1E99410023494211407F
:103FCC0041608360C360704700238360C3607047A7
:103FDC0003009B68C068C01A43425841C0B2704786
:103FEC000200C368581E9368C01A536800D5C018E5
:103FFC007047C04603008268C1685B68501A00D5E0
:10400C00C0187047F0B54646D6464F460500C0B5B9
:10401C00EB688068013B0E0014001B1A1ED49342FF
:10402C001AD31700002F05D12000E0BCBA46B146C8
:10403C00A846F0BDAB6828689C463A006044310045
:10404C0000F00CFCAB689C466B686744AF609F4209
:10405C00EAD10023AB60E7E70020E6E76A68904608
:10406C004344A342F8D30319994627009A42D9D85E
:10407C00131A9A462B6852469C46604400F0EEFB9D
:10408C0000234246AB604B4656449F1ACAE7C046D3
:10409C00F8B54746CE4680B5C668836805008846A5
:1040AC009C1B0BD4944207D82700002C20D138003D
:1040BC00C0BCB946B046F8BD1400F5E74368994654
:1040CC004C44944200D91400331927009945ECD87C
:1040DC004B469F1B2B683A009919404600F0BEFBDB
:1040EC004B46F61AA419B84400263F19002CDED012
:1040FC00296822004046891900F0B0FBD7E7C0467A
:10410C00F0B54F464646D646C0B50F008368C16829
:10411C00060014005B1A1ED493421AD31500002D0E
:10412C0005D12000E0BCBA46B146A846F0BDF36804
:10413C0031689C462A006144380000F08FFBF3681C
:10414C009C4673686544F5609D42EAD10023F36098
:10415C00E7E70020E6E7426890464344A342F8D3E1
:10416C000B19994625009A42D9D8531A9A460368D6
:10417C0052469C463800614400F070FB00234246D6
:10418C00F3604B4657449D1AC9E7C04670B5010011
:10419C000400861D1D4D1E4823781B025840082321
:1041AC0004E0013BDBB280B2002B09D002B240002C
:1041BC00002AF6DA013B6840DBB280B2002BF5D165
:1041CC000134A642E8D14B888A781D0A12021543A5
:1041DC001BD008314D190D4CADB20B781B02584059
:1041EC00082304E0013BDBB280B2002B09D002B201
:1041FC004000002AF6DA013B6040DBB280B2002BB3
:10420C00F5D101318BB2AB42E7D170BD211000006A
:10421C00FFFF0000052804D883001B180248C018B3
:10422C0070470248FCE7C046B0610008AC6100086A
:10423C0070B5040004A8007849000001084301216E
:10424C000143072018400023D200024363802371EE
:10425C00200000230725C9B221706270661D082258
:10426C0001304B4004E0013AD2B2DBB2002A09D053
:10427C0059B25B000029F6DA013A6B40D2B2DBB2DC
:10428C00002AF5D1B04201D00178E8E76371200033
:10429C00FFF77CFF030AE071A371200070BDC046DC
:1042AC0070B5040004A840C84900058820001B0113
:1042BC000B43D20031002370627008302A0000F0EA
:1042CC00CDFA2B0AA3700023E5702000072523717B
:1042DC00661D02785340082204E0013AD2B2DBB2E8
:1042EC00002A09D059B25B000029F6DA013A6B407A
:1042FC00D2B2DBB2002AF5D10130B042E9D1637100
:10430C002000FFF743FF030AE071A371200070BD8A
:10431C0070B5002307244679451D027853400822C6
:10432C0004E0013AD2B2DBB2002A09D059B25B00E8
:10433C000029F6DA013A6340D2B2DBB2002AF5D199
:10434C000130A842E9D1F01A42425041C0B270BDCE
:10435C0000788006800F704700780007400F704788
:10436C0040788006400F704743780720184070470C
:10437C00827843881202180A10437047083070473D
:10438C0010B50400FFF702FFE388A1791B0A0902AC
:10439C000B43181A42425041C0B210BDB0B500AF29
:1043AC00050000F0EBF86A46C31DDB08DB00D31AEE
:1043BC009D460200040069462800FFF769FE80B2A2
:1043CC00844203D00024BD462000B0BD684600F0F6
:1043DC00FFF804002800FFF70DFE8442F2D8F2E744
:1043EC0070B505000C001600002905D0320028001D
:1043FC002100FFF7DFFD70BD3D21024A0248FFF7A7
:10440C00B1FDF3E7D0610008E061000810B50400CD
:10441C00FEF778F82000FFF7D7FDFEF751F810BD36
:10442C0010B5FFF7D5FD10BD10B5FFF7D9FD10BDC8
:10443C00F8B5DE4657464E464546E0B500AF1E0081
:10444C0080468A46914600F099F86B46C41DE408F4
:10445C00E4001B1B9D460500801983B232005146B7
:10446C0068469B4600F0A8F8FEF74CF84046FFF76C
:10447C00B7FD002483450DD9FEF722F85B46E01A00
:10448C00BD4643425841C0B2F0BCBB46B246A946F9
:10449C00A046F8BD2A0069464046FFF7B3FD4B46DF
:1044AC0084B2002BE8D0320049464046FFF7AAFD03
:1044BC002418A4B2E0E7C046F8B5060008000F00C7
:1044CC0000F086F80500FEF71DF83000FFF788FDB8
:1044DC000024854206D9FDF7F3FF601B4342584187
:1044EC00C0B2F8BD2A0039003000FFF78BFD84B252
:1044FC00F1E7C046F8B54E464546DE465746E0B5B0
:10450C0000AF060089469046FFF748FF0025041EC1
:10451C0007D1BD462800F0BCBB46B246A946A04612
:10452C00F8BD6A46C31DDB08DB00D31AEA469D467C
:10453C00FDF7E8FF220069463000FFF7E1FD0600B9
:10454C00B6B2EB46FDF7BCFF002E01D1D546E0E735
:10455C00684600F03DF8844205D159464046C847AC
:10456C000125D546D5E72521024A0348FFF7FAFC79
:10457C00F3E7C046F8610008E06100080C207047C2
:10458C0010B5FEF7BFF802000B0003480260436051
:10459C0080235B02836010BD6822002010B5FEF7FB
:1045AC00B1F802000B0003480260436080239B02B9
:1045BC00836010BD5822002070B504000E00150059
:1045CC00FEF7A0F86681206061602581200070BD37
:1045DC0000890C3080B27047807A70470089704730
:1045EC000C30704710B5042A24D012D8012A15D0EB
:1045FC00022A1BD1052303700023441CC85CE05421
:10460C000133D8B29042F9D30220002A0AD180B2E9
:10461C0010BD082A0AD107230370EDE704230370A9
:10462C000B784370013AD0B20230F0E714230370D8
:10463C000120EDE706230370DEE7C046F0B5C64661
:10464C000E0000B5002917D0FF2305000024022717
:10465C00984601CDFEF768FA80B280459B415B42DB
:10466C000233C01801343F18E4B2BFB2A642F0D1F5
:10467C00380080BCB846F0BD0227F9E7F8B5DE4635
:10468C0057464E4645461623E0B583460370002A2E
:10469C0038D0013AD2B2920091460B1D0E00012780
:1046AC00994411E002220C2392462B7068700A3B4D
:1046BC00020454444146120CE8183F19043600F029
:1046CC00CDF8BFB2B14512D05B46DD193368180086
:1046DC009846FEF729FA84B2FF2CE3D90D23032266
:1046EC002B70230AAB70924603236870E0E7781CAA
:1046FC0080B25A461823D355F0BCBB46B246A946E5
:10470C00A046F8BD02200127F3E7C04607280DD9C3
:10471C00030004220C3B9343DBB2002B09D00D3871
:10472C009043C3B20020002B06D07047013188B2F1
:10473C00FBE7023188B2F8E7033188B2F5E7C046EF
:10474C00F8B5050016001C000D2909D80B291BD83B
:10475C000439032916D83100DAB2FFF743FFF8BD4C
:10476C00103901290ED8FF2B2AD81023447003705E
:10477C0002270220220031002818E41900F06EF8FC
:10478C00A0B2ECE70020EAE71000FEF7CDF984B206
:10479C00FF2C0FD90D232B70230AAB700327032397
:1047AC00687002043100120CE818E41900F056F895
:1047BC00A0B2D4E70C2302272B7068700A3BF0E7F9
:1047CC0011230370230A4470837003270320D1E75D
:1047DC0070B500260C4D0D4C641BA410A64209D1DB
:1047EC00002600F023FD0A4D0A4C641BA410A642BF
:1047FC0005D170BDB300EB5898470136EEE7B30016
:10480C00EB5898470136F2E75462000854620008EE
:10481C00546200085862000810B5034B0100186878
:10482C0000F09AF810BDC0460800002010B5034BEC
:10483C000100186800F024F810BDC04608000020E4
:10484C0030B500240139A24201D1002005E0035DFE
:10485C0001340D5DAB42F6D0581B30BD002310B5B2
:10486C009A4200D110BDCC5CC4540133F8E703006C
:10487C008218934200D1704719700133F9E7000098
:10488C0070B50500002910D00C1F2368002B00DA2E
:10489C00E418280000F070F91D4A1368002B05D1AC
:1048AC0063601460280000F06FF970BDA34208D952
:1048BC00216860188342F3D118685B684118216045
:1048CC00EEE71A005B68002B01D0A342F9D91168FE
:1048DC005018A0420BD1206809185018116083425F
:1048EC00E0D118685B68411811605360DAE7A042A8
:1048FC0002D90C232B60D5E721686018834203D1C1
:10490C0018685B684118216063605460CAE7C04650
:10491C007822002070B50F4E0D003168040000297C
:10492C0002D100F08FF830602900200000F08AF8E6
:10493C00431C0AD00323C51C9D43A84207D0291A47
:10494C00200000F07FF8431C01D101256D422800A6
:10495C0070BDC0467C220020F7B50322CB1C9343CC
:10496C00083306001F000C2B32D20C27B94231D869
:10497C00300000F001F9324D2B681C00002C2ED1B8
:10498C0039003000FFF7C6FF0400431C1ED12C6811
:10499C002500002D4AD123682900E318300001932B
:1049AC0000F050F8019B834243D123680337FF1A70
:1049BC0003239F4308370C2F00D20C2739003000FB
:1049CC00FFF7A8FF431C34D02368DF19276013E0DE
:1049DC00002BCBDA0C23002533602800FEBD2268A7
:1049EC00D11B20D40B2917D9E2192760A34211D16E
:1049FC002A606368116053603000250000F0C4F831
:104A0C0007220B35231D9543EA1A9D42E5D05B1B0B
:104A1C00A350E2E75A60ECE76268A34201D12A6036
:104A2C00EAE75A60E8E723006468A7E72C006D68A2
:104A3C00AFE70C233000336000F0A6F8CDE7C0469A
:104A4C0078220020002370B5064D040008002B606E
:104A5C0000F0DEFB431C03D12B68002B00D023603D
:104A6C0070BDC046802200200CB430B5174B0C0032
:104A7C001D689DB0002908DA8B2301202B60404271
:104A8C001DB030BC08BC02B0184782236A469B009C
:104A9C009382002302900690994200D04B1E0493FF
:104AAC00079301236A465B42D382280021AB209AEC
:104ABC0002A9019300F0D2F8431C01DA8B232B607E
:104ACC00002CDDD00023029A1370D9E708000020D7
:104ADC0003000A7801311A700133002AF9D17047AA
:104AEC00030030B51D00002A06D00C78013A0133C2
:104AFC002C700131002CF5D100219A18934200D171
:104B0C0030BD19700133F9E730B5140005001A00F7
:104B1C009BB0002C05DA8B230360012040421BB0B4
:104B2C0030BD822368469B00838100230091049151
:104B3C009C4200D0631E02930593012369465B429D
:104B4C00CB8128001E9B00F089F8431C01DA8B23D3
:104B5C002B60002CE3D00023009A1370DFE70000D9
:104B6C0007B5009313000A00010002480068FFF724
:104B7C00CBFF0EBD0800002010B5024800F0F0FA83
:104B8C0010BDC0468422002010B5024800F0E9FA9E
:104B9C0010BDC04684220020F0B58E6885B0070099
:104BAC000C00039201939E423CD890238A89DB002F
:104BBC001A4234D00969236860695B1A0293032393
:104BCC004343DD0FED18019B029801331B186D1048
:104BDC00AB4200D91D00530532D529003800FFF730
:104BEC00BBFE061E09D10C233B6040230120A28989
:104BFC0040421343A38105B0F0BD029A2169FFF72F
:104C0C002DFEA389144A1A4080231343A381029BCF
:104C1C002661F61826606561019EED1AA560019B60
:104C2C009E4200D9019E32000399206800F0A5FA3B
:104C3C00A36800209B1BA36023689E192660DAE7FB
:104C4C002A00380000F0ACFA061EE0D138002169C9
:104C5C00FFF716FEC7E7C0467FFBFFFFF0B5A1B01C
:104C6C0003901D008B890F0016001B0611D50B69D4
:104C7C00002B0ED14021FFF76FFE38603861002801
:104C8C0005D10C23039A0138136021B0F0BD4023E9
:104C9C007B61002308AC6361203363761033A37609
:104CAC00079535002B78002B01D0252B47D1AB1B5A
:104CBC000593B5420CD0320039000398FFF76CFF16
:104CCC00431C00D1AEE06269059B9446634463616A
:104CDC002B78002B00D1A5E0012200235242626008
:104CEC0004A9543252186E1C2360E360A360137045
:104CFC00A36505223178544800F034FA751C00285D
:104D0C001FD12268D30604D5532304A95B18202194
:104D1C001970130704D5532304A95B182B211970A0
:104D2C0033782A2B16D0350000210A20E3682A7824
:104D3C006E1C303A092A4ED9002911D117E00135E1
:104D4C00B0E7414B2268C01A0123834013432E0065
:104D5C002360CEE7079B191D1B680791002B01DB15
:104D6C000B9304E05B42E3600223134323602B7834
:104D7C002E2B0AD16B782A2B35D1079B02351A1DA5
:104D8C001B680792002B2BDB0993304E032230005B
:104D9C00297800F0E7F9002806D04023801B8340D7
:104DAC0022680135134323602978062228486E1C9B
:104DBC00217600F0D7F900283CD0264B002B25D1CA
:104DCC000722079B07339343083307936369049ABD
:104DDC009B18636165E74343350001219B18A6E7E7
:104DEC0001235B42D0E700230A201A0001356360DF
:104DFC0029786E1C3039092903D9002BC5D00992AA
:104E0C00C3E74243350001235218F1E707AB009387
:104E1C003A002100104B039800E000BF0490049B63
:104E2C000133D3D1BB890D985B0600D42DE701204B
:104E3C0040422AE707AB00933A002100064B039847
:104E4C0000F07CF8EAE7C046186200081E62000811
:104E5C002262000800000000A54B0008F7B5150001
:104E6C0001938A680B690C000090934200DA1300DE
:104E7C0022002B6043321278002A01D001332B60C0
:104E8C0023689B0602D52B6802332B60226806230D
:104E9C0017001F401A4227D0230043331B785A1E99
:104EAC0093412268920630D4220001990098089E02
:104EBC004332B047431C25D0062320682A68E1689A
:104ECC0000250340042B03D18D1AEB43DB171D4047
:104EDC00A3682269934201DD9B1AED180027BD429D
:104EEC0020D1002010E00137E3682A689B1ABB42EE
:104EFC00D2DD2200012301990098089E1932B04797
:104F0C00431CF0D101204042FEBD3020E11843315A
:104F1C00087021005A1C45310978A218433202331B
:104F2C001170C1E72200012301990098089E1A32E2
:104F3C00B047431CE6D00137D1E70000F0B58BB089
:104F4C0006920A0043320793059004920A7E0C00E5
:104F5C00109B782A07D8622A09D8002A00D1C1E010
:104F6C00582A00D18CE026004236327022E0100024
:104F7C0063381528F7D8FDF7DFFD16001F00F6FF84
:104F8C00F6FFF6FFF6FF1F00F6FFF6FFF6FFF6FF43
:104F9C00A80036009A00F6FFF6FFB900F6FF3600BF
:104FAC00F6FFF6FF9E0026001A684236111D1960A6
:104FBC00136833700123A7E0086819680A1D0506F9
:104FCC000BD50D681A60002D03DA2D23049A6D425F
:104FDC001370614B0A2703931BE00D681A6041069E
:104FEC00F1D52DB2EFE70D681968081D18602E0673
:104FFC0001D50D6803E06D06FBD50D68ADB2564BBF
:10500C00082703936F2A00D0023723000022433372
:10501C001A706368A360002B03DB042221689143A0
:10502C002160002D02D1049E002B0CD0049E280080
:10503C003900FDF711FE039B013E5B5C33702B00C6
:10504C0005009F42F3D9082F09D12368DB0706D549
:10505C0063682269934202DC3023013E3370049B67
:10506C009B1B2361079B210000930598069B09AAB3
:10507C00FFF7F4FE431C4CD1012040420BB0F0BDB5
:10508C0045310A70344A03921A68216820CA1A60A2
:10509C00080616D5CB0702D520231943216010270B
:1050AC00002DB2D1202322689A432260ADE7202242
:1050BC0009680A4322602200782145321170274A80
:1050CC00E1E74806E6D5ADB2E4E71A680D68101DB5
:1050DC004969186013682E0601D5196002E06D0647
:1050EC00FBD519800023049E2361BBE71A68111DB0
:1050FC001960166800213000626800F033F800284F
:10510C0001D0801B6060636823610023049A1370D4
:10511C00A8E72369320006990598079DA847431C08
:10512C00AAD023689B0715D4099BE0689842A5DA9E
:10513C001800A3E72200012306990598079E19324F
:10514C00B047431C98D00135E368099A9B1AAB42CF
:10515C00F0DCE9E70025F7E7296200083A6200086D
:10516C0070477047C9B28218904201D10020704735
:10517C0003788B42FBD00130F6E710B5884202D998
:10518C008B18984203D3002307E08B5C8354013ABD
:10519C00FBD210BDCC5CC45401339A42FAD1F8E76F
:1051AC00F7B507000E001400002905D11100FFF718
:1051BC00D3FB05002800FEBD002A03D1FFF760FBDE
:1051CC002500F7E700F01BF80190844203D8350066
:1051DC004308A342EED321003800FFF7BDFB051EA8
:1051EC00E8D0019B22009C4200D91A003100280013
:1051FC00FFF734FB31003800FFF742FBDAE70B1FF7
:10520C001B68181F002B01DA0B58C01870470000E0
:10521C00044A03001068002802D0C31813607047BA
:10522C000148FAE78822002090220020F8B5C046F9
:10523C00F8BC08BC9E467047F8B5C046F8BC08BC24
:04524C009E467047C3
:105250009614000896140008BE120008D812000820
:10526000FA1200087A130008201400087E140008BF
:1052700048140008601400088E1200082A1600085E
:105280009A160008741600083C160008B6160008A6
:105290006A19000854190008541900085419000824
:1052A000541900085419000854190008541900082A
:1052B000E21900085419000854190008B819000828
:1052C00030190008D21900085419000854190008B0
:1052D00054190008541900084E1900081C1A000837
:1052E0002A1A0008501A00081C1A00081C1A000884
:1052F0001C1A00081C1A00081C1A00081C1A0008B6
:105300001C1A00081C1A00081C1A00081C1A0008A5
:105310001C1A00081C1A00081C1A00081C1A000895
:105320001C1A00081C1A00081C1A00081C1A000885
:105330001C1A00081C1A00081C1A00081C1A000875
:105340001C1A00081C1A0008261A00081C1A00085B
:105350001C1A0008261A00081C1A00081C1A00084B
:105360001C1A00081C1A00081C1A00081C1A000845
:105370004C1A00081C1A00085E1A0008B81A000827
:10538000C21A0008E21A0008B81A0008B81A000881
:10539000B81A0008B81A0008B81A0008B81A0008A5
:1053A000B81A0008B81A0008B81A0008B81A000895
:1053B000B81A0008B81A0008B81A0008B81A000885
:1053C000B81A0008B81A0008B81A0008B81A000875
:1053D000B81A0008B81A0008B81A0008B81A000865
:1053E000B81A0008741B0008B81A0008B81A000898
:1053F000B81A0008F01A0008021B0008241B000855
:10540000B81A0008B81A0008B81A0008B81A000834
:10541000B81A0008B81A0008461B0008BC1C00088F
:10542000C61B0008C61B0008C61B0008C61B0008D8
:10543000C61B0008C61B0008C61B0008C61B0008C8
:10544000C61B0008BA1B0008BA1B0008BA1B0008DC
:10545000BA1B0008BA1B0008621C0008BA1B00082F
:10546000BA1B0008BA1B0008BA1B0008BA1B0008C8
:10547000BA1B0008BA1B0008BA1B0008BA1B0008B8
:10548000BA1B0008BA1B0008BA1B0008BA1B0008A8
:10549000BA1B0008BA1B0008BA1B0008BA1B000898
:1054A000BA1B0008BA1B0008BA1B0008BA1B000888
:1054B000BA1B0008BA1B0008BA1B0008BA1B000878
:1054C000BA1B0008BA1B0008BA1B0008BA1B000868
:1054D000BA1B0008BA1B0008BA1B0008BA1B000858
:1054E000A41C00086A1C0008BA1B0008F41B000872
:1054F000BA1B0008BA1B0008BA1B0008BA1B000838
:10550000BA1B0008BA1B0008BA1B00083A1C0008A6
:10551000BA1B0008501C0008BA1B0008BA1B000880
:10552000EC1C0008BA1B0008921C0008BA1B0008FB
:105530001C1C0008881C0008DE1C0008FE1F000858
:105540004C2000086C200008FE1F0008FE1F000809
:10555000FE1F0008FE1F0008FE1F0008FE1F0008B7
:10556000FE1F0008FE1F0008FE1F0008FE1F0008A7
:10557000FE1F0008FE1F0008FE1F0008FE1F000897
:10558000FE1F0008FE1F0008FE1F0008FE1F000887
:10559000FE1F0008FE1F0008FE1F0008FE1F000877
:1055A000FE1F000808200008FE1F0008FE1F00085C
:1055B000FE1F000808200008FE1F0008FE1F00084C
:1055C000FE1F00087A2000083C200008FA1F00088F
:1055D000FE1F0008FE1F0008EC1F00081A2100082B
:1055E000DE200008242100081A2100081A210008E2
:1055F0001A2100081A2100081A2100081A2100089F
:105600001A2100081A2100081A2100081A2100088E
:105610001A2100081A2100081A2100081A2100087E
:105620001A2100081A2100081A2100081A2100086E
:105630001A2100081A2100081A2100081A2100085E
:105640001A2100081A2100081A2100081A2100084E
:105650001A2100081A21000814210008142100084A
:105660001A21000870210008142100086C2100088C
:1056700014210008142100083A2100080E2900080E
:10568000E6280008E6280008E6280008E6280008C2
:10569000E6280008E6280008E6280008E6280008B2
:1056A000E6280008E6280008502A00089629000885
:1056B000E6280008E6280008E6280008E628000892
:1056C000E6280008E6280008E6280008E628000882
:1056D000E6280008E6280008E628000874290008E3
:1056E000E6280008E62800084E290008E6280008F9
:1056F0002E290008E6280008E62800080E290008E0
:105700006173736572745F6661696C656400000043
:1057100072784572726F7243616C6C6261636B0088
:1057200074784572726F7243616C6C6261636B0076
:1057300030313233343536373839414243444546C7
:1057400073746174654E6F7000000000737461744F
:10575000654E6F70000000004253505F646F4368F5
:10576000616E6E656C416374696F6E0073656E6423
:10577000537461747573526573706F6E7365000056
:105780004253505F74726967676572414443000019
:1057900068616E646C6552656164526571756573AC
:1057A000740000007374617465526561647900006F
:1057B000507573682074686520627574746F6E200C
:1057C000746F20706C6179206F72207061757365E1
:1057D000203A2D290A00000068616E646C655772DA
:1057E00069746552657175657374000068616E64F3
:1057F0006C65496E766F6B65526571756573740083
:1058000068616E646C655265717565737400000043
:1058100064697370617463684576656E7400000036
:10582000737461746543616E6F7079007374617431
:105830006550756C73696E67000000007374617465
:10584000655061757365640068616E646C65496E6E
:10585000636F6D696E674672616D65007374617424
:105860006549646C650000007374617465537472FB
:1058700065616D696E670000486172644661756CB0
:10588000745F48616E646C657200000073707572BD
:10589000696F75734952510054494D315F42524B03
:1058A0005F55505F5452475F434F4D5F49525148D7
:1058B000616E646C65720000444D41315F43686104
:1058C0006E6E656C315F49525148616E646C6572F1
:1058D00000000000000000000000000000000000C8
:1058E00000000000000000000000000000000000B8
:1058F00000000000010000000200000003000000A2
:10590000040000000600000007000000080000007E
:10591000090000004253505F7265676973746572D5
:1059200041707054696D657248616E646C65720097
:1059300050610008085A0008020018F6C800030069
:105940005C610008005A0008040050C32C010500E7
:1059500064610008F85900080400204EC8000500E2
:1059600070610008D4590008120030752800090041
:1059700078610008BC5900080C00401F88130B0018
:105980004253505F726567697374657250756C73CA
:105990006544656C656761746500000050617474EE
:1059A00065726E4974657261746F725F6368656376
:1059B0006B5061747465726E000000000102020198
:1059C0000102020104080804040808040102040892
:1059D000020108040102020504020A040408080581
:1059E00001080A01050A020105020204040A08046A
:1059F00005080801010A0A05010802040402080159
:105A00000102040802010804050A0A052573282575
:105A1000732C202575290A002573282575290A006D
:105A200053657474696E6720696E74656E7369740A
:105A30007920746F202568687525250A000000000C
:105A400053657474696E67205663617020746F20AB
:105A5000256875206D560A0053657474696E672059
:105A600070756C736520776964746820746F202585
:105A700068687520C2B5730A0000000028656C6371
:105A80006F6E5B305D202620656C636F6E5B315DF1
:105A900029203D3D203000007372632F73657175BE
:105AA000656E6365722E6300496E76616C69642071
:105AB00062757273740A00005465726D696E616C70
:105AC000000000005254540053454747455200001F
