:020000040800F2
:10000000009000203130000881300008851A000877
:1000100000000000000000000000000000000000E0
:100020000000000000000000000000008130000817
:10003000000000000000000081300008E11A000804
:1000400081300008813000088130000881300008CC
:10005000F11A00088130000881300008311E0008C4
:1000600081300008391F0008813000088130000805
:100070009D1E00080D1B00087D1B0008291C0008A0
:1000800081300008811E000881300008813000089E
:100090008130000881300008AD1C00088130000864
:1000A000813000088130000881300008813000086C
:0C00B000A51F0008813000088130000806
:1000BC0010B5064C2378002B07D1054B002B02D032
:1000CC00044800E000BF0123237010BD7000002025
:1000DC0000000000D4550008044B10B5002B03D0D1
:1000EC000349044800E000BF10BDC04600000000FA
:1000FC0074000020D4550008F0B50124C0238440BE
:10010C000B4D5B00EC500700830803203840FF27A1
:10011C00AC46C026C0008740890181409B006344E7
:10012C00B6009A59BA430A439A512C60F0BDC046A6
:10013C0000E100E0F0B5C64600B582B0070008A8A3
:10014C000088002484461848804605002E78BE425C
:10015C0007D001340C350A2CF8D102B080BCB8465B
:10016C00F0BD654660000419A4004444A0680093E7
:10017C000195130065680A003900A8476388012BB4
:10018C0004D0002BE9D0013B6380E6E7782143469D
:10019C005B5C013BDAB243465A5453009B189B00FC
:1001AC00434407CB07C4D8E78C00002070B50F4E32
:1001BC00002334002578854213D001330C340A2BEC
:1001CC00F8D17824335D0A2B0AD05D1C35555C00C0
:1001DC00E418A400331930550548996058605A80CA
:1001EC0070BD5800C3189B00F318F5E78C00002075
:1001FC00F5100008F0B501224F46D64646460B686E
:10020C0000249146C0B5002B1AD14BE01700574380
:10021C007B00DB19DB43C568AC4666460D691E40A6
:10022C007D433543C5604D68022D2DD07D4302685A
:10023C0013402B4303600B681A000134E24031D0A9
:10024C004D461A00A5402A402B42F5D04B68013B85
:10025C00012BDBD81700574383688D6898467B00C9
:10026C009C467D43BC44AA4646466546AE43350093
:10027C00564663462E438660CE6845685643954382
:10028C003543DB434560C6E7FF2A10D83D007D436C
:10029C00026A2E01761BB2434E6975432A430262F1
:1002AC004D68C3E7E0BCBA46B146A846F0BD120A99
:1002BC0052435243456A1601B61AB5434E6972430E
:1002CC002A4342624D68B1E710B511240200084878
:1002DC000B00016AA14301628020064980008862FC
:1002EC00DA38FF3888610449044803F04BFEFEE716
:1002FC00002C014000040050E45A0008045E000881
:10030C00FA2170B5124C05008900206802F0FEFB42
:10031C00802301385B04984201D3012070BDC021B9
:10032C000C4A090650600C48036A1B021B0A0B435B
:10033C0003620721002393601160032DEDD8026A3C
:10034C00A9071202120A0A43026218006560E5E767
:10035C000000002010E000E000ED00E010B50A0005
:10036C0002490348103103F00DFE10BDE45A000899
:10037C00105E000810B50A0002490348203103F052
:10038C0001FE10BDE45A0008105E000870B50C00A8
:10039C005026050082B01D4803F0F4FDF02366439F
:1003AC00EC54002E14D12B000122F03300920021CA
:1003BC0003320720FFF7BEFE610832340C19E4B299
:1003CC002100134803F0DEFDE435AC7102B070BDC2
:1003DC003100104803F0D6FD0F4B104ACC331E8071
:1003EC00331C964200D9131C0D4A9BB2934200D287
:1003FC0013000A4AD21A0B4B534380221201944623
:10040C00094A63441B0B5361CDE7C046185E0008D4
:10041C00505E0008385E00088C000020D3270000D6
:10042C00B20400004907000000740040F0B55746C4
:10043C004E464546DE468A46E0B5037A047B9B462B
:10044C005346A446447B4178A046C4784268A146F2
:10045C00457A00248678478989B00E2B01D90E2461
:10046C0004574B4605934346049363460694039303
:10047C0002975B4601960095044803F083FD09B092
:10048C00F0BCBB46B246A946A046F0BD745E00085F
:10049C0070B5374C030022000020CE321080D98872
:1004AC00344A0139D16219890139116350621169D9
:1004BC00063081431161197B002940D000200129AD
:1004CC0000D070BD5989043002318905090E916341
:1004DC00D1680143D160012026494A6902434A612F
:1004EC001A795B79110019430A1E234B39D040212C
:1004FC00D2439961D3B2024236D1204A9062022291
:10050C001E491A422BD08A6104221C491A4224D05B
:10051C008A611B071DD52022184B9A610023154DAB
:10052C0000226B63AB639433E0582621002303F065
:10053C0091FF01222B68012013432B60C1E75989DD
:10054C00043802318905090E5163D1680143D16029
:10055C00C1E72022094B9A62E0E78A62D9E78A62F6
:10056C00D2E740229A62FF230121044A9161C6E737
:10057C008C000020002C01400008005000040050AA
:10058C004B1E9941012310B5494299430022002387
:10059C000E3103F05FFF10BD70B5060014001D0096
:1005AC0082B080360092019332687368A41A9D4120
:1005BC00002D04D1074B9C4201D802B070BD08231A
:1005CC006A46142103F046FF009B019C3360746063
:1005DC00F3E7C046BFE1E400F0B50189030085B044
:1005EC000020002901D105B0F0BD9C7A18689E88C6
:1005FC001A79002C35D16C46817BDD795200491B70
:10060C00013921810121997241688D18895C217110
:10061C006D7865719A79920062814389C820E38074
:10062C008000824200D960810D422FD105220A4000
:10063C0051424A4122731F4A94461F4A63449BB25B
:10064C00934209D86389052B06D92389002B03D043
:10065C002000FFF71DFFC6E7184803F093FC0020AD
:10066C00C1E701320489D5B2AC420DD06A006C46A8
:10067C00DD790135EDB2DD712581877B013FBD420E
:10068C000CD000219972BFE70022F0E740210C4A00
:10069C000C4803F087FC2179E388C7E70025013675
:1006AC00B6B2DD719E800789B742EAD101399D80CF
:1006BC001981E6E778ECFFFF9CE00000105F000872
:1006CC00E05E0008FC5E0008032310B5104C114AD4
:1006DC0023616361104BA261E36180239B01236260
:1006EC000023A3626362E36222660C4A0C49603207
:1006FC0062661022E01DA2662367E366636704F05E
:10070C00B5FB2000074904F0B1FB2023A37110BDF9
:10071C00B0210020205F0008B00100200C01002057
:10072C002C5F0008305F0008F8B54746CE4680B510
:10073C008368C56899465B1B9846436804000E00A5
:10074C0017005819904507D9ED1904F055FAE560D2
:10075C00C0BCB946B046F8BD424604F04DFA4B4613
:10076C003100ED19ED1A2A006068414404F044FA96
:10077C00E560EDE7F0B557464E464546DE46E0B53A
:10078C00354B83B09A461B78060015000191002B5F
:10079C0056D07700BB19DB0053441A6F9046DA6EC3
:1007AC009146904525D8130042462C009B1A9D4239
:1007BC0009D8002C09D1200003B0F0BCBB46B246CE
:1007CC00A946A046F0BD1C1EF5D0A146BB19DB0006
:1007DC005344596E220041440198A04404F00CFA91
:1007EC004C46002CE7D04346BF19FF0057443B67EB
:1007FC00E1E742469B6E2C009B1A9D4227D8BB1901
:10080C00DB0053449B46596E22004144019804F08E
:10081C00F3F95B469B6EA0442D1B434519D04B4608
:10082C0042469B1A99464D450DD8002DD9D0019BB7
:10083C00A1469C46A44463462C000193A944C5E7F9
:10084C00FFF742FFA5E74D46002DCAD0EFE71C008D
:10085C00D5E700239846E6E7B0210020F8B55746C7
:10086C004E46DE4645468946411CE0B517004A0017
:10087C0052180300D2009246344A5E009346100090
:10088C00F618F6005E44F36A50449846012B0CD0DF
:10089C00022B27D0002B17D0002398464046F0BCE3
:1008AC00BB46B246A946A046F8BDB36A726A9342EB
:1008BC0047D9013B9B1AB8469F4200D998464246FD
:1008CC004946FFF731FFE9E7B36A726A934233D9BD
:1008DC00013B9B1A9F42E1D83A004946FFF724FF9F
:1008EC00B846DBE70023746A98461DE0013B356A85
:1008FC001B1BBB4200D93B002D1B9D4200D91D0088
:10090C005B46534458682A004946001904F074F9B0
:10091C00336A6419E31A5A1E93415B421C40A84483
:10092C00A9447F1B7462B9D0B36AA342DED8356A7E
:10093C005B19013B1B1BDCE7316A5B18013B9B1A03
:10094C00C8E7316A5B18013B9B1AB4E7B021002061
:10095C00F0B5C64600B5856843686A1C04009A4227
:10096C0007D8036859551500C36882600133C3600A
:10097C0043689D4202D080BCB846F0BD236827690D
:10098C0098460E4B1B78002B15D0EFF310860121E7
:10099C0081F310882A0041463800FFF75FFF86F389
:1009AC001088A368834203D001235B42E360E2E733
:1009BC000023A360DFE7FFF787FEE6E7B021002006
:1009CC00F0B54E4645465746DE46E0B583B09A46EE
:1009DC000C9B80460E0015009946914200D27DE09A
:1009EC0008000127290002F091F801378542F9D956
:1009FC00574500D2574601230D9A1A4001920D9A81
:100A0C0013424ED14B46002B4BD0130020249B0796
:100A1C005ED44F4545D201235B429C4621004046A3
:100A2C00E144FFF795FF4346DB68002B32DB4B4676
:100A3C00002BEED153460124012B07D901235B4235
:100A4C009C46E24453466C43012BF7D821003000FE
:100A5C0002F05CF88542F5D9214B9B4630239A462F
:100A6C0006E02900200002F051F8AC420FD304003C
:100A7C003000210002F0D0F8534658440E00C15CFF
:100A8C004046FFF765FF4346DB68002BE9DA019B24
:100A9C00002B19D103B0F0BCBB46B246A946A04608
:100AAC00F0BD4346DB68002BC4DAF3E74F45F1D2C7
:100ABC0001235B429C4620214046E144FFF748FF5E
:100ACC004346DB68002BE5DB4B46002BEED1E1E720
:100ADC0053465C425C41240120349AE7012787E7A6
:100AEC00E45A000810B5080003F06AFD034902003F
:100AFC004031034803F046FA002010BDE45A0008C8
:100B0C00385F000810B5080003F05AFD03490200D5
:100B1C004C31034803F036FA002010BDE45A0008AB
:100B2C005C5F000810B50400806F03F08FFC002898
:100B3C0001D1002010BD606F03F088FC0028F8D0B4
:100B4C00200003F083FCF5E770B5D02676008359BE
:100B5C0004009847051E1DD0A65903F013FD010093
:100B6C002000B047002805D03A210B4A0B48FF3132
:100B7C0003F018FAD0235B00E55003F0F5FC0100FC
:100B8C002000A847002805D09E21034A03484900AD
:100B9C0003F008FA70BDC046805F00088C5F000847
:100BAC0070B5DC26835904009847051E1CD0A65945
:100BBC0003F0E8FC01002000B047002805D04C21D0
:100BCC000A4A0B48FF3103F0EDF9DC23E55003F042
:100BDC00CBFC01002000A847002805D0A721034A20
:100BEC000348490003F0DEF970BDC046805F000881
:100BFC00A05F0008F8B505000E0072B6BFF34F8F6A
:100C0C00BFF36F8F284C2700C4373B78FF2B3CD0A9
:100C1C0022000133C4321370244B0122EF1831002F
:100C2C00380003F08DFA012804D0D021204A214845
:100C3C0003F0B8F9380003F0FDF9002810D02500B6
:100C4C00C4352B78002B19D0013BDBB2C434237094
:100C5C00002B04D1BFF34F8FBFF36F8F62B6F8BD7B
:100C6C00154BEA56012A18D025001449144858315E
:100C7C00C43503F087F92B78002BE5D1114A1249C2
:100C8C00124803F08FF92B78DEE7B321104A0F4896
:100C9C00890003F087F93B78BAE780210D4A136885
:100CAC008B431360CBE7C0468C000020641000001F
:100CBC00EC5F0008F85F0008D5140000E45A000847
:100CCC000860000824600008D3020000D85F000808
:100CDC00B05F000800440040F0B50C0085B0110076
:100CEC00060020001500FFF7A1FB00236A46D82759
:100CFC00D3720B332A002100F0596B4403F054FEDD
:100D0C0000280DD003A9F05903F032FE0423102261
:100D1C00009300210A2003ABFFF70CFA05B0F0BDDD
:100D2C006B460448D97A03F02DF929002000FFF70F
:100D3C007DFBF3E744600008F8B5224D0400435DE9
:100D4C005A1CD2B24255C3181F48844663441970CA
:100D5C00072A08D91C4BE618082A0DD01B4BE05A61
:100D6C000830824201D00020F8BD0022154B300023
:100D7C00E25403F011FBF7E7300003F0E9FA002826
:100D8C000BD0300003F014FB8023104F0100E05314
:100D9C009B00984210D8625DE2E7615D0139C9B2EF
:100DAC0061550029DFD0002372780133DBB2327039
:100DBC0001369942F8D1D6E7054803F0E3F8002351
:100DCC00E353D0E7D4140000CC120000D61400007A
:100DDC006060000870B584B00B0000920500002222
:100DEC00012102A803F044FA72B6BFF34F8FBFF390
:100DFC006F8F234C2600C4363378FF2B32D0220061
:100E0C000133C43213701F4B082202A9E81803F0F7
:100E1C0019F9002811D12500C4352B78002B1AD0D4
:100E2C00013BDBB2C4342370002B04D1BFF34F8FD2
:100E3C00BFF36F8F62B604B070BD134BEA56012A34
:100E4C0018D02500114912485831C43503F09AF8CE
:100E5C002B78002BE4D10F4A0F49104803F0A2F86D
:100E6C002B78DDE7B3210E4A0C48890003F09AF881
:100E7C003378C4E780210B4A13680B431360CAE72D
:100E8C008C00002064100000D5140000E45A000807
:100E9C000860000824600008D3020000D85F000836
:100EAC00B05F000800440040F0B50600C6461000D4
:100EBC001D00624B00B5F25C82B09401A418640072
:100ECC00A418A400043434190B00019500900421DB
:100EDC00200003F005FA083572B6BFF34F8FBFF34D
:100EEC006F8FC4239846564FB84443461B78FF2B4C
:100EFC003CD03A000133C4321370524B21002A000B
:100F0C00F01803F09FF8041E18D1C4239846B84477
:100F1C0043461B78002B21D03A00013BDBB2C43294
:100F2C001370002B04D1BFF34F8FBFF36F8F62B6DA
:100F3C00A54224D002B080BCB846F0BD424BF2565C
:100F4C00012A5ED041494248583103F01BF8C423B2
:100F5C009846B84443461B78002BDDD13D4A3E49A8
:100F6C003E4803F01FF843461B78D5E7B3213C4AB3
:100F7C003A48890003F016F843461B78B9E772B675
:100F8C00BFF34F8FBFF36F8F3C00C4342378FF2B1C
:100F9C004CD0390070205A1CC431D2B20A7031497D
:100FAC00314C496A255A89B221528D4207D9200009
:100FBC0070304188013189B24180002927D0002A44
:100FCC0029D0C4373B70002B04D1BFF34F8FBFF334
:100FDC006F8F62B6832189008C461848216F325C72
:100FEC00646F93019B185B009B189B00F318E4073C
:100FFC004908634421431960072301321A403254D3
:10100C0098E78021194A13680B4313607DE7616FE1
:10101C0001316167D3E70F4A0F49104802F0C2FF54
:10102C003B00C4331B78013BDBB2CAE7B3210C4A4B
:10103C000A48890002F0B6FF2378AAE7D81400000A
:10104C008C00002064100000D5140000E45A000845
:10105C000860000824600008D3020000D85F000874
:10106C00B05F0008004801400C0100200044004023
:10107C00B0B582B000AF05000C00FA71002A28D17F
:10108C000121042003F036FB03006A461333DB080E
:10109C00DB00D31A5A8821889A8000221A805A8041
:1010AC009D46A288D98001215A811981FA1D0123FC
:1010BC0003A8033103F038FBD422030052000C3395
:1010CC00A85801216A469BB2FFF7EEFEBD4602B05E
:1010DC00B0BD8B88024903486C3102F053FFCFE757
:1010EC00E45A000884600008F8B5DE4657464E46C0
:1010FC004546E0B51D00282300AFFB18914604CBF4
:10110C0006001B8888462800190093469A4603F06F
:10111C00F1FA6B461330C408E4001B1B5A889D4639
:10112C009A8000221A805A804A46DA8005221A8157
:10113C00424629005A8103A853465A4603F0F4FA52
:10114C00D422030052000C33B05801216A469BB2E2
:10115C00FFF7AAFEBD46F0BCBB46B246A946A04668
:10116C00F8BDC0460FB430B597B01AA920C92800F5
:10117C00019102F0FDFE2A0004005021019B02A8FF
:10118C0003F0BCFE002808DD94220749013083B22D
:10119C008858002102AAFFF787FE200017B030BC48
:1011AC0008BC04B01847C0460C01002070B50500FF
:1011BC0082B008000C0003F003FAC31FDBB20D2B46
:1011CC0003D827499B00CB589F4602002549264847
:1011DC0002F0D8FE02B070BD200003F0F5F90468EF
:1011EC002248210002F0CEFE022CF3D188230022EB
:1011FC00EA54EFE7002300221F21A86F03F02AF91D
:10120C00E8E7200003F0E0F903001A6900680433F2
:10121C0000920ECB02F0B6FEDCE7200003F0D4F90E
:10122C00002341680068124A01F010FE04003C21C2
:10123C00200001F0F1FC20000E003C2101F066FCC6
:10124C003C2101F0E9FC0D00E1212000090101F035
:10125C005DFC330001002A000648FFF783FFB9E765
:10126C00EC550008645B0008C8600008B460000816
:10127C0040420F009C60000870B504000D00174838
:10128C00096882B0FFF76EFFE4232600E550AB89B6
:10129C00E43633810023B380AB7B002B17D00023C3
:1012AC00F371B372E02610212000A551FFF76EF800
:1012BC00A3591C68200001F017FC80B20090230099
:1012CC000C2200210620FEF735FF02B070BD58211C
:1012DC00034A044802F066FEE1E7C046D860000805
:1012EC00EC600008FC5E0008F0B5D6464F4646465A
:1012FC00C0B5050084B008000C0003F061F9153886
:10130C00C0B2122836D8454A8300D3589F462000D5
:10131C0003F05AF98146200003F054F9404B414F39
:10132C001E00804638009A460024103601F0DCFB83
:10133C0040450AD00134A4B21036052C25D03768AC
:10134C00380001F0D1FB4045F4D142463900484603
:10135C0003F044FC0028EDD15346210110335918F9
:10136C002800FFF789FF002004B0E0BCBA46B14664
:10137C00A846F0BD200003F023F929490200603192
:10138C00294802F0FFFD0020EEE72848ECE720009A
:10139C0003F01AF9264A4388818802AC51435A4318
:1013AC00890B920B2180628000881204C3011B18E8
:1013BC001B011B1A9B0AA38009041B041B0C120C97
:1013CC00090C1C48FFF7CEFE0623032000931022C5
:1013DC0023000021FEF7AEFE0020C5E7164802F000
:1013EC00D1FD0020C0E7E023EB580D49002B12D0B3
:1013FC0010315B1A1B1101339BB2052BB0D01B01B2
:10140C00C918ADE7200003F0DFF801782800FEF7DB
:10141C00BDFF0020A8E72031A2E7C04624560008F3
:10142C00645B000804610008385F00084914000878
:10143C004DCE0000106100083861000870B5040042
:10144C0082B008000D0003F0BBF828280CD82F4BF5
:10145C0080001B589F46E423E3582D481968FFF77A
:10146C0081FE002002B070BD29002000FFF73CFF78
:10147C00F8E7E023E4262500E358E435A3519A89E4
:10148C002A810022AA809A7B002A37D00022EA7196
:10149C00AA7219681F48FFF765FE1F48E2E7D823B8
:1014AC00E05803F04FFA0028DBD11C48DAE71C495E
:1014BC001C486C3102F066FD0122F123E25423003A
:1014CC00082000920021F1330332FEF733FE002096
:1014DC00C8E7134914486C3102F054FD0020C1E7F1
:1014EC00280003F071F80600280003F06BF83100B7
:1014FC0002002000FFF7F0FB0020B3E758210B4A55
:10150C000B4802F04FFDA359C0E7C04670560008C7
:10151C008461000874610008E51600084115000894
:10152C00645B00084C61000860610008EC60000816
:10153C00FC5E0008F0B5C64600B5060088B0080091
:10154C000D0003F03DF8040028283BD8594A8300CD
:10155C00D3589F46584DE4222900584B0831783314
:10156C00B350574802F00EFD0422F1230127F25428
:10157C003300002108200097F133FEF7DBFD282310
:10158C0029005B421A0018314E489846802502F01B
:10159C00F9FC2923ED055B426B6343466B622B68B8
:1015AC003B432B60D82304AF3900F05803F054FAB6
:1015BC00002868D10024F223F454002008B080BC29
:1015CC00B846F0BD29003000FFF78EFEF6E7F22397
:1015DC00F35C002BF1D13C48F0E7D82704AC210098
:1015EC00F05903F039FA0025002835D1F2230020F8
:1015FC00F554E3E7304C80252100ED056A6A303163
:10160C00324802F0BFFC01222B6893432B60D82593
:10161C00705903F087F904A9705903F0A9F9042350
:10162C00102200210A20009304ABFEF783FD210059
:10163C002748083102F0A6FC0020BFE7280002F082
:10164C00C3FF0400280002F0BDFF2100020030009F
:10165C00FFF742FB0020B1E722001E4BD03323CA18
:10166C0023C3126801251A608022049BD2055363A0
:10167C00526A9B1AFA22D2009342B7DBA37B1D401D
:10168C000AD10125B2E7134BD03307CF07C33A6811
:10169C001A60049B6B638EE703A9F05903F068F999
:1016AC0004231022009300210A2003ABFEF742FD15
:1016BC009CE7C04614570008E45B0008645B000814
:1016CC004C61000894610008491400089C610008F2
:1016DC00606100088C00002030B5050083B0080064
:1016EC000C0002F06DFF282803D81D4A8000135807
:1016FC009F4621002800FFF7F7FD03B030BD1948C5
:10170C00FBE719491948483102F03CFCF12303224C
:10171C00EA542B00023A082000920021F1330332E4
:10172C00FEF708FD2800E430FEF756FF0020E4E742
:10173C000D490F48483102F025FC0020DDE7280058
:10174C00E430FEF749FF03000020002BD5D1E43331
:10175C00EB5808481968FFF705FD0748CDE7C04668
:10176C00B857000889170008E45B00084C610008B2
:10177C00606100088461000849140008F0B5D64681
:10178C004F464646C0B5050082B008000C0002F07A
:10179C0017FF282803D8424B80001B589F46210076
:1017AC002800FFF7A1FD02B0E0BCBA46B146A8463E
:1017BC00F0BD3C493C48583102F0E4FBF1230222D5
:1017CC00EA542B00013A082000920021F133033235
:1017DC00FEF7B0FC0020E6E732493448583102F0FD
:1017EC00D1FB0020DFE7E423EB5831481968FFF701
:1017FC00B9FC3048D7E7E023EB582F49002B4DD0EC
:10180C0010315B1A1B1101339BB2052B01D01B014C
:10181C00C9182800FFF730FD2848C4E7200002F063
:10182C00D3FE8146200002F0CDFE234B244F1E0038
:10183C00804638009A460024103601F055F9404590
:10184C000AD00134A4B21036052CE5D03768380024
:10185C0001F04AF94045F4D142463900484603F0BC
:10186C00BDF90028EDD15346210110335918D0E7AA
:10187C00EC23EB5A002B07D1E433EB5811481968D1
:10188C00FFF770FC0D488EE7E423EB580E481968FF
:10189C00FFF768FC002086E7064884E72031B8E7AC
:1018AC005C580008E45B00084C61000860610008AB
:1018BC00AC610008E5160008645B000849140008D8
:1018CC000461000884610008BC610008010030B5A7
:1018DC003039CBB283B0472B03D8584A9B00D3582E
:1018EC009F4601005648FFF73DFC03B030BD8B000E
:1018FC00C9189023802501AA490011705149524CF6
:10190C00C8588F3B222102F0A5FD6369AD002B4224
:10191C00EBD14E4802F036FBA561E6E79023494A2D
:10192C00D0586033C25C023A131C642A00DD82E09A
:10193C0019B201AA0A2912DB13702221012302F029
:10194C0089FDD2E790233F4AD0586033C25C023203
:10195C00131C642A00DD642301AA092BECDC0A2386
:10196C00EAE780223A49D203486903041340402233
:10197C00824313438B61B8E79023324A2021D0581D
:10198C000023002202F066FDAFE73248FFF7EAFBC6
:10199C00ABE78C242B4D002300220C21285902F09C
:1019AC0059FD002300220E21285902F053FD9CE71B
:1019BC0029492A48FFF7D6FB97E79023214A1D2196
:1019CC00D0580023002202F045FD8EE7244925481B
:1019DC00643102F0D7FA244A244993680B4004215D
:1019EC000B43936081E78025174CAD0063692B4254
:1019FC001CD10023134901AA13709033C85822211B
:101A0C008F3B02F027FD70E7942300210D4AD2583A
:101A1C00174BD15469E702230A4A01938A33D058F1
:101A2C000721883B01AA02F015FD5EE7114802F080
:101A3C00A9FAA562DDE764237AE7C04600590008DD
:101A4C004C6200080C0100200004005018620008D1
:101A5C0000080050CC610008306200083C620008AD
:101A6C00E45B00082C62000800240140E8FFFF7FC3
:101A7C00D914000004620008112110B50E4A0F4859
:101A8C00136A8B43136280220D4B92009A62DA3AEE
:101A9C00FF3A9A610B490C4B74315A6802F072FA96
:101AAC000A4C012321000A481C31237702F06AFA00
:101ABC00237F002BFCD110BD002C01406462000878
:101ACC0000040050E45B000800ED00E08C010020F5
:101ADC0074620008024A136A013313627047C046ED
:101AEC008C01002010B5EFF305820349034808313F
:101AFC0002F048FA10BDC046645C0008105E000895
:101B0C00012210B5144B19690A421ED0062019681F
:101B1C0091431960D9688143D960196901308143B7
:101B2C00196140210D4B99620D4B18399A610132A4
:101B3C009A6102329A611C329A619423094AD058F4
:101B4C000023002202F086FC10BD07491A691431EB
:101B5C00064802F017FAF7E7002C01400008005085
:101B6C00000400508C000020645C0008AC6200088B
:101B7C00022210B5234BD9680A4202D019690A42D5
:101B8C0020D1214904221F4BD868024202D0186987
:101B9C0002420DD10B00CE331A881A4B1B6B01334A
:101BAC009A4227D0174B19491A690A4215D110BD10
:101BBC00186990430A001861CE32138801339BB226
:101BCC001380E7E71969914319610F490A00CE3276
:101BDC00138801339BB21380D4E71B690C4819405E
:101BEC0002F0D0F9EFF305820A490B48083102F0F4
:101BFC00C9F9DCE794230022C8580023272102F0FE
:101C0C0029FCCFE7002C01408C000020E0FF0C00E9
:101C1C00AC620008645C0008105E0008802302219E
:101C2C0010B5DB051A69114221D01A6915488A438F
:101C3C001A610300DD331B78002B03D1D030FEF783
:101C4C0027FC10BD020010495B01CC3213801A1C1A
:101C5C008B4214D30D4B92B29A1A0D4B53438022E4
:101C6C00120194460B4A63441B0B5361E6E7EFF3F6
:101C7C00058209490948083102F084F9E1E70A1C98
:101C8C00E8E7C0468C000020B2040000D327000017
:101C9C004907000000740040645C0008105E0008F6
:101CAC000222F8B5364B19690A420FD101211A6983
:101CBC00114203D01A698A431A61F8BDEFF3058209
:101CCC0030493148083102F05DF9F6E719692F4CBB
:101CDC00914319618023E66FE75872B6BFF34F8FBB
:101CEC00BFF36F8F2500C4352B78FF2B3FD021001D
:101CFC007020274D5A1CC431D2B20A70295A8C4616
:101D0C001F49496A89B229528C450AD9280070307A
:101D1C004188013189B24180002902D1696F0131BA
:101D2C006967002A18D02200C4321370002B04D12A
:101D3C00BFF34F8FBFF36F8F62B66B6F2A6FD907EC
:101D4C0052080A435B083800B04784210C4A61589A
:101D5C00536B5B185363B0E70E4A0F490F4802F000
:101D6C0021F92300C4331B78013BDBB2DBE7B32141
:101D7C000B4A0A48890002F015F92B78B7E7C046E0
:101D8C0000480140645C0008105E00088C000020D4
:101D9C000C01002024600008D3020000D85F00086A
:101DAC00B05F000870B572B6BFF34F8FBFF36F8F83
:101DBC00084C2500C4352B78FF2B03D00133C434D9
:101DCC00237070BDB321044A0448890002F0EAF87C
:101DDC002B78F3E78C000020B05F0008D85F000878
:101DEC0070B50C4C2500C4352B78002B0BD0013B67
:101DFC00DBB2C4342370002B04D1BFF34F8FBFF37D
:101E0C006F8F62B670BD044A0449054802F0CAF8E7
:101E1C002B78ECE78C00002024600008D302000033
:101E2C00D85F0008102210B50E4BD9680A4211D1A8
:101E3C0019690A4207D1EFF305820B490B480831A7
:101E4C0002F0A0F810BD0A4800211A61883002F097
:101E5C00C5F8F7E706480121DA60883002F0BEF8D1
:101E6C00F0E7C04600180240645C0008105E0008F1
:101E7C008C00002010B5EFF30582034903480831AC
:101E8C0002F080F810BDC046645C0008105E0008CB
:101E9C00102210B51C4B19680A421AD1012219687C
:101EAC000A4211D1802219689201114222D10422D6
:101EBC0019680A4223D1082219680A420ED01A6006
:101ECC00124802F05FF803E011481A6002F05AF869
:101EDC0010BD1A600F4802F055F8F9E719680E4862
:101EEC0002F050F8EFF305820C490D48083102F06E
:101EFC0049F8EDE71A600B4802F044F8E8E71A607D
:101F0C00094802F03FF8E3E700240140FC620008B6
:101F1C00C8620008B862000808630008645C000826
:101F2C00105E0008D4620008F0620008022310B5AD
:101F3C00134C2268134218D108232268134208D18B
:101F4C00104922681048343102F01CF804236360F5
:101F5C0010BD0C49636034310C4802F013F80121B8
:101F6C000B4A13680B431360F2E76360094B94212F
:101F7C001A005858C63206237F3902F06BFAE7E78D
:101F8C0000000240645C0008246300081863000829
:101F9C00080002408C00002010B50E4BDA69920646
:101FAC0012D4DB691B0607D5B4220B4B0B4998588E
:101FBC00043A9B58984710BDEFF30582084909482D
:101FCC00083101F0DFFFF6E70348596A983002F058
:101FDC0005F8F0E7004400408C0000202844004045
:101FEC00645C0008105E000870B572B6BFF34F8FCA
:101FFC00BFF36F8F224C2500C4352B78FF2B37D0C5
:10200C00210070205A1CC431D2B20A701D491E4DD9
:10201C00496A2E5A89B229528E4207D9280070304B
:10202C004188013189B24180002911D0002A14D095
:10203C00C4342370002B04D1BFF34F8FBFF36F8FC9
:10204C0062B6696F286FCB0740081843490870BD0A
:10205C00696F01316967002AEAD10C4A0C490D48B5
:10206C0001F0A0FF2300C4331B78013BDBB2DFE798
:10207C00B321094A0748890001F094FF2B78BFE788
:10208C008C000020004801400C0100202460000856
:10209C00D3020000D85F0008B05F0008F0B5C64658
:1020AC0000B58A8888B005000C0002AF0A2A00D956
:1020BC00BCE064499300CB589F46D2235B00C258C6
:1020CC00CC3BD0583900248802F052FC0423102257
:1020DC00009321003B000A20FEF72CF8BD4606B009
:1020EC0080BCB846F0BD2688574C200000F0FCFCA4
:1020FC0080B201900C233200022128000094FEF7DC
:10210C00F3FFEBE7012201000320FEF74FF84F49E4
:10211C004F48643101F036FF4E4A4F4993680B40EB
:10212C0004210B439360D9E7FFF75EFF0823386067
:10213C00796022882179280001930097043BFEF7EF
:10214C00D3FFCBE7454B05213B60454B38007B600B
:10215C00444B6E46BB60444BFB60444B3B6102F00E
:10216C0061FA03000C339BB20733DB08DB00F31A74
:10217C009D4602AB984642465B88414693800023BD
:10218C00138053802388A288CB8005230B810933CD
:10219C006B449A803900052205A802F063FAD42218
:1021AC00030052000C33A858012142469BB2FEF7A3
:1021BC007BFEB54692E7D2235B00C258C43BD35892
:1021CC001C68200000F090FC80B2009023000C22D0
:1021DC0000210620FDF7AEFF80E7D22301225B0031
:1021EC00C358002100920720F0330332FDF7A2FF01
:1021FC0074E7D22301225B00C3580021009208200F
:10220C00F1330332FDF796FF68E726880400AD34FE
:10221C00FF34200000F068FC80B201900C233200E7
:10222C00092128000094FEF75FFF57E71049114879
:10223C00503101F0A7FE862221002800FEF718FF7E
:10224C004CE7C046205A000830620008E45B0008E6
:10225C002C62000800240140E8FFFF7F04610008A5
:10226C00346300083C6300084863000850630008AE
:10227C00645C000864630008F8B5050008000C00F5
:10228C0002F09EF9162843D00AD8012855D002280E
:10229C0049D186498648643101F074FE0020F8BDAE
:1022AC00182840D1200002F08FF9027A0400861D14
:1022BC00062A5ED013D8022A45D0032A4ED1B38801
:1022CC00C1887C4A7C4801F05DFE290030790022EF
:1022DC00FDF76CFF31002800FFF7E0FEDEE7082A6F
:1022EC003CD1C188754AB388734801F04BFEB28863
:1022FC00062A47D00A2A00D1A1E071492C31714835
:10230C0001F040FE862231002800FEF7B1FEC5E741
:10231C00D423664A5B00E858833B0021FF3B7032B4
:10232C00FEF7C2FDBAE7200002F04AF95F4902004D
:10233C006431654801F026FEB0E75C4963486431BE
:10234C0001F020FEAAE7C188B388614A5A4801F01F
:10235C0019FE31002800FFF7A1FE9FE758495D48A0
:10236C00403101F00FFE812231002800FEF780FE83
:10237C0094E7B288931F9BB2042B6ED8564A9B00ED
:10238C00D3589F46B3790C2B6AD000223100280019
:10239C00FEF76EFE82E7B3790C2BF6D1F3791F1C96
:1023AC00172B00D9172721002C00AD34FF34BFB2F6
:1023BC003A0020000E3102F01FFC0023EF19AD375C
:1023CC00FF3721003B70454801F0DCFDDDE7B379B8
:1023DC000C2BDAD19933FF33EF58F3790E34042BED
:1023EC0052D0052B22D01E2100230022380002F0EF
:1023FC0031F8CAE7B379042BC7D10200A133FF33FC
:10240C00E858A43B22210D32FF3B02F023F8BCE735
:10241C00B379102BB9D1D221020049006858823906
:10242C00F3790E32FF3902F015F8AEE72C4905228C
:10243C00200002F0D3FB1C210028D4D1D4E7B379BF
:10244C00092B18D0082BA0D19D33FF33E85800225C
:10245C000023252101F0FEFF97E7194918314EE7BB
:10246C00D2212200490068588439F3790E32FF39A1
:10247C0001F0F0FF89E79C33FF33E858002200237A
:10248C00242101F0E7FF80E704222000154902F027
:10249C00A5FB002808D004222000134902F09EFB63
:1024AC000028A0D11B219FE71D219DE7645C00083B
:1024BC009C63000804640008B863000814640008F6
:1024CC00E45C0008646300085C5F00088463000837
:1024DC00B06300081C6400084C5A0008EC63000848
:1024EC00E4630008DC6300083C640008F0B5DE46D9
:1024FC0057464E464546E0B583B0060002AF08008D
:10250C000C0001F049FF05002000012D4AD001F01C
:10251C0047FF8046200001F03BFF8246032D51D03F
:10252C00200001F045FF8146042D10D0280001F059
:10253C0091FE4B4601004246334801F023FDBD4657
:10254C0001B0F0BCBB46B246A946A046F0BD200087
:10255C0001F01EFF8146200001F030FF0500200035
:10256C0001F026FF4A460300002A20D1022802D19E
:10257C002A782F2A43D01A0069460C32D208D2008E
:10258C008A1AEB46954602AA91465C1D21004846E4
:10259C001E4A009502F036FC002801DD844224D846
:1025AC00DD4609E001F000FFFFF71EFDC7E72A003A
:1025BC001821306801F04EFF524641463000FEF7BC
:1025CC0009FCBCE74146124801F0DCFC524641468E
:1025DC003000FEF7FFFB51464B1E994100220023B1
:1025EC003068163101F036FFA9E79422094983B20D
:1025FC0088584A460021FEF757FCDD46DCE7687830
:10260C00FFF764F9D8E7C0467064000864640008FA
:10261C00446400080C01002070B5204D0400435D9B
:10262C00002B0ED10A2905D0C9B2FEF785FB032871
:10263C0018D070BD01220339FEF7CCFB0123635582
:10264C00F7E7C9B2FEF778FB0028F2D0144BE51877
:10265C00280001F0B5FE002813D029002000FFF758
:10266C0045FFE6E70E4BE518280001F0A9FE00280F
:10267C000DD029002000FFF739FF0122074BE2544F
:10268C00D7E708490848503101F07CFCD1E70549EF
:10269C000548503101F076FCEFE7C046D914000034
:1026AC00CC120000E45C0008A064000840890230F1
:1026BC008010C0B27047C0467047C04610B50B00C2
:1026CC00EFF31084012181F310881900FEF752F802
:1026DC0084F3108810BDC04610B582B0EFF310849F
:1026EC00012181F310886B460122D91D0020FEF7D1
:1026FC0041F884F31088012803D16B46D87902B0D5
:10270C0010BD01204042FAE710B5FDF7DDFF10BD0A
:10271C00F0B5DE464E4657464546E0B59BB00AAB93
:10272C0005934023069300230793089301330C0071
:10273C0091469B460290099005E005A8FEF708F922
:10274C000898002859DB2178013400295CD0252910
:10275C00F3D1220013780026022508201400213919
:10276C002D2B0CD02D2B0ED8232B11D02B2B00D096
:10277C005FE10E430132137814002D2BF2D15B462E
:10278C0001321E43F7E7302B05D12E430132F2E71D
:10279C0006430132EFE71A00303A0025092A0DD81A
:1027AC001A00AB005B1901345B009B182278303B9C
:1027BC001D001300303B092BF3D913002E2B00D135
:1027CC00D8E000272378042101E0637801341A0053
:1027DC008A43682AF9D0252B07D0583BDBB2202B33
:1027EC0007D8954A9B00D3589F46252105A8FEF78C
:1027FC00AFF8089801340028A5DA1BB0F0BCBB4632
:10280C00B246A946A046F0BD08980028F5DD079C05
:10281C00002C00D0C6E00019EFE74B4649461B6878
:10282C0005A81A1D0A60196810223B000196009534
:10283C00FEF7C6F801340898DDE74B4649461B689D
:10284C0005A81A1D0A6019680A223B00019600951A
:10285C00FEF7B6F801340898CDE74B4649461B689D
:10286C001A1D0A601D6805E005A8FEF771F80898A6
:10287C000028BFDB297801350029F5D10898B9E784
:10288C004B4649461B6805A81A1D0A6019680023A7
:10289C000193083310220093FEF792F80134089844
:1028AC00A9E74B4649461B681A1D0A601B68DA17D4
:1028BC0098180393012350409A4609280DDDAA4627
:1028CC00A0461D000A210400013500F0D5F9632C47
:1028DC00F8DC2B00444655469A46B846574575D306
:1028EC00002D36D0039B002B74DB730772D4B30717
:1028FC0001D5002F2DD05B4633422AD1002D28D094
:10290C004346A0461C00AC4220D205A82021FEF76D
:10291C001FF80898013D002800DA87E0002DF2D15D
:10292C00230044469846039B002B58DB730761D465
:10293C0003233340022B62D005A83B000A220399E3
:10294C0001960095FEF73CF8089853E7230044469F
:10295C00984608980028E6DA01344CE74B4649467D
:10296C001B6805A81A1D0A601978FDF7F1FF0134E0
:10297C00089840E76378621C19003039140000276E
:10298C00092900D91FE71A00BB00DB1901345B00D1
:10299C009B182278303B1F001300303B092BF3D9D6
:1029AC00130010E7254B1B78002B15D0EFF3108587
:1029BC00012181F31088220002980AA9FDF74EFF2D
:1029CC0085F310880898079C001916E7D046002D4F
:1029DC00BFD087E7013D8AE7FDF776FEE6E75B426D
:1029EC002D2105A80393FDF7B3FF089800289FDA63
:1029FC00013400E72B2105A8FDF7AAFFF5E7002F0E
:102A0C009AD10AE0A8450CD205A83021FDF7A0FF09
:102A1C000898013D002800DAECE6002DF2D10025E3
:102A2C008AE70898002887DA0134E4E64446013442
:102A3C00E1E60025C5E6C046605A0008B02100203A
:102A4C001020704740687047837807201840704703
:102A5C0003005A6808000A601A7A0A715A7A4A7195
:102A6C00072299780A40FA2102731A7B4A43C280E2
:102A7C00DA78920042815A8902815B7B437300238E
:102A8C0083737047030010000E2908D90E229A5642
:102A9C0002700F2906D0DB7B5BB2437070470023BA
:102AAC001370FAE70023F8E7002243898A569B1833
:102ABC00C822920093420FDD1300012243818A56F3
:102ACC00C3889B18064A934200DD1300054A9342C3
:102ADC0000DA1300C3807047062BEEDA0623ECE70E
:102AEC0024F40000881300000023C25C0133002A88
:102AFC00FBD1581E7047000003B4714649084000D2
:102B0C004900095E49008E4403BC7047002243080B
:102B1C008B4274D303098B425FD3030A8B4244D399
:102B2C00030B8B4228D3030C8B420DD3FF220902DB
:102B3C0012BA030C8B4202D31212090265D0030B9A
:102B4C008B4219D300E0090AC30B8B4201D3CB0390
:102B5C00C01A5241830B8B4201D38B03C01A5241D2
:102B6C00430B8B4201D34B03C01A5241030B8B42D4
:102B7C0001D30B03C01A5241C30A8B4201D3CB02BF
:102B8C00C01A5241830A8B4201D38B02C01A5241A4
:102B9C00430A8B4201D34B02C01A5241030A8B42A7
:102BAC0001D30B02C01A5241CDD2C3098B4201D3BF
:102BBC00CB01C01A524183098B4201D38B01C01A3D
:102BCC00524143098B4201D34B01C01A52410309B4
:102BDC008B4201D30B01C01A5241C3088B4201D363
:102BEC00CB00C01A524183088B4201D38B00C01A10
:102BFC00524143088B4201D34B00C01A5241411A37
:102C0C0000D20146524110467047FFE701B5002043
:102C1C0000F006F802BDC0460029F7D076E77047F1
:102C2C007047C04610B5002903D100F007F82030DA
:102C3C0002E0080000F002F810BDC0461C21012380
:102C4C001B04984201D3000C10391B0A984201D383
:102C5C00000A08391B09984201D30009043902A261
:102C6C00105C40187047C0460403020201010101C8
:102C7C00000000000000000003460B437FD400223C
:102C8C0043088B4274D303098B425FD3030A8B42F4
:102C9C0044D3030B8B4228D3030C8B420DD3FF225E
:102CAC00090212BA030C8B4202D31212090265D02C
:102CBC00030B8B4219D300E0090AC30B8B4201D3DF
:102CCC00CB03C01A5241830B8B4201D38B03C01A26
:102CDC005241430B8B4201D34B03C01A5241030B9D
:102CEC008B4201D30B03C01A5241C30A8B4201D34E
:102CFC00CB02C01A5241830A8B4201D38B02C01AF9
:102D0C005241430A8B4201D34B02C01A5241030A6F
:102D1C008B4201D30B02C01A5241CDD2C3098B4254
:102D2C0001D3CB01C01A524183098B4201D38B01D1
:102D3C00C01A524143098B4201D34B01C01A524174
:102D4C0003098B4201D30B01C01A5241C3088B42B9
:102D5C0001D3CB00C01A524183088B4201D38B00A4
:102D6C00C01A524143088B4201D34B00C01A524146
:102D7C00411A00D201465241104670475DE0CA0F1D
:102D8C0000D04942031000D34042534000229C46DD
:102D9C0003098B422DD3030A8B4212D3FC228901E7
:102DAC0012BA030A8B420CD3890192118B4208D3BD
:102DBC00890192118B4204D389013AD0921100E01F
:102DCC008909C3098B4201D3CB01C01A5241830933
:102DDC008B4201D38B01C01A524143098B4201D360
:102DEC004B01C01A524103098B4201D30B01C01A8B
:102DFC005241C3088B4201D3CB00C01A5241830805
:102E0C008B4201D38B00C01A5241D9D243088B425A
:102E1C0001D34B00C01A5241411A00D201466346FD
:102E2C0052415B10104601D34042002B00D5494261
:102E3C00704763465B1000D3404201B50020FFF79A
:102E4C00EFFE02BD0029F8D016E77047002B11D118
:102E5C00002A0FD1002900D1002802D00021C9433B
:102E6C00080007B4024802A14018029003BDC046F6
:102E7C00B1FDFFFF03B4684601B5029800F006F8F7
:102E8C00019B9E4602B00CBC7047C046F0B557463D
:102E9C004E464546DE46E0B504000D009246994686
:102EAC0083B08B4230D82DD049465046FFF7BAFE3E
:102EBC00290006002000FFF7B5FE331A9846203B88
:102ECC009B4633D45A465346934042461F005346C2
:102EDC0093401E00AF423AD8AF4200D178E05B4637
:102EEC00A41BBD41002B00DA75E0002200230092E8
:102EFC00019301235A469340019301234246934088
:102F0C00009328E08242CFD9002200230092019343
:102F1C000C9B002B01D01C605D600098019903B0E4
:102F2C00F0BCBB46B246A946A046F0BD42462023A3
:102F3C009B1A5246DA40414613004A468A40170013
:102F4C0042461F43534693401E00AF42C4D9002251
:102F5C000023009201934346002BD9D0FB07720843
:102F6C001A4346467B080EE0AB4201D1A2420CD874
:102F7C00A41A9D41012024196D410021013E241801
:102F8C004D41002E06D0AB42EED9013E24196D41C5
:102F9C00002EF8D1009801995B4600196941002B6D
:102FAC0024DB2B005A464446D3402A00E2401C0046
:102FBC005B461500002B2ADB26009E4033002600C2
:102FCC004746BE403200801A9941009001919FE71C
:102FDC00A342BCD883E74246202300219B1A00223F
:102FEC00009101920122DA40019286E742462023A9
:102FFC009B1A2A0046469A402300F340444613434A
:10300C002A00E2401C005B461500002BD4DA424635
:10301C002F002023260097409B1ADE403B003343B1
:10302C00CDE7C0460D488546FFF746FB0C480D49D9
:10303C000D4A002302E0D458C4500433C4188C4207
:10304C00F9D30A4A0A4C002301E013600432A2426D
:10305C00FBD301F08BFD00F00FF8FEE70090002091
:10306C00000000206C000020E066000870000020CA
:10307C008C220020FEE70000F0B5DE4657464E4697
:10308C004546E0B5B9B000F06FFF9149914800F0AA
:10309C0079FF0722904B00215A63A0240D3215A80A
:1030AC0001F0B3FD0223E405189320000E3314A99C
:1030BC001493FDF79FF8149A236913409A4206D192
:1030CC00864B1B6883F30888854B1B689847032342
:1030DC00A0269A4615930023F605984630001893BF
:1030EC0014A943331493FDF785F82023300014A959
:1030FC0014938025FDF77EF843460127794C1793EE
:10310C00AD000233200015971693149514A9A562EF
:10311C009946FDF76FF840237348149314A9836103
:10312C00FDF768F8272320001797149314A9A361BF
:10313C00FDF760F84B46159319934346C02417933B
:10314C005346A400169314943000B46214A9FDF7EE
:10315C0051F80C23300014A919971493FDF74AF871
:10316C0080215D4B09065A6D0120920092080A439A
:10317C005A655E4ADA635E4A1A649A6B17439F6318
:10318C005C4B1A6814431C605B4CFDF7B9F8236860
:10319C005A4A5B4913401D4325605A4D2B68580011
:1031AC00C0184000FFF7B2FC80226369D2000130E6
:1031BC00134202D105E0002803D0636901381342A1
:1031CC00F9D180214C4A490013680B4313601368F2
:1031DC000B42FCD00221404A4B4BD365D36D1942B4
:1031EC00FCD0382391680B40D168102B01D100F032
:1031FC002FFC002B01D000F02FFC136843495368BF
:10320C0019408023DB010B435360136840490B408A
:10321C00136013683F4A9B045B0FDA402A606868AE
:10322C00FDF76EF83C4A002832D138202A498B68C9
:10323C000340102B01D100F0C6FD0B68374803404A
:10324C0080200B60146A800403E0136A1B1B022BA2
:10325C001ED80B680342F8D1CB6831481840314B6B
:10326C000343CB60802308685B0403430B6080231B
:10327C00C8685B050343CB608021146A1648890437
:10328C0003E0136A1B1B022B02D803680B42F8D015
:10329C00062318490868184201D100F0DBFCE02332
:1032AC000D49DB01886803438B608B681E48034023
:1032BC008B600B689B016AD507208B681B4C834382
:1032CC001800022303438B603820166A34E0C04692
:1032DC0030620008B0640008001002400000FF1FBC
:1032EC000400FF1F000400500008005003000230CF
:1032FC00010816000020024000700040FFF9FFFF9B
:10330C0040420F000000002009800000FF80FFFFFA
:10331C00FFC7FFFF0024F4008C010020FFFFFFFE1D
:10332C008C80C11132301646FFF0FFFF881300006D
:10333C00136A9B1BA3422AD88B680340102BF7D12E
:10334C000720F4490B680340022B01D900F0DFFC85
:10335C00F14BF2499A680A409A60382299681142F6
:10336C0001D000F0BDFC1B68ED489B045B0FD840FE
:10337C00E94BEC4A9B681B051B0F9B00D3181F22C3
:10338C005B6E1340D84028606868FCF7B9FFE64ACA
:10339C00E6491368E6480B401360E64B2A68196847
:1033AC000905090D00F0EEFDE34B1A68D20307D4B2
:1033BC001A68E2490A401A60DA6BE1490A40DA639A
:1033CC008023DD4A5B02116801240B4313603F220A
:1033DC00DC4909200B6893431A00052313430B6047
:1033EC00D94BDA491A681140D94A0A43D9491A60AB
:1033FC0099600321D84A9346C632DA605A68120C97
:10340C0012040A435A60D54A5460022219680A43CE
:10341C001A60082219680A431A601A6821002243AC
:10342C001A60FCF769FECE4B9A68224207D1DA6823
:10343C00CC490A40DA601A69920092081A6180211C
:10344C00C74B8903DA680A43DA6080229201196853
:10345C001142FCD007211A605A698A4311000222DA
:10346C000A4370215A615A698A43110050220A4357
:10347C000F215A619A6A8A439A625A69AB490A4087
:10348C005A619A6AF231FF318A43110010220A43C1
:10349C0080219A625A6989000A435A619A6AB24930
:1034AC001140C022D2000A4380219A625A69C90194
:1034BC000A435A619A68AD491140802252050A4369
:1034CC009A60AB492868FFF721FB14234343079309
:1034DC00079B002B05D0079B013B0793079B002BF9
:1034EC00F9D19F4BA3499A681140802212060A43D6
:1034FC009A609A68002AFCDB802212011A60202351
:10350C000793079B002B05D0079B013B0793079B59
:10351C00002BF9D18023924C9B0522690321134384
:10352C00236111230C206360FCF7E6FD0121E368A5
:10353C00E368A3680B4200D16CE38F4800F022FDD6
:10354C000124874B8D491A6914A8A2431A611A6980
:10355C000A401A619A6887490A4022439A605B467E
:10356C006422C53318A91C7000F05AFFE2204000F9
:10357C0001F020FBC822010052001031060000F0BF
:10358C004FFFD0237E4A5B00F250F420319601F0BD
:10359C0011FB0100C8221031060000F041FF14207D
:1035AC0001F098F9D8230022F050002338213492EE
:1035BC003593882306AA5218724932962431D45472
:1035CC00714800F0DFFC5A46704B14A9D367802376
:1035DC00D150FA2259460433D2002868CA506C499B
:1035EC00FFF794FA02216B4B6B4A013898625A63CD
:1035FC00DA6816200A43DA605A69002622435A61B7
:10360C001C60FCF779FD654801F0D4FA644B0100AD
:10361C009C46644B614496229C46040002909200A6
:10362C00604400F0E7FCFF225F4B06A9E254DC2368
:10363C00329C5E4A11A8E2505D4BA0461A6811926A
:10364C009A880A860A0032219B7952181370FFF768
:10365C004BFA1022944683B29946564B63449A46D1
:10366C0053463401E7583800FFF73EFA814500D144
:10367C001DE20136052EF3D144460023E02200263C
:10368C00A350F0239427E6525B462868DC51384956
:10369C00FFF73CFA484B494A013898629A6111226B
:1036AC001A62103A90465A6083321A604246DA60C7
:1036BC00882212025A6431000D20FCF71DFD3100E6
:1036CC000E20FCF719FD28682949FFF71FFA802303
:1036DC001022DB050138986299690F200A439A6120
:1036EC000222D9680A434146DA605A690A435A6190
:1036FC003100FCF701FD319B172298464046329B66
:10370C00AD3099462E49FF3001F0B8FBD22342462A
:10371C0058E0C0460020024000100240FF8FFFFF1F
:10372C000024F400E45C000800700040FFFEFFFF82
:10373C00C46400080058014000740040FFFF03FF00
:10374C00FFFFF8FF00080240080002400F80FFFF57
:10375C00A0250000402401408C0000200000024005
:10376C0000240140C73FFFFFFFF0FFFFE8FFFF6FA2
:10377C0040420F00E8FFFF7FE4640008FFFFFFDF1B
:10378C00110B0008645D00082C620008A5050008F8
:10379C0080841E0000480140400D0300DC14000032
:1037AC007410000064100000D5140000F10A000829
:1037BC0034630008645B0008002C0140686800005A
:1037CC000065000849465B00D1504146029A04331B
:1037DC00CA50329BBD4998468C23CA51402214A82A
:1037EC00C850404694460433C850B94BB94C99461E
:1037FC00B94B103463449A462168B84800F0C2FBB8
:10380C002089636800280ED0002204E0013292B2B5
:10381C000233904207D019785F780F42F6D05146A8
:10382C00484600F0AFFB0136F6B21034052EE3D15A
:10383C004146F2230022CA54A94A163BCA5000F052
:10384C0093FEA84C01004046FDF7F8FD10214046C0
:10385C00FCF79CFDFC366369FF36334203D1A2486A
:10386C0000F090FBA661A14914AA08A800F0B0FBD7
:10387C005B46883316C816C3842010229C4B1958FB
:10388C009143195004381958114319501968793853
:10389C001143196059680A435A600321FCF72CFC48
:1038AC00D023319E934A5B00F25000F05DFE010084
:1038BC003000FEF7E1FCD4235B00F4588E4BE35C44
:1038CC007F2B00D8B7E18D4B04938D4B05930023D0
:1038DC008C4A2660A3548C4AA3528C4A8C4B516D53
:1038EC000B4353658B238B49CB600A688A4B13437C
:1038FC000B60C5235B4498461B78012B00D9DDE295
:10390C0002211C20FCF7F8FB434641461B785A1C4D
:10391C000A70794A5BB29046A354002B00DA94E10A
:10392C000BAB220018007D499A4600F051FB0EAB00
:10393C00180022007A4900F04BFB2200794911A8AB
:10394C0000F046FB4346E356012B00D1F3E16A4BF2
:10395C00E256754B1F000393744B5837180039000F
:10396C00994600F00FFB644BE2569846012A00D1B1
:10397C000EE23900484600F005FB4346E256012AA8
:10398C0000D105E23900484600F0FCFAD4230021AE
:10399C005B00F258664B6748D154674988247031F4
:1039AC0000F0F0FA654B664E9A46664B9846382204
:1039BC0006AB9B181B5D002B00D1CBE0329B31007A
:1039CC001A001800019300F089FD0028EFD1319BFB
:1039DC0051461A001800019300F080FD0028E6D132
:1039EC0014AA4146100000F079FD071EDFD1012119
:1039FC0011A800F0E1FA002800D05AE172B6BFF32A
:103A0C004F8FBFF36F8F5B46C4331B78FF2B00D1F6
:103A1C00C4E15A46C432137832980133137000F063
:103A2C0015FD002800D02AE15B46C4331B78002B1F
:103A3C0000D14FE15A46C4321378013BDBB213700C
:103A4C00002BB4D1BFF34F8FBFF36F8F62B6AEE7CD
:103A5C000D3B1940022920D02C493B4A0B68802091
:103A6C0013400B6080230A685B001343374A0B60DA
:103A7C00146AC00005E0136A1B1B022B01D9FFF767
:103A8C0007FC0B680342F6D04B6831481840802382
:103A9C00DB0103434B60FFF7C8FB13682C495368E9
:103AAC0019408023DB010B435360FFF7B8FB4A46F8
:103ABC00390011A801F092F8002800D0D9E52300B4
:103ACC004446984653464344D8E5C0460C01002072
:103ADC0028650008645B0008645D00081865000830
:103AEC004914000800040050186200088D050008F5
:103AFC000018024085220008D5140000406500081B
:103B0C00F85F0008D4140000D81400000010024024
:103B1C0008000C000044004001000020252600088D
:103B2C006903000881030008E45A000808600008D3
:103B3C00D914000088650008645C0008550B000867
:103B4C00AD0B0008B9110008FFC7FFFF8C01002066
:103B5C00FF80FFFFD025319C6D00665900F012FDEF
:103B6C0001002000B047DD4BDD48635100F00AFA3C
:103B7C00D4235B00E458DB4BE256012A04D00399B2
:103B8C004846583100F0FEF9FF228026D54BD64D21
:103B9C00E2546B69B600329C334203D0D34800F038
:103BAC00F1F9AE62DC25665900F0ECFC0100200056
:103BBC00B047CF4B029A6351CA4BD35C7F2B05D8CD
:103BCC009821049A0598490000F0ECF9029800F04D
:103BDC00FBFFD823329CE05800F0BCFF200000F023
:103BEC00F3FF319800F0F0FF72B6C24800F0CAF94A
:103BFC0000F0ECF91121C04A136A8B431362802246
:103C0C00B94B92009A62DA3AFF3A9A61BB4B19327D
:103C1C009A62FEE7E368BA4AE3681A40B94B134369
:103C2C00E360E3689B0200D48AE4F023A26A1B02DF
:103C3C001343A36284E40A21B34BB44A1800FF3146
:103C4C000492059300F0AEF941E6B14B0393B14BEE
:103C5C0099469BE6072002230C68844323430B60A0
:103C6C00166AAD4C05E0136A9B1BA34201D9FFF702
:103C7C008EFB0B680340022BF5D1FFF710FB31983C
:103C8C0000F0E4FB002800D1CEE614A800F0DEFB27
:103C9C00002800D1C8E68022A04F92007B69134215
:103CAC0000D0EAE004219E4A13698B43136130BFB4
:103CBC00BAE62C2206AB9B1818789A4B01909833D5
:103CCC0019784C32002970D12F2800D07EE0773A39
:103CDC001A7093E6944A9549954800F063F9A9E661
:103CEC0099681140082900D1DDE09968114010292C
:103CFC0000D188E099681140202900D1D6E09B685A
:103D0C001A40182A00D1D5E00020FFF731FB02231E
:103D1C000C68844323430B60166A7F4C05E0136ADE
:103D2C009B1BA34201D9FFF732FB0B680340022B0C
:103D3C00F5D1FFF70DFB5B465246983383CA83C31C
:103D4C005B46A43383CA83C304237A490A681343AA
:103D5C000B604346E356012B00D0F8E55A46594612
:103D6C00B333D450744A043BCA505B4611AAB833DF
:103D7C0083CA83C308236F490A6813430B60434605
:103D8C00E256634B0393634B9946012A00D0E0E55E
:103D9C002023684A11680B431360F7E5B321674A87
:103DAC006348890000F0FEF833E6019B0A2B41D0F2
:103DBC00634800F0E7F80198FDF788FD0022594BA5
:103DCC0098331A701AE6CB68FFF762FA5548554FCC
:103DDC0099300378FF18B95401990A2909D0013395
:103DEC00DBB20370B954142B00D007E6544800F032
:103DFC00C9F84C495348783100F0C4F80022494BBB
:103E0C0099331A70FAE5DA68D968D243D86849064A
:103E1C00490F40040131440E92075AD04A48FEF72C
:103E2C0075FE6043494BD968490F0131FEF76EFEB0
:103E3C00FFF79EFA464B464819784B1CDBB20370D1
:103E4C00384884462F2061448854142B08D13C48B0
:103E5C0000F098F83F493B4800F094F83C4B1F7039
:103E6C000022304F2F4999373B787831CA54354866
:103E7C0000F088F800223A70A0E706202B6836493B
:103E8C005843FEF743FE3B68344A013013403B6015
:103E9C0003E0002800D1C7E5013880227B6992003D
:103EAC001342F6D1FEE62E48FFF762FA802000029C
:103EBC00FFF75EFAFA20C001FFF75AFA294800F022
:103ECC0061F8FF22074BE254114B0393114B9946B7
:103EDC005CE52348FEF71AFE6043A3E7110B0008CC
:103EEC00AC650008D5140000000400500462000802
:103EFC00F10A0008BC650008002C014000080050C5
:103F0C003CC2FEFF03100000F85F0008406500088B
:103F1C00E45A000808600008881300000070004094
:103F2C0000ED00E00C01002024600008D30200002A
:103F3C00D85F000800440040010C0008B05F000886
:103F4C00C06500089C6500080024F40000100240C5
:103F5C00A50100208401002040420F00FFBFFFFF9D
:103F6C0000127A005465000810B5FEF7CDFB10BDA9
:103F7C0000B583B0019101AA01000020FEF7C8FB37
:103F8C0003B000BD0FB400B583B004AB02CB01AAE3
:103F9C00002000930193FEF7BBFB03B008BC04B0F8
:103FAC001847C046130010B50A0001000148FFF77E
:103FBC00E9FFFEE7D06500080A0010B501000020FB
:103FCC00FEF77CFBC343DB17184010BD7047C0469F
:103FDC0000238360426001607047C04610B50368DF
:103FEC000400002B04D040689847A3680133A360F9
:103FFC0010BDC04601604B1E99410023494211403F
:10400C0041608360C360704700238360C360704766
:10401C0003009B68C068C01A43425841C0B2704745
:10402C000200C368581E9368C01A536800D5C018A4
:10403C007047C04603008268C1685B68501A00D59F
:10404C00C0187047F0B54646D6464F460500C0B579
:10405C00EB688068013B0E0014001B1A1ED49342BF
:10406C001AD31700002F05D12000E0BCBA46B14688
:10407C00A846F0BDAB6828689C463A006044310005
:10408C0000F0BAFDAB689C466B686744AF609F421A
:10409C00EAD10023AB60E7E70020E6E76A689046C8
:1040AC004344A342F8D30319994627009A42D9D81E
:1040BC00131A9A462B6852469C46604400F09CFDAD
:1040CC0000234246AB604B4656449F1ACAE7C04693
:1040DC00F8B54746CE4680B5C66883680500884665
:1040EC009C1B0BD4944207D82700002C20D13800FD
:1040FC00C0BCB946B046F8BD1400F5E74368994614
:10410C004C44944200D91400331927009945ECD83B
:10411C004B469F1B2B683A009919404600F06CFDEA
:10412C004B46F61AA419B84400263F19002CDED0D1
:10413C00296822004046891900F05EFDD7E7C04689
:10414C00F0B54F464646D646C0B50F008368C168E9
:10415C00060014005B1A1ED493421AD31500002DCE
:10416C0005D12000E0BCBA46B146A846F0BDF368C4
:10417C0031689C462A006144380000F03DFDF3682C
:10418C009C4673686544F5609D42EAD10023F36058
:10419C00E7E70020E6E7426890464344A342F8D3A1
:1041AC000B19994625009A42D9D8531A9A46036896
:1041BC0052469C463800614400F01EFD00234246E6
:1041CC00F3604B4657449D1AC9E7C04670B50100D1
:1041DC000400861D1D4D1E4823781B0258400823E1
:1041EC0004E0013BDBB280B2002B09D002B24000EC
:1041FC00002AF6DA013B6840DBB280B2002BF5D125
:10420C000134A642E8D14B888A781D0A1202154364
:10421C001BD008314D190D4CADB20B781B02584018
:10422C00082304E0013BDBB280B2002B09D002B2C0
:10423C004000002AF6DA013B6040DBB280B2002B72
:10424C00F5D101318BB2AB42E7D170BD211000002A
:10425C00FFFF0000052804D883001B180248C01873
:10426C0070470248FCE7C046F4650008F06500089A
:10427C0070B5040004A8007849000001084301212E
:10428C000143072018400023D200024363802371AE
:10429C00200000230725C9B221706270661D082218
:1042AC0001304B4004E0013AD2B2DBB2002A09D013
:1042BC0059B25B000029F6DA013A6B40D2B2DBB29C
:1042CC00002AF5D1B04201D00178E8E763712000F3
:1042DC00FFF77CFF030AE071A371200070BDC0469C
:1042EC0070B5040004A840C84900058820001B01D3
:1042FC000B43D20031002370627008302A0000F0AA
:10430C007BFC2B0AA3700023E5702000072523718A
:10431C00661D02785340082204E0013AD2B2DBB2A7
:10432C00002A09D059B25B000029F6DA013A6B4039
:10433C00D2B2DBB2002AF5D10130B042E9D16371BF
:10434C002000FFF743FF030AE071A371200070BD4A
:10435C0070B5002307244679451D02785340082286
:10436C0004E0013AD2B2DBB2002A09D059B25B00A8
:10437C000029F6DA013A6340D2B2DBB2002AF5D159
:10438C000130A842E9D1F01A42425041C0B270BD8E
:10439C0000788006800F704700780007400F704748
:1043AC0040788006400F70474378072018407047CC
:1043BC00827843881202180A1043704708307047FD
:1043CC0010B50400FFF702FFE388A1791B0A09026C
:1043DC000B43181A42425041C0B210BDB0B500AFE9
:1043EC00050000F0BFF86A46C31DDB08DB00D31ADA
:1043FC009D460200040069462800FFF769FE80B262
:10440C00844203D00024BD462000B0BD684600F0B5
:10441C00D3F804002800FFF70DFE8442F2D8F2E72F
:10442C0070B505000C001600002905D032002800DC
:10443C002100FFF7DFFD70BD3D21024A0248FFF766
:10444C00B1FDF3E7146600082466000810B5FFF709
:10445C00DFFD10BDF8B5DE4657464E464546E0B585
:10446C0000AF1E0080468A46914600F07BF86B46F2
:10447C00C41DE408E4001B1B9D460500801983B293
:10448C003200514668469B4600F08AF8FDF78AFCDC
:10449C004046FFF7C5FD002483450DD9FDF7A0FC70
:1044AC005B46E01ABD4643425841C0B2F0BCBB4625
:1044BC00B246A946A046F8BD2A0069464046FFF719
:1044CC00C1FD4B4684B2002BE8D032004946404631
:1044DC00FFF7B8FD2418A4B2E0E7C046F8B54E4685
:1044EC004546DE465746E0B500AF06008946904685
:1044FC00FFF774FF0025041E07D1BD462800F0BC51
:10450C00BB46B246A946A046F8BD6A46C31DDB08A9
:10451C00DB00D31AEA469D46FDF744FC22006946AF
:10452C003000FFF70DFE0600B6B2EB46FDF758FC67
:10453C00002E01D1D546E0E7684600F03DF88442F4
:10454C0005D159464046C8470125D546D5E7252112
:10455C00024A0348FFF726FDF3E7C0463C66000815
:10456C00246600080C20704710B5FDF73DFD0200D5
:10457C000B0003480260436080235B02836010BD24
:10458C006822002010B5FDF72FFD02000B00034838
:10459C000260436080239B02836010BD5822002080
:1045AC0070B504000E001500FDF71EFD668120603D
:1045BC0061602581200070BD00890C3080B270478D
:1045CC00807A7047008970470C30704710B5042A08
:1045DC0024D012D8012A15D0022A1BD1052303702E
:1045EC000023441CC85CE0540133D8B29042F9D388
:1045FC000220002A0AD180B210BD082A0AD1072352
:10460C000370EDE7042303700B784370013AD0B2CA
:10461C000230F0E7142303700120EDE7062303704A
:10462C00DEE7C046F0B5C6460E0000B5002917D02F
:10463C00FF23050000240227984601CDFEF754FA0B
:10464C0080B280459B415B420233C01801343F1855
:10465C00E4B2BFB2A642F0D1380080BCB846F0BD7F
:10466C000227F9E7F8B5DE4657464E46454616236F
:10467C00E0B583460370002A38D0013AD2B29200DA
:10468C0091460B1D0E000127994411E002220C23C8
:10469C0092462B7068700A3B020454444146120C3B
:1046AC00E8183F19043600F0A7FABFB2B14512D092
:1046BC005B46DD19336818009846FEF715FA84B28C
:1046CC00FF2CE3D90D2303222B70230AAB709246E7
:1046DC0003236870E0E7781C80B25A461823D35540
:1046EC00F0BCBB46B246A946A046F8BD0220012745
:1046FC00F3E7C04607280DD9030004220C3B934373
:10470C00DBB2002B09D00D389043C3B20020002B34
:10471C0006D07047013188B2FBE7023188B2F8E766
:10472C00033188B2F5E7C046F8B5050016001C0049
:10473C000D2909D80B291BD80439032916D83100A7
:10474C00DAB2FFF743FFF8BD103901290ED8FF2B61
:10475C002AD8102344700370022702202200310053
:10476C002818E41900F048FAA0B2ECE70020EAE7B8
:10477C001000FEF7B9F984B2FF2C0FD90D232B7062
:10478C00230AAB7003270323687002043100120C58
:10479C00E818E41900F030FAA0B2D4E70C23022791
:1047AC002B7068700A3BF0E711230370230A4470E6
:1047BC00837003270320D1E7F0B5C64600B5838B81
:1047CC0004000D00012600AF002B04D0BD463000C4
:1047DC0080BCB846F0BD6A46CB1DDB08DB00D31AA3
:1047EC00E8469D460A0004306946FFF7A9FC85425D
:1047FC0002D00026C546E9E7210068461431FEF7D1
:10480C0027F92200290068462432FEF73BF92222C0
:10481C000121A35C0B43A354C546D7E7F8B5454625
:10482C005746DE464E46E0B5838B0400884615009D
:10483C0000AF002B25D00600242314369A46B3462D
:10484C0082442B005A4643CA43C32221126858465D
:10485C001A600122635C934363542A816269A38BBF
:10486C009446013BA383638B514663446361FEF71B
:10487C001BF90120BD46F0BCBB46B246A946A0467A
:10488C00F8BD0B006A460733DB08DB00D31AE94698
:10489C009D460A0004306946FFF752FC804502D061
:1048AC000020CD46E6E72600143631006846FEF7B8
:1048BC00CFF824239A46A244524641466846FEF756
:1048CC00E1F822220121A35CB3460B43A354CD464D
:1048DC00B7E7C04670B50500582000F06BF906002C
:1048EC00FEF7AEF801356C1044430134A4B220003D
:1048FC0000F060F9010030000025220002C0FFF733
:10490C0079FB2000B58300F055F9B062010030004E
:10491C0022002C30FFF76EFB44233000F552356536
:10492C00756570BD70B5040004300025FFF76CFB95
:10493C002000A5832C30FFF767FB4423E552256547
:10494C00656570BD10B5838B0400002B01D0002071
:10495C0010BD0430FFF75CFB0028F8D04423E35A69
:10496C00002BF4D120002C30FFF752FBF0E7C046AF
:10497C0070B5061D040030000D00FFF751FB2C3400
:10498C0028802000FFF74CFB68803000FFF748FBC5
:10499C0005002000FFF744FB2B1C82B2ADB2954200
:1049AC0000D9031C98B270BDF8B54E465746454623
:1049BC00DE46E0B5804600AF08000C0091461E00B4
:1049CC00FEF742F8012809D9012300203370BD46B7
:1049DC00F0BCBB46B246A946A046F8BD85002D18D2
:1049EC00FEF72EF8ED000435454482462800FFF70B
:1049FC0017FB824503D9022300203370E7E75346A7
:104A0C006A460733DB08DB00D31A9D465246002169
:104A1C00684600F0FAF84A46210000F0EDF8200054
:104A2C00FEF710F843461B6DEB46834201D300287A
:104A3C000ED143465246186559462800FFF702FB33
:104A4C00030001209A45C2D0042300203370BEE736
:104A5C00032300203370BAE7F0B5D6464F464646DE
:104A6C00C0B504000D00FDF7EBFF070001002000AE
:104A7C00FFF7A2FE00285AD0200039002830FFF79B
:104A8C009BFE804600284BD000276169E06B2723F2
:104A9C0088427F4188429241784298435242013386
:104AAC009C4693009B18DB00E3181A002900143273
:104ABC00BA468146C1CAC1C11268E1440A602222C9
:104ACC0094469C44624601206146127882430A70E7
:104ADC002881596948468C4649469A8B2431013ABB
:104AEC009A835A8B1430624420185A616118FDF76E
:104AFC00DBFF534698005044C700E41964692B68E7
:104B0C002800E41AFDF7D2FDA04218DAEB88A34284
:104B1C0000DDEC804046E0BCBA46B146A846F0BD8C
:104B2C002A0039002000FFF779FE8046F2E72000CA
:104B3C002A0039002830FFF771FE8046EAE7BC21D5
:104B4C00024A0348FFF72EFAE0E7C0465C6600080D
:104B5C008466000810B50400806A00F035F82068FF
:104B6C0000F032F8200000F02FF810BD70B50026D0
:104B7C000C4D0D4C641BA410A64209D1002600F06C
:104B8C0023FD0A4D0A4C641BA410A64205D170BD2E
:104B9C00B300EB5898470136EEE7B300EB58984753
:104BAC000136F2E7D8660008D8660008D866000817
:104BBC00DC66000810B5034B0100186800F09AF889
:104BCC0010BDC0460800002010B5034B010018684A
:104BDC0000F024F810BDC0460800002030B50024B9
:104BEC000139A24201D1002005E0035D01340D5DC5
:104BFC00AB42F6D0581B30BD002310B59A4200D101
:104C0C0010BDCC5CC4540133F8E703008218934206
:104C1C0000D1704719700133F9E7000070B5050039
:104C2C00002910D00C1F2368002B00DAE418280090
:104C3C0000F070F91D4A1368002B05D163601460F5
:104C4C00280000F06FF970BDA34208D921686018E4
:104C5C008342F3D118685B6841182160EEE71A00B3
:104C6C005B68002B01D0A342F9D911685018A042FF
:104C7C000BD120680918501811608342E0D11868D4
:104C8C005B68411811605360DAE7A04202D90C232B
:104C9C002B60D5E721686018834203D118685B68E4
:104CAC004118216063605460CAE7C0467822002036
:104CBC0070B50F4E0D0031680400002902D100F0D0
:104CCC008FF830602900200000F08AF8431C0AD0CD
:104CDC000323C51C9D43A84207D0291A200000F0CD
:104CEC007FF8431C01D101256D42280070BDC046E0
:104CFC007C220020F7B50322CB1C9343083306001B
:104D0C001F000C2B32D20C27B94231D8300000F0E6
:104D1C0001F9324D2B681C00002C2ED139003000CB
:104D2C00FFF7C6FF0400431C1ED12C682500002D84
:104D3C004AD123682900E3183000019300F050F8A1
:104D4C00019B834243D123680337FF1A03239F43FC
:104D5C0008370C2F00D20C2739003000FFF7A8FFC2
:104D6C00431C34D02368DF19276013E0002BCBDA07
:104D7C000C23002533602800FEBD2268D11B20D4F3
:104D8C000B2917D9E2192760A34211D12A60636855
:104D9C00116053603000250000F0C4F807220B3579
:104DAC00231D9543EA1A9D42E5D05B1BA350E2E715
:104DBC005A60ECE76268A34201D12A60EAE75A60C4
:104DCC00E8E723006468A7E72C006D68AFE70C23C5
:104DDC003000336000F0A6F8CDE7C0467822002002
:104DEC00002370B5064D040008002B6000F0DEFBBC
:104DFC00431C03D12B68002B00D0236070BDC04630
:104E0C00802200200CB430B5174B0C001D689DB0EF
:104E1C00002908DA8B2301202B6040421DB030BCE6
:104E2C0008BC02B0184782236A469B009382002379
:104E3C0002900690994200D04B1E049307930123D5
:104E4C006A465B42D382280021AB209A02A90193C7
:104E5C0000F0D2F8431C01DA8B232B60002CDDD040
:104E6C000023029A1370D9E70800002003000A7887
:104E7C0001311A700133002AF9D17047030030B5A3
:104E8C001D00002A06D00C78013A01332C70013138
:104E9C00002CF5D100219A18934200D130BD197025
:104EAC000133F9E730B5140005001A009BB0002C53
:104EBC0005DA8B230360012040421BB030BD8223F6
:104ECC0068469B0083810023009104919C4200D092
:104EDC00631E02930593012369465B42CB81280034
:104EEC001E9B00F089F8431C01DA8B232B60002CED
:104EFC00E3D00023009A1370DFE7000007B500939E
:104F0C0013000A00010002480068FFF7CBFF0EBD3A
:104F1C000800002010B5024800F0F0FA10BDC046A1
:104F2C008422002010B5024800F0E9FA10BDC046FA
:104F3C0084220020F0B58E6885B007000C00039227
:104F4C0001939E423CD890238A89DB001A4234D0CC
:104F5C000969236860695B1A029303234343DD0FDD
:104F6C00ED18019B029801331B186D10AB4200D950
:104F7C001D00530532D529003800FFF7BBFE061E75
:104F8C0009D10C233B6040230120A28940421343EA
:104F9C00A38105B0F0BD029A2169FFF72DFEA3890C
:104FAC00144A1A4080231343A381029B2661F618EE
:104FBC0026606561019EED1AA560019B9E4200D999
:104FCC00019E32000399206800F0A5FAA368002026
:104FDC009B1BA36023689E192660DAE72A00380021
:104FEC0000F0ACFA061EE0D138002169FFF716FE7E
:104FFC00C7E7C0467FFBFFFFF0B5A1B003901D00D3
:10500C008B890F0016001B0611D50B69002B0ED1D6
:10501C004021FFF76FFE38603861002805D10C2362
:10502C00039A0138136021B0F0BD40237B6100234B
:10503C0008AC6361203363761033A3760795350093
:10504C002B78002B01D0252B47D1AB1B0593B542F8
:10505C000CD0320039000398FFF76CFF431C00D1D1
:10506C00AEE06269059B9446634463612B78002B28
:10507C0000D1A5E0012200235242626004A95432FF
:10508C0052186E1C2360E360A3601370A3650522A5
:10509C003178544800F034FA751C00281FD122686E
:1050AC00D30604D5532304A95B18202119701307C8
:1050BC0004D5532304A95B182B21197033782A2BA0
:1050CC0016D0350000210A20E3682A786E1C303A8D
:1050DC00092A4ED9002911D117E00135B0E7414B0F
:1050EC002268C01A0123834013432E002360CEE7AD
:1050FC00079B191D1B680791002B01DB0B9304E028
:10510C005B42E3600223134323602B782E2B0AD1DE
:10511C006B782A2B35D1079B02351A1D1B68079219
:10512C00002B2BDB0993304E03223000297800F042
:10513C00E7F9002806D04023801B83402268013504
:10514C00134323602978062228486E1C217600F030
:10515C00D7F900283CD0264B002B25D10722079BE2
:10516C0007339343083307936369049A9B1863616D
:10517C0065E74343350001219B18A6E701235B42F9
:10518C00D0E700230A201A000135636029786E1CD1
:10519C003039092903D9002BC5D00992C3E7424302
:1051AC00350001235218F1E707AB00933A002100B8
:1051BC00104B039800E000BF0490049B0133D3D143
:1051CC00BB890D985B0600D42DE7012040422AE7ED
:1051DC0007AB00933A002100064B039800F07CF8D3
:1051EC00EAE7C0469B660008A1660008A5660008B1
:1051FC0000000000414F0008F7B5150001938A68C4
:10520C000B690C000090934200DA130022002B6013
:10521C0043321278002A01D001332B6023689B069D
:10522C0002D52B6802332B602268062317001F401F
:10523C001A4227D0230043331B785A1E934122680D
:10524C00920630D4220001990098089E4332B04750
:10525C00431C25D0062320682A68E16800250340FA
:10526C00042B03D18D1AEB43DB171D40A368226975
:10527C00934201DD9B1AED180027BD4220D100207E
:10528C0010E00137E3682A689B1ABB42D2DD22008A
:10529C00012301990098089E1932B047431CF0D1A4
:1052AC0001204042FEBD3020E1184331087021003E
:1052BC005A1C45310978A218433202331170C1E7E8
:1052CC002200012301990098089E1A32B047431C12
:1052DC00E6D00137D1E70000F0B58BB006920A009A
:1052EC0043320793059004920A7E0C00109B782A97
:1052FC0007D8622A09D8002A00D1C1E0582A00D167
:10530C008CE026004236327022E0100063381528FB
:10531C00F7D8FDF7F1FB16001F00F6FFF6FFF6FFBE
:10532C00F6FF1F00F6FFF6FFF6FFF6FFA8003600AB
:10533C009A00F6FFF6FFB900F6FF3600F6FFF6FF0F
:10534C009E0026001A684236111D196013683370CE
:10535C000123A7E0086819680A1D05060BD50D681E
:10536C001A60002D03DA2D23049A6D421370614BE1
:10537C000A2703931BE00D681A604106F1D52DB284
:10538C00EFE70D681968081D18602E0601D50D6829
:10539C0003E06D06FBD50D68ADB2564B08270393A1
:1053AC006F2A00D002372300002243331A7063683F
:1053BC00A360002B03DB0422216891432160002DA4
:1053CC0002D1049E002B0CD0049E28003900FDF75E
:1053DC0023FC039B013E5B5C33702B0005009F425A
:1053EC00F3D9082F09D12368DB0706D56368226936
:1053FC00934202DC3023013E3370049B9B1B2361E0
:10540C00079B210000930598069B09AAFFF7F4FE61
:10541C00431C4CD1012040420BB0F0BD45310A7009
:10542C00344A03921A68216820CA1A60080616D5F5
:10543C00CB0702D52023194321601027002DB2D1B0
:10544C00202322689A432260ADE7202209680A4390
:10545C0022602200782145321170274AE1E7480684
:10546C00E6D5ADB2E4E71A680D68101D49691860FD
:10547C0013682E0601D5196002E06D06FBD5198064
:10548C000023049E2361BBE71A68111D196016687E
:10549C0000213000626800F033F8002801D0801B36
:1054AC006060636823610023049A1370A8E7236982
:1054BC00320006990598079DA847431CAAD023687B
:1054CC009B0715D4099BE0689842A5DA1800A3E75E
:1054DC002200012306990598079E1932B047431CF8
:1054EC0098D00135E368099A9B1AAB42F0DCE9E7E6
:1054FC000025F7E7AC660008BD66000870477047EA
:10550C00C9B28218904201D10020704703788B42B7
:10551C00FBD00130F6E710B5884202D98B189842BF
:10552C0003D3002307E08B5C8354013AFBD210BDFC
:10553C00CC5CC45401339A42FAD1F8E7F7B50700B2
:10554C000E001400002905D11100FFF7D3FB050054
:10555C002800FEBD002A03D1FFF760FB2500F7E70A
:10556C0000F01BF80190844203D835004308A34295
:10557C00EED321003800FFF7BDFB051EE8D0019BE0
:10558C0022009C4200D91A0031002800FFF734FB9E
:10559C0031003800FFF742FBDAE70B1F1B68181FBE
:1055AC00002B01DA0B58C01870470000044A0300A6
:1055BC001068002802D0C318136070470148FAE73E
:1055CC008822002090220020F8B5C046F8BC08BC08
:1055DC009E467047F8B5C046F8BC08BC9E4670475E
:1055EC00E4110008D6110008D6110008D6110008E5
:1055FC00D611000800120008D6110008E0110008AE
:10560C00D6110008D61100080E120008D611000899
:10561C00D6110008261200089A13000880130008FF
:10562C008013000880130008801300088013000802
:10563C00801300088013000896130008E813000874
:10564C0080130008F21300081A1300081014000845
:10565C0080130008801300088013000880130008D2
:10566C007213000874140008BA140008DE14000841
:10567C0074140008741400087414000874140008DE
:10568C0074140008741400087414000874140008CE
:10569C0074140008741400087414000874140008BE
:1056AC0074140008741400087414000874140008AE
:1056BC00741400087414000874140008741400089E
:1056CC00741400087414000874140008741400088E
:1056DC007E14000874140008741400087414000874
:1056EC007E14000874140008741400087414000864
:1056FC00EC140008AA1400086E14000874140008B6
:10570C007414000862140008D01500086015000815
:10571C0000160008D0150008D0150008D015000898
:10572C00D0150008D0150008D0150008D0150008B9
:10573C00D0150008D0150008D0150008D0150008A9
:10574C00D0150008D0150008D0150008D015000899
:10575C00D0150008D0150008D0150008D015000889
:10576C00D0150008D0150008D0150008D015000879
:10577C00D0150008D0150008D0150008D015000869
:10578C00D0150008D0150008C6150008C61500086D
:10579C00D015000848160008C6150008E2150008C8
:1057AC00E6150008C6150008DA150008FE160008F4
:1057BC000E1700083C170008FE160008FE1600081D
:1057CC00FE160008FE160008FE160008FE1600085D
:1057DC00FE160008FE160008FE160008FE1600084D
:1057EC00FE160008FE160008FE160008FE1600083D
:1057FC00FE160008FE160008FE160008FE1600082D
:10580C00FE160008FE160008FE160008FE1600081C
:10581C00FE160008FE160008FE1600080A170008FF
:10582C00FE160008FE1600080A170008FE160008EF
:10583C00FE160008FE160008FE160008FE160008EC
:10584C00FE16000838170008FE1600084A17000854
:10585C00AA170008BE170008E4170008AA170008CA
:10586C00AA170008AA170008AA170008AA17000808
:10587C00AA170008AA170008AA170008AA170008F8
:10588C00AA170008AA170008AA170008AA170008E8
:10589C00AA170008AA170008AA170008AA170008D8
:1058AC00AA170008AA170008AA170008AA170008C8
:1058BC00AA170008AA170008AA170008A4180008BD
:1058CC00AA170008AA170008AA170008F217000860
:1058DC000218000828180008AA170008AA170008C0
:1058EC00AA170008AA170008AA170008AA17000888
:1058FC007C180008F2190008FA180008FA180008B9
:10590C00FA180008FA180008FA180008FA18000823
:10591C00FA180008FA180008FA180008EE1800081F
:10592C00EE180008EE180008EE180008EE18000833
:10593C0096190008EE180008EE180008EE1800087A
:10594C00EE180008EE180008EE180008EE18000813
:10595C00EE180008EE180008EE180008EE18000803
:10596C00EE180008EE180008EE180008EE180008F3
:10597C00EE180008EE180008EE180008EE180008E3
:10598C00EE180008EE180008EE180008EE180008D3
:10599C00EE180008EE180008EE180008EE180008C3
:1059AC00EE180008EE180008EE180008EE180008B3
:1059BC00EE180008EE180008D81900089E19000807
:1059CC00EE18000828190008EE180008EE18000858
:1059DC00EE180008EE180008EE180008EE18000883
:1059EC00EE1800086E190008EE180008841900085B
:1059FC00EE180008EE180008221A0008EE1800082D
:105A0C00C6190008EE18000850190008BC19000847
:105A1C00141A00083822000838220008F220000866
:105A2C00102100083421000850210008C221000870
:105A3C00E6210008FE21000816220008C6200008F6
:105A4C009023000800240008DA230008A223000891
:105A5C001C24000826280008FE270008FE27000842
:105A6C00FE270008FE270008FE270008FE27000876
:105A7C00FE270008FE270008FE270008FE27000866
:105A8C0068290008AE280008FE270008FE27000839
:105A9C00FE270008FE270008FE270008FE27000846
:105AAC00FE270008FE270008FE270008FE27000836
:105ABC00FE2700088C280008FE270008FE27000897
:105ACC0066280008FE27000846280008FE27000864
