:020000040800F2
:10000000009000202530000875300008950A00088F
:1000100000000000000000000000000000000000E0
:100020000000000000000000000000007530000823
:10003000000000000000000075300008F50A00080C
:1000400075300008753000087530000875300008FC
:10005000050B000875300008753000083D0D0008DC
:1000600075300008450E000875300008753000082E
:10007000A90D0008210B00087D0B0008310C0008B9
:10008000753000088D0D00087530000875300008C7
:1000900075300008753000089D10000875300008A4
:1000A000753000087530000875300008753000089C
:0C00B000B10E0008753000087530000823
:1000BC0010B5064C2378002B07D1054B002B02D032
:1000CC00044800E000BF0123237010BD7000002025
:1000DC000000000014550008044B10B5002B03D091
:1000EC000349044800E000BF10BDC04600000000FA
:1000FC007400002014550008F0B50124C02384407E
:10010C000B4D5B00EC500700830803203840FF27A1
:10011C00AC46C026C0008740890181409B006344E7
:10012C00B6009A59BA430A439A512C60F0BDC046A6
:10013C0000E100E04022104B002819D09A61C3075F
:10014C000E49DB1782071B04D2171B0C0A40023224
:10015C00013313438022D20241070BD5134300070E
:10016C00074AC017104020301843064B986170475F
:10017C009A6203230422F1E700080050FEFF0100FD
:10018C00E0FF1F0000040050F0B5C64600B582B079
:10019C00070008A8008884461B488046444600781F
:1001AC00251D0024002805D11BE00134E6B20C35D6
:1001BC00864216D22E78BE42F7D1654660000419ED
:1001CC00A4004444E068009301951300A5680A005C
:1001DC003900A847E388012B07D0002B01D0013B45
:1001EC00E38002B080BCB846F0BD43461B780434B3
:1001FC00013BDAB243461A7053009B189B004344F0
:10020C00043307CB07C4ECE78C000020F0B5164F85
:10021C003E78002E24D000233C1D04E00133DDB2D7
:10022C000C34AE420CD925788542F7D15C00E3182A
:10023C0004379B00FB180D48996058605A80F0BD3C
:10024C000A2EFCD07400A419751C3B1DA400EDB241
:10025C001B197400A619B6003D70BF193871EAE776
:10026C00002601253B1DF4E78C00002081130008BB
:10027C00F0B501224F46D64646460B6800249146FF
:10028C00C0B5002B1AD14BE0170057437B00DB198C
:10029C00DB43C568AC4666460D691E407D4335435D
:1002AC00C5604D68022D2DD07D43026813402B4351
:1002BC0003600B681A000134E24031D04D461A003D
:1002CC00A5402A402B42F5D04B68013B012BDBD8D3
:1002DC001700574383688D6898467B009C467D4386
:1002EC00BC44AA4646466546AE4335005646634670
:1002FC002E438660CE684568564395433543DB43B1
:10030C004560C6E7FF2A10D83D007D43026A2E01E6
:10031C00761BB2434E6975432A4302624D68C3E7AC
:10032C00E0BCBA46B146A846F0BD120A524352434D
:10033C00456A1601B61AB5434E6972432A434262A6
:10034C004D68B1E710B50A000249034803F0D4FD2B
:10035C0010BDC046145A00085C5D000810B50A00B8
:10036C0002490348103103F0C7FD10BD145A0008B0
:10037C005C5D000870B50C005026050082B01D486D
:10038C0003F0BAFDF4236643EC54002E14D12B0079
:10039C000122F4330092002103320720FFF7F4FE10
:1003AC00610832340C19E4B22100134803F0A4FDA7
:1003BC00E435AC7102B070BD3100104803F09CFD07
:1003CC000F4B104ACC331E80331C964200D9131CA1
:1003DC000D4A9BB2934200D213000A4AD21A0B4B1D
:1003EC005343802212019446094A63441B0B536108
:1003FC00CDE7C046645D00089C5D0008845D000884
:10040C008C000020D3270000B20400004907000034
:10041C000074004010B5448986B00234A405240E43
:10042C004379027901680494447B0394C488029450
:10043C0004890194007B30300090024803F05CFD8D
:10044C0006B010BDC05D0008802170B5C9054A6AB0
:10045C0003680400934208DB0B4AD03261CC61C2C2
:10046C002068106001204B6370BD0849084820319A
:10047C0003F042FD9423044A2421D0582200843BEB
:10048C0003F098FF0020EFE78C000020145A0008BE
:10049C00185E000870B5C1881D4B0139D9620189FD
:1004AC000200013919630021062059621969814340
:1004BC001961117B002921D00020012900D070BDC9
:1004CC005289033102329205120E9A63DA680A439A
:1004DC00DA6001250E4C0F4A636925212B436361B9
:1004EC009423D058903B0C4A03F064FF00236363C1
:1004FC00A363236801202B432360E0E75289023178
:10050C0002329205120E5A63DA680A43DA60E0E7A7
:10051C00002C01408C000020240000404B1E99410F
:10052C00012310B549429943002200230E3103F0F8
:10053C0041FF10BD10B582B000920193D623426FDB
:10054C005B00D358002B0FD004008034009A216834
:10055C00521A9A4208D308236A46142103F02AFF40
:10056C00009A019B2260636002B010BD032310B59A
:10057C00104C114A23616361104BA261E36180232B
:10058C009B0123620023A3626362E36222660C4A2E
:10059C000C49603262661022E01DA2662367E36696
:1005AC00636704F003FC2000074904F0FFFB2023E1
:1005BC00A37110BDB02100202C5E0008B0010020FA
:1005CC000C010020385E00083C5E0008F8B5474678
:1005DC00CE4680B58368C56899465B1B98464368D0
:1005EC0004000E0017005819904507D9ED1904F0B6
:1005FC00A3FAE560C0BCB946B046F8BD424604F06B
:10060C009BFA4B463100ED19ED1A2A006068414403
:10061C0004F092FAE560EDE7F0B557464E464546D4
:10062C00DE46E0B5354B83B09A461B7806001500C4
:10063C000191002B56D07700BB19DB0053441A6F85
:10064C009046DA6E9146904525D8130042462C0010
:10065C009B1A9D4209D8002C09D1200003B0F0BC94
:10066C00BB46B246A946A046F0BD1C1EF5D0A1461D
:10067C00BB19DB005344596E220041440198A0443D
:10068C0004F05AFA4C46002CE7D04346BF19FF0041
:10069C0057443B67E1E742469B6E2C009B1A9D42F8
:1006AC0027D8BB19DB0053449B46596E22004144AA
:1006BC00019804F041FA5B469B6EA0442D1B434508
:1006CC0019D04B4642469B1A99464D450DD8002DE4
:1006DC00D9D0019BA1469C46A44463462C000193AF
:1006EC00A944C5E7FFF742FFA5E74D46002DCAD048
:1006FC00EFE71C00D5E700239846E6E7B021002081
:10070C00F8B557464E46DE4645468946411CE0B58F
:10071C0017004A0052180300D2009246344A5E0079
:10072C0093461000F618F6005E44F36A504498465F
:10073C00012B0CD0022B27D0002B17D0002398466E
:10074C004046F0BCBB46B246A946A046F8BDB36ACB
:10075C00726A934247D9013B9B1AB8469F4200D913
:10076C00984642464946FFF731FFE9E7B36A726A99
:10077C00934233D9013B9B1A9F42E1D83A00494638
:10078C00FFF724FFB846DBE70023746A98461DE0A8
:10079C00013B356A1B1BBB4200D93B002D1B9D4204
:1007AC0000D91D005B46534458682A00494600197D
:1007BC0004F0C2F9336A6419E31A5A1E93415B427E
:1007CC001C40A844A9447F1B7462B9D0B36AA342ED
:1007DC00DED8356A5B19013B1B1BDCE7316A5B1801
:1007EC00013B9B1AC8E7316A5B18013B9B1AB4E7C3
:1007FC00B0210020F0B5C64600B5856843686A1C78
:10080C0004009A4207D8036859551500C3688260E2
:10081C000133C36043689D4202D080BCB846F0BD32
:10082C002368276998460E4B1B78002B15D0EFF3E5
:10083C001086012181F310882A0041463800FFF709
:10084C005FFF86F31088A368834203D001235B42C9
:10085C00E360E2E70023A360DFE7FFF787FEE6E74C
:10086C00B0210020F0B54E4645465746DE46E0B571
:10087C0083B09A460C9B80460E0015009946914217
:10088C0000D27DE008000127290002F039F9013778
:10089C008542F9D9574500D2574601230D9A1A4083
:1008AC0001920D9A13424ED14B46002B4BD01300A4
:1008BC0020249B075ED44F4545D201235B429C46C6
:1008CC0021004046E144FFF795FF4346DB68002BCF
:1008DC0032DB4B46002BEED153460124012B07D9BA
:1008EC0001235B429C46E24453466C43012BF7D8F0
:1008FC002100300002F004F98542F5D9214B9B46CA
:10090C0034239A4606E02900200002F0F9F8AC42A4
:10091C000FD304003000210002F078F953465844FC
:10092C000E00C15C4046FFF765FF4346DB68002BB9
:10093C00E9DA019B002B19D103B0F0BCBB46B246DF
:10094C00A946A046F0BD4346DB68002BC4DAF3E7AA
:10095C004F45F1D201235B429C4620214046E144A5
:10096C00FFF748FF4346DB68002BE5DB4B46002BCB
:10097C00EED1E1E753465C425C41240120349AE716
:10098C00012787E7145A000810B5080003F0C8FDCA
:10099C00034902004431034803F0AEFA002010BDB5
:1009AC00145A0008445E000810B5080003F0B8FDA6
:1009BC00034902005031034803F09EFA002010BD99
:1009CC00145A0008685E000810B50400806F03F02C
:1009DC00EDFC002801D1002010BD606F03F0E6FC97
:1009EC000028F8D0200003F0E1FCF5E7F8B5224D23
:1009FC000400435D5A1CD2B24255C3181F488446AA
:100A0C0063441970072A08D91C4BE618082A0DD024
:100A1C001B4BE05A0830824201D00020F8BD002266
:100A2C00154B3000E25403F067FCF7E7300003F09D
:100A3C003FFC00280BD0300003F06AFC8023104FE1
:100A4C000100E0539B00984210D8625DE2E7615DC3
:100A5C000139C9B261550029DFD000237278013306
:100A6C00DBB2327001369942F8D1D6E7054803F073
:100A7C0043FA0023E353D0E7D4140000CC12000057
:100A8C00D61400008C5E0008112110B50F4A1048D6
:100A9C00136A8B43136280220E4B92009A62DA3AED
:100AAC00FF3A9A610C490D4B5C315A6803F024FAF9
:100ABC000B4C0122210070230A487031E25403F0E0
:100ACC001BFA7022A35C002BFCD110BD002C014042
:100ADC00B05E000800040050145A000800ED00E05D
:100AEC000C010020C05E0008024A536F01335367AB
:100AFC007047C0460C01002010B5EFF30582034986
:100B0C000348703103F0F8F910BDC046145A0008C0
:100B1C005C5D0008012210B5104B19690A4216D011
:100B2C001968914319600621DA688A43DA601A69F8
:100B3C0001318A431A614022094B20319A62942375
:100B4C00084AD0580023002203F034FC10BD06499B
:100B5C001A697C31054803F0CFF9F7E7002C014006
:100B6C00000800508C000020145A0008F85E0008A1
:100B7C00022210B5254BD9680A4202D019690A42E3
:100B8C0024D123490422214BD868024202D018698F
:100B9C00024211D11D4B1F481A6902401A610A000A
:100BAC00CE3212881B6B01339A4226D00721174A8A
:100BBC0013698B4315D110BD186990430A00186155
:100BCC00CE32138801339BB21380E3E7196991434A
:100BDC0019610F490A00CE32138801339BB213807E
:100BEC00D0E711690C4803F087F9EFF305820B4944
:100BFC000B48703103F080F9DDE70B00D531D433AD
:100C0C0018780B781843FFF795FACFE7002C0140C2
:100C1C008C000020E7FFFCFF045F0008145A00085A
:100C2C005C5D00088023022210B5DB0519690A42BD
:100C3C0034D01969344C914319612300D6331A8886
:100C4C00324B9A421BD82300DA331B88072B16D958
:100C5C002300D8331B88002B11D02300DD331B78E5
:100C6C00002B3AD101221100294B1B6819401A4262
:100C7C001CD08023DB05596A264803F03DF99423E8
:100C8C002200E0582421D032843B03F093FB200057
:100C9C0010220021D03003F058FF06E0EFF305825C
:100CAC001D491E48703103F027F910BD2300CE33C7
:100CBC0019802300D8331B88012B09D12300220073
:100CCC00DA331B88D63202339B10DBB21433138019
:100CDC002000D030FFF7DEFBD9E7220010495B0182
:100CEC00CC3213801A1C8B420CD30E4B92B29A1A34
:100CFC000D4B53438022120194460C4A63441B0B48
:100D0C005361AFE70A1CF0E78C00002024F40000CC
:100D1C00002C0140105F0008145A00085C5D0008AC
:100D2C00B2040000D3270000490700000074004003
:100D3C00102210B50E4BD9680A4211D119690A421A
:100D4C0007D1EFF305820B490B48703103F0D4F84F
:100D5C0010BD0A4800211A61883003F0EFF8F7E75C
:100D6C0006480121DA60883003F0E8F8F0E7C04665
:100D7C0000180240145A00085C5D00088C0000202A
:100D8C0010B5EFF3058203490348703103F0B4F852
:100D9C0010BDC046145A00085C5D0008102210B546
:100DAC001C4B19680A421AD1012219680A4211D146
:100DBC00802219689201114222D1042219680A4238
:100DCC0023D1082219680A420ED01A60124803F087
:100DDC0093F803E011481A6003F08EF810BD1A6006
:100DEC000F4803F089F8F9E719680E4803F084F806
:100DFC00EFF305820C490D48703103F07DF8EDE7F7
:100E0C001A600B4803F078F8E8E71A60094803F019
:100E1C0073F8E3E7002401406C5F0008385F0008BA
:100E2C00285F0008785F0008145A00085C5D000811
:100E3C00445F0008605F0008022310B5134C226861
:100E4C00134218D108232268134208D11049226892
:100E5C0010481C3103F050F80423636010BD0C499A
:100E6C0063601C310C4803F047F801210B4A1368EE
:100E7C000B431360F2E76360094B94211A00585836
:100E8C00C63206237F3903F095FAE7E700000240EB
:100E9C00945A0008945F0008885F0008080002401C
:100EAC008C00002010B5104BDA69920616D4802203
:100EBC00D9690A420AD01B681A4206D00B4B34324D
:100ECC009858043A9B580A49984710BDEFF305828D
:100EDC0008490948703103F00FF8F6E70348596ADE
:100EEC00983003F02BF8F0E7004400408C00002011
:100EFC0028440040145A00085C5D00084089023008
:100F0C008010C0B27047C04670B51125084C130054
:100F1C00226AAA4322628024064AA4009462DA3C24
:100F2C00FF3C94610A000100034802F0E5FFFEE774
:100F3C00002C014000040050A45F000810B5014AC9
:100F4C00FFF7E2FFC45F0008FA2170B5124C0500F0
:100F5C008900206801F0D4FD802301385B0498429D
:100F6C0001D3012070BDC0210C4A090650600C4809
:100F7C00036A1B021B0A0B430362072100239360C5
:100F8C001160032DEDD8026AA9071202120A0A4356
:100F9C00026218006560E5E70000002010E000E048
:100FAC0000ED00E010B5024A02490348FFF7ACFF20
:100FBC00CC5F0008E1020000F45F000810B572B6C7
:100FCC00BFF34F8FBFF36F8F044BC4331A78FF2AD4
:100FDC0002D001321A7010BDFFF7E4FF8C00002024
:100FEC00BA2110B5024A03488900FFF78DFFC046AD
:100FFC0008600008F45F000810B5094AC432137881
:10100C00002B0AD0013BDBB21370002B04D1BFF3D1
:10101C004F8FBFF36F8F62B610BDFFF7E1FFC04675
:10102C008C00002070B572B6BFF34F8FBFF36F8F7B
:10103C0014490B00C4331A78FF2A21D07824501C91
:10104C0018701148114B406A1D5B80B21853A842AE
:10105C000AD21C0078346088013080B2608000288D
:10106C0002D1D86F0130D867C4310A70002A04D17C
:10107C00BFF34F8FBFF36F8F62B6986FD96F70BD90
:10108C00FFF790FF8C000020004801400C0100206D
:10109C00F8B50223144C226913420FD101222369A3
:1010AC001A4203D0236993432361F8BDEFF3058201
:1010BC000E490F48703102F01FFFF6E722690D4D03
:1010CC009A4322617E33EF58EE6FFFF7ABFFCB07ED
:1010DC0042081A4338004B08B0478422636BAA5865
:1010EC009B186363E1E7C04600480140145A0008AE
:1010FC005C5D00088C00002070B572B6BFF34F8F9A
:10110C00BFF36F8F16490B00C4331A78FF2A25D012
:10111C007824501C18701348134B406A1D5B80B226
:10112C00185385420AD91C0078346088013080B28B
:10113C006080002802D1D86F0130D867C4310A70A2
:10114C00002A04D1BFF34F8FBFF36F8F62B6986F35
:10115C00D96F4008CB071843490870BDFFF722FF31
:10116C008C000020004801400C01002030B585B0F7
:10117C000B00009205000022012102A803F028F8C0
:10118C0072B6BFF34F8FBFF36F8F1A4C2200C4326D
:10119C001378FF2B29D001331370174B082202A9A7
:1011AC00E81802F0FFFE00280FD1C4342378002B7E
:1011BC001DD0013BDBB22370002B04D1BFF34F8F4A
:1011CC00BFF36F8F62B605B030BD0C4BEA56012AE7
:1011DC0005D00B490B48383102F08EFEE5E7802133
:1011EC00094A13680B431360DFE7FFF7DBFEFFF7D9
:1011FC00F7FEC0468C00002064100000D5140000DF
:10120C00945A00082860000800440040F0B506001D
:10121C001D001000324B83B0F25C01959401A418B0
:10122C006400A418A400043434190B0000900421A9
:10123C00200003F005F8083572B6BFF34F8FBFF3EB
:10124C006F8F284F3A00C4321378FF2B44D00133F0
:10125C001370254B21002A00F01802F0A3FE041E87
:10126C002AD1C4373B78002B38D0013BDBB23B7022
:10127C00002B03D0A54208D003B0F0BDBFF34F8FB5
:10128C00BFF36F8F62B6A542F6D18325FFF7CAFE76
:10129C00AD00AC46124CC907325D400893019B1857
:1012AC005B009B189B00F3186344084318600723EA
:1012BC0001321A403255DFE70C4BF256012A05D0A9
:1012CC000B490C48383102F017FECAE780210A4A54
:1012DC0013680B431360C4E7FFF764FEFFF780FE4F
:1012EC00D81400008C00002064100000D5140000FD
:1012FC00945A00082860000800440040B0B582B041
:10130C0000AF05000C00FA71002A28D1012104203D
:10131C0003F0A0F903006A461333DB08DB00D31A91
:10132C005A8821889A8000221A805A809D46A28869
:10133C00D98001215A811981FA1D012303A8033197
:10134C0003F0A2F9D422030052000C33A858012157
:10135C006A469BB2FFF75AFFBD4602B0B0BD8B8800
:10136C00024903484C3102F0C7FDCFE7945A0008FC
:10137C0044600008F8B5DE4657464E464546E0B593
:10138C001D00282300AFFB18914604CB06001B88D8
:10139C0088462800190093469A4603F05BF96B4681
:1013AC001330C408E4001B1B5A889D469A80002207
:1013BC001A805A804A46DA8005221A814246290050
:1013CC005A8103A853465A4603F05EF9D42203000F
:1013DC0052000C33B05801216A469BB2FFF716FF3E
:1013EC00BD46F0BCBB46B246A946A046F8BDC046B9
:1013FC000FB430B597B01AA920C92800019102F09A
:10140C0071FD2A0004005021019B02A803F016FD77
:10141C00002807DD064A013083B20021D06902AAF8
:10142C00FFF7F4FE200017B030BC08BC04B018471E
:10143C008C01002070B5050082B008000C0003F090
:10144C006FF8C31FDBB20D2B03D828499B00CB5878
:10145C009F46274902006031264802F04DFD02B03C
:10146C0070BD200003F060F804682348210002F0EE
:10147C0043FD022CF3D188230022EA54EFE700232A
:10148C0000221D21A86F02F095FFE8E7200003F071
:10149C004BF803001A690068043300920ECB02F07B
:1014AC002BFDDCE7200003F03FF8002341680068C7
:1014BC00124A01F0C5FC04003C21200001F0A6FBFF
:1014CC0020000E003C2101F01BFB3C2101F09EFB97
:1014DC000D00E1212000090101F012FB3300010095
:1014EC002A000748FFF784FFB9E7C0462C550008CF
:1014FC00945A0008886000087460000840420F008D
:10150C005C600008010030B53039CBB283B0472B9A
:10151C0003D8534A9B00D3589F4601005148FFF70C
:10152C0067FF03B030BD80258B00C9184E4B01AA54
:10153C0049004E4C986911700123202102F03AFFAA
:10154C006369AD002B42ECD1494802F0D5FCA56192
:10155C00E7E7454B9869F423C25C023A131C642AF2
:10156C007BDC19B201AA0A2911DB1370202101239B
:10157C0002F020FFD5E73C4B9869F423C25C0232A1
:10158C00131C642A00DD642301AA092BEDDC0A2359
:10159C00EBE780223749D203486903041340402209
:1015AC00824313438B61BCE72F4B00221E219869A9
:1015BC00002302F0FFFEB4E72F48FFF719FFB0E756
:1015CC00294C002300220C21606902F0F3FE002359
:1015DC0000220E21606902F0EDFEA2E7274928489F
:1015EC00FFF706FF9DE7204B00221B219869002383
:1015FC0002F0E0FE95E723492348703102F07CFCB1
:10160C00224A234993680B4004210B43936088E7DB
:10161C008025164CAD0063692B4219D1002301AA19
:10162C001370114B20219869012302F0C3FE78E757
:10163C0000210D4BDA69174BD15472E70223019349
:10164C00094B0721586901AA042302F0B3FE68E78D
:10165C00114802F051FCA562E0E7642381E7C04623
:10166C0064550008186100088C010020000400502B
:10167C00E46000080008005098600008FC60000856
:10168C0008610008945A0008F86000080024014022
:10169C00E8FFFF7FD9140000D0600008F0B5DE46EB
:1016AC0057464E464546E0B583B0060002AF0800EB
:1016BC000C0002F021FE05002000012D4AD002F0A2
:1016CC001FFE8046200002F013FE8246032D51D0EF
:1016DC00200002F01DFE8146042D10D0280002F0DF
:1016EC0069FD4B4601004246324802F005FCBD46FE
:1016FC0001B0F0BCBB46B246A946A046F0BD2000E6
:10170C0002F0F6FD8146200002F008FE05002000E4
:10171C0002F0FEFD4A460300002A20D1022802D125
:10172C002A782F2A42D01A0069460C32D208D200ED
:10173C008A1AEB46954602AA91465C1D2100484642
:10174C001D4A009503F0FEFA002801DD844224D8DE
:10175C00DD4609E002F0D8FDFFF7CEFCC7E72A0012
:10176C001821306802F026FE524641463000FFF741
:10177C00FDFCBCE74146114802F0BEFB5246414617
:10178C003000FFF7F3FC51464B1E99410022002319
:10179C003068163102F00EFEA9E7094A83B2002127
:1017AC00D0694A46FFF732FDDD46DDE76878FFF782
:1017BC00A9FED9E75C61000850610008306100089F
:1017CC008C01002070B51F4D0400435D002B0ED121
:1017DC000A2905D0C9B2FFF709F9032818D070BD42
:1017EC0001220339FFF7C2FC01236355F7E7C9B2A5
:1017FC00FFF7FCF80028F2D0134BE518280002F094
:10180C008FFD002813D029002000FFF747FFE6E7E3
:10181C000D4BE518280002F083FD00280CD02900A0
:10182C002000FFF73BFF0122064BE254D7E70749A4
:10183C00074802F061FBD2E70449054802F05CFB63
:10184C00F1E7C046D9140000CC120000145B00086C
:10185C008C610008F8B5D0267600835904009847AF
:10186C00051E1BD0A75902F03DFE01002000B84711
:10187C00002805D0A1210A4A0A484900FFF744FB79
:10188C00A55102F021FE01002000A847002805D038
:10189C004621034A0348FF31FFF736FBF8BDC0462B
:1018AC009C610008A8610008F8B5DC268359040087
:1018BC009847051E1BD0A75902F014FE010020000A
:1018CC00B847002805D06C21094A0A48FF31FFF7B8
:1018DC001BFBA55102F0F8FD01002000A8470028D1
:1018EC0005D0B721024A03484900FFF70DFBF8BDAC
:1018FC009C610008BC610008F0B5C64600B58A883A
:10190C0088B005000C0002AF0A2A00D9BEE0674976
:10191C009300CB589F46D2235B00C258CC3BD05887
:10192C003900248802F0D4FF0423102200932100F4
:10193C003B000A20FEF728FCBD4606B080BCB8462A
:10194C00F0BD26885A4C200001F0C8F880B20190F6
:10195C000C233200022128000094FFF70BFDEBE76B
:10196C00012201000320FEF751FC5249524870310C
:10197C0002F0C2FA514A524993680B4004210B43BE
:10198C009360D9E7FFF7B8FB0823386079602288A9
:10199C002179280001930097043BFFF7EBFCCBE780
:1019AC00484B05213B60484B38007B60474B6E46EB
:1019BC00BB60474BFB60474B3B6102F0E3FD030010
:1019CC000C339BB20733DB08DB00F31A9D4602ABEA
:1019DC00984642465B88414693800023138053808F
:1019EC002388A288CB8005230B8109336B449A8012
:1019FC003900052205A802F0E5FDD42203005200AF
:101A0C000C33A858012142469BB2FFF7FFFBB546A9
:101A1C0092E7D2235B00C258C43BD358002B40D072
:101A2C001C68200001F05AF880B2009023000C22B0
:101A3C0000210620FEF7A8FB7EE7D22301225B00E3
:101A4C00C358002100920720F4330332FEF79CFBAD
:101A5C0072E7D22301225B00C358002100920820B8
:101A6C00F5330332FEF790FB66E726880400B134A9
:101A7C00FF34200001F032F880B201900C233200C8
:101A8C00092128000094FFF775FC55E7124913480B
:101A9C00143102F031FA862221002800FFF72EFCC7
:101AAC004AE7A5210E4A0F48FFF72EFA8456000884
:101ABC00FC600008945A0008F860000800240140FB
:101ACC00E8FFFF7FCC610008D8610008E0610008E6
:101ADC00EC610008F4610008145B00082462000843
:101AEC000862000814620008F8B5050008000C0034
:101AFC0002F016FD162843D00AD8012855D002282A
:101B0C0049D195499548283102F0F6F90020F8BDE5
:101B1C00182840D1200002F007FD027A0400861D2F
:101B2C00062A5ED013D8022A45D0032A4ED1B38898
:101B3C00C1888B4A8B4802F0DFF9290030790022EA
:101B4C00FEF764FB31002800FFF7D6FEDEE7082A1B
:101B5C003CD1C188844AB388824802F0CDF9B2885E
:101B6C00062A48D00A2A00D1BFE07B4970317F4851
:101B7C0002F0C2F9862231002800FFF7BFFBC5E74F
:101B8C00D423754A5B00E858833B0021FF3B343279
:101B9C00FFF73CFBBAE7200002F0C2FC6E490200E2
:101BAC002831734802F0A8F9B0E76B497148283125
:101BBC0002F0A2F9AAE7C188B3886F4A694802F01B
:101BCC009BF931002800FFF797FE9FE76B496C48A3
:101BDC00043102F091F9812231002800FFF78EFBCD
:101BEC0094E7B288931F9BB2052B00D98BE0654A12
:101BFC009B00D3589F46B3790C2B00D186E0002272
:101C0C0031002800FFF77AFB80E7B379102BF6D16F
:101C1C00D2210200490068588439F3790E32FF3919
:101C2C0002F0C8FBEBE7B3790C2BE8D1F3791F1C5E
:101C3C00172B00D9172721002C00B134FF34BFB269
:101C4C003A0020000E3102F077FF0023EF19B13774
:101C5C00FF3721003B704C4802F04EF9CFE7B379C7
:101C6C000C2BCCD19933F279FF33EF580E34042A74
:101C7C0060D0052A31D01C2100230022380002F04C
:101C8C0099FBBCE7B379042BB9D10200A133FF3324
:101C9C00E858A43B20210D32FF3B02F08BFBAEE752
:101CAC00B379052BABD1E121827B437B12021A4322
:101CBC00141C09018A4200D90C1CA4B2210033481F
:101CCC0002F01AF96201121B93019B1AD622DB0057
:101CDC001B199B015200AB5091E720002C4902F0DC
:101CEC001DFF0028C7D11A21C6E7B379092B18D0DC
:101CFC00082B84D19D33FF33E85800220023232185
:101D0C0002F058FB7BE714495C3130E7D22122000A
:101D1C00490068588639F3790E32FF3902F04AFBD4
:101D2C006DE79C33FF33E85800220023222102F098
:101D3C0041FB64E72000174902F0F0FE002808D0B0
:101D4C0004222000144902F0E9FE002893D1192145
:101D5C0092E71B2190E7C046145B00085C62000808
:101D6C00F062000878620008006300082462000832
:101D7C00685E00084462000870620008945B00080A
:101D8C0008630008B0560008AC620008C462000882
:101D9C00A46200089C6200082863000870B5050066
:101DAC000C0082B0002926D009681548FFF720FBEB
:101DBC00E026E423AC51EC502B000021E433D97124
:101DCC00A28928005A81002299801A721A73103144
:101DDC00FEF7D0FAAB59002B0DD01C68200000F098
:101DEC007DFE80B2009023000C2200210620FEF71D
:101DFC00CBF902B070BDA521024A0348FFF784F865
:101E0C00306300080862000814620008F0B5D6467A
:101E1C004F464646C0B505008CB008000C0002F0D9
:101E2C007FFB1538C0B211281BD86A4A8300D358DF
:101E3C009F46E0236849EB581431002B07D05B1AFE
:101E4C001B1101339BB2052B01D01B01C9182800B3
:101E5C00FFF7A4FF61480CB0E0BCBA46B146A846F7
:101E6C00F0BD200002F05CFB5B49020064315C4871
:101E7C0002F042F80020EEE7200002F055FB81460C
:101E8C00200002F04FFB544B564F1E00804638008A
:101E9C009A460024143600F021FE40450AD0013445
:101EAC00A4B21036052CD5D03768380000F016FED9
:101EBC004045F4D142463900484602F02FFE002836
:101ECC00EDD15346210114335918C0E7200002F01C
:101EDC002BFB01782800FEF74DFA0020BBE7200011
:101EEC0002F022FB0600200002F01CFB27216A46B0
:101EFC000023D8275218137004001300310002007D
:101F0C00E85902F0F3FC002839D0E8590AA902F08C
:101F1C00DFFC04230A200093102200210AABFEF7F9
:101F2C0033F9002097E7200002F0FEFA2E4A818850
:101F3C000AAC5143890B2180438809045A43920B04
:101F4C00628000881204C3011B181B011B1A9B0A18
:101F5C00A3801B041B0C120C090C2448FFF748FA35
:101F6C00062303200093102223000021FEF70CF916
:101F7C00002070E71E4801F0BFFF00206BE727220E
:101F8C006B469B1819781B4801F0B6FF7589B07821
:101F9C00AC46357B7178A846757B7268A946F57896
:101FAC00337AAA46777A002530300E2C01D90E25CB
:101FBC007557544605944C46049444460394644621
:101FCC00019006950C480294009701F095FF0020B3
:101FDC0041E7C046C8560008945B00083D22000843
:101FEC00445E0008CC6100084DCE0000446300083C
:101FFC00F86300086C63000888630008F0B5C646F7
:10200C0000B5040088B008000D0002F089FA2728FA
:10201C0003D87D4B80001B589F4629002000FFF7FA
:10202C00F5FE0500280008B080BCB846F0BDF623CC
:10203C00E35C002B54D00025F4E7F526A35D022BBE
:10204C0000D1C6E00025032BECD180276F49FF059A
:10205C007A6A28316E4801F04FFF01223B6800215B
:10206C0093433B600223A355230000920820F533D1
:10207C000332FEF789F86748FFF7BAF9D2E7E42292
:10208C00654B624D7033A3502900644801F034FF56
:10209C00F52303220126E254230000210820F53306
:1020AC0001320096FEF770F8D82304A9E05802F02C
:1020BC0073FC002300286DD1F6220025A354B1E750
:1020CC00D82304AD2900E05802F066FC0026002855
:1020DC005BD1AB7BDB074AD4F6230025E654A1E7A2
:1020EC004F4D9FE7494E80253100ED056A6A283136
:1020FC00474801F001FF01222B6893432B60D82342
:10210C00E05802F0BFFB3100464801F0F5FE002517
:10211C0088E7F523E25C0025022A00D082E7013231
:10212C00E254012623008024F533002101320820DB
:10213C000096FEF729F83C48FFF75AF93349E405B5
:10214C00626A3348403101F0D7FE23683343236081
:10215C0068E7F526A35D0025032B00D062E774E742
:10216C00280002F0E1F9FEF755F92D4D5AE7D82376
:10217C0003A9E05802F0ACFB0423102200930021C9
:10218C000A2003ABFEF700F8A6E72800FEF75CF97F
:10219C0006009EE76B46187D5B7D1843FDF7CAFF72
:1021AC0028235B4298462900049F1031B8444246CC
:1021BC001E4801F0A1FE80234246DB05293F5F63E8
:1021CC005A621A6804A816431E60FEF73DF9030014
:1021DC0072E70133A355012523008024F533042233
:1021EC00002108200095FDF7CFFF0F48FFF700F9FD
:1021FC000649E405626A0648403101F07DFE236819
:10220C002B43236000250DE710570008145C0008D1
:10221C002864000860640008945B00080C640008E3
:10222C003D220008386400084C6400082064000853
:10223C0030B5040083B008000D0002F071F92728B6
:10224C0006D8294B80001B589F46002003B030BD98
:10225C0029002000FFF7DAFDF8E7E023E422002153
:10226C00E358A350E434E1719A89A1806281002281
:10227C00227222739A7B002AE7D019681B48FFF759
:10228C00B7F81B48E2E71B491B485C3101F034FEF0
:10229C000122F523E2542300082000920021F5339B
:1022AC000332FDF771FF0020D0E7E423E358002B45
:1022BC0014D019681148FFF79BF80020C6E70D49A8
:1022CC000F485C3101F018FE0020BFE7D823E0581E
:1022DC0002F0E8FA0028B8D10A48B7E7A5210A4A63
:1022EC000A48FEF711FEC046B0570008706400089B
:1022FC00F5240008145C00080C64000880640008D5
:10230C0038640008092000080862000814620008FC
:10231C0030B5050083B008000C0002F001F9272845
:10232C0003D82A4B80001B589F4621002800FFF73A
:10233C006DFD03B030BD26492648683101F0DCFD47
:10234C00F5230222EA542B00013A082000920021C6
:10235C00F5330332FDF718FF0020EAE71C491E484D
:10236C00683101F0C9FD0020E3E7E423EB58002BB2
:10237C0027D019681948FFF73BF81948D9E7D82333
:10238C00E85802F08FFA002817D11648D1E7EE234F
:10239C00EB5A002B09D1E433EB58002B11D0196800
:1023AC001148FFF725F81148C3E7E423EB58002B3D
:1023BC0007D019680E48FFF71BF80020B9E708484A
:1023CC00B7E7A5210B4A0C48FEF79EFD50580008B4
:1023DC00145C00080C640008386400089064000861
:1023EC00F524000809200008806400083D2200083C
:1023FC00A06400080862000814620008F0B5418966
:10240C00030085B00020002901D105B0F0BD187B78
:10241C001D689E881A7900282FD16C46A97B187AE2
:10242C005200091A01392181012119736968885CEC
:10243C008E182071727862719B799B006381698917
:10244C00C825E180AD00AB4200D96581024231D193
:10245C00052303405D426B4123731F4B994221D8E6
:10246C006389072B1ED92389002B1BD01043FDF742
:10247C0061FE2000FEF70EF8C7E701322889D4B2BE
:10248C00A0420DD062006C46187A0130C0B21872AE
:10249C002081AF7B013FB84211D000211973C5E7F1
:1024AC000022F0E70D4801F027FD2000FDF7B2FFF8
:1024BC000020AAE740210A4A0A48FEF725FD002021
:1024CC000136B6B218729E802F89B742E5D1013918
:1024DC0098805981E1E7C04624F40000E0640008CC
:1024EC00B0640008CC640008F0B5D6464F464646AA
:1024FC00C0B5050082B008000C0002F011F82728C6
:10250C001BD8484A800013589F46E0234649EB5895
:10251C001431002B07D05B1A1B1101339BB2052B16
:10252C0001D01B01C9182800FFF738FC002002B0AD
:10253C00E0BCBA46B146A846F0BD21002800FFF722
:10254C0065FCF4E73948F2E7200001F0EDFF814625
:10255C00200001F0E7FF344B354F1E008046380059
:10256C009A460024143600F0B9FA40450AD00134DA
:10257C00A4B21036052CD9D03768380000F0AEFA6A
:10258C004045F4D142463900484602F0C7FA0028CB
:10259C00EDD15346210114335918C4E72549264877
:1025AC00743101F0A9FCE023EB58002B34D01C68EB
:1025BC00200000F093FA80B223000C22002100903E
:1025CC000620FDF7E1FDF5230322EA542B00023A25
:1025DC0000210820F53300920332FDF7D5FD2800C9
:1025EC00E430FFF70BFF0020A1E72800E430FFF7F1
:1025FC0005FF00289AD1E423EB58002B0CD0196866
:10260C000E48FEF7F5FE0E4891E70A490D48743165
:10261C0001F072FC00208AE7A5210B4A0B48FEF75B
:10262C0073FCC046F0580008945B00081D2300089A
:10263C00CC610008145C00080C640008806400087D
:10264C003D22000838640008086200081462000883
:10265C00134B70B5C618040030000D0001F09AFC45
:10266C0001280CD001222900300001F019FD0128AD
:10267C0000D170BDD3210B4A0B48FEF745FC0B4B28
:10268C00E256012A05D00A490A48383101F034FCD7
:10269C00E8E78021084A13688B431360E2E7C046E1
:1026AC0064100000F464000800650008D5140000F4
:1026BC00945A000828600008004400407047C04647
:1026CC0010B50B00EFF31084012181F31088190071
:1026DC00FDF7A2FF84F3108810BDC04610B582B080
:1026EC00EFF31084012181F310886B460122D91D70
:1026FC000020FDF791FF84F31088012803D16B466D
:10270C00D87902B010BD01204042FAE710B5FDF7B0
:10271C002DFF10BDF0B5DE464E4657464546E0B59A
:10272C009BB00AAB059340230693002307930893B1
:10273C0001330C0091469B460290099005E005A8D8
:10274C00FEF758F80898002859DB21780134002945
:10275C005CD02529F3D1220013780026022508200D
:10276C00140021392D2B0CD02D2B0ED8232B11D04E
:10277C002B2B00D05FE10E430132137814002D2B6C
:10278C00F2D15B4601321E43F7E7302B05D12E43C5
:10279C000132F2E706430132EFE71A00303A002526
:1027AC00092A0DD81A00AB005B1901345B009B1889
:1027BC002278303B1D001300303B092BF3D913005A
:1027CC002E2B00D1D8E000272378042101E0637878
:1027DC0001341A008A43682AF9D0252B07D0583BBC
:1027EC00DBB2202B07D8954A9B00D3589F46252156
:1027FC0005A8FDF7FFFF089801340028A5DA1BB0E7
:10280C00F0BCBB46B246A946A046F0BD08980028CD
:10281C00F5DD079C002C00D0C6E00019EFE74B4615
:10282C0049461B6805A81A1D0A60196810223B004E
:10283C0001960095FEF716F801340898DDE74B4633
:10284C0049461B6805A81A1D0A6019680A223B0034
:10285C0001960095FEF706F801340898CDE74B4633
:10286C0049461B681A1D0A601D6805E005A8FDF79E
:10287C00C1FF08980028BFDB297801350029F5D164
:10288C000898B9E74B4649461B6805A81A1D0A600B
:10289C00196800230193083310220093FDF7E2FF1F
:1028AC0001340898A9E74B4649461B681A1D0A6073
:1028BC001B68DA1798180393012350409A4609288D
:1028CC000DDDAA46A0461D000A210400013500F0CA
:1028DC00CDF9632CF8DC2B00444655469A46B84695
:1028EC00574575D3002D36D0039B002B74DB730733
:1028FC0072D4B30701D5002F2DD05B4633422AD1B9
:10290C00002D28D04346A0461C00AC4220D205A87E
:10291C002021FDF76FFF0898013D002800DA87E0C1
:10292C00002DF2D1230044469846039B002B58DB24
:10293C00730761D403233340022B62D005A83B00FC
:10294C000A22039901960095FDF78CFF089853E72E
:10295C0023004446984608980028E6DA01344CE7F0
:10296C004B4649461B6805A81A1D0A601978FDF7E5
:10297C0041FF0134089840E76378621C1900303934
:10298C0014000027092900D91FE71A00BB00DB1926
:10299C0001345B009B182278303B1F001300303B46
:1029AC00092BF3D9130010E7254B1B78002B15D0FE
:1029BC00EFF31085012181F31088220002980AA9F7
:1029CC00FDF79EFE85F310880898079C001916E702
:1029DC00D046002DBFD087E7013D8AE7FDF7C6FD45
:1029EC00E6E75B422D2105A80393FDF703FF08984A
:1029FC0000289FDA013400E72B2105A8FDF7FAFE29
:102A0C00F5E7002F9AD10AE0A8450CD205A8302191
:102A1C00FDF7F0FE0898013D002800DAECE6002DE9
:102A2C00F2D100258AE70898002887DA0134E4E619
:102A3C0044460134E1E60025C5E6C046905900083D
:102A4C00B021002010207047406870478378072021
:102A5C001840704703005A6808000A601A7A0A7115
:102A6C005A7A4A71072299780A40FA2102731A7B22
:102A7C004A43C280DA78920042815A8902815B7B98
:102A8C0043737047030010000E2908D90E229A5682
:102A9C0002700F2906D0DB7B5BB2437070470023BA
:102AAC001370FAE70023F8E7002243898A569B1833
:102ABC00C822920093420BDD1300012243818A56F7
:102ACC00C3889B18044A934200DD1300C3807047EF
:102ADC00082BF2DA0823F0E724F400000023C25C90
:102AEC000133002AFBD1581E7047000003B4714615
:102AFC00490840004900095E49008E4403BC7047F8
:102B0C00002243088B4274D303098B425FD3030A20
:102B1C008B4244D3030B8B4228D3030C8B420DD333
:102B2C00FF22090212BA030C8B4202D312120902C1
:102B3C0065D0030B8B4219D300E0090AC30B8B42FF
:102B4C0001D3CB03C01A5241830B8B4201D38B03AD
:102B5C00C01A5241430B8B4201D34B03C01A524152
:102B6C00030B8B4201D30B03C01A5241C30A8B4295
:102B7C0001D3CB02C01A5241830A8B4201D38B0280
:102B8C00C01A5241430A8B4201D34B02C01A524124
:102B9C00030A8B4201D30B02C01A5241CDD2C30996
:102BAC008B4201D3CB01C01A524183098B4201D312
:102BBC008B01C01A524143098B4201D34B01C01AFD
:102BCC00524103098B4201D30B01C01A5241C30875
:102BDC008B4201D3CB00C01A524183088B4201D3E4
:102BEC008B00C01A524143088B4201D34B00C01AD0
:102BFC005241411A00D20146524110467047FFE73C
:102C0C0001B5002000F006F802BDC0460029F7D03F
:102C1C0076E770477047C04610B5002903D100F025
:102C2C0007F8203002E0080000F002F810BDC046A2
:102C3C001C2101231B04984201D3000C10391B0AE0
:102C4C00984201D3000A08391B09984201D30009A4
:102C5C00043902A2105C40187047C04604030202FB
:102C6C0001010101000000000000000003460B43BD
:102C7C007FD4002243088B4274D303098B425FD369
:102C8C00030A8B4244D3030B8B4228D3030C8B4295
:102C9C000DD3FF22090212BA030C8B4202D312127B
:102CAC00090265D0030B8B4219D300E0090AC30B50
:102CBC008B4201D3CB03C01A5241830B8B4201D3FD
:102CCC008B03C01A5241430B8B4201D34B03C01AE6
:102CDC005241030B8B4201D30B03C01A5241C30A5E
:102CEC008B4201D3CB02C01A5241830A8B4201D3CF
:102CFC008B02C01A5241430A8B4201D34B02C01AB9
:102D0C005241030A8B4201D30B02C01A5241CDD25D
:102D1C00C3098B4201D3CB01C01A524183098B42A8
:102D2C0001D38B01C01A524143098B4201D34B0191
:102D3C00C01A524103098B4201D30B01C01A5241F4
:102D4C00C3088B4201D3CB00C01A524183088B427B
:102D5C0001D38B00C01A524143088B4201D34B0064
:102D6C00C01A5241411A00D20146524110467047D6
:102D7C005DE0CA0F00D04942031000D340425340DB
:102D8C0000229C4603098B422DD3030A8B4212D39B
:102D9C00FC22890112BA030A8B420CD389019211CD
:102DAC008B4208D3890192118B4204D389013AD00A
:102DBC00921100E08909C3098B4201D3CB01C01ADF
:102DCC00524183098B4201D38B01C01A52414309F2
:102DDC008B4201D34B01C01A524103098B4201D3E0
:102DEC000B01C01A5241C3088B4201D3CB00C01A4D
:102DFC00524183088B4201D38B00C01A5241D9D265
:102E0C0043088B4201D34B00C01A5241411A00D2E5
:102E1C000146634652415B10104601D34042002BE1
:102E2C0000D54942704763465B1000D3404201B560
:102E3C000020FFF7EFFE02BD0029F8D016E770471F
:102E4C00002B11D1002A0FD1002900D1002802D06B
:102E5C000021C943080007B4024802A1401802909F
:102E6C0003BDC046B1FDFFFF03B4684601B502982F
:102E7C0000F006F8019B9E4602B00CBC7047C046A1
:102E8C00F0B557464E464546DE46E0B504000D000B
:102E9C009246994683B08B4230D82DD04946504645
:102EAC00FFF7BAFE290006002000FFF7B5FE331A23
:102EBC009846203B9B4633D45A4653469340424651
:102ECC001F00534693401E00AF423AD8AF4200D188
:102EDC0078E05B46A41BBD41002B00DA75E00022B4
:102EEC0000230092019301235A469340019301233E
:102EFC0042469340009328E08242CFD9002200231F
:102F0C00009201930C9B002B01D01C605D6000981B
:102F1C00019903B0F0BCBB46B246A946A046F0BD31
:102F2C00424620239B1A5246DA40414613004A4639
:102F3C008A40170042461F43534693401E00AF423F
:102F4C00C4D900220023009201934346002BD9D010
:102F5C00FB0772081A4346467B080EE0AB4201D1D0
:102F6C00A2420CD8A41A9D41012024196D410021C4
:102F7C00013E24184D41002E06D0AB42EED9013E45
:102F8C0024196D41002EF8D1009801995B46001967
:102F9C006941002B24DB2B005A464446D3402A00BF
:102FAC00E2401C005B461500002B2ADB26009E40ED
:102FBC00330026004746BE403200801A99410090EB
:102FCC0001919FE7A342BCD883E74246202300210E
:102FDC009B1A0022009101920122DA40019286E7AD
:102FEC00424620239B1A2A0046469A402300F3406F
:102FFC00444613432A00E2401C005B461500002B9C
:10300C00D4DA42462F002023260097409B1ADE403C
:10301C003B003343CDE7C0460D488546FFF74EFBDA
:10302C000C480D490D4A002302E0D458C450043317
:10303C00C4188C42F9D30A4A0A4C002301E01360ED
:10304C000432A242FBD301F031FD00F00FF8FEE791
:10305C0000900020000000206C0000202067000879
:10306C00700000208C220020FEE70000F0B5DE4648
:10307C0057464E464546E0B5B5B000F02FFF924995
:10308C00924800F039FF0722914B00215A63A0248B
:10309C000D3211A801F059FD0223E4051493200010
:1030AC000E3310A91093FDF7E3F8109A236913401F
:1030BC009A4206D1874B1B6883F30888864B1B68A2
:1030CC0098470323A0269A4611930023F6059846A9
:1030DC003000149310A943331093FDF7C9F8202343
:1030EC00300010A910938024FDF7C2F84346012745
:1030FC007A4D1393A4000233280011971293109465
:10310C0010A9AC629946FDF7B3F8402374481093AC
:10311C0010A98361FDF7ACF82723280013971093AF
:10312C0010A9AB61FDF7A4F84B46119315934346D8
:10313C00C02513935346AD00129310953000B56221
:10314C0010A9FDF795F80C23300010A915971093D2
:10315C00FDF78EF880215E4B09065A6D0120920016
:10316C0092080A435A655F4ADA635F4A1A649A6B9B
:10317C0017439F635D4B1A6815431D605C4DFDF74B
:10318C00E3FE2B685B4A5C4913401C432C605B4C90
:10319C0023685800C0184000FFF7B2FC80226B690E
:1031AC00D2000130134202D105E0002803D06B6934
:1031BC0001381342F9D180214D4A490013680B4361
:1031CC00136013680B42FCD00221414A4C4BD3656F
:1031DC00D36D1942FCD0382391680B40D168102B69
:1031EC0001D100F01AFC002B01D000F01AFC13687E
:1031FC004449536819408023DB010B435360136827
:10320C0041490B4013601368404A9B045B0FDA4042
:10321C0022606068FDF798FE002833D138222C49D3
:10322C008B681340102B01D100F052FD80200B68ED
:10323C00374A80041340374A0B60556F03E0536FD5
:10324C005B1B022B1ED80B680342F8D1CB683248AB
:10325C001840324B0343CB60802308685B04034364
:10326C000B608023C8685B050343CB608021556FDE
:10327C001748890403E0536F5B1B022B02D80368C9
:10328C000B42F8D0062319490A681A4201D100F002
:10329C00FCFBE0230E49DB018A6813438B608B68CF
:1032AC001F4A13408B600B689B0101D400F000FC9B
:1032BC0007228B68382093431A0002231343154AC4
:1032CC008B60566F174D34E0FC60000810650008E9
:1032DC00001002400000FF1F0400FF1F00040050FC
:1032EC0000080050030002300108160000200240C4
:1032FC0000700040FFF9FFFF40420F00000000206B
:10330C0009800000FF80FFFFFFC7FFFF0024F400CF
:10331C00FFFFFFFE0C0100208C80C11132301646DD
:10332C00FFF0FFFF88130000536F9B1BAB4200D9CB
:10333C00BEE38B680340102BF6D10720F4490B68D1
:10334C000340022B01D900F089FCF24BF2499A6838
:10335C000A409A6038229968114201D000F061FC51
:10336C001B68EE489B045B0FD840ED4AE94B944632
:10337C009B6800921F221B051B0F9B0063445B681C
:10338C001340D84020606068FDF7DEFDE54AE64951
:10339C001368E6480B401360E54B22681968090571
:1033AC00090D00F0A9FDE34B1A68D20307D41A6883
:1033BC00E1490A401A60DA6BE0490A40DA6380237B
:1033CC00DC4A5B02116801250B4313603F22DC4988
:1033DC0009200B6893431A00052313430B60D94B48
:1033EC00D9491A681140D94A0A43D9491A609960D7
:1033FC000321D84AC632DA605A68120C12040A4306
:10340C005A60D54A5560022219680A431A6008228C
:10341C0019680A431A601A6829002A431A60FCF7D3
:10342C006BFECE4B9A682A4207D1DA68CC490A4027
:10343C00DA601A69920092081A618021C74B8903DD
:10344C00DA680A43DA608022920119681142FCD0D2
:10345C0007211A605A698A43110002220A4370211B
:10346C005A615A698A43110050220A430F215A614A
:10347C009A6A8A439A625A69AB490A405A619A6AB3
:10348C00F231FF318A43110010220A4380219A62E3
:10349C005A6989000A435A619A6AB2491140C0229A
:1034AC00D2000A4380219A625A69C9010A435A61BF
:1034BC009A68AD491140802252050A439A60AB4983
:1034CC002068FFF71DFB142343430393039B002B3E
:1034DC0005D0039B013B0393039B002BF9D19F4B1E
:1034EC00A3499A681140802212060A439A609A688E
:1034FC00002AFCDB802212011A6020230393039B19
:10350C00002B05D0039B013B0393039B002BF9D1AC
:10351C008023924D9B052A69032113432B611123B0
:10352C000C206B60FCF7E8FD0121EB68EB68AB68E5
:10353C000B4200D15EE38F4800F0DEFC0125874B87
:10354C008D491A6910A8AA431A611A690A401A61AE
:10355C009A6887490A402A439A607E4B6422C53395
:10356C0014A91D7000F00CFFE420400001F0C2FA19
:10357C00C822010052001031060000F001FFD023D8
:10358C007E4A5B00F250F8202D9601F0B3FA010050
:10359C00C8221031060000F0F3FE142001F04AF9A5
:1035AC00D8230022F050002338212E96009E309212
:1035BC00319302AA521888233100D55444317048F3
:1035CC0000F09AFC634A6F4B10A9D3678023D1504B
:1035DC00FA2260490433D2002068CA506A49FFF7C6
:1035EC008FFA0221694B6A4A013898625A63DA6889
:1035FC0016200A43DA605A692A435A611D60FCF7A7
:10360C007BFD644801F076FA634B01009C46634BEA
:10361C00614496229C46050001909200604400F0A3
:10362C0099FCFF225E4B5F49EA542E9B00259B467A
:10363C00DC235A46D1507C3B9C4666443000FFF755
:10364C004DFA1422944683B29846574BB1466344C4
:10365C009A4653462F01FE583000FFF73FFA80453B
:10366C0000D108E20135052DF3D100275A46E0239D
:10367C0000255946D7501433D552364A603B206842
:10368C00D1503A49FFF73CFA484B494A0138986205
:10369C009A61112201261A6273325E601A608822C6
:1036AC001202DE6029005A640D20FCF725FD29006A
:1036BC000E20FCF721FD20682C49FFF721FA80230E
:1036CC001022DB050138986299690F200A439A6130
:1036DC000222D9680A43DA605A69290016435E61EE
:1036EC00FCF70AFD2D9E17223000B1303149FF3016
:1036FC002E9F01F063FBD22301995B00F7502E4AF9
:10370C000433F1500433F2502E9B10AA56E0C046FD
:10371C000020024000100240FF8FFFFF0024F40045
:10372C00945C000800700040FFFEFFFF2465000859
:10373C000058014000740040FFFF03FFFFFFF8FF3B
:10374C0000080240080002400F80FFFFA025000087
:10375C00402401408C000020000002400024014065
:10376C00C73FFFFFFFF0FFFFE8FFFF6F40420F0076
:10377C00E8FFFF7F44650008FFFFFFDFB509000885
:10378C00F86000084105000880841E0000480140D4
:10379C00400D0300DC1400007410000064100000E5
:1037AC00D514000095090008945B0008002C01401A
:1037BC006868000060650008C0E1E4009A46BE4BF2
:1037CC00BE4E5A6152469B469A61D961BC4B143627
:1037DC009846009B68330093BA4B99464046316833
:1037EC0000F08AFB3089736800280ED0002204E0B8
:1037FC00013292B20233904207D019785F780F42AF
:10380C00F6D04846009900F077FB0135EDB2103642
:10381C00052DE3D15146F6230022CA54AA4A1A3B7D
:10382C00CA5000F051FE80260100A84D5046FEF70C
:10383C00FFFC10215046FCF79DFD6B69B60033422E
:10384C0003D1A34800F058FBAE61A24910AA04A80A
:10385C0000F06EFBA04B883326C826C384201022B0
:10386C009E4B19589143195004381958114319504B
:10387C00196879381143196059680A435A60032151
:10388C00FCF73AFCD0232D9E954A5B00F25000F0D9
:10389C001BFE01003000FEF727F9D4235B00F5581E
:1038AC00904BEB5C7F2B00D8B5E100238E4A2E6049
:1038BC00AB548E4AAB528E4A8E4B516D0B435365B3
:1038CC008D4B98468B234246D36012688B4B134327
:1038DC0042461360C52294467F4B634499461B783D
:1038EC00012B00D9B5E202211C20FCF705FC4B464C
:1038FC0049461B787B4F5A1C5BB20A70EB55002B68
:10390C0033DB07AB18002A007D499A4600F010FB08
:10391C002A007C490AA800F00BFB0DAB18002A000A
:10392C007949994600F004FBEB57012B00D1D2E109
:10393C006C4BEA56754F764B383718003900984661
:10394C0000F0DAFA674BEA569946012A00D1EDE10C
:10395C003900404600F0D0FA4B46EA56012A00D115
:10396C00E4E13900404600F0C7FAD42300215B00A3
:10397C00F258684B6848D1546849343100F0BCFAAD
:10398C00674D8826382202AB9B189B5D002B00D11B
:10399C00D6E02E9B29001A001800009300F04EFD73
:1039AC000028EFD12D9B5F491A001800009300F0FE
:1039BC0045FD0028E6D110AA10005B4900F03EFD41
:1039CC00071EDFD101210DA800F0A6FA002800D0B7
:1039DC0056E172B6BFF34F8FBFF36F8F3E4AC432BE
:1039EC001378FF2B00D13DE201332E98137000F0B9
:1039FC00DDFC002800D052E1374AC4321378002B8A
:103A0C0000D12DE2013BDBB21370002BB9D1BFF317
:103A1C004F8FBFF36F8F62B6B3E70D3B194002298E
:103A2C001FD03349414A0B68802013400B60802320
:103A3C000A685B0013433E4A0B60556FC00004E0FC
:103A4C00536F5B1B022B00D91CE40B680342F7D0AD
:103A5C004B68384A1A408023DB0113434B60FFF755
:103A6C00DDFB13683349536819408023DB010B439A
:103A7C005360FFF7CEFB42463100484601F04EF84A
:103A8C00002800D0EEE55744F0E5072002230A6831
:103A9C00294D82431343264A0B60566F0B68034033
:103AAC00022B01D1FFF7F5FB536F9B1BAB42F5D9F2
:103ABC00224B00936AE4C0468C010020945B000802
:103ACC0078650008886500083D2200080004005055
:103ADC00E4600008290500088C0000200018024052
:103AEC00F51A0008D5140000D4140000D8140000F6
:103AFC000010024008000C000044004001000020AF
:103B0C00D11700085103000869030008945A0008F3
:103B1C0028600008D9140000E8650008145B000850
:103B2C00B51800086118000841140008FFC7FFFF12
:103B3C000C010020FF80FFFF88130000945C00083C
:103B4C00D0252D9C6D00665900F0CCFC01002000A6
:103B5C00B047C54BC548635100F0CEF9D4235B0088
:103B6C00E458C34BE256012A04D0C249C24838314A
:103B7C0000F0C2F9FF228026BD4BC04DE2546B69A8
:103B8C00B6002E9C334203D0BD4800F0B5F9AE62AE
:103B9C00DC25665900F0A6FC01002000B047B94BAB
:103BAC00019A6351B24BD35C7F2B51D9019800F031
:103BBC00ABFFD8232E9CE05800F06CFF200000F0E7
:103BCC00A3FF2D9800F0A0FF72B6AF4800F094F957
:103BDC0000F0ACF91121AD4A136A8B4313628022B9
:103BEC00A64B92009A62DA3AFF3A9A61A84B1932C4
:103BFC009A62FEE7EB68A74AEB681A40A64B1343A0
:103C0C00EB60EB689B0200D498E4F023AA6A1B02D9
:103C1C001343AB6292E40821A04AA148FF31FDF79F
:103C2C0073F999681140082900D1A9E099681140ED
:103C3C00102900D18DE099681140202900D1D1E0E4
:103C4C009B681A40182A00D1FFE00020FFF78DFB7B
:103C5C009721924A92484900FDF756F902230D68C4
:103C6C0085432B430B60566F8E4D0B680340022B24
:103C7C0001D1FFF76AFB536F9B1BAB42F5D917E7DA
:103C8C002C2202AB9B181E785B460C3A9B5C002BDB
:103C9C0052D12F2E77D1594601338B5499E62D985A
:103CAC0000F084FB002800D1A6E610A800F07EFBF3
:103CBC00002800D1A0E680277B4EBF0073693B42F1
:103CCC007CD10421794A13698B43136130BF93E68D
:103CDC00CB68FFF7D7FA5246754B983383CA83C328
:103CEC00734BA43383CA83C343461A680423134318
:103CFC00424613605E4BEB56012B00D018E66C4A23
:103D0C00B333D5506A496B4A043BCA500B004A4640
:103D1C00B83383CA83C343461A6808231343424605
:103D2C001360534BEA56012A00D003E62023624A63
:103D3C0011680B43136018E60A2E57D05F4800F049
:103D4C00DBF83000FDF7DEFB202300225946CA5475
:103D5C003FE6DA68D968D243D8684906490F40046F
:103D6C000131450E92076BD05548FEF7C9FE6843EA
:103D7C00544BD968490F0131FEF7C2FEFFF7F5FA33
:103D8C005148FFF7F2FA21215A465846525C8354A7
:103D9C000A2E09D0531CDBB243548654142B00D08A
:103DAC0017E6464800F0A8F8484E5946300000F097
:103DBC00A3F8212300225946CA540AE60620236898
:103DCC0043495843FEF79CFE3368424A0130134086
:103DDC00336003E0002800D10EE6013873693B42E2
:103DEC00F8D16EE780200002FFF7BFFA2123984636
:103DFC005B464246594640469A5C344E531CDBB2F5
:103E0C000B542F2158468154142B09D12B4800F008
:103E1C0073F85946300000F06FF85B4642469F54E9
:103E2C000022904621275B465A464146DB5D300016
:103E3C00D154594600F060F85B464246DA5583E7A8
:103E4C002148FEF75DFE684392E7FA20C001FFF7B8
:103E5C008CFA214800F050F8FF23054AAB5484E556
:103E6C00FDF7BEF8FDF79EF8B50900080C660008D2
:103E7C00D5140000945A0008286000080004005073
:103E8C00D0600008950900081C660008002C014051
:103E9C00000800503CC2FEFF03100000A0650008A3
:103EAC0000650008881300000070004000ED00E081
:103EBC008C0000205D2600080044004020660008AD
:103ECC000024F4000010024000127A00FC65000887
:103EDC0040420F00FFBFFFFFB465000810B5FEF7AE
:103EEC0015FC10BD00B583B0019101AA01000020A2
:103EFC00FEF710FC03B000BD0FB400B583B004ABEB
:103F0C0002CB01AA002000930193FEF703FC03B03F
:103F1C0008BC04B01847C0460A0010B501000020C8
:103F2C00FEF7CEFBC343DB17184010BD7047C046ED
:103F3C0000238360426001607047C04610B503687F
:103F4C000400002B04D040689847A3680133A36099
:103F5C0010BDC04601604B1E9941002349421140DF
:103F6C0041608360C360704700238360C360704707
:103F7C0003009B68C068C01A43425841C0B27047E6
:103F8C000200C368581E9368C01A536800D5C01845
:103F9C007047C04603008268C1685B68501A00D540
:103FAC00C0187047F0B54646D6464F460500C0B51A
:103FBC00EB688068013B0E0014001B1A1ED4934260
:103FCC001AD31700002F05D12000E0BCBA46B14629
:103FDC00A846F0BDAB6828689C463A0060443100A6
:103FEC0000F0AAFDAB689C466B686744AF609F42CB
:103FFC00EAD10023AB60E7E70020E6E76A68904669
:10400C004344A342F8D30319994627009A42D9D8BE
:10401C00131A9A462B6852469C46604400F08CFD5D
:10402C0000234246AB604B4656449F1ACAE7C04633
:10403C00F8B54746CE4680B5C66883680500884605
:10404C009C1B0BD4944207D82700002C20D138009D
:10405C00C0BCB946B046F8BD1400F5E743689946B4
:10406C004C44944200D91400331927009945ECD8DC
:10407C004B469F1B2B683A009919404600F05CFD9B
:10408C004B46F61AA419B84400263F19002CDED072
:10409C00296822004046891900F04EFDD7E7C0463A
:1040AC00F0B54F464646D646C0B50F008368C1688A
:1040BC00060014005B1A1ED493421AD31500002D6F
:1040CC0005D12000E0BCBA46B146A846F0BDF36865
:1040DC0031689C462A006144380000F02DFDF368DD
:1040EC009C4673686544F5609D42EAD10023F360F9
:1040FC00E7E70020E6E7426890464344A342F8D342
:10410C000B19994625009A42D9D8531A9A46036836
:10411C0052469C463800614400F00EFD0023424696
:10412C00F3604B4657449D1AC9E7C04670B5010071
:10413C000400861D1D4D1E4823781B025840082381
:10414C0004E0013BDBB280B2002B09D002B240008C
:10415C00002AF6DA013B6840DBB280B2002BF5D1C5
:10416C000134A642E8D14B888A781D0A1202154305
:10417C001BD008314D190D4CADB20B781B025840B9
:10418C00082304E0013BDBB280B2002B09D002B261
:10419C004000002AF6DA013B6040DBB280B2002B13
:1041AC00F5D101318BB2AB42E7D170BD21100000CB
:1041BC00FFFF0000052804D883001B180248C01814
:1041CC0070470248FCE7C0463466000830660008B9
:1041DC0070B5040004A800784900000108430121CF
:1041EC000143072018400023D2000243638023714F
:1041FC00200000230725C9B221706270661D0822B9
:10420C0001304B4004E0013AD2B2DBB2002A09D0B3
:10421C0059B25B000029F6DA013A6B40D2B2DBB23C
:10422C00002AF5D1B04201D00178E8E76371200093
:10423C00FFF77CFF030AE071A371200070BDC0463C
:10424C0070B5040004A840C84900058820001B0173
:10425C000B43D20031002370627008302A0000F04A
:10426C006BFC2B0AA3700023E5702000072523713B
:10427C00661D02785340082204E0013AD2B2DBB248
:10428C00002A09D059B25B000029F6DA013A6B40DA
:10429C00D2B2DBB2002AF5D10130B042E9D1637160
:1042AC002000FFF743FF030AE071A371200070BDEB
:1042BC0070B5002307244679451D02785340082227
:1042CC0004E0013AD2B2DBB2002A09D059B25B0049
:1042DC000029F6DA013A6340D2B2DBB2002AF5D1FA
:1042EC000130A842E9D1F01A42425041C0B270BD2F
:1042FC0000788006800F704700780007400F7047E9
:10430C0040788006400F704743780720184070476C
:10431C00827843881202180A10437047083070479D
:10432C0010B50400FFF702FFE388A1791B0A09020C
:10433C000B43181A42425041C0B210BDB0B500AF89
:10434C00050000F0BFF86A46C31DDB08DB00D31A7A
:10435C009D460200040069462800FFF769FE80B202
:10436C00844203D00024BD462000B0BD684600F056
:10437C00D3F804002800FFF70DFE8442F2D8F2E7D0
:10438C0070B505000C001600002905D0320028007D
:10439C002100FFF7DFFD70BD3D21024A0248FCF70A
:1043AC00B3FDF3E7546600086466000810B5FFF728
:1043BC00DFFD10BDF8B5DE4657464E464546E0B526
:1043CC0000AF1E0080468A46914600F07BF86B4693
:1043DC00C41DE408E4001B1B9D460500801983B234
:1043EC003200514668469B4600F08AF8FCF7E6FD21
:1043FC004046FFF7C5FD002483450DD9FCF7FCFDB5
:10440C005B46E01ABD4643425841C0B2F0BCBB46C5
:10441C00B246A946A046F8BD2A0069464046FFF7B9
:10442C00C1FD4B4684B2002BE8D0320049464046D1
:10443C00FFF7B8FD2418A4B2E0E7C046F8B54E4625
:10444C004546DE465746E0B500AF06008946904625
:10445C00FFF774FF0025041E07D1BD462800F0BCF1
:10446C00BB46B246A946A046F8BD6A46C31DDB084A
:10447C00DB00D31AEA469D46FCF7A0FD22006946F4
:10448C003000FFF70DFE0600B6B2EB46FCF7B4FDAC
:10449C00002E01D1D546E0E7684600F03DF8844295
:1044AC0005D159464046C8470125D546D5E72521B3
:1044BC00024A0348FCF728FDF3E7C0467C66000877
:1044CC00646600080C20704710B5FCF715FE02005E
:1044DC000B0003480260436080235B02836010BDC5
:1044EC006822002010B5FCF707FE02000B00034801
:1044FC000260436080239B02836010BD5822002021
:10450C0070B504000E001500FCF7F6FD6681206006
:10451C0061602581200070BD00890C3080B270472D
:10452C00807A7047008970470C30704710B5042AA8
:10453C0024D012D8012A15D0022A1BD105230370CE
:10454C000023441CC85CE0540133D8B29042F9D328
:10455C000220002A0AD180B210BD082A0AD10723F2
:10456C000370EDE7042303700B784370013AD0B26B
:10457C000230F0E7142303700120EDE706230370EB
:10458C00DEE7C046F0B5C6460E0000B5002917D0D0
:10459C00FF23050000240227984601CDFEF79EFA62
:1045AC0080B280459B415B420233C01801343F18F6
:1045BC00E4B2BFB2A642F0D1380080BCB846F0BD20
:1045CC000227F9E7F8B5DE4657464E464546162310
:1045DC00E0B583460370002A38D0013AD2B292007B
:1045EC0091460B1D0E000127994411E002220C2369
:1045FC0092462B7068700A3B020454444146120CDC
:10460C00E8183F19043600F097FABFB2B14512D042
:10461C005B46DD19336818009846FEF75FFA84B2E2
:10462C00FF2CE3D90D2303222B70230AAB70924687
:10463C0003236870E0E7781C80B25A461823D355E0
:10464C00F0BCBB46B246A946A046F8BD02200127E5
:10465C00F3E7C04607280DD9030004220C3B934313
:10466C00DBB2002B09D00D389043C3B20020002BD5
:10467C0006D07047013188B2FBE7023188B2F8E707
:10468C00033188B2F5E7C046F8B5050016001C00EA
:10469C000D2909D80B291BD80439032916D8310048
:1046AC00DAB2FFF743FFF8BD103901290ED8FF2B02
:1046BC002AD81023447003700227022022003100F4
:1046CC002818E41900F038FAA0B2ECE70020EAE769
:1046DC001000FEF703FA84B2FF2C0FD90D232B70B8
:1046EC00230AAB7003270323687002043100120CF9
:1046FC00E818E41900F020FAA0B2D4E70C23022742
:10470C002B7068700A3BF0E711230370230A447086
:10471C00837003270320D1E7F0B5C64600B5838B21
:10472C0004000D00012600AF002B04D0BD46300064
:10473C0080BCB846F0BD6A46CB1DDB08DB00D31A43
:10474C00E8469D460A0004306946FFF7A9FC8542FD
:10475C0002D00026C546E9E7210068461431FEF771
:10476C0079F92200290068462432FEF78BF92222BF
:10477C000121A35C0B43A354C546D7E7F8B54546C6
:10478C005746DE464E46E0B5838B0400884615003E
:10479C0000AF002B25D00600242314369A46B346CE
:1047AC0082442B005A4643CA43C3222112685846FE
:1047BC001A600122635C934363542A816269A38B60
:1047CC009446013BA383638B514663446361FEF7BC
:1047DC006BF90120BD46F0BCBB46B246A946A046CB
:1047EC00F8BD0B006A460733DB08DB00D31AE94639
:1047FC009D460A0004306946FFF752FC804502D002
:10480C000020CD46E6E72600143631006846FEF758
:10481C0021F924239A46A244524641466846FEF7A3
:10482C0031F922220121A35CB3460B43A354CD469C
:10483C00B7E7C04670B50500582000F05BF90600DC
:10484C00FEF700F901356C1044430134A4B220008A
:10485C0000F050F9010030000025220002C0FFF7E3
:10486C0079FB2000B58300F045F9B06201003000FF
:10487C0022002C30FFF76EFB44233000F5523565D7
:10488C00756570BD70B5040004300025FFF76CFB36
:10489C002000A5832C30FFF767FB4423E5522565E8
:1048AC00656570BD10B5838B0400002B01D0002012
:1048BC0010BD0430FFF75CFB0028F8D04423E35A0A
:1048CC00002BF4D120002C30FFF752FBF0E7C04650
:1048DC0070B5040004300D00FFF752FB2880200057
:1048EC002C30FFF74DFB688070BDC046F0B54F46CD
:1048FC004646D646C0B5804600AF08000C0091462F
:10490C001E00FEF7A3F8012808D9012300203370FC
:10491C00BD46E0BCBA46B146A846F0BD85002D1890
:10492C00FEF790F8ED000435454482462800FFF769
:10493C0027FB824503D9022300203370E8E72000CF
:10494C00FEF782F843461B6D834201D300281ED12B
:10495C004346186553466A460733DB08DB00D31A17
:10496C009D4652460021684600F0EFF84A46210069
:10497C0000F0E2F8524669462800FFF713FB0300EB
:10498C0001209A45C4D0042300203370C0E70323D0
:10499C0000203370BCE7C046F0B5D6464F464646BD
:1049AC00C0B504000D00FEF74DF807000100200013
:1049BC00FFF7B2FE00285AD0200039002830FFF74C
:1049CC00ABFE804600284BD000276169E06B2723A3
:1049DC0088427F4188429241784298435242013347
:1049EC009C4693009B18DB00E3181A002900143234
:1049FC00BA468146C1CAC1C11268E1440A6022228A
:104A0C0094469C44624601206146127882430A70A7
:104A1C002881596948468C4649469A8B2431013A7B
:104A2C009A835A8B1430624420185A616118FEF72D
:104A3C003BF8534698005044C700E41964692B684E
:104A4C002800E41AFCF75AFA844218DDEB889C42E1
:104A5C0000DAEC804046E0BCBA46B146A846F0BD50
:104A6C002A0039002000FFF789FE8046F2E720007B
:104A7C002A0039002830FFF781FE8046EAE76721DB
:104A8C00024A0348FCF740FAE0E7C0469C6600087F
:104A9C00C466000810B50400806A00F035F8206880
:104AAC0000F032F8200000F02FF810BD70B5002691
:104ABC000C4D0D4C641BA410A64209D1002600F02D
:104ACC0023FD0A4D0A4C641BA410A64205D170BDEF
:104ADC00B300EB5898470136EEE7B300EB58984714
:104AEC000136F2E718670008186700081867000815
:104AFC001C67000810B5034B0100186800F09AF809
:104B0C0010BDC0460800002010B5034B010018680A
:104B1C0000F024F810BDC0460800002030B5002479
:104B2C000139A24201D1002005E0035D01340D5D85
:104B3C00AB42F6D0581B30BD002310B59A4200D1C1
:104B4C0010BDCC5CC4540133F8E7030082189342C7
:104B5C0000D1704719700133F9E7000070B50500FA
:104B6C00002910D00C1F2368002B00DAE418280051
:104B7C0000F070F91D4A1368002B05D163601460B6
:104B8C00280000F06FF970BDA34208D921686018A5
:104B9C008342F3D118685B6841182160EEE71A0074
:104BAC005B68002B01D0A342F9D911685018A042C0
:104BBC000BD120680918501811608342E0D1186895
:104BCC005B68411811605360DAE7A04202D90C23EC
:104BDC002B60D5E721686018834203D118685B68A5
:104BEC004118216063605460CAE7C04678220020F7
:104BFC0070B50F4E0D0031680400002902D100F091
:104C0C008FF830602900200000F08AF8431C0AD08D
:104C1C000323C51C9D43A84207D0291A200000F08D
:104C2C007FF8431C01D101256D42280070BDC046A0
:104C3C007C220020F7B50322CB1C934308330600DB
:104C4C001F000C2B32D20C27B94231D8300000F0A7
:104C5C0001F9324D2B681C00002C2ED1390030008C
:104C6C00FFF7C6FF0400431C1ED12C682500002D45
:104C7C004AD123682900E3183000019300F050F862
:104C8C00019B834243D123680337FF1A03239F43BD
:104C9C0008370C2F00D20C2739003000FFF7A8FF83
:104CAC00431C34D02368DF19276013E0002BCBDAC8
:104CBC000C23002533602800FEBD2268D11B20D4B4
:104CCC000B2917D9E2192760A34211D12A60636816
:104CDC00116053603000250000F0C4F807220B353A
:104CEC00231D9543EA1A9D42E5D05B1BA350E2E7D6
:104CFC005A60ECE76268A34201D12A60EAE75A6085
:104D0C00E8E723006468A7E72C006D68AFE70C2385
:104D1C003000336000F0A6F8CDE7C04678220020C2
:104D2C00002370B5064D040008002B6000F0DEFB7C
:104D3C00431C03D12B68002B00D0236070BDC046F0
:104D4C00802200200CB430B5174B0C001D689DB0B0
:104D5C00002908DA8B2301202B6040421DB030BCA7
:104D6C0008BC02B0184782236A469B00938200233A
:104D7C0002900690994200D04B1E04930793012396
:104D8C006A465B42D382280021AB209A02A9019388
:104D9C0000F0D2F8431C01DA8B232B60002CDDD001
:104DAC000023029A1370D9E70800002003000A7848
:104DBC0001311A700133002AF9D17047030030B564
:104DCC001D00002A06D00C78013A01332C700131F9
:104DDC00002CF5D100219A18934200D130BD1970E6
:104DEC000133F9E730B5140005001A009BB0002C14
:104DFC0005DA8B230360012040421BB030BD8223B7
:104E0C0068469B0083810023009104919C4200D052
:104E1C00631E02930593012369465B42CB812800F4
:104E2C001E9B00F089F8431C01DA8B232B60002CAD
:104E3C00E3D00023009A1370DFE7000007B500935E
:104E4C0013000A00010002480068FFF7CBFF0EBDFB
:104E5C000800002010B5024800F0F0FA10BDC04662
:104E6C008422002010B5024800F0E9FA10BDC046BB
:104E7C0084220020F0B58E6885B007000C000392E8
:104E8C0001939E423CD890238A89DB001A4234D08D
:104E9C000969236860695B1A029303234343DD0F9E
:104EAC00ED18019B029801331B186D10AB4200D911
:104EBC001D00530532D529003800FFF7BBFE061E36
:104ECC0009D10C233B6040230120A28940421343AB
:104EDC00A38105B0F0BD029A2169FFF72DFEA389CD
:104EEC00144A1A4080231343A381029B2661F618AF
:104EFC0026606561019EED1AA560019B9E4200D95A
:104F0C00019E32000399206800F0A5FAA3680020E6
:104F1C009B1BA36023689E192660DAE72A003800E1
:104F2C0000F0ACFA061EE0D138002169FFF716FE3E
:104F3C00C7E7C0467FFBFFFFF0B5A1B003901D0093
:104F4C008B890F0016001B0611D50B69002B0ED197
:104F5C004021FFF76FFE38603861002805D10C2323
:104F6C00039A0138136021B0F0BD40237B6100230C
:104F7C0008AC6361203363761033A3760795350054
:104F8C002B78002B01D0252B47D1AB1B0593B542B9
:104F9C000CD0320039000398FFF76CFF431C00D192
:104FAC00AEE06269059B9446634463612B78002BE9
:104FBC0000D1A5E0012200235242626004A95432C0
:104FCC0052186E1C2360E360A3601370A365052266
:104FDC003178544800F034FA751C00281FD122682F
:104FEC00D30604D5532304A95B1820211970130789
:104FFC0004D5532304A95B182B21197033782A2B61
:10500C0016D0350000210A20E3682A786E1C303A4D
:10501C00092A4ED9002911D117E00135B0E7414BCF
:10502C002268C01A0123834013432E002360CEE76D
:10503C00079B191D1B680791002B01DB0B9304E0E8
:10504C005B42E3600223134323602B782E2B0AD19F
:10505C006B782A2B35D1079B02351A1D1B680792DA
:10506C00002B2BDB0993304E03223000297800F003
:10507C00E7F9002806D04023801B834022680135C5
:10508C00134323602978062228486E1C217600F0F1
:10509C00D7F900283CD0264B002B25D10722079BA3
:1050AC0007339343083307936369049A9B1863612E
:1050BC0065E74343350001219B18A6E701235B42BA
:1050CC00D0E700230A201A000135636029786E1C92
:1050DC003039092903D9002BC5D00992C3E74243C3
:1050EC00350001235218F1E707AB00933A00210079
:1050FC00104B039800E000BF0490049B0133D3D104
:10510C00BB890D985B0600D42DE7012040422AE7AD
:10511C0007AB00933A002100064B039800F07CF893
:10512C00EAE7C046DB660008E1660008E5660008B1
:10513C0000000000814E0008F7B5150001938A6845
:10514C000B690C000090934200DA130022002B60D4
:10515C0043321278002A01D001332B6023689B065E
:10516C0002D52B6802332B602268062317001F40E0
:10517C001A4227D0230043331B785A1E93412268CE
:10518C00920630D4220001990098089E4332B04711
:10519C00431C25D0062320682A68E16800250340BB
:1051AC00042B03D18D1AEB43DB171D40A368226936
:1051BC00934201DD9B1AED180027BD4220D100203F
:1051CC0010E00137E3682A689B1ABB42D2DD22004B
:1051DC00012301990098089E1932B047431CF0D165
:1051EC0001204042FEBD3020E118433108702100FF
:1051FC005A1C45310978A218433202331170C1E7A9
:10520C002200012301990098089E1A32B047431CD2
:10521C00E6D00137D1E70000F0B58BB006920A005A
:10522C0043320793059004920A7E0C00109B782A57
:10523C0007D8622A09D8002A00D1C1E0582A00D127
:10524C008CE026004236327022E0100063381528BC
:10525C00F7D8FDF74BFC16001F00F6FFF6FFF6FF24
:10526C00F6FF1F00F6FFF6FFF6FFF6FFA80036006C
:10527C009A00F6FFF6FFB900F6FF3600F6FFF6FFD0
:10528C009E0026001A684236111D1960136833708F
:10529C000123A7E0086819680A1D05060BD50D68DF
:1052AC001A60002D03DA2D23049A6D421370614BA2
:1052BC000A2703931BE00D681A604106F1D52DB245
:1052CC00EFE70D681968081D18602E0601D50D68EA
:1052DC0003E06D06FBD50D68ADB2564B0827039362
:1052EC006F2A00D002372300002243331A70636800
:1052FC00A360002B03DB0422216891432160002D65
:10530C0002D1049E002B0CD0049E28003900FDF71E
:10531C007DFC039B013E5B5C33702B0005009F42C0
:10532C00F3D9082F09D12368DB0706D563682269F6
:10533C00934202DC3023013E3370049B9B1B2361A0
:10534C00079B210000930598069B09AAFFF7F4FE22
:10535C00431C4CD1012040420BB0F0BD45310A70CA
:10536C00344A03921A68216820CA1A60080616D5B6
:10537C00CB0702D52023194321601027002DB2D171
:10538C00202322689A432260ADE7202209680A4351
:10539C0022602200782145321170274AE1E7480645
:1053AC00E6D5ADB2E4E71A680D68101D49691860BE
:1053BC0013682E0601D5196002E06D06FBD5198025
:1053CC000023049E2361BBE71A68111D196016683F
:1053DC0000213000626800F033F8002801D0801BF7
:1053EC006060636823610023049A1370A8E7236943
:1053FC00320006990598079DA847431CAAD023683C
:10540C009B0715D4099BE0689842A5DA1800A3E71E
:10541C002200012306990598079E1932B047431CB8
:10542C0098D00135E368099A9B1AAB42F0DCE9E7A6
:10543C000025F7E7EC660008FD660008704770472A
:10544C00C9B28218904201D10020704703788B4278
:10545C00FBD00130F6E710B5884202D98B18984280
:10546C0003D3002307E08B5C8354013AFBD210BDBD
:10547C00CC5CC45401339A42FAD1F8E7F7B5070073
:10548C000E001400002905D11100FFF7D3FB050015
:10549C002800FEBD002A03D1FFF760FB2500F7E7CB
:1054AC0000F01BF80190844203D835004308A34256
:1054BC00EED321003800FFF7BDFB051EE8D0019BA1
:1054CC0022009C4200D91A0031002800FFF734FB5F
:1054DC0031003800FFF742FBDAE70B1F1B68181F7F
:1054EC00002B01DA0B58C01870470000044A030067
:1054FC001068002802D0C318136070470148FAE7FF
:10550C008822002090220020F8B5C046F8BC08BCC8
:10551C009E467047F8B5C046F8BC08BC9E4670471E
:10552C006E1400085E1400085E1400085E14000877
:10553C005E1400088A1400085E1400086A1400083F
:10554C005E1400085E140008981400085E1400082D
:10555C005E140008B01400081C1600083215000870
:10556C0032150008321500083215000832150008F3
:10557C0032150008321500083215000832150008E3
:10558C002615000826150008261500082615000803
:10559C0026150008C4150008261500082615000855
:1055AC0026150008261500082615000826150008E3
:1055BC0026150008261500082615000826150008D3
:1055CC0026150008261500082615000826150008C3
:1055DC0026150008261500082615000826150008B3
:1055EC0026150008261500082615000826150008A3
:1055FC002615000826150008261500082615000893
:10560C002615000826150008261500082615000882
:10561C002615000826150008261500080216000895
:10562C00CC150008261500085E1500082615000884
:10563C002615000826150008261500082615000852
:10564C0026150008261500089E15000826150008CA
:10565C00B415000826150008261500084816000881
:10566C0026150008F21500082615000882150008FA
:10567C00E81500083C160008981A0008981A00084B
:10568C004E1900086C19000890190008AC19000894
:10569C001E1A0008461A00085E1A0008761A00083E
:1056AC0022190008021C0008901C00086A1C000843
:1056BC00321C0008161C0008AC1C0008321F000825
:1056CC006E1E00086E1E00086E1E00086E1E00087E
:1056DC006E1E0008601E0008801F00086E1E000869
:1056EC003E1E0008841E0008D81E0008EA1E000892
:1056FC006E1E00086E1E00086E1E00086E1E00084E
:10570C00801E0008262000088A200008F0200008CF
:10571C002620000826200008262000082620000845
:10572C002620000826200008262000082620000835
:10573C002620000826200008262000082620000825
:10574C002620000826200008262000082620000815
:10575C002620000826200008262000082620000805
:10576C0026200008262000081E2100085E210008C3
:10577C0026200008262000084620000826200008C5
:10578C0026200008262000082620000842200008B9
:10579C00EC2000086C210008CC20000842200008F6
:1057AC003A2000085C22000892220008CA22000855
:1057BC005C2200085C2200085C2200085C220008C5
:1057CC005C2200085C2200085C2200085C220008B5
:1057DC005C2200085C2200085C2200085C220008A5
:1057EC005C2200085C2200085C2200085C22000895
:1057FC005C2200085C2200085C2200085C22000885
:10580C005C2200085C220008662200085C2200086A
:10581C00562200085C220008662200085C22000860
:10582C005C2200085C2200085C220008D8220008D8
:10583C00562200085C2200085C2200085C2200084A
:10584C00B62200083623000842230008682300080B
:10585C0036230008362300083623000836230008B8
:10586C0036230008362300083623000836230008A8
:10587C003623000836230008362300083623000898
:10588C003623000836230008362300083623000888
:10589C003623000836230008362300083623000878
:1058AC003623000836230008CA23000836230008D4
:1058BC003623000836230008762300083623000818
:1058CC003623000836230008362300088A230008F4
:1058DC003623000836230008362300083623000838
:1058EC009A23000846250008A8250008162600085B
:1058FC0046250008462500084625000846250008D0
:10590C0046250008462500084625000846250008BF
:10591C0046250008462500084625000846250008AF
:10592C00462500084625000846250008462500089F
:10593C00462500084625000846250008462500088F
:10594C004625000846250008462500085025000875
:10595C004625000846250008502500081625000895
:10596C005425000846250008462500084625000851
:10597C00462500084625000838250008462500085D
:10598C00F62500082A28000802280008022800082A
:10599C000228000802280008022800080228000833
:1059AC000228000802280008022800080228000823
:1059BC006C290008B22800080228000802280008F8
:1059CC000228000802280008022800080228000803
:1059DC0002280008022800080228000802280008F3
:1059EC000228000890280008022800080228000855
:1059FC006A280008022800084A2800080228000823
:105A0C00022800082A28000872784572726F7243C7
:105A1C00616C6C6261636B0074784572726F724377
:105A2C00616C6C6261636B004253505F73636865B9
:105A3C0064756C65427572737400000030313233DA
:105A4C0034353637383941424344454673746174B2
:105A5C00654E6F700000000073746174654E6F705A
:105A6C0000000000486172644661756C745F4861A7
:105A7C006E646C657200000073707572696F75737B
:105A8C004952510054494D315F42524B5F55505F62
:105A9C005452475F434F4D5F49525148616E646C9D
:105AAC0065720000444D41315F4368616E6E656CF8
:105ABC00315F49525148616E646C657200000000A0
:105ACC004253505F646F4368616E6E656C416374E2
